{
  "contracts/Orderbook.sol": {
    "GradientOrderbook": {
      "abi": [
        {
          "inputs": [],
          "stateMutability": "nonpayable",
          "type": "constructor"
        },
        {
          "inputs": [
            {
              "internalType": "address",
              "name": "owner",
              "type": "address"
            }
          ],
          "name": "OwnableInvalidOwner",
          "type": "error"
        },
        {
          "inputs": [
            {
              "internalType": "address",
              "name": "account",
              "type": "address"
            }
          ],
          "name": "OwnableUnauthorizedAccount",
          "type": "error"
        },
        {
          "inputs": [],
          "name": "ReentrancyGuardReentrantCall",
          "type": "error"
        },
        {
          "inputs": [
            {
              "internalType": "address",
              "name": "token",
              "type": "address"
            }
          ],
          "name": "SafeERC20FailedOperation",
          "type": "error"
        },
        {
          "anonymous": false,
          "inputs": [
            {
              "indexed": false,
              "internalType": "uint256",
              "name": "oldFeePercentage",
              "type": "uint256"
            },
            {
              "indexed": false,
              "internalType": "uint256",
              "name": "newFeePercentage",
              "type": "uint256"
            }
          ],
          "name": "FeePercentageUpdated",
          "type": "event"
        },
        {
          "anonymous": false,
          "inputs": [
            {
              "indexed": true,
              "internalType": "address",
              "name": "recipient",
              "type": "address"
            },
            {
              "indexed": false,
              "internalType": "uint256",
              "name": "amount",
              "type": "uint256"
            }
          ],
          "name": "FeesWithdrawn",
          "type": "event"
        },
        {
          "anonymous": false,
          "inputs": [
            {
              "indexed": true,
              "internalType": "address",
              "name": "fulfiller",
              "type": "address"
            },
            {
              "indexed": false,
              "internalType": "bool",
              "name": "status",
              "type": "bool"
            }
          ],
          "name": "FulfillerWhitelisted",
          "type": "event"
        },
        {
          "anonymous": false,
          "inputs": [
            {
              "indexed": false,
              "internalType": "uint256",
              "name": "newMaxTTL",
              "type": "uint256"
            }
          ],
          "name": "MaxTTLUpdated",
          "type": "event"
        },
        {
          "anonymous": false,
          "inputs": [
            {
              "indexed": true,
              "internalType": "uint256",
              "name": "orderId",
              "type": "uint256"
            }
          ],
          "name": "OrderCancelled",
          "type": "event"
        },
        {
          "anonymous": false,
          "inputs": [
            {
              "indexed": true,
              "internalType": "uint256",
              "name": "orderId",
              "type": "uint256"
            },
            {
              "indexed": true,
              "internalType": "address",
              "name": "owner",
              "type": "address"
            },
            {
              "indexed": false,
              "internalType": "enum GradientOrderbook.OrderType",
              "name": "orderType",
              "type": "uint8"
            },
            {
              "indexed": false,
              "internalType": "enum GradientOrderbook.OrderExecutionType",
              "name": "executionType",
              "type": "uint8"
            },
            {
              "indexed": false,
              "internalType": "address",
              "name": "token",
              "type": "address"
            },
            {
              "indexed": false,
              "internalType": "uint256",
              "name": "amount",
              "type": "uint256"
            },
            {
              "indexed": false,
              "internalType": "uint256",
              "name": "price",
              "type": "uint256"
            },
            {
              "indexed": false,
              "internalType": "uint256",
              "name": "expirationTime",
              "type": "uint256"
            },
            {
              "indexed": false,
              "internalType": "uint256",
              "name": "totalCost",
              "type": "uint256"
            }
          ],
          "name": "OrderCreated",
          "type": "event"
        },
        {
          "anonymous": false,
          "inputs": [
            {
              "indexed": true,
              "internalType": "uint256",
              "name": "orderId",
              "type": "uint256"
            }
          ],
          "name": "OrderExpired",
          "type": "event"
        },
        {
          "anonymous": false,
          "inputs": [
            {
              "indexed": true,
              "internalType": "uint256",
              "name": "orderId",
              "type": "uint256"
            },
            {
              "indexed": false,
              "internalType": "uint256",
              "name": "amount",
              "type": "uint256"
            }
          ],
          "name": "OrderFulfilled",
          "type": "event"
        },
        {
          "anonymous": false,
          "inputs": [
            {
              "indexed": true,
              "internalType": "uint256",
              "name": "orderId",
              "type": "uint256"
            },
            {
              "indexed": false,
              "internalType": "uint256",
              "name": "amount",
              "type": "uint256"
            },
            {
              "indexed": false,
              "internalType": "uint256",
              "name": "remaining",
              "type": "uint256"
            }
          ],
          "name": "OrderPartiallyFulfilled",
          "type": "event"
        },
        {
          "anonymous": false,
          "inputs": [
            {
              "indexed": false,
              "internalType": "uint256",
              "name": "minSize",
              "type": "uint256"
            },
            {
              "indexed": false,
              "internalType": "uint256",
              "name": "maxSize",
              "type": "uint256"
            }
          ],
          "name": "OrderSizeLimitsUpdated",
          "type": "event"
        },
        {
          "anonymous": false,
          "inputs": [
            {
              "indexed": true,
              "internalType": "address",
              "name": "previousOwner",
              "type": "address"
            },
            {
              "indexed": true,
              "internalType": "address",
              "name": "newOwner",
              "type": "address"
            }
          ],
          "name": "OwnershipTransferred",
          "type": "event"
        },
        {
          "anonymous": false,
          "inputs": [
            {
              "indexed": false,
              "internalType": "uint256",
              "name": "newInterval",
              "type": "uint256"
            }
          ],
          "name": "RateLimitUpdated",
          "type": "event"
        },
        {
          "stateMutability": "payable",
          "type": "fallback"
        },
        {
          "inputs": [],
          "name": "DIVISOR",
          "outputs": [
            {
              "internalType": "uint256",
              "name": "",
              "type": "uint256"
            }
          ],
          "stateMutability": "view",
          "type": "function"
        },
        {
          "inputs": [],
          "name": "MAX_FEE_PERCENTAGE",
          "outputs": [
            {
              "internalType": "uint256",
              "name": "",
              "type": "uint256"
            }
          ],
          "stateMutability": "view",
          "type": "function"
        },
        {
          "inputs": [
            {
              "internalType": "uint256",
              "name": "orderId",
              "type": "uint256"
            }
          ],
          "name": "cancelOrder",
          "outputs": [],
          "stateMutability": "nonpayable",
          "type": "function"
        },
        {
          "inputs": [
            {
              "internalType": "uint256",
              "name": "orderId",
              "type": "uint256"
            }
          ],
          "name": "cleanupExpiredOrder",
          "outputs": [],
          "stateMutability": "nonpayable",
          "type": "function"
        },
        {
          "inputs": [
            {
              "internalType": "enum GradientOrderbook.OrderType",
              "name": "orderType",
              "type": "uint8"
            },
            {
              "internalType": "enum GradientOrderbook.OrderExecutionType",
              "name": "executionType",
              "type": "uint8"
            },
            {
              "internalType": "address",
              "name": "token",
              "type": "address"
            },
            {
              "internalType": "uint256",
              "name": "amount",
              "type": "uint256"
            },
            {
              "internalType": "uint256",
              "name": "price",
              "type": "uint256"
            },
            {
              "internalType": "uint256",
              "name": "ttl",
              "type": "uint256"
            }
          ],
          "name": "createOrder",
          "outputs": [
            {
              "internalType": "uint256",
              "name": "",
              "type": "uint256"
            }
          ],
          "stateMutability": "payable",
          "type": "function"
        },
        {
          "inputs": [
            {
              "internalType": "address",
              "name": "token",
              "type": "address"
            },
            {
              "internalType": "address",
              "name": "to",
              "type": "address"
            },
            {
              "internalType": "uint256",
              "name": "amount",
              "type": "uint256"
            }
          ],
          "name": "emergencyWithdraw",
          "outputs": [],
          "stateMutability": "nonpayable",
          "type": "function"
        },
        {
          "inputs": [],
          "name": "feePercentage",
          "outputs": [
            {
              "internalType": "uint256",
              "name": "",
              "type": "uint256"
            }
          ],
          "stateMutability": "view",
          "type": "function"
        },
        {
          "inputs": [
            {
              "components": [
                {
                  "internalType": "uint256",
                  "name": "buyOrderId",
                  "type": "uint256"
                },
                {
                  "internalType": "uint256",
                  "name": "sellOrderId",
                  "type": "uint256"
                },
                {
                  "internalType": "uint256",
                  "name": "fillAmount",
                  "type": "uint256"
                }
              ],
              "internalType": "struct GradientOrderbook.OrderMatch[]",
              "name": "matches",
              "type": "tuple[]"
            }
          ],
          "name": "fulfillLimitOrders",
          "outputs": [],
          "stateMutability": "nonpayable",
          "type": "function"
        },
        {
          "inputs": [
            {
              "components": [
                {
                  "internalType": "uint256",
                  "name": "buyOrderId",
                  "type": "uint256"
                },
                {
                  "internalType": "uint256",
                  "name": "sellOrderId",
                  "type": "uint256"
                },
                {
                  "internalType": "uint256",
                  "name": "fillAmount",
                  "type": "uint256"
                }
              ],
              "internalType": "struct GradientOrderbook.OrderMatch[]",
              "name": "matches",
              "type": "tuple[]"
            },
            {
              "internalType": "uint256[]",
              "name": "executionPrices",
              "type": "uint256[]"
            }
          ],
          "name": "fulfillMarketOrders",
          "outputs": [],
          "stateMutability": "nonpayable",
          "type": "function"
        },
        {
          "inputs": [
            {
              "internalType": "address",
              "name": "token",
              "type": "address"
            },
            {
              "internalType": "enum GradientOrderbook.OrderType",
              "name": "orderType",
              "type": "uint8"
            },
            {
              "internalType": "enum GradientOrderbook.OrderExecutionType",
              "name": "executionType",
              "type": "uint8"
            }
          ],
          "name": "getActiveOrders",
          "outputs": [
            {
              "internalType": "uint256[]",
              "name": "",
              "type": "uint256[]"
            }
          ],
          "stateMutability": "view",
          "type": "function"
        },
        {
          "inputs": [
            {
              "internalType": "bytes32",
              "name": "queueKey",
              "type": "bytes32"
            }
          ],
          "name": "getActiveOrdersCount",
          "outputs": [
            {
              "internalType": "uint256",
              "name": "",
              "type": "uint256"
            }
          ],
          "stateMutability": "view",
          "type": "function"
        },
        {
          "inputs": [
            {
              "internalType": "address",
              "name": "token",
              "type": "address"
            },
            {
              "internalType": "enum GradientOrderbook.OrderType",
              "name": "orderType",
              "type": "uint8"
            },
            {
              "internalType": "enum GradientOrderbook.OrderExecutionType",
              "name": "executionType",
              "type": "uint8"
            },
            {
              "internalType": "uint256",
              "name": "startIndex",
              "type": "uint256"
            },
            {
              "internalType": "uint256",
              "name": "count",
              "type": "uint256"
            }
          ],
          "name": "getActiveOrdersPaged",
          "outputs": [
            {
              "internalType": "uint256[]",
              "name": "",
              "type": "uint256[]"
            }
          ],
          "stateMutability": "view",
          "type": "function"
        },
        {
          "inputs": [
            {
              "internalType": "uint256",
              "name": "orderId",
              "type": "uint256"
            }
          ],
          "name": "getOrder",
          "outputs": [
            {
              "components": [
                {
                  "internalType": "uint256",
                  "name": "orderId",
                  "type": "uint256"
                },
                {
                  "internalType": "address",
                  "name": "owner",
                  "type": "address"
                },
                {
                  "internalType": "enum GradientOrderbook.OrderType",
                  "name": "orderType",
                  "type": "uint8"
                },
                {
                  "internalType": "enum GradientOrderbook.OrderExecutionType",
                  "name": "executionType",
                  "type": "uint8"
                },
                {
                  "internalType": "address",
                  "name": "token",
                  "type": "address"
                },
                {
                  "internalType": "uint256",
                  "name": "amount",
                  "type": "uint256"
                },
                {
                  "internalType": "uint256",
                  "name": "price",
                  "type": "uint256"
                },
                {
                  "internalType": "uint256",
                  "name": "filledAmount",
                  "type": "uint256"
                },
                {
                  "internalType": "uint256",
                  "name": "expirationTime",
                  "type": "uint256"
                },
                {
                  "internalType": "enum GradientOrderbook.OrderStatus",
                  "name": "status",
                  "type": "uint8"
                }
              ],
              "internalType": "struct GradientOrderbook.Order",
              "name": "",
              "type": "tuple"
            }
          ],
          "stateMutability": "view",
          "type": "function"
        },
        {
          "inputs": [
            {
              "internalType": "uint256",
              "name": "orderId",
              "type": "uint256"
            }
          ],
          "name": "getRemainingAmount",
          "outputs": [
            {
              "internalType": "uint256",
              "name": "",
              "type": "uint256"
            }
          ],
          "stateMutability": "view",
          "type": "function"
        },
        {
          "inputs": [
            {
              "internalType": "uint256",
              "name": "orderId",
              "type": "uint256"
            }
          ],
          "name": "isOrderExpired",
          "outputs": [
            {
              "internalType": "bool",
              "name": "",
              "type": "bool"
            }
          ],
          "stateMutability": "view",
          "type": "function"
        },
        {
          "inputs": [],
          "name": "maxOrderSize",
          "outputs": [
            {
              "internalType": "uint256",
              "name": "",
              "type": "uint256"
            }
          ],
          "stateMutability": "view",
          "type": "function"
        },
        {
          "inputs": [],
          "name": "maxOrderTtl",
          "outputs": [
            {
              "internalType": "uint256",
              "name": "",
              "type": "uint256"
            }
          ],
          "stateMutability": "view",
          "type": "function"
        },
        {
          "inputs": [],
          "name": "minOrderSize",
          "outputs": [
            {
              "internalType": "uint256",
              "name": "",
              "type": "uint256"
            }
          ],
          "stateMutability": "view",
          "type": "function"
        },
        {
          "inputs": [
            {
              "internalType": "uint256",
              "name": "",
              "type": "uint256"
            }
          ],
          "name": "orders",
          "outputs": [
            {
              "internalType": "uint256",
              "name": "orderId",
              "type": "uint256"
            },
            {
              "internalType": "address",
              "name": "owner",
              "type": "address"
            },
            {
              "internalType": "enum GradientOrderbook.OrderType",
              "name": "orderType",
              "type": "uint8"
            },
            {
              "internalType": "enum GradientOrderbook.OrderExecutionType",
              "name": "executionType",
              "type": "uint8"
            },
            {
              "internalType": "address",
              "name": "token",
              "type": "address"
            },
            {
              "internalType": "uint256",
              "name": "amount",
              "type": "uint256"
            },
            {
              "internalType": "uint256",
              "name": "price",
              "type": "uint256"
            },
            {
              "internalType": "uint256",
              "name": "filledAmount",
              "type": "uint256"
            },
            {
              "internalType": "uint256",
              "name": "expirationTime",
              "type": "uint256"
            },
            {
              "internalType": "enum GradientOrderbook.OrderStatus",
              "name": "status",
              "type": "uint8"
            }
          ],
          "stateMutability": "view",
          "type": "function"
        },
        {
          "inputs": [],
          "name": "owner",
          "outputs": [
            {
              "internalType": "address",
              "name": "",
              "type": "address"
            }
          ],
          "stateMutability": "view",
          "type": "function"
        },
        {
          "inputs": [],
          "name": "renounceOwnership",
          "outputs": [],
          "stateMutability": "nonpayable",
          "type": "function"
        },
        {
          "inputs": [
            {
              "internalType": "uint256",
              "name": "newFeePercentage",
              "type": "uint256"
            }
          ],
          "name": "setFeePercentage",
          "outputs": [],
          "stateMutability": "nonpayable",
          "type": "function"
        },
        {
          "inputs": [
            {
              "internalType": "address",
              "name": "fulfiller",
              "type": "address"
            },
            {
              "internalType": "bool",
              "name": "status",
              "type": "bool"
            }
          ],
          "name": "setFulfillerStatus",
          "outputs": [],
          "stateMutability": "nonpayable",
          "type": "function"
        },
        {
          "inputs": [
            {
              "internalType": "uint256",
              "name": "_maxOrderTtl",
              "type": "uint256"
            }
          ],
          "name": "setMaxOrderTtl",
          "outputs": [],
          "stateMutability": "nonpayable",
          "type": "function"
        },
        {
          "inputs": [
            {
              "internalType": "uint256",
              "name": "_minOrderSize",
              "type": "uint256"
            },
            {
              "internalType": "uint256",
              "name": "_maxOrderSize",
              "type": "uint256"
            }
          ],
          "name": "setOrderSizeLimits",
          "outputs": [],
          "stateMutability": "nonpayable",
          "type": "function"
        },
        {
          "inputs": [],
          "name": "totalFeesCollected",
          "outputs": [
            {
              "internalType": "uint256",
              "name": "",
              "type": "uint256"
            }
          ],
          "stateMutability": "view",
          "type": "function"
        },
        {
          "inputs": [
            {
              "internalType": "bytes32",
              "name": "",
              "type": "bytes32"
            }
          ],
          "name": "totalOrderCount",
          "outputs": [
            {
              "internalType": "uint256",
              "name": "",
              "type": "uint256"
            }
          ],
          "stateMutability": "view",
          "type": "function"
        },
        {
          "inputs": [
            {
              "internalType": "address",
              "name": "newOwner",
              "type": "address"
            }
          ],
          "name": "transferOwnership",
          "outputs": [],
          "stateMutability": "nonpayable",
          "type": "function"
        },
        {
          "inputs": [
            {
              "internalType": "address",
              "name": "",
              "type": "address"
            }
          ],
          "name": "whitelistedFulfillers",
          "outputs": [
            {
              "internalType": "bool",
              "name": "",
              "type": "bool"
            }
          ],
          "stateMutability": "view",
          "type": "function"
        },
        {
          "inputs": [
            {
              "internalType": "address payable",
              "name": "recipient",
              "type": "address"
            }
          ],
          "name": "withdrawFees",
          "outputs": [],
          "stateMutability": "nonpayable",
          "type": "function"
        },
        {
          "stateMutability": "payable",
          "type": "receive"
        }
      ],
      "evm": {
        "bytecode": {
          "linkReferences": {},
          "object": "6080604052348015600f57600080fd5b503380603557604051631e4fbdf760e01b81526000600482015260240160405180910390fd5b603c816080565b506001808055336000908152600960205260409020805460ff191690911790556032600355620f4240600a55683635c9adc5dea00000600b5562278d00600c5560d0565b600080546001600160a01b038381166001600160a01b0319831681178455604051919092169283917f8be0079c531659141344cd1fd0a4f28419497f9722a3daafe3b4186f6b6457e09190a35050565b613757806100df6000396000f3fe6080604052600436106101b95760003560e01c8063715018a6116100eb578063ae06c1b71161008f578063e63ea40811610061578063e63ea4081461058a578063f1a82c7e146105aa578063f2fde38b146105c0578063f6252ff2146105e057005b8063ae06c1b7146104ed578063bfde1d7c1461050d578063c452427e1461052d578063d09ef2411461055d57005b80638f9057df116100c85780638f9057df14610407578063a001ecdd14610427578063a674537f1461043d578063a85c38ef1461045357005b8063715018a6146103aa578063727d2114146103bf5780638da5cb5b146103df57005b80633410fe6e1161015d578063568c82061161012f578063568c82061461032e57806359c693131461034e57806360c6d8ae1461037e57806366961d441461039457005b80633410fe6e146102c2578063457a8924146102d8578063514fcac7146102f8578063558e44d31461031857005b806313b64e241161019657806313b64e2414610235578063164e68de146102555780631f32eb77146102755780632fd51adf146102a257005b80630d34219c146101c257806310e1c1661461020257806311e807a41461022257005b366101c057005b005b3480156101ce57600080fd5b506101ef6101dd366004613011565b60066020526000908152604090205481565b6040519081526020015b60405180910390f35b34801561020e57600080fd5b506101ef61021d366004613011565b610600565b6101ef61023036600461304c565b610692565b34801561024157600080fd5b506101c06102503660046130b1565b610cc9565b34801561026157600080fd5b506101c06102703660046130d3565b610d19565b34801561028157600080fd5b506102956102903660046130f7565b610e96565b6040516101f99190613142565b3480156102ae57600080fd5b506101c06102bd366004613185565b610fc4565b3480156102ce57600080fd5b506101ef61271081565b3480156102e457600080fd5b506101c06102f336600461320f565b61102b565b34801561030457600080fd5b506101c0610313366004613011565b611196565b34801561032457600080fd5b506101ef6101f481565b34801561033a57600080fd5b506101c0610349366004613011565b611541565b34801561035a57600080fd5b5061036e610369366004613011565b6118ac565b60405190151581526020016101f9565b34801561038a57600080fd5b506101ef60045481565b3480156103a057600080fd5b506101ef600c5481565b3480156103b657600080fd5b506101c06118fe565b3480156103cb57600080fd5b506101c06103da366004613011565b611912565b3480156103eb57600080fd5b506000546040516001600160a01b0390911681526020016101f9565b34801561041357600080fd5b506101c06104223660046132b3565b611955565b34801561043357600080fd5b506101ef60035481565b34801561044957600080fd5b506101ef600a5481565b34801561045f57600080fd5b506104d761046e366004613011565b60056020819052600091825260409091208054600182015460028301546003840154600485015495850154600686015460079096015494966001600160a01b038086169760ff600160a01b8804811698600160a81b90980481169796909216959293929091168a565b6040516101f99a99989796959493929190613338565b3480156104f957600080fd5b506101c0610508366004613011565b611a56565b34801561051957600080fd5b506102956105283660046133b1565b611aee565b34801561053957600080fd5b5061036e6105483660046130d3565b60096020526000908152604090205460ff1681565b34801561056957600080fd5b5061057d610578366004613011565b611ca4565b6040516101f9919061340c565b34801561059657600080fd5b506101c06105a53660046134b0565b611dfe565b3480156105b657600080fd5b506101ef600b5481565b3480156105cc57600080fd5b506101c06105db3660046130d3565b611f60565b3480156105ec57600080fd5b506101ef6105fb366004613011565b611f9b565b600080805b60008481526006602052604090205481101561068b5760008481526007602090815260408083208484529091528120549060008281526005602052604090206007015460ff16600381111561065c5761065c6132f5565b14801561066f575061066d816118ac565b155b15610682578261067e81613507565b9350505b50600101610605565b5092915050565b6000846001600160a01b0381166106e05760405162461bcd60e51b815260206004820152600d60248201526c24b73b30b634b2103a37b5b2b760991b60448201526064015b60405180910390fd5b6000816001600160a01b03163b1161072b5760405162461bcd60e51b815260206004820152600e60248201526d139bdd08184818dbdb9d1c9858dd60921b60448201526064016106d7565b610733612000565b600085116107835760405162461bcd60e51b815260206004820152601d60248201527f416d6f756e74206d7573742062652067726561746572207468616e203000000060448201526064016106d7565b600084116107c95760405162461bcd60e51b8152602060048201526013602482015272496e76616c69642070726963652072616e676560681b60448201526064016106d7565b600083116108195760405162461bcd60e51b815260206004820152601a60248201527f54544c206d7573742062652067726561746572207468616e203000000000000060448201526064016106d7565b600c5483111561085a5760405162461bcd60e51b815260206004820152600c60248201526b54544c20746f6f206c6f6e6760a01b60448201526064016106d7565b6000670de0b6b3a764000061086f8688613520565b610879919061353d565b905060006127106003548361088e9190613520565b610898919061353d565b9050600a548210156108de5760405162461bcd60e51b815260206004820152600f60248201526e13dc99195c881d1bdbc81cdb585b1b608a1b60448201526064016106d7565b600b548211156109225760405162461bcd60e51b815260206004820152600f60248201526e4f7264657220746f6f206c6172676560881b60448201526064016106d7565b60008a6001811115610936576109366132f5565b036109a957610945818361355f565b34101561098c5760405162461bcd60e51b8152602060048201526015602482015274125b9cdd59999a58da595b9d08115512081cd95b9d605a1b60448201526064016106d7565b806004600082825461099e919061355f565b909155506109be9050565b6109be6001600160a01b03891633308a61202a565b6002805490819060006109d083613507565b9091555050604080516101408101825282815233602082015260009181018d6001811115610a0057610a006132f5565b81526020018c6001811115610a1757610a176132f5565b81526020018b6001600160a01b031681526020018a8152602001898152602001600081526020018842610a4a919061355f565b8152602001600090526000838152600560209081526040918290208351815590830151600180830180546001600160a01b039093166001600160a01b0319841681178255948601519596508695939490926001600160a81b0319161790600160a01b908490811115610abe57610abe6132f5565b021790555060608201518160010160156101000a81548160ff02191690836001811115610aed57610aed6132f5565b021790555060808201518160020160006101000a8154816001600160a01b0302191690836001600160a01b0316021790555060a0820151816003015560c0820151816004015560e0820151816005015561010082015181600601556101208201518160070160006101000a81548160ff02191690836003811115610b7357610b736132f5565b0217905550905050610b87828b8e8e612091565b336001600160a01b0316827fa2fb0dce7ae79c4288991eaef209e312e4008fdf46d4842d51f55426ccc903938e8e8e8e8e8861010001518c604051610bd29796959493929190613572565b60405180910390a360008c6001811115610bee57610bee6132f5565b148015610c035750610c00838561355f565b34115b15610cb0576000610c14848661355f565b610c1e90346135c4565b604051909150600090339083908381818185875af1925050503d8060008114610c63576040519150601f19603f3d011682016040523d82523d6000602084013e610c68565b606091505b5050905080610cad5760405162461bcd60e51b8152602060048201526011602482015270115512081c995d1d5c9b8819985a5b1959607a1b60448201526064016106d7565b50505b5093505050610cbe60018055565b509695505050505050565b610cd16120fb565b600a829055600b81905560408051838152602081018390527f34a3b94861a601870265c6c4d74c28d1a09f6c803ce42b95e749f46127c8f17091015b60405180910390a15050565b610d216120fb565b6001600160a01b038116610d6b5760405162461bcd60e51b8152602060048201526011602482015270125b9d985b1a59081c9958da5c1a595b9d607a1b60448201526064016106d7565b60045480610db15760405162461bcd60e51b81526020600482015260136024820152724e6f206665657320746f20776974686472617760681b60448201526064016106d7565b600060048190556040516001600160a01b0384169083908381818185875af1925050503d8060008114610e00576040519150601f19603f3d011682016040523d82523d6000602084013e610e05565b606091505b5050905080610e4e5760405162461bcd60e51b8152602060048201526015602482015274119959481dda5d1a191c985dd85b0819985a5b1959605a1b60448201526064016106d7565b826001600160a01b03167fc0819c13be868895eb93e40eaceb96de976442fa1d404e5c55f14bb65a8c489a83604051610e8991815260200190565b60405180910390a2505050565b60606000610ea5858585612128565b90506000610eb282610600565b90506000808267ffffffffffffffff811115610ed057610ed06135d7565b604051908082528060200260200182016040528015610ef9578160200160208202803683370190505b50905060005b60008581526006602052604090205481108015610f1b57508383105b15610fb85760008581526007602090815260408083208484529091528120549060008281526005602052604090206007015460ff166003811115610f6157610f616132f5565b148015610f745750610f72816118ac565b155b15610fa55780838581518110610f8c57610f8c6135ed565b602090810291909101015283610fa181613507565b9450505b5080610fb081613507565b915050610eff565b50979650505050505050565b610fcc6120fb565b6001600160a01b038216600081815260096020908152604091829020805460ff191685151590811790915591519182527f5b91a6535b81256fc66d813b8f8b5776b43f069bd85240fb8e65fae1767a79d7910160405180910390a25050565b611033612000565b3360009081526009602052604090205460ff1661108e5760405162461bcd60e51b815260206004820152601960248201527810d85b1b195c881a5cc81b9bdd081dda1a5d195b1a5cdd1959603a1b60448201526064016106d7565b826110db5760405162461bcd60e51b815260206004820152601b60248201527f4e6f206f72646572206d61746368657320746f2066756c66696c6c000000000060448201526064016106d7565b82811461112a5760405162461bcd60e51b815260206004820152601860248201527f4d69736d61746368656420617272617973206c656e677468000000000000000060448201526064016106d7565b60005b838110156111865761117e85858381811061114a5761114a6135ed565b9050606002018036038101906111609190613603565b848484818110611172576111726135ed565b9050602002013561215e565b60010161112d565b5061119060018055565b50505050565b61119e612000565b60008181526005602052604090206001015481906001600160a01b03166111d75760405162461bcd60e51b81526004016106d79061366f565b60008281526005602052604090206001015482906001600160a01b031633146112345760405162461bcd60e51b815260206004820152600f60248201526e2737ba1037b93232b91037bbb732b960891b60448201526064016106d7565b600083815260056020526040812090600782015460ff16600381111561125c5761125c6132f5565b1461129c5760405162461bcd60e51b815260206004820152601060248201526f4f72646572206e6f742061637469766560801b60448201526064016106d7565b6112a5846118ac565b156112e25760405162461bcd60e51b815260206004820152600d60248201526c13dc99195c88195e1c1a5c9959609a1b60448201526064016106d7565b600781018054600260ff19909116179055600180820154600091600160a01b90910460ff1690811115611317576113176132f5565b036114c65760008160050154826003015461133291906135c4565b905080156114c0576000670de0b6b3a76400008360040154836113559190613520565b61135f919061353d565b90506000612710600354836113749190613520565b61137e919061353d565b9050600061138c828461355f565b90506000600454831161139f57826113a3565b6004545b905080600460008282546113b791906135c4565b9091555050828110156113d1576113ce818561355f565b91505b814710156114215760405162461bcd60e51b815260206004820152601c60248201527f496e73756666696369656e742045544820696e20636f6e74726163740000000060448201526064016106d7565b60018601546040516000916001600160a01b03169084908381818185875af1925050503d8060008114611470576040519150601f19603f3d011682016040523d82523d6000602084013e611475565b606091505b50509050806114ba5760405162461bcd60e51b8152602060048201526011602482015270115512081c99599d5b990819985a5b1959607a1b60448201526064016106d7565b50505050505b50611507565b6000816005015482600301546114dc91906135c4565b905080156115055760018201546002830154611505916001600160a01b039182169116836127ce565b505b60405184907f61b9399f2f0f32ca39ce8d7be32caed5ec22fe07a6daba3a467ed479ec60658290600090a250505061153e60018055565b50565b611549612000565b60008181526005602052604090206001015481906001600160a01b03166115825760405162461bcd60e51b81526004016106d79061366f565b600082815260056020526040812090600782015460ff1660038111156115aa576115aa6132f5565b146115ea5760405162461bcd60e51b815260206004820152601060248201526f4f72646572206e6f742061637469766560801b60448201526064016106d7565b6115f3836118ac565b6116335760405162461bcd60e51b815260206004820152601160248201527013dc99195c881b9bdd08195e1c1a5c9959607a1b60448201526064016106d7565b60078101805460ff1916600317905560018082015460ff600160a01b9091041681811115611663576116636132f5565b036116a95760008160050154826003015461167e91906135c4565b905080156116a757600182015460028301546116a7916001600160a01b039182169116836127ce565b505b6000600182810154600160a01b900460ff16908111156116cb576116cb6132f5565b03611876576000816005015482600301546116e691906135c4565b90508015611874576000670de0b6b3a76400008360040154836117099190613520565b611713919061353d565b90506000612710600354836117289190613520565b611732919061353d565b90506000611740828461355f565b9050600060045483116117535782611757565b6004545b9050806004600082825461176b91906135c4565b90915550508281101561178557611782818561355f565b91505b814710156117d55760405162461bcd60e51b815260206004820152601c60248201527f496e73756666696369656e742045544820696e20636f6e74726163740000000060448201526064016106d7565b60018601546040516000916001600160a01b03169084908381818185875af1925050503d8060008114611824576040519150601f19603f3d011682016040523d82523d6000602084013e611829565b606091505b505090508061186e5760405162461bcd60e51b8152602060048201526011602482015270115512081c99599d5b990819985a5b1959607a1b60448201526064016106d7565b50505050505b505b60405183907f1ad308dc7017610c82d08084545f7176df5e2f08f078c3c8f8926cd7e555551490600090a2505061153e60018055565b60008181526005602052604081206001015482906001600160a01b03166118e55760405162461bcd60e51b81526004016106d79061366f565b5050600090815260056020526040902060060154421190565b6119066120fb565b61191060006127ff565b565b61191a6120fb565b600c8190556040518181527f5829309fa85e85a75b744b2b1ae6b2913b3d2a9c94df75a5b61de31f962256be9060200160405180910390a150565b61195d612000565b3360009081526009602052604090205460ff166119b85760405162461bcd60e51b815260206004820152601960248201527810d85b1b195c881a5cc81b9bdd081dda1a5d195b1a5cdd1959603a1b60448201526064016106d7565b80611a055760405162461bcd60e51b815260206004820152601b60248201527f4e6f206f72646572206d61746368657320746f2066756c66696c6c000000000060448201526064016106d7565b60005b81811015611a4857611a40838383818110611a2557611a256135ed565b905060600201803603810190611a3b9190613603565b61284f565b600101611a08565b50611a5260018055565b5050565b611a5e6120fb565b6101f4811115611ab05760405162461bcd60e51b815260206004820152601760248201527f4665652070657263656e7461676520746f6f206869676800000000000000000060448201526064016106d7565b600380549082905560408051828152602081018490527fb27c12a91635e11c22bffa7bd8e0a8735da52b94aaefd7f249776c7590ba78949101610d0d565b60606000611afd878787612128565b6000818152600660205260408120549192508467ffffffffffffffff811115611b2857611b286135d7565b604051908082528060200260200182016040528015611b51578160200160208202803683370190505b5090506000865b8381108015611b6657508682105b15611c035760008581526007602090815260408083208484529091528120549060008281526005602052604090206007015460ff166003811115611bac57611bac6132f5565b148015611bbf5750611bbd816118ac565b155b15611bf05780848481518110611bd757611bd76135ed565b602090810291909101015282611bec81613507565b9350505b5080611bfb81613507565b915050611b58565b5060008167ffffffffffffffff811115611c1f57611c1f6135d7565b604051908082528060200260200182016040528015611c48578160200160208202803683370190505b50905060005b82811015611c9557838181518110611c6857611c686135ed565b6020026020010151828281518110611c8257611c826135ed565b6020908102919091010152600101611c4e565b509a9950505050505050505050565b611cac612fa5565b60008281526005602052604090206001015482906001600160a01b0316611ce55760405162461bcd60e51b81526004016106d79061366f565b600083815260056020908152604091829020825161014081018452815481526001808301546001600160a01b038116948301949094529093919291840191600160a01b900460ff1690811115611d3d57611d3d6132f5565b6001811115611d4e57611d4e6132f5565b81526020016001820160159054906101000a900460ff166001811115611d7657611d766132f5565b6001811115611d8757611d876132f5565b815260028201546001600160a01b0316602082015260038083015460408301526004830154606083015260058301546080830152600683015460a0830152600783015460c09092019160ff1690811115611de357611de36132f5565b6003811115611df457611df46132f5565b9052509392505050565b611e066120fb565b6001600160a01b038216611e505760405162461bcd60e51b8152602060048201526011602482015270125b9d985b1a59081c9958da5c1a595b9d607a1b60448201526064016106d7565b6001600160a01b038316611f475747811115611eae5760405162461bcd60e51b815260206004820152601860248201527f496e73756666696369656e74204554482062616c616e6365000000000000000060448201526064016106d7565b6000826001600160a01b03168260405160006040518083038185875af1925050503d8060008114611efb576040519150601f19603f3d011682016040523d82523d6000602084013e611f00565b606091505b50509050806111905760405162461bcd60e51b8152602060048201526013602482015272115512081d1c985b9cd9995c8819985a5b1959606a1b60448201526064016106d7565b611f5b6001600160a01b03841683836127ce565b505050565b611f686120fb565b6001600160a01b038116611f9257604051631e4fbdf760e01b8152600060048201526024016106d7565b61153e816127ff565b60008181526005602052604081206001015482906001600160a01b0316611fd45760405162461bcd60e51b81526004016106d79061366f565b6000838152600560208190526040909120908101546003820154611ff891906135c4565b949350505050565b60026001540361202357604051633ee5aeb560e01b815260040160405180910390fd5b6002600155565b6040516001600160a01b0384811660248301528381166044830152606482018390526111909186918216906323b872dd906084015b604051602081830303815290604052915060e01b6020820180516001600160e01b038381831617835250505050612ef6565b600061209e848484612128565b600081815260066020818152604080842080548b8652600884528286208190558686526007845282862090865283529084208a905584845291905280549293506001929091906120ef90849061355f565b90915550505050505050565b6000546001600160a01b031633146119105760405163118cdaa760e01b81523360048201526024016106d7565b600083838360405160200161213f9392919061369d565b6040516020818303038152906040528051906020012090509392505050565b8151600090815260056020908152604080832091850151835282209091600783015460ff166003811115612194576121946132f5565b1480156121b957506000600782015460ff1660038111156121b7576121b76132f5565b145b6121fd5760405162461bcd60e51b81526020600482015260156024820152744f7264657273206d7573742062652061637469766560581b60448201526064016106d7565b8351612208906118ac565b15801561221f575061221d84602001516118ac565b155b61225c5760405162461bcd60e51b815260206004820152600e60248201526d13dc99195c9cc8195e1c1a5c995960921b60448201526064016106d7565b6000600183810154600160a01b900460ff169081111561227e5761227e6132f5565b1480156122a9575060018082810154600160a01b900460ff16908111156122a7576122a76132f5565b145b6122eb5760405162461bcd60e51b8152602060048201526013602482015272496e76616c6964206f7264657220747970657360681b60448201526064016106d7565b600280820154908301546001600160a01b039081169116146123405760405162461bcd60e51b815260206004820152600e60248201526d0a8ded6cadc40dad2e6dac2e8c6d60931b60448201526064016106d7565b60018083810154600160a81b900460ff1690811115612361576123616132f5565b148061238b575060018082810154600160a81b900460ff1690811115612389576123896132f5565b145b6123cb5760405162461bcd60e51b81526020600482015260116024820152704e6f74206d61726b6574206f726465727360781b60448201526064016106d7565b60018083810154600160a81b900460ff16908111156123ec576123ec6132f5565b036124575781600401548311156124575760405162461bcd60e51b815260206004820152602960248201527f457865637574696f6e20707269636520657863656564732062757965722773206044820152686d617820707269636560b81b60648201526084016106d7565b60018082810154600160a81b900460ff1690811115612478576124786132f5565b036124e25780600401548310156124e25760405162461bcd60e51b815260206004820152602860248201527f457865637574696f6e2070726963652062656c6f772073656c6c65722773206d604482015267696e20707269636560c01b60648201526084016106d7565b6000826005015483600301546124f891906135c4565b905060008260050154836003015461251091906135c4565b6040870151909150828111156125235750815b8181111561252e5750805b600081116125725760405162461bcd60e51b8152602060048201526011602482015270139bc8185b5bdd5b9d081d1bc8199a5b1b607a1b60448201526064016106d7565b806000670de0b6b3a76400006125888984613520565b612592919061353d565b9050600061259f82612f67565b905060006125ad82846135c4565b60018901546040519192506000916001600160a01b039091169083908381818185875af1925050503d8060008114612601576040519150601f19603f3d011682016040523d82523d6000602084013e612606565b606091505b50509050806126575760405162461bcd60e51b815260206004820152601d60248201527f455448207472616e7366657220746f2073656c6c6572206661696c656400000060448201526064016106d7565b60018a015460028a0154612678916001600160a01b039182169116876127ce565b858a600501600082825461268c919061355f565b92505081905550858960050160008282546126a7919061355f565b909155505060038a015460058b0154036126f25760078a01805460ff191660011790558b516040518781526000805160206136e28339815191529060200160405180910390a2612734565b8b60000151600080516020613702833981519152878c600501548d6003015461271b91906135c4565b6040805192835260208301919091520160405180910390a25b886003015489600501540361277e5760078901805460ff191660011790556020808d015160405188815290916000805160206136e2833981519152910160405180910390a26127c0565b8b60200151600080516020613702833981519152878b600501548c600301546127a791906135c4565b6040805192835260208301919091520160405180910390a25b505050505050505050505050565b6040516001600160a01b03838116602483015260448201839052611f5b91859182169063a9059cbb9060640161205f565b600080546001600160a01b038381166001600160a01b0319831681178455604051919092169283917f8be0079c531659141344cd1fd0a4f28419497f9722a3daafe3b4186f6b6457e09190a35050565b8051600090815260056020908152604080832091840151835282209091600783015460ff166003811115612885576128856132f5565b1480156128aa57506000600782015460ff1660038111156128a8576128a86132f5565b145b6128ee5760405162461bcd60e51b81526020600482015260156024820152744f7264657273206d7573742062652061637469766560581b60448201526064016106d7565b82516128f9906118ac565b158015612910575061290e83602001516118ac565b155b61294d5760405162461bcd60e51b815260206004820152600e60248201526d13dc99195c9cc8195e1c1a5c995960921b60448201526064016106d7565b6000600183810154600160a01b900460ff169081111561296f5761296f6132f5565b14801561299a575060018082810154600160a01b900460ff1690811115612998576129986132f5565b145b6129dc5760405162461bcd60e51b8152602060048201526013602482015272496e76616c6964206f7264657220747970657360681b60448201526064016106d7565b600280820154908301546001600160a01b03908116911614612a315760405162461bcd60e51b815260206004820152600e60248201526d0a8ded6cadc40dad2e6dac2e8c6d60931b60448201526064016106d7565b6000600183810154600160a81b900460ff1690811115612a5357612a536132f5565b148015612a7f57506000600182810154600160a81b900460ff1690811115612a7d57612a7d6132f5565b145b612abe5760405162461bcd60e51b815260206004820152601060248201526f4e6f74206c696d6974206f726465727360801b60448201526064016106d7565b806004015482600401541015612b165760405162461bcd60e51b815260206004820152601f60248201527f5072696365206d69736d6174636820666f72206c696d6974206f72646572730060448201526064016106d7565b600082600501548360030154612b2c91906135c4565b9050600082600501548360030154612b4491906135c4565b604086015190915082811115612b575750815b81811115612b625750805b60008111612ba65760405162461bcd60e51b8152602060048201526011602482015270139bc8185b5bdd5b9d081d1bc8199a5b1b607a1b60448201526064016106d7565b60048401548190600090670de0b6b3a764000090612bc49084613520565b612bce919061353d565b90506000612bdb82612f67565b90506000612be982846135c4565b60018901546040519192506000916001600160a01b039091169083908381818185875af1925050503d8060008114612c3d576040519150601f19603f3d011682016040523d82523d6000602084013e612c42565b606091505b5050905080612c935760405162461bcd60e51b815260206004820152601d60248201527f455448207472616e7366657220746f2073656c6c6572206661696c656400000060448201526064016106d7565b60018a015460028a0154612cb4916001600160a01b039182169116876127ce565b858a6005016000828254612cc8919061355f565b9250508190555085896005016000828254612ce3919061355f565b90915550506004808a0154908b01541115612dd5576000670de0b6b3a76400008a600401548c60040154612d1791906135c4565b612d219089613520565b612d2b919061353d565b60018c01546040519192506001600160a01b0316908290600081818185875af1925050503d8060008114612d7b576040519150601f19603f3d011682016040523d82523d6000602084013e612d80565b606091505b50508092505081612dd35760405162461bcd60e51b815260206004820152601960248201527f45544820736176696e67732072657475726e206661696c65640000000000000060448201526064016106d7565b505b89600301548a6005015403612e1b5760078a01805460ff191660011790558a516040518781526000805160206136e28339815191529060200160405180910390a2612e5d565b8a60000151600080516020613702833981519152878c600501548d60030154612e4491906135c4565b6040805192835260208301919091520160405180910390a25b8860030154896005015403612ea75760078901805460ff191660011790556020808c015160405188815290916000805160206136e2833981519152910160405180910390a2612ee9565b8a60200151600080516020613702833981519152878b600501548c60030154612ed091906135c4565b6040805192835260208301919091520160405180910390a25b5050505050505050505050565b600080602060008451602086016000885af180612f19576040513d6000823e3d81fd5b50506000513d91508115612f31578060011415612f3e565b6001600160a01b0384163b155b1561119057604051635274afe760e01b81526001600160a01b03851660048201526024016106d7565b60008061271060035484612f7b9190613520565b612f85919061353d565b90508060046000828254612f99919061355f565b90915550909392505050565b6040805161014081018252600080825260208201819052909182019081526020016000815260200160006001600160a01b03168152602001600081526020016000815260200160008152602001600081526020016000600381111561300c5761300c6132f5565b905290565b60006020828403121561302357600080fd5b5035919050565b6002811061153e57600080fd5b6001600160a01b038116811461153e57600080fd5b60008060008060008060c0878903121561306557600080fd5b86356130708161302a565b955060208701356130808161302a565b9450604087013561309081613037565b959894975094956060810135955060808101359460a0909101359350915050565b600080604083850312156130c457600080fd5b50508035926020909101359150565b6000602082840312156130e557600080fd5b81356130f081613037565b9392505050565b60008060006060848603121561310c57600080fd5b833561311781613037565b925060208401356131278161302a565b915060408401356131378161302a565b809150509250925092565b602080825282518282018190526000918401906040840190835b8181101561317a57835183526020938401939092019160010161315c565b509095945050505050565b6000806040838503121561319857600080fd5b82356131a381613037565b9150602083013580151581146131b857600080fd5b809150509250929050565b60008083601f8401126131d557600080fd5b50813567ffffffffffffffff8111156131ed57600080fd5b60208301915083602060608302850101111561320857600080fd5b9250929050565b6000806000806040858703121561322557600080fd5b843567ffffffffffffffff81111561323c57600080fd5b613248878288016131c3565b909550935050602085013567ffffffffffffffff81111561326857600080fd5b8501601f8101871361327957600080fd5b803567ffffffffffffffff81111561329057600080fd5b8760208260051b84010111156132a557600080fd5b949793965060200194505050565b600080602083850312156132c657600080fd5b823567ffffffffffffffff8111156132dd57600080fd5b6132e9858286016131c3565b90969095509350505050565b634e487b7160e01b600052602160045260246000fd5b6002811061153e5761153e6132f5565b6133248161330b565b9052565b60048110613324576133246132f5565b8a81526001600160a01b038a16602082015261014081016133588a61330b565b8960408301526133678961330b565b88606083015260018060a01b03881660808301528660a08301528560c08301528460e0830152836101008301526133a2610120830184613328565b9b9a5050505050505050505050565b600080600080600060a086880312156133c957600080fd5b85356133d481613037565b945060208601356133e48161302a565b935060408601356133f48161302a565b94979396509394606081013594506080013592915050565b81518152602080830151610140830191613430908401826001600160a01b03169052565b506040830151613443604084018261331b565b506060830151613456606084018261331b565b50608083015161347160808401826001600160a01b03169052565b5060a083015160a083015260c083015160c083015260e083015160e083015261010083015161010083015261012083015161068b610120840182613328565b6000806000606084860312156134c557600080fd5b83356134d081613037565b925060208401356134e081613037565b929592945050506040919091013590565b634e487b7160e01b600052601160045260246000fd5b600060018201613519576135196134f1565b5060010190565b8082028115828204841417613537576135376134f1565b92915050565b60008261355a57634e487b7160e01b600052601260045260246000fd5b500490565b80820180821115613537576135376134f1565b60e0810161357f8961330b565b88825261358b8861330b565b60208201979097526001600160a01b039590951660408601526060850193909352608084019190915260a083015260c090910152919050565b81810381811115613537576135376134f1565b634e487b7160e01b600052604160045260246000fd5b634e487b7160e01b600052603260045260246000fd5b6000606082840312801561361657600080fd5b600090506040516060810181811067ffffffffffffffff8211171561364957634e487b7160e01b83526041600452602483fd5b604090815284358252602080860135908301529384013593810193909352509092915050565b60208082526014908201527313dc99195c88191bd95cc81b9bdd08195e1a5cdd60621b604082015260600190565b6bffffffffffffffffffffffff198460601b1681526136bb8361330b565b8260f81b60148201526136cd8261330b565b60f89190911b60158201526016019291505056feeb3b41be12efa25c0c65725eeff2e2ad0250e2e5de2aa939e18f36aa656e98808f9f7f58643161141dd2b5b862b54ab647f74549d3b06fd4430272bcc411678ca26469706673582212204a2a5504e73394c3f938ffa0c2eba89c3462bd9be7f98a74f56a6aeb4282b5a364736f6c634300081a0033",
          "opcodes": "PUSH1 0x80 PUSH1 0x40 MSTORE CALLVALUE DUP1 ISZERO PUSH1 0xF JUMPI PUSH1 0x0 DUP1 REVERT JUMPDEST POP CALLER DUP1 PUSH1 0x35 JUMPI PUSH1 0x40 MLOAD PUSH4 0x1E4FBDF7 PUSH1 0xE0 SHL DUP2 MSTORE PUSH1 0x0 PUSH1 0x4 DUP3 ADD MSTORE PUSH1 0x24 ADD PUSH1 0x40 MLOAD DUP1 SWAP2 SUB SWAP1 REVERT JUMPDEST PUSH1 0x3C DUP2 PUSH1 0x80 JUMP JUMPDEST POP PUSH1 0x1 DUP1 DUP1 SSTORE CALLER PUSH1 0x0 SWAP1 DUP2 MSTORE PUSH1 0x9 PUSH1 0x20 MSTORE PUSH1 0x40 SWAP1 KECCAK256 DUP1 SLOAD PUSH1 0xFF NOT AND SWAP1 SWAP2 OR SWAP1 SSTORE PUSH1 0x32 PUSH1 0x3 SSTORE PUSH3 0xF4240 PUSH1 0xA SSTORE PUSH9 0x3635C9ADC5DEA00000 PUSH1 0xB SSTORE PUSH3 0x278D00 PUSH1 0xC SSTORE PUSH1 0xD0 JUMP JUMPDEST PUSH1 0x0 DUP1 SLOAD PUSH1 0x1 PUSH1 0x1 PUSH1 0xA0 SHL SUB DUP4 DUP2 AND PUSH1 0x1 PUSH1 0x1 PUSH1 0xA0 SHL SUB NOT DUP4 AND DUP2 OR DUP5 SSTORE PUSH1 0x40 MLOAD SWAP2 SWAP1 SWAP3 AND SWAP3 DUP4 SWAP2 PUSH32 0x8BE0079C531659141344CD1FD0A4F28419497F9722A3DAAFE3B4186F6B6457E0 SWAP2 SWAP1 LOG3 POP POP JUMP JUMPDEST PUSH2 0x3757 DUP1 PUSH2 0xDF PUSH1 0x0 CODECOPY PUSH1 0x0 RETURN INVALID PUSH1 0x80 PUSH1 0x40 MSTORE PUSH1 0x4 CALLDATASIZE LT PUSH2 0x1B9 JUMPI PUSH1 0x0 CALLDATALOAD PUSH1 0xE0 SHR DUP1 PUSH4 0x715018A6 GT PUSH2 0xEB JUMPI DUP1 PUSH4 0xAE06C1B7 GT PUSH2 0x8F JUMPI DUP1 PUSH4 0xE63EA408 GT PUSH2 0x61 JUMPI DUP1 PUSH4 0xE63EA408 EQ PUSH2 0x58A JUMPI DUP1 PUSH4 0xF1A82C7E EQ PUSH2 0x5AA JUMPI DUP1 PUSH4 0xF2FDE38B EQ PUSH2 0x5C0 JUMPI DUP1 PUSH4 0xF6252FF2 EQ PUSH2 0x5E0 JUMPI STOP JUMPDEST DUP1 PUSH4 0xAE06C1B7 EQ PUSH2 0x4ED JUMPI DUP1 PUSH4 0xBFDE1D7C EQ PUSH2 0x50D JUMPI DUP1 PUSH4 0xC452427E EQ PUSH2 0x52D JUMPI DUP1 PUSH4 0xD09EF241 EQ PUSH2 0x55D JUMPI STOP JUMPDEST DUP1 PUSH4 0x8F9057DF GT PUSH2 0xC8 JUMPI DUP1 PUSH4 0x8F9057DF EQ PUSH2 0x407 JUMPI DUP1 PUSH4 0xA001ECDD EQ PUSH2 0x427 JUMPI DUP1 PUSH4 0xA674537F EQ PUSH2 0x43D JUMPI DUP1 PUSH4 0xA85C38EF EQ PUSH2 0x453 JUMPI STOP JUMPDEST DUP1 PUSH4 0x715018A6 EQ PUSH2 0x3AA JUMPI DUP1 PUSH4 0x727D2114 EQ PUSH2 0x3BF JUMPI DUP1 PUSH4 0x8DA5CB5B EQ PUSH2 0x3DF JUMPI STOP JUMPDEST DUP1 PUSH4 0x3410FE6E GT PUSH2 0x15D JUMPI DUP1 PUSH4 0x568C8206 GT PUSH2 0x12F JUMPI DUP1 PUSH4 0x568C8206 EQ PUSH2 0x32E JUMPI DUP1 PUSH4 0x59C69313 EQ PUSH2 0x34E JUMPI DUP1 PUSH4 0x60C6D8AE EQ PUSH2 0x37E JUMPI DUP1 PUSH4 0x66961D44 EQ PUSH2 0x394 JUMPI STOP JUMPDEST DUP1 PUSH4 0x3410FE6E EQ PUSH2 0x2C2 JUMPI DUP1 PUSH4 0x457A8924 EQ PUSH2 0x2D8 JUMPI DUP1 PUSH4 0x514FCAC7 EQ PUSH2 0x2F8 JUMPI DUP1 PUSH4 0x558E44D3 EQ PUSH2 0x318 JUMPI STOP JUMPDEST DUP1 PUSH4 0x13B64E24 GT PUSH2 0x196 JUMPI DUP1 PUSH4 0x13B64E24 EQ PUSH2 0x235 JUMPI DUP1 PUSH4 0x164E68DE EQ PUSH2 0x255 JUMPI DUP1 PUSH4 0x1F32EB77 EQ PUSH2 0x275 JUMPI DUP1 PUSH4 0x2FD51ADF EQ PUSH2 0x2A2 JUMPI STOP JUMPDEST DUP1 PUSH4 0xD34219C EQ PUSH2 0x1C2 JUMPI DUP1 PUSH4 0x10E1C166 EQ PUSH2 0x202 JUMPI DUP1 PUSH4 0x11E807A4 EQ PUSH2 0x222 JUMPI STOP JUMPDEST CALLDATASIZE PUSH2 0x1C0 JUMPI STOP JUMPDEST STOP JUMPDEST CALLVALUE DUP1 ISZERO PUSH2 0x1CE JUMPI PUSH1 0x0 DUP1 REVERT JUMPDEST POP PUSH2 0x1EF PUSH2 0x1DD CALLDATASIZE PUSH1 0x4 PUSH2 0x3011 JUMP JUMPDEST PUSH1 0x6 PUSH1 0x20 MSTORE PUSH1 0x0 SWAP1 DUP2 MSTORE PUSH1 0x40 SWAP1 KECCAK256 SLOAD DUP2 JUMP JUMPDEST PUSH1 0x40 MLOAD SWAP1 DUP2 MSTORE PUSH1 0x20 ADD JUMPDEST PUSH1 0x40 MLOAD DUP1 SWAP2 SUB SWAP1 RETURN JUMPDEST CALLVALUE DUP1 ISZERO PUSH2 0x20E JUMPI PUSH1 0x0 DUP1 REVERT JUMPDEST POP PUSH2 0x1EF PUSH2 0x21D CALLDATASIZE PUSH1 0x4 PUSH2 0x3011 JUMP JUMPDEST PUSH2 0x600 JUMP JUMPDEST PUSH2 0x1EF PUSH2 0x230 CALLDATASIZE PUSH1 0x4 PUSH2 0x304C JUMP JUMPDEST PUSH2 0x692 JUMP JUMPDEST CALLVALUE DUP1 ISZERO PUSH2 0x241 JUMPI PUSH1 0x0 DUP1 REVERT JUMPDEST POP PUSH2 0x1C0 PUSH2 0x250 CALLDATASIZE PUSH1 0x4 PUSH2 0x30B1 JUMP JUMPDEST PUSH2 0xCC9 JUMP JUMPDEST CALLVALUE DUP1 ISZERO PUSH2 0x261 JUMPI PUSH1 0x0 DUP1 REVERT JUMPDEST POP PUSH2 0x1C0 PUSH2 0x270 CALLDATASIZE PUSH1 0x4 PUSH2 0x30D3 JUMP JUMPDEST PUSH2 0xD19 JUMP JUMPDEST CALLVALUE DUP1 ISZERO PUSH2 0x281 JUMPI PUSH1 0x0 DUP1 REVERT JUMPDEST POP PUSH2 0x295 PUSH2 0x290 CALLDATASIZE PUSH1 0x4 PUSH2 0x30F7 JUMP JUMPDEST PUSH2 0xE96 JUMP JUMPDEST PUSH1 0x40 MLOAD PUSH2 0x1F9 SWAP2 SWAP1 PUSH2 0x3142 JUMP JUMPDEST CALLVALUE DUP1 ISZERO PUSH2 0x2AE JUMPI PUSH1 0x0 DUP1 REVERT JUMPDEST POP PUSH2 0x1C0 PUSH2 0x2BD CALLDATASIZE PUSH1 0x4 PUSH2 0x3185 JUMP JUMPDEST PUSH2 0xFC4 JUMP JUMPDEST CALLVALUE DUP1 ISZERO PUSH2 0x2CE JUMPI PUSH1 0x0 DUP1 REVERT JUMPDEST POP PUSH2 0x1EF PUSH2 0x2710 DUP2 JUMP JUMPDEST CALLVALUE DUP1 ISZERO PUSH2 0x2E4 JUMPI PUSH1 0x0 DUP1 REVERT JUMPDEST POP PUSH2 0x1C0 PUSH2 0x2F3 CALLDATASIZE PUSH1 0x4 PUSH2 0x320F JUMP JUMPDEST PUSH2 0x102B JUMP JUMPDEST CALLVALUE DUP1 ISZERO PUSH2 0x304 JUMPI PUSH1 0x0 DUP1 REVERT JUMPDEST POP PUSH2 0x1C0 PUSH2 0x313 CALLDATASIZE PUSH1 0x4 PUSH2 0x3011 JUMP JUMPDEST PUSH2 0x1196 JUMP JUMPDEST CALLVALUE DUP1 ISZERO PUSH2 0x324 JUMPI PUSH1 0x0 DUP1 REVERT JUMPDEST POP PUSH2 0x1EF PUSH2 0x1F4 DUP2 JUMP JUMPDEST CALLVALUE DUP1 ISZERO PUSH2 0x33A JUMPI PUSH1 0x0 DUP1 REVERT JUMPDEST POP PUSH2 0x1C0 PUSH2 0x349 CALLDATASIZE PUSH1 0x4 PUSH2 0x3011 JUMP JUMPDEST PUSH2 0x1541 JUMP JUMPDEST CALLVALUE DUP1 ISZERO PUSH2 0x35A JUMPI PUSH1 0x0 DUP1 REVERT JUMPDEST POP PUSH2 0x36E PUSH2 0x369 CALLDATASIZE PUSH1 0x4 PUSH2 0x3011 JUMP JUMPDEST PUSH2 0x18AC JUMP JUMPDEST PUSH1 0x40 MLOAD SWAP1 ISZERO ISZERO DUP2 MSTORE PUSH1 0x20 ADD PUSH2 0x1F9 JUMP JUMPDEST CALLVALUE DUP1 ISZERO PUSH2 0x38A JUMPI PUSH1 0x0 DUP1 REVERT JUMPDEST POP PUSH2 0x1EF PUSH1 0x4 SLOAD DUP2 JUMP JUMPDEST CALLVALUE DUP1 ISZERO PUSH2 0x3A0 JUMPI PUSH1 0x0 DUP1 REVERT JUMPDEST POP PUSH2 0x1EF PUSH1 0xC SLOAD DUP2 JUMP JUMPDEST CALLVALUE DUP1 ISZERO PUSH2 0x3B6 JUMPI PUSH1 0x0 DUP1 REVERT JUMPDEST POP PUSH2 0x1C0 PUSH2 0x18FE JUMP JUMPDEST CALLVALUE DUP1 ISZERO PUSH2 0x3CB JUMPI PUSH1 0x0 DUP1 REVERT JUMPDEST POP PUSH2 0x1C0 PUSH2 0x3DA CALLDATASIZE PUSH1 0x4 PUSH2 0x3011 JUMP JUMPDEST PUSH2 0x1912 JUMP JUMPDEST CALLVALUE DUP1 ISZERO PUSH2 0x3EB JUMPI PUSH1 0x0 DUP1 REVERT JUMPDEST POP PUSH1 0x0 SLOAD PUSH1 0x40 MLOAD PUSH1 0x1 PUSH1 0x1 PUSH1 0xA0 SHL SUB SWAP1 SWAP2 AND DUP2 MSTORE PUSH1 0x20 ADD PUSH2 0x1F9 JUMP JUMPDEST CALLVALUE DUP1 ISZERO PUSH2 0x413 JUMPI PUSH1 0x0 DUP1 REVERT JUMPDEST POP PUSH2 0x1C0 PUSH2 0x422 CALLDATASIZE PUSH1 0x4 PUSH2 0x32B3 JUMP JUMPDEST PUSH2 0x1955 JUMP JUMPDEST CALLVALUE DUP1 ISZERO PUSH2 0x433 JUMPI PUSH1 0x0 DUP1 REVERT JUMPDEST POP PUSH2 0x1EF PUSH1 0x3 SLOAD DUP2 JUMP JUMPDEST CALLVALUE DUP1 ISZERO PUSH2 0x449 JUMPI PUSH1 0x0 DUP1 REVERT JUMPDEST POP PUSH2 0x1EF PUSH1 0xA SLOAD DUP2 JUMP JUMPDEST CALLVALUE DUP1 ISZERO PUSH2 0x45F JUMPI PUSH1 0x0 DUP1 REVERT JUMPDEST POP PUSH2 0x4D7 PUSH2 0x46E CALLDATASIZE PUSH1 0x4 PUSH2 0x3011 JUMP JUMPDEST PUSH1 0x5 PUSH1 0x20 DUP2 SWAP1 MSTORE PUSH1 0x0 SWAP2 DUP3 MSTORE PUSH1 0x40 SWAP1 SWAP2 KECCAK256 DUP1 SLOAD PUSH1 0x1 DUP3 ADD SLOAD PUSH1 0x2 DUP4 ADD SLOAD PUSH1 0x3 DUP5 ADD SLOAD PUSH1 0x4 DUP6 ADD SLOAD SWAP6 DUP6 ADD SLOAD PUSH1 0x6 DUP7 ADD SLOAD PUSH1 0x7 SWAP1 SWAP7 ADD SLOAD SWAP5 SWAP7 PUSH1 0x1 PUSH1 0x1 PUSH1 0xA0 SHL SUB DUP1 DUP7 AND SWAP8 PUSH1 0xFF PUSH1 0x1 PUSH1 0xA0 SHL DUP9 DIV DUP2 AND SWAP9 PUSH1 0x1 PUSH1 0xA8 SHL SWAP1 SWAP9 DIV DUP2 AND SWAP8 SWAP7 SWAP1 SWAP3 AND SWAP6 SWAP3 SWAP4 SWAP3 SWAP1 SWAP2 AND DUP11 JUMP JUMPDEST PUSH1 0x40 MLOAD PUSH2 0x1F9 SWAP11 SWAP10 SWAP9 SWAP8 SWAP7 SWAP6 SWAP5 SWAP4 SWAP3 SWAP2 SWAP1 PUSH2 0x3338 JUMP JUMPDEST CALLVALUE DUP1 ISZERO PUSH2 0x4F9 JUMPI PUSH1 0x0 DUP1 REVERT JUMPDEST POP PUSH2 0x1C0 PUSH2 0x508 CALLDATASIZE PUSH1 0x4 PUSH2 0x3011 JUMP JUMPDEST PUSH2 0x1A56 JUMP JUMPDEST CALLVALUE DUP1 ISZERO PUSH2 0x519 JUMPI PUSH1 0x0 DUP1 REVERT JUMPDEST POP PUSH2 0x295 PUSH2 0x528 CALLDATASIZE PUSH1 0x4 PUSH2 0x33B1 JUMP JUMPDEST PUSH2 0x1AEE JUMP JUMPDEST CALLVALUE DUP1 ISZERO PUSH2 0x539 JUMPI PUSH1 0x0 DUP1 REVERT JUMPDEST POP PUSH2 0x36E PUSH2 0x548 CALLDATASIZE PUSH1 0x4 PUSH2 0x30D3 JUMP JUMPDEST PUSH1 0x9 PUSH1 0x20 MSTORE PUSH1 0x0 SWAP1 DUP2 MSTORE PUSH1 0x40 SWAP1 KECCAK256 SLOAD PUSH1 0xFF AND DUP2 JUMP JUMPDEST CALLVALUE DUP1 ISZERO PUSH2 0x569 JUMPI PUSH1 0x0 DUP1 REVERT JUMPDEST POP PUSH2 0x57D PUSH2 0x578 CALLDATASIZE PUSH1 0x4 PUSH2 0x3011 JUMP JUMPDEST PUSH2 0x1CA4 JUMP JUMPDEST PUSH1 0x40 MLOAD PUSH2 0x1F9 SWAP2 SWAP1 PUSH2 0x340C JUMP JUMPDEST CALLVALUE DUP1 ISZERO PUSH2 0x596 JUMPI PUSH1 0x0 DUP1 REVERT JUMPDEST POP PUSH2 0x1C0 PUSH2 0x5A5 CALLDATASIZE PUSH1 0x4 PUSH2 0x34B0 JUMP JUMPDEST PUSH2 0x1DFE JUMP JUMPDEST CALLVALUE DUP1 ISZERO PUSH2 0x5B6 JUMPI PUSH1 0x0 DUP1 REVERT JUMPDEST POP PUSH2 0x1EF PUSH1 0xB SLOAD DUP2 JUMP JUMPDEST CALLVALUE DUP1 ISZERO PUSH2 0x5CC JUMPI PUSH1 0x0 DUP1 REVERT JUMPDEST POP PUSH2 0x1C0 PUSH2 0x5DB CALLDATASIZE PUSH1 0x4 PUSH2 0x30D3 JUMP JUMPDEST PUSH2 0x1F60 JUMP JUMPDEST CALLVALUE DUP1 ISZERO PUSH2 0x5EC JUMPI PUSH1 0x0 DUP1 REVERT JUMPDEST POP PUSH2 0x1EF PUSH2 0x5FB CALLDATASIZE PUSH1 0x4 PUSH2 0x3011 JUMP JUMPDEST PUSH2 0x1F9B JUMP JUMPDEST PUSH1 0x0 DUP1 DUP1 JUMPDEST PUSH1 0x0 DUP5 DUP2 MSTORE PUSH1 0x6 PUSH1 0x20 MSTORE PUSH1 0x40 SWAP1 KECCAK256 SLOAD DUP2 LT ISZERO PUSH2 0x68B JUMPI PUSH1 0x0 DUP5 DUP2 MSTORE PUSH1 0x7 PUSH1 0x20 SWAP1 DUP2 MSTORE PUSH1 0x40 DUP1 DUP4 KECCAK256 DUP5 DUP5 MSTORE SWAP1 SWAP2 MSTORE DUP2 KECCAK256 SLOAD SWAP1 PUSH1 0x0 DUP3 DUP2 MSTORE PUSH1 0x5 PUSH1 0x20 MSTORE PUSH1 0x40 SWAP1 KECCAK256 PUSH1 0x7 ADD SLOAD PUSH1 0xFF AND PUSH1 0x3 DUP2 GT ISZERO PUSH2 0x65C JUMPI PUSH2 0x65C PUSH2 0x32F5 JUMP JUMPDEST EQ DUP1 ISZERO PUSH2 0x66F JUMPI POP PUSH2 0x66D DUP2 PUSH2 0x18AC JUMP JUMPDEST ISZERO JUMPDEST ISZERO PUSH2 0x682 JUMPI DUP3 PUSH2 0x67E DUP2 PUSH2 0x3507 JUMP JUMPDEST SWAP4 POP POP JUMPDEST POP PUSH1 0x1 ADD PUSH2 0x605 JUMP JUMPDEST POP SWAP3 SWAP2 POP POP JUMP JUMPDEST PUSH1 0x0 DUP5 PUSH1 0x1 PUSH1 0x1 PUSH1 0xA0 SHL SUB DUP2 AND PUSH2 0x6E0 JUMPI PUSH1 0x40 MLOAD PUSH3 0x461BCD PUSH1 0xE5 SHL DUP2 MSTORE PUSH1 0x20 PUSH1 0x4 DUP3 ADD MSTORE PUSH1 0xD PUSH1 0x24 DUP3 ADD MSTORE PUSH13 0x24B73B30B634B2103A37B5B2B7 PUSH1 0x99 SHL PUSH1 0x44 DUP3 ADD MSTORE PUSH1 0x64 ADD JUMPDEST PUSH1 0x40 MLOAD DUP1 SWAP2 SUB SWAP1 REVERT JUMPDEST PUSH1 0x0 DUP2 PUSH1 0x1 PUSH1 0x1 PUSH1 0xA0 SHL SUB AND EXTCODESIZE GT PUSH2 0x72B JUMPI PUSH1 0x40 MLOAD PUSH3 0x461BCD PUSH1 0xE5 SHL DUP2 MSTORE PUSH1 0x20 PUSH1 0x4 DUP3 ADD MSTORE PUSH1 0xE PUSH1 0x24 DUP3 ADD MSTORE PUSH14 0x139BDD08184818DBDB9D1C9858DD PUSH1 0x92 SHL PUSH1 0x44 DUP3 ADD MSTORE PUSH1 0x64 ADD PUSH2 0x6D7 JUMP JUMPDEST PUSH2 0x733 PUSH2 0x2000 JUMP JUMPDEST PUSH1 0x0 DUP6 GT PUSH2 0x783 JUMPI PUSH1 0x40 MLOAD PUSH3 0x461BCD PUSH1 0xE5 SHL DUP2 MSTORE PUSH1 0x20 PUSH1 0x4 DUP3 ADD MSTORE PUSH1 0x1D PUSH1 0x24 DUP3 ADD MSTORE PUSH32 0x416D6F756E74206D7573742062652067726561746572207468616E2030000000 PUSH1 0x44 DUP3 ADD MSTORE PUSH1 0x64 ADD PUSH2 0x6D7 JUMP JUMPDEST PUSH1 0x0 DUP5 GT PUSH2 0x7C9 JUMPI PUSH1 0x40 MLOAD PUSH3 0x461BCD PUSH1 0xE5 SHL DUP2 MSTORE PUSH1 0x20 PUSH1 0x4 DUP3 ADD MSTORE PUSH1 0x13 PUSH1 0x24 DUP3 ADD MSTORE PUSH19 0x496E76616C69642070726963652072616E6765 PUSH1 0x68 SHL PUSH1 0x44 DUP3 ADD MSTORE PUSH1 0x64 ADD PUSH2 0x6D7 JUMP JUMPDEST PUSH1 0x0 DUP4 GT PUSH2 0x819 JUMPI PUSH1 0x40 MLOAD PUSH3 0x461BCD PUSH1 0xE5 SHL DUP2 MSTORE PUSH1 0x20 PUSH1 0x4 DUP3 ADD MSTORE PUSH1 0x1A PUSH1 0x24 DUP3 ADD MSTORE PUSH32 0x54544C206D7573742062652067726561746572207468616E2030000000000000 PUSH1 0x44 DUP3 ADD MSTORE PUSH1 0x64 ADD PUSH2 0x6D7 JUMP JUMPDEST PUSH1 0xC SLOAD DUP4 GT ISZERO PUSH2 0x85A JUMPI PUSH1 0x40 MLOAD PUSH3 0x461BCD PUSH1 0xE5 SHL DUP2 MSTORE PUSH1 0x20 PUSH1 0x4 DUP3 ADD MSTORE PUSH1 0xC PUSH1 0x24 DUP3 ADD MSTORE PUSH12 0x54544C20746F6F206C6F6E67 PUSH1 0xA0 SHL PUSH1 0x44 DUP3 ADD MSTORE PUSH1 0x64 ADD PUSH2 0x6D7 JUMP JUMPDEST PUSH1 0x0 PUSH8 0xDE0B6B3A7640000 PUSH2 0x86F DUP7 DUP9 PUSH2 0x3520 JUMP JUMPDEST PUSH2 0x879 SWAP2 SWAP1 PUSH2 0x353D JUMP JUMPDEST SWAP1 POP PUSH1 0x0 PUSH2 0x2710 PUSH1 0x3 SLOAD DUP4 PUSH2 0x88E SWAP2 SWAP1 PUSH2 0x3520 JUMP JUMPDEST PUSH2 0x898 SWAP2 SWAP1 PUSH2 0x353D JUMP JUMPDEST SWAP1 POP PUSH1 0xA SLOAD DUP3 LT ISZERO PUSH2 0x8DE JUMPI PUSH1 0x40 MLOAD PUSH3 0x461BCD PUSH1 0xE5 SHL DUP2 MSTORE PUSH1 0x20 PUSH1 0x4 DUP3 ADD MSTORE PUSH1 0xF PUSH1 0x24 DUP3 ADD MSTORE PUSH15 0x13DC99195C881D1BDBC81CDB585B1B PUSH1 0x8A SHL PUSH1 0x44 DUP3 ADD MSTORE PUSH1 0x64 ADD PUSH2 0x6D7 JUMP JUMPDEST PUSH1 0xB SLOAD DUP3 GT ISZERO PUSH2 0x922 JUMPI PUSH1 0x40 MLOAD PUSH3 0x461BCD PUSH1 0xE5 SHL DUP2 MSTORE PUSH1 0x20 PUSH1 0x4 DUP3 ADD MSTORE PUSH1 0xF PUSH1 0x24 DUP3 ADD MSTORE PUSH15 0x4F7264657220746F6F206C61726765 PUSH1 0x88 SHL PUSH1 0x44 DUP3 ADD MSTORE PUSH1 0x64 ADD PUSH2 0x6D7 JUMP JUMPDEST PUSH1 0x0 DUP11 PUSH1 0x1 DUP2 GT ISZERO PUSH2 0x936 JUMPI PUSH2 0x936 PUSH2 0x32F5 JUMP JUMPDEST SUB PUSH2 0x9A9 JUMPI PUSH2 0x945 DUP2 DUP4 PUSH2 0x355F JUMP JUMPDEST CALLVALUE LT ISZERO PUSH2 0x98C JUMPI PUSH1 0x40 MLOAD PUSH3 0x461BCD PUSH1 0xE5 SHL DUP2 MSTORE PUSH1 0x20 PUSH1 0x4 DUP3 ADD MSTORE PUSH1 0x15 PUSH1 0x24 DUP3 ADD MSTORE PUSH21 0x125B9CDD59999A58DA595B9D08115512081CD95B9D PUSH1 0x5A SHL PUSH1 0x44 DUP3 ADD MSTORE PUSH1 0x64 ADD PUSH2 0x6D7 JUMP JUMPDEST DUP1 PUSH1 0x4 PUSH1 0x0 DUP3 DUP3 SLOAD PUSH2 0x99E SWAP2 SWAP1 PUSH2 0x355F JUMP JUMPDEST SWAP1 SWAP2 SSTORE POP PUSH2 0x9BE SWAP1 POP JUMP JUMPDEST PUSH2 0x9BE PUSH1 0x1 PUSH1 0x1 PUSH1 0xA0 SHL SUB DUP10 AND CALLER ADDRESS DUP11 PUSH2 0x202A JUMP JUMPDEST PUSH1 0x2 DUP1 SLOAD SWAP1 DUP2 SWAP1 PUSH1 0x0 PUSH2 0x9D0 DUP4 PUSH2 0x3507 JUMP JUMPDEST SWAP1 SWAP2 SSTORE POP POP PUSH1 0x40 DUP1 MLOAD PUSH2 0x140 DUP2 ADD DUP3 MSTORE DUP3 DUP2 MSTORE CALLER PUSH1 0x20 DUP3 ADD MSTORE PUSH1 0x0 SWAP2 DUP2 ADD DUP14 PUSH1 0x1 DUP2 GT ISZERO PUSH2 0xA00 JUMPI PUSH2 0xA00 PUSH2 0x32F5 JUMP JUMPDEST DUP2 MSTORE PUSH1 0x20 ADD DUP13 PUSH1 0x1 DUP2 GT ISZERO PUSH2 0xA17 JUMPI PUSH2 0xA17 PUSH2 0x32F5 JUMP JUMPDEST DUP2 MSTORE PUSH1 0x20 ADD DUP12 PUSH1 0x1 PUSH1 0x1 PUSH1 0xA0 SHL SUB AND DUP2 MSTORE PUSH1 0x20 ADD DUP11 DUP2 MSTORE PUSH1 0x20 ADD DUP10 DUP2 MSTORE PUSH1 0x20 ADD PUSH1 0x0 DUP2 MSTORE PUSH1 0x20 ADD DUP9 TIMESTAMP PUSH2 0xA4A SWAP2 SWAP1 PUSH2 0x355F JUMP JUMPDEST DUP2 MSTORE PUSH1 0x20 ADD PUSH1 0x0 SWAP1 MSTORE PUSH1 0x0 DUP4 DUP2 MSTORE PUSH1 0x5 PUSH1 0x20 SWAP1 DUP2 MSTORE PUSH1 0x40 SWAP2 DUP3 SWAP1 KECCAK256 DUP4 MLOAD DUP2 SSTORE SWAP1 DUP4 ADD MLOAD PUSH1 0x1 DUP1 DUP4 ADD DUP1 SLOAD PUSH1 0x1 PUSH1 0x1 PUSH1 0xA0 SHL SUB SWAP1 SWAP4 AND PUSH1 0x1 PUSH1 0x1 PUSH1 0xA0 SHL SUB NOT DUP5 AND DUP2 OR DUP3 SSTORE SWAP5 DUP7 ADD MLOAD SWAP6 SWAP7 POP DUP7 SWAP6 SWAP4 SWAP5 SWAP1 SWAP3 PUSH1 0x1 PUSH1 0x1 PUSH1 0xA8 SHL SUB NOT AND OR SWAP1 PUSH1 0x1 PUSH1 0xA0 SHL SWAP1 DUP5 SWAP1 DUP2 GT ISZERO PUSH2 0xABE JUMPI PUSH2 0xABE PUSH2 0x32F5 JUMP JUMPDEST MUL OR SWAP1 SSTORE POP PUSH1 0x60 DUP3 ADD MLOAD DUP2 PUSH1 0x1 ADD PUSH1 0x15 PUSH2 0x100 EXP DUP2 SLOAD DUP2 PUSH1 0xFF MUL NOT AND SWAP1 DUP4 PUSH1 0x1 DUP2 GT ISZERO PUSH2 0xAED JUMPI PUSH2 0xAED PUSH2 0x32F5 JUMP JUMPDEST MUL OR SWAP1 SSTORE POP PUSH1 0x80 DUP3 ADD MLOAD DUP2 PUSH1 0x2 ADD PUSH1 0x0 PUSH2 0x100 EXP DUP2 SLOAD DUP2 PUSH1 0x1 PUSH1 0x1 PUSH1 0xA0 SHL SUB MUL NOT AND SWAP1 DUP4 PUSH1 0x1 PUSH1 0x1 PUSH1 0xA0 SHL SUB AND MUL OR SWAP1 SSTORE POP PUSH1 0xA0 DUP3 ADD MLOAD DUP2 PUSH1 0x3 ADD SSTORE PUSH1 0xC0 DUP3 ADD MLOAD DUP2 PUSH1 0x4 ADD SSTORE PUSH1 0xE0 DUP3 ADD MLOAD DUP2 PUSH1 0x5 ADD SSTORE PUSH2 0x100 DUP3 ADD MLOAD DUP2 PUSH1 0x6 ADD SSTORE PUSH2 0x120 DUP3 ADD MLOAD DUP2 PUSH1 0x7 ADD PUSH1 0x0 PUSH2 0x100 EXP DUP2 SLOAD DUP2 PUSH1 0xFF MUL NOT AND SWAP1 DUP4 PUSH1 0x3 DUP2 GT ISZERO PUSH2 0xB73 JUMPI PUSH2 0xB73 PUSH2 0x32F5 JUMP JUMPDEST MUL OR SWAP1 SSTORE POP SWAP1 POP POP PUSH2 0xB87 DUP3 DUP12 DUP15 DUP15 PUSH2 0x2091 JUMP JUMPDEST CALLER PUSH1 0x1 PUSH1 0x1 PUSH1 0xA0 SHL SUB AND DUP3 PUSH32 0xA2FB0DCE7AE79C4288991EAEF209E312E4008FDF46D4842D51F55426CCC90393 DUP15 DUP15 DUP15 DUP15 DUP15 DUP9 PUSH2 0x100 ADD MLOAD DUP13 PUSH1 0x40 MLOAD PUSH2 0xBD2 SWAP8 SWAP7 SWAP6 SWAP5 SWAP4 SWAP3 SWAP2 SWAP1 PUSH2 0x3572 JUMP JUMPDEST PUSH1 0x40 MLOAD DUP1 SWAP2 SUB SWAP1 LOG3 PUSH1 0x0 DUP13 PUSH1 0x1 DUP2 GT ISZERO PUSH2 0xBEE JUMPI PUSH2 0xBEE PUSH2 0x32F5 JUMP JUMPDEST EQ DUP1 ISZERO PUSH2 0xC03 JUMPI POP PUSH2 0xC00 DUP4 DUP6 PUSH2 0x355F JUMP JUMPDEST CALLVALUE GT JUMPDEST ISZERO PUSH2 0xCB0 JUMPI PUSH1 0x0 PUSH2 0xC14 DUP5 DUP7 PUSH2 0x355F JUMP JUMPDEST PUSH2 0xC1E SWAP1 CALLVALUE PUSH2 0x35C4 JUMP JUMPDEST PUSH1 0x40 MLOAD SWAP1 SWAP2 POP PUSH1 0x0 SWAP1 CALLER SWAP1 DUP4 SWAP1 DUP4 DUP2 DUP2 DUP2 DUP6 DUP8 GAS CALL SWAP3 POP POP POP RETURNDATASIZE DUP1 PUSH1 0x0 DUP2 EQ PUSH2 0xC63 JUMPI PUSH1 0x40 MLOAD SWAP2 POP PUSH1 0x1F NOT PUSH1 0x3F RETURNDATASIZE ADD AND DUP3 ADD PUSH1 0x40 MSTORE RETURNDATASIZE DUP3 MSTORE RETURNDATASIZE PUSH1 0x0 PUSH1 0x20 DUP5 ADD RETURNDATACOPY PUSH2 0xC68 JUMP JUMPDEST PUSH1 0x60 SWAP2 POP JUMPDEST POP POP SWAP1 POP DUP1 PUSH2 0xCAD JUMPI PUSH1 0x40 MLOAD PUSH3 0x461BCD PUSH1 0xE5 SHL DUP2 MSTORE PUSH1 0x20 PUSH1 0x4 DUP3 ADD MSTORE PUSH1 0x11 PUSH1 0x24 DUP3 ADD MSTORE PUSH17 0x115512081C995D1D5C9B8819985A5B1959 PUSH1 0x7A SHL PUSH1 0x44 DUP3 ADD MSTORE PUSH1 0x64 ADD PUSH2 0x6D7 JUMP JUMPDEST POP POP JUMPDEST POP SWAP4 POP POP POP PUSH2 0xCBE PUSH1 0x1 DUP1 SSTORE JUMP JUMPDEST POP SWAP7 SWAP6 POP POP POP POP POP POP JUMP JUMPDEST PUSH2 0xCD1 PUSH2 0x20FB JUMP JUMPDEST PUSH1 0xA DUP3 SWAP1 SSTORE PUSH1 0xB DUP2 SWAP1 SSTORE PUSH1 0x40 DUP1 MLOAD DUP4 DUP2 MSTORE PUSH1 0x20 DUP2 ADD DUP4 SWAP1 MSTORE PUSH32 0x34A3B94861A601870265C6C4D74C28D1A09F6C803CE42B95E749F46127C8F170 SWAP2 ADD JUMPDEST PUSH1 0x40 MLOAD DUP1 SWAP2 SUB SWAP1 LOG1 POP POP JUMP JUMPDEST PUSH2 0xD21 PUSH2 0x20FB JUMP JUMPDEST PUSH1 0x1 PUSH1 0x1 PUSH1 0xA0 SHL SUB DUP2 AND PUSH2 0xD6B JUMPI PUSH1 0x40 MLOAD PUSH3 0x461BCD PUSH1 0xE5 SHL DUP2 MSTORE PUSH1 0x20 PUSH1 0x4 DUP3 ADD MSTORE PUSH1 0x11 PUSH1 0x24 DUP3 ADD MSTORE PUSH17 0x125B9D985B1A59081C9958DA5C1A595B9D PUSH1 0x7A SHL PUSH1 0x44 DUP3 ADD MSTORE PUSH1 0x64 ADD PUSH2 0x6D7 JUMP JUMPDEST PUSH1 0x4 SLOAD DUP1 PUSH2 0xDB1 JUMPI PUSH1 0x40 MLOAD PUSH3 0x461BCD PUSH1 0xE5 SHL DUP2 MSTORE PUSH1 0x20 PUSH1 0x4 DUP3 ADD MSTORE PUSH1 0x13 PUSH1 0x24 DUP3 ADD MSTORE PUSH19 0x4E6F206665657320746F207769746864726177 PUSH1 0x68 SHL PUSH1 0x44 DUP3 ADD MSTORE PUSH1 0x64 ADD PUSH2 0x6D7 JUMP JUMPDEST PUSH1 0x0 PUSH1 0x4 DUP2 SWAP1 SSTORE PUSH1 0x40 MLOAD PUSH1 0x1 PUSH1 0x1 PUSH1 0xA0 SHL SUB DUP5 AND SWAP1 DUP4 SWAP1 DUP4 DUP2 DUP2 DUP2 DUP6 DUP8 GAS CALL SWAP3 POP POP POP RETURNDATASIZE DUP1 PUSH1 0x0 DUP2 EQ PUSH2 0xE00 JUMPI PUSH1 0x40 MLOAD SWAP2 POP PUSH1 0x1F NOT PUSH1 0x3F RETURNDATASIZE ADD AND DUP3 ADD PUSH1 0x40 MSTORE RETURNDATASIZE DUP3 MSTORE RETURNDATASIZE PUSH1 0x0 PUSH1 0x20 DUP5 ADD RETURNDATACOPY PUSH2 0xE05 JUMP JUMPDEST PUSH1 0x60 SWAP2 POP JUMPDEST POP POP SWAP1 POP DUP1 PUSH2 0xE4E JUMPI PUSH1 0x40 MLOAD PUSH3 0x461BCD PUSH1 0xE5 SHL DUP2 MSTORE PUSH1 0x20 PUSH1 0x4 DUP3 ADD MSTORE PUSH1 0x15 PUSH1 0x24 DUP3 ADD MSTORE PUSH21 0x119959481DDA5D1A191C985DD85B0819985A5B1959 PUSH1 0x5A SHL PUSH1 0x44 DUP3 ADD MSTORE PUSH1 0x64 ADD PUSH2 0x6D7 JUMP JUMPDEST DUP3 PUSH1 0x1 PUSH1 0x1 PUSH1 0xA0 SHL SUB AND PUSH32 0xC0819C13BE868895EB93E40EACEB96DE976442FA1D404E5C55F14BB65A8C489A DUP4 PUSH1 0x40 MLOAD PUSH2 0xE89 SWAP2 DUP2 MSTORE PUSH1 0x20 ADD SWAP1 JUMP JUMPDEST PUSH1 0x40 MLOAD DUP1 SWAP2 SUB SWAP1 LOG2 POP POP POP JUMP JUMPDEST PUSH1 0x60 PUSH1 0x0 PUSH2 0xEA5 DUP6 DUP6 DUP6 PUSH2 0x2128 JUMP JUMPDEST SWAP1 POP PUSH1 0x0 PUSH2 0xEB2 DUP3 PUSH2 0x600 JUMP JUMPDEST SWAP1 POP PUSH1 0x0 DUP1 DUP3 PUSH8 0xFFFFFFFFFFFFFFFF DUP2 GT ISZERO PUSH2 0xED0 JUMPI PUSH2 0xED0 PUSH2 0x35D7 JUMP JUMPDEST PUSH1 0x40 MLOAD SWAP1 DUP1 DUP3 MSTORE DUP1 PUSH1 0x20 MUL PUSH1 0x20 ADD DUP3 ADD PUSH1 0x40 MSTORE DUP1 ISZERO PUSH2 0xEF9 JUMPI DUP2 PUSH1 0x20 ADD PUSH1 0x20 DUP3 MUL DUP1 CALLDATASIZE DUP4 CALLDATACOPY ADD SWAP1 POP JUMPDEST POP SWAP1 POP PUSH1 0x0 JUMPDEST PUSH1 0x0 DUP6 DUP2 MSTORE PUSH1 0x6 PUSH1 0x20 MSTORE PUSH1 0x40 SWAP1 KECCAK256 SLOAD DUP2 LT DUP1 ISZERO PUSH2 0xF1B JUMPI POP DUP4 DUP4 LT JUMPDEST ISZERO PUSH2 0xFB8 JUMPI PUSH1 0x0 DUP6 DUP2 MSTORE PUSH1 0x7 PUSH1 0x20 SWAP1 DUP2 MSTORE PUSH1 0x40 DUP1 DUP4 KECCAK256 DUP5 DUP5 MSTORE SWAP1 SWAP2 MSTORE DUP2 KECCAK256 SLOAD SWAP1 PUSH1 0x0 DUP3 DUP2 MSTORE PUSH1 0x5 PUSH1 0x20 MSTORE PUSH1 0x40 SWAP1 KECCAK256 PUSH1 0x7 ADD SLOAD PUSH1 0xFF AND PUSH1 0x3 DUP2 GT ISZERO PUSH2 0xF61 JUMPI PUSH2 0xF61 PUSH2 0x32F5 JUMP JUMPDEST EQ DUP1 ISZERO PUSH2 0xF74 JUMPI POP PUSH2 0xF72 DUP2 PUSH2 0x18AC JUMP JUMPDEST ISZERO JUMPDEST ISZERO PUSH2 0xFA5 JUMPI DUP1 DUP4 DUP6 DUP2 MLOAD DUP2 LT PUSH2 0xF8C JUMPI PUSH2 0xF8C PUSH2 0x35ED JUMP JUMPDEST PUSH1 0x20 SWAP1 DUP2 MUL SWAP2 SWAP1 SWAP2 ADD ADD MSTORE DUP4 PUSH2 0xFA1 DUP2 PUSH2 0x3507 JUMP JUMPDEST SWAP5 POP POP JUMPDEST POP DUP1 PUSH2 0xFB0 DUP2 PUSH2 0x3507 JUMP JUMPDEST SWAP2 POP POP PUSH2 0xEFF JUMP JUMPDEST POP SWAP8 SWAP7 POP POP POP POP POP POP POP JUMP JUMPDEST PUSH2 0xFCC PUSH2 0x20FB JUMP JUMPDEST PUSH1 0x1 PUSH1 0x1 PUSH1 0xA0 SHL SUB DUP3 AND PUSH1 0x0 DUP2 DUP2 MSTORE PUSH1 0x9 PUSH1 0x20 SWAP1 DUP2 MSTORE PUSH1 0x40 SWAP2 DUP3 SWAP1 KECCAK256 DUP1 SLOAD PUSH1 0xFF NOT AND DUP6 ISZERO ISZERO SWAP1 DUP2 OR SWAP1 SWAP2 SSTORE SWAP2 MLOAD SWAP2 DUP3 MSTORE PUSH32 0x5B91A6535B81256FC66D813B8F8B5776B43F069BD85240FB8E65FAE1767A79D7 SWAP2 ADD PUSH1 0x40 MLOAD DUP1 SWAP2 SUB SWAP1 LOG2 POP POP JUMP JUMPDEST PUSH2 0x1033 PUSH2 0x2000 JUMP JUMPDEST CALLER PUSH1 0x0 SWAP1 DUP2 MSTORE PUSH1 0x9 PUSH1 0x20 MSTORE PUSH1 0x40 SWAP1 KECCAK256 SLOAD PUSH1 0xFF AND PUSH2 0x108E JUMPI PUSH1 0x40 MLOAD PUSH3 0x461BCD PUSH1 0xE5 SHL DUP2 MSTORE PUSH1 0x20 PUSH1 0x4 DUP3 ADD MSTORE PUSH1 0x19 PUSH1 0x24 DUP3 ADD MSTORE PUSH25 0x10D85B1B195C881A5CC81B9BDD081DDA1A5D195B1A5CDD1959 PUSH1 0x3A SHL PUSH1 0x44 DUP3 ADD MSTORE PUSH1 0x64 ADD PUSH2 0x6D7 JUMP JUMPDEST DUP3 PUSH2 0x10DB JUMPI PUSH1 0x40 MLOAD PUSH3 0x461BCD PUSH1 0xE5 SHL DUP2 MSTORE PUSH1 0x20 PUSH1 0x4 DUP3 ADD MSTORE PUSH1 0x1B PUSH1 0x24 DUP3 ADD MSTORE PUSH32 0x4E6F206F72646572206D61746368657320746F2066756C66696C6C0000000000 PUSH1 0x44 DUP3 ADD MSTORE PUSH1 0x64 ADD PUSH2 0x6D7 JUMP JUMPDEST DUP3 DUP2 EQ PUSH2 0x112A JUMPI PUSH1 0x40 MLOAD PUSH3 0x461BCD PUSH1 0xE5 SHL DUP2 MSTORE PUSH1 0x20 PUSH1 0x4 DUP3 ADD MSTORE PUSH1 0x18 PUSH1 0x24 DUP3 ADD MSTORE PUSH32 0x4D69736D61746368656420617272617973206C656E6774680000000000000000 PUSH1 0x44 DUP3 ADD MSTORE PUSH1 0x64 ADD PUSH2 0x6D7 JUMP JUMPDEST PUSH1 0x0 JUMPDEST DUP4 DUP2 LT ISZERO PUSH2 0x1186 JUMPI PUSH2 0x117E DUP6 DUP6 DUP4 DUP2 DUP2 LT PUSH2 0x114A JUMPI PUSH2 0x114A PUSH2 0x35ED JUMP JUMPDEST SWAP1 POP PUSH1 0x60 MUL ADD DUP1 CALLDATASIZE SUB DUP2 ADD SWAP1 PUSH2 0x1160 SWAP2 SWAP1 PUSH2 0x3603 JUMP JUMPDEST DUP5 DUP5 DUP5 DUP2 DUP2 LT PUSH2 0x1172 JUMPI PUSH2 0x1172 PUSH2 0x35ED JUMP JUMPDEST SWAP1 POP PUSH1 0x20 MUL ADD CALLDATALOAD PUSH2 0x215E JUMP JUMPDEST PUSH1 0x1 ADD PUSH2 0x112D JUMP JUMPDEST POP PUSH2 0x1190 PUSH1 0x1 DUP1 SSTORE JUMP JUMPDEST POP POP POP POP JUMP JUMPDEST PUSH2 0x119E PUSH2 0x2000 JUMP JUMPDEST PUSH1 0x0 DUP2 DUP2 MSTORE PUSH1 0x5 PUSH1 0x20 MSTORE PUSH1 0x40 SWAP1 KECCAK256 PUSH1 0x1 ADD SLOAD DUP2 SWAP1 PUSH1 0x1 PUSH1 0x1 PUSH1 0xA0 SHL SUB AND PUSH2 0x11D7 JUMPI PUSH1 0x40 MLOAD PUSH3 0x461BCD PUSH1 0xE5 SHL DUP2 MSTORE PUSH1 0x4 ADD PUSH2 0x6D7 SWAP1 PUSH2 0x366F JUMP JUMPDEST PUSH1 0x0 DUP3 DUP2 MSTORE PUSH1 0x5 PUSH1 0x20 MSTORE PUSH1 0x40 SWAP1 KECCAK256 PUSH1 0x1 ADD SLOAD DUP3 SWAP1 PUSH1 0x1 PUSH1 0x1 PUSH1 0xA0 SHL SUB AND CALLER EQ PUSH2 0x1234 JUMPI PUSH1 0x40 MLOAD PUSH3 0x461BCD PUSH1 0xE5 SHL DUP2 MSTORE PUSH1 0x20 PUSH1 0x4 DUP3 ADD MSTORE PUSH1 0xF PUSH1 0x24 DUP3 ADD MSTORE PUSH15 0x2737BA1037B93232B91037BBB732B9 PUSH1 0x89 SHL PUSH1 0x44 DUP3 ADD MSTORE PUSH1 0x64 ADD PUSH2 0x6D7 JUMP JUMPDEST PUSH1 0x0 DUP4 DUP2 MSTORE PUSH1 0x5 PUSH1 0x20 MSTORE PUSH1 0x40 DUP2 KECCAK256 SWAP1 PUSH1 0x7 DUP3 ADD SLOAD PUSH1 0xFF AND PUSH1 0x3 DUP2 GT ISZERO PUSH2 0x125C JUMPI PUSH2 0x125C PUSH2 0x32F5 JUMP JUMPDEST EQ PUSH2 0x129C JUMPI PUSH1 0x40 MLOAD PUSH3 0x461BCD PUSH1 0xE5 SHL DUP2 MSTORE PUSH1 0x20 PUSH1 0x4 DUP3 ADD MSTORE PUSH1 0x10 PUSH1 0x24 DUP3 ADD MSTORE PUSH16 0x4F72646572206E6F7420616374697665 PUSH1 0x80 SHL PUSH1 0x44 DUP3 ADD MSTORE PUSH1 0x64 ADD PUSH2 0x6D7 JUMP JUMPDEST PUSH2 0x12A5 DUP5 PUSH2 0x18AC JUMP JUMPDEST ISZERO PUSH2 0x12E2 JUMPI PUSH1 0x40 MLOAD PUSH3 0x461BCD PUSH1 0xE5 SHL DUP2 MSTORE PUSH1 0x20 PUSH1 0x4 DUP3 ADD MSTORE PUSH1 0xD PUSH1 0x24 DUP3 ADD MSTORE PUSH13 0x13DC99195C88195E1C1A5C9959 PUSH1 0x9A SHL PUSH1 0x44 DUP3 ADD MSTORE PUSH1 0x64 ADD PUSH2 0x6D7 JUMP JUMPDEST PUSH1 0x7 DUP2 ADD DUP1 SLOAD PUSH1 0x2 PUSH1 0xFF NOT SWAP1 SWAP2 AND OR SWAP1 SSTORE PUSH1 0x1 DUP1 DUP3 ADD SLOAD PUSH1 0x0 SWAP2 PUSH1 0x1 PUSH1 0xA0 SHL SWAP1 SWAP2 DIV PUSH1 0xFF AND SWAP1 DUP2 GT ISZERO PUSH2 0x1317 JUMPI PUSH2 0x1317 PUSH2 0x32F5 JUMP JUMPDEST SUB PUSH2 0x14C6 JUMPI PUSH1 0x0 DUP2 PUSH1 0x5 ADD SLOAD DUP3 PUSH1 0x3 ADD SLOAD PUSH2 0x1332 SWAP2 SWAP1 PUSH2 0x35C4 JUMP JUMPDEST SWAP1 POP DUP1 ISZERO PUSH2 0x14C0 JUMPI PUSH1 0x0 PUSH8 0xDE0B6B3A7640000 DUP4 PUSH1 0x4 ADD SLOAD DUP4 PUSH2 0x1355 SWAP2 SWAP1 PUSH2 0x3520 JUMP JUMPDEST PUSH2 0x135F SWAP2 SWAP1 PUSH2 0x353D JUMP JUMPDEST SWAP1 POP PUSH1 0x0 PUSH2 0x2710 PUSH1 0x3 SLOAD DUP4 PUSH2 0x1374 SWAP2 SWAP1 PUSH2 0x3520 JUMP JUMPDEST PUSH2 0x137E SWAP2 SWAP1 PUSH2 0x353D JUMP JUMPDEST SWAP1 POP PUSH1 0x0 PUSH2 0x138C DUP3 DUP5 PUSH2 0x355F JUMP JUMPDEST SWAP1 POP PUSH1 0x0 PUSH1 0x4 SLOAD DUP4 GT PUSH2 0x139F JUMPI DUP3 PUSH2 0x13A3 JUMP JUMPDEST PUSH1 0x4 SLOAD JUMPDEST SWAP1 POP DUP1 PUSH1 0x4 PUSH1 0x0 DUP3 DUP3 SLOAD PUSH2 0x13B7 SWAP2 SWAP1 PUSH2 0x35C4 JUMP JUMPDEST SWAP1 SWAP2 SSTORE POP POP DUP3 DUP2 LT ISZERO PUSH2 0x13D1 JUMPI PUSH2 0x13CE DUP2 DUP6 PUSH2 0x355F JUMP JUMPDEST SWAP2 POP JUMPDEST DUP2 SELFBALANCE LT ISZERO PUSH2 0x1421 JUMPI PUSH1 0x40 MLOAD PUSH3 0x461BCD PUSH1 0xE5 SHL DUP2 MSTORE PUSH1 0x20 PUSH1 0x4 DUP3 ADD MSTORE PUSH1 0x1C PUSH1 0x24 DUP3 ADD MSTORE PUSH32 0x496E73756666696369656E742045544820696E20636F6E747261637400000000 PUSH1 0x44 DUP3 ADD MSTORE PUSH1 0x64 ADD PUSH2 0x6D7 JUMP JUMPDEST PUSH1 0x1 DUP7 ADD SLOAD PUSH1 0x40 MLOAD PUSH1 0x0 SWAP2 PUSH1 0x1 PUSH1 0x1 PUSH1 0xA0 SHL SUB AND SWAP1 DUP5 SWAP1 DUP4 DUP2 DUP2 DUP2 DUP6 DUP8 GAS CALL SWAP3 POP POP POP RETURNDATASIZE DUP1 PUSH1 0x0 DUP2 EQ PUSH2 0x1470 JUMPI PUSH1 0x40 MLOAD SWAP2 POP PUSH1 0x1F NOT PUSH1 0x3F RETURNDATASIZE ADD AND DUP3 ADD PUSH1 0x40 MSTORE RETURNDATASIZE DUP3 MSTORE RETURNDATASIZE PUSH1 0x0 PUSH1 0x20 DUP5 ADD RETURNDATACOPY PUSH2 0x1475 JUMP JUMPDEST PUSH1 0x60 SWAP2 POP JUMPDEST POP POP SWAP1 POP DUP1 PUSH2 0x14BA JUMPI PUSH1 0x40 MLOAD PUSH3 0x461BCD PUSH1 0xE5 SHL DUP2 MSTORE PUSH1 0x20 PUSH1 0x4 DUP3 ADD MSTORE PUSH1 0x11 PUSH1 0x24 DUP3 ADD MSTORE PUSH17 0x115512081C99599D5B990819985A5B1959 PUSH1 0x7A SHL PUSH1 0x44 DUP3 ADD MSTORE PUSH1 0x64 ADD PUSH2 0x6D7 JUMP JUMPDEST POP POP POP POP POP JUMPDEST POP PUSH2 0x1507 JUMP JUMPDEST PUSH1 0x0 DUP2 PUSH1 0x5 ADD SLOAD DUP3 PUSH1 0x3 ADD SLOAD PUSH2 0x14DC SWAP2 SWAP1 PUSH2 0x35C4 JUMP JUMPDEST SWAP1 POP DUP1 ISZERO PUSH2 0x1505 JUMPI PUSH1 0x1 DUP3 ADD SLOAD PUSH1 0x2 DUP4 ADD SLOAD PUSH2 0x1505 SWAP2 PUSH1 0x1 PUSH1 0x1 PUSH1 0xA0 SHL SUB SWAP2 DUP3 AND SWAP2 AND DUP4 PUSH2 0x27CE JUMP JUMPDEST POP JUMPDEST PUSH1 0x40 MLOAD DUP5 SWAP1 PUSH32 0x61B9399F2F0F32CA39CE8D7BE32CAED5EC22FE07A6DABA3A467ED479EC606582 SWAP1 PUSH1 0x0 SWAP1 LOG2 POP POP POP PUSH2 0x153E PUSH1 0x1 DUP1 SSTORE JUMP JUMPDEST POP JUMP JUMPDEST PUSH2 0x1549 PUSH2 0x2000 JUMP JUMPDEST PUSH1 0x0 DUP2 DUP2 MSTORE PUSH1 0x5 PUSH1 0x20 MSTORE PUSH1 0x40 SWAP1 KECCAK256 PUSH1 0x1 ADD SLOAD DUP2 SWAP1 PUSH1 0x1 PUSH1 0x1 PUSH1 0xA0 SHL SUB AND PUSH2 0x1582 JUMPI PUSH1 0x40 MLOAD PUSH3 0x461BCD PUSH1 0xE5 SHL DUP2 MSTORE PUSH1 0x4 ADD PUSH2 0x6D7 SWAP1 PUSH2 0x366F JUMP JUMPDEST PUSH1 0x0 DUP3 DUP2 MSTORE PUSH1 0x5 PUSH1 0x20 MSTORE PUSH1 0x40 DUP2 KECCAK256 SWAP1 PUSH1 0x7 DUP3 ADD SLOAD PUSH1 0xFF AND PUSH1 0x3 DUP2 GT ISZERO PUSH2 0x15AA JUMPI PUSH2 0x15AA PUSH2 0x32F5 JUMP JUMPDEST EQ PUSH2 0x15EA JUMPI PUSH1 0x40 MLOAD PUSH3 0x461BCD PUSH1 0xE5 SHL DUP2 MSTORE PUSH1 0x20 PUSH1 0x4 DUP3 ADD MSTORE PUSH1 0x10 PUSH1 0x24 DUP3 ADD MSTORE PUSH16 0x4F72646572206E6F7420616374697665 PUSH1 0x80 SHL PUSH1 0x44 DUP3 ADD MSTORE PUSH1 0x64 ADD PUSH2 0x6D7 JUMP JUMPDEST PUSH2 0x15F3 DUP4 PUSH2 0x18AC JUMP JUMPDEST PUSH2 0x1633 JUMPI PUSH1 0x40 MLOAD PUSH3 0x461BCD PUSH1 0xE5 SHL DUP2 MSTORE PUSH1 0x20 PUSH1 0x4 DUP3 ADD MSTORE PUSH1 0x11 PUSH1 0x24 DUP3 ADD MSTORE PUSH17 0x13DC99195C881B9BDD08195E1C1A5C9959 PUSH1 0x7A SHL PUSH1 0x44 DUP3 ADD MSTORE PUSH1 0x64 ADD PUSH2 0x6D7 JUMP JUMPDEST PUSH1 0x7 DUP2 ADD DUP1 SLOAD PUSH1 0xFF NOT AND PUSH1 0x3 OR SWAP1 SSTORE PUSH1 0x1 DUP1 DUP3 ADD SLOAD PUSH1 0xFF PUSH1 0x1 PUSH1 0xA0 SHL SWAP1 SWAP2 DIV AND DUP2 DUP2 GT ISZERO PUSH2 0x1663 JUMPI PUSH2 0x1663 PUSH2 0x32F5 JUMP JUMPDEST SUB PUSH2 0x16A9 JUMPI PUSH1 0x0 DUP2 PUSH1 0x5 ADD SLOAD DUP3 PUSH1 0x3 ADD SLOAD PUSH2 0x167E SWAP2 SWAP1 PUSH2 0x35C4 JUMP JUMPDEST SWAP1 POP DUP1 ISZERO PUSH2 0x16A7 JUMPI PUSH1 0x1 DUP3 ADD SLOAD PUSH1 0x2 DUP4 ADD SLOAD PUSH2 0x16A7 SWAP2 PUSH1 0x1 PUSH1 0x1 PUSH1 0xA0 SHL SUB SWAP2 DUP3 AND SWAP2 AND DUP4 PUSH2 0x27CE JUMP JUMPDEST POP JUMPDEST PUSH1 0x0 PUSH1 0x1 DUP3 DUP2 ADD SLOAD PUSH1 0x1 PUSH1 0xA0 SHL SWAP1 DIV PUSH1 0xFF AND SWAP1 DUP2 GT ISZERO PUSH2 0x16CB JUMPI PUSH2 0x16CB PUSH2 0x32F5 JUMP JUMPDEST SUB PUSH2 0x1876 JUMPI PUSH1 0x0 DUP2 PUSH1 0x5 ADD SLOAD DUP3 PUSH1 0x3 ADD SLOAD PUSH2 0x16E6 SWAP2 SWAP1 PUSH2 0x35C4 JUMP JUMPDEST SWAP1 POP DUP1 ISZERO PUSH2 0x1874 JUMPI PUSH1 0x0 PUSH8 0xDE0B6B3A7640000 DUP4 PUSH1 0x4 ADD SLOAD DUP4 PUSH2 0x1709 SWAP2 SWAP1 PUSH2 0x3520 JUMP JUMPDEST PUSH2 0x1713 SWAP2 SWAP1 PUSH2 0x353D JUMP JUMPDEST SWAP1 POP PUSH1 0x0 PUSH2 0x2710 PUSH1 0x3 SLOAD DUP4 PUSH2 0x1728 SWAP2 SWAP1 PUSH2 0x3520 JUMP JUMPDEST PUSH2 0x1732 SWAP2 SWAP1 PUSH2 0x353D JUMP JUMPDEST SWAP1 POP PUSH1 0x0 PUSH2 0x1740 DUP3 DUP5 PUSH2 0x355F JUMP JUMPDEST SWAP1 POP PUSH1 0x0 PUSH1 0x4 SLOAD DUP4 GT PUSH2 0x1753 JUMPI DUP3 PUSH2 0x1757 JUMP JUMPDEST PUSH1 0x4 SLOAD JUMPDEST SWAP1 POP DUP1 PUSH1 0x4 PUSH1 0x0 DUP3 DUP3 SLOAD PUSH2 0x176B SWAP2 SWAP1 PUSH2 0x35C4 JUMP JUMPDEST SWAP1 SWAP2 SSTORE POP POP DUP3 DUP2 LT ISZERO PUSH2 0x1785 JUMPI PUSH2 0x1782 DUP2 DUP6 PUSH2 0x355F JUMP JUMPDEST SWAP2 POP JUMPDEST DUP2 SELFBALANCE LT ISZERO PUSH2 0x17D5 JUMPI PUSH1 0x40 MLOAD PUSH3 0x461BCD PUSH1 0xE5 SHL DUP2 MSTORE PUSH1 0x20 PUSH1 0x4 DUP3 ADD MSTORE PUSH1 0x1C PUSH1 0x24 DUP3 ADD MSTORE PUSH32 0x496E73756666696369656E742045544820696E20636F6E747261637400000000 PUSH1 0x44 DUP3 ADD MSTORE PUSH1 0x64 ADD PUSH2 0x6D7 JUMP JUMPDEST PUSH1 0x1 DUP7 ADD SLOAD PUSH1 0x40 MLOAD PUSH1 0x0 SWAP2 PUSH1 0x1 PUSH1 0x1 PUSH1 0xA0 SHL SUB AND SWAP1 DUP5 SWAP1 DUP4 DUP2 DUP2 DUP2 DUP6 DUP8 GAS CALL SWAP3 POP POP POP RETURNDATASIZE DUP1 PUSH1 0x0 DUP2 EQ PUSH2 0x1824 JUMPI PUSH1 0x40 MLOAD SWAP2 POP PUSH1 0x1F NOT PUSH1 0x3F RETURNDATASIZE ADD AND DUP3 ADD PUSH1 0x40 MSTORE RETURNDATASIZE DUP3 MSTORE RETURNDATASIZE PUSH1 0x0 PUSH1 0x20 DUP5 ADD RETURNDATACOPY PUSH2 0x1829 JUMP JUMPDEST PUSH1 0x60 SWAP2 POP JUMPDEST POP POP SWAP1 POP DUP1 PUSH2 0x186E JUMPI PUSH1 0x40 MLOAD PUSH3 0x461BCD PUSH1 0xE5 SHL DUP2 MSTORE PUSH1 0x20 PUSH1 0x4 DUP3 ADD MSTORE PUSH1 0x11 PUSH1 0x24 DUP3 ADD MSTORE PUSH17 0x115512081C99599D5B990819985A5B1959 PUSH1 0x7A SHL PUSH1 0x44 DUP3 ADD MSTORE PUSH1 0x64 ADD PUSH2 0x6D7 JUMP JUMPDEST POP POP POP POP POP JUMPDEST POP JUMPDEST PUSH1 0x40 MLOAD DUP4 SWAP1 PUSH32 0x1AD308DC7017610C82D08084545F7176DF5E2F08F078C3C8F8926CD7E5555514 SWAP1 PUSH1 0x0 SWAP1 LOG2 POP POP PUSH2 0x153E PUSH1 0x1 DUP1 SSTORE JUMP JUMPDEST PUSH1 0x0 DUP2 DUP2 MSTORE PUSH1 0x5 PUSH1 0x20 MSTORE PUSH1 0x40 DUP2 KECCAK256 PUSH1 0x1 ADD SLOAD DUP3 SWAP1 PUSH1 0x1 PUSH1 0x1 PUSH1 0xA0 SHL SUB AND PUSH2 0x18E5 JUMPI PUSH1 0x40 MLOAD PUSH3 0x461BCD PUSH1 0xE5 SHL DUP2 MSTORE PUSH1 0x4 ADD PUSH2 0x6D7 SWAP1 PUSH2 0x366F JUMP JUMPDEST POP POP PUSH1 0x0 SWAP1 DUP2 MSTORE PUSH1 0x5 PUSH1 0x20 MSTORE PUSH1 0x40 SWAP1 KECCAK256 PUSH1 0x6 ADD SLOAD TIMESTAMP GT SWAP1 JUMP JUMPDEST PUSH2 0x1906 PUSH2 0x20FB JUMP JUMPDEST PUSH2 0x1910 PUSH1 0x0 PUSH2 0x27FF JUMP JUMPDEST JUMP JUMPDEST PUSH2 0x191A PUSH2 0x20FB JUMP JUMPDEST PUSH1 0xC DUP2 SWAP1 SSTORE PUSH1 0x40 MLOAD DUP2 DUP2 MSTORE PUSH32 0x5829309FA85E85A75B744B2B1AE6B2913B3D2A9C94DF75A5B61DE31F962256BE SWAP1 PUSH1 0x20 ADD PUSH1 0x40 MLOAD DUP1 SWAP2 SUB SWAP1 LOG1 POP JUMP JUMPDEST PUSH2 0x195D PUSH2 0x2000 JUMP JUMPDEST CALLER PUSH1 0x0 SWAP1 DUP2 MSTORE PUSH1 0x9 PUSH1 0x20 MSTORE PUSH1 0x40 SWAP1 KECCAK256 SLOAD PUSH1 0xFF AND PUSH2 0x19B8 JUMPI PUSH1 0x40 MLOAD PUSH3 0x461BCD PUSH1 0xE5 SHL DUP2 MSTORE PUSH1 0x20 PUSH1 0x4 DUP3 ADD MSTORE PUSH1 0x19 PUSH1 0x24 DUP3 ADD MSTORE PUSH25 0x10D85B1B195C881A5CC81B9BDD081DDA1A5D195B1A5CDD1959 PUSH1 0x3A SHL PUSH1 0x44 DUP3 ADD MSTORE PUSH1 0x64 ADD PUSH2 0x6D7 JUMP JUMPDEST DUP1 PUSH2 0x1A05 JUMPI PUSH1 0x40 MLOAD PUSH3 0x461BCD PUSH1 0xE5 SHL DUP2 MSTORE PUSH1 0x20 PUSH1 0x4 DUP3 ADD MSTORE PUSH1 0x1B PUSH1 0x24 DUP3 ADD MSTORE PUSH32 0x4E6F206F72646572206D61746368657320746F2066756C66696C6C0000000000 PUSH1 0x44 DUP3 ADD MSTORE PUSH1 0x64 ADD PUSH2 0x6D7 JUMP JUMPDEST PUSH1 0x0 JUMPDEST DUP2 DUP2 LT ISZERO PUSH2 0x1A48 JUMPI PUSH2 0x1A40 DUP4 DUP4 DUP4 DUP2 DUP2 LT PUSH2 0x1A25 JUMPI PUSH2 0x1A25 PUSH2 0x35ED JUMP JUMPDEST SWAP1 POP PUSH1 0x60 MUL ADD DUP1 CALLDATASIZE SUB DUP2 ADD SWAP1 PUSH2 0x1A3B SWAP2 SWAP1 PUSH2 0x3603 JUMP JUMPDEST PUSH2 0x284F JUMP JUMPDEST PUSH1 0x1 ADD PUSH2 0x1A08 JUMP JUMPDEST POP PUSH2 0x1A52 PUSH1 0x1 DUP1 SSTORE JUMP JUMPDEST POP POP JUMP JUMPDEST PUSH2 0x1A5E PUSH2 0x20FB JUMP JUMPDEST PUSH2 0x1F4 DUP2 GT ISZERO PUSH2 0x1AB0 JUMPI PUSH1 0x40 MLOAD PUSH3 0x461BCD PUSH1 0xE5 SHL DUP2 MSTORE PUSH1 0x20 PUSH1 0x4 DUP3 ADD MSTORE PUSH1 0x17 PUSH1 0x24 DUP3 ADD MSTORE PUSH32 0x4665652070657263656E7461676520746F6F2068696768000000000000000000 PUSH1 0x44 DUP3 ADD MSTORE PUSH1 0x64 ADD PUSH2 0x6D7 JUMP JUMPDEST PUSH1 0x3 DUP1 SLOAD SWAP1 DUP3 SWAP1 SSTORE PUSH1 0x40 DUP1 MLOAD DUP3 DUP2 MSTORE PUSH1 0x20 DUP2 ADD DUP5 SWAP1 MSTORE PUSH32 0xB27C12A91635E11C22BFFA7BD8E0A8735DA52B94AAEFD7F249776C7590BA7894 SWAP2 ADD PUSH2 0xD0D JUMP JUMPDEST PUSH1 0x60 PUSH1 0x0 PUSH2 0x1AFD DUP8 DUP8 DUP8 PUSH2 0x2128 JUMP JUMPDEST PUSH1 0x0 DUP2 DUP2 MSTORE PUSH1 0x6 PUSH1 0x20 MSTORE PUSH1 0x40 DUP2 KECCAK256 SLOAD SWAP2 SWAP3 POP DUP5 PUSH8 0xFFFFFFFFFFFFFFFF DUP2 GT ISZERO PUSH2 0x1B28 JUMPI PUSH2 0x1B28 PUSH2 0x35D7 JUMP JUMPDEST PUSH1 0x40 MLOAD SWAP1 DUP1 DUP3 MSTORE DUP1 PUSH1 0x20 MUL PUSH1 0x20 ADD DUP3 ADD PUSH1 0x40 MSTORE DUP1 ISZERO PUSH2 0x1B51 JUMPI DUP2 PUSH1 0x20 ADD PUSH1 0x20 DUP3 MUL DUP1 CALLDATASIZE DUP4 CALLDATACOPY ADD SWAP1 POP JUMPDEST POP SWAP1 POP PUSH1 0x0 DUP7 JUMPDEST DUP4 DUP2 LT DUP1 ISZERO PUSH2 0x1B66 JUMPI POP DUP7 DUP3 LT JUMPDEST ISZERO PUSH2 0x1C03 JUMPI PUSH1 0x0 DUP6 DUP2 MSTORE PUSH1 0x7 PUSH1 0x20 SWAP1 DUP2 MSTORE PUSH1 0x40 DUP1 DUP4 KECCAK256 DUP5 DUP5 MSTORE SWAP1 SWAP2 MSTORE DUP2 KECCAK256 SLOAD SWAP1 PUSH1 0x0 DUP3 DUP2 MSTORE PUSH1 0x5 PUSH1 0x20 MSTORE PUSH1 0x40 SWAP1 KECCAK256 PUSH1 0x7 ADD SLOAD PUSH1 0xFF AND PUSH1 0x3 DUP2 GT ISZERO PUSH2 0x1BAC JUMPI PUSH2 0x1BAC PUSH2 0x32F5 JUMP JUMPDEST EQ DUP1 ISZERO PUSH2 0x1BBF JUMPI POP PUSH2 0x1BBD DUP2 PUSH2 0x18AC JUMP JUMPDEST ISZERO JUMPDEST ISZERO PUSH2 0x1BF0 JUMPI DUP1 DUP5 DUP5 DUP2 MLOAD DUP2 LT PUSH2 0x1BD7 JUMPI PUSH2 0x1BD7 PUSH2 0x35ED JUMP JUMPDEST PUSH1 0x20 SWAP1 DUP2 MUL SWAP2 SWAP1 SWAP2 ADD ADD MSTORE DUP3 PUSH2 0x1BEC DUP2 PUSH2 0x3507 JUMP JUMPDEST SWAP4 POP POP JUMPDEST POP DUP1 PUSH2 0x1BFB DUP2 PUSH2 0x3507 JUMP JUMPDEST SWAP2 POP POP PUSH2 0x1B58 JUMP JUMPDEST POP PUSH1 0x0 DUP2 PUSH8 0xFFFFFFFFFFFFFFFF DUP2 GT ISZERO PUSH2 0x1C1F JUMPI PUSH2 0x1C1F PUSH2 0x35D7 JUMP JUMPDEST PUSH1 0x40 MLOAD SWAP1 DUP1 DUP3 MSTORE DUP1 PUSH1 0x20 MUL PUSH1 0x20 ADD DUP3 ADD PUSH1 0x40 MSTORE DUP1 ISZERO PUSH2 0x1C48 JUMPI DUP2 PUSH1 0x20 ADD PUSH1 0x20 DUP3 MUL DUP1 CALLDATASIZE DUP4 CALLDATACOPY ADD SWAP1 POP JUMPDEST POP SWAP1 POP PUSH1 0x0 JUMPDEST DUP3 DUP2 LT ISZERO PUSH2 0x1C95 JUMPI DUP4 DUP2 DUP2 MLOAD DUP2 LT PUSH2 0x1C68 JUMPI PUSH2 0x1C68 PUSH2 0x35ED JUMP JUMPDEST PUSH1 0x20 MUL PUSH1 0x20 ADD ADD MLOAD DUP3 DUP3 DUP2 MLOAD DUP2 LT PUSH2 0x1C82 JUMPI PUSH2 0x1C82 PUSH2 0x35ED JUMP JUMPDEST PUSH1 0x20 SWAP1 DUP2 MUL SWAP2 SWAP1 SWAP2 ADD ADD MSTORE PUSH1 0x1 ADD PUSH2 0x1C4E JUMP JUMPDEST POP SWAP11 SWAP10 POP POP POP POP POP POP POP POP POP POP JUMP JUMPDEST PUSH2 0x1CAC PUSH2 0x2FA5 JUMP JUMPDEST PUSH1 0x0 DUP3 DUP2 MSTORE PUSH1 0x5 PUSH1 0x20 MSTORE PUSH1 0x40 SWAP1 KECCAK256 PUSH1 0x1 ADD SLOAD DUP3 SWAP1 PUSH1 0x1 PUSH1 0x1 PUSH1 0xA0 SHL SUB AND PUSH2 0x1CE5 JUMPI PUSH1 0x40 MLOAD PUSH3 0x461BCD PUSH1 0xE5 SHL DUP2 MSTORE PUSH1 0x4 ADD PUSH2 0x6D7 SWAP1 PUSH2 0x366F JUMP JUMPDEST PUSH1 0x0 DUP4 DUP2 MSTORE PUSH1 0x5 PUSH1 0x20 SWAP1 DUP2 MSTORE PUSH1 0x40 SWAP2 DUP3 SWAP1 KECCAK256 DUP3 MLOAD PUSH2 0x140 DUP2 ADD DUP5 MSTORE DUP2 SLOAD DUP2 MSTORE PUSH1 0x1 DUP1 DUP4 ADD SLOAD PUSH1 0x1 PUSH1 0x1 PUSH1 0xA0 SHL SUB DUP2 AND SWAP5 DUP4 ADD SWAP5 SWAP1 SWAP5 MSTORE SWAP1 SWAP4 SWAP2 SWAP3 SWAP2 DUP5 ADD SWAP2 PUSH1 0x1 PUSH1 0xA0 SHL SWAP1 DIV PUSH1 0xFF AND SWAP1 DUP2 GT ISZERO PUSH2 0x1D3D JUMPI PUSH2 0x1D3D PUSH2 0x32F5 JUMP JUMPDEST PUSH1 0x1 DUP2 GT ISZERO PUSH2 0x1D4E JUMPI PUSH2 0x1D4E PUSH2 0x32F5 JUMP JUMPDEST DUP2 MSTORE PUSH1 0x20 ADD PUSH1 0x1 DUP3 ADD PUSH1 0x15 SWAP1 SLOAD SWAP1 PUSH2 0x100 EXP SWAP1 DIV PUSH1 0xFF AND PUSH1 0x1 DUP2 GT ISZERO PUSH2 0x1D76 JUMPI PUSH2 0x1D76 PUSH2 0x32F5 JUMP JUMPDEST PUSH1 0x1 DUP2 GT ISZERO PUSH2 0x1D87 JUMPI PUSH2 0x1D87 PUSH2 0x32F5 JUMP JUMPDEST DUP2 MSTORE PUSH1 0x2 DUP3 ADD SLOAD PUSH1 0x1 PUSH1 0x1 PUSH1 0xA0 SHL SUB AND PUSH1 0x20 DUP3 ADD MSTORE PUSH1 0x3 DUP1 DUP4 ADD SLOAD PUSH1 0x40 DUP4 ADD MSTORE PUSH1 0x4 DUP4 ADD SLOAD PUSH1 0x60 DUP4 ADD MSTORE PUSH1 0x5 DUP4 ADD SLOAD PUSH1 0x80 DUP4 ADD MSTORE PUSH1 0x6 DUP4 ADD SLOAD PUSH1 0xA0 DUP4 ADD MSTORE PUSH1 0x7 DUP4 ADD SLOAD PUSH1 0xC0 SWAP1 SWAP3 ADD SWAP2 PUSH1 0xFF AND SWAP1 DUP2 GT ISZERO PUSH2 0x1DE3 JUMPI PUSH2 0x1DE3 PUSH2 0x32F5 JUMP JUMPDEST PUSH1 0x3 DUP2 GT ISZERO PUSH2 0x1DF4 JUMPI PUSH2 0x1DF4 PUSH2 0x32F5 JUMP JUMPDEST SWAP1 MSTORE POP SWAP4 SWAP3 POP POP POP JUMP JUMPDEST PUSH2 0x1E06 PUSH2 0x20FB JUMP JUMPDEST PUSH1 0x1 PUSH1 0x1 PUSH1 0xA0 SHL SUB DUP3 AND PUSH2 0x1E50 JUMPI PUSH1 0x40 MLOAD PUSH3 0x461BCD PUSH1 0xE5 SHL DUP2 MSTORE PUSH1 0x20 PUSH1 0x4 DUP3 ADD MSTORE PUSH1 0x11 PUSH1 0x24 DUP3 ADD MSTORE PUSH17 0x125B9D985B1A59081C9958DA5C1A595B9D PUSH1 0x7A SHL PUSH1 0x44 DUP3 ADD MSTORE PUSH1 0x64 ADD PUSH2 0x6D7 JUMP JUMPDEST PUSH1 0x1 PUSH1 0x1 PUSH1 0xA0 SHL SUB DUP4 AND PUSH2 0x1F47 JUMPI SELFBALANCE DUP2 GT ISZERO PUSH2 0x1EAE JUMPI PUSH1 0x40 MLOAD PUSH3 0x461BCD PUSH1 0xE5 SHL DUP2 MSTORE PUSH1 0x20 PUSH1 0x4 DUP3 ADD MSTORE PUSH1 0x18 PUSH1 0x24 DUP3 ADD MSTORE PUSH32 0x496E73756666696369656E74204554482062616C616E63650000000000000000 PUSH1 0x44 DUP3 ADD MSTORE PUSH1 0x64 ADD PUSH2 0x6D7 JUMP JUMPDEST PUSH1 0x0 DUP3 PUSH1 0x1 PUSH1 0x1 PUSH1 0xA0 SHL SUB AND DUP3 PUSH1 0x40 MLOAD PUSH1 0x0 PUSH1 0x40 MLOAD DUP1 DUP4 SUB DUP2 DUP6 DUP8 GAS CALL SWAP3 POP POP POP RETURNDATASIZE DUP1 PUSH1 0x0 DUP2 EQ PUSH2 0x1EFB JUMPI PUSH1 0x40 MLOAD SWAP2 POP PUSH1 0x1F NOT PUSH1 0x3F RETURNDATASIZE ADD AND DUP3 ADD PUSH1 0x40 MSTORE RETURNDATASIZE DUP3 MSTORE RETURNDATASIZE PUSH1 0x0 PUSH1 0x20 DUP5 ADD RETURNDATACOPY PUSH2 0x1F00 JUMP JUMPDEST PUSH1 0x60 SWAP2 POP JUMPDEST POP POP SWAP1 POP DUP1 PUSH2 0x1190 JUMPI PUSH1 0x40 MLOAD PUSH3 0x461BCD PUSH1 0xE5 SHL DUP2 MSTORE PUSH1 0x20 PUSH1 0x4 DUP3 ADD MSTORE PUSH1 0x13 PUSH1 0x24 DUP3 ADD MSTORE PUSH19 0x115512081D1C985B9CD9995C8819985A5B1959 PUSH1 0x6A SHL PUSH1 0x44 DUP3 ADD MSTORE PUSH1 0x64 ADD PUSH2 0x6D7 JUMP JUMPDEST PUSH2 0x1F5B PUSH1 0x1 PUSH1 0x1 PUSH1 0xA0 SHL SUB DUP5 AND DUP4 DUP4 PUSH2 0x27CE JUMP JUMPDEST POP POP POP JUMP JUMPDEST PUSH2 0x1F68 PUSH2 0x20FB JUMP JUMPDEST PUSH1 0x1 PUSH1 0x1 PUSH1 0xA0 SHL SUB DUP2 AND PUSH2 0x1F92 JUMPI PUSH1 0x40 MLOAD PUSH4 0x1E4FBDF7 PUSH1 0xE0 SHL DUP2 MSTORE PUSH1 0x0 PUSH1 0x4 DUP3 ADD MSTORE PUSH1 0x24 ADD PUSH2 0x6D7 JUMP JUMPDEST PUSH2 0x153E DUP2 PUSH2 0x27FF JUMP JUMPDEST PUSH1 0x0 DUP2 DUP2 MSTORE PUSH1 0x5 PUSH1 0x20 MSTORE PUSH1 0x40 DUP2 KECCAK256 PUSH1 0x1 ADD SLOAD DUP3 SWAP1 PUSH1 0x1 PUSH1 0x1 PUSH1 0xA0 SHL SUB AND PUSH2 0x1FD4 JUMPI PUSH1 0x40 MLOAD PUSH3 0x461BCD PUSH1 0xE5 SHL DUP2 MSTORE PUSH1 0x4 ADD PUSH2 0x6D7 SWAP1 PUSH2 0x366F JUMP JUMPDEST PUSH1 0x0 DUP4 DUP2 MSTORE PUSH1 0x5 PUSH1 0x20 DUP2 SWAP1 MSTORE PUSH1 0x40 SWAP1 SWAP2 KECCAK256 SWAP1 DUP2 ADD SLOAD PUSH1 0x3 DUP3 ADD SLOAD PUSH2 0x1FF8 SWAP2 SWAP1 PUSH2 0x35C4 JUMP JUMPDEST SWAP5 SWAP4 POP POP POP POP JUMP JUMPDEST PUSH1 0x2 PUSH1 0x1 SLOAD SUB PUSH2 0x2023 JUMPI PUSH1 0x40 MLOAD PUSH4 0x3EE5AEB5 PUSH1 0xE0 SHL DUP2 MSTORE PUSH1 0x4 ADD PUSH1 0x40 MLOAD DUP1 SWAP2 SUB SWAP1 REVERT JUMPDEST PUSH1 0x2 PUSH1 0x1 SSTORE JUMP JUMPDEST PUSH1 0x40 MLOAD PUSH1 0x1 PUSH1 0x1 PUSH1 0xA0 SHL SUB DUP5 DUP2 AND PUSH1 0x24 DUP4 ADD MSTORE DUP4 DUP2 AND PUSH1 0x44 DUP4 ADD MSTORE PUSH1 0x64 DUP3 ADD DUP4 SWAP1 MSTORE PUSH2 0x1190 SWAP2 DUP7 SWAP2 DUP3 AND SWAP1 PUSH4 0x23B872DD SWAP1 PUSH1 0x84 ADD JUMPDEST PUSH1 0x40 MLOAD PUSH1 0x20 DUP2 DUP4 SUB SUB DUP2 MSTORE SWAP1 PUSH1 0x40 MSTORE SWAP2 POP PUSH1 0xE0 SHL PUSH1 0x20 DUP3 ADD DUP1 MLOAD PUSH1 0x1 PUSH1 0x1 PUSH1 0xE0 SHL SUB DUP4 DUP2 DUP4 AND OR DUP4 MSTORE POP POP POP POP PUSH2 0x2EF6 JUMP JUMPDEST PUSH1 0x0 PUSH2 0x209E DUP5 DUP5 DUP5 PUSH2 0x2128 JUMP JUMPDEST PUSH1 0x0 DUP2 DUP2 MSTORE PUSH1 0x6 PUSH1 0x20 DUP2 DUP2 MSTORE PUSH1 0x40 DUP1 DUP5 KECCAK256 DUP1 SLOAD DUP12 DUP7 MSTORE PUSH1 0x8 DUP5 MSTORE DUP3 DUP7 KECCAK256 DUP2 SWAP1 SSTORE DUP7 DUP7 MSTORE PUSH1 0x7 DUP5 MSTORE DUP3 DUP7 KECCAK256 SWAP1 DUP7 MSTORE DUP4 MSTORE SWAP1 DUP5 KECCAK256 DUP11 SWAP1 SSTORE DUP5 DUP5 MSTORE SWAP2 SWAP1 MSTORE DUP1 SLOAD SWAP3 SWAP4 POP PUSH1 0x1 SWAP3 SWAP1 SWAP2 SWAP1 PUSH2 0x20EF SWAP1 DUP5 SWAP1 PUSH2 0x355F JUMP JUMPDEST SWAP1 SWAP2 SSTORE POP POP POP POP POP POP POP JUMP JUMPDEST PUSH1 0x0 SLOAD PUSH1 0x1 PUSH1 0x1 PUSH1 0xA0 SHL SUB AND CALLER EQ PUSH2 0x1910 JUMPI PUSH1 0x40 MLOAD PUSH4 0x118CDAA7 PUSH1 0xE0 SHL DUP2 MSTORE CALLER PUSH1 0x4 DUP3 ADD MSTORE PUSH1 0x24 ADD PUSH2 0x6D7 JUMP JUMPDEST PUSH1 0x0 DUP4 DUP4 DUP4 PUSH1 0x40 MLOAD PUSH1 0x20 ADD PUSH2 0x213F SWAP4 SWAP3 SWAP2 SWAP1 PUSH2 0x369D JUMP JUMPDEST PUSH1 0x40 MLOAD PUSH1 0x20 DUP2 DUP4 SUB SUB DUP2 MSTORE SWAP1 PUSH1 0x40 MSTORE DUP1 MLOAD SWAP1 PUSH1 0x20 ADD KECCAK256 SWAP1 POP SWAP4 SWAP3 POP POP POP JUMP JUMPDEST DUP2 MLOAD PUSH1 0x0 SWAP1 DUP2 MSTORE PUSH1 0x5 PUSH1 0x20 SWAP1 DUP2 MSTORE PUSH1 0x40 DUP1 DUP4 KECCAK256 SWAP2 DUP6 ADD MLOAD DUP4 MSTORE DUP3 KECCAK256 SWAP1 SWAP2 PUSH1 0x7 DUP4 ADD SLOAD PUSH1 0xFF AND PUSH1 0x3 DUP2 GT ISZERO PUSH2 0x2194 JUMPI PUSH2 0x2194 PUSH2 0x32F5 JUMP JUMPDEST EQ DUP1 ISZERO PUSH2 0x21B9 JUMPI POP PUSH1 0x0 PUSH1 0x7 DUP3 ADD SLOAD PUSH1 0xFF AND PUSH1 0x3 DUP2 GT ISZERO PUSH2 0x21B7 JUMPI PUSH2 0x21B7 PUSH2 0x32F5 JUMP JUMPDEST EQ JUMPDEST PUSH2 0x21FD JUMPI PUSH1 0x40 MLOAD PUSH3 0x461BCD PUSH1 0xE5 SHL DUP2 MSTORE PUSH1 0x20 PUSH1 0x4 DUP3 ADD MSTORE PUSH1 0x15 PUSH1 0x24 DUP3 ADD MSTORE PUSH21 0x4F7264657273206D75737420626520616374697665 PUSH1 0x58 SHL PUSH1 0x44 DUP3 ADD MSTORE PUSH1 0x64 ADD PUSH2 0x6D7 JUMP JUMPDEST DUP4 MLOAD PUSH2 0x2208 SWAP1 PUSH2 0x18AC JUMP JUMPDEST ISZERO DUP1 ISZERO PUSH2 0x221F JUMPI POP PUSH2 0x221D DUP5 PUSH1 0x20 ADD MLOAD PUSH2 0x18AC JUMP JUMPDEST ISZERO JUMPDEST PUSH2 0x225C JUMPI PUSH1 0x40 MLOAD PUSH3 0x461BCD PUSH1 0xE5 SHL DUP2 MSTORE PUSH1 0x20 PUSH1 0x4 DUP3 ADD MSTORE PUSH1 0xE PUSH1 0x24 DUP3 ADD MSTORE PUSH14 0x13DC99195C9CC8195E1C1A5C9959 PUSH1 0x92 SHL PUSH1 0x44 DUP3 ADD MSTORE PUSH1 0x64 ADD PUSH2 0x6D7 JUMP JUMPDEST PUSH1 0x0 PUSH1 0x1 DUP4 DUP2 ADD SLOAD PUSH1 0x1 PUSH1 0xA0 SHL SWAP1 DIV PUSH1 0xFF AND SWAP1 DUP2 GT ISZERO PUSH2 0x227E JUMPI PUSH2 0x227E PUSH2 0x32F5 JUMP JUMPDEST EQ DUP1 ISZERO PUSH2 0x22A9 JUMPI POP PUSH1 0x1 DUP1 DUP3 DUP2 ADD SLOAD PUSH1 0x1 PUSH1 0xA0 SHL SWAP1 DIV PUSH1 0xFF AND SWAP1 DUP2 GT ISZERO PUSH2 0x22A7 JUMPI PUSH2 0x22A7 PUSH2 0x32F5 JUMP JUMPDEST EQ JUMPDEST PUSH2 0x22EB JUMPI PUSH1 0x40 MLOAD PUSH3 0x461BCD PUSH1 0xE5 SHL DUP2 MSTORE PUSH1 0x20 PUSH1 0x4 DUP3 ADD MSTORE PUSH1 0x13 PUSH1 0x24 DUP3 ADD MSTORE PUSH19 0x496E76616C6964206F72646572207479706573 PUSH1 0x68 SHL PUSH1 0x44 DUP3 ADD MSTORE PUSH1 0x64 ADD PUSH2 0x6D7 JUMP JUMPDEST PUSH1 0x2 DUP1 DUP3 ADD SLOAD SWAP1 DUP4 ADD SLOAD PUSH1 0x1 PUSH1 0x1 PUSH1 0xA0 SHL SUB SWAP1 DUP2 AND SWAP2 AND EQ PUSH2 0x2340 JUMPI PUSH1 0x40 MLOAD PUSH3 0x461BCD PUSH1 0xE5 SHL DUP2 MSTORE PUSH1 0x20 PUSH1 0x4 DUP3 ADD MSTORE PUSH1 0xE PUSH1 0x24 DUP3 ADD MSTORE PUSH14 0xA8DED6CADC40DAD2E6DAC2E8C6D PUSH1 0x93 SHL PUSH1 0x44 DUP3 ADD MSTORE PUSH1 0x64 ADD PUSH2 0x6D7 JUMP JUMPDEST PUSH1 0x1 DUP1 DUP4 DUP2 ADD SLOAD PUSH1 0x1 PUSH1 0xA8 SHL SWAP1 DIV PUSH1 0xFF AND SWAP1 DUP2 GT ISZERO PUSH2 0x2361 JUMPI PUSH2 0x2361 PUSH2 0x32F5 JUMP JUMPDEST EQ DUP1 PUSH2 0x238B JUMPI POP PUSH1 0x1 DUP1 DUP3 DUP2 ADD SLOAD PUSH1 0x1 PUSH1 0xA8 SHL SWAP1 DIV PUSH1 0xFF AND SWAP1 DUP2 GT ISZERO PUSH2 0x2389 JUMPI PUSH2 0x2389 PUSH2 0x32F5 JUMP JUMPDEST EQ JUMPDEST PUSH2 0x23CB JUMPI PUSH1 0x40 MLOAD PUSH3 0x461BCD PUSH1 0xE5 SHL DUP2 MSTORE PUSH1 0x20 PUSH1 0x4 DUP3 ADD MSTORE PUSH1 0x11 PUSH1 0x24 DUP3 ADD MSTORE PUSH17 0x4E6F74206D61726B6574206F7264657273 PUSH1 0x78 SHL PUSH1 0x44 DUP3 ADD MSTORE PUSH1 0x64 ADD PUSH2 0x6D7 JUMP JUMPDEST PUSH1 0x1 DUP1 DUP4 DUP2 ADD SLOAD PUSH1 0x1 PUSH1 0xA8 SHL SWAP1 DIV PUSH1 0xFF AND SWAP1 DUP2 GT ISZERO PUSH2 0x23EC JUMPI PUSH2 0x23EC PUSH2 0x32F5 JUMP JUMPDEST SUB PUSH2 0x2457 JUMPI DUP2 PUSH1 0x4 ADD SLOAD DUP4 GT ISZERO PUSH2 0x2457 JUMPI PUSH1 0x40 MLOAD PUSH3 0x461BCD PUSH1 0xE5 SHL DUP2 MSTORE PUSH1 0x20 PUSH1 0x4 DUP3 ADD MSTORE PUSH1 0x29 PUSH1 0x24 DUP3 ADD MSTORE PUSH32 0x457865637574696F6E2070726963652065786365656473206275796572277320 PUSH1 0x44 DUP3 ADD MSTORE PUSH9 0x6D6178207072696365 PUSH1 0xB8 SHL PUSH1 0x64 DUP3 ADD MSTORE PUSH1 0x84 ADD PUSH2 0x6D7 JUMP JUMPDEST PUSH1 0x1 DUP1 DUP3 DUP2 ADD SLOAD PUSH1 0x1 PUSH1 0xA8 SHL SWAP1 DIV PUSH1 0xFF AND SWAP1 DUP2 GT ISZERO PUSH2 0x2478 JUMPI PUSH2 0x2478 PUSH2 0x32F5 JUMP JUMPDEST SUB PUSH2 0x24E2 JUMPI DUP1 PUSH1 0x4 ADD SLOAD DUP4 LT ISZERO PUSH2 0x24E2 JUMPI PUSH1 0x40 MLOAD PUSH3 0x461BCD PUSH1 0xE5 SHL DUP2 MSTORE PUSH1 0x20 PUSH1 0x4 DUP3 ADD MSTORE PUSH1 0x28 PUSH1 0x24 DUP3 ADD MSTORE PUSH32 0x457865637574696F6E2070726963652062656C6F772073656C6C65722773206D PUSH1 0x44 DUP3 ADD MSTORE PUSH8 0x696E207072696365 PUSH1 0xC0 SHL PUSH1 0x64 DUP3 ADD MSTORE PUSH1 0x84 ADD PUSH2 0x6D7 JUMP JUMPDEST PUSH1 0x0 DUP3 PUSH1 0x5 ADD SLOAD DUP4 PUSH1 0x3 ADD SLOAD PUSH2 0x24F8 SWAP2 SWAP1 PUSH2 0x35C4 JUMP JUMPDEST SWAP1 POP PUSH1 0x0 DUP3 PUSH1 0x5 ADD SLOAD DUP4 PUSH1 0x3 ADD SLOAD PUSH2 0x2510 SWAP2 SWAP1 PUSH2 0x35C4 JUMP JUMPDEST PUSH1 0x40 DUP8 ADD MLOAD SWAP1 SWAP2 POP DUP3 DUP2 GT ISZERO PUSH2 0x2523 JUMPI POP DUP2 JUMPDEST DUP2 DUP2 GT ISZERO PUSH2 0x252E JUMPI POP DUP1 JUMPDEST PUSH1 0x0 DUP2 GT PUSH2 0x2572 JUMPI PUSH1 0x40 MLOAD PUSH3 0x461BCD PUSH1 0xE5 SHL DUP2 MSTORE PUSH1 0x20 PUSH1 0x4 DUP3 ADD MSTORE PUSH1 0x11 PUSH1 0x24 DUP3 ADD MSTORE PUSH17 0x139BC8185B5BDD5B9D081D1BC8199A5B1B PUSH1 0x7A SHL PUSH1 0x44 DUP3 ADD MSTORE PUSH1 0x64 ADD PUSH2 0x6D7 JUMP JUMPDEST DUP1 PUSH1 0x0 PUSH8 0xDE0B6B3A7640000 PUSH2 0x2588 DUP10 DUP5 PUSH2 0x3520 JUMP JUMPDEST PUSH2 0x2592 SWAP2 SWAP1 PUSH2 0x353D JUMP JUMPDEST SWAP1 POP PUSH1 0x0 PUSH2 0x259F DUP3 PUSH2 0x2F67 JUMP JUMPDEST SWAP1 POP PUSH1 0x0 PUSH2 0x25AD DUP3 DUP5 PUSH2 0x35C4 JUMP JUMPDEST PUSH1 0x1 DUP10 ADD SLOAD PUSH1 0x40 MLOAD SWAP2 SWAP3 POP PUSH1 0x0 SWAP2 PUSH1 0x1 PUSH1 0x1 PUSH1 0xA0 SHL SUB SWAP1 SWAP2 AND SWAP1 DUP4 SWAP1 DUP4 DUP2 DUP2 DUP2 DUP6 DUP8 GAS CALL SWAP3 POP POP POP RETURNDATASIZE DUP1 PUSH1 0x0 DUP2 EQ PUSH2 0x2601 JUMPI PUSH1 0x40 MLOAD SWAP2 POP PUSH1 0x1F NOT PUSH1 0x3F RETURNDATASIZE ADD AND DUP3 ADD PUSH1 0x40 MSTORE RETURNDATASIZE DUP3 MSTORE RETURNDATASIZE PUSH1 0x0 PUSH1 0x20 DUP5 ADD RETURNDATACOPY PUSH2 0x2606 JUMP JUMPDEST PUSH1 0x60 SWAP2 POP JUMPDEST POP POP SWAP1 POP DUP1 PUSH2 0x2657 JUMPI PUSH1 0x40 MLOAD PUSH3 0x461BCD PUSH1 0xE5 SHL DUP2 MSTORE PUSH1 0x20 PUSH1 0x4 DUP3 ADD MSTORE PUSH1 0x1D PUSH1 0x24 DUP3 ADD MSTORE PUSH32 0x455448207472616E7366657220746F2073656C6C6572206661696C6564000000 PUSH1 0x44 DUP3 ADD MSTORE PUSH1 0x64 ADD PUSH2 0x6D7 JUMP JUMPDEST PUSH1 0x1 DUP11 ADD SLOAD PUSH1 0x2 DUP11 ADD SLOAD PUSH2 0x2678 SWAP2 PUSH1 0x1 PUSH1 0x1 PUSH1 0xA0 SHL SUB SWAP2 DUP3 AND SWAP2 AND DUP8 PUSH2 0x27CE JUMP JUMPDEST DUP6 DUP11 PUSH1 0x5 ADD PUSH1 0x0 DUP3 DUP3 SLOAD PUSH2 0x268C SWAP2 SWAP1 PUSH2 0x355F JUMP JUMPDEST SWAP3 POP POP DUP2 SWAP1 SSTORE POP DUP6 DUP10 PUSH1 0x5 ADD PUSH1 0x0 DUP3 DUP3 SLOAD PUSH2 0x26A7 SWAP2 SWAP1 PUSH2 0x355F JUMP JUMPDEST SWAP1 SWAP2 SSTORE POP POP PUSH1 0x3 DUP11 ADD SLOAD PUSH1 0x5 DUP12 ADD SLOAD SUB PUSH2 0x26F2 JUMPI PUSH1 0x7 DUP11 ADD DUP1 SLOAD PUSH1 0xFF NOT AND PUSH1 0x1 OR SWAP1 SSTORE DUP12 MLOAD PUSH1 0x40 MLOAD DUP8 DUP2 MSTORE PUSH1 0x0 DUP1 MLOAD PUSH1 0x20 PUSH2 0x36E2 DUP4 CODECOPY DUP2 MLOAD SWAP2 MSTORE SWAP1 PUSH1 0x20 ADD PUSH1 0x40 MLOAD DUP1 SWAP2 SUB SWAP1 LOG2 PUSH2 0x2734 JUMP JUMPDEST DUP12 PUSH1 0x0 ADD MLOAD PUSH1 0x0 DUP1 MLOAD PUSH1 0x20 PUSH2 0x3702 DUP4 CODECOPY DUP2 MLOAD SWAP2 MSTORE DUP8 DUP13 PUSH1 0x5 ADD SLOAD DUP14 PUSH1 0x3 ADD SLOAD PUSH2 0x271B SWAP2 SWAP1 PUSH2 0x35C4 JUMP JUMPDEST PUSH1 0x40 DUP1 MLOAD SWAP3 DUP4 MSTORE PUSH1 0x20 DUP4 ADD SWAP2 SWAP1 SWAP2 MSTORE ADD PUSH1 0x40 MLOAD DUP1 SWAP2 SUB SWAP1 LOG2 JUMPDEST DUP9 PUSH1 0x3 ADD SLOAD DUP10 PUSH1 0x5 ADD SLOAD SUB PUSH2 0x277E JUMPI PUSH1 0x7 DUP10 ADD DUP1 SLOAD PUSH1 0xFF NOT AND PUSH1 0x1 OR SWAP1 SSTORE PUSH1 0x20 DUP1 DUP14 ADD MLOAD PUSH1 0x40 MLOAD DUP9 DUP2 MSTORE SWAP1 SWAP2 PUSH1 0x0 DUP1 MLOAD PUSH1 0x20 PUSH2 0x36E2 DUP4 CODECOPY DUP2 MLOAD SWAP2 MSTORE SWAP2 ADD PUSH1 0x40 MLOAD DUP1 SWAP2 SUB SWAP1 LOG2 PUSH2 0x27C0 JUMP JUMPDEST DUP12 PUSH1 0x20 ADD MLOAD PUSH1 0x0 DUP1 MLOAD PUSH1 0x20 PUSH2 0x3702 DUP4 CODECOPY DUP2 MLOAD SWAP2 MSTORE DUP8 DUP12 PUSH1 0x5 ADD SLOAD DUP13 PUSH1 0x3 ADD SLOAD PUSH2 0x27A7 SWAP2 SWAP1 PUSH2 0x35C4 JUMP JUMPDEST PUSH1 0x40 DUP1 MLOAD SWAP3 DUP4 MSTORE PUSH1 0x20 DUP4 ADD SWAP2 SWAP1 SWAP2 MSTORE ADD PUSH1 0x40 MLOAD DUP1 SWAP2 SUB SWAP1 LOG2 JUMPDEST POP POP POP POP POP POP POP POP POP POP POP POP JUMP JUMPDEST PUSH1 0x40 MLOAD PUSH1 0x1 PUSH1 0x1 PUSH1 0xA0 SHL SUB DUP4 DUP2 AND PUSH1 0x24 DUP4 ADD MSTORE PUSH1 0x44 DUP3 ADD DUP4 SWAP1 MSTORE PUSH2 0x1F5B SWAP2 DUP6 SWAP2 DUP3 AND SWAP1 PUSH4 0xA9059CBB SWAP1 PUSH1 0x64 ADD PUSH2 0x205F JUMP JUMPDEST PUSH1 0x0 DUP1 SLOAD PUSH1 0x1 PUSH1 0x1 PUSH1 0xA0 SHL SUB DUP4 DUP2 AND PUSH1 0x1 PUSH1 0x1 PUSH1 0xA0 SHL SUB NOT DUP4 AND DUP2 OR DUP5 SSTORE PUSH1 0x40 MLOAD SWAP2 SWAP1 SWAP3 AND SWAP3 DUP4 SWAP2 PUSH32 0x8BE0079C531659141344CD1FD0A4F28419497F9722A3DAAFE3B4186F6B6457E0 SWAP2 SWAP1 LOG3 POP POP JUMP JUMPDEST DUP1 MLOAD PUSH1 0x0 SWAP1 DUP2 MSTORE PUSH1 0x5 PUSH1 0x20 SWAP1 DUP2 MSTORE PUSH1 0x40 DUP1 DUP4 KECCAK256 SWAP2 DUP5 ADD MLOAD DUP4 MSTORE DUP3 KECCAK256 SWAP1 SWAP2 PUSH1 0x7 DUP4 ADD SLOAD PUSH1 0xFF AND PUSH1 0x3 DUP2 GT ISZERO PUSH2 0x2885 JUMPI PUSH2 0x2885 PUSH2 0x32F5 JUMP JUMPDEST EQ DUP1 ISZERO PUSH2 0x28AA JUMPI POP PUSH1 0x0 PUSH1 0x7 DUP3 ADD SLOAD PUSH1 0xFF AND PUSH1 0x3 DUP2 GT ISZERO PUSH2 0x28A8 JUMPI PUSH2 0x28A8 PUSH2 0x32F5 JUMP JUMPDEST EQ JUMPDEST PUSH2 0x28EE JUMPI PUSH1 0x40 MLOAD PUSH3 0x461BCD PUSH1 0xE5 SHL DUP2 MSTORE PUSH1 0x20 PUSH1 0x4 DUP3 ADD MSTORE PUSH1 0x15 PUSH1 0x24 DUP3 ADD MSTORE PUSH21 0x4F7264657273206D75737420626520616374697665 PUSH1 0x58 SHL PUSH1 0x44 DUP3 ADD MSTORE PUSH1 0x64 ADD PUSH2 0x6D7 JUMP JUMPDEST DUP3 MLOAD PUSH2 0x28F9 SWAP1 PUSH2 0x18AC JUMP JUMPDEST ISZERO DUP1 ISZERO PUSH2 0x2910 JUMPI POP PUSH2 0x290E DUP4 PUSH1 0x20 ADD MLOAD PUSH2 0x18AC JUMP JUMPDEST ISZERO JUMPDEST PUSH2 0x294D JUMPI PUSH1 0x40 MLOAD PUSH3 0x461BCD PUSH1 0xE5 SHL DUP2 MSTORE PUSH1 0x20 PUSH1 0x4 DUP3 ADD MSTORE PUSH1 0xE PUSH1 0x24 DUP3 ADD MSTORE PUSH14 0x13DC99195C9CC8195E1C1A5C9959 PUSH1 0x92 SHL PUSH1 0x44 DUP3 ADD MSTORE PUSH1 0x64 ADD PUSH2 0x6D7 JUMP JUMPDEST PUSH1 0x0 PUSH1 0x1 DUP4 DUP2 ADD SLOAD PUSH1 0x1 PUSH1 0xA0 SHL SWAP1 DIV PUSH1 0xFF AND SWAP1 DUP2 GT ISZERO PUSH2 0x296F JUMPI PUSH2 0x296F PUSH2 0x32F5 JUMP JUMPDEST EQ DUP1 ISZERO PUSH2 0x299A JUMPI POP PUSH1 0x1 DUP1 DUP3 DUP2 ADD SLOAD PUSH1 0x1 PUSH1 0xA0 SHL SWAP1 DIV PUSH1 0xFF AND SWAP1 DUP2 GT ISZERO PUSH2 0x2998 JUMPI PUSH2 0x2998 PUSH2 0x32F5 JUMP JUMPDEST EQ JUMPDEST PUSH2 0x29DC JUMPI PUSH1 0x40 MLOAD PUSH3 0x461BCD PUSH1 0xE5 SHL DUP2 MSTORE PUSH1 0x20 PUSH1 0x4 DUP3 ADD MSTORE PUSH1 0x13 PUSH1 0x24 DUP3 ADD MSTORE PUSH19 0x496E76616C6964206F72646572207479706573 PUSH1 0x68 SHL PUSH1 0x44 DUP3 ADD MSTORE PUSH1 0x64 ADD PUSH2 0x6D7 JUMP JUMPDEST PUSH1 0x2 DUP1 DUP3 ADD SLOAD SWAP1 DUP4 ADD SLOAD PUSH1 0x1 PUSH1 0x1 PUSH1 0xA0 SHL SUB SWAP1 DUP2 AND SWAP2 AND EQ PUSH2 0x2A31 JUMPI PUSH1 0x40 MLOAD PUSH3 0x461BCD PUSH1 0xE5 SHL DUP2 MSTORE PUSH1 0x20 PUSH1 0x4 DUP3 ADD MSTORE PUSH1 0xE PUSH1 0x24 DUP3 ADD MSTORE PUSH14 0xA8DED6CADC40DAD2E6DAC2E8C6D PUSH1 0x93 SHL PUSH1 0x44 DUP3 ADD MSTORE PUSH1 0x64 ADD PUSH2 0x6D7 JUMP JUMPDEST PUSH1 0x0 PUSH1 0x1 DUP4 DUP2 ADD SLOAD PUSH1 0x1 PUSH1 0xA8 SHL SWAP1 DIV PUSH1 0xFF AND SWAP1 DUP2 GT ISZERO PUSH2 0x2A53 JUMPI PUSH2 0x2A53 PUSH2 0x32F5 JUMP JUMPDEST EQ DUP1 ISZERO PUSH2 0x2A7F JUMPI POP PUSH1 0x0 PUSH1 0x1 DUP3 DUP2 ADD SLOAD PUSH1 0x1 PUSH1 0xA8 SHL SWAP1 DIV PUSH1 0xFF AND SWAP1 DUP2 GT ISZERO PUSH2 0x2A7D JUMPI PUSH2 0x2A7D PUSH2 0x32F5 JUMP JUMPDEST EQ JUMPDEST PUSH2 0x2ABE JUMPI PUSH1 0x40 MLOAD PUSH3 0x461BCD PUSH1 0xE5 SHL DUP2 MSTORE PUSH1 0x20 PUSH1 0x4 DUP3 ADD MSTORE PUSH1 0x10 PUSH1 0x24 DUP3 ADD MSTORE PUSH16 0x4E6F74206C696D6974206F7264657273 PUSH1 0x80 SHL PUSH1 0x44 DUP3 ADD MSTORE PUSH1 0x64 ADD PUSH2 0x6D7 JUMP JUMPDEST DUP1 PUSH1 0x4 ADD SLOAD DUP3 PUSH1 0x4 ADD SLOAD LT ISZERO PUSH2 0x2B16 JUMPI PUSH1 0x40 MLOAD PUSH3 0x461BCD PUSH1 0xE5 SHL DUP2 MSTORE PUSH1 0x20 PUSH1 0x4 DUP3 ADD MSTORE PUSH1 0x1F PUSH1 0x24 DUP3 ADD MSTORE PUSH32 0x5072696365206D69736D6174636820666F72206C696D6974206F726465727300 PUSH1 0x44 DUP3 ADD MSTORE PUSH1 0x64 ADD PUSH2 0x6D7 JUMP JUMPDEST PUSH1 0x0 DUP3 PUSH1 0x5 ADD SLOAD DUP4 PUSH1 0x3 ADD SLOAD PUSH2 0x2B2C SWAP2 SWAP1 PUSH2 0x35C4 JUMP JUMPDEST SWAP1 POP PUSH1 0x0 DUP3 PUSH1 0x5 ADD SLOAD DUP4 PUSH1 0x3 ADD SLOAD PUSH2 0x2B44 SWAP2 SWAP1 PUSH2 0x35C4 JUMP JUMPDEST PUSH1 0x40 DUP7 ADD MLOAD SWAP1 SWAP2 POP DUP3 DUP2 GT ISZERO PUSH2 0x2B57 JUMPI POP DUP2 JUMPDEST DUP2 DUP2 GT ISZERO PUSH2 0x2B62 JUMPI POP DUP1 JUMPDEST PUSH1 0x0 DUP2 GT PUSH2 0x2BA6 JUMPI PUSH1 0x40 MLOAD PUSH3 0x461BCD PUSH1 0xE5 SHL DUP2 MSTORE PUSH1 0x20 PUSH1 0x4 DUP3 ADD MSTORE PUSH1 0x11 PUSH1 0x24 DUP3 ADD MSTORE PUSH17 0x139BC8185B5BDD5B9D081D1BC8199A5B1B PUSH1 0x7A SHL PUSH1 0x44 DUP3 ADD MSTORE PUSH1 0x64 ADD PUSH2 0x6D7 JUMP JUMPDEST PUSH1 0x4 DUP5 ADD SLOAD DUP2 SWAP1 PUSH1 0x0 SWAP1 PUSH8 0xDE0B6B3A7640000 SWAP1 PUSH2 0x2BC4 SWAP1 DUP5 PUSH2 0x3520 JUMP JUMPDEST PUSH2 0x2BCE SWAP2 SWAP1 PUSH2 0x353D JUMP JUMPDEST SWAP1 POP PUSH1 0x0 PUSH2 0x2BDB DUP3 PUSH2 0x2F67 JUMP JUMPDEST SWAP1 POP PUSH1 0x0 PUSH2 0x2BE9 DUP3 DUP5 PUSH2 0x35C4 JUMP JUMPDEST PUSH1 0x1 DUP10 ADD SLOAD PUSH1 0x40 MLOAD SWAP2 SWAP3 POP PUSH1 0x0 SWAP2 PUSH1 0x1 PUSH1 0x1 PUSH1 0xA0 SHL SUB SWAP1 SWAP2 AND SWAP1 DUP4 SWAP1 DUP4 DUP2 DUP2 DUP2 DUP6 DUP8 GAS CALL SWAP3 POP POP POP RETURNDATASIZE DUP1 PUSH1 0x0 DUP2 EQ PUSH2 0x2C3D JUMPI PUSH1 0x40 MLOAD SWAP2 POP PUSH1 0x1F NOT PUSH1 0x3F RETURNDATASIZE ADD AND DUP3 ADD PUSH1 0x40 MSTORE RETURNDATASIZE DUP3 MSTORE RETURNDATASIZE PUSH1 0x0 PUSH1 0x20 DUP5 ADD RETURNDATACOPY PUSH2 0x2C42 JUMP JUMPDEST PUSH1 0x60 SWAP2 POP JUMPDEST POP POP SWAP1 POP DUP1 PUSH2 0x2C93 JUMPI PUSH1 0x40 MLOAD PUSH3 0x461BCD PUSH1 0xE5 SHL DUP2 MSTORE PUSH1 0x20 PUSH1 0x4 DUP3 ADD MSTORE PUSH1 0x1D PUSH1 0x24 DUP3 ADD MSTORE PUSH32 0x455448207472616E7366657220746F2073656C6C6572206661696C6564000000 PUSH1 0x44 DUP3 ADD MSTORE PUSH1 0x64 ADD PUSH2 0x6D7 JUMP JUMPDEST PUSH1 0x1 DUP11 ADD SLOAD PUSH1 0x2 DUP11 ADD SLOAD PUSH2 0x2CB4 SWAP2 PUSH1 0x1 PUSH1 0x1 PUSH1 0xA0 SHL SUB SWAP2 DUP3 AND SWAP2 AND DUP8 PUSH2 0x27CE JUMP JUMPDEST DUP6 DUP11 PUSH1 0x5 ADD PUSH1 0x0 DUP3 DUP3 SLOAD PUSH2 0x2CC8 SWAP2 SWAP1 PUSH2 0x355F JUMP JUMPDEST SWAP3 POP POP DUP2 SWAP1 SSTORE POP DUP6 DUP10 PUSH1 0x5 ADD PUSH1 0x0 DUP3 DUP3 SLOAD PUSH2 0x2CE3 SWAP2 SWAP1 PUSH2 0x355F JUMP JUMPDEST SWAP1 SWAP2 SSTORE POP POP PUSH1 0x4 DUP1 DUP11 ADD SLOAD SWAP1 DUP12 ADD SLOAD GT ISZERO PUSH2 0x2DD5 JUMPI PUSH1 0x0 PUSH8 0xDE0B6B3A7640000 DUP11 PUSH1 0x4 ADD SLOAD DUP13 PUSH1 0x4 ADD SLOAD PUSH2 0x2D17 SWAP2 SWAP1 PUSH2 0x35C4 JUMP JUMPDEST PUSH2 0x2D21 SWAP1 DUP10 PUSH2 0x3520 JUMP JUMPDEST PUSH2 0x2D2B SWAP2 SWAP1 PUSH2 0x353D JUMP JUMPDEST PUSH1 0x1 DUP13 ADD SLOAD PUSH1 0x40 MLOAD SWAP2 SWAP3 POP PUSH1 0x1 PUSH1 0x1 PUSH1 0xA0 SHL SUB AND SWAP1 DUP3 SWAP1 PUSH1 0x0 DUP2 DUP2 DUP2 DUP6 DUP8 GAS CALL SWAP3 POP POP POP RETURNDATASIZE DUP1 PUSH1 0x0 DUP2 EQ PUSH2 0x2D7B JUMPI PUSH1 0x40 MLOAD SWAP2 POP PUSH1 0x1F NOT PUSH1 0x3F RETURNDATASIZE ADD AND DUP3 ADD PUSH1 0x40 MSTORE RETURNDATASIZE DUP3 MSTORE RETURNDATASIZE PUSH1 0x0 PUSH1 0x20 DUP5 ADD RETURNDATACOPY PUSH2 0x2D80 JUMP JUMPDEST PUSH1 0x60 SWAP2 POP JUMPDEST POP POP DUP1 SWAP3 POP POP DUP2 PUSH2 0x2DD3 JUMPI PUSH1 0x40 MLOAD PUSH3 0x461BCD PUSH1 0xE5 SHL DUP2 MSTORE PUSH1 0x20 PUSH1 0x4 DUP3 ADD MSTORE PUSH1 0x19 PUSH1 0x24 DUP3 ADD MSTORE PUSH32 0x45544820736176696E67732072657475726E206661696C656400000000000000 PUSH1 0x44 DUP3 ADD MSTORE PUSH1 0x64 ADD PUSH2 0x6D7 JUMP JUMPDEST POP JUMPDEST DUP10 PUSH1 0x3 ADD SLOAD DUP11 PUSH1 0x5 ADD SLOAD SUB PUSH2 0x2E1B JUMPI PUSH1 0x7 DUP11 ADD DUP1 SLOAD PUSH1 0xFF NOT AND PUSH1 0x1 OR SWAP1 SSTORE DUP11 MLOAD PUSH1 0x40 MLOAD DUP8 DUP2 MSTORE PUSH1 0x0 DUP1 MLOAD PUSH1 0x20 PUSH2 0x36E2 DUP4 CODECOPY DUP2 MLOAD SWAP2 MSTORE SWAP1 PUSH1 0x20 ADD PUSH1 0x40 MLOAD DUP1 SWAP2 SUB SWAP1 LOG2 PUSH2 0x2E5D JUMP JUMPDEST DUP11 PUSH1 0x0 ADD MLOAD PUSH1 0x0 DUP1 MLOAD PUSH1 0x20 PUSH2 0x3702 DUP4 CODECOPY DUP2 MLOAD SWAP2 MSTORE DUP8 DUP13 PUSH1 0x5 ADD SLOAD DUP14 PUSH1 0x3 ADD SLOAD PUSH2 0x2E44 SWAP2 SWAP1 PUSH2 0x35C4 JUMP JUMPDEST PUSH1 0x40 DUP1 MLOAD SWAP3 DUP4 MSTORE PUSH1 0x20 DUP4 ADD SWAP2 SWAP1 SWAP2 MSTORE ADD PUSH1 0x40 MLOAD DUP1 SWAP2 SUB SWAP1 LOG2 JUMPDEST DUP9 PUSH1 0x3 ADD SLOAD DUP10 PUSH1 0x5 ADD SLOAD SUB PUSH2 0x2EA7 JUMPI PUSH1 0x7 DUP10 ADD DUP1 SLOAD PUSH1 0xFF NOT AND PUSH1 0x1 OR SWAP1 SSTORE PUSH1 0x20 DUP1 DUP13 ADD MLOAD PUSH1 0x40 MLOAD DUP9 DUP2 MSTORE SWAP1 SWAP2 PUSH1 0x0 DUP1 MLOAD PUSH1 0x20 PUSH2 0x36E2 DUP4 CODECOPY DUP2 MLOAD SWAP2 MSTORE SWAP2 ADD PUSH1 0x40 MLOAD DUP1 SWAP2 SUB SWAP1 LOG2 PUSH2 0x2EE9 JUMP JUMPDEST DUP11 PUSH1 0x20 ADD MLOAD PUSH1 0x0 DUP1 MLOAD PUSH1 0x20 PUSH2 0x3702 DUP4 CODECOPY DUP2 MLOAD SWAP2 MSTORE DUP8 DUP12 PUSH1 0x5 ADD SLOAD DUP13 PUSH1 0x3 ADD SLOAD PUSH2 0x2ED0 SWAP2 SWAP1 PUSH2 0x35C4 JUMP JUMPDEST PUSH1 0x40 DUP1 MLOAD SWAP3 DUP4 MSTORE PUSH1 0x20 DUP4 ADD SWAP2 SWAP1 SWAP2 MSTORE ADD PUSH1 0x40 MLOAD DUP1 SWAP2 SUB SWAP1 LOG2 JUMPDEST POP POP POP POP POP POP POP POP POP POP POP JUMP JUMPDEST PUSH1 0x0 DUP1 PUSH1 0x20 PUSH1 0x0 DUP5 MLOAD PUSH1 0x20 DUP7 ADD PUSH1 0x0 DUP9 GAS CALL DUP1 PUSH2 0x2F19 JUMPI PUSH1 0x40 MLOAD RETURNDATASIZE PUSH1 0x0 DUP3 RETURNDATACOPY RETURNDATASIZE DUP2 REVERT JUMPDEST POP POP PUSH1 0x0 MLOAD RETURNDATASIZE SWAP2 POP DUP2 ISZERO PUSH2 0x2F31 JUMPI DUP1 PUSH1 0x1 EQ ISZERO PUSH2 0x2F3E JUMP JUMPDEST PUSH1 0x1 PUSH1 0x1 PUSH1 0xA0 SHL SUB DUP5 AND EXTCODESIZE ISZERO JUMPDEST ISZERO PUSH2 0x1190 JUMPI PUSH1 0x40 MLOAD PUSH4 0x5274AFE7 PUSH1 0xE0 SHL DUP2 MSTORE PUSH1 0x1 PUSH1 0x1 PUSH1 0xA0 SHL SUB DUP6 AND PUSH1 0x4 DUP3 ADD MSTORE PUSH1 0x24 ADD PUSH2 0x6D7 JUMP JUMPDEST PUSH1 0x0 DUP1 PUSH2 0x2710 PUSH1 0x3 SLOAD DUP5 PUSH2 0x2F7B SWAP2 SWAP1 PUSH2 0x3520 JUMP JUMPDEST PUSH2 0x2F85 SWAP2 SWAP1 PUSH2 0x353D JUMP JUMPDEST SWAP1 POP DUP1 PUSH1 0x4 PUSH1 0x0 DUP3 DUP3 SLOAD PUSH2 0x2F99 SWAP2 SWAP1 PUSH2 0x355F JUMP JUMPDEST SWAP1 SWAP2 SSTORE POP SWAP1 SWAP4 SWAP3 POP POP POP JUMP JUMPDEST PUSH1 0x40 DUP1 MLOAD PUSH2 0x140 DUP2 ADD DUP3 MSTORE PUSH1 0x0 DUP1 DUP3 MSTORE PUSH1 0x20 DUP3 ADD DUP2 SWAP1 MSTORE SWAP1 SWAP2 DUP3 ADD SWAP1 DUP2 MSTORE PUSH1 0x20 ADD PUSH1 0x0 DUP2 MSTORE PUSH1 0x20 ADD PUSH1 0x0 PUSH1 0x1 PUSH1 0x1 PUSH1 0xA0 SHL SUB AND DUP2 MSTORE PUSH1 0x20 ADD PUSH1 0x0 DUP2 MSTORE PUSH1 0x20 ADD PUSH1 0x0 DUP2 MSTORE PUSH1 0x20 ADD PUSH1 0x0 DUP2 MSTORE PUSH1 0x20 ADD PUSH1 0x0 DUP2 MSTORE PUSH1 0x20 ADD PUSH1 0x0 PUSH1 0x3 DUP2 GT ISZERO PUSH2 0x300C JUMPI PUSH2 0x300C PUSH2 0x32F5 JUMP JUMPDEST SWAP1 MSTORE SWAP1 JUMP JUMPDEST PUSH1 0x0 PUSH1 0x20 DUP3 DUP5 SUB SLT ISZERO PUSH2 0x3023 JUMPI PUSH1 0x0 DUP1 REVERT JUMPDEST POP CALLDATALOAD SWAP2 SWAP1 POP JUMP JUMPDEST PUSH1 0x2 DUP2 LT PUSH2 0x153E JUMPI PUSH1 0x0 DUP1 REVERT JUMPDEST PUSH1 0x1 PUSH1 0x1 PUSH1 0xA0 SHL SUB DUP2 AND DUP2 EQ PUSH2 0x153E JUMPI PUSH1 0x0 DUP1 REVERT JUMPDEST PUSH1 0x0 DUP1 PUSH1 0x0 DUP1 PUSH1 0x0 DUP1 PUSH1 0xC0 DUP8 DUP10 SUB SLT ISZERO PUSH2 0x3065 JUMPI PUSH1 0x0 DUP1 REVERT JUMPDEST DUP7 CALLDATALOAD PUSH2 0x3070 DUP2 PUSH2 0x302A JUMP JUMPDEST SWAP6 POP PUSH1 0x20 DUP8 ADD CALLDATALOAD PUSH2 0x3080 DUP2 PUSH2 0x302A JUMP JUMPDEST SWAP5 POP PUSH1 0x40 DUP8 ADD CALLDATALOAD PUSH2 0x3090 DUP2 PUSH2 0x3037 JUMP JUMPDEST SWAP6 SWAP9 SWAP5 SWAP8 POP SWAP5 SWAP6 PUSH1 0x60 DUP2 ADD CALLDATALOAD SWAP6 POP PUSH1 0x80 DUP2 ADD CALLDATALOAD SWAP5 PUSH1 0xA0 SWAP1 SWAP2 ADD CALLDATALOAD SWAP4 POP SWAP2 POP POP JUMP JUMPDEST PUSH1 0x0 DUP1 PUSH1 0x40 DUP4 DUP6 SUB SLT ISZERO PUSH2 0x30C4 JUMPI PUSH1 0x0 DUP1 REVERT JUMPDEST POP POP DUP1 CALLDATALOAD SWAP3 PUSH1 0x20 SWAP1 SWAP2 ADD CALLDATALOAD SWAP2 POP JUMP JUMPDEST PUSH1 0x0 PUSH1 0x20 DUP3 DUP5 SUB SLT ISZERO PUSH2 0x30E5 JUMPI PUSH1 0x0 DUP1 REVERT JUMPDEST DUP2 CALLDATALOAD PUSH2 0x30F0 DUP2 PUSH2 0x3037 JUMP JUMPDEST SWAP4 SWAP3 POP POP POP JUMP JUMPDEST PUSH1 0x0 DUP1 PUSH1 0x0 PUSH1 0x60 DUP5 DUP7 SUB SLT ISZERO PUSH2 0x310C JUMPI PUSH1 0x0 DUP1 REVERT JUMPDEST DUP4 CALLDATALOAD PUSH2 0x3117 DUP2 PUSH2 0x3037 JUMP JUMPDEST SWAP3 POP PUSH1 0x20 DUP5 ADD CALLDATALOAD PUSH2 0x3127 DUP2 PUSH2 0x302A JUMP JUMPDEST SWAP2 POP PUSH1 0x40 DUP5 ADD CALLDATALOAD PUSH2 0x3137 DUP2 PUSH2 0x302A JUMP JUMPDEST DUP1 SWAP2 POP POP SWAP3 POP SWAP3 POP SWAP3 JUMP JUMPDEST PUSH1 0x20 DUP1 DUP3 MSTORE DUP3 MLOAD DUP3 DUP3 ADD DUP2 SWAP1 MSTORE PUSH1 0x0 SWAP2 DUP5 ADD SWAP1 PUSH1 0x40 DUP5 ADD SWAP1 DUP4 JUMPDEST DUP2 DUP2 LT ISZERO PUSH2 0x317A JUMPI DUP4 MLOAD DUP4 MSTORE PUSH1 0x20 SWAP4 DUP5 ADD SWAP4 SWAP1 SWAP3 ADD SWAP2 PUSH1 0x1 ADD PUSH2 0x315C JUMP JUMPDEST POP SWAP1 SWAP6 SWAP5 POP POP POP POP POP JUMP JUMPDEST PUSH1 0x0 DUP1 PUSH1 0x40 DUP4 DUP6 SUB SLT ISZERO PUSH2 0x3198 JUMPI PUSH1 0x0 DUP1 REVERT JUMPDEST DUP3 CALLDATALOAD PUSH2 0x31A3 DUP2 PUSH2 0x3037 JUMP JUMPDEST SWAP2 POP PUSH1 0x20 DUP4 ADD CALLDATALOAD DUP1 ISZERO ISZERO DUP2 EQ PUSH2 0x31B8 JUMPI PUSH1 0x0 DUP1 REVERT JUMPDEST DUP1 SWAP2 POP POP SWAP3 POP SWAP3 SWAP1 POP JUMP JUMPDEST PUSH1 0x0 DUP1 DUP4 PUSH1 0x1F DUP5 ADD SLT PUSH2 0x31D5 JUMPI PUSH1 0x0 DUP1 REVERT JUMPDEST POP DUP2 CALLDATALOAD PUSH8 0xFFFFFFFFFFFFFFFF DUP2 GT ISZERO PUSH2 0x31ED JUMPI PUSH1 0x0 DUP1 REVERT JUMPDEST PUSH1 0x20 DUP4 ADD SWAP2 POP DUP4 PUSH1 0x20 PUSH1 0x60 DUP4 MUL DUP6 ADD ADD GT ISZERO PUSH2 0x3208 JUMPI PUSH1 0x0 DUP1 REVERT JUMPDEST SWAP3 POP SWAP3 SWAP1 POP JUMP JUMPDEST PUSH1 0x0 DUP1 PUSH1 0x0 DUP1 PUSH1 0x40 DUP6 DUP8 SUB SLT ISZERO PUSH2 0x3225 JUMPI PUSH1 0x0 DUP1 REVERT JUMPDEST DUP5 CALLDATALOAD PUSH8 0xFFFFFFFFFFFFFFFF DUP2 GT ISZERO PUSH2 0x323C JUMPI PUSH1 0x0 DUP1 REVERT JUMPDEST PUSH2 0x3248 DUP8 DUP3 DUP9 ADD PUSH2 0x31C3 JUMP JUMPDEST SWAP1 SWAP6 POP SWAP4 POP POP PUSH1 0x20 DUP6 ADD CALLDATALOAD PUSH8 0xFFFFFFFFFFFFFFFF DUP2 GT ISZERO PUSH2 0x3268 JUMPI PUSH1 0x0 DUP1 REVERT JUMPDEST DUP6 ADD PUSH1 0x1F DUP2 ADD DUP8 SGT PUSH2 0x3279 JUMPI PUSH1 0x0 DUP1 REVERT JUMPDEST DUP1 CALLDATALOAD PUSH8 0xFFFFFFFFFFFFFFFF DUP2 GT ISZERO PUSH2 0x3290 JUMPI PUSH1 0x0 DUP1 REVERT JUMPDEST DUP8 PUSH1 0x20 DUP3 PUSH1 0x5 SHL DUP5 ADD ADD GT ISZERO PUSH2 0x32A5 JUMPI PUSH1 0x0 DUP1 REVERT JUMPDEST SWAP5 SWAP8 SWAP4 SWAP7 POP PUSH1 0x20 ADD SWAP5 POP POP POP JUMP JUMPDEST PUSH1 0x0 DUP1 PUSH1 0x20 DUP4 DUP6 SUB SLT ISZERO PUSH2 0x32C6 JUMPI PUSH1 0x0 DUP1 REVERT JUMPDEST DUP3 CALLDATALOAD PUSH8 0xFFFFFFFFFFFFFFFF DUP2 GT ISZERO PUSH2 0x32DD JUMPI PUSH1 0x0 DUP1 REVERT JUMPDEST PUSH2 0x32E9 DUP6 DUP3 DUP7 ADD PUSH2 0x31C3 JUMP JUMPDEST SWAP1 SWAP7 SWAP1 SWAP6 POP SWAP4 POP POP POP POP JUMP JUMPDEST PUSH4 0x4E487B71 PUSH1 0xE0 SHL PUSH1 0x0 MSTORE PUSH1 0x21 PUSH1 0x4 MSTORE PUSH1 0x24 PUSH1 0x0 REVERT JUMPDEST PUSH1 0x2 DUP2 LT PUSH2 0x153E JUMPI PUSH2 0x153E PUSH2 0x32F5 JUMP JUMPDEST PUSH2 0x3324 DUP2 PUSH2 0x330B JUMP JUMPDEST SWAP1 MSTORE JUMP JUMPDEST PUSH1 0x4 DUP2 LT PUSH2 0x3324 JUMPI PUSH2 0x3324 PUSH2 0x32F5 JUMP JUMPDEST DUP11 DUP2 MSTORE PUSH1 0x1 PUSH1 0x1 PUSH1 0xA0 SHL SUB DUP11 AND PUSH1 0x20 DUP3 ADD MSTORE PUSH2 0x140 DUP2 ADD PUSH2 0x3358 DUP11 PUSH2 0x330B JUMP JUMPDEST DUP10 PUSH1 0x40 DUP4 ADD MSTORE PUSH2 0x3367 DUP10 PUSH2 0x330B JUMP JUMPDEST DUP9 PUSH1 0x60 DUP4 ADD MSTORE PUSH1 0x1 DUP1 PUSH1 0xA0 SHL SUB DUP9 AND PUSH1 0x80 DUP4 ADD MSTORE DUP7 PUSH1 0xA0 DUP4 ADD MSTORE DUP6 PUSH1 0xC0 DUP4 ADD MSTORE DUP5 PUSH1 0xE0 DUP4 ADD MSTORE DUP4 PUSH2 0x100 DUP4 ADD MSTORE PUSH2 0x33A2 PUSH2 0x120 DUP4 ADD DUP5 PUSH2 0x3328 JUMP JUMPDEST SWAP12 SWAP11 POP POP POP POP POP POP POP POP POP POP POP JUMP JUMPDEST PUSH1 0x0 DUP1 PUSH1 0x0 DUP1 PUSH1 0x0 PUSH1 0xA0 DUP7 DUP9 SUB SLT ISZERO PUSH2 0x33C9 JUMPI PUSH1 0x0 DUP1 REVERT JUMPDEST DUP6 CALLDATALOAD PUSH2 0x33D4 DUP2 PUSH2 0x3037 JUMP JUMPDEST SWAP5 POP PUSH1 0x20 DUP7 ADD CALLDATALOAD PUSH2 0x33E4 DUP2 PUSH2 0x302A JUMP JUMPDEST SWAP4 POP PUSH1 0x40 DUP7 ADD CALLDATALOAD PUSH2 0x33F4 DUP2 PUSH2 0x302A JUMP JUMPDEST SWAP5 SWAP8 SWAP4 SWAP7 POP SWAP4 SWAP5 PUSH1 0x60 DUP2 ADD CALLDATALOAD SWAP5 POP PUSH1 0x80 ADD CALLDATALOAD SWAP3 SWAP2 POP POP JUMP JUMPDEST DUP2 MLOAD DUP2 MSTORE PUSH1 0x20 DUP1 DUP4 ADD MLOAD PUSH2 0x140 DUP4 ADD SWAP2 PUSH2 0x3430 SWAP1 DUP5 ADD DUP3 PUSH1 0x1 PUSH1 0x1 PUSH1 0xA0 SHL SUB AND SWAP1 MSTORE JUMP JUMPDEST POP PUSH1 0x40 DUP4 ADD MLOAD PUSH2 0x3443 PUSH1 0x40 DUP5 ADD DUP3 PUSH2 0x331B JUMP JUMPDEST POP PUSH1 0x60 DUP4 ADD MLOAD PUSH2 0x3456 PUSH1 0x60 DUP5 ADD DUP3 PUSH2 0x331B JUMP JUMPDEST POP PUSH1 0x80 DUP4 ADD MLOAD PUSH2 0x3471 PUSH1 0x80 DUP5 ADD DUP3 PUSH1 0x1 PUSH1 0x1 PUSH1 0xA0 SHL SUB AND SWAP1 MSTORE JUMP JUMPDEST POP PUSH1 0xA0 DUP4 ADD MLOAD PUSH1 0xA0 DUP4 ADD MSTORE PUSH1 0xC0 DUP4 ADD MLOAD PUSH1 0xC0 DUP4 ADD MSTORE PUSH1 0xE0 DUP4 ADD MLOAD PUSH1 0xE0 DUP4 ADD MSTORE PUSH2 0x100 DUP4 ADD MLOAD PUSH2 0x100 DUP4 ADD MSTORE PUSH2 0x120 DUP4 ADD MLOAD PUSH2 0x68B PUSH2 0x120 DUP5 ADD DUP3 PUSH2 0x3328 JUMP JUMPDEST PUSH1 0x0 DUP1 PUSH1 0x0 PUSH1 0x60 DUP5 DUP7 SUB SLT ISZERO PUSH2 0x34C5 JUMPI PUSH1 0x0 DUP1 REVERT JUMPDEST DUP4 CALLDATALOAD PUSH2 0x34D0 DUP2 PUSH2 0x3037 JUMP JUMPDEST SWAP3 POP PUSH1 0x20 DUP5 ADD CALLDATALOAD PUSH2 0x34E0 DUP2 PUSH2 0x3037 JUMP JUMPDEST SWAP3 SWAP6 SWAP3 SWAP5 POP POP POP PUSH1 0x40 SWAP2 SWAP1 SWAP2 ADD CALLDATALOAD SWAP1 JUMP JUMPDEST PUSH4 0x4E487B71 PUSH1 0xE0 SHL PUSH1 0x0 MSTORE PUSH1 0x11 PUSH1 0x4 MSTORE PUSH1 0x24 PUSH1 0x0 REVERT JUMPDEST PUSH1 0x0 PUSH1 0x1 DUP3 ADD PUSH2 0x3519 JUMPI PUSH2 0x3519 PUSH2 0x34F1 JUMP JUMPDEST POP PUSH1 0x1 ADD SWAP1 JUMP JUMPDEST DUP1 DUP3 MUL DUP2 ISZERO DUP3 DUP3 DIV DUP5 EQ OR PUSH2 0x3537 JUMPI PUSH2 0x3537 PUSH2 0x34F1 JUMP JUMPDEST SWAP3 SWAP2 POP POP JUMP JUMPDEST PUSH1 0x0 DUP3 PUSH2 0x355A JUMPI PUSH4 0x4E487B71 PUSH1 0xE0 SHL PUSH1 0x0 MSTORE PUSH1 0x12 PUSH1 0x4 MSTORE PUSH1 0x24 PUSH1 0x0 REVERT JUMPDEST POP DIV SWAP1 JUMP JUMPDEST DUP1 DUP3 ADD DUP1 DUP3 GT ISZERO PUSH2 0x3537 JUMPI PUSH2 0x3537 PUSH2 0x34F1 JUMP JUMPDEST PUSH1 0xE0 DUP2 ADD PUSH2 0x357F DUP10 PUSH2 0x330B JUMP JUMPDEST DUP9 DUP3 MSTORE PUSH2 0x358B DUP9 PUSH2 0x330B JUMP JUMPDEST PUSH1 0x20 DUP3 ADD SWAP8 SWAP1 SWAP8 MSTORE PUSH1 0x1 PUSH1 0x1 PUSH1 0xA0 SHL SUB SWAP6 SWAP1 SWAP6 AND PUSH1 0x40 DUP7 ADD MSTORE PUSH1 0x60 DUP6 ADD SWAP4 SWAP1 SWAP4 MSTORE PUSH1 0x80 DUP5 ADD SWAP2 SWAP1 SWAP2 MSTORE PUSH1 0xA0 DUP4 ADD MSTORE PUSH1 0xC0 SWAP1 SWAP2 ADD MSTORE SWAP2 SWAP1 POP JUMP JUMPDEST DUP2 DUP2 SUB DUP2 DUP2 GT ISZERO PUSH2 0x3537 JUMPI PUSH2 0x3537 PUSH2 0x34F1 JUMP JUMPDEST PUSH4 0x4E487B71 PUSH1 0xE0 SHL PUSH1 0x0 MSTORE PUSH1 0x41 PUSH1 0x4 MSTORE PUSH1 0x24 PUSH1 0x0 REVERT JUMPDEST PUSH4 0x4E487B71 PUSH1 0xE0 SHL PUSH1 0x0 MSTORE PUSH1 0x32 PUSH1 0x4 MSTORE PUSH1 0x24 PUSH1 0x0 REVERT JUMPDEST PUSH1 0x0 PUSH1 0x60 DUP3 DUP5 SUB SLT DUP1 ISZERO PUSH2 0x3616 JUMPI PUSH1 0x0 DUP1 REVERT JUMPDEST PUSH1 0x0 SWAP1 POP PUSH1 0x40 MLOAD PUSH1 0x60 DUP2 ADD DUP2 DUP2 LT PUSH8 0xFFFFFFFFFFFFFFFF DUP3 GT OR ISZERO PUSH2 0x3649 JUMPI PUSH4 0x4E487B71 PUSH1 0xE0 SHL DUP4 MSTORE PUSH1 0x41 PUSH1 0x4 MSTORE PUSH1 0x24 DUP4 REVERT JUMPDEST PUSH1 0x40 SWAP1 DUP2 MSTORE DUP5 CALLDATALOAD DUP3 MSTORE PUSH1 0x20 DUP1 DUP7 ADD CALLDATALOAD SWAP1 DUP4 ADD MSTORE SWAP4 DUP5 ADD CALLDATALOAD SWAP4 DUP2 ADD SWAP4 SWAP1 SWAP4 MSTORE POP SWAP1 SWAP3 SWAP2 POP POP JUMP JUMPDEST PUSH1 0x20 DUP1 DUP3 MSTORE PUSH1 0x14 SWAP1 DUP3 ADD MSTORE PUSH20 0x13DC99195C88191BD95CC81B9BDD08195E1A5CDD PUSH1 0x62 SHL PUSH1 0x40 DUP3 ADD MSTORE PUSH1 0x60 ADD SWAP1 JUMP JUMPDEST PUSH12 0xFFFFFFFFFFFFFFFFFFFFFFFF NOT DUP5 PUSH1 0x60 SHL AND DUP2 MSTORE PUSH2 0x36BB DUP4 PUSH2 0x330B JUMP JUMPDEST DUP3 PUSH1 0xF8 SHL PUSH1 0x14 DUP3 ADD MSTORE PUSH2 0x36CD DUP3 PUSH2 0x330B JUMP JUMPDEST PUSH1 0xF8 SWAP2 SWAP1 SWAP2 SHL PUSH1 0x15 DUP3 ADD MSTORE PUSH1 0x16 ADD SWAP3 SWAP2 POP POP JUMP INVALID 0xEB EXTCODESIZE COINBASE 0xBE SLT 0xEF LOG2 TLOAD 0xC PUSH6 0x725EEFF2E2AD MUL POP 0xE2 0xE5 0xDE 0x2A 0xA9 CODECOPY 0xE1 DUP16 CALLDATASIZE 0xAA PUSH6 0x6E98808F9F7F PC PUSH5 0x3161141DD2 0xB5 0xB8 PUSH3 0xB54AB6 SELFBALANCE 0xF7 GASLIMIT BLOBHASH 0xD3 0xB0 PUSH16 0xD4430272BCC411678CA2646970667358 0x22 SLT KECCAK256 BLOBBASEFEE 0x2A SSTORE DIV 0xE7 CALLER SWAP5 0xC3 0xF9 CODESIZE SELFDESTRUCT LOG0 0xC2 0xEB 0xA8 SWAP13 CALLVALUE PUSH3 0xBD9BE7 0xF9 DUP11 PUSH21 0xF56A6AEB4282B5A364736F6C634300081A00330000 "
        },
        "methodIdentifiers": {
          "DIVISOR()": "3410fe6e",
          "MAX_FEE_PERCENTAGE()": "558e44d3",
          "cancelOrder(uint256)": "514fcac7",
          "cleanupExpiredOrder(uint256)": "568c8206",
          "createOrder(uint8,uint8,address,uint256,uint256,uint256)": "11e807a4",
          "emergencyWithdraw(address,address,uint256)": "e63ea408",
          "feePercentage()": "a001ecdd",
          "fulfillLimitOrders((uint256,uint256,uint256)[])": "8f9057df",
          "fulfillMarketOrders((uint256,uint256,uint256)[],uint256[])": "457a8924",
          "getActiveOrders(address,uint8,uint8)": "1f32eb77",
          "getActiveOrdersCount(bytes32)": "10e1c166",
          "getActiveOrdersPaged(address,uint8,uint8,uint256,uint256)": "bfde1d7c",
          "getOrder(uint256)": "d09ef241",
          "getRemainingAmount(uint256)": "f6252ff2",
          "isOrderExpired(uint256)": "59c69313",
          "maxOrderSize()": "f1a82c7e",
          "maxOrderTtl()": "66961d44",
          "minOrderSize()": "a674537f",
          "orders(uint256)": "a85c38ef",
          "owner()": "8da5cb5b",
          "renounceOwnership()": "715018a6",
          "setFeePercentage(uint256)": "ae06c1b7",
          "setFulfillerStatus(address,bool)": "2fd51adf",
          "setMaxOrderTtl(uint256)": "727d2114",
          "setOrderSizeLimits(uint256,uint256)": "13b64e24",
          "totalFeesCollected()": "60c6d8ae",
          "totalOrderCount(bytes32)": "0d34219c",
          "transferOwnership(address)": "f2fde38b",
          "whitelistedFulfillers(address)": "c452427e",
          "withdrawFees(address)": "164e68de"
        }
      }
    }
  }
}