{
  "contracts/FallbackExecutor.sol": {
    "FallbackExecutor": {
      "abi": [
        {
          "inputs": [
            {
              "internalType": "contract IGradientRegistry",
              "name": "_gradientRegistry",
              "type": "address"
            }
          ],
          "stateMutability": "nonpayable",
          "type": "constructor"
        },
        {
          "inputs": [
            {
              "internalType": "address",
              "name": "owner",
              "type": "address"
            }
          ],
          "name": "OwnableInvalidOwner",
          "type": "error"
        },
        {
          "inputs": [
            {
              "internalType": "address",
              "name": "account",
              "type": "address"
            }
          ],
          "name": "OwnableUnauthorizedAccount",
          "type": "error"
        },
        {
          "inputs": [],
          "name": "ReentrancyGuardReentrantCall",
          "type": "error"
        },
        {
          "inputs": [
            {
              "internalType": "address",
              "name": "token",
              "type": "address"
            }
          ],
          "name": "SafeERC20FailedOperation",
          "type": "error"
        },
        {
          "anonymous": false,
          "inputs": [
            {
              "indexed": true,
              "internalType": "address",
              "name": "dex",
              "type": "address"
            },
            {
              "indexed": false,
              "internalType": "address",
              "name": "router",
              "type": "address"
            },
            {
              "indexed": false,
              "internalType": "address",
              "name": "factory",
              "type": "address"
            }
          ],
          "name": "DEXAdded",
          "type": "event"
        },
        {
          "anonymous": false,
          "inputs": [
            {
              "indexed": true,
              "internalType": "address",
              "name": "dex",
              "type": "address"
            }
          ],
          "name": "DEXRemoved",
          "type": "event"
        },
        {
          "anonymous": false,
          "inputs": [
            {
              "indexed": true,
              "internalType": "address",
              "name": "previousOwner",
              "type": "address"
            },
            {
              "indexed": true,
              "internalType": "address",
              "name": "newOwner",
              "type": "address"
            }
          ],
          "name": "OwnershipTransferred",
          "type": "event"
        },
        {
          "anonymous": false,
          "inputs": [
            {
              "indexed": false,
              "internalType": "uint256",
              "name": "newSlippage",
              "type": "uint256"
            }
          ],
          "name": "SlippageUpdated",
          "type": "event"
        },
        {
          "anonymous": false,
          "inputs": [
            {
              "indexed": true,
              "internalType": "address",
              "name": "token",
              "type": "address"
            },
            {
              "indexed": true,
              "internalType": "address",
              "name": "dex",
              "type": "address"
            },
            {
              "indexed": false,
              "internalType": "uint256",
              "name": "amountIn",
              "type": "uint256"
            },
            {
              "indexed": false,
              "internalType": "uint256",
              "name": "amountOut",
              "type": "uint256"
            },
            {
              "indexed": false,
              "internalType": "bool",
              "name": "isBuy",
              "type": "bool"
            }
          ],
          "name": "TradeExecuted",
          "type": "event"
        },
        {
          "inputs": [],
          "name": "BASIS_POINTS",
          "outputs": [
            {
              "internalType": "uint256",
              "name": "",
              "type": "uint256"
            }
          ],
          "stateMutability": "view",
          "type": "function"
        },
        {
          "inputs": [],
          "name": "MAX_SLIPPAGE",
          "outputs": [
            {
              "internalType": "uint256",
              "name": "",
              "type": "uint256"
            }
          ],
          "stateMutability": "view",
          "type": "function"
        },
        {
          "inputs": [
            {
              "internalType": "uint256",
              "name": "",
              "type": "uint256"
            }
          ],
          "name": "activeDEXes",
          "outputs": [
            {
              "internalType": "address",
              "name": "",
              "type": "address"
            }
          ],
          "stateMutability": "view",
          "type": "function"
        },
        {
          "inputs": [
            {
              "internalType": "address",
              "name": "dex",
              "type": "address"
            },
            {
              "internalType": "address",
              "name": "router",
              "type": "address"
            },
            {
              "internalType": "address",
              "name": "factory",
              "type": "address"
            },
            {
              "internalType": "uint256",
              "name": "priority",
              "type": "uint256"
            }
          ],
          "name": "addDEX",
          "outputs": [],
          "stateMutability": "nonpayable",
          "type": "function"
        },
        {
          "inputs": [
            {
              "internalType": "address",
              "name": "",
              "type": "address"
            }
          ],
          "name": "dexes",
          "outputs": [
            {
              "internalType": "address",
              "name": "router",
              "type": "address"
            },
            {
              "internalType": "address",
              "name": "factory",
              "type": "address"
            },
            {
              "internalType": "bool",
              "name": "isActive",
              "type": "bool"
            },
            {
              "internalType": "uint256",
              "name": "priority",
              "type": "uint256"
            }
          ],
          "stateMutability": "view",
          "type": "function"
        },
        {
          "inputs": [
            {
              "internalType": "address[]",
              "name": "tokens",
              "type": "address[]"
            }
          ],
          "name": "emergencyWithdraw",
          "outputs": [],
          "stateMutability": "nonpayable",
          "type": "function"
        },
        {
          "inputs": [],
          "name": "emergencyWithdrawETH",
          "outputs": [],
          "stateMutability": "nonpayable",
          "type": "function"
        },
        {
          "inputs": [
            {
              "internalType": "address",
              "name": "token",
              "type": "address"
            },
            {
              "internalType": "uint256",
              "name": "amount",
              "type": "uint256"
            },
            {
              "internalType": "uint256",
              "name": "minAmountOut",
              "type": "uint256"
            },
            {
              "internalType": "bool",
              "name": "isBuy",
              "type": "bool"
            }
          ],
          "name": "executeTrade",
          "outputs": [
            {
              "internalType": "uint256",
              "name": "amountOut",
              "type": "uint256"
            }
          ],
          "stateMutability": "payable",
          "type": "function"
        },
        {
          "inputs": [],
          "name": "gradientRegistry",
          "outputs": [
            {
              "internalType": "contract IGradientRegistry",
              "name": "",
              "type": "address"
            }
          ],
          "stateMutability": "view",
          "type": "function"
        },
        {
          "inputs": [],
          "name": "owner",
          "outputs": [
            {
              "internalType": "address",
              "name": "",
              "type": "address"
            }
          ],
          "stateMutability": "view",
          "type": "function"
        },
        {
          "inputs": [
            {
              "internalType": "address",
              "name": "dex",
              "type": "address"
            }
          ],
          "name": "removeDEX",
          "outputs": [],
          "stateMutability": "nonpayable",
          "type": "function"
        },
        {
          "inputs": [],
          "name": "renounceOwnership",
          "outputs": [],
          "stateMutability": "nonpayable",
          "type": "function"
        },
        {
          "inputs": [
            {
              "internalType": "address",
              "name": "newOwner",
              "type": "address"
            }
          ],
          "name": "transferOwnership",
          "outputs": [],
          "stateMutability": "nonpayable",
          "type": "function"
        },
        {
          "stateMutability": "payable",
          "type": "receive"
        }
      ],
      "evm": {
        "bytecode": {
          "linkReferences": {},
          "object": "60a060405234801561001057600080fd5b50604051611c1e380380611c1e83398101604081905261002f916100c7565b6001600055338061005a57604051631e4fbdf760e01b81526000600482015260240160405180910390fd5b61006381610075565b506001600160a01b03166080526100f7565b600180546001600160a01b038381166001600160a01b0319831681179093556040519116919082907f8be0079c531659141344cd1fd0a4f28419497f9722a3daafe3b4186f6b6457e090600090a35050565b6000602082840312156100d957600080fd5b81516001600160a01b03811681146100f057600080fd5b9392505050565b608051611b0561011960003960008181610179015261058e0152611b056000f3fe6080604052600436106100c65760003560e01c80638c8f3f821161007f578063e1f1c4a711610059578063e1f1c4a714610274578063e704d6c41461028a578063f2fde38b146102aa578063f9759518146102ca57600080fd5b80638c8f3f82146101b05780638da5cb5b146101d0578063a7ca71ca146101ee57600080fd5b806301c1dfba146100d25780634fc65751146100f4578063715018a614610131578063815a1a0d14610146578063830562bc14610167578063845360171461019b57600080fd5b366100cd57005b600080fd5b3480156100de57600080fd5b506100f26100ed366004611781565b6102e0565b005b34801561010057600080fd5b5061011461010f3660046117f8565b610491565b6040516001600160a01b0390911681526020015b60405180910390f35b34801561013d57600080fd5b506100f26104bb565b610159610154366004611834565b6104cf565b604051908152602001610128565b34801561017357600080fd5b506101147f000000000000000000000000000000000000000000000000000000000000000081565b3480156101a757600080fd5b506100f2610c53565b3480156101bc57600080fd5b506100f26101cb36600461187e565b610d13565b3480156101dc57600080fd5b506001546001600160a01b0316610114565b3480156101fa57600080fd5b5061024361020936600461187e565b60026020819052600091825260409091208054600182015491909201546001600160a01b0392831692821691600160a01b900460ff169084565b604080516001600160a01b039586168152949093166020850152901515918301919091526060820152608001610128565b34801561028057600080fd5b5061015961271081565b34801561029657600080fd5b506100f26102a536600461189b565b610ed7565b3480156102b657600080fd5b506100f26102c536600461187e565b611132565b3480156102d657600080fd5b506101596103e881565b6102e861116d565b4780156103a25760006103036001546001600160a01b031690565b6001600160a01b03168260405160006040518083038185875af1925050503d806000811461034d576040519150601f19603f3d011682016040523d82523d6000602084013e610352565b606091505b50509050806103a05760405162461bcd60e51b8152602060048201526015602482015274115512081dda5d1a191c985dd85b0819985a5b1959605a1b60448201526064015b60405180910390fd5b505b60005b8281101561048b5760008484838181106103c1576103c16118ec565b90506020020160208101906103d6919061187e565b90506001600160a01b03811615610482576040516370a0823160e01b81523060048201526000906001600160a01b038316906370a0823190602401602060405180830381865afa15801561042e573d6000803e3d6000fd5b505050506040513d601f19601f820116820180604052508101906104529190611902565b905080156104805761048061046f6001546001600160a01b031690565b6001600160a01b038416908361119a565b505b506001016103a5565b50505050565b600381815481106104a157600080fd5b6000918252602090912001546001600160a01b0316905081565b6104c361116d565b6104cd60006111fe565b565b60006104d9611250565b6001600160a01b03851661051f5760405162461bcd60e51b815260206004820152600d60248201526c24b73b30b634b2103a37b5b2b760991b6044820152606401610397565b6000841161056f5760405162461bcd60e51b815260206004820152601d60248201527f416d6f756e74206d7573742062652067726561746572207468616e20300000006044820152606401610397565b604051630736b32b60e31b81526001600160a01b0386811660048301527f000000000000000000000000000000000000000000000000000000000000000016906339b5995890602401602060405180830381865afa1580156105d5573d6000803e3d6000fd5b505050506040513d601f19601f820116820180604052508101906105f9919061191b565b156106395760405162461bcd60e51b815260206004820152601060248201526f151bdad95b881a5cc8189b1bd8dad95960821b6044820152606401610397565b811561069b578334101561069b5760405162461bcd60e51b815260206004820152602360248201527f496e73756666696369656e74204554482073656e7420666f7220627579206f726044820152623232b960e91b6064820152608401610397565b60006106a886868561127a565b90506001600160a01b0381166106f85760405162461bcd60e51b8152602060048201526015602482015274139bc81cdd5a5d18589b194811115608199bdd5b99605a1b6044820152606401610397565b6001600160a01b03818116600090815260026020819052604080832080548251848152606081019093529094169291816020016020820280368337019050509050851561080d57816001600160a01b031663ad5c46486040518163ffffffff1660e01b8152600401602060405180830381865afa15801561077d573d6000803e3d6000fd5b505050506040513d601f19601f820116820180604052508101906107a19190611938565b816000815181106107b4576107b46118ec565b60200260200101906001600160a01b031690816001600160a01b03168152505088816001815181106107e8576107e86118ec565b60200260200101906001600160a01b031690816001600160a01b0316815250506108d7565b8881600081518110610821576108216118ec565b60200260200101906001600160a01b031690816001600160a01b031681525050816001600160a01b031663ad5c46486040518163ffffffff1660e01b8152600401602060405180830381865afa15801561087f573d6000803e3d6000fd5b505050506040513d601f19601f820116820180604052508101906108a39190611938565b816001815181106108b6576108b66118ec565b60200260200101906001600160a01b031690816001600160a01b0316815250505b8515610a3a576040516370a0823160e01b81523360048201526000906001600160a01b038b16906370a0823190602401602060405180830381865afa158015610924573d6000803e3d6000fd5b505050506040513d601f19601f820116820180604052508101906109489190611902565b90506001600160a01b03831663b6f9de958a8a85336109694261012c61196b565b6040518663ffffffff1660e01b815260040161098894939291906119c9565b6000604051808303818588803b1580156109a157600080fd5b505af11580156109b5573d6000803e3d6000fd5b50506040516370a0823160e01b8152336004820152600093506001600160a01b038e1692506370a082319150602401602060405180830381865afa158015610a01573d6000803e3d6000fd5b505050506040513d601f19601f82011682018060405250810190610a259190611902565b9050610a3182826119fe565b96505050610bdb565b47610a506001600160a01b038b1633308c6112e4565b835460405163095ea7b360e01b81526001600160a01b039182166004820152602481018b9052908b169063095ea7b3906044016020604051808303816000875af1158015610aa2573d6000803e3d6000fd5b505050506040513d601f19601f82011682018060405250810190610ac6919061191b565b506001600160a01b03831663791ac9478a8a8530610ae64261012c61196b565b6040518663ffffffff1660e01b8152600401610b06959493929190611a11565b600060405180830381600087803b158015610b2057600080fd5b505af1158015610b34573d6000803e3d6000fd5b50479250610b469150839050826119fe565b604051909750600090339089908381818185875af1925050503d8060008114610b8b576040519150601f19603f3d011682016040523d82523d6000602084013e610b90565b606091505b5050905080610bd75760405162461bcd60e51b8152602060048201526013602482015272115512081d1c985b9cd9995c8819985a5b1959606a1b6044820152606401610397565b5050505b836001600160a01b0316896001600160a01b03167fa5f8a4ef50801e7d44113fd9c467aec2fa7583dc5344619557ae4fcd77bd043f8a888a604051610c359392919092835260208301919091521515604082015260600190565b60405180910390a350505050610c4b6001600055565b949350505050565b610c5b61116d565b478015610d10576000610c766001546001600160a01b031690565b6001600160a01b03168260405160006040518083038185875af1925050503d8060008114610cc0576040519150601f19603f3d011682016040523d82523d6000602084013e610cc5565b606091505b5050905080610d0e5760405162461bcd60e51b8152602060048201526015602482015274115512081dda5d1a191c985dd85b0819985a5b1959605a1b6044820152606401610397565b505b50565b610d1b61116d565b6001600160a01b038116600090815260026020526040902060010154600160a01b900460ff16610d7d5760405162461bcd60e51b815260206004820152600d60248201526c111156081b9bdd08199bdd5b99609a1b6044820152606401610397565b6001600160a01b0381166000908152600260205260408120600101805460ff60a01b191690555b600354811015610e9f57816001600160a01b031660038281548110610dcb57610dcb6118ec565b6000918252602090912001546001600160a01b031603610e975760038054610df5906001906119fe565b81548110610e0557610e056118ec565b600091825260209091200154600380546001600160a01b039092169183908110610e3157610e316118ec565b9060005260206000200160006101000a8154816001600160a01b0302191690836001600160a01b031602179055506003805480610e7057610e70611a4d565b600082815260209020810160001990810180546001600160a01b0319169055019055610e9f565b600101610da4565b506040516001600160a01b038216907f1921ba6698157d491d41801286e9e17aee1c25965119e55403ba396b104b95db90600090a250565b610edf61116d565b6001600160a01b038416610f235760405162461bcd60e51b815260206004820152600b60248201526a092dcecc2d8d2c840888ab60ab1b6044820152606401610397565b6001600160a01b038316610f6a5760405162461bcd60e51b815260206004820152600e60248201526d24b73b30b634b2103937baba32b960911b6044820152606401610397565b6001600160a01b038216610fb25760405162461bcd60e51b815260206004820152600f60248201526e496e76616c696420666163746f727960881b6044820152606401610397565b6001600160a01b038416600090815260026020526040902060010154600160a01b900460ff161561101a5760405162461bcd60e51b815260206004820152601260248201527144455820616c72656164792065786973747360701b6044820152606401610397565b604080516080810182526001600160a01b03808616825284811660208084019182526001848601818152606086018881528b86166000818152600295869052988920975188549088166001600160a01b03199182161789559551888501805494511515600160a01b026001600160a81b0319909516919098161792909217909555935194909101939093556003805493840181559093527fc2575a0e9e593c00f959f8c92f12db2869c3395a3b0502d05e2516446f71f85b90910180549092161790556110e561131d565b604080516001600160a01b03858116825284811660208301528616917f2161d26dd2e031506bee289a523abc3337bfa101a08626541f6978f76048eac7910160405180910390a250505050565b61113a61116d565b6001600160a01b03811661116457604051631e4fbdf760e01b815260006004820152602401610397565b610d10816111fe565b6001546001600160a01b031633146104cd5760405163118cdaa760e01b8152336004820152602401610397565b6040516001600160a01b038381166024830152604482018390526111f991859182169063a9059cbb906064015b604051602081830303815290604052915060e01b6020820180516001600160e01b0383818316178352505050506114dc565b505050565b600180546001600160a01b038381166001600160a01b0319831681179093556040519116919082907f8be0079c531659141344cd1fd0a4f28419497f9722a3daafe3b4186f6b6457e090600090a35050565b60026000540361127357604051633ee5aeb560e01b815260040160405180910390fd5b6002600055565b6000805b6003548110156112d75760006003828154811061129d5761129d6118ec565b6000918252602090912001546001600160a01b031690506112c08187878761154d565b156112ce5791506112dd9050565b5060010161127e565b50600090505b9392505050565b6040516001600160a01b03848116602483015283811660448301526064820183905261048b9186918216906323b872dd906084016111c7565b60005b600354811015610d105760005b60035460019061133e9084906119fe565b61134891906119fe565b8110156114d35760026000600361136084600161196b565b81548110611370576113706118ec565b60009182526020808320909101546001600160a01b03168352820192909252604001812060029081015460038054919391859081106113b1576113b16118ec565b60009182526020808320909101546001600160a01b0316835282019290925260400190206002015411156114cb576000600382815481106113f4576113f46118ec565b6000918252602090912001546001600160a01b03169050600361141883600161196b565b81548110611428576114286118ec565b600091825260209091200154600380546001600160a01b039092169184908110611454576114546118ec565b600091825260209091200180546001600160a01b0319166001600160a01b039290921691909117905580600361148b84600161196b565b8154811061149b5761149b6118ec565b9060005260206000200160006101000a8154816001600160a01b0302191690836001600160a01b03160217905550505b60010161132d565b50600101611320565b600080602060008451602086016000885af1806114ff576040513d6000823e3d81fd5b50506000513d91508115611517578060011415611524565b6001600160a01b0384163b155b1561048b57604051635274afe760e01b81526001600160a01b0385166004820152602401610397565b6001600160a01b03841660009081526002602052604081206001810154600160a01b900460ff16611582576000915050610c4b565b8054604080516315ab88c960e31b815290516001600160a01b0390921691600091839163ad5c4648916004808201926020929091908290030181865afa1580156115d0573d6000803e3d6000fd5b505050506040513d601f19601f820116820180604052508101906115f49190611938565b600184015460405163e6a4390560e01b81526001600160a01b038a8116600483015280841660248301529293506000929091169063e6a4390590604401602060405180830381865afa15801561164e573d6000803e3d6000fd5b505050506040513d601f19601f820116820180604052508101906116729190611938565b90506001600160a01b03811661168f576000945050505050610c4b565b600080826001600160a01b0316630902f1ac6040518163ffffffff1660e01b8152600401606060405180830381865afa1580156116d0573d6000803e3d6000fd5b505050506040513d601f19601f820116820180604052508101906116f49190611a7f565b50915091506000846001600160a01b03168b6001600160a01b03161061171a578161171c565b825b6001600160701b031690506000856001600160a01b03168c6001600160a01b031610611748578361174a565b825b6001600160701b03169050891561176e578a81101598505050505050505050610c4b565b8a82101598505050505050505050610c4b565b6000806020838503121561179457600080fd5b823567ffffffffffffffff8111156117ab57600080fd5b8301601f810185136117bc57600080fd5b803567ffffffffffffffff8111156117d357600080fd5b8560208260051b84010111156117e857600080fd5b6020919091019590945092505050565b60006020828403121561180a57600080fd5b5035919050565b6001600160a01b0381168114610d1057600080fd5b8015158114610d1057600080fd5b6000806000806080858703121561184a57600080fd5b843561185581611811565b93506020850135925060408501359150606085013561187381611826565b939692955090935050565b60006020828403121561189057600080fd5b81356112dd81611811565b600080600080608085870312156118b157600080fd5b84356118bc81611811565b935060208501356118cc81611811565b925060408501356118dc81611811565b9396929550929360600135925050565b634e487b7160e01b600052603260045260246000fd5b60006020828403121561191457600080fd5b5051919050565b60006020828403121561192d57600080fd5b81516112dd81611826565b60006020828403121561194a57600080fd5b81516112dd81611811565b634e487b7160e01b600052601160045260246000fd5b8082018082111561197e5761197e611955565b92915050565b600081518084526020840193506020830160005b828110156119bf5781516001600160a01b0316865260209586019590910190600101611998565b5093949350505050565b8481526080602082015260006119e26080830186611984565b6001600160a01b03949094166040830152506060015292915050565b8181038181111561197e5761197e611955565b85815284602082015260a060408201526000611a3060a0830186611984565b6001600160a01b0394909416606083015250608001529392505050565b634e487b7160e01b600052603160045260246000fd5b80516001600160701b0381168114611a7a57600080fd5b919050565b600080600060608486031215611a9457600080fd5b611a9d84611a63565b9250611aab60208501611a63565b9150604084015163ffffffff81168114611ac457600080fd5b80915050925092509256fea2646970667358221220bce23e3535ae2d648eea537b32646778827da20aad4d364ab22b833c67d52ecf64736f6c634300081a0033",
          "opcodes": "PUSH1 0xA0 PUSH1 0x40 MSTORE CALLVALUE DUP1 ISZERO PUSH2 0x10 JUMPI PUSH1 0x0 DUP1 REVERT JUMPDEST POP PUSH1 0x40 MLOAD PUSH2 0x1C1E CODESIZE SUB DUP1 PUSH2 0x1C1E DUP4 CODECOPY DUP2 ADD PUSH1 0x40 DUP2 SWAP1 MSTORE PUSH2 0x2F SWAP2 PUSH2 0xC7 JUMP JUMPDEST PUSH1 0x1 PUSH1 0x0 SSTORE CALLER DUP1 PUSH2 0x5A JUMPI PUSH1 0x40 MLOAD PUSH4 0x1E4FBDF7 PUSH1 0xE0 SHL DUP2 MSTORE PUSH1 0x0 PUSH1 0x4 DUP3 ADD MSTORE PUSH1 0x24 ADD PUSH1 0x40 MLOAD DUP1 SWAP2 SUB SWAP1 REVERT JUMPDEST PUSH2 0x63 DUP2 PUSH2 0x75 JUMP JUMPDEST POP PUSH1 0x1 PUSH1 0x1 PUSH1 0xA0 SHL SUB AND PUSH1 0x80 MSTORE PUSH2 0xF7 JUMP JUMPDEST PUSH1 0x1 DUP1 SLOAD PUSH1 0x1 PUSH1 0x1 PUSH1 0xA0 SHL SUB DUP4 DUP2 AND PUSH1 0x1 PUSH1 0x1 PUSH1 0xA0 SHL SUB NOT DUP4 AND DUP2 OR SWAP1 SWAP4 SSTORE PUSH1 0x40 MLOAD SWAP2 AND SWAP2 SWAP1 DUP3 SWAP1 PUSH32 0x8BE0079C531659141344CD1FD0A4F28419497F9722A3DAAFE3B4186F6B6457E0 SWAP1 PUSH1 0x0 SWAP1 LOG3 POP POP JUMP JUMPDEST PUSH1 0x0 PUSH1 0x20 DUP3 DUP5 SUB SLT ISZERO PUSH2 0xD9 JUMPI PUSH1 0x0 DUP1 REVERT JUMPDEST DUP2 MLOAD PUSH1 0x1 PUSH1 0x1 PUSH1 0xA0 SHL SUB DUP2 AND DUP2 EQ PUSH2 0xF0 JUMPI PUSH1 0x0 DUP1 REVERT JUMPDEST SWAP4 SWAP3 POP POP POP JUMP JUMPDEST PUSH1 0x80 MLOAD PUSH2 0x1B05 PUSH2 0x119 PUSH1 0x0 CODECOPY PUSH1 0x0 DUP2 DUP2 PUSH2 0x179 ADD MSTORE PUSH2 0x58E ADD MSTORE PUSH2 0x1B05 PUSH1 0x0 RETURN INVALID PUSH1 0x80 PUSH1 0x40 MSTORE PUSH1 0x4 CALLDATASIZE LT PUSH2 0xC6 JUMPI PUSH1 0x0 CALLDATALOAD PUSH1 0xE0 SHR DUP1 PUSH4 0x8C8F3F82 GT PUSH2 0x7F JUMPI DUP1 PUSH4 0xE1F1C4A7 GT PUSH2 0x59 JUMPI DUP1 PUSH4 0xE1F1C4A7 EQ PUSH2 0x274 JUMPI DUP1 PUSH4 0xE704D6C4 EQ PUSH2 0x28A JUMPI DUP1 PUSH4 0xF2FDE38B EQ PUSH2 0x2AA JUMPI DUP1 PUSH4 0xF9759518 EQ PUSH2 0x2CA JUMPI PUSH1 0x0 DUP1 REVERT JUMPDEST DUP1 PUSH4 0x8C8F3F82 EQ PUSH2 0x1B0 JUMPI DUP1 PUSH4 0x8DA5CB5B EQ PUSH2 0x1D0 JUMPI DUP1 PUSH4 0xA7CA71CA EQ PUSH2 0x1EE JUMPI PUSH1 0x0 DUP1 REVERT JUMPDEST DUP1 PUSH4 0x1C1DFBA EQ PUSH2 0xD2 JUMPI DUP1 PUSH4 0x4FC65751 EQ PUSH2 0xF4 JUMPI DUP1 PUSH4 0x715018A6 EQ PUSH2 0x131 JUMPI DUP1 PUSH4 0x815A1A0D EQ PUSH2 0x146 JUMPI DUP1 PUSH4 0x830562BC EQ PUSH2 0x167 JUMPI DUP1 PUSH4 0x84536017 EQ PUSH2 0x19B JUMPI PUSH1 0x0 DUP1 REVERT JUMPDEST CALLDATASIZE PUSH2 0xCD JUMPI STOP JUMPDEST PUSH1 0x0 DUP1 REVERT JUMPDEST CALLVALUE DUP1 ISZERO PUSH2 0xDE JUMPI PUSH1 0x0 DUP1 REVERT JUMPDEST POP PUSH2 0xF2 PUSH2 0xED CALLDATASIZE PUSH1 0x4 PUSH2 0x1781 JUMP JUMPDEST PUSH2 0x2E0 JUMP JUMPDEST STOP JUMPDEST CALLVALUE DUP1 ISZERO PUSH2 0x100 JUMPI PUSH1 0x0 DUP1 REVERT JUMPDEST POP PUSH2 0x114 PUSH2 0x10F CALLDATASIZE PUSH1 0x4 PUSH2 0x17F8 JUMP JUMPDEST PUSH2 0x491 JUMP JUMPDEST PUSH1 0x40 MLOAD PUSH1 0x1 PUSH1 0x1 PUSH1 0xA0 SHL SUB SWAP1 SWAP2 AND DUP2 MSTORE PUSH1 0x20 ADD JUMPDEST PUSH1 0x40 MLOAD DUP1 SWAP2 SUB SWAP1 RETURN JUMPDEST CALLVALUE DUP1 ISZERO PUSH2 0x13D JUMPI PUSH1 0x0 DUP1 REVERT JUMPDEST POP PUSH2 0xF2 PUSH2 0x4BB JUMP JUMPDEST PUSH2 0x159 PUSH2 0x154 CALLDATASIZE PUSH1 0x4 PUSH2 0x1834 JUMP JUMPDEST PUSH2 0x4CF JUMP JUMPDEST PUSH1 0x40 MLOAD SWAP1 DUP2 MSTORE PUSH1 0x20 ADD PUSH2 0x128 JUMP JUMPDEST CALLVALUE DUP1 ISZERO PUSH2 0x173 JUMPI PUSH1 0x0 DUP1 REVERT JUMPDEST POP PUSH2 0x114 PUSH32 0x0 DUP2 JUMP JUMPDEST CALLVALUE DUP1 ISZERO PUSH2 0x1A7 JUMPI PUSH1 0x0 DUP1 REVERT JUMPDEST POP PUSH2 0xF2 PUSH2 0xC53 JUMP JUMPDEST CALLVALUE DUP1 ISZERO PUSH2 0x1BC JUMPI PUSH1 0x0 DUP1 REVERT JUMPDEST POP PUSH2 0xF2 PUSH2 0x1CB CALLDATASIZE PUSH1 0x4 PUSH2 0x187E JUMP JUMPDEST PUSH2 0xD13 JUMP JUMPDEST CALLVALUE DUP1 ISZERO PUSH2 0x1DC JUMPI PUSH1 0x0 DUP1 REVERT JUMPDEST POP PUSH1 0x1 SLOAD PUSH1 0x1 PUSH1 0x1 PUSH1 0xA0 SHL SUB AND PUSH2 0x114 JUMP JUMPDEST CALLVALUE DUP1 ISZERO PUSH2 0x1FA JUMPI PUSH1 0x0 DUP1 REVERT JUMPDEST POP PUSH2 0x243 PUSH2 0x209 CALLDATASIZE PUSH1 0x4 PUSH2 0x187E JUMP JUMPDEST PUSH1 0x2 PUSH1 0x20 DUP2 SWAP1 MSTORE PUSH1 0x0 SWAP2 DUP3 MSTORE PUSH1 0x40 SWAP1 SWAP2 KECCAK256 DUP1 SLOAD PUSH1 0x1 DUP3 ADD SLOAD SWAP2 SWAP1 SWAP3 ADD SLOAD PUSH1 0x1 PUSH1 0x1 PUSH1 0xA0 SHL SUB SWAP3 DUP4 AND SWAP3 DUP3 AND SWAP2 PUSH1 0x1 PUSH1 0xA0 SHL SWAP1 DIV PUSH1 0xFF AND SWAP1 DUP5 JUMP JUMPDEST PUSH1 0x40 DUP1 MLOAD PUSH1 0x1 PUSH1 0x1 PUSH1 0xA0 SHL SUB SWAP6 DUP7 AND DUP2 MSTORE SWAP5 SWAP1 SWAP4 AND PUSH1 0x20 DUP6 ADD MSTORE SWAP1 ISZERO ISZERO SWAP2 DUP4 ADD SWAP2 SWAP1 SWAP2 MSTORE PUSH1 0x60 DUP3 ADD MSTORE PUSH1 0x80 ADD PUSH2 0x128 JUMP JUMPDEST CALLVALUE DUP1 ISZERO PUSH2 0x280 JUMPI PUSH1 0x0 DUP1 REVERT JUMPDEST POP PUSH2 0x159 PUSH2 0x2710 DUP2 JUMP JUMPDEST CALLVALUE DUP1 ISZERO PUSH2 0x296 JUMPI PUSH1 0x0 DUP1 REVERT JUMPDEST POP PUSH2 0xF2 PUSH2 0x2A5 CALLDATASIZE PUSH1 0x4 PUSH2 0x189B JUMP JUMPDEST PUSH2 0xED7 JUMP JUMPDEST CALLVALUE DUP1 ISZERO PUSH2 0x2B6 JUMPI PUSH1 0x0 DUP1 REVERT JUMPDEST POP PUSH2 0xF2 PUSH2 0x2C5 CALLDATASIZE PUSH1 0x4 PUSH2 0x187E JUMP JUMPDEST PUSH2 0x1132 JUMP JUMPDEST CALLVALUE DUP1 ISZERO PUSH2 0x2D6 JUMPI PUSH1 0x0 DUP1 REVERT JUMPDEST POP PUSH2 0x159 PUSH2 0x3E8 DUP2 JUMP JUMPDEST PUSH2 0x2E8 PUSH2 0x116D JUMP JUMPDEST SELFBALANCE DUP1 ISZERO PUSH2 0x3A2 JUMPI PUSH1 0x0 PUSH2 0x303 PUSH1 0x1 SLOAD PUSH1 0x1 PUSH1 0x1 PUSH1 0xA0 SHL SUB AND SWAP1 JUMP JUMPDEST PUSH1 0x1 PUSH1 0x1 PUSH1 0xA0 SHL SUB AND DUP3 PUSH1 0x40 MLOAD PUSH1 0x0 PUSH1 0x40 MLOAD DUP1 DUP4 SUB DUP2 DUP6 DUP8 GAS CALL SWAP3 POP POP POP RETURNDATASIZE DUP1 PUSH1 0x0 DUP2 EQ PUSH2 0x34D JUMPI PUSH1 0x40 MLOAD SWAP2 POP PUSH1 0x1F NOT PUSH1 0x3F RETURNDATASIZE ADD AND DUP3 ADD PUSH1 0x40 MSTORE RETURNDATASIZE DUP3 MSTORE RETURNDATASIZE PUSH1 0x0 PUSH1 0x20 DUP5 ADD RETURNDATACOPY PUSH2 0x352 JUMP JUMPDEST PUSH1 0x60 SWAP2 POP JUMPDEST POP POP SWAP1 POP DUP1 PUSH2 0x3A0 JUMPI PUSH1 0x40 MLOAD PUSH3 0x461BCD PUSH1 0xE5 SHL DUP2 MSTORE PUSH1 0x20 PUSH1 0x4 DUP3 ADD MSTORE PUSH1 0x15 PUSH1 0x24 DUP3 ADD MSTORE PUSH21 0x115512081DDA5D1A191C985DD85B0819985A5B1959 PUSH1 0x5A SHL PUSH1 0x44 DUP3 ADD MSTORE PUSH1 0x64 ADD JUMPDEST PUSH1 0x40 MLOAD DUP1 SWAP2 SUB SWAP1 REVERT JUMPDEST POP JUMPDEST PUSH1 0x0 JUMPDEST DUP3 DUP2 LT ISZERO PUSH2 0x48B JUMPI PUSH1 0x0 DUP5 DUP5 DUP4 DUP2 DUP2 LT PUSH2 0x3C1 JUMPI PUSH2 0x3C1 PUSH2 0x18EC JUMP JUMPDEST SWAP1 POP PUSH1 0x20 MUL ADD PUSH1 0x20 DUP2 ADD SWAP1 PUSH2 0x3D6 SWAP2 SWAP1 PUSH2 0x187E JUMP JUMPDEST SWAP1 POP PUSH1 0x1 PUSH1 0x1 PUSH1 0xA0 SHL SUB DUP2 AND ISZERO PUSH2 0x482 JUMPI PUSH1 0x40 MLOAD PUSH4 0x70A08231 PUSH1 0xE0 SHL DUP2 MSTORE ADDRESS PUSH1 0x4 DUP3 ADD MSTORE PUSH1 0x0 SWAP1 PUSH1 0x1 PUSH1 0x1 PUSH1 0xA0 SHL SUB DUP4 AND SWAP1 PUSH4 0x70A08231 SWAP1 PUSH1 0x24 ADD PUSH1 0x20 PUSH1 0x40 MLOAD DUP1 DUP4 SUB DUP2 DUP7 GAS STATICCALL ISZERO DUP1 ISZERO PUSH2 0x42E JUMPI RETURNDATASIZE PUSH1 0x0 DUP1 RETURNDATACOPY RETURNDATASIZE PUSH1 0x0 REVERT JUMPDEST POP POP POP POP PUSH1 0x40 MLOAD RETURNDATASIZE PUSH1 0x1F NOT PUSH1 0x1F DUP3 ADD AND DUP3 ADD DUP1 PUSH1 0x40 MSTORE POP DUP2 ADD SWAP1 PUSH2 0x452 SWAP2 SWAP1 PUSH2 0x1902 JUMP JUMPDEST SWAP1 POP DUP1 ISZERO PUSH2 0x480 JUMPI PUSH2 0x480 PUSH2 0x46F PUSH1 0x1 SLOAD PUSH1 0x1 PUSH1 0x1 PUSH1 0xA0 SHL SUB AND SWAP1 JUMP JUMPDEST PUSH1 0x1 PUSH1 0x1 PUSH1 0xA0 SHL SUB DUP5 AND SWAP1 DUP4 PUSH2 0x119A JUMP JUMPDEST POP JUMPDEST POP PUSH1 0x1 ADD PUSH2 0x3A5 JUMP JUMPDEST POP POP POP POP JUMP JUMPDEST PUSH1 0x3 DUP2 DUP2 SLOAD DUP2 LT PUSH2 0x4A1 JUMPI PUSH1 0x0 DUP1 REVERT JUMPDEST PUSH1 0x0 SWAP2 DUP3 MSTORE PUSH1 0x20 SWAP1 SWAP2 KECCAK256 ADD SLOAD PUSH1 0x1 PUSH1 0x1 PUSH1 0xA0 SHL SUB AND SWAP1 POP DUP2 JUMP JUMPDEST PUSH2 0x4C3 PUSH2 0x116D JUMP JUMPDEST PUSH2 0x4CD PUSH1 0x0 PUSH2 0x11FE JUMP JUMPDEST JUMP JUMPDEST PUSH1 0x0 PUSH2 0x4D9 PUSH2 0x1250 JUMP JUMPDEST PUSH1 0x1 PUSH1 0x1 PUSH1 0xA0 SHL SUB DUP6 AND PUSH2 0x51F JUMPI PUSH1 0x40 MLOAD PUSH3 0x461BCD PUSH1 0xE5 SHL DUP2 MSTORE PUSH1 0x20 PUSH1 0x4 DUP3 ADD MSTORE PUSH1 0xD PUSH1 0x24 DUP3 ADD MSTORE PUSH13 0x24B73B30B634B2103A37B5B2B7 PUSH1 0x99 SHL PUSH1 0x44 DUP3 ADD MSTORE PUSH1 0x64 ADD PUSH2 0x397 JUMP JUMPDEST PUSH1 0x0 DUP5 GT PUSH2 0x56F JUMPI PUSH1 0x40 MLOAD PUSH3 0x461BCD PUSH1 0xE5 SHL DUP2 MSTORE PUSH1 0x20 PUSH1 0x4 DUP3 ADD MSTORE PUSH1 0x1D PUSH1 0x24 DUP3 ADD MSTORE PUSH32 0x416D6F756E74206D7573742062652067726561746572207468616E2030000000 PUSH1 0x44 DUP3 ADD MSTORE PUSH1 0x64 ADD PUSH2 0x397 JUMP JUMPDEST PUSH1 0x40 MLOAD PUSH4 0x736B32B PUSH1 0xE3 SHL DUP2 MSTORE PUSH1 0x1 PUSH1 0x1 PUSH1 0xA0 SHL SUB DUP7 DUP2 AND PUSH1 0x4 DUP4 ADD MSTORE PUSH32 0x0 AND SWAP1 PUSH4 0x39B59958 SWAP1 PUSH1 0x24 ADD PUSH1 0x20 PUSH1 0x40 MLOAD DUP1 DUP4 SUB DUP2 DUP7 GAS STATICCALL ISZERO DUP1 ISZERO PUSH2 0x5D5 JUMPI RETURNDATASIZE PUSH1 0x0 DUP1 RETURNDATACOPY RETURNDATASIZE PUSH1 0x0 REVERT JUMPDEST POP POP POP POP PUSH1 0x40 MLOAD RETURNDATASIZE PUSH1 0x1F NOT PUSH1 0x1F DUP3 ADD AND DUP3 ADD DUP1 PUSH1 0x40 MSTORE POP DUP2 ADD SWAP1 PUSH2 0x5F9 SWAP2 SWAP1 PUSH2 0x191B JUMP JUMPDEST ISZERO PUSH2 0x639 JUMPI PUSH1 0x40 MLOAD PUSH3 0x461BCD PUSH1 0xE5 SHL DUP2 MSTORE PUSH1 0x20 PUSH1 0x4 DUP3 ADD MSTORE PUSH1 0x10 PUSH1 0x24 DUP3 ADD MSTORE PUSH16 0x151BDAD95B881A5CC8189B1BD8DAD959 PUSH1 0x82 SHL PUSH1 0x44 DUP3 ADD MSTORE PUSH1 0x64 ADD PUSH2 0x397 JUMP JUMPDEST DUP2 ISZERO PUSH2 0x69B JUMPI DUP4 CALLVALUE LT ISZERO PUSH2 0x69B JUMPI PUSH1 0x40 MLOAD PUSH3 0x461BCD PUSH1 0xE5 SHL DUP2 MSTORE PUSH1 0x20 PUSH1 0x4 DUP3 ADD MSTORE PUSH1 0x23 PUSH1 0x24 DUP3 ADD MSTORE PUSH32 0x496E73756666696369656E74204554482073656E7420666F7220627579206F72 PUSH1 0x44 DUP3 ADD MSTORE PUSH3 0x3232B9 PUSH1 0xE9 SHL PUSH1 0x64 DUP3 ADD MSTORE PUSH1 0x84 ADD PUSH2 0x397 JUMP JUMPDEST PUSH1 0x0 PUSH2 0x6A8 DUP7 DUP7 DUP6 PUSH2 0x127A JUMP JUMPDEST SWAP1 POP PUSH1 0x1 PUSH1 0x1 PUSH1 0xA0 SHL SUB DUP2 AND PUSH2 0x6F8 JUMPI PUSH1 0x40 MLOAD PUSH3 0x461BCD PUSH1 0xE5 SHL DUP2 MSTORE PUSH1 0x20 PUSH1 0x4 DUP3 ADD MSTORE PUSH1 0x15 PUSH1 0x24 DUP3 ADD MSTORE PUSH21 0x139BC81CDD5A5D18589B194811115608199BDD5B99 PUSH1 0x5A SHL PUSH1 0x44 DUP3 ADD MSTORE PUSH1 0x64 ADD PUSH2 0x397 JUMP JUMPDEST PUSH1 0x1 PUSH1 0x1 PUSH1 0xA0 SHL SUB DUP2 DUP2 AND PUSH1 0x0 SWAP1 DUP2 MSTORE PUSH1 0x2 PUSH1 0x20 DUP2 SWAP1 MSTORE PUSH1 0x40 DUP1 DUP4 KECCAK256 DUP1 SLOAD DUP3 MLOAD DUP5 DUP2 MSTORE PUSH1 0x60 DUP2 ADD SWAP1 SWAP4 MSTORE SWAP1 SWAP5 AND SWAP3 SWAP2 DUP2 PUSH1 0x20 ADD PUSH1 0x20 DUP3 MUL DUP1 CALLDATASIZE DUP4 CALLDATACOPY ADD SWAP1 POP POP SWAP1 POP DUP6 ISZERO PUSH2 0x80D JUMPI DUP2 PUSH1 0x1 PUSH1 0x1 PUSH1 0xA0 SHL SUB AND PUSH4 0xAD5C4648 PUSH1 0x40 MLOAD DUP2 PUSH4 0xFFFFFFFF AND PUSH1 0xE0 SHL DUP2 MSTORE PUSH1 0x4 ADD PUSH1 0x20 PUSH1 0x40 MLOAD DUP1 DUP4 SUB DUP2 DUP7 GAS STATICCALL ISZERO DUP1 ISZERO PUSH2 0x77D JUMPI RETURNDATASIZE PUSH1 0x0 DUP1 RETURNDATACOPY RETURNDATASIZE PUSH1 0x0 REVERT JUMPDEST POP POP POP POP PUSH1 0x40 MLOAD RETURNDATASIZE PUSH1 0x1F NOT PUSH1 0x1F DUP3 ADD AND DUP3 ADD DUP1 PUSH1 0x40 MSTORE POP DUP2 ADD SWAP1 PUSH2 0x7A1 SWAP2 SWAP1 PUSH2 0x1938 JUMP JUMPDEST DUP2 PUSH1 0x0 DUP2 MLOAD DUP2 LT PUSH2 0x7B4 JUMPI PUSH2 0x7B4 PUSH2 0x18EC JUMP JUMPDEST PUSH1 0x20 MUL PUSH1 0x20 ADD ADD SWAP1 PUSH1 0x1 PUSH1 0x1 PUSH1 0xA0 SHL SUB AND SWAP1 DUP2 PUSH1 0x1 PUSH1 0x1 PUSH1 0xA0 SHL SUB AND DUP2 MSTORE POP POP DUP9 DUP2 PUSH1 0x1 DUP2 MLOAD DUP2 LT PUSH2 0x7E8 JUMPI PUSH2 0x7E8 PUSH2 0x18EC JUMP JUMPDEST PUSH1 0x20 MUL PUSH1 0x20 ADD ADD SWAP1 PUSH1 0x1 PUSH1 0x1 PUSH1 0xA0 SHL SUB AND SWAP1 DUP2 PUSH1 0x1 PUSH1 0x1 PUSH1 0xA0 SHL SUB AND DUP2 MSTORE POP POP PUSH2 0x8D7 JUMP JUMPDEST DUP9 DUP2 PUSH1 0x0 DUP2 MLOAD DUP2 LT PUSH2 0x821 JUMPI PUSH2 0x821 PUSH2 0x18EC JUMP JUMPDEST PUSH1 0x20 MUL PUSH1 0x20 ADD ADD SWAP1 PUSH1 0x1 PUSH1 0x1 PUSH1 0xA0 SHL SUB AND SWAP1 DUP2 PUSH1 0x1 PUSH1 0x1 PUSH1 0xA0 SHL SUB AND DUP2 MSTORE POP POP DUP2 PUSH1 0x1 PUSH1 0x1 PUSH1 0xA0 SHL SUB AND PUSH4 0xAD5C4648 PUSH1 0x40 MLOAD DUP2 PUSH4 0xFFFFFFFF AND PUSH1 0xE0 SHL DUP2 MSTORE PUSH1 0x4 ADD PUSH1 0x20 PUSH1 0x40 MLOAD DUP1 DUP4 SUB DUP2 DUP7 GAS STATICCALL ISZERO DUP1 ISZERO PUSH2 0x87F JUMPI RETURNDATASIZE PUSH1 0x0 DUP1 RETURNDATACOPY RETURNDATASIZE PUSH1 0x0 REVERT JUMPDEST POP POP POP POP PUSH1 0x40 MLOAD RETURNDATASIZE PUSH1 0x1F NOT PUSH1 0x1F DUP3 ADD AND DUP3 ADD DUP1 PUSH1 0x40 MSTORE POP DUP2 ADD SWAP1 PUSH2 0x8A3 SWAP2 SWAP1 PUSH2 0x1938 JUMP JUMPDEST DUP2 PUSH1 0x1 DUP2 MLOAD DUP2 LT PUSH2 0x8B6 JUMPI PUSH2 0x8B6 PUSH2 0x18EC JUMP JUMPDEST PUSH1 0x20 MUL PUSH1 0x20 ADD ADD SWAP1 PUSH1 0x1 PUSH1 0x1 PUSH1 0xA0 SHL SUB AND SWAP1 DUP2 PUSH1 0x1 PUSH1 0x1 PUSH1 0xA0 SHL SUB AND DUP2 MSTORE POP POP JUMPDEST DUP6 ISZERO PUSH2 0xA3A JUMPI PUSH1 0x40 MLOAD PUSH4 0x70A08231 PUSH1 0xE0 SHL DUP2 MSTORE CALLER PUSH1 0x4 DUP3 ADD MSTORE PUSH1 0x0 SWAP1 PUSH1 0x1 PUSH1 0x1 PUSH1 0xA0 SHL SUB DUP12 AND SWAP1 PUSH4 0x70A08231 SWAP1 PUSH1 0x24 ADD PUSH1 0x20 PUSH1 0x40 MLOAD DUP1 DUP4 SUB DUP2 DUP7 GAS STATICCALL ISZERO DUP1 ISZERO PUSH2 0x924 JUMPI RETURNDATASIZE PUSH1 0x0 DUP1 RETURNDATACOPY RETURNDATASIZE PUSH1 0x0 REVERT JUMPDEST POP POP POP POP PUSH1 0x40 MLOAD RETURNDATASIZE PUSH1 0x1F NOT PUSH1 0x1F DUP3 ADD AND DUP3 ADD DUP1 PUSH1 0x40 MSTORE POP DUP2 ADD SWAP1 PUSH2 0x948 SWAP2 SWAP1 PUSH2 0x1902 JUMP JUMPDEST SWAP1 POP PUSH1 0x1 PUSH1 0x1 PUSH1 0xA0 SHL SUB DUP4 AND PUSH4 0xB6F9DE95 DUP11 DUP11 DUP6 CALLER PUSH2 0x969 TIMESTAMP PUSH2 0x12C PUSH2 0x196B JUMP JUMPDEST PUSH1 0x40 MLOAD DUP7 PUSH4 0xFFFFFFFF AND PUSH1 0xE0 SHL DUP2 MSTORE PUSH1 0x4 ADD PUSH2 0x988 SWAP5 SWAP4 SWAP3 SWAP2 SWAP1 PUSH2 0x19C9 JUMP JUMPDEST PUSH1 0x0 PUSH1 0x40 MLOAD DUP1 DUP4 SUB DUP2 DUP6 DUP9 DUP1 EXTCODESIZE ISZERO DUP1 ISZERO PUSH2 0x9A1 JUMPI PUSH1 0x0 DUP1 REVERT JUMPDEST POP GAS CALL ISZERO DUP1 ISZERO PUSH2 0x9B5 JUMPI RETURNDATASIZE PUSH1 0x0 DUP1 RETURNDATACOPY RETURNDATASIZE PUSH1 0x0 REVERT JUMPDEST POP POP PUSH1 0x40 MLOAD PUSH4 0x70A08231 PUSH1 0xE0 SHL DUP2 MSTORE CALLER PUSH1 0x4 DUP3 ADD MSTORE PUSH1 0x0 SWAP4 POP PUSH1 0x1 PUSH1 0x1 PUSH1 0xA0 SHL SUB DUP15 AND SWAP3 POP PUSH4 0x70A08231 SWAP2 POP PUSH1 0x24 ADD PUSH1 0x20 PUSH1 0x40 MLOAD DUP1 DUP4 SUB DUP2 DUP7 GAS STATICCALL ISZERO DUP1 ISZERO PUSH2 0xA01 JUMPI RETURNDATASIZE PUSH1 0x0 DUP1 RETURNDATACOPY RETURNDATASIZE PUSH1 0x0 REVERT JUMPDEST POP POP POP POP PUSH1 0x40 MLOAD RETURNDATASIZE PUSH1 0x1F NOT PUSH1 0x1F DUP3 ADD AND DUP3 ADD DUP1 PUSH1 0x40 MSTORE POP DUP2 ADD SWAP1 PUSH2 0xA25 SWAP2 SWAP1 PUSH2 0x1902 JUMP JUMPDEST SWAP1 POP PUSH2 0xA31 DUP3 DUP3 PUSH2 0x19FE JUMP JUMPDEST SWAP7 POP POP POP PUSH2 0xBDB JUMP JUMPDEST SELFBALANCE PUSH2 0xA50 PUSH1 0x1 PUSH1 0x1 PUSH1 0xA0 SHL SUB DUP12 AND CALLER ADDRESS DUP13 PUSH2 0x12E4 JUMP JUMPDEST DUP4 SLOAD PUSH1 0x40 MLOAD PUSH4 0x95EA7B3 PUSH1 0xE0 SHL DUP2 MSTORE PUSH1 0x1 PUSH1 0x1 PUSH1 0xA0 SHL SUB SWAP2 DUP3 AND PUSH1 0x4 DUP3 ADD MSTORE PUSH1 0x24 DUP2 ADD DUP12 SWAP1 MSTORE SWAP1 DUP12 AND SWAP1 PUSH4 0x95EA7B3 SWAP1 PUSH1 0x44 ADD PUSH1 0x20 PUSH1 0x40 MLOAD DUP1 DUP4 SUB DUP2 PUSH1 0x0 DUP8 GAS CALL ISZERO DUP1 ISZERO PUSH2 0xAA2 JUMPI RETURNDATASIZE PUSH1 0x0 DUP1 RETURNDATACOPY RETURNDATASIZE PUSH1 0x0 REVERT JUMPDEST POP POP POP POP PUSH1 0x40 MLOAD RETURNDATASIZE PUSH1 0x1F NOT PUSH1 0x1F DUP3 ADD AND DUP3 ADD DUP1 PUSH1 0x40 MSTORE POP DUP2 ADD SWAP1 PUSH2 0xAC6 SWAP2 SWAP1 PUSH2 0x191B JUMP JUMPDEST POP PUSH1 0x1 PUSH1 0x1 PUSH1 0xA0 SHL SUB DUP4 AND PUSH4 0x791AC947 DUP11 DUP11 DUP6 ADDRESS PUSH2 0xAE6 TIMESTAMP PUSH2 0x12C PUSH2 0x196B JUMP JUMPDEST PUSH1 0x40 MLOAD DUP7 PUSH4 0xFFFFFFFF AND PUSH1 0xE0 SHL DUP2 MSTORE PUSH1 0x4 ADD PUSH2 0xB06 SWAP6 SWAP5 SWAP4 SWAP3 SWAP2 SWAP1 PUSH2 0x1A11 JUMP JUMPDEST PUSH1 0x0 PUSH1 0x40 MLOAD DUP1 DUP4 SUB DUP2 PUSH1 0x0 DUP8 DUP1 EXTCODESIZE ISZERO DUP1 ISZERO PUSH2 0xB20 JUMPI PUSH1 0x0 DUP1 REVERT JUMPDEST POP GAS CALL ISZERO DUP1 ISZERO PUSH2 0xB34 JUMPI RETURNDATASIZE PUSH1 0x0 DUP1 RETURNDATACOPY RETURNDATASIZE PUSH1 0x0 REVERT JUMPDEST POP SELFBALANCE SWAP3 POP PUSH2 0xB46 SWAP2 POP DUP4 SWAP1 POP DUP3 PUSH2 0x19FE JUMP JUMPDEST PUSH1 0x40 MLOAD SWAP1 SWAP8 POP PUSH1 0x0 SWAP1 CALLER SWAP1 DUP10 SWAP1 DUP4 DUP2 DUP2 DUP2 DUP6 DUP8 GAS CALL SWAP3 POP POP POP RETURNDATASIZE DUP1 PUSH1 0x0 DUP2 EQ PUSH2 0xB8B JUMPI PUSH1 0x40 MLOAD SWAP2 POP PUSH1 0x1F NOT PUSH1 0x3F RETURNDATASIZE ADD AND DUP3 ADD PUSH1 0x40 MSTORE RETURNDATASIZE DUP3 MSTORE RETURNDATASIZE PUSH1 0x0 PUSH1 0x20 DUP5 ADD RETURNDATACOPY PUSH2 0xB90 JUMP JUMPDEST PUSH1 0x60 SWAP2 POP JUMPDEST POP POP SWAP1 POP DUP1 PUSH2 0xBD7 JUMPI PUSH1 0x40 MLOAD PUSH3 0x461BCD PUSH1 0xE5 SHL DUP2 MSTORE PUSH1 0x20 PUSH1 0x4 DUP3 ADD MSTORE PUSH1 0x13 PUSH1 0x24 DUP3 ADD MSTORE PUSH19 0x115512081D1C985B9CD9995C8819985A5B1959 PUSH1 0x6A SHL PUSH1 0x44 DUP3 ADD MSTORE PUSH1 0x64 ADD PUSH2 0x397 JUMP JUMPDEST POP POP POP JUMPDEST DUP4 PUSH1 0x1 PUSH1 0x1 PUSH1 0xA0 SHL SUB AND DUP10 PUSH1 0x1 PUSH1 0x1 PUSH1 0xA0 SHL SUB AND PUSH32 0xA5F8A4EF50801E7D44113FD9C467AEC2FA7583DC5344619557AE4FCD77BD043F DUP11 DUP9 DUP11 PUSH1 0x40 MLOAD PUSH2 0xC35 SWAP4 SWAP3 SWAP2 SWAP1 SWAP3 DUP4 MSTORE PUSH1 0x20 DUP4 ADD SWAP2 SWAP1 SWAP2 MSTORE ISZERO ISZERO PUSH1 0x40 DUP3 ADD MSTORE PUSH1 0x60 ADD SWAP1 JUMP JUMPDEST PUSH1 0x40 MLOAD DUP1 SWAP2 SUB SWAP1 LOG3 POP POP POP POP PUSH2 0xC4B PUSH1 0x1 PUSH1 0x0 SSTORE JUMP JUMPDEST SWAP5 SWAP4 POP POP POP POP JUMP JUMPDEST PUSH2 0xC5B PUSH2 0x116D JUMP JUMPDEST SELFBALANCE DUP1 ISZERO PUSH2 0xD10 JUMPI PUSH1 0x0 PUSH2 0xC76 PUSH1 0x1 SLOAD PUSH1 0x1 PUSH1 0x1 PUSH1 0xA0 SHL SUB AND SWAP1 JUMP JUMPDEST PUSH1 0x1 PUSH1 0x1 PUSH1 0xA0 SHL SUB AND DUP3 PUSH1 0x40 MLOAD PUSH1 0x0 PUSH1 0x40 MLOAD DUP1 DUP4 SUB DUP2 DUP6 DUP8 GAS CALL SWAP3 POP POP POP RETURNDATASIZE DUP1 PUSH1 0x0 DUP2 EQ PUSH2 0xCC0 JUMPI PUSH1 0x40 MLOAD SWAP2 POP PUSH1 0x1F NOT PUSH1 0x3F RETURNDATASIZE ADD AND DUP3 ADD PUSH1 0x40 MSTORE RETURNDATASIZE DUP3 MSTORE RETURNDATASIZE PUSH1 0x0 PUSH1 0x20 DUP5 ADD RETURNDATACOPY PUSH2 0xCC5 JUMP JUMPDEST PUSH1 0x60 SWAP2 POP JUMPDEST POP POP SWAP1 POP DUP1 PUSH2 0xD0E JUMPI PUSH1 0x40 MLOAD PUSH3 0x461BCD PUSH1 0xE5 SHL DUP2 MSTORE PUSH1 0x20 PUSH1 0x4 DUP3 ADD MSTORE PUSH1 0x15 PUSH1 0x24 DUP3 ADD MSTORE PUSH21 0x115512081DDA5D1A191C985DD85B0819985A5B1959 PUSH1 0x5A SHL PUSH1 0x44 DUP3 ADD MSTORE PUSH1 0x64 ADD PUSH2 0x397 JUMP JUMPDEST POP JUMPDEST POP JUMP JUMPDEST PUSH2 0xD1B PUSH2 0x116D JUMP JUMPDEST PUSH1 0x1 PUSH1 0x1 PUSH1 0xA0 SHL SUB DUP2 AND PUSH1 0x0 SWAP1 DUP2 MSTORE PUSH1 0x2 PUSH1 0x20 MSTORE PUSH1 0x40 SWAP1 KECCAK256 PUSH1 0x1 ADD SLOAD PUSH1 0x1 PUSH1 0xA0 SHL SWAP1 DIV PUSH1 0xFF AND PUSH2 0xD7D JUMPI PUSH1 0x40 MLOAD PUSH3 0x461BCD PUSH1 0xE5 SHL DUP2 MSTORE PUSH1 0x20 PUSH1 0x4 DUP3 ADD MSTORE PUSH1 0xD PUSH1 0x24 DUP3 ADD MSTORE PUSH13 0x111156081B9BDD08199BDD5B99 PUSH1 0x9A SHL PUSH1 0x44 DUP3 ADD MSTORE PUSH1 0x64 ADD PUSH2 0x397 JUMP JUMPDEST PUSH1 0x1 PUSH1 0x1 PUSH1 0xA0 SHL SUB DUP2 AND PUSH1 0x0 SWAP1 DUP2 MSTORE PUSH1 0x2 PUSH1 0x20 MSTORE PUSH1 0x40 DUP2 KECCAK256 PUSH1 0x1 ADD DUP1 SLOAD PUSH1 0xFF PUSH1 0xA0 SHL NOT AND SWAP1 SSTORE JUMPDEST PUSH1 0x3 SLOAD DUP2 LT ISZERO PUSH2 0xE9F JUMPI DUP2 PUSH1 0x1 PUSH1 0x1 PUSH1 0xA0 SHL SUB AND PUSH1 0x3 DUP3 DUP2 SLOAD DUP2 LT PUSH2 0xDCB JUMPI PUSH2 0xDCB PUSH2 0x18EC JUMP JUMPDEST PUSH1 0x0 SWAP2 DUP3 MSTORE PUSH1 0x20 SWAP1 SWAP2 KECCAK256 ADD SLOAD PUSH1 0x1 PUSH1 0x1 PUSH1 0xA0 SHL SUB AND SUB PUSH2 0xE97 JUMPI PUSH1 0x3 DUP1 SLOAD PUSH2 0xDF5 SWAP1 PUSH1 0x1 SWAP1 PUSH2 0x19FE JUMP JUMPDEST DUP2 SLOAD DUP2 LT PUSH2 0xE05 JUMPI PUSH2 0xE05 PUSH2 0x18EC JUMP JUMPDEST PUSH1 0x0 SWAP2 DUP3 MSTORE PUSH1 0x20 SWAP1 SWAP2 KECCAK256 ADD SLOAD PUSH1 0x3 DUP1 SLOAD PUSH1 0x1 PUSH1 0x1 PUSH1 0xA0 SHL SUB SWAP1 SWAP3 AND SWAP2 DUP4 SWAP1 DUP2 LT PUSH2 0xE31 JUMPI PUSH2 0xE31 PUSH2 0x18EC JUMP JUMPDEST SWAP1 PUSH1 0x0 MSTORE PUSH1 0x20 PUSH1 0x0 KECCAK256 ADD PUSH1 0x0 PUSH2 0x100 EXP DUP2 SLOAD DUP2 PUSH1 0x1 PUSH1 0x1 PUSH1 0xA0 SHL SUB MUL NOT AND SWAP1 DUP4 PUSH1 0x1 PUSH1 0x1 PUSH1 0xA0 SHL SUB AND MUL OR SWAP1 SSTORE POP PUSH1 0x3 DUP1 SLOAD DUP1 PUSH2 0xE70 JUMPI PUSH2 0xE70 PUSH2 0x1A4D JUMP JUMPDEST PUSH1 0x0 DUP3 DUP2 MSTORE PUSH1 0x20 SWAP1 KECCAK256 DUP2 ADD PUSH1 0x0 NOT SWAP1 DUP2 ADD DUP1 SLOAD PUSH1 0x1 PUSH1 0x1 PUSH1 0xA0 SHL SUB NOT AND SWAP1 SSTORE ADD SWAP1 SSTORE PUSH2 0xE9F JUMP JUMPDEST PUSH1 0x1 ADD PUSH2 0xDA4 JUMP JUMPDEST POP PUSH1 0x40 MLOAD PUSH1 0x1 PUSH1 0x1 PUSH1 0xA0 SHL SUB DUP3 AND SWAP1 PUSH32 0x1921BA6698157D491D41801286E9E17AEE1C25965119E55403BA396B104B95DB SWAP1 PUSH1 0x0 SWAP1 LOG2 POP JUMP JUMPDEST PUSH2 0xEDF PUSH2 0x116D JUMP JUMPDEST PUSH1 0x1 PUSH1 0x1 PUSH1 0xA0 SHL SUB DUP5 AND PUSH2 0xF23 JUMPI PUSH1 0x40 MLOAD PUSH3 0x461BCD PUSH1 0xE5 SHL DUP2 MSTORE PUSH1 0x20 PUSH1 0x4 DUP3 ADD MSTORE PUSH1 0xB PUSH1 0x24 DUP3 ADD MSTORE PUSH11 0x92DCECC2D8D2C840888AB PUSH1 0xAB SHL PUSH1 0x44 DUP3 ADD MSTORE PUSH1 0x64 ADD PUSH2 0x397 JUMP JUMPDEST PUSH1 0x1 PUSH1 0x1 PUSH1 0xA0 SHL SUB DUP4 AND PUSH2 0xF6A JUMPI PUSH1 0x40 MLOAD PUSH3 0x461BCD PUSH1 0xE5 SHL DUP2 MSTORE PUSH1 0x20 PUSH1 0x4 DUP3 ADD MSTORE PUSH1 0xE PUSH1 0x24 DUP3 ADD MSTORE PUSH14 0x24B73B30B634B2103937BABA32B9 PUSH1 0x91 SHL PUSH1 0x44 DUP3 ADD MSTORE PUSH1 0x64 ADD PUSH2 0x397 JUMP JUMPDEST PUSH1 0x1 PUSH1 0x1 PUSH1 0xA0 SHL SUB DUP3 AND PUSH2 0xFB2 JUMPI PUSH1 0x40 MLOAD PUSH3 0x461BCD PUSH1 0xE5 SHL DUP2 MSTORE PUSH1 0x20 PUSH1 0x4 DUP3 ADD MSTORE PUSH1 0xF PUSH1 0x24 DUP3 ADD MSTORE PUSH15 0x496E76616C696420666163746F7279 PUSH1 0x88 SHL PUSH1 0x44 DUP3 ADD MSTORE PUSH1 0x64 ADD PUSH2 0x397 JUMP JUMPDEST PUSH1 0x1 PUSH1 0x1 PUSH1 0xA0 SHL SUB DUP5 AND PUSH1 0x0 SWAP1 DUP2 MSTORE PUSH1 0x2 PUSH1 0x20 MSTORE PUSH1 0x40 SWAP1 KECCAK256 PUSH1 0x1 ADD SLOAD PUSH1 0x1 PUSH1 0xA0 SHL SWAP1 DIV PUSH1 0xFF AND ISZERO PUSH2 0x101A JUMPI PUSH1 0x40 MLOAD PUSH3 0x461BCD PUSH1 0xE5 SHL DUP2 MSTORE PUSH1 0x20 PUSH1 0x4 DUP3 ADD MSTORE PUSH1 0x12 PUSH1 0x24 DUP3 ADD MSTORE PUSH18 0x44455820616C726561647920657869737473 PUSH1 0x70 SHL PUSH1 0x44 DUP3 ADD MSTORE PUSH1 0x64 ADD PUSH2 0x397 JUMP JUMPDEST PUSH1 0x40 DUP1 MLOAD PUSH1 0x80 DUP2 ADD DUP3 MSTORE PUSH1 0x1 PUSH1 0x1 PUSH1 0xA0 SHL SUB DUP1 DUP7 AND DUP3 MSTORE DUP5 DUP2 AND PUSH1 0x20 DUP1 DUP5 ADD SWAP2 DUP3 MSTORE PUSH1 0x1 DUP5 DUP7 ADD DUP2 DUP2 MSTORE PUSH1 0x60 DUP7 ADD DUP9 DUP2 MSTORE DUP12 DUP7 AND PUSH1 0x0 DUP2 DUP2 MSTORE PUSH1 0x2 SWAP6 DUP7 SWAP1 MSTORE SWAP9 DUP10 KECCAK256 SWAP8 MLOAD DUP9 SLOAD SWAP1 DUP9 AND PUSH1 0x1 PUSH1 0x1 PUSH1 0xA0 SHL SUB NOT SWAP2 DUP3 AND OR DUP10 SSTORE SWAP6 MLOAD DUP9 DUP6 ADD DUP1 SLOAD SWAP5 MLOAD ISZERO ISZERO PUSH1 0x1 PUSH1 0xA0 SHL MUL PUSH1 0x1 PUSH1 0x1 PUSH1 0xA8 SHL SUB NOT SWAP1 SWAP6 AND SWAP2 SWAP1 SWAP9 AND OR SWAP3 SWAP1 SWAP3 OR SWAP1 SWAP6 SSTORE SWAP4 MLOAD SWAP5 SWAP1 SWAP2 ADD SWAP4 SWAP1 SWAP4 SSTORE PUSH1 0x3 DUP1 SLOAD SWAP4 DUP5 ADD DUP2 SSTORE SWAP1 SWAP4 MSTORE PUSH32 0xC2575A0E9E593C00F959F8C92F12DB2869C3395A3B0502D05E2516446F71F85B SWAP1 SWAP2 ADD DUP1 SLOAD SWAP1 SWAP3 AND OR SWAP1 SSTORE PUSH2 0x10E5 PUSH2 0x131D JUMP JUMPDEST PUSH1 0x40 DUP1 MLOAD PUSH1 0x1 PUSH1 0x1 PUSH1 0xA0 SHL SUB DUP6 DUP2 AND DUP3 MSTORE DUP5 DUP2 AND PUSH1 0x20 DUP4 ADD MSTORE DUP7 AND SWAP2 PUSH32 0x2161D26DD2E031506BEE289A523ABC3337BFA101A08626541F6978F76048EAC7 SWAP2 ADD PUSH1 0x40 MLOAD DUP1 SWAP2 SUB SWAP1 LOG2 POP POP POP POP JUMP JUMPDEST PUSH2 0x113A PUSH2 0x116D JUMP JUMPDEST PUSH1 0x1 PUSH1 0x1 PUSH1 0xA0 SHL SUB DUP2 AND PUSH2 0x1164 JUMPI PUSH1 0x40 MLOAD PUSH4 0x1E4FBDF7 PUSH1 0xE0 SHL DUP2 MSTORE PUSH1 0x0 PUSH1 0x4 DUP3 ADD MSTORE PUSH1 0x24 ADD PUSH2 0x397 JUMP JUMPDEST PUSH2 0xD10 DUP2 PUSH2 0x11FE JUMP JUMPDEST PUSH1 0x1 SLOAD PUSH1 0x1 PUSH1 0x1 PUSH1 0xA0 SHL SUB AND CALLER EQ PUSH2 0x4CD JUMPI PUSH1 0x40 MLOAD PUSH4 0x118CDAA7 PUSH1 0xE0 SHL DUP2 MSTORE CALLER PUSH1 0x4 DUP3 ADD MSTORE PUSH1 0x24 ADD PUSH2 0x397 JUMP JUMPDEST PUSH1 0x40 MLOAD PUSH1 0x1 PUSH1 0x1 PUSH1 0xA0 SHL SUB DUP4 DUP2 AND PUSH1 0x24 DUP4 ADD MSTORE PUSH1 0x44 DUP3 ADD DUP4 SWAP1 MSTORE PUSH2 0x11F9 SWAP2 DUP6 SWAP2 DUP3 AND SWAP1 PUSH4 0xA9059CBB SWAP1 PUSH1 0x64 ADD JUMPDEST PUSH1 0x40 MLOAD PUSH1 0x20 DUP2 DUP4 SUB SUB DUP2 MSTORE SWAP1 PUSH1 0x40 MSTORE SWAP2 POP PUSH1 0xE0 SHL PUSH1 0x20 DUP3 ADD DUP1 MLOAD PUSH1 0x1 PUSH1 0x1 PUSH1 0xE0 SHL SUB DUP4 DUP2 DUP4 AND OR DUP4 MSTORE POP POP POP POP PUSH2 0x14DC JUMP JUMPDEST POP POP POP JUMP JUMPDEST PUSH1 0x1 DUP1 SLOAD PUSH1 0x1 PUSH1 0x1 PUSH1 0xA0 SHL SUB DUP4 DUP2 AND PUSH1 0x1 PUSH1 0x1 PUSH1 0xA0 SHL SUB NOT DUP4 AND DUP2 OR SWAP1 SWAP4 SSTORE PUSH1 0x40 MLOAD SWAP2 AND SWAP2 SWAP1 DUP3 SWAP1 PUSH32 0x8BE0079C531659141344CD1FD0A4F28419497F9722A3DAAFE3B4186F6B6457E0 SWAP1 PUSH1 0x0 SWAP1 LOG3 POP POP JUMP JUMPDEST PUSH1 0x2 PUSH1 0x0 SLOAD SUB PUSH2 0x1273 JUMPI PUSH1 0x40 MLOAD PUSH4 0x3EE5AEB5 PUSH1 0xE0 SHL DUP2 MSTORE PUSH1 0x4 ADD PUSH1 0x40 MLOAD DUP1 SWAP2 SUB SWAP1 REVERT JUMPDEST PUSH1 0x2 PUSH1 0x0 SSTORE JUMP JUMPDEST PUSH1 0x0 DUP1 JUMPDEST PUSH1 0x3 SLOAD DUP2 LT ISZERO PUSH2 0x12D7 JUMPI PUSH1 0x0 PUSH1 0x3 DUP3 DUP2 SLOAD DUP2 LT PUSH2 0x129D JUMPI PUSH2 0x129D PUSH2 0x18EC JUMP JUMPDEST PUSH1 0x0 SWAP2 DUP3 MSTORE PUSH1 0x20 SWAP1 SWAP2 KECCAK256 ADD SLOAD PUSH1 0x1 PUSH1 0x1 PUSH1 0xA0 SHL SUB AND SWAP1 POP PUSH2 0x12C0 DUP2 DUP8 DUP8 DUP8 PUSH2 0x154D JUMP JUMPDEST ISZERO PUSH2 0x12CE JUMPI SWAP2 POP PUSH2 0x12DD SWAP1 POP JUMP JUMPDEST POP PUSH1 0x1 ADD PUSH2 0x127E JUMP JUMPDEST POP PUSH1 0x0 SWAP1 POP JUMPDEST SWAP4 SWAP3 POP POP POP JUMP JUMPDEST PUSH1 0x40 MLOAD PUSH1 0x1 PUSH1 0x1 PUSH1 0xA0 SHL SUB DUP5 DUP2 AND PUSH1 0x24 DUP4 ADD MSTORE DUP4 DUP2 AND PUSH1 0x44 DUP4 ADD MSTORE PUSH1 0x64 DUP3 ADD DUP4 SWAP1 MSTORE PUSH2 0x48B SWAP2 DUP7 SWAP2 DUP3 AND SWAP1 PUSH4 0x23B872DD SWAP1 PUSH1 0x84 ADD PUSH2 0x11C7 JUMP JUMPDEST PUSH1 0x0 JUMPDEST PUSH1 0x3 SLOAD DUP2 LT ISZERO PUSH2 0xD10 JUMPI PUSH1 0x0 JUMPDEST PUSH1 0x3 SLOAD PUSH1 0x1 SWAP1 PUSH2 0x133E SWAP1 DUP5 SWAP1 PUSH2 0x19FE JUMP JUMPDEST PUSH2 0x1348 SWAP2 SWAP1 PUSH2 0x19FE JUMP JUMPDEST DUP2 LT ISZERO PUSH2 0x14D3 JUMPI PUSH1 0x2 PUSH1 0x0 PUSH1 0x3 PUSH2 0x1360 DUP5 PUSH1 0x1 PUSH2 0x196B JUMP JUMPDEST DUP2 SLOAD DUP2 LT PUSH2 0x1370 JUMPI PUSH2 0x1370 PUSH2 0x18EC JUMP JUMPDEST PUSH1 0x0 SWAP2 DUP3 MSTORE PUSH1 0x20 DUP1 DUP4 KECCAK256 SWAP1 SWAP2 ADD SLOAD PUSH1 0x1 PUSH1 0x1 PUSH1 0xA0 SHL SUB AND DUP4 MSTORE DUP3 ADD SWAP3 SWAP1 SWAP3 MSTORE PUSH1 0x40 ADD DUP2 KECCAK256 PUSH1 0x2 SWAP1 DUP2 ADD SLOAD PUSH1 0x3 DUP1 SLOAD SWAP2 SWAP4 SWAP2 DUP6 SWAP1 DUP2 LT PUSH2 0x13B1 JUMPI PUSH2 0x13B1 PUSH2 0x18EC JUMP JUMPDEST PUSH1 0x0 SWAP2 DUP3 MSTORE PUSH1 0x20 DUP1 DUP4 KECCAK256 SWAP1 SWAP2 ADD SLOAD PUSH1 0x1 PUSH1 0x1 PUSH1 0xA0 SHL SUB AND DUP4 MSTORE DUP3 ADD SWAP3 SWAP1 SWAP3 MSTORE PUSH1 0x40 ADD SWAP1 KECCAK256 PUSH1 0x2 ADD SLOAD GT ISZERO PUSH2 0x14CB JUMPI PUSH1 0x0 PUSH1 0x3 DUP3 DUP2 SLOAD DUP2 LT PUSH2 0x13F4 JUMPI PUSH2 0x13F4 PUSH2 0x18EC JUMP JUMPDEST PUSH1 0x0 SWAP2 DUP3 MSTORE PUSH1 0x20 SWAP1 SWAP2 KECCAK256 ADD SLOAD PUSH1 0x1 PUSH1 0x1 PUSH1 0xA0 SHL SUB AND SWAP1 POP PUSH1 0x3 PUSH2 0x1418 DUP4 PUSH1 0x1 PUSH2 0x196B JUMP JUMPDEST DUP2 SLOAD DUP2 LT PUSH2 0x1428 JUMPI PUSH2 0x1428 PUSH2 0x18EC JUMP JUMPDEST PUSH1 0x0 SWAP2 DUP3 MSTORE PUSH1 0x20 SWAP1 SWAP2 KECCAK256 ADD SLOAD PUSH1 0x3 DUP1 SLOAD PUSH1 0x1 PUSH1 0x1 PUSH1 0xA0 SHL SUB SWAP1 SWAP3 AND SWAP2 DUP5 SWAP1 DUP2 LT PUSH2 0x1454 JUMPI PUSH2 0x1454 PUSH2 0x18EC JUMP JUMPDEST PUSH1 0x0 SWAP2 DUP3 MSTORE PUSH1 0x20 SWAP1 SWAP2 KECCAK256 ADD DUP1 SLOAD PUSH1 0x1 PUSH1 0x1 PUSH1 0xA0 SHL SUB NOT AND PUSH1 0x1 PUSH1 0x1 PUSH1 0xA0 SHL SUB SWAP3 SWAP1 SWAP3 AND SWAP2 SWAP1 SWAP2 OR SWAP1 SSTORE DUP1 PUSH1 0x3 PUSH2 0x148B DUP5 PUSH1 0x1 PUSH2 0x196B JUMP JUMPDEST DUP2 SLOAD DUP2 LT PUSH2 0x149B JUMPI PUSH2 0x149B PUSH2 0x18EC JUMP JUMPDEST SWAP1 PUSH1 0x0 MSTORE PUSH1 0x20 PUSH1 0x0 KECCAK256 ADD PUSH1 0x0 PUSH2 0x100 EXP DUP2 SLOAD DUP2 PUSH1 0x1 PUSH1 0x1 PUSH1 0xA0 SHL SUB MUL NOT AND SWAP1 DUP4 PUSH1 0x1 PUSH1 0x1 PUSH1 0xA0 SHL SUB AND MUL OR SWAP1 SSTORE POP POP JUMPDEST PUSH1 0x1 ADD PUSH2 0x132D JUMP JUMPDEST POP PUSH1 0x1 ADD PUSH2 0x1320 JUMP JUMPDEST PUSH1 0x0 DUP1 PUSH1 0x20 PUSH1 0x0 DUP5 MLOAD PUSH1 0x20 DUP7 ADD PUSH1 0x0 DUP9 GAS CALL DUP1 PUSH2 0x14FF JUMPI PUSH1 0x40 MLOAD RETURNDATASIZE PUSH1 0x0 DUP3 RETURNDATACOPY RETURNDATASIZE DUP2 REVERT JUMPDEST POP POP PUSH1 0x0 MLOAD RETURNDATASIZE SWAP2 POP DUP2 ISZERO PUSH2 0x1517 JUMPI DUP1 PUSH1 0x1 EQ ISZERO PUSH2 0x1524 JUMP JUMPDEST PUSH1 0x1 PUSH1 0x1 PUSH1 0xA0 SHL SUB DUP5 AND EXTCODESIZE ISZERO JUMPDEST ISZERO PUSH2 0x48B JUMPI PUSH1 0x40 MLOAD PUSH4 0x5274AFE7 PUSH1 0xE0 SHL DUP2 MSTORE PUSH1 0x1 PUSH1 0x1 PUSH1 0xA0 SHL SUB DUP6 AND PUSH1 0x4 DUP3 ADD MSTORE PUSH1 0x24 ADD PUSH2 0x397 JUMP JUMPDEST PUSH1 0x1 PUSH1 0x1 PUSH1 0xA0 SHL SUB DUP5 AND PUSH1 0x0 SWAP1 DUP2 MSTORE PUSH1 0x2 PUSH1 0x20 MSTORE PUSH1 0x40 DUP2 KECCAK256 PUSH1 0x1 DUP2 ADD SLOAD PUSH1 0x1 PUSH1 0xA0 SHL SWAP1 DIV PUSH1 0xFF AND PUSH2 0x1582 JUMPI PUSH1 0x0 SWAP2 POP POP PUSH2 0xC4B JUMP JUMPDEST DUP1 SLOAD PUSH1 0x40 DUP1 MLOAD PUSH4 0x15AB88C9 PUSH1 0xE3 SHL DUP2 MSTORE SWAP1 MLOAD PUSH1 0x1 PUSH1 0x1 PUSH1 0xA0 SHL SUB SWAP1 SWAP3 AND SWAP2 PUSH1 0x0 SWAP2 DUP4 SWAP2 PUSH4 0xAD5C4648 SWAP2 PUSH1 0x4 DUP1 DUP3 ADD SWAP3 PUSH1 0x20 SWAP3 SWAP1 SWAP2 SWAP1 DUP3 SWAP1 SUB ADD DUP2 DUP7 GAS STATICCALL ISZERO DUP1 ISZERO PUSH2 0x15D0 JUMPI RETURNDATASIZE PUSH1 0x0 DUP1 RETURNDATACOPY RETURNDATASIZE PUSH1 0x0 REVERT JUMPDEST POP POP POP POP PUSH1 0x40 MLOAD RETURNDATASIZE PUSH1 0x1F NOT PUSH1 0x1F DUP3 ADD AND DUP3 ADD DUP1 PUSH1 0x40 MSTORE POP DUP2 ADD SWAP1 PUSH2 0x15F4 SWAP2 SWAP1 PUSH2 0x1938 JUMP JUMPDEST PUSH1 0x1 DUP5 ADD SLOAD PUSH1 0x40 MLOAD PUSH4 0xE6A43905 PUSH1 0xE0 SHL DUP2 MSTORE PUSH1 0x1 PUSH1 0x1 PUSH1 0xA0 SHL SUB DUP11 DUP2 AND PUSH1 0x4 DUP4 ADD MSTORE DUP1 DUP5 AND PUSH1 0x24 DUP4 ADD MSTORE SWAP3 SWAP4 POP PUSH1 0x0 SWAP3 SWAP1 SWAP2 AND SWAP1 PUSH4 0xE6A43905 SWAP1 PUSH1 0x44 ADD PUSH1 0x20 PUSH1 0x40 MLOAD DUP1 DUP4 SUB DUP2 DUP7 GAS STATICCALL ISZERO DUP1 ISZERO PUSH2 0x164E JUMPI RETURNDATASIZE PUSH1 0x0 DUP1 RETURNDATACOPY RETURNDATASIZE PUSH1 0x0 REVERT JUMPDEST POP POP POP POP PUSH1 0x40 MLOAD RETURNDATASIZE PUSH1 0x1F NOT PUSH1 0x1F DUP3 ADD AND DUP3 ADD DUP1 PUSH1 0x40 MSTORE POP DUP2 ADD SWAP1 PUSH2 0x1672 SWAP2 SWAP1 PUSH2 0x1938 JUMP JUMPDEST SWAP1 POP PUSH1 0x1 PUSH1 0x1 PUSH1 0xA0 SHL SUB DUP2 AND PUSH2 0x168F JUMPI PUSH1 0x0 SWAP5 POP POP POP POP POP PUSH2 0xC4B JUMP JUMPDEST PUSH1 0x0 DUP1 DUP3 PUSH1 0x1 PUSH1 0x1 PUSH1 0xA0 SHL SUB AND PUSH4 0x902F1AC PUSH1 0x40 MLOAD DUP2 PUSH4 0xFFFFFFFF AND PUSH1 0xE0 SHL DUP2 MSTORE PUSH1 0x4 ADD PUSH1 0x60 PUSH1 0x40 MLOAD DUP1 DUP4 SUB DUP2 DUP7 GAS STATICCALL ISZERO DUP1 ISZERO PUSH2 0x16D0 JUMPI RETURNDATASIZE PUSH1 0x0 DUP1 RETURNDATACOPY RETURNDATASIZE PUSH1 0x0 REVERT JUMPDEST POP POP POP POP PUSH1 0x40 MLOAD RETURNDATASIZE PUSH1 0x1F NOT PUSH1 0x1F DUP3 ADD AND DUP3 ADD DUP1 PUSH1 0x40 MSTORE POP DUP2 ADD SWAP1 PUSH2 0x16F4 SWAP2 SWAP1 PUSH2 0x1A7F JUMP JUMPDEST POP SWAP2 POP SWAP2 POP PUSH1 0x0 DUP5 PUSH1 0x1 PUSH1 0x1 PUSH1 0xA0 SHL SUB AND DUP12 PUSH1 0x1 PUSH1 0x1 PUSH1 0xA0 SHL SUB AND LT PUSH2 0x171A JUMPI DUP2 PUSH2 0x171C JUMP JUMPDEST DUP3 JUMPDEST PUSH1 0x1 PUSH1 0x1 PUSH1 0x70 SHL SUB AND SWAP1 POP PUSH1 0x0 DUP6 PUSH1 0x1 PUSH1 0x1 PUSH1 0xA0 SHL SUB AND DUP13 PUSH1 0x1 PUSH1 0x1 PUSH1 0xA0 SHL SUB AND LT PUSH2 0x1748 JUMPI DUP4 PUSH2 0x174A JUMP JUMPDEST DUP3 JUMPDEST PUSH1 0x1 PUSH1 0x1 PUSH1 0x70 SHL SUB AND SWAP1 POP DUP10 ISZERO PUSH2 0x176E JUMPI DUP11 DUP2 LT ISZERO SWAP9 POP POP POP POP POP POP POP POP POP PUSH2 0xC4B JUMP JUMPDEST DUP11 DUP3 LT ISZERO SWAP9 POP POP POP POP POP POP POP POP POP PUSH2 0xC4B JUMP JUMPDEST PUSH1 0x0 DUP1 PUSH1 0x20 DUP4 DUP6 SUB SLT ISZERO PUSH2 0x1794 JUMPI PUSH1 0x0 DUP1 REVERT JUMPDEST DUP3 CALLDATALOAD PUSH8 0xFFFFFFFFFFFFFFFF DUP2 GT ISZERO PUSH2 0x17AB JUMPI PUSH1 0x0 DUP1 REVERT JUMPDEST DUP4 ADD PUSH1 0x1F DUP2 ADD DUP6 SGT PUSH2 0x17BC JUMPI PUSH1 0x0 DUP1 REVERT JUMPDEST DUP1 CALLDATALOAD PUSH8 0xFFFFFFFFFFFFFFFF DUP2 GT ISZERO PUSH2 0x17D3 JUMPI PUSH1 0x0 DUP1 REVERT JUMPDEST DUP6 PUSH1 0x20 DUP3 PUSH1 0x5 SHL DUP5 ADD ADD GT ISZERO PUSH2 0x17E8 JUMPI PUSH1 0x0 DUP1 REVERT JUMPDEST PUSH1 0x20 SWAP2 SWAP1 SWAP2 ADD SWAP6 SWAP1 SWAP5 POP SWAP3 POP POP POP JUMP JUMPDEST PUSH1 0x0 PUSH1 0x20 DUP3 DUP5 SUB SLT ISZERO PUSH2 0x180A JUMPI PUSH1 0x0 DUP1 REVERT JUMPDEST POP CALLDATALOAD SWAP2 SWAP1 POP JUMP JUMPDEST PUSH1 0x1 PUSH1 0x1 PUSH1 0xA0 SHL SUB DUP2 AND DUP2 EQ PUSH2 0xD10 JUMPI PUSH1 0x0 DUP1 REVERT JUMPDEST DUP1 ISZERO ISZERO DUP2 EQ PUSH2 0xD10 JUMPI PUSH1 0x0 DUP1 REVERT JUMPDEST PUSH1 0x0 DUP1 PUSH1 0x0 DUP1 PUSH1 0x80 DUP6 DUP8 SUB SLT ISZERO PUSH2 0x184A JUMPI PUSH1 0x0 DUP1 REVERT JUMPDEST DUP5 CALLDATALOAD PUSH2 0x1855 DUP2 PUSH2 0x1811 JUMP JUMPDEST SWAP4 POP PUSH1 0x20 DUP6 ADD CALLDATALOAD SWAP3 POP PUSH1 0x40 DUP6 ADD CALLDATALOAD SWAP2 POP PUSH1 0x60 DUP6 ADD CALLDATALOAD PUSH2 0x1873 DUP2 PUSH2 0x1826 JUMP JUMPDEST SWAP4 SWAP7 SWAP3 SWAP6 POP SWAP1 SWAP4 POP POP JUMP JUMPDEST PUSH1 0x0 PUSH1 0x20 DUP3 DUP5 SUB SLT ISZERO PUSH2 0x1890 JUMPI PUSH1 0x0 DUP1 REVERT JUMPDEST DUP2 CALLDATALOAD PUSH2 0x12DD DUP2 PUSH2 0x1811 JUMP JUMPDEST PUSH1 0x0 DUP1 PUSH1 0x0 DUP1 PUSH1 0x80 DUP6 DUP8 SUB SLT ISZERO PUSH2 0x18B1 JUMPI PUSH1 0x0 DUP1 REVERT JUMPDEST DUP5 CALLDATALOAD PUSH2 0x18BC DUP2 PUSH2 0x1811 JUMP JUMPDEST SWAP4 POP PUSH1 0x20 DUP6 ADD CALLDATALOAD PUSH2 0x18CC DUP2 PUSH2 0x1811 JUMP JUMPDEST SWAP3 POP PUSH1 0x40 DUP6 ADD CALLDATALOAD PUSH2 0x18DC DUP2 PUSH2 0x1811 JUMP JUMPDEST SWAP4 SWAP7 SWAP3 SWAP6 POP SWAP3 SWAP4 PUSH1 0x60 ADD CALLDATALOAD SWAP3 POP POP JUMP JUMPDEST PUSH4 0x4E487B71 PUSH1 0xE0 SHL PUSH1 0x0 MSTORE PUSH1 0x32 PUSH1 0x4 MSTORE PUSH1 0x24 PUSH1 0x0 REVERT JUMPDEST PUSH1 0x0 PUSH1 0x20 DUP3 DUP5 SUB SLT ISZERO PUSH2 0x1914 JUMPI PUSH1 0x0 DUP1 REVERT JUMPDEST POP MLOAD SWAP2 SWAP1 POP JUMP JUMPDEST PUSH1 0x0 PUSH1 0x20 DUP3 DUP5 SUB SLT ISZERO PUSH2 0x192D JUMPI PUSH1 0x0 DUP1 REVERT JUMPDEST DUP2 MLOAD PUSH2 0x12DD DUP2 PUSH2 0x1826 JUMP JUMPDEST PUSH1 0x0 PUSH1 0x20 DUP3 DUP5 SUB SLT ISZERO PUSH2 0x194A JUMPI PUSH1 0x0 DUP1 REVERT JUMPDEST DUP2 MLOAD PUSH2 0x12DD DUP2 PUSH2 0x1811 JUMP JUMPDEST PUSH4 0x4E487B71 PUSH1 0xE0 SHL PUSH1 0x0 MSTORE PUSH1 0x11 PUSH1 0x4 MSTORE PUSH1 0x24 PUSH1 0x0 REVERT JUMPDEST DUP1 DUP3 ADD DUP1 DUP3 GT ISZERO PUSH2 0x197E JUMPI PUSH2 0x197E PUSH2 0x1955 JUMP JUMPDEST SWAP3 SWAP2 POP POP JUMP JUMPDEST PUSH1 0x0 DUP2 MLOAD DUP1 DUP5 MSTORE PUSH1 0x20 DUP5 ADD SWAP4 POP PUSH1 0x20 DUP4 ADD PUSH1 0x0 JUMPDEST DUP3 DUP2 LT ISZERO PUSH2 0x19BF JUMPI DUP2 MLOAD PUSH1 0x1 PUSH1 0x1 PUSH1 0xA0 SHL SUB AND DUP7 MSTORE PUSH1 0x20 SWAP6 DUP7 ADD SWAP6 SWAP1 SWAP2 ADD SWAP1 PUSH1 0x1 ADD PUSH2 0x1998 JUMP JUMPDEST POP SWAP4 SWAP5 SWAP4 POP POP POP POP JUMP JUMPDEST DUP5 DUP2 MSTORE PUSH1 0x80 PUSH1 0x20 DUP3 ADD MSTORE PUSH1 0x0 PUSH2 0x19E2 PUSH1 0x80 DUP4 ADD DUP7 PUSH2 0x1984 JUMP JUMPDEST PUSH1 0x1 PUSH1 0x1 PUSH1 0xA0 SHL SUB SWAP5 SWAP1 SWAP5 AND PUSH1 0x40 DUP4 ADD MSTORE POP PUSH1 0x60 ADD MSTORE SWAP3 SWAP2 POP POP JUMP JUMPDEST DUP2 DUP2 SUB DUP2 DUP2 GT ISZERO PUSH2 0x197E JUMPI PUSH2 0x197E PUSH2 0x1955 JUMP JUMPDEST DUP6 DUP2 MSTORE DUP5 PUSH1 0x20 DUP3 ADD MSTORE PUSH1 0xA0 PUSH1 0x40 DUP3 ADD MSTORE PUSH1 0x0 PUSH2 0x1A30 PUSH1 0xA0 DUP4 ADD DUP7 PUSH2 0x1984 JUMP JUMPDEST PUSH1 0x1 PUSH1 0x1 PUSH1 0xA0 SHL SUB SWAP5 SWAP1 SWAP5 AND PUSH1 0x60 DUP4 ADD MSTORE POP PUSH1 0x80 ADD MSTORE SWAP4 SWAP3 POP POP POP JUMP JUMPDEST PUSH4 0x4E487B71 PUSH1 0xE0 SHL PUSH1 0x0 MSTORE PUSH1 0x31 PUSH1 0x4 MSTORE PUSH1 0x24 PUSH1 0x0 REVERT JUMPDEST DUP1 MLOAD PUSH1 0x1 PUSH1 0x1 PUSH1 0x70 SHL SUB DUP2 AND DUP2 EQ PUSH2 0x1A7A JUMPI PUSH1 0x0 DUP1 REVERT JUMPDEST SWAP2 SWAP1 POP JUMP JUMPDEST PUSH1 0x0 DUP1 PUSH1 0x0 PUSH1 0x60 DUP5 DUP7 SUB SLT ISZERO PUSH2 0x1A94 JUMPI PUSH1 0x0 DUP1 REVERT JUMPDEST PUSH2 0x1A9D DUP5 PUSH2 0x1A63 JUMP JUMPDEST SWAP3 POP PUSH2 0x1AAB PUSH1 0x20 DUP6 ADD PUSH2 0x1A63 JUMP JUMPDEST SWAP2 POP PUSH1 0x40 DUP5 ADD MLOAD PUSH4 0xFFFFFFFF DUP2 AND DUP2 EQ PUSH2 0x1AC4 JUMPI PUSH1 0x0 DUP1 REVERT JUMPDEST DUP1 SWAP2 POP POP SWAP3 POP SWAP3 POP SWAP3 JUMP INVALID LOG2 PUSH5 0x6970667358 0x22 SLT KECCAK256 0xBC 0xE2 RETURNDATACOPY CALLDATALOAD CALLDATALOAD 0xAE 0x2D PUSH5 0x8EEA537B32 PUSH5 0x6778827DA2 EXP 0xAD 0x4D CALLDATASIZE BLOBBASEFEE 0xB2 0x2B DUP4 EXTCODECOPY PUSH8 0xD52ECF64736F6C63 NUMBER STOP ADDMOD BYTE STOP CALLER "
        },
        "methodIdentifiers": {
          "BASIS_POINTS()": "e1f1c4a7",
          "MAX_SLIPPAGE()": "f9759518",
          "activeDEXes(uint256)": "4fc65751",
          "addDEX(address,address,address,uint256)": "e704d6c4",
          "dexes(address)": "a7ca71ca",
          "emergencyWithdraw(address[])": "01c1dfba",
          "emergencyWithdrawETH()": "84536017",
          "executeTrade(address,uint256,uint256,bool)": "815a1a0d",
          "gradientRegistry()": "830562bc",
          "owner()": "8da5cb5b",
          "removeDEX(address)": "8c8f3f82",
          "renounceOwnership()": "715018a6",
          "transferOwnership(address)": "f2fde38b"
        }
      }
    }
  }
}