{
  "contracts/GradientRegistry.sol": {
    "GradientRegistry": {
      "abi": [
        {
          "inputs": [],
          "stateMutability": "nonpayable",
          "type": "constructor"
        },
        {
          "inputs": [
            {
              "internalType": "address",
              "name": "owner",
              "type": "address"
            }
          ],
          "name": "OwnableInvalidOwner",
          "type": "error"
        },
        {
          "inputs": [
            {
              "internalType": "address",
              "name": "account",
              "type": "address"
            }
          ],
          "name": "OwnableUnauthorizedAccount",
          "type": "error"
        },
        {
          "anonymous": false,
          "inputs": [
            {
              "indexed": true,
              "internalType": "bytes32",
              "name": "key",
              "type": "bytes32"
            },
            {
              "indexed": true,
              "internalType": "address",
              "name": "contractAddress",
              "type": "address"
            }
          ],
          "name": "AdditionalContractSet",
          "type": "event"
        },
        {
          "anonymous": false,
          "inputs": [
            {
              "indexed": true,
              "internalType": "string",
              "name": "contractName",
              "type": "string"
            },
            {
              "indexed": true,
              "internalType": "address",
              "name": "oldAddress",
              "type": "address"
            },
            {
              "indexed": true,
              "internalType": "address",
              "name": "newAddress",
              "type": "address"
            }
          ],
          "name": "ContractAddressUpdated",
          "type": "event"
        },
        {
          "anonymous": false,
          "inputs": [
            {
              "indexed": true,
              "internalType": "address",
              "name": "contractAddress",
              "type": "address"
            },
            {
              "indexed": false,
              "internalType": "bool",
              "name": "authorized",
              "type": "bool"
            }
          ],
          "name": "ContractAuthorized",
          "type": "event"
        },
        {
          "anonymous": false,
          "inputs": [
            {
              "indexed": true,
              "internalType": "address",
              "name": "fulfiller",
              "type": "address"
            },
            {
              "indexed": false,
              "internalType": "bool",
              "name": "status",
              "type": "bool"
            }
          ],
          "name": "FulfillerAuthorized",
          "type": "event"
        },
        {
          "anonymous": false,
          "inputs": [
            {
              "indexed": true,
              "internalType": "address",
              "name": "previousOwner",
              "type": "address"
            },
            {
              "indexed": true,
              "internalType": "address",
              "name": "newOwner",
              "type": "address"
            }
          ],
          "name": "OwnershipTransferred",
          "type": "event"
        },
        {
          "anonymous": false,
          "inputs": [
            {
              "indexed": true,
              "internalType": "address",
              "name": "rewardDistributor",
              "type": "address"
            }
          ],
          "name": "RewardDistributorSet",
          "type": "event"
        },
        {
          "inputs": [
            {
              "internalType": "bytes32",
              "name": "",
              "type": "bytes32"
            }
          ],
          "name": "additionalContracts",
          "outputs": [
            {
              "internalType": "address",
              "name": "",
              "type": "address"
            }
          ],
          "stateMutability": "view",
          "type": "function"
        },
        {
          "inputs": [
            {
              "internalType": "address",
              "name": "fulfiller",
              "type": "address"
            },
            {
              "internalType": "bool",
              "name": "status",
              "type": "bool"
            }
          ],
          "name": "authorizeFulfiller",
          "outputs": [],
          "stateMutability": "nonpayable",
          "type": "function"
        },
        {
          "inputs": [
            {
              "internalType": "address",
              "name": "",
              "type": "address"
            }
          ],
          "name": "authorizedContracts",
          "outputs": [
            {
              "internalType": "bool",
              "name": "",
              "type": "bool"
            }
          ],
          "stateMutability": "view",
          "type": "function"
        },
        {
          "inputs": [
            {
              "internalType": "address",
              "name": "",
              "type": "address"
            }
          ],
          "name": "authorizedFulfillers",
          "outputs": [
            {
              "internalType": "bool",
              "name": "",
              "type": "bool"
            }
          ],
          "stateMutability": "view",
          "type": "function"
        },
        {
          "inputs": [
            {
              "internalType": "address",
              "name": "",
              "type": "address"
            }
          ],
          "name": "blockedTokens",
          "outputs": [
            {
              "internalType": "bool",
              "name": "",
              "type": "bool"
            }
          ],
          "stateMutability": "view",
          "type": "function"
        },
        {
          "inputs": [],
          "name": "fallbackExecutor",
          "outputs": [
            {
              "internalType": "address",
              "name": "",
              "type": "address"
            }
          ],
          "stateMutability": "view",
          "type": "function"
        },
        {
          "inputs": [],
          "name": "feeCollector",
          "outputs": [
            {
              "internalType": "address",
              "name": "",
              "type": "address"
            }
          ],
          "stateMutability": "view",
          "type": "function"
        },
        {
          "inputs": [],
          "name": "getAllMainContracts",
          "outputs": [
            {
              "internalType": "address",
              "name": "_marketMakerPool",
              "type": "address"
            },
            {
              "internalType": "address",
              "name": "_gradientToken",
              "type": "address"
            },
            {
              "internalType": "address",
              "name": "_feeCollector",
              "type": "address"
            },
            {
              "internalType": "address",
              "name": "_orderbook",
              "type": "address"
            },
            {
              "internalType": "address",
              "name": "_fallbackExecutor",
              "type": "address"
            }
          ],
          "stateMutability": "view",
          "type": "function"
        },
        {
          "inputs": [],
          "name": "getFallbackExecutor",
          "outputs": [
            {
              "internalType": "address",
              "name": "",
              "type": "address"
            }
          ],
          "stateMutability": "view",
          "type": "function"
        },
        {
          "inputs": [],
          "name": "getOrderbook",
          "outputs": [
            {
              "internalType": "address",
              "name": "",
              "type": "address"
            }
          ],
          "stateMutability": "view",
          "type": "function"
        },
        {
          "inputs": [],
          "name": "gradientToken",
          "outputs": [
            {
              "internalType": "address",
              "name": "",
              "type": "address"
            }
          ],
          "stateMutability": "view",
          "type": "function"
        },
        {
          "inputs": [
            {
              "internalType": "address",
              "name": "fulfiller",
              "type": "address"
            }
          ],
          "name": "isAuthorizedFulfiller",
          "outputs": [
            {
              "internalType": "bool",
              "name": "",
              "type": "bool"
            }
          ],
          "stateMutability": "view",
          "type": "function"
        },
        {
          "inputs": [
            {
              "internalType": "address",
              "name": "contractAddress",
              "type": "address"
            }
          ],
          "name": "isContractAuthorized",
          "outputs": [
            {
              "internalType": "bool",
              "name": "",
              "type": "bool"
            }
          ],
          "stateMutability": "view",
          "type": "function"
        },
        {
          "inputs": [
            {
              "internalType": "address",
              "name": "",
              "type": "address"
            }
          ],
          "name": "isRewardDistributor",
          "outputs": [
            {
              "internalType": "bool",
              "name": "",
              "type": "bool"
            }
          ],
          "stateMutability": "view",
          "type": "function"
        },
        {
          "inputs": [],
          "name": "marketMakerPool",
          "outputs": [
            {
              "internalType": "address",
              "name": "",
              "type": "address"
            }
          ],
          "stateMutability": "view",
          "type": "function"
        },
        {
          "inputs": [],
          "name": "orderbook",
          "outputs": [
            {
              "internalType": "address",
              "name": "",
              "type": "address"
            }
          ],
          "stateMutability": "view",
          "type": "function"
        },
        {
          "inputs": [],
          "name": "owner",
          "outputs": [
            {
              "internalType": "address",
              "name": "",
              "type": "address"
            }
          ],
          "stateMutability": "view",
          "type": "function"
        },
        {
          "inputs": [],
          "name": "renounceOwnership",
          "outputs": [],
          "stateMutability": "nonpayable",
          "type": "function"
        },
        {
          "inputs": [
            {
              "internalType": "bytes32",
              "name": "key",
              "type": "bytes32"
            },
            {
              "internalType": "address",
              "name": "contractAddress",
              "type": "address"
            }
          ],
          "name": "setAdditionalContract",
          "outputs": [],
          "stateMutability": "nonpayable",
          "type": "function"
        },
        {
          "inputs": [
            {
              "internalType": "string",
              "name": "contractName",
              "type": "string"
            },
            {
              "internalType": "address",
              "name": "newAddress",
              "type": "address"
            }
          ],
          "name": "setContractAddress",
          "outputs": [],
          "stateMutability": "nonpayable",
          "type": "function"
        },
        {
          "inputs": [
            {
              "internalType": "address",
              "name": "contractAddress",
              "type": "address"
            },
            {
              "internalType": "bool",
              "name": "authorized",
              "type": "bool"
            }
          ],
          "name": "setContractAuthorization",
          "outputs": [],
          "stateMutability": "nonpayable",
          "type": "function"
        },
        {
          "inputs": [
            {
              "internalType": "address",
              "name": "_marketMakerPool",
              "type": "address"
            },
            {
              "internalType": "address",
              "name": "_gradientToken",
              "type": "address"
            },
            {
              "internalType": "address",
              "name": "_feeCollector",
              "type": "address"
            },
            {
              "internalType": "address",
              "name": "_orderbook",
              "type": "address"
            },
            {
              "internalType": "address",
              "name": "_fallbackExecutor",
              "type": "address"
            }
          ],
          "name": "setMainContracts",
          "outputs": [],
          "stateMutability": "nonpayable",
          "type": "function"
        },
        {
          "inputs": [
            {
              "internalType": "address",
              "name": "rewardDistributor",
              "type": "address"
            }
          ],
          "name": "setRewardDistributor",
          "outputs": [],
          "stateMutability": "nonpayable",
          "type": "function"
        },
        {
          "inputs": [
            {
              "internalType": "address",
              "name": "token",
              "type": "address"
            },
            {
              "internalType": "bool",
              "name": "blocked",
              "type": "bool"
            }
          ],
          "name": "setTokenBlockStatus",
          "outputs": [],
          "stateMutability": "nonpayable",
          "type": "function"
        },
        {
          "inputs": [
            {
              "internalType": "address",
              "name": "newOwner",
              "type": "address"
            }
          ],
          "name": "transferOwnership",
          "outputs": [],
          "stateMutability": "nonpayable",
          "type": "function"
        }
      ],
      "evm": {
        "bytecode": {
          "linkReferences": {},
          "object": "6080604052348015600f57600080fd5b503380603557604051631e4fbdf760e01b81526000600482015260240160405180910390fd5b603c816041565b506091565b600080546001600160a01b038381166001600160a01b0319831681178455604051919092169283917f8be0079c531659141344cd1fd0a4f28419497f9722a3daafe3b4186f6b6457e09190a35050565b610ef7806100a06000396000f3fe608060405234801561001057600080fd5b50600436106101735760003560e01c8063745e9e9f116100de578063a62986a811610097578063c415b95c11610071578063c415b95c146103d4578063d5b9221b146103e7578063f2fde38b1461040a578063f60ccc861461041d57600080fd5b8063a62986a814610384578063ab63c607146103b0578063c18b1d5e146103c157600080fd5b8063745e9e9f146103005780638880ef91146103135780638c25c139146103265780638d786521146103375780638da5cb5b14610360578063a1809b951461037157600080fd5b806339b599581161013057806339b59958146102425780634513443a14610265578063534e785c1461027857806365145f7f1461028b57806367a0b7bb146102d5578063715018a6146102f857600080fd5b8063103aeda71461017857806316ed8525146101b95780631f3108b4146101dc5780632a27abf6146101f1578063366a6d1714610204578063387c8aeb14610217575b600080fd5b6101a4610186366004610cdd565b6001600160a01b031660009081526009602052604090205460ff1690565b60405190151581526020015b60405180910390f35b6101a46101c7366004610cdd565b60076020526000908152604090205460ff1681565b6101ef6101ea366004610cff565b610430565b005b6101ef6101ff366004610d3b565b6104f3565b6101ef610212366004610d67565b6105b5565b60025461022a906001600160a01b031681565b6040516001600160a01b0390911681526020016101b0565b6101a4610250366004610cdd565b60066020526000908152604090205460ff1681565b60015461022a906001600160a01b031681565b6101ef610286366004610dcc565b610784565b600154600254600354600454600554604080516001600160a01b0396871681529486166020860152928516928401929092528316606083015291909116608082015260a0016101b0565b6101a46102e3366004610cdd565b600a6020526000908152604090205460ff1681565b6101ef610a8f565b60055461022a906001600160a01b031681565b6101ef610321366004610cff565b610aa3565b6005546001600160a01b031661022a565b61022a610345366004610e4f565b6008602052600090815260409020546001600160a01b031681565b6000546001600160a01b031661022a565b6101ef61037f366004610cdd565b610ad6565b6101a4610392366004610cdd565b6001600160a01b03166000908152600a602052604090205460ff1690565b6004546001600160a01b031661022a565b60045461022a906001600160a01b031681565b60035461022a906001600160a01b031681565b6101a46103f5366004610cdd565b60096020526000908152604090205460ff1681565b6101ef610418366004610cdd565b610b80565b6101ef61042b366004610cff565b610bbe565b610438610c44565b6001600160a01b0382166104935760405162461bcd60e51b815260206004820152601960248201527f496e76616c69642066756c66696c6c657220616464726573730000000000000060448201526064015b60405180910390fd5b6001600160a01b0382166000818152600a6020908152604091829020805460ff191685151590811790915591519182527f8cbb29e662f65817b32eeda8de904cb0f83559e6bc14d8a5a80e6c78c0bb7df891015b60405180910390a25050565b6104fb610c44565b6001600160a01b0381166105215760405162461bcd60e51b815260040161048a90610e68565b8161055c5760405162461bcd60e51b815260206004820152600b60248201526a496e76616c6964206b657960a81b604482015260640161048a565b60008281526008602052604080822080546001600160a01b0319166001600160a01b0385169081179091559051909184917ff0510d333f2983865c4bde98c7407f89765d1fb0b08f08eb8de3c62af4479b109190a35050565b6105bd610c44565b6001546040516e13585c9ad95d13585ad95c941bdbdb608a1b81526001600160a01b03878116921690600f0160405190819003812090600080516020610ea283398151915290600090a46002546040516c23b930b234b2b73a2a37b5b2b760991b81526001600160a01b03868116921690600d0160405190819003812090600080516020610ea283398151915290600090a46003546040516b2332b2a1b7b63632b1ba37b960a11b81526001600160a01b03858116921690600c0160405190819003812090600080516020610ea283398151915290600090a4600454604051684f72646572626f6f6b60b81b81526001600160a01b0384811692169060090160405190819003812090600080516020610ea283398151915290600090a46005546040516f2330b6363130b1b5a2bc32b1baba37b960811b81526001600160a01b0383811692169060100160405190819003812090600080516020610ea283398151915290600090a4600180546001600160a01b03199081166001600160a01b03978816179091556002805482169587169590951790945560038054851693861693909317909255600480548416918516919091179055600580549092169216919091179055565b61078c610c44565b6001600160a01b0381166107b25760405162461bcd60e51b815260040161048a90610e68565b600083836040516107c4929190610e91565b60408051918290038220828201909152600f82526e13585c9ad95d13585ad95c941bdbdb608a1b602090920191909152905060007f5718351ee587a0afb959821a09ec82f3b6c9f9380db9f35dd993888f1776effe82016108445750600180546001600160a01b038481166001600160a01b031983161790925516610a46565b60408051808201909152600d81526c23b930b234b2b73a2a37b5b2b760991b6020909101527f54e3a05f34e90baf519af85968cf9cc129d111387d3d32365198b2589f45fd1282016108b55750600280546001600160a01b038481166001600160a01b031983161790925516610a46565b60408051808201909152600c81526b2332b2a1b7b63632b1ba37b960a11b6020909101527f2a61281f3088848f400bc4c94a186bd5ac24a323e12c153fa7b001976744b83382016109255750600380546001600160a01b038481166001600160a01b031983161790925516610a46565b6040805180820190915260098152684f72646572626f6f6b60b81b6020909101527f88183fb9287568c59859b76b448f3503c4694b223403814ad47f73822cf48b8682016109925750600480546001600160a01b038481166001600160a01b031983161790925516610a46565b60408051808201909152601081526f2330b6363130b1b5a2bc32b1baba37b960811b6020909101527f6092fd3727db459d2a5913fbcf4972989120ddb175ccf394f9f9ea095d2742f98201610a065750600580546001600160a01b038481166001600160a01b031983161790925516610a46565b60405162461bcd60e51b8152602060048201526015602482015274496e76616c696420636f6e7472616374206e616d6560581b604482015260640161048a565b826001600160a01b0316816001600160a01b03168686604051610a6a929190610e91565b60405190819003812090600080516020610ea283398151915290600090a45050505050565b610a97610c44565b610aa16000610c71565b565b610aab610c44565b6001600160a01b03919091166000908152600660205260409020805460ff1916911515919091179055565b610ade610c44565b6001600160a01b038116610b345760405162461bcd60e51b815260206004820152601b60248201527f496e76616c6964206469737472696275746f7220616464726573730000000000604482015260640161048a565b6001600160a01b038116600081815260076020526040808220805460ff19166001179055517f075c02c513a415bd4ff5976f8aa6fc5767d2183daca9ec00ab71ce78e8bf81589190a250565b610b88610c44565b6001600160a01b038116610bb257604051631e4fbdf760e01b81526000600482015260240161048a565b610bbb81610c71565b50565b610bc6610c44565b6001600160a01b038216610bec5760405162461bcd60e51b815260040161048a90610e68565b6001600160a01b038216600081815260096020908152604091829020805460ff191685151590811790915591519182527f3213ab8ec2ed122402f038736b41878b69ae9f61f49a7edd0666bce891d29fc991016104e7565b6000546001600160a01b03163314610aa15760405163118cdaa760e01b815233600482015260240161048a565b600080546001600160a01b038381166001600160a01b0319831681178455604051919092169283917f8be0079c531659141344cd1fd0a4f28419497f9722a3daafe3b4186f6b6457e09190a35050565b80356001600160a01b0381168114610cd857600080fd5b919050565b600060208284031215610cef57600080fd5b610cf882610cc1565b9392505050565b60008060408385031215610d1257600080fd5b610d1b83610cc1565b915060208301358015158114610d3057600080fd5b809150509250929050565b60008060408385031215610d4e57600080fd5b82359150610d5e60208401610cc1565b90509250929050565b600080600080600060a08688031215610d7f57600080fd5b610d8886610cc1565b9450610d9660208701610cc1565b9350610da460408701610cc1565b9250610db260608701610cc1565b9150610dc060808701610cc1565b90509295509295909350565b600080600060408486031215610de157600080fd5b833567ffffffffffffffff811115610df857600080fd5b8401601f81018613610e0957600080fd5b803567ffffffffffffffff811115610e2057600080fd5b866020828401011115610e3257600080fd5b602091820194509250610e46908501610cc1565b90509250925092565b600060208284031215610e6157600080fd5b5035919050565b6020808252600f908201526e496e76616c6964206164647265737360881b604082015260600190565b818382376000910190815291905056fea90fb318cef160851f542872dfce25dadafdfde152ba8cc05e3f0b882842e53ca2646970667358221220c517cc8c9a99c47ab52a61d9f97ca49321dcfadb879088333d997064c9946bd264736f6c634300081a0033",
          "opcodes": "PUSH1 0x80 PUSH1 0x40 MSTORE CALLVALUE DUP1 ISZERO PUSH1 0xF JUMPI PUSH1 0x0 DUP1 REVERT JUMPDEST POP CALLER DUP1 PUSH1 0x35 JUMPI PUSH1 0x40 MLOAD PUSH4 0x1E4FBDF7 PUSH1 0xE0 SHL DUP2 MSTORE PUSH1 0x0 PUSH1 0x4 DUP3 ADD MSTORE PUSH1 0x24 ADD PUSH1 0x40 MLOAD DUP1 SWAP2 SUB SWAP1 REVERT JUMPDEST PUSH1 0x3C DUP2 PUSH1 0x41 JUMP JUMPDEST POP PUSH1 0x91 JUMP JUMPDEST PUSH1 0x0 DUP1 SLOAD PUSH1 0x1 PUSH1 0x1 PUSH1 0xA0 SHL SUB DUP4 DUP2 AND PUSH1 0x1 PUSH1 0x1 PUSH1 0xA0 SHL SUB NOT DUP4 AND DUP2 OR DUP5 SSTORE PUSH1 0x40 MLOAD SWAP2 SWAP1 SWAP3 AND SWAP3 DUP4 SWAP2 PUSH32 0x8BE0079C531659141344CD1FD0A4F28419497F9722A3DAAFE3B4186F6B6457E0 SWAP2 SWAP1 LOG3 POP POP JUMP JUMPDEST PUSH2 0xEF7 DUP1 PUSH2 0xA0 PUSH1 0x0 CODECOPY PUSH1 0x0 RETURN INVALID PUSH1 0x80 PUSH1 0x40 MSTORE CALLVALUE DUP1 ISZERO PUSH2 0x10 JUMPI PUSH1 0x0 DUP1 REVERT JUMPDEST POP PUSH1 0x4 CALLDATASIZE LT PUSH2 0x173 JUMPI PUSH1 0x0 CALLDATALOAD PUSH1 0xE0 SHR DUP1 PUSH4 0x745E9E9F GT PUSH2 0xDE JUMPI DUP1 PUSH4 0xA62986A8 GT PUSH2 0x97 JUMPI DUP1 PUSH4 0xC415B95C GT PUSH2 0x71 JUMPI DUP1 PUSH4 0xC415B95C EQ PUSH2 0x3D4 JUMPI DUP1 PUSH4 0xD5B9221B EQ PUSH2 0x3E7 JUMPI DUP1 PUSH4 0xF2FDE38B EQ PUSH2 0x40A JUMPI DUP1 PUSH4 0xF60CCC86 EQ PUSH2 0x41D JUMPI PUSH1 0x0 DUP1 REVERT JUMPDEST DUP1 PUSH4 0xA62986A8 EQ PUSH2 0x384 JUMPI DUP1 PUSH4 0xAB63C607 EQ PUSH2 0x3B0 JUMPI DUP1 PUSH4 0xC18B1D5E EQ PUSH2 0x3C1 JUMPI PUSH1 0x0 DUP1 REVERT JUMPDEST DUP1 PUSH4 0x745E9E9F EQ PUSH2 0x300 JUMPI DUP1 PUSH4 0x8880EF91 EQ PUSH2 0x313 JUMPI DUP1 PUSH4 0x8C25C139 EQ PUSH2 0x326 JUMPI DUP1 PUSH4 0x8D786521 EQ PUSH2 0x337 JUMPI DUP1 PUSH4 0x8DA5CB5B EQ PUSH2 0x360 JUMPI DUP1 PUSH4 0xA1809B95 EQ PUSH2 0x371 JUMPI PUSH1 0x0 DUP1 REVERT JUMPDEST DUP1 PUSH4 0x39B59958 GT PUSH2 0x130 JUMPI DUP1 PUSH4 0x39B59958 EQ PUSH2 0x242 JUMPI DUP1 PUSH4 0x4513443A EQ PUSH2 0x265 JUMPI DUP1 PUSH4 0x534E785C EQ PUSH2 0x278 JUMPI DUP1 PUSH4 0x65145F7F EQ PUSH2 0x28B JUMPI DUP1 PUSH4 0x67A0B7BB EQ PUSH2 0x2D5 JUMPI DUP1 PUSH4 0x715018A6 EQ PUSH2 0x2F8 JUMPI PUSH1 0x0 DUP1 REVERT JUMPDEST DUP1 PUSH4 0x103AEDA7 EQ PUSH2 0x178 JUMPI DUP1 PUSH4 0x16ED8525 EQ PUSH2 0x1B9 JUMPI DUP1 PUSH4 0x1F3108B4 EQ PUSH2 0x1DC JUMPI DUP1 PUSH4 0x2A27ABF6 EQ PUSH2 0x1F1 JUMPI DUP1 PUSH4 0x366A6D17 EQ PUSH2 0x204 JUMPI DUP1 PUSH4 0x387C8AEB EQ PUSH2 0x217 JUMPI JUMPDEST PUSH1 0x0 DUP1 REVERT JUMPDEST PUSH2 0x1A4 PUSH2 0x186 CALLDATASIZE PUSH1 0x4 PUSH2 0xCDD JUMP JUMPDEST PUSH1 0x1 PUSH1 0x1 PUSH1 0xA0 SHL SUB AND PUSH1 0x0 SWAP1 DUP2 MSTORE PUSH1 0x9 PUSH1 0x20 MSTORE PUSH1 0x40 SWAP1 KECCAK256 SLOAD PUSH1 0xFF AND SWAP1 JUMP JUMPDEST PUSH1 0x40 MLOAD SWAP1 ISZERO ISZERO DUP2 MSTORE PUSH1 0x20 ADD JUMPDEST PUSH1 0x40 MLOAD DUP1 SWAP2 SUB SWAP1 RETURN JUMPDEST PUSH2 0x1A4 PUSH2 0x1C7 CALLDATASIZE PUSH1 0x4 PUSH2 0xCDD JUMP JUMPDEST PUSH1 0x7 PUSH1 0x20 MSTORE PUSH1 0x0 SWAP1 DUP2 MSTORE PUSH1 0x40 SWAP1 KECCAK256 SLOAD PUSH1 0xFF AND DUP2 JUMP JUMPDEST PUSH2 0x1EF PUSH2 0x1EA CALLDATASIZE PUSH1 0x4 PUSH2 0xCFF JUMP JUMPDEST PUSH2 0x430 JUMP JUMPDEST STOP JUMPDEST PUSH2 0x1EF PUSH2 0x1FF CALLDATASIZE PUSH1 0x4 PUSH2 0xD3B JUMP JUMPDEST PUSH2 0x4F3 JUMP JUMPDEST PUSH2 0x1EF PUSH2 0x212 CALLDATASIZE PUSH1 0x4 PUSH2 0xD67 JUMP JUMPDEST PUSH2 0x5B5 JUMP JUMPDEST PUSH1 0x2 SLOAD PUSH2 0x22A SWAP1 PUSH1 0x1 PUSH1 0x1 PUSH1 0xA0 SHL SUB AND DUP2 JUMP JUMPDEST PUSH1 0x40 MLOAD PUSH1 0x1 PUSH1 0x1 PUSH1 0xA0 SHL SUB SWAP1 SWAP2 AND DUP2 MSTORE PUSH1 0x20 ADD PUSH2 0x1B0 JUMP JUMPDEST PUSH2 0x1A4 PUSH2 0x250 CALLDATASIZE PUSH1 0x4 PUSH2 0xCDD JUMP JUMPDEST PUSH1 0x6 PUSH1 0x20 MSTORE PUSH1 0x0 SWAP1 DUP2 MSTORE PUSH1 0x40 SWAP1 KECCAK256 SLOAD PUSH1 0xFF AND DUP2 JUMP JUMPDEST PUSH1 0x1 SLOAD PUSH2 0x22A SWAP1 PUSH1 0x1 PUSH1 0x1 PUSH1 0xA0 SHL SUB AND DUP2 JUMP JUMPDEST PUSH2 0x1EF PUSH2 0x286 CALLDATASIZE PUSH1 0x4 PUSH2 0xDCC JUMP JUMPDEST PUSH2 0x784 JUMP JUMPDEST PUSH1 0x1 SLOAD PUSH1 0x2 SLOAD PUSH1 0x3 SLOAD PUSH1 0x4 SLOAD PUSH1 0x5 SLOAD PUSH1 0x40 DUP1 MLOAD PUSH1 0x1 PUSH1 0x1 PUSH1 0xA0 SHL SUB SWAP7 DUP8 AND DUP2 MSTORE SWAP5 DUP7 AND PUSH1 0x20 DUP7 ADD MSTORE SWAP3 DUP6 AND SWAP3 DUP5 ADD SWAP3 SWAP1 SWAP3 MSTORE DUP4 AND PUSH1 0x60 DUP4 ADD MSTORE SWAP2 SWAP1 SWAP2 AND PUSH1 0x80 DUP3 ADD MSTORE PUSH1 0xA0 ADD PUSH2 0x1B0 JUMP JUMPDEST PUSH2 0x1A4 PUSH2 0x2E3 CALLDATASIZE PUSH1 0x4 PUSH2 0xCDD JUMP JUMPDEST PUSH1 0xA PUSH1 0x20 MSTORE PUSH1 0x0 SWAP1 DUP2 MSTORE PUSH1 0x40 SWAP1 KECCAK256 SLOAD PUSH1 0xFF AND DUP2 JUMP JUMPDEST PUSH2 0x1EF PUSH2 0xA8F JUMP JUMPDEST PUSH1 0x5 SLOAD PUSH2 0x22A SWAP1 PUSH1 0x1 PUSH1 0x1 PUSH1 0xA0 SHL SUB AND DUP2 JUMP JUMPDEST PUSH2 0x1EF PUSH2 0x321 CALLDATASIZE PUSH1 0x4 PUSH2 0xCFF JUMP JUMPDEST PUSH2 0xAA3 JUMP JUMPDEST PUSH1 0x5 SLOAD PUSH1 0x1 PUSH1 0x1 PUSH1 0xA0 SHL SUB AND PUSH2 0x22A JUMP JUMPDEST PUSH2 0x22A PUSH2 0x345 CALLDATASIZE PUSH1 0x4 PUSH2 0xE4F JUMP JUMPDEST PUSH1 0x8 PUSH1 0x20 MSTORE PUSH1 0x0 SWAP1 DUP2 MSTORE PUSH1 0x40 SWAP1 KECCAK256 SLOAD PUSH1 0x1 PUSH1 0x1 PUSH1 0xA0 SHL SUB AND DUP2 JUMP JUMPDEST PUSH1 0x0 SLOAD PUSH1 0x1 PUSH1 0x1 PUSH1 0xA0 SHL SUB AND PUSH2 0x22A JUMP JUMPDEST PUSH2 0x1EF PUSH2 0x37F CALLDATASIZE PUSH1 0x4 PUSH2 0xCDD JUMP JUMPDEST PUSH2 0xAD6 JUMP JUMPDEST PUSH2 0x1A4 PUSH2 0x392 CALLDATASIZE PUSH1 0x4 PUSH2 0xCDD JUMP JUMPDEST PUSH1 0x1 PUSH1 0x1 PUSH1 0xA0 SHL SUB AND PUSH1 0x0 SWAP1 DUP2 MSTORE PUSH1 0xA PUSH1 0x20 MSTORE PUSH1 0x40 SWAP1 KECCAK256 SLOAD PUSH1 0xFF AND SWAP1 JUMP JUMPDEST PUSH1 0x4 SLOAD PUSH1 0x1 PUSH1 0x1 PUSH1 0xA0 SHL SUB AND PUSH2 0x22A JUMP JUMPDEST PUSH1 0x4 SLOAD PUSH2 0x22A SWAP1 PUSH1 0x1 PUSH1 0x1 PUSH1 0xA0 SHL SUB AND DUP2 JUMP JUMPDEST PUSH1 0x3 SLOAD PUSH2 0x22A SWAP1 PUSH1 0x1 PUSH1 0x1 PUSH1 0xA0 SHL SUB AND DUP2 JUMP JUMPDEST PUSH2 0x1A4 PUSH2 0x3F5 CALLDATASIZE PUSH1 0x4 PUSH2 0xCDD JUMP JUMPDEST PUSH1 0x9 PUSH1 0x20 MSTORE PUSH1 0x0 SWAP1 DUP2 MSTORE PUSH1 0x40 SWAP1 KECCAK256 SLOAD PUSH1 0xFF AND DUP2 JUMP JUMPDEST PUSH2 0x1EF PUSH2 0x418 CALLDATASIZE PUSH1 0x4 PUSH2 0xCDD JUMP JUMPDEST PUSH2 0xB80 JUMP JUMPDEST PUSH2 0x1EF PUSH2 0x42B CALLDATASIZE PUSH1 0x4 PUSH2 0xCFF JUMP JUMPDEST PUSH2 0xBBE JUMP JUMPDEST PUSH2 0x438 PUSH2 0xC44 JUMP JUMPDEST PUSH1 0x1 PUSH1 0x1 PUSH1 0xA0 SHL SUB DUP3 AND PUSH2 0x493 JUMPI PUSH1 0x40 MLOAD PUSH3 0x461BCD PUSH1 0xE5 SHL DUP2 MSTORE PUSH1 0x20 PUSH1 0x4 DUP3 ADD MSTORE PUSH1 0x19 PUSH1 0x24 DUP3 ADD MSTORE PUSH32 0x496E76616C69642066756C66696C6C6572206164647265737300000000000000 PUSH1 0x44 DUP3 ADD MSTORE PUSH1 0x64 ADD JUMPDEST PUSH1 0x40 MLOAD DUP1 SWAP2 SUB SWAP1 REVERT JUMPDEST PUSH1 0x1 PUSH1 0x1 PUSH1 0xA0 SHL SUB DUP3 AND PUSH1 0x0 DUP2 DUP2 MSTORE PUSH1 0xA PUSH1 0x20 SWAP1 DUP2 MSTORE PUSH1 0x40 SWAP2 DUP3 SWAP1 KECCAK256 DUP1 SLOAD PUSH1 0xFF NOT AND DUP6 ISZERO ISZERO SWAP1 DUP2 OR SWAP1 SWAP2 SSTORE SWAP2 MLOAD SWAP2 DUP3 MSTORE PUSH32 0x8CBB29E662F65817B32EEDA8DE904CB0F83559E6BC14D8A5A80E6C78C0BB7DF8 SWAP2 ADD JUMPDEST PUSH1 0x40 MLOAD DUP1 SWAP2 SUB SWAP1 LOG2 POP POP JUMP JUMPDEST PUSH2 0x4FB PUSH2 0xC44 JUMP JUMPDEST PUSH1 0x1 PUSH1 0x1 PUSH1 0xA0 SHL SUB DUP2 AND PUSH2 0x521 JUMPI PUSH1 0x40 MLOAD PUSH3 0x461BCD PUSH1 0xE5 SHL DUP2 MSTORE PUSH1 0x4 ADD PUSH2 0x48A SWAP1 PUSH2 0xE68 JUMP JUMPDEST DUP2 PUSH2 0x55C JUMPI PUSH1 0x40 MLOAD PUSH3 0x461BCD PUSH1 0xE5 SHL DUP2 MSTORE PUSH1 0x20 PUSH1 0x4 DUP3 ADD MSTORE PUSH1 0xB PUSH1 0x24 DUP3 ADD MSTORE PUSH11 0x496E76616C6964206B6579 PUSH1 0xA8 SHL PUSH1 0x44 DUP3 ADD MSTORE PUSH1 0x64 ADD PUSH2 0x48A JUMP JUMPDEST PUSH1 0x0 DUP3 DUP2 MSTORE PUSH1 0x8 PUSH1 0x20 MSTORE PUSH1 0x40 DUP1 DUP3 KECCAK256 DUP1 SLOAD PUSH1 0x1 PUSH1 0x1 PUSH1 0xA0 SHL SUB NOT AND PUSH1 0x1 PUSH1 0x1 PUSH1 0xA0 SHL SUB DUP6 AND SWAP1 DUP2 OR SWAP1 SWAP2 SSTORE SWAP1 MLOAD SWAP1 SWAP2 DUP5 SWAP2 PUSH32 0xF0510D333F2983865C4BDE98C7407F89765D1FB0B08F08EB8DE3C62AF4479B10 SWAP2 SWAP1 LOG3 POP POP JUMP JUMPDEST PUSH2 0x5BD PUSH2 0xC44 JUMP JUMPDEST PUSH1 0x1 SLOAD PUSH1 0x40 MLOAD PUSH15 0x13585C9AD95D13585AD95C941BDBDB PUSH1 0x8A SHL DUP2 MSTORE PUSH1 0x1 PUSH1 0x1 PUSH1 0xA0 SHL SUB DUP8 DUP2 AND SWAP3 AND SWAP1 PUSH1 0xF ADD PUSH1 0x40 MLOAD SWAP1 DUP2 SWAP1 SUB DUP2 KECCAK256 SWAP1 PUSH1 0x0 DUP1 MLOAD PUSH1 0x20 PUSH2 0xEA2 DUP4 CODECOPY DUP2 MLOAD SWAP2 MSTORE SWAP1 PUSH1 0x0 SWAP1 LOG4 PUSH1 0x2 SLOAD PUSH1 0x40 MLOAD PUSH13 0x23B930B234B2B73A2A37B5B2B7 PUSH1 0x99 SHL DUP2 MSTORE PUSH1 0x1 PUSH1 0x1 PUSH1 0xA0 SHL SUB DUP7 DUP2 AND SWAP3 AND SWAP1 PUSH1 0xD ADD PUSH1 0x40 MLOAD SWAP1 DUP2 SWAP1 SUB DUP2 KECCAK256 SWAP1 PUSH1 0x0 DUP1 MLOAD PUSH1 0x20 PUSH2 0xEA2 DUP4 CODECOPY DUP2 MLOAD SWAP2 MSTORE SWAP1 PUSH1 0x0 SWAP1 LOG4 PUSH1 0x3 SLOAD PUSH1 0x40 MLOAD PUSH12 0x2332B2A1B7B63632B1BA37B9 PUSH1 0xA1 SHL DUP2 MSTORE PUSH1 0x1 PUSH1 0x1 PUSH1 0xA0 SHL SUB DUP6 DUP2 AND SWAP3 AND SWAP1 PUSH1 0xC ADD PUSH1 0x40 MLOAD SWAP1 DUP2 SWAP1 SUB DUP2 KECCAK256 SWAP1 PUSH1 0x0 DUP1 MLOAD PUSH1 0x20 PUSH2 0xEA2 DUP4 CODECOPY DUP2 MLOAD SWAP2 MSTORE SWAP1 PUSH1 0x0 SWAP1 LOG4 PUSH1 0x4 SLOAD PUSH1 0x40 MLOAD PUSH9 0x4F72646572626F6F6B PUSH1 0xB8 SHL DUP2 MSTORE PUSH1 0x1 PUSH1 0x1 PUSH1 0xA0 SHL SUB DUP5 DUP2 AND SWAP3 AND SWAP1 PUSH1 0x9 ADD PUSH1 0x40 MLOAD SWAP1 DUP2 SWAP1 SUB DUP2 KECCAK256 SWAP1 PUSH1 0x0 DUP1 MLOAD PUSH1 0x20 PUSH2 0xEA2 DUP4 CODECOPY DUP2 MLOAD SWAP2 MSTORE SWAP1 PUSH1 0x0 SWAP1 LOG4 PUSH1 0x5 SLOAD PUSH1 0x40 MLOAD PUSH16 0x2330B6363130B1B5A2BC32B1BABA37B9 PUSH1 0x81 SHL DUP2 MSTORE PUSH1 0x1 PUSH1 0x1 PUSH1 0xA0 SHL SUB DUP4 DUP2 AND SWAP3 AND SWAP1 PUSH1 0x10 ADD PUSH1 0x40 MLOAD SWAP1 DUP2 SWAP1 SUB DUP2 KECCAK256 SWAP1 PUSH1 0x0 DUP1 MLOAD PUSH1 0x20 PUSH2 0xEA2 DUP4 CODECOPY DUP2 MLOAD SWAP2 MSTORE SWAP1 PUSH1 0x0 SWAP1 LOG4 PUSH1 0x1 DUP1 SLOAD PUSH1 0x1 PUSH1 0x1 PUSH1 0xA0 SHL SUB NOT SWAP1 DUP2 AND PUSH1 0x1 PUSH1 0x1 PUSH1 0xA0 SHL SUB SWAP8 DUP9 AND OR SWAP1 SWAP2 SSTORE PUSH1 0x2 DUP1 SLOAD DUP3 AND SWAP6 DUP8 AND SWAP6 SWAP1 SWAP6 OR SWAP1 SWAP5 SSTORE PUSH1 0x3 DUP1 SLOAD DUP6 AND SWAP4 DUP7 AND SWAP4 SWAP1 SWAP4 OR SWAP1 SWAP3 SSTORE PUSH1 0x4 DUP1 SLOAD DUP5 AND SWAP2 DUP6 AND SWAP2 SWAP1 SWAP2 OR SWAP1 SSTORE PUSH1 0x5 DUP1 SLOAD SWAP1 SWAP3 AND SWAP3 AND SWAP2 SWAP1 SWAP2 OR SWAP1 SSTORE JUMP JUMPDEST PUSH2 0x78C PUSH2 0xC44 JUMP JUMPDEST PUSH1 0x1 PUSH1 0x1 PUSH1 0xA0 SHL SUB DUP2 AND PUSH2 0x7B2 JUMPI PUSH1 0x40 MLOAD PUSH3 0x461BCD PUSH1 0xE5 SHL DUP2 MSTORE PUSH1 0x4 ADD PUSH2 0x48A SWAP1 PUSH2 0xE68 JUMP JUMPDEST PUSH1 0x0 DUP4 DUP4 PUSH1 0x40 MLOAD PUSH2 0x7C4 SWAP3 SWAP2 SWAP1 PUSH2 0xE91 JUMP JUMPDEST PUSH1 0x40 DUP1 MLOAD SWAP2 DUP3 SWAP1 SUB DUP3 KECCAK256 DUP3 DUP3 ADD SWAP1 SWAP2 MSTORE PUSH1 0xF DUP3 MSTORE PUSH15 0x13585C9AD95D13585AD95C941BDBDB PUSH1 0x8A SHL PUSH1 0x20 SWAP1 SWAP3 ADD SWAP2 SWAP1 SWAP2 MSTORE SWAP1 POP PUSH1 0x0 PUSH32 0x5718351EE587A0AFB959821A09EC82F3B6C9F9380DB9F35DD993888F1776EFFE DUP3 ADD PUSH2 0x844 JUMPI POP PUSH1 0x1 DUP1 SLOAD PUSH1 0x1 PUSH1 0x1 PUSH1 0xA0 SHL SUB DUP5 DUP2 AND PUSH1 0x1 PUSH1 0x1 PUSH1 0xA0 SHL SUB NOT DUP4 AND OR SWAP1 SWAP3 SSTORE AND PUSH2 0xA46 JUMP JUMPDEST PUSH1 0x40 DUP1 MLOAD DUP1 DUP3 ADD SWAP1 SWAP2 MSTORE PUSH1 0xD DUP2 MSTORE PUSH13 0x23B930B234B2B73A2A37B5B2B7 PUSH1 0x99 SHL PUSH1 0x20 SWAP1 SWAP2 ADD MSTORE PUSH32 0x54E3A05F34E90BAF519AF85968CF9CC129D111387D3D32365198B2589F45FD12 DUP3 ADD PUSH2 0x8B5 JUMPI POP PUSH1 0x2 DUP1 SLOAD PUSH1 0x1 PUSH1 0x1 PUSH1 0xA0 SHL SUB DUP5 DUP2 AND PUSH1 0x1 PUSH1 0x1 PUSH1 0xA0 SHL SUB NOT DUP4 AND OR SWAP1 SWAP3 SSTORE AND PUSH2 0xA46 JUMP JUMPDEST PUSH1 0x40 DUP1 MLOAD DUP1 DUP3 ADD SWAP1 SWAP2 MSTORE PUSH1 0xC DUP2 MSTORE PUSH12 0x2332B2A1B7B63632B1BA37B9 PUSH1 0xA1 SHL PUSH1 0x20 SWAP1 SWAP2 ADD MSTORE PUSH32 0x2A61281F3088848F400BC4C94A186BD5AC24A323E12C153FA7B001976744B833 DUP3 ADD PUSH2 0x925 JUMPI POP PUSH1 0x3 DUP1 SLOAD PUSH1 0x1 PUSH1 0x1 PUSH1 0xA0 SHL SUB DUP5 DUP2 AND PUSH1 0x1 PUSH1 0x1 PUSH1 0xA0 SHL SUB NOT DUP4 AND OR SWAP1 SWAP3 SSTORE AND PUSH2 0xA46 JUMP JUMPDEST PUSH1 0x40 DUP1 MLOAD DUP1 DUP3 ADD SWAP1 SWAP2 MSTORE PUSH1 0x9 DUP2 MSTORE PUSH9 0x4F72646572626F6F6B PUSH1 0xB8 SHL PUSH1 0x20 SWAP1 SWAP2 ADD MSTORE PUSH32 0x88183FB9287568C59859B76B448F3503C4694B223403814AD47F73822CF48B86 DUP3 ADD PUSH2 0x992 JUMPI POP PUSH1 0x4 DUP1 SLOAD PUSH1 0x1 PUSH1 0x1 PUSH1 0xA0 SHL SUB DUP5 DUP2 AND PUSH1 0x1 PUSH1 0x1 PUSH1 0xA0 SHL SUB NOT DUP4 AND OR SWAP1 SWAP3 SSTORE AND PUSH2 0xA46 JUMP JUMPDEST PUSH1 0x40 DUP1 MLOAD DUP1 DUP3 ADD SWAP1 SWAP2 MSTORE PUSH1 0x10 DUP2 MSTORE PUSH16 0x2330B6363130B1B5A2BC32B1BABA37B9 PUSH1 0x81 SHL PUSH1 0x20 SWAP1 SWAP2 ADD MSTORE PUSH32 0x6092FD3727DB459D2A5913FBCF4972989120DDB175CCF394F9F9EA095D2742F9 DUP3 ADD PUSH2 0xA06 JUMPI POP PUSH1 0x5 DUP1 SLOAD PUSH1 0x1 PUSH1 0x1 PUSH1 0xA0 SHL SUB DUP5 DUP2 AND PUSH1 0x1 PUSH1 0x1 PUSH1 0xA0 SHL SUB NOT DUP4 AND OR SWAP1 SWAP3 SSTORE AND PUSH2 0xA46 JUMP JUMPDEST PUSH1 0x40 MLOAD PUSH3 0x461BCD PUSH1 0xE5 SHL DUP2 MSTORE PUSH1 0x20 PUSH1 0x4 DUP3 ADD MSTORE PUSH1 0x15 PUSH1 0x24 DUP3 ADD MSTORE PUSH21 0x496E76616C696420636F6E7472616374206E616D65 PUSH1 0x58 SHL PUSH1 0x44 DUP3 ADD MSTORE PUSH1 0x64 ADD PUSH2 0x48A JUMP JUMPDEST DUP3 PUSH1 0x1 PUSH1 0x1 PUSH1 0xA0 SHL SUB AND DUP2 PUSH1 0x1 PUSH1 0x1 PUSH1 0xA0 SHL SUB AND DUP7 DUP7 PUSH1 0x40 MLOAD PUSH2 0xA6A SWAP3 SWAP2 SWAP1 PUSH2 0xE91 JUMP JUMPDEST PUSH1 0x40 MLOAD SWAP1 DUP2 SWAP1 SUB DUP2 KECCAK256 SWAP1 PUSH1 0x0 DUP1 MLOAD PUSH1 0x20 PUSH2 0xEA2 DUP4 CODECOPY DUP2 MLOAD SWAP2 MSTORE SWAP1 PUSH1 0x0 SWAP1 LOG4 POP POP POP POP POP JUMP JUMPDEST PUSH2 0xA97 PUSH2 0xC44 JUMP JUMPDEST PUSH2 0xAA1 PUSH1 0x0 PUSH2 0xC71 JUMP JUMPDEST JUMP JUMPDEST PUSH2 0xAAB PUSH2 0xC44 JUMP JUMPDEST PUSH1 0x1 PUSH1 0x1 PUSH1 0xA0 SHL SUB SWAP2 SWAP1 SWAP2 AND PUSH1 0x0 SWAP1 DUP2 MSTORE PUSH1 0x6 PUSH1 0x20 MSTORE PUSH1 0x40 SWAP1 KECCAK256 DUP1 SLOAD PUSH1 0xFF NOT AND SWAP2 ISZERO ISZERO SWAP2 SWAP1 SWAP2 OR SWAP1 SSTORE JUMP JUMPDEST PUSH2 0xADE PUSH2 0xC44 JUMP JUMPDEST PUSH1 0x1 PUSH1 0x1 PUSH1 0xA0 SHL SUB DUP2 AND PUSH2 0xB34 JUMPI PUSH1 0x40 MLOAD PUSH3 0x461BCD PUSH1 0xE5 SHL DUP2 MSTORE PUSH1 0x20 PUSH1 0x4 DUP3 ADD MSTORE PUSH1 0x1B PUSH1 0x24 DUP3 ADD MSTORE PUSH32 0x496E76616C6964206469737472696275746F7220616464726573730000000000 PUSH1 0x44 DUP3 ADD MSTORE PUSH1 0x64 ADD PUSH2 0x48A JUMP JUMPDEST PUSH1 0x1 PUSH1 0x1 PUSH1 0xA0 SHL SUB DUP2 AND PUSH1 0x0 DUP2 DUP2 MSTORE PUSH1 0x7 PUSH1 0x20 MSTORE PUSH1 0x40 DUP1 DUP3 KECCAK256 DUP1 SLOAD PUSH1 0xFF NOT AND PUSH1 0x1 OR SWAP1 SSTORE MLOAD PUSH32 0x75C02C513A415BD4FF5976F8AA6FC5767D2183DACA9EC00AB71CE78E8BF8158 SWAP2 SWAP1 LOG2 POP JUMP JUMPDEST PUSH2 0xB88 PUSH2 0xC44 JUMP JUMPDEST PUSH1 0x1 PUSH1 0x1 PUSH1 0xA0 SHL SUB DUP2 AND PUSH2 0xBB2 JUMPI PUSH1 0x40 MLOAD PUSH4 0x1E4FBDF7 PUSH1 0xE0 SHL DUP2 MSTORE PUSH1 0x0 PUSH1 0x4 DUP3 ADD MSTORE PUSH1 0x24 ADD PUSH2 0x48A JUMP JUMPDEST PUSH2 0xBBB DUP2 PUSH2 0xC71 JUMP JUMPDEST POP JUMP JUMPDEST PUSH2 0xBC6 PUSH2 0xC44 JUMP JUMPDEST PUSH1 0x1 PUSH1 0x1 PUSH1 0xA0 SHL SUB DUP3 AND PUSH2 0xBEC JUMPI PUSH1 0x40 MLOAD PUSH3 0x461BCD PUSH1 0xE5 SHL DUP2 MSTORE PUSH1 0x4 ADD PUSH2 0x48A SWAP1 PUSH2 0xE68 JUMP JUMPDEST PUSH1 0x1 PUSH1 0x1 PUSH1 0xA0 SHL SUB DUP3 AND PUSH1 0x0 DUP2 DUP2 MSTORE PUSH1 0x9 PUSH1 0x20 SWAP1 DUP2 MSTORE PUSH1 0x40 SWAP2 DUP3 SWAP1 KECCAK256 DUP1 SLOAD PUSH1 0xFF NOT AND DUP6 ISZERO ISZERO SWAP1 DUP2 OR SWAP1 SWAP2 SSTORE SWAP2 MLOAD SWAP2 DUP3 MSTORE PUSH32 0x3213AB8EC2ED122402F038736B41878B69AE9F61F49A7EDD0666BCE891D29FC9 SWAP2 ADD PUSH2 0x4E7 JUMP JUMPDEST PUSH1 0x0 SLOAD PUSH1 0x1 PUSH1 0x1 PUSH1 0xA0 SHL SUB AND CALLER EQ PUSH2 0xAA1 JUMPI PUSH1 0x40 MLOAD PUSH4 0x118CDAA7 PUSH1 0xE0 SHL DUP2 MSTORE CALLER PUSH1 0x4 DUP3 ADD MSTORE PUSH1 0x24 ADD PUSH2 0x48A JUMP JUMPDEST PUSH1 0x0 DUP1 SLOAD PUSH1 0x1 PUSH1 0x1 PUSH1 0xA0 SHL SUB DUP4 DUP2 AND PUSH1 0x1 PUSH1 0x1 PUSH1 0xA0 SHL SUB NOT DUP4 AND DUP2 OR DUP5 SSTORE PUSH1 0x40 MLOAD SWAP2 SWAP1 SWAP3 AND SWAP3 DUP4 SWAP2 PUSH32 0x8BE0079C531659141344CD1FD0A4F28419497F9722A3DAAFE3B4186F6B6457E0 SWAP2 SWAP1 LOG3 POP POP JUMP JUMPDEST DUP1 CALLDATALOAD PUSH1 0x1 PUSH1 0x1 PUSH1 0xA0 SHL SUB DUP2 AND DUP2 EQ PUSH2 0xCD8 JUMPI PUSH1 0x0 DUP1 REVERT JUMPDEST SWAP2 SWAP1 POP JUMP JUMPDEST PUSH1 0x0 PUSH1 0x20 DUP3 DUP5 SUB SLT ISZERO PUSH2 0xCEF JUMPI PUSH1 0x0 DUP1 REVERT JUMPDEST PUSH2 0xCF8 DUP3 PUSH2 0xCC1 JUMP JUMPDEST SWAP4 SWAP3 POP POP POP JUMP JUMPDEST PUSH1 0x0 DUP1 PUSH1 0x40 DUP4 DUP6 SUB SLT ISZERO PUSH2 0xD12 JUMPI PUSH1 0x0 DUP1 REVERT JUMPDEST PUSH2 0xD1B DUP4 PUSH2 0xCC1 JUMP JUMPDEST SWAP2 POP PUSH1 0x20 DUP4 ADD CALLDATALOAD DUP1 ISZERO ISZERO DUP2 EQ PUSH2 0xD30 JUMPI PUSH1 0x0 DUP1 REVERT JUMPDEST DUP1 SWAP2 POP POP SWAP3 POP SWAP3 SWAP1 POP JUMP JUMPDEST PUSH1 0x0 DUP1 PUSH1 0x40 DUP4 DUP6 SUB SLT ISZERO PUSH2 0xD4E JUMPI PUSH1 0x0 DUP1 REVERT JUMPDEST DUP3 CALLDATALOAD SWAP2 POP PUSH2 0xD5E PUSH1 0x20 DUP5 ADD PUSH2 0xCC1 JUMP JUMPDEST SWAP1 POP SWAP3 POP SWAP3 SWAP1 POP JUMP JUMPDEST PUSH1 0x0 DUP1 PUSH1 0x0 DUP1 PUSH1 0x0 PUSH1 0xA0 DUP7 DUP9 SUB SLT ISZERO PUSH2 0xD7F JUMPI PUSH1 0x0 DUP1 REVERT JUMPDEST PUSH2 0xD88 DUP7 PUSH2 0xCC1 JUMP JUMPDEST SWAP5 POP PUSH2 0xD96 PUSH1 0x20 DUP8 ADD PUSH2 0xCC1 JUMP JUMPDEST SWAP4 POP PUSH2 0xDA4 PUSH1 0x40 DUP8 ADD PUSH2 0xCC1 JUMP JUMPDEST SWAP3 POP PUSH2 0xDB2 PUSH1 0x60 DUP8 ADD PUSH2 0xCC1 JUMP JUMPDEST SWAP2 POP PUSH2 0xDC0 PUSH1 0x80 DUP8 ADD PUSH2 0xCC1 JUMP JUMPDEST SWAP1 POP SWAP3 SWAP6 POP SWAP3 SWAP6 SWAP1 SWAP4 POP JUMP JUMPDEST PUSH1 0x0 DUP1 PUSH1 0x0 PUSH1 0x40 DUP5 DUP7 SUB SLT ISZERO PUSH2 0xDE1 JUMPI PUSH1 0x0 DUP1 REVERT JUMPDEST DUP4 CALLDATALOAD PUSH8 0xFFFFFFFFFFFFFFFF DUP2 GT ISZERO PUSH2 0xDF8 JUMPI PUSH1 0x0 DUP1 REVERT JUMPDEST DUP5 ADD PUSH1 0x1F DUP2 ADD DUP7 SGT PUSH2 0xE09 JUMPI PUSH1 0x0 DUP1 REVERT JUMPDEST DUP1 CALLDATALOAD PUSH8 0xFFFFFFFFFFFFFFFF DUP2 GT ISZERO PUSH2 0xE20 JUMPI PUSH1 0x0 DUP1 REVERT JUMPDEST DUP7 PUSH1 0x20 DUP3 DUP5 ADD ADD GT ISZERO PUSH2 0xE32 JUMPI PUSH1 0x0 DUP1 REVERT JUMPDEST PUSH1 0x20 SWAP2 DUP3 ADD SWAP5 POP SWAP3 POP PUSH2 0xE46 SWAP1 DUP6 ADD PUSH2 0xCC1 JUMP JUMPDEST SWAP1 POP SWAP3 POP SWAP3 POP SWAP3 JUMP JUMPDEST PUSH1 0x0 PUSH1 0x20 DUP3 DUP5 SUB SLT ISZERO PUSH2 0xE61 JUMPI PUSH1 0x0 DUP1 REVERT JUMPDEST POP CALLDATALOAD SWAP2 SWAP1 POP JUMP JUMPDEST PUSH1 0x20 DUP1 DUP3 MSTORE PUSH1 0xF SWAP1 DUP3 ADD MSTORE PUSH15 0x496E76616C69642061646472657373 PUSH1 0x88 SHL PUSH1 0x40 DUP3 ADD MSTORE PUSH1 0x60 ADD SWAP1 JUMP JUMPDEST DUP2 DUP4 DUP3 CALLDATACOPY PUSH1 0x0 SWAP2 ADD SWAP1 DUP2 MSTORE SWAP2 SWAP1 POP JUMP INVALID 0xA9 0xF 0xB3 XOR 0xCE CALL PUSH1 0x85 0x1F SLOAD 0x28 PUSH19 0xDFCE25DADAFDFDE152BA8CC05E3F0B882842E5 EXTCODECOPY LOG2 PUSH5 0x6970667358 0x22 SLT KECCAK256 0xC5 OR 0xCC DUP13 SWAP11 SWAP10 0xC4 PUSH27 0xB52A61D9F97CA49321DCFADB879088333D997064C9946BD264736F PUSH13 0x634300081A0033000000000000 "
        },
        "methodIdentifiers": {
          "additionalContracts(bytes32)": "8d786521",
          "authorizeFulfiller(address,bool)": "1f3108b4",
          "authorizedContracts(address)": "d5b9221b",
          "authorizedFulfillers(address)": "67a0b7bb",
          "blockedTokens(address)": "39b59958",
          "fallbackExecutor()": "745e9e9f",
          "feeCollector()": "c415b95c",
          "getAllMainContracts()": "65145f7f",
          "getFallbackExecutor()": "8c25c139",
          "getOrderbook()": "ab63c607",
          "gradientToken()": "387c8aeb",
          "isAuthorizedFulfiller(address)": "a62986a8",
          "isContractAuthorized(address)": "103aeda7",
          "isRewardDistributor(address)": "16ed8525",
          "marketMakerPool()": "4513443a",
          "orderbook()": "c18b1d5e",
          "owner()": "8da5cb5b",
          "renounceOwnership()": "715018a6",
          "setAdditionalContract(bytes32,address)": "2a27abf6",
          "setContractAddress(string,address)": "534e785c",
          "setContractAuthorization(address,bool)": "f60ccc86",
          "setMainContracts(address,address,address,address,address)": "366a6d17",
          "setRewardDistributor(address)": "a1809b95",
          "setTokenBlockStatus(address,bool)": "8880ef91",
          "transferOwnership(address)": "f2fde38b"
        }
      }
    }
  }
}