{
  "_format": "hh-sol-artifact-1",
  "contractName": "GradientMarketMakerPool",
  "sourceName": "contracts/GradientMarketMakerPool.sol",
  "abi": [
    {
      "inputs": [
        {
          "internalType": "contract IGradientRegistry",
          "name": "_gradientRegistry",
          "type": "address"
        }
      ],
      "stateMutability": "nonpayable",
      "type": "constructor"
    },
    {
      "inputs": [
        {
          "internalType": "address",
          "name": "owner",
          "type": "address"
        }
      ],
      "name": "OwnableInvalidOwner",
      "type": "error"
    },
    {
      "inputs": [
        {
          "internalType": "address",
          "name": "account",
          "type": "address"
        }
      ],
      "name": "OwnableUnauthorizedAccount",
      "type": "error"
    },
    {
      "inputs": [],
      "name": "ReentrancyGuardReentrantCall",
      "type": "error"
    },
    {
      "inputs": [
        {
          "internalType": "address",
          "name": "token",
          "type": "address"
        }
      ],
      "name": "SafeERC20FailedOperation",
      "type": "error"
    },
    {
      "anonymous": false,
      "inputs": [
        {
          "indexed": true,
          "internalType": "address",
          "name": "user",
          "type": "address"
        },
        {
          "indexed": false,
          "internalType": "address",
          "name": "token",
          "type": "address"
        },
        {
          "indexed": false,
          "internalType": "uint256",
          "name": "ethAmount",
          "type": "uint256"
        },
        {
          "indexed": false,
          "internalType": "uint256",
          "name": "lpSharesMinted",
          "type": "uint256"
        }
      ],
      "name": "ETHLiquidityDeposited",
      "type": "event"
    },
    {
      "anonymous": false,
      "inputs": [
        {
          "indexed": true,
          "internalType": "address",
          "name": "user",
          "type": "address"
        },
        {
          "indexed": false,
          "internalType": "address",
          "name": "token",
          "type": "address"
        },
        {
          "indexed": false,
          "internalType": "uint256",
          "name": "epoch",
          "type": "uint256"
        },
        {
          "indexed": false,
          "internalType": "uint256",
          "name": "ethAmount",
          "type": "uint256"
        },
        {
          "indexed": false,
          "internalType": "uint256",
          "name": "lpSharesBurned",
          "type": "uint256"
        }
      ],
      "name": "ETHLiquidityWithdrawn",
      "type": "event"
    },
    {
      "anonymous": false,
      "inputs": [
        {
          "indexed": true,
          "internalType": "address",
          "name": "token",
          "type": "address"
        },
        {
          "indexed": false,
          "internalType": "uint256",
          "name": "newEpoch",
          "type": "uint256"
        }
      ],
      "name": "EpochIncremented",
      "type": "event"
    },
    {
      "anonymous": false,
      "inputs": [
        {
          "indexed": true,
          "internalType": "address",
          "name": "owner",
          "type": "address"
        },
        {
          "indexed": true,
          "internalType": "address",
          "name": "token",
          "type": "address"
        },
        {
          "indexed": false,
          "internalType": "uint256",
          "name": "amount",
          "type": "uint256"
        },
        {
          "indexed": false,
          "internalType": "string",
          "name": "reason",
          "type": "string"
        }
      ],
      "name": "ExcessiveFundsWithdrawn",
      "type": "event"
    },
    {
      "anonymous": false,
      "inputs": [
        {
          "indexed": false,
          "internalType": "uint256",
          "name": "newMinLiquidity",
          "type": "uint256"
        }
      ],
      "name": "MinLiquidityUpdated",
      "type": "event"
    },
    {
      "anonymous": false,
      "inputs": [
        {
          "indexed": false,
          "internalType": "uint256",
          "name": "newMinTokenLiquidity",
          "type": "uint256"
        }
      ],
      "name": "MinTokenLiquidityUpdated",
      "type": "event"
    },
    {
      "anonymous": false,
      "inputs": [
        {
          "indexed": true,
          "internalType": "address",
          "name": "previousOwner",
          "type": "address"
        },
        {
          "indexed": true,
          "internalType": "address",
          "name": "newOwner",
          "type": "address"
        }
      ],
      "name": "OwnershipTransferred",
      "type": "event"
    },
    {
      "anonymous": false,
      "inputs": [
        {
          "indexed": true,
          "internalType": "address",
          "name": "token",
          "type": "address"
        },
        {
          "indexed": false,
          "internalType": "uint256",
          "name": "newTotalEth",
          "type": "uint256"
        },
        {
          "indexed": false,
          "internalType": "uint256",
          "name": "newTotalTokens",
          "type": "uint256"
        },
        {
          "indexed": false,
          "internalType": "uint256",
          "name": "newTotalETHLPShares",
          "type": "uint256"
        },
        {
          "indexed": false,
          "internalType": "uint256",
          "name": "newTotalTokenLPShares",
          "type": "uint256"
        },
        {
          "indexed": false,
          "internalType": "uint256",
          "name": "epoch",
          "type": "uint256"
        }
      ],
      "name": "PoolBalanceUpdated",
      "type": "event"
    },
    {
      "anonymous": false,
      "inputs": [
        {
          "indexed": true,
          "internalType": "address",
          "name": "user",
          "type": "address"
        },
        {
          "indexed": false,
          "internalType": "uint256",
          "name": "amount",
          "type": "uint256"
        },
        {
          "indexed": false,
          "internalType": "address",
          "name": "token",
          "type": "address"
        },
        {
          "indexed": false,
          "internalType": "uint256",
          "name": "epoch",
          "type": "uint256"
        },
        {
          "indexed": false,
          "internalType": "bool",
          "name": "isETH",
          "type": "bool"
        }
      ],
      "name": "PoolFeeClaimed",
      "type": "event"
    },
    {
      "anonymous": false,
      "inputs": [
        {
          "indexed": true,
          "internalType": "address",
          "name": "from",
          "type": "address"
        },
        {
          "indexed": false,
          "internalType": "uint256",
          "name": "amount",
          "type": "uint256"
        },
        {
          "indexed": false,
          "internalType": "address",
          "name": "token",
          "type": "address"
        },
        {
          "indexed": false,
          "internalType": "uint256",
          "name": "epoch",
          "type": "uint256"
        },
        {
          "indexed": false,
          "internalType": "bool",
          "name": "isETH",
          "type": "bool"
        }
      ],
      "name": "PoolFeeDistributed",
      "type": "event"
    },
    {
      "anonymous": false,
      "inputs": [
        {
          "indexed": true,
          "internalType": "address",
          "name": "user",
          "type": "address"
        },
        {
          "indexed": false,
          "internalType": "uint256",
          "name": "amount",
          "type": "uint256"
        },
        {
          "indexed": false,
          "internalType": "address",
          "name": "token",
          "type": "address"
        },
        {
          "indexed": false,
          "internalType": "uint256",
          "name": "epoch",
          "type": "uint256"
        },
        {
          "indexed": false,
          "internalType": "bool",
          "name": "isETH",
          "type": "bool"
        }
      ],
      "name": "PoolSharesClaimed",
      "type": "event"
    },
    {
      "anonymous": false,
      "inputs": [
        {
          "indexed": false,
          "internalType": "address",
          "name": "oldRegistry",
          "type": "address"
        },
        {
          "indexed": false,
          "internalType": "address",
          "name": "newRegistry",
          "type": "address"
        }
      ],
      "name": "RegistryUpdated",
      "type": "event"
    },
    {
      "anonymous": false,
      "inputs": [
        {
          "indexed": true,
          "internalType": "address",
          "name": "user",
          "type": "address"
        },
        {
          "indexed": false,
          "internalType": "address",
          "name": "token",
          "type": "address"
        },
        {
          "indexed": false,
          "internalType": "uint256",
          "name": "tokenAmount",
          "type": "uint256"
        },
        {
          "indexed": false,
          "internalType": "uint256",
          "name": "lpSharesMinted",
          "type": "uint256"
        }
      ],
      "name": "TokenLiquidityDeposited",
      "type": "event"
    },
    {
      "anonymous": false,
      "inputs": [
        {
          "indexed": true,
          "internalType": "address",
          "name": "user",
          "type": "address"
        },
        {
          "indexed": false,
          "internalType": "address",
          "name": "token",
          "type": "address"
        },
        {
          "indexed": false,
          "internalType": "uint256",
          "name": "epoch",
          "type": "uint256"
        },
        {
          "indexed": false,
          "internalType": "uint256",
          "name": "tokenAmount",
          "type": "uint256"
        },
        {
          "indexed": false,
          "internalType": "uint256",
          "name": "lpSharesBurned",
          "type": "uint256"
        }
      ],
      "name": "TokenLiquidityWithdrawn",
      "type": "event"
    },
    {
      "inputs": [],
      "name": "SCALE",
      "outputs": [
        {
          "internalType": "uint256",
          "name": "",
          "type": "uint256"
        }
      ],
      "stateMutability": "view",
      "type": "function"
    },
    {
      "inputs": [
        {
          "internalType": "address",
          "name": "token",
          "type": "address"
        }
      ],
      "name": "addETHLiquidity",
      "outputs": [],
      "stateMutability": "payable",
      "type": "function"
    },
    {
      "inputs": [
        {
          "internalType": "address",
          "name": "token",
          "type": "address"
        },
        {
          "internalType": "uint256",
          "name": "tokenAmount",
          "type": "uint256"
        }
      ],
      "name": "addLiquidity",
      "outputs": [],
      "stateMutability": "payable",
      "type": "function"
    },
    {
      "inputs": [
        {
          "internalType": "address",
          "name": "token",
          "type": "address"
        },
        {
          "internalType": "uint256",
          "name": "tokenAmount",
          "type": "uint256"
        }
      ],
      "name": "addTokenLiquidity",
      "outputs": [],
      "stateMutability": "nonpayable",
      "type": "function"
    },
    {
      "inputs": [
        {
          "internalType": "address",
          "name": "token",
          "type": "address"
        },
        {
          "internalType": "uint256[]",
          "name": "epochs",
          "type": "uint256[]"
        },
        {
          "internalType": "bool",
          "name": "isETHPool",
          "type": "bool"
        }
      ],
      "name": "claimAllEpochsPoolFee",
      "outputs": [],
      "stateMutability": "nonpayable",
      "type": "function"
    },
    {
      "inputs": [
        {
          "internalType": "address",
          "name": "token",
          "type": "address"
        },
        {
          "internalType": "uint256",
          "name": "epoch",
          "type": "uint256"
        }
      ],
      "name": "claimEthPoolFee",
      "outputs": [],
      "stateMutability": "nonpayable",
      "type": "function"
    },
    {
      "inputs": [
        {
          "internalType": "address",
          "name": "token",
          "type": "address"
        },
        {
          "internalType": "uint256",
          "name": "epoch",
          "type": "uint256"
        }
      ],
      "name": "claimTokenPoolFee",
      "outputs": [],
      "stateMutability": "nonpayable",
      "type": "function"
    },
    {
      "inputs": [
        {
          "internalType": "address",
          "name": "",
          "type": "address"
        }
      ],
      "name": "currentETHEpochs",
      "outputs": [
        {
          "internalType": "uint256",
          "name": "",
          "type": "uint256"
        }
      ],
      "stateMutability": "view",
      "type": "function"
    },
    {
      "inputs": [
        {
          "internalType": "address",
          "name": "",
          "type": "address"
        }
      ],
      "name": "currentTokenEpochs",
      "outputs": [
        {
          "internalType": "uint256",
          "name": "",
          "type": "uint256"
        }
      ],
      "stateMutability": "view",
      "type": "function"
    },
    {
      "inputs": [
        {
          "internalType": "address",
          "name": "token",
          "type": "address"
        },
        {
          "internalType": "uint256",
          "name": "epoch",
          "type": "uint256"
        },
        {
          "internalType": "bool",
          "name": "isETHPool",
          "type": "bool"
        }
      ],
      "name": "distributePoolFee",
      "outputs": [],
      "stateMutability": "payable",
      "type": "function"
    },
    {
      "inputs": [
        {
          "internalType": "address",
          "name": "",
          "type": "address"
        },
        {
          "internalType": "uint256",
          "name": "",
          "type": "uint256"
        }
      ],
      "name": "ethPools",
      "outputs": [
        {
          "internalType": "uint256",
          "name": "accountedEth",
          "type": "uint256"
        },
        {
          "internalType": "uint256",
          "name": "totalETH",
          "type": "uint256"
        },
        {
          "internalType": "uint256",
          "name": "totalLPShares",
          "type": "uint256"
        },
        {
          "internalType": "uint256",
          "name": "accRewardPerShare",
          "type": "uint256"
        },
        {
          "internalType": "uint256",
          "name": "rewardBalance",
          "type": "uint256"
        },
        {
          "internalType": "uint256",
          "name": "accTokenRewardPerShare",
          "type": "uint256"
        },
        {
          "internalType": "uint256",
          "name": "tokenRewardBalance",
          "type": "uint256"
        },
        {
          "internalType": "address",
          "name": "uniswapPair",
          "type": "address"
        }
      ],
      "stateMutability": "view",
      "type": "function"
    },
    {
      "inputs": [
        {
          "internalType": "address",
          "name": "",
          "type": "address"
        },
        {
          "internalType": "address",
          "name": "",
          "type": "address"
        },
        {
          "internalType": "uint256",
          "name": "",
          "type": "uint256"
        }
      ],
      "name": "ethProviders",
      "outputs": [
        {
          "internalType": "uint256",
          "name": "ethAmount",
          "type": "uint256"
        },
        {
          "internalType": "uint256",
          "name": "lpShares",
          "type": "uint256"
        },
        {
          "internalType": "uint256",
          "name": "rewardDebt",
          "type": "uint256"
        },
        {
          "internalType": "uint256",
          "name": "pendingReward",
          "type": "uint256"
        },
        {
          "internalType": "uint256",
          "name": "tokenRewardDebt",
          "type": "uint256"
        },
        {
          "internalType": "uint256",
          "name": "pendingTokenReward",
          "type": "uint256"
        }
      ],
      "stateMutability": "view",
      "type": "function"
    },
    {
      "inputs": [
        {
          "internalType": "address",
          "name": "token",
          "type": "address"
        },
        {
          "internalType": "uint256",
          "name": "ethAmount",
          "type": "uint256"
        },
        {
          "internalType": "uint256",
          "name": "tokenAmount",
          "type": "uint256"
        }
      ],
      "name": "executeBuyOrder",
      "outputs": [],
      "stateMutability": "payable",
      "type": "function"
    },
    {
      "inputs": [
        {
          "internalType": "address",
          "name": "token",
          "type": "address"
        },
        {
          "internalType": "uint256",
          "name": "ethAmount",
          "type": "uint256"
        },
        {
          "internalType": "uint256",
          "name": "tokenAmount",
          "type": "uint256"
        }
      ],
      "name": "executeSellOrder",
      "outputs": [],
      "stateMutability": "nonpayable",
      "type": "function"
    },
    {
      "inputs": [
        {
          "internalType": "address",
          "name": "token",
          "type": "address"
        }
      ],
      "name": "getCurrentETHEpoch",
      "outputs": [
        {
          "internalType": "uint256",
          "name": "",
          "type": "uint256"
        }
      ],
      "stateMutability": "view",
      "type": "function"
    },
    {
      "inputs": [
        {
          "internalType": "address",
          "name": "token",
          "type": "address"
        }
      ],
      "name": "getCurrentTokenEpoch",
      "outputs": [
        {
          "internalType": "uint256",
          "name": "",
          "type": "uint256"
        }
      ],
      "stateMutability": "view",
      "type": "function"
    },
    {
      "inputs": [
        {
          "internalType": "address",
          "name": "token",
          "type": "address"
        },
        {
          "internalType": "uint256",
          "name": "epoch",
          "type": "uint256"
        }
      ],
      "name": "getETHPoolInfo",
      "outputs": [
        {
          "components": [
            {
              "internalType": "uint256",
              "name": "accountedEth",
              "type": "uint256"
            },
            {
              "internalType": "uint256",
              "name": "totalETH",
              "type": "uint256"
            },
            {
              "internalType": "uint256",
              "name": "totalLPShares",
              "type": "uint256"
            },
            {
              "internalType": "uint256",
              "name": "accRewardPerShare",
              "type": "uint256"
            },
            {
              "internalType": "uint256",
              "name": "rewardBalance",
              "type": "uint256"
            },
            {
              "internalType": "uint256",
              "name": "accTokenRewardPerShare",
              "type": "uint256"
            },
            {
              "internalType": "uint256",
              "name": "tokenRewardBalance",
              "type": "uint256"
            },
            {
              "internalType": "address",
              "name": "uniswapPair",
              "type": "address"
            }
          ],
          "internalType": "struct IGradientMarketMakerPool.ETHPoolInfo",
          "name": "",
          "type": "tuple"
        }
      ],
      "stateMutability": "view",
      "type": "function"
    },
    {
      "inputs": [
        {
          "internalType": "address",
          "name": "token",
          "type": "address"
        }
      ],
      "name": "getExcessiveFunds",
      "outputs": [
        {
          "internalType": "uint256",
          "name": "excessiveEth",
          "type": "uint256"
        },
        {
          "internalType": "uint256",
          "name": "excessiveTokens",
          "type": "uint256"
        }
      ],
      "stateMutability": "view",
      "type": "function"
    },
    {
      "inputs": [
        {
          "internalType": "address",
          "name": "token",
          "type": "address"
        }
      ],
      "name": "getPairAddress",
      "outputs": [
        {
          "internalType": "address",
          "name": "pairAddress",
          "type": "address"
        }
      ],
      "stateMutability": "view",
      "type": "function"
    },
    {
      "inputs": [
        {
          "internalType": "address",
          "name": "token",
          "type": "address"
        }
      ],
      "name": "getReserves",
      "outputs": [
        {
          "internalType": "uint256",
          "name": "reserveETH",
          "type": "uint256"
        },
        {
          "internalType": "uint256",
          "name": "reserveToken",
          "type": "uint256"
        }
      ],
      "stateMutability": "view",
      "type": "function"
    },
    {
      "inputs": [
        {
          "internalType": "address",
          "name": "token",
          "type": "address"
        },
        {
          "internalType": "uint256",
          "name": "epoch",
          "type": "uint256"
        }
      ],
      "name": "getTokenPoolInfo",
      "outputs": [
        {
          "components": [
            {
              "internalType": "uint256",
              "name": "accountedToken",
              "type": "uint256"
            },
            {
              "internalType": "uint256",
              "name": "totalTokens",
              "type": "uint256"
            },
            {
              "internalType": "uint256",
              "name": "totalLPShares",
              "type": "uint256"
            },
            {
              "internalType": "uint256",
              "name": "accRewardPerShare",
              "type": "uint256"
            },
            {
              "internalType": "uint256",
              "name": "rewardBalance",
              "type": "uint256"
            },
            {
              "internalType": "uint256",
              "name": "accETHRewardPerShare",
              "type": "uint256"
            },
            {
              "internalType": "uint256",
              "name": "ethRewardBalance",
              "type": "uint256"
            },
            {
              "internalType": "address",
              "name": "uniswapPair",
              "type": "address"
            }
          ],
          "internalType": "struct IGradientMarketMakerPool.TokenPoolInfo",
          "name": "",
          "type": "tuple"
        }
      ],
      "stateMutability": "view",
      "type": "function"
    },
    {
      "inputs": [
        {
          "internalType": "address",
          "name": "token",
          "type": "address"
        },
        {
          "internalType": "address",
          "name": "user",
          "type": "address"
        },
        {
          "internalType": "uint256",
          "name": "epoch",
          "type": "uint256"
        }
      ],
      "name": "getTokenProviderLPShares",
      "outputs": [
        {
          "internalType": "uint256",
          "name": "lpShares",
          "type": "uint256"
        }
      ],
      "stateMutability": "view",
      "type": "function"
    },
    {
      "inputs": [
        {
          "internalType": "address",
          "name": "token",
          "type": "address"
        },
        {
          "internalType": "address",
          "name": "user",
          "type": "address"
        }
      ],
      "name": "getUserParticipatedETHEpochs",
      "outputs": [
        {
          "internalType": "uint256[]",
          "name": "",
          "type": "uint256[]"
        }
      ],
      "stateMutability": "view",
      "type": "function"
    },
    {
      "inputs": [
        {
          "internalType": "address",
          "name": "token",
          "type": "address"
        },
        {
          "internalType": "address",
          "name": "user",
          "type": "address"
        }
      ],
      "name": "getUserParticipatedTokenEpochs",
      "outputs": [
        {
          "internalType": "uint256[]",
          "name": "",
          "type": "uint256[]"
        }
      ],
      "stateMutability": "view",
      "type": "function"
    },
    {
      "inputs": [],
      "name": "gradientRegistry",
      "outputs": [
        {
          "internalType": "contract IGradientRegistry",
          "name": "",
          "type": "address"
        }
      ],
      "stateMutability": "view",
      "type": "function"
    },
    {
      "inputs": [],
      "name": "minLiquidity",
      "outputs": [
        {
          "internalType": "uint256",
          "name": "",
          "type": "uint256"
        }
      ],
      "stateMutability": "view",
      "type": "function"
    },
    {
      "inputs": [],
      "name": "minTokenLiquidity",
      "outputs": [
        {
          "internalType": "uint256",
          "name": "",
          "type": "uint256"
        }
      ],
      "stateMutability": "view",
      "type": "function"
    },
    {
      "inputs": [],
      "name": "owner",
      "outputs": [
        {
          "internalType": "address",
          "name": "",
          "type": "address"
        }
      ],
      "stateMutability": "view",
      "type": "function"
    },
    {
      "inputs": [
        {
          "internalType": "address",
          "name": "token",
          "type": "address"
        },
        {
          "internalType": "uint256[]",
          "name": "epochs",
          "type": "uint256[]"
        },
        {
          "internalType": "uint256[]",
          "name": "shares",
          "type": "uint256[]"
        },
        {
          "internalType": "uint256[]",
          "name": "minEthAmounts",
          "type": "uint256[]"
        }
      ],
      "name": "removeAllETHLiquidity",
      "outputs": [],
      "stateMutability": "nonpayable",
      "type": "function"
    },
    {
      "inputs": [
        {
          "internalType": "address",
          "name": "token",
          "type": "address"
        },
        {
          "internalType": "uint256[]",
          "name": "ethEpochs",
          "type": "uint256[]"
        },
        {
          "internalType": "uint256[]",
          "name": "tokenEpochs",
          "type": "uint256[]"
        },
        {
          "internalType": "uint256[]",
          "name": "ethShares",
          "type": "uint256[]"
        },
        {
          "internalType": "uint256[]",
          "name": "tokenShares",
          "type": "uint256[]"
        },
        {
          "internalType": "uint256[]",
          "name": "minEthAmounts",
          "type": "uint256[]"
        },
        {
          "internalType": "uint256[]",
          "name": "minTokenAmounts",
          "type": "uint256[]"
        }
      ],
      "name": "removeAllEpochsLiquidity",
      "outputs": [],
      "stateMutability": "nonpayable",
      "type": "function"
    },
    {
      "inputs": [
        {
          "internalType": "address",
          "name": "token",
          "type": "address"
        },
        {
          "internalType": "uint256[]",
          "name": "epochs",
          "type": "uint256[]"
        },
        {
          "internalType": "uint256[]",
          "name": "shares",
          "type": "uint256[]"
        },
        {
          "internalType": "uint256[]",
          "name": "minTokenAmounts",
          "type": "uint256[]"
        }
      ],
      "name": "removeAllTokenLiquidity",
      "outputs": [],
      "stateMutability": "nonpayable",
      "type": "function"
    },
    {
      "inputs": [
        {
          "internalType": "address",
          "name": "token",
          "type": "address"
        },
        {
          "internalType": "uint256",
          "name": "shares",
          "type": "uint256"
        },
        {
          "internalType": "uint256",
          "name": "minEthAmount",
          "type": "uint256"
        },
        {
          "internalType": "uint256",
          "name": "epoch",
          "type": "uint256"
        }
      ],
      "name": "removeETHLiquidity",
      "outputs": [],
      "stateMutability": "nonpayable",
      "type": "function"
    },
    {
      "inputs": [
        {
          "internalType": "address",
          "name": "token",
          "type": "address"
        },
        {
          "internalType": "uint256",
          "name": "shares",
          "type": "uint256"
        },
        {
          "internalType": "uint256",
          "name": "minEthAmount",
          "type": "uint256"
        },
        {
          "internalType": "uint256",
          "name": "minTokenAmount",
          "type": "uint256"
        },
        {
          "internalType": "uint256",
          "name": "currentETHEpoch",
          "type": "uint256"
        },
        {
          "internalType": "uint256",
          "name": "currentTokenEpoch",
          "type": "uint256"
        }
      ],
      "name": "removeLiquidity",
      "outputs": [],
      "stateMutability": "nonpayable",
      "type": "function"
    },
    {
      "inputs": [
        {
          "internalType": "address",
          "name": "token",
          "type": "address"
        },
        {
          "internalType": "uint256",
          "name": "shares",
          "type": "uint256"
        },
        {
          "internalType": "uint256",
          "name": "minTokenAmount",
          "type": "uint256"
        },
        {
          "internalType": "uint256",
          "name": "epoch",
          "type": "uint256"
        }
      ],
      "name": "removeTokenLiquidity",
      "outputs": [],
      "stateMutability": "nonpayable",
      "type": "function"
    },
    {
      "inputs": [],
      "name": "renounceOwnership",
      "outputs": [],
      "stateMutability": "nonpayable",
      "type": "function"
    },
    {
      "inputs": [
        {
          "internalType": "uint256",
          "name": "_minLiquidity",
          "type": "uint256"
        }
      ],
      "name": "setMinLiquidity",
      "outputs": [],
      "stateMutability": "nonpayable",
      "type": "function"
    },
    {
      "inputs": [
        {
          "internalType": "uint256",
          "name": "_minTokenLiquidity",
          "type": "uint256"
        }
      ],
      "name": "setMinTokenLiquidity",
      "outputs": [],
      "stateMutability": "nonpayable",
      "type": "function"
    },
    {
      "inputs": [
        {
          "internalType": "contract IGradientRegistry",
          "name": "_gradientRegistry",
          "type": "address"
        }
      ],
      "name": "setRegistry",
      "outputs": [],
      "stateMutability": "nonpayable",
      "type": "function"
    },
    {
      "inputs": [
        {
          "internalType": "address",
          "name": "",
          "type": "address"
        },
        {
          "internalType": "uint256",
          "name": "",
          "type": "uint256"
        }
      ],
      "name": "tokenPools",
      "outputs": [
        {
          "internalType": "uint256",
          "name": "accountedToken",
          "type": "uint256"
        },
        {
          "internalType": "uint256",
          "name": "totalTokens",
          "type": "uint256"
        },
        {
          "internalType": "uint256",
          "name": "totalLPShares",
          "type": "uint256"
        },
        {
          "internalType": "uint256",
          "name": "accRewardPerShare",
          "type": "uint256"
        },
        {
          "internalType": "uint256",
          "name": "rewardBalance",
          "type": "uint256"
        },
        {
          "internalType": "uint256",
          "name": "accETHRewardPerShare",
          "type": "uint256"
        },
        {
          "internalType": "uint256",
          "name": "ethRewardBalance",
          "type": "uint256"
        },
        {
          "internalType": "address",
          "name": "uniswapPair",
          "type": "address"
        }
      ],
      "stateMutability": "view",
      "type": "function"
    },
    {
      "inputs": [
        {
          "internalType": "address",
          "name": "",
          "type": "address"
        },
        {
          "internalType": "address",
          "name": "",
          "type": "address"
        },
        {
          "internalType": "uint256",
          "name": "",
          "type": "uint256"
        }
      ],
      "name": "tokenProviders",
      "outputs": [
        {
          "internalType": "uint256",
          "name": "tokenAmount",
          "type": "uint256"
        },
        {
          "internalType": "uint256",
          "name": "lpShares",
          "type": "uint256"
        },
        {
          "internalType": "uint256",
          "name": "rewardDebt",
          "type": "uint256"
        },
        {
          "internalType": "uint256",
          "name": "pendingReward",
          "type": "uint256"
        },
        {
          "internalType": "uint256",
          "name": "ethRewardDebt",
          "type": "uint256"
        },
        {
          "internalType": "uint256",
          "name": "pendingETHReward",
          "type": "uint256"
        }
      ],
      "stateMutability": "view",
      "type": "function"
    },
    {
      "inputs": [],
      "name": "totalEthAdded",
      "outputs": [
        {
          "internalType": "uint256",
          "name": "",
          "type": "uint256"
        }
      ],
      "stateMutability": "view",
      "type": "function"
    },
    {
      "inputs": [],
      "name": "totalEthRemoved",
      "outputs": [
        {
          "internalType": "uint256",
          "name": "",
          "type": "uint256"
        }
      ],
      "stateMutability": "view",
      "type": "function"
    },
    {
      "inputs": [
        {
          "internalType": "address",
          "name": "",
          "type": "address"
        }
      ],
      "name": "totalTokensAdded",
      "outputs": [
        {
          "internalType": "uint256",
          "name": "",
          "type": "uint256"
        }
      ],
      "stateMutability": "view",
      "type": "function"
    },
    {
      "inputs": [
        {
          "internalType": "address",
          "name": "",
          "type": "address"
        }
      ],
      "name": "totalTokensRemoved",
      "outputs": [
        {
          "internalType": "uint256",
          "name": "",
          "type": "uint256"
        }
      ],
      "stateMutability": "view",
      "type": "function"
    },
    {
      "inputs": [
        {
          "internalType": "address",
          "name": "newOwner",
          "type": "address"
        }
      ],
      "name": "transferOwnership",
      "outputs": [],
      "stateMutability": "nonpayable",
      "type": "function"
    },
    {
      "inputs": [
        {
          "internalType": "address",
          "name": "",
          "type": "address"
        },
        {
          "internalType": "address",
          "name": "",
          "type": "address"
        },
        {
          "internalType": "uint256",
          "name": "",
          "type": "uint256"
        }
      ],
      "name": "userParticipatedETHEpochs",
      "outputs": [
        {
          "internalType": "uint256",
          "name": "",
          "type": "uint256"
        }
      ],
      "stateMutability": "view",
      "type": "function"
    },
    {
      "inputs": [
        {
          "internalType": "address",
          "name": "",
          "type": "address"
        },
        {
          "internalType": "address",
          "name": "",
          "type": "address"
        },
        {
          "internalType": "uint256",
          "name": "",
          "type": "uint256"
        }
      ],
      "name": "userParticipatedTokenEpochs",
      "outputs": [
        {
          "internalType": "uint256",
          "name": "",
          "type": "uint256"
        }
      ],
      "stateMutability": "view",
      "type": "function"
    },
    {
      "inputs": [
        {
          "internalType": "address",
          "name": "token",
          "type": "address"
        }
      ],
      "name": "withdrawExcessiveFunds",
      "outputs": [],
      "stateMutability": "nonpayable",
      "type": "function"
    },
    {
      "stateMutability": "payable",
      "type": "receive"
    }
  ],
  "bytecode": "0x608060405266038d7ea4c68000600b5566038d7ea4c68000600c5534801561002657600080fd5b506040516157ac3803806157ac833981016040819052610045916100ee565b338061006b57604051631e4fbdf760e01b81526000600482015260240160405180910390fd5b6100748161009e565b5060018055600280546001600160a01b0319166001600160a01b039290921691909117905561011e565b600080546001600160a01b038381166001600160a01b0319831681178455604051919092169283917f8be0079c531659141344cd1fd0a4f28419497f9722a3daafe3b4186f6b6457e09190a35050565b60006020828403121561010057600080fd5b81516001600160a01b038116811461011757600080fd5b9392505050565b61567f8061012d6000396000f3fe6080604052600436106102975760003560e01c80637601f9fe1161015a578063c32fee30116100c1578063e86d5a291161007a578063e86d5a29146109ca578063eab9a96e146109ea578063eced552614610a0a578063ed398f1714610a26578063f147d1d814610a46578063f2fde38b14610a6657600080fd5b8063c32fee301461088a578063c5a1807d146108fa578063cc2549841461091a578063ce73580b14610947578063cee89fcb1461097d578063d8228fe9146109aa57600080fd5b80638da5cb5b116101135780638da5cb5b14610795578063a91ee0dc146107b3578063ad7c37a0146107d3578063b09273be14610834578063b93988c214610854578063bf0df0f91461087457600080fd5b80637601f9fe146106ca578063762a87d7146106dd5780637b431b7d146106fd578063830562bc1461071d57806385e694b6146107555780638da18bab1461077557600080fd5b806341d50ae4116101fe5780635c4c4749116101b75780635c4c4749146106085780635fbc13ef146106285780636bca2924146106485780636f2236fe1461067557806370c6ee33146106a2578063715018a6146106b557600080fd5b806341d50ae4146104cd5780634558c2ca146104fa578063517b14e61461051a57806354349f771461053a57806356688700146105c857806359085e75146105db57600080fd5b80631f400467116102505780631f40046714610419578063246a71811461042c578063252cf2d21461044c5780632b62a95a146104625780633e99c1e4146104785780633f5662e8146104ad57600080fd5b806314fe72aa146102a3578063187df878146102c55780631bad07761461030e5780631d5f3efa146103c35780631e489b12146103e35780631e4cdf61146103f957600080fd5b3661029e57005b600080fd5b3480156102af57600080fd5b506102c36102be366004614dbe565b610a86565b005b3480156102d157600080fd5b506102fb6102e0366004614dea565b6001600160a01b031660009081526003602052604090205490565b6040519081526020015b60405180910390f35b34801561031a57600080fd5b5061037f610329366004614dbe565b60066020818152600093845260408085209091529183529120805460018201546002830154600384015460048501546005860154968601546007909601549496939592949193909290916001600160a01b031688565b604080519889526020890197909752958701949094526060860192909252608085015260a084015260c08301526001600160a01b031660e082015261010001610305565b3480156103cf57600080fd5b506102c36103de366004614dbe565b610bb2565b3480156103ef57600080fd5b506102fb600d5481565b34801561040557600080fd5b506102c3610414366004614e07565b610bd1565b6102c3610427366004614e61565b610ce2565b34801561043857600080fd5b506102c3610447366004614dbe565b610f2f565b34801561045857600080fd5b506102fb600b5481565b34801561046e57600080fd5b506102fb600c5481565b34801561048457600080fd5b50610498610493366004614dea565b610f41565b60408051928352602083019190915201610305565b3480156104b957600080fd5b506104986104c8366004614dea565b611083565b3480156104d957600080fd5b506102fb6104e8366004614dea565b60046020526000908152604090205481565b34801561050657600080fd5b506102fb610515366004614ea3565b611196565b34801561052657600080fd5b506102c3610535366004614f99565b6111cf565b34801561054657600080fd5b5061059b610555366004614ea3565b6007602090815260009384526040808520825292845282842090528252902080546001820154600283015460038401546004850154600590950154939492939192909186565b604080519687526020870195909552938501929092526060840152608083015260a082015260c001610305565b6102c36105d6366004614dbe565b61140d565b3480156105e757600080fd5b506105fb6105f6366004615040565b61156f565b6040516103059190615079565b34801561061457600080fd5b506102c36106233660046150bc565b6115e9565b34801561063457600080fd5b506102c36106433660046150d5565b61168e565b34801561065457600080fd5b506102fb610663366004614dea565b60036020526000908152604090205481565b34801561068157600080fd5b506102fb610690366004614dea565b60106020526000908152604090205481565b6102c36106b0366004614dea565b611a0c565b3480156106c157600080fd5b506102c3611b1c565b6102c36106d83660046150d5565b611b30565b3480156106e957600080fd5b506102c36106f8366004614f99565b611e73565b34801561070957600080fd5b506102c361071836600461510a565b6120a0565b34801561072957600080fd5b5060025461073d906001600160a01b031681565b6040516001600160a01b039091168152602001610305565b34801561076157600080fd5b5061073d610770366004614dea565b61219c565b34801561078157600080fd5b506102fb610790366004614ea3565b6123b0565b3480156107a157600080fd5b506000546001600160a01b031661073d565b3480156107bf57600080fd5b506102c36107ce366004614dea565b6123ee565b3480156107df57600080fd5b5061059b6107ee366004614ea3565b6008602090815260009384526040808520825292845282842090528252902080546001820154600283015460038401546004850154600590950154939492939192909186565b34801561084057600080fd5b506102c361084f3660046150bc565b6124b5565b34801561086057600080fd5b506102c361086f366004614dea565b612559565b34801561088057600080fd5b506102fb600e5481565b34801561089657600080fd5b5061037f6108a5366004614dbe565b600560208181526000938452604080852090915291835291208054600182015460028301546003840154600485015495850154600686015460079096015494969395929491939290916001600160a01b031688565b34801561090657600080fd5b506105fb610915366004615040565b6128ab565b34801561092657600080fd5b506102fb610935366004614dea565b600f6020526000908152604090205481565b34801561095357600080fd5b506102fb610962366004614dea565b6001600160a01b031660009081526004602052604090205490565b34801561098957600080fd5b5061099d610998366004614dbe565b612922565b6040516103059190615145565b3480156109b657600080fd5b5061099d6109c5366004614dbe565b6129f6565b3480156109d657600080fd5b506102c36109e53660046151a2565b612aca565b3480156109f657600080fd5b506102c3610a053660046151fb565b612b41565b348015610a1657600080fd5b506102fb670de0b6b3a764000081565b348015610a3257600080fd5b506102fb610a41366004614ea3565b612eed565b348015610a5257600080fd5b506102c3610a6136600461510a565b612f15565b348015610a7257600080fd5b506102c3610a81366004614dea565b613008565b600254604051630736b32b60e31b81526001600160a01b038085166004830152849216906339b5995890602401602060405180830381865afa158015610ad0573d6000803e3d6000fd5b505050506040513d601f19601f82011682018060405250810190610af49190615323565b15610b1a5760405162461bcd60e51b8152600401610b1190615340565b60405180910390fd5b610b22613043565b600c54821015610b745760405162461bcd60e51b815260206004820152601a60248201527f546f6b656e20616d6f756e742062656c6f77206d696e696d756d0000000000006044820152606401610b11565b6001600160a01b038316610b9a5760405162461bcd60e51b8152600401610b119061536a565b610ba4838361306d565b610bad60018055565b505050565b610bba613043565b610bc4828261337a565b610bcd60018055565b5050565b600254604051630736b32b60e31b81526001600160a01b038089166004830152889216906339b5995890602401602060405180830381865afa158015610c1b573d6000803e3d6000fd5b505050506040513d601f19601f82011682018060405250810190610c3f9190615323565b15610c5c5760405162461bcd60e51b8152600401610b1190615340565b610c64613043565b600086118015610c7657506127108611155b610c925760405162461bcd60e51b8152600401610b1190615399565b6001600160a01b038716610cb85760405162461bcd60e51b8152600401610b119061536a565b610cc48787878661358a565b610cd087878685613af8565b610cd960018055565b50505050505050565b6002546040516316ed852560e01b81523360048201526001600160a01b03909116906316ed852590602401602060405180830381865afa158015610d2a573d6000803e3d6000fd5b505050506040513d601f19601f82011682018060405250810190610d4e9190615323565b610db15760405162461bcd60e51b815260206004820152602e60248201527f4f6e6c7920726577617264206469737472696275746f722063616e2063616c6c60448201526d103a3434b990333ab731ba34b7b760911b6064820152608401610b11565b60003411610def5760405162461bcd60e51b815260206004820152600b60248201526a139bc8115512081cd95b9d60aa1b6044820152606401610b11565b8015610e6d576001600160a01b038316600090815260056020908152604080832085845290915290206002810154610e5c5760405162461bcd60e51b815260206004820152601060248201526f4e6f20455448206c697175696469747960801b6044820152606401610b11565b610e67848434614087565b50610ee3565b6001600160a01b038316600090815260066020908152604080832085845290915290206002810154610ed65760405162461bcd60e51b81526020600482015260126024820152714e6f20746f6b656e206c697175696469747960701b6044820152606401610b11565b610ee18484346141b4565b505b336001600160a01b03167ffe768c9e0e173d1e33c312280eec1c38df0e38493222f68bb0e07c7e5ec9215334858585604051610f2294939291906153d0565b60405180910390a2505050565b610f37613043565b610bc4828261422f565b6000806000610f4f8461219c565b90506001600160a01b038116610f775760405162461bcd60e51b8152600401610b11906153f6565b600080826001600160a01b0316630902f1ac6040518163ffffffff1660e01b8152600401606060405180830381865afa158015610fb8573d6000803e3d6000fd5b505050506040513d601f19601f82011682018060405250810190610fdc919061543a565b50915091506000836001600160a01b0316630dfe16816040518163ffffffff1660e01b8152600401602060405180830381865afa158015611021573d6000803e3d6000fd5b505050506040513d601f19601f82011682018060405250810190611045919061547f565b9050866001600160a01b0316816001600160a01b03161461106757828261106a565b81835b6001600160701b03918216999116975095505050505050565b6000806001600160a01b0383166110ac5760405162461bcd60e51b8152600401610b119061536a565b600e54600d5447916000916110c191906154b2565b9050808211156110d8576110d581836154b2565b93505b6040516370a0823160e01b81523060048201526000906001600160a01b038716906370a0823190602401602060405180830381865afa15801561111f573d6000803e3d6000fd5b505050506040513d601f19601f8201168201806040525081019061114391906154c5565b6001600160a01b038716600090815260106020908152604080832054600f909252822054929350909161117691906154b2565b90508082111561118d5761118a81836154b2565b94505b50505050915091565b6001600160a01b0380841660009081526008602090815260408083209386168352928152828220848352905220600101545b9392505050565b600254604051630736b32b60e31b81526001600160a01b038087166004830152869216906339b5995890602401602060405180830381865afa158015611219573d6000803e3d6000fd5b505050506040513d601f19601f8201168201806040525081019061123d9190615323565b1561125a5760405162461bcd60e51b8152600401610b1190615340565b611262613043565b6001600160a01b0385166112885760405162461bcd60e51b8152600401610b119061536a565b8251845114801561129a575081518451145b6112de5760405162461bcd60e51b8152602060048201526015602482015274092dcecc2d8d2c840cae0dec6d0e640d8cadccee8d605b1b6044820152606401610b11565b60005b84518110156113fc5760008482815181106112fe576112fe6154de565b602002602001015111801561132e5750612710848281518110611323576113236154de565b602002602001015111155b61134a5760405162461bcd60e51b8152600401610b1190615399565b6001600160a01b0386166000908152600460205260409020548551869083908110611377576113776154de565b6020026020010151111561139d5760405162461bcd60e51b8152600401610b11906154f4565b6113f4868583815181106113b3576113b36154de565b60200260200101518584815181106113cd576113cd6154de565b60200260200101518885815181106113e7576113e76154de565b6020026020010151613af8565b6001016112e1565b5061140660018055565b5050505050565b600254604051630736b32b60e31b81526001600160a01b038085166004830152849216906339b5995890602401602060405180830381865afa158015611457573d6000803e3d6000fd5b505050506040513d601f19601f8201168201806040525081019061147b9190615323565b156114985760405162461bcd60e51b8152600401610b1190615340565b6114a0613043565b600b543410156114ed5760405162461bcd60e51b815260206004820152601860248201527745544820616d6f756e742062656c6f77206d696e696d756d60401b6044820152606401610b11565b600c5482101561153f5760405162461bcd60e51b815260206004820152601a60248201527f546f6b656e20616d6f756e742062656c6f77206d696e696d756d0000000000006044820152606401610b11565b6001600160a01b0383166115655760405162461bcd60e51b8152600401610b119061536a565b610b9a83346142c7565b6001600160a01b0380831660009081526009602090815260408083209385168352928152908290208054835181840281018401909452808452606093928301828280156115db57602002820191906000526020600020905b8154815260200190600101908083116115c7575b505050505090505b92915050565b6115f16145aa565b600081116116525760405162461bcd60e51b815260206004820152602860248201527f4d696e696d756d206c6971756964697479206d75737420626520677265617465604482015267072207468616e20360c41b6064820152608401610b11565b600b8190556040518181527fb2ee55c75b3383382e754fd3eff2d543c0e990be639421a4e2d8f2a42c5b8fdb906020015b60405180910390a150565b600254604051630736b32b60e31b81526001600160a01b038086166004830152859216906339b5995890602401602060405180830381865afa1580156116d8573d6000803e3d6000fd5b505050506040513d601f19601f820116820180604052508101906116fc9190615323565b156117195760405162461bcd60e51b8152600401610b1190615340565b600260009054906101000a90046001600160a01b03166001600160a01b031663c18b1d5e6040518163ffffffff1660e01b8152600401602060405180830381865afa15801561176c573d6000803e3d6000fd5b505050506040513d601f19601f82011682018060405250810190611790919061547f565b6001600160a01b0316336001600160a01b0316146117c05760405162461bcd60e51b8152600401610b119061551b565b600083116117e05760405162461bcd60e51b8152600401610b1190615560565b600082116118005760405162461bcd60e51b8152600401610b11906155a1565b6001600160a01b0384166000908152600560209081526040808320600383528184205484529091529020600181015484111561187e5760405162461bcd60e51b815260206004820152601a60248201527f496e73756666696369656e7420455448206c69717569646974790000000000006044820152606401610b11565b6118936001600160a01b0386163330866145d7565b838160010160008282546118a791906154b2565b9250508190555083600e60008282546118c091906155e4565b909155506118d090508584614644565b604051600090339086908381818185875af1925050503d8060008114611912576040519150601f19603f3d011682016040523d82523d6000602084013e611917565b606091505b50509050806119685760405162461bcd60e51b815260206004820181905260248201527f455448207472616e7366657220746f206f72646572626f6f6b206661696c65646044820152606401610b11565b61197186614782565b6001828101546001600160a01b0388166000818152600660209081526040808320600480845282852054808652918452828520978801546002808c015499015495879052908452825196875292860192909252840194909452606083015260808201929092527fea2e0099b8cdd36ab886cecd4c54a52ab64930111ba7d00bc688f47b9ffa5b199060a00160405180910390a2505050505050565b600254604051630736b32b60e31b81526001600160a01b038084166004830152839216906339b5995890602401602060405180830381865afa158015611a56573d6000803e3d6000fd5b505050506040513d601f19601f82011682018060405250810190611a7a9190615323565b15611a975760405162461bcd60e51b8152600401610b1190615340565b611a9f613043565b600b54341015611aec5760405162461bcd60e51b815260206004820152601860248201527745544820616d6f756e742062656c6f77206d696e696d756d60401b6044820152606401610b11565b6001600160a01b038216611b125760405162461bcd60e51b8152600401610b119061536a565b610bc482346142c7565b611b246145aa565b611b2e6000614833565b565b600254604051630736b32b60e31b81526001600160a01b038086166004830152859216906339b5995890602401602060405180830381865afa158015611b7a573d6000803e3d6000fd5b505050506040513d601f19601f82011682018060405250810190611b9e9190615323565b15611bbb5760405162461bcd60e51b8152600401610b1190615340565b600260009054906101000a90046001600160a01b03166001600160a01b031663c18b1d5e6040518163ffffffff1660e01b8152600401602060405180830381865afa158015611c0e573d6000803e3d6000fd5b505050506040513d601f19601f82011682018060405250810190611c32919061547f565b6001600160a01b0316336001600160a01b031614611c625760405162461bcd60e51b8152600401610b119061551b565b60008311611c825760405162461bcd60e51b8152600401610b1190615560565b60008211611ca25760405162461bcd60e51b8152600401610b11906155a1565b823414611ce75760405162461bcd60e51b815260206004820152601360248201527208aa89040c2dadeeadce840dad2e6dac2e8c6d606b1b6044820152606401610b11565b6001600160a01b03841660009081526006602090815260408083206004835281842054845290915290206001810154831115611d655760405162461bcd60e51b815260206004820152601c60248201527f496e73756666696369656e7420746f6b656e206c6971756964697479000000006044820152606401610b11565b82816001016000828254611d7991906154b2565b90915550506001600160a01b03851660009081526010602052604081208054859290611da69084906155e4565b90915550611db690508585614883565b611dca6001600160a01b0386163385614998565b611dd3856149c9565b6001600160a01b038516600081815260056020908152604080832060038084528285205480865291845282852060018082015490890154600292830154928a01549789905292865284519081529485019190915291830191909152606082019290925260808101919091527fea2e0099b8cdd36ab886cecd4c54a52ab64930111ba7d00bc688f47b9ffa5b199060a0015b60405180910390a25050505050565b600254604051630736b32b60e31b81526001600160a01b038087166004830152869216906339b5995890602401602060405180830381865afa158015611ebd573d6000803e3d6000fd5b505050506040513d601f19601f82011682018060405250810190611ee19190615323565b15611efe5760405162461bcd60e51b8152600401610b1190615340565b611f06613043565b6001600160a01b038516611f2c5760405162461bcd60e51b8152600401610b119061536a565b82518451148015611f3e575081518451145b611f825760405162461bcd60e51b8152602060048201526015602482015274092dcecc2d8d2c840cae0dec6d0e640d8cadccee8d605b1b6044820152606401610b11565b60005b84518110156113fc576000848281518110611fa257611fa26154de565b6020026020010151118015611fd25750612710848281518110611fc757611fc76154de565b602002602001015111155b611fee5760405162461bcd60e51b8152600401610b1190615399565b6001600160a01b038616600090815260036020526040902054855186908390811061201b5761201b6154de565b602002602001015111156120415760405162461bcd60e51b8152600401610b11906154f4565b61209886858381518110612057576120576154de565b6020026020010151858481518110612071576120716154de565b602002602001015188858151811061208b5761208b6154de565b602002602001015161358a565b600101611f85565b600254604051630736b32b60e31b81526001600160a01b038087166004830152869216906339b5995890602401602060405180830381865afa1580156120ea573d6000803e3d6000fd5b505050506040513d601f19601f8201168201806040525081019061210e9190615323565b1561212b5760405162461bcd60e51b8152600401610b1190615340565b612133613043565b60008411801561214557506127108411155b6121615760405162461bcd60e51b8152600401610b1190615399565b6001600160a01b0385166121875760405162461bcd60e51b8152600401610b119061536a565b6121938585858561358a565b61140660018055565b600080600260009054906101000a90046001600160a01b03166001600160a01b031663f887ea406040518163ffffffff1660e01b8152600401602060405180830381865afa1580156121f2573d6000803e3d6000fd5b505050506040513d601f19601f82011682018060405250810190612216919061547f565b90506001600160a01b03811661225f5760405162461bcd60e51b815260206004820152600e60248201526d149bdd5d195c881b9bdd081cd95d60921b6044820152606401610b11565b60008190506000816001600160a01b031663c45a01556040518163ffffffff1660e01b8152600401602060405180830381865afa1580156122a4573d6000803e3d6000fd5b505050506040513d601f19601f820116820180604052508101906122c8919061547f565b90506000826001600160a01b031663ad5c46486040518163ffffffff1660e01b8152600401602060405180830381865afa15801561230a573d6000803e3d6000fd5b505050506040513d601f19601f8201168201806040525081019061232e919061547f565b60405163e6a4390560e01b81526001600160a01b0388811660048301528083166024830152919250839182169063e6a4390590604401602060405180830381865afa158015612381573d6000803e3d6000fd5b505050506040513d601f19601f820116820180604052508101906123a5919061547f565b979650505050505050565b600960205282600052604060002060205281600052604060002081815481106123d857600080fd5b9060005260206000200160009250925050505481565b6123f66145aa565b6001600160a01b03811661244c5760405162461bcd60e51b815260206004820152601960248201527f496e76616c6964206772616469656e74207265676973747279000000000000006044820152606401610b11565b600254604080516001600160a01b03928316815291831660208301527f482b97c53e48ffa324a976e2738053e9aff6eee04d8aac63b10e19411d869b82910160405180910390a1600280546001600160a01b0319166001600160a01b0392909216919091179055565b6124bd6145aa565b600081116125245760405162461bcd60e51b815260206004820152602e60248201527f4d696e696d756d20746f6b656e206c6971756964697479206d7573742062652060448201526d067726561746572207468616e20360941b6064820152608401610b11565b600c8190556040518181527f554ff81f8d029070b26b416ba425c7e95c46f196538825a375116221b489351190602001611683565b6125616145aa565b612569613043565b6001600160a01b03811661258f5760405162461bcd60e51b8152600401610b119061536a565b600e54600d5447916000916125a491906154b2565b90506000818311156125bd576125ba82846154b2565b90505b6040516370a0823160e01b81523060048201526000906001600160a01b038616906370a0823190602401602060405180830381865afa158015612604573d6000803e3d6000fd5b505050506040513d601f19601f8201168201806040525081019061262891906154c5565b6001600160a01b038616600090815260106020908152604080832054600f909252822054929350909161265b91906154b2565b90506000818311156126745761267182846154b2565b90505b60008411806126835750600081115b6126cf5760405162461bcd60e51b815260206004820152601e60248201527f4e6f206578636573736976652066756e647320746f20776974686472617700006044820152606401610b11565b83156127e657600080546040516001600160a01b039091169086908381818185875af1925050503d8060008114612722576040519150601f19603f3d011682016040523d82523d6000602084013e612727565b606091505b50509050806127705760405162461bcd60e51b8152602060048201526015602482015274115512081dda5d1a191c985dd85b0819985a5b1959605a1b6044820152606401610b11565b600080546001600160a01b03166001600160a01b03167fdfd9f8c3a5c5053800e06b62919c8c2d37e622f66afc4e1ebcf7306cc637a0fd876040516127dc918152604060208201819052600d908201526c08af0c6cae6e6d2ecca408aa89609b1b606082015260800190565b60405180910390a3505b8015612899576128126128016000546001600160a01b031690565b6001600160a01b0389169083614998565b866001600160a01b031661282e6000546001600160a01b031690565b6001600160a01b03167fdfd9f8c3a5c5053800e06b62919c8c2d37e622f66afc4e1ebcf7306cc637a0fd836040516128909181526040602082018190526010908201526f45786365737369766520746f6b656e7360801b606082015260800190565b60405180910390a35b5050505050506128a860018055565b50565b6001600160a01b038083166000908152600a602090815260408083209385168352928152908290208054835181840281018401909452808452606093928301828280156115db57602002820191906000526020600020908154815260200190600101908083116115c7575050505050905092915050565b6129736040518061010001604052806000815260200160008152602001600081526020016000815260200160008152602001600081526020016000815260200160006001600160a01b031681525090565b506001600160a01b0391821660009081526005602081815260408084209484529381529183902083516101008101855281548152600182015493810193909352600281015493830193909352600383015460608301526004830154608083015282015460a0820152600682015460c082015260079091015490911660e082015290565b612a476040518061010001604052806000815260200160008152602001600081526020016000815260200160008152602001600081526020016000815260200160006001600160a01b031681525090565b506001600160a01b03918216600090815260066020818152604080842094845293815291839020835161010081018552815481526001820154938101939093526002810154938301939093526003830154606083015260048301546080830152600583015460a083015282015460c082015260079091015490911660e082015290565b612ad2613043565b60005b8251811015612b37578115612b0c57612b0784848381518110612afa57612afa6154de565b602002602001015161422f565b612b2f565b612b2f84848381518110612b2257612b226154de565b602002602001015161337a565b600101612ad5565b50610bad60018055565b600254604051630736b32b60e31b81526001600160a01b03808a166004830152899216906339b5995890602401602060405180830381865afa158015612b8b573d6000803e3d6000fd5b505050506040513d601f19601f82011682018060405250810190612baf9190615323565b15612bcc5760405162461bcd60e51b8152600401610b1190615340565b612bd4613043565b6001600160a01b038816612bfa5760405162461bcd60e51b8152600401610b119061536a565b84518751148015612c0c575082518751145b612c585760405162461bcd60e51b815260206004820152601960248201527f496e76616c6964204554482065706f636873206c656e677468000000000000006044820152606401610b11565b83518651148015612c6a575081518651145b612cb65760405162461bcd60e51b815260206004820152601b60248201527f496e76616c696420746f6b656e2065706f636873206c656e67746800000000006044820152606401610b11565b60005b8751811015612dc7576000868281518110612cd657612cd66154de565b6020026020010151118015612d065750612710868281518110612cfb57612cfb6154de565b602002602001015111155b612d225760405162461bcd60e51b8152600401610b1190615399565b6001600160a01b0389166000908152600360205260409020548851899083908110612d4f57612d4f6154de565b60200260200101511115612d755760405162461bcd60e51b8152600401610b11906154f4565b612dbf89878381518110612d8b57612d8b6154de565b6020026020010151868481518110612da557612da56154de565b60200260200101518b858151811061208b5761208b6154de565b600101612cb9565b5060005b8651811015612ed9576000858281518110612de857612de86154de565b6020026020010151118015612e185750612710858281518110612e0d57612e0d6154de565b602002602001015111155b612e345760405162461bcd60e51b8152600401610b1190615399565b6001600160a01b0389166000908152600460205260409020548751889083908110612e6157612e616154de565b60200260200101511115612e875760405162461bcd60e51b8152600401610b11906154f4565b612ed189868381518110612e9d57612e9d6154de565b6020026020010151858481518110612eb757612eb76154de565b60200260200101518a85815181106113e7576113e76154de565b600101612dcb565b50612ee360018055565b5050505050505050565b600a60205282600052604060002060205281600052604060002081815481106123d857600080fd5b600254604051630736b32b60e31b81526001600160a01b038087166004830152869216906339b5995890602401602060405180830381865afa158015612f5f573d6000803e3d6000fd5b505050506040513d601f19601f82011682018060405250810190612f839190615323565b15612fa05760405162461bcd60e51b8152600401610b1190615340565b612fa8613043565b600084118015612fba57506127108411155b612fd65760405162461bcd60e51b8152600401610b1190615399565b6001600160a01b038516612ffc5760405162461bcd60e51b8152600401610b119061536a565b61219385858585613af8565b6130106145aa565b6001600160a01b03811661303a57604051631e4fbdf760e01b815260006004820152602401610b11565b6128a881614833565b60026001540361306657604051633ee5aeb560e01b815260040160405180910390fd5b6002600155565b6001600160a01b03808316600090815260066020908152604080832060048352818420548452909152902060078101549091166130d0576130ad8361219c565b6007820180546001600160a01b0319166001600160a01b03929092169190911790555b60078101546001600160a01b03166130fa5760405162461bcd60e51b8152600401610b11906153f6565b6001600160a01b038316600081815260086020908152604080832033808552908352818420858552600480855283862054808752918552928520958552919092526131489287929190614a72565b6001810154156131fd5760008160020154670de0b6b3a76400008460030154846001015461317691906155f7565b613180919061560e565b61318a91906154b2565b9050808260030160008282546131a091906155e4565b9250508190555060008260040154670de0b6b3a7640000856005015485600101546131cb91906155f7565b6131d5919061560e565b6131df91906154b2565b9050808360050160008282546131f591906155e4565b909155505050505b60006132128484600001548560020154614b30565b90508082600101600082825461322891906155e4565b90915550508154849083906000906132419084906155e4565b909155505060038301546001830154670de0b6b3a764000091613263916155f7565b61326d919061560e565b600283015560058301546001830154670de0b6b3a76400009161328f916155f7565b613299919061560e565b8260040181905550838360010160008282546132b591906155e4565b90915550508254849084906000906132ce9084906155e4565b92505081905550808360020160008282546132e991906155e4565b90915550506001600160a01b0385166000908152600f6020526040812080548692906133169084906155e4565b9091555061333190506001600160a01b0386163330876145d7565b604080516001600160a01b03871681526020810186905290810182905233907f4e454f01a53c7bed07081706a3ead05bd1bfa0c411a0ee8db5304398f87a97be90606001611e64565b6001600160a01b03821660008181526006602090815260408083208584528252808320938352600882528083203384528252808320858452909152902060018101541515806133cd575060008160030154115b6134135760405162461bcd60e51b81526020600482015260176024820152764e6f206c6971756964697479206f72207265776172647360481b6044820152606401610b11565b6000670de0b6b3a76400008360030154836001015461343291906155f7565b61343c919061560e565b90506000826003015483600201548361345591906154b2565b61345f91906155e4565b90506000811161349e5760405162461bcd60e51b815260206004820152600a6024820152694e6f207265776172647360b01b6044820152606401610b11565b60028301829055600060038401819055604051339083908381818185875af1925050503d80600081146134ed576040519150601f19603f3d011682016040523d82523d6000602084013e6134f2565b606091505b50509050806135395760405162461bcd60e51b8152602060048201526013602482015272115512081d1c985b9cd9995c8819985a5b1959606a1b6044820152606401610b11565b336001600160a01b03167f399177f6979de1430b9f407ca4633f20f35a5c357160f10aa68d0154342be823838989600060405161357994939291906153d0565b60405180910390a250505050505050565b6001600160a01b03841660008181526005602090815260408083208584528252808320938352600782528083203384528252808320858452909152902060028201546136185760405162461bcd60e51b815260206004820152601860248201527f4e6f20455448206c697175696469747920696e20706f6f6c00000000000000006044820152606401610b11565b80546136665760405162461bcd60e51b815260206004820152601c60248201527f4e6f20455448206c697175696469747920746f207769746864726177000000006044820152606401610b11565b60008160020154670de0b6b3a76400008460030154846001015461368a91906155f7565b613694919061560e565b61369e91906154b2565b9050808260030160008282546136b491906155e4565b9250508190555060008260040154670de0b6b3a7640000856005015485600101546136df91906155f7565b6136e9919061560e565b6136f391906154b2565b90508083600501600082825461370991906155e4565b92505081905550600061271088856001015461372591906155f7565b61372f919061560e565b9050600081116137755760405162461bcd60e51b815260206004820152601160248201527027379039b430b932b9903a3790313ab93760791b6044820152606401610b11565b83600101548111156137c95760405162461bcd60e51b815260206004820152601b60248201527f496e73756666696369656e742073686172657320746f206275726e00000000006044820152606401610b11565b60006137de8287600101548860020154614bf7565b905085600101548111156138345760405162461bcd60e51b815260206004820152601860248201527f496e73756666696369656e742045544820696e20706f6f6c00000000000000006044820152606401610b11565b8085600001600082825461384891906154b2565b925050819055508185600101600082825461386391906154b2565b9091555050600286015486546000919061387e9085906155f7565b613888919061560e565b90508187600101600082825461389e91906154b2565b92505081905550828760020160008282546138b991906154b2565b90915550508654819088906000906138d29084906154b2565b909155505060038701546001870154670de0b6b3a7640000916138f4916155f7565b6138fe919061560e565b600287015560058701546001870154670de0b6b3a764000091613920916155f7565b61392a919061560e565b60048701558882101561397f5760405162461bcd60e51b815260206004820152601a60248201527f496e73756666696369656e74204554482077697468647261776e0000000000006044820152606401610b11565b604051600090339084908381818185875af1925050503d80600081146139c1576040519150601f19603f3d011682016040523d82523d6000602084013e6139c6565b606091505b5050905080613a0d5760405162461bcd60e51b8152602060048201526013602482015272115512081d1c985b9cd9995c8819985a5b1959606a1b6044820152606401610b11565b600587015415613a80576005870180546000909155613a366001600160a01b038e163383614998565b336001600160a01b03167fbd69d0a1994373bdcbe4508591ab6273312f8b47c858d8fa192f9883db5fad54828f8d6000604051613a7694939291906153d0565b60405180910390a2505b82600e6000828254613a9291906155e4565b9091555050604080516001600160a01b038e168152602081018b90529081018490526060810185905233907f0cefddbb83fdab6e373960a82f3f71f90425e6db040cdced3b6281e98a531ac69060800160405180910390a2505050505050505050505050565b6001600160a01b0384166000818152600660209081526040808320858452825280832093835260088252808320338452825280832085845290915290206002820154613b865760405162461bcd60e51b815260206004820152601a60248201527f4e6f20746f6b656e206c697175696469747920696e20706f6f6c0000000000006044820152606401610b11565b8054613bd45760405162461bcd60e51b815260206004820152601e60248201527f4e6f20746f6b656e206c697175696469747920746f20776974686472617700006044820152606401610b11565b60008160020154670de0b6b3a764000084600301548460010154613bf891906155f7565b613c02919061560e565b613c0c91906154b2565b905080826003016000828254613c2291906155e4565b9250508190555060008260040154670de0b6b3a764000085600501548560010154613c4d91906155f7565b613c57919061560e565b613c6191906154b2565b905080836005016000828254613c7791906155e4565b925050819055506000612710888560010154613c9391906155f7565b613c9d919061560e565b905060008111613ce35760405162461bcd60e51b815260206004820152601160248201527027379039b430b932b9903a3790313ab93760791b6044820152606401610b11565b8360010154811115613d375760405162461bcd60e51b815260206004820152601b60248201527f496e73756666696369656e742073686172657320746f206275726e00000000006044820152606401610b11565b6000613d4c8287600101548860020154614bf7565b90508560010154811115613da25760405162461bcd60e51b815260206004820152601b60248201527f496e73756666696369656e7420746f6b656e7320696e20706f6f6c00000000006044820152606401610b11565b80856000016000828254613db691906154b2565b9250508190555081856001016000828254613dd191906154b2565b90915550506002860154865460009190613dec9085906155f7565b613df6919061560e565b905081876001016000828254613e0c91906154b2565b9250508190555082876002016000828254613e2791906154b2565b9091555050865481908890600090613e409084906154b2565b909155505060038701546001870154670de0b6b3a764000091613e62916155f7565b613e6c919061560e565b600287015560058701546001870154670de0b6b3a764000091613e8e916155f7565b613e98919061560e565b600487015588821015613eed5760405162461bcd60e51b815260206004820152601c60248201527f496e73756666696369656e7420746f6b656e2077697468647261776e000000006044820152606401610b11565b613f016001600160a01b038c163384614998565b600586015415613ffa57600586018054600091829055604051909190339083908381818185875af1925050503d8060008114613f59576040519150601f19603f3d011682016040523d82523d6000602084013e613f5e565b606091505b5050905080613faf5760405162461bcd60e51b815260206004820152601a60248201527f45544820726577617264207472616e73666572206661696c65640000000000006044820152606401610b11565b336001600160a01b03167fbd69d0a1994373bdcbe4508591ab6273312f8b47c858d8fa192f9883db5fad54838f8d6001604051613fef94939291906153d0565b60405180910390a250505b6001600160a01b038b16600090815260106020526040812080548492906140229084906155e4565b9091555050604080516001600160a01b038d168152602081018a90529081018390526060810184905233907fa1303cdb626ce003a010bacabb6b89278f16b4b2b93ea5981b06927e1386a6be9060800160405180910390a25050505050505050505050565b600081116140a75760405162461bcd60e51b8152600401610b1190615560565b6001600160a01b0383166140cd5760405162461bcd60e51b8152600401610b119061536a565b6001600160a01b0383166000908152600560209081526040808320858452909152812060028101549091036141025750505050565b600281015460009061411c670de0b6b3a7640000856155f7565b614126919061560e565b826003015461413591906155e4565b9050816003015481101561418b5760405162461bcd60e51b815260206004820152601e60248201527f4f766572666c6f7720696e207265776172642063616c63756c6174696f6e00006044820152606401610b11565b808260030181905550828260040160008282546141a891906155e4565b90915550505050505050565b600081116141d45760405162461bcd60e51b8152600401610b1190615560565b6001600160a01b0383166141fa5760405162461bcd60e51b8152600401610b119061536a565b6001600160a01b0383166000908152600660209081526040808320858452909152812060028101549091036141025750505050565b6001600160a01b03821660008181526005602090815260408083208584528252808320938352600782528083203384528252808320858452909152902060018101541515806133cd575060008160030154116134135760405162461bcd60e51b81526020600482015260176024820152764e6f206c6971756964697479206f72207265776172647360481b6044820152606401610b11565b6001600160a01b038083166000908152600560209081526040808320600383528184205484529091529020600781015490911661432a576143078361219c565b6007820180546001600160a01b0319166001600160a01b03929092169190911790555b60078101546001600160a01b03166143545760405162461bcd60e51b8152600401610b11906153f6565b6001600160a01b0383166000818152600760209081526040808320338085529083528184208585526003808552838620548087529185529285209590945291526143a2918691906001614a72565b6001810154156144575760008160020154670de0b6b3a7640000846003015484600101546143d091906155f7565b6143da919061560e565b6143e491906154b2565b9050808260030160008282546143fa91906155e4565b9250508190555060008260040154670de0b6b3a76400008560050154856001015461442591906155f7565b61442f919061560e565b61443991906154b2565b90508083600501600082825461444f91906155e4565b909155505050505b600061446c8484600001548560020154614b30565b90508082600101600082825461448291906155e4565b909155505081548490839060009061449b9084906155e4565b909155505060038301546001830154670de0b6b3a7640000916144bd916155f7565b6144c7919061560e565b600283015560058301546001830154670de0b6b3a7640000916144e9916155f7565b6144f3919061560e565b82600401819055508383600101600082825461450f91906155e4565b90915550508254849084906000906145289084906155e4565b925050819055508083600201600082825461454391906155e4565b9250508190555083600d600082825461455c91906155e4565b9091555050604080516001600160a01b03871681526020810186905290810182905233907fc1405abcead391364eb128c74abfd38ebed1c7984fc9f8a96764b0dd35076d6090606001611e64565b6000546001600160a01b03163314611b2e5760405163118cdaa760e01b8152336004820152602401610b11565b6040516001600160a01b03848116602483015283811660448301526064820183905261463e9186918216906323b872dd906084015b604051602081830303815290604052915060e01b6020820180516001600160e01b038381831617835250505050614d28565b50505050565b600081116146645760405162461bcd60e51b8152600401610b11906155a1565b6001600160a01b03821661468a5760405162461bcd60e51b8152600401610b119061536a565b6001600160a01b038216600090815260056020908152604080832060038352818420548452909152812060028101549091036146c557505050565b60028101546000906146df670de0b6b3a7640000856155f7565b6146e9919061560e565b82600501546146f891906155e4565b9050816005015481101561475a5760405162461bcd60e51b8152602060048201526024808201527f4f766572666c6f7720696e20746f6b656e207265776172642063616c63756c616044820152633a34b7b760e11b6064820152608401610b11565b8082600501819055508282600601600082825461477791906155e4565b909155505050505050565b6001600160a01b03811660009081526005602090815260408083206003835281842054845290915281206001810154909103610bcd576001600160a01b03821660009081526003602052604081208054916147dc83615630565b90915550506001600160a01b0382166000818152600360209081526040918290205491519182527faf14e162935739dde2d8eb418f165dc8ca7786c8de94e9632a5675264961877591015b60405180910390a25050565b600080546001600160a01b038381166001600160a01b0319831681178455604051919092169283917f8be0079c531659141344cd1fd0a4f28419497f9722a3daafe3b4186f6b6457e09190a35050565b600081116148a35760405162461bcd60e51b8152600401610b1190615560565b6001600160a01b0382166148c95760405162461bcd60e51b8152600401610b119061536a565b6001600160a01b0382166000908152600660209081526040808320600483528184205484529091528120600281015490910361490457505050565b600281015460009061491e670de0b6b3a7640000856155f7565b614928919061560e565b826005015461493791906155e4565b9050816005015481101561475a5760405162461bcd60e51b815260206004820152602260248201527f4f766572666c6f7720696e20455448207265776172642063616c63756c61746960448201526137b760f11b6064820152608401610b11565b6040516001600160a01b03838116602483015260448201839052610bad91859182169063a9059cbb9060640161460c565b6001600160a01b03811660009081526006602090815260408083206004835281842054845290915281206001810154909103610bcd576001600160a01b0382166000908152600460205260408120805491614a2383615630565b90915550506001600160a01b0382166000818152600460209081526040918290205491519182527faf14e162935739dde2d8eb418f165dc8ca7786c8de94e9632a567526496187759101614827565b600081614aa3576001600160a01b038086166000908152600a60209081526040808320938816835292905220614ac9565b6001600160a01b0380861660009081526009602090815260408083209388168352929052205b90506000805b8254811015614b0c5784838281548110614aeb57614aeb6154de565b906000526020600020015403614b045760019150614b0c565b600101614acf565b5080614b28578154600181018355600083815260209020018490555b505050505050565b6000808411614b815760405162461bcd60e51b815260206004820152601d60248201527f416d6f756e74206d7573742062652067726561746572207468616e20300000006044820152606401610b11565b81600003614b905750826111c8565b82614b9b83866155f7565b614ba5919061560e565b9050600081116111c85760405162461bcd60e51b815260206004820152601b60248201527f496e73756666696369656e742073686172657320746f206d696e7400000000006044820152606401610b11565b6000808411614c565760405162461bcd60e51b815260206004820152602560248201527f53686172657320746f206275726e206d75737420626520677265617465722074604482015264068616e20360dc1b6064820152608401610b11565b60008211614cb25760405162461bcd60e51b815260206004820152602360248201527f546f74616c20736861726573206d75737420626520677265617465722074686160448201526206e20360ec1b6064820152608401610b11565b81614cbd84866155f7565b614cc7919061560e565b9050828111156111c85760405162461bcd60e51b815260206004820152602660248201527f5769746864726177616c20616d6f756e74206578636565647320706f6f6c2062604482015265616c616e636560d01b6064820152608401610b11565b600080602060008451602086016000885af180614d4b576040513d6000823e3d81fd5b50506000513d91508115614d63578060011415614d70565b6001600160a01b0384163b155b1561463e57604051635274afe760e01b81526001600160a01b0385166004820152602401610b11565b6001600160a01b03811681146128a857600080fd5b8035614db981614d99565b919050565b60008060408385031215614dd157600080fd5b8235614ddc81614d99565b946020939093013593505050565b600060208284031215614dfc57600080fd5b81356111c881614d99565b60008060008060008060c08789031215614e2057600080fd5b8635614e2b81614d99565b9860208801359850604088013597606081013597506080810135965060a00135945092505050565b80151581146128a857600080fd5b600080600060608486031215614e7657600080fd5b8335614e8181614d99565b9250602084013591506040840135614e9881614e53565b809150509250925092565b600080600060608486031215614eb857600080fd5b8335614ec381614d99565b92506020840135614ed381614d99565b929592945050506040919091013590565b634e487b7160e01b600052604160045260246000fd5b600082601f830112614f0b57600080fd5b813567ffffffffffffffff811115614f2557614f25614ee4565b8060051b604051601f19603f830116810181811067ffffffffffffffff82111715614f5257614f52614ee4565b604052918252602081850181019290810186841115614f7057600080fd5b6020860192505b83831015614f8f578235815260209283019201614f77565b5095945050505050565b60008060008060808587031215614faf57600080fd5b8435614fba81614d99565b9350602085013567ffffffffffffffff811115614fd657600080fd5b614fe287828801614efa565b935050604085013567ffffffffffffffff811115614fff57600080fd5b61500b87828801614efa565b925050606085013567ffffffffffffffff81111561502857600080fd5b61503487828801614efa565b91505092959194509250565b6000806040838503121561505357600080fd5b823561505e81614d99565b9150602083013561506e81614d99565b809150509250929050565b602080825282518282018190526000918401906040840190835b818110156150b1578351835260209384019390920191600101615093565b509095945050505050565b6000602082840312156150ce57600080fd5b5035919050565b6000806000606084860312156150ea57600080fd5b83356150f581614d99565b95602085013595506040909401359392505050565b6000806000806080858703121561512057600080fd5b843561512b81614d99565b966020860135965060408601359560600135945092505050565b815181526020808301519082015260408083015190820152606080830151908201526080808301519082015260a0808301519082015260c0808301519082015260e0808301516001600160a01b03169082015261010081016115e3565b6000806000606084860312156151b757600080fd5b83356151c281614d99565b9250602084013567ffffffffffffffff8111156151de57600080fd5b6151ea86828701614efa565b9250506040840135614e9881614e53565b600080600080600080600060e0888a03121561521657600080fd5b61521f88614dae565b9650602088013567ffffffffffffffff81111561523b57600080fd5b6152478a828b01614efa565b965050604088013567ffffffffffffffff81111561526457600080fd5b6152708a828b01614efa565b955050606088013567ffffffffffffffff81111561528d57600080fd5b6152998a828b01614efa565b945050608088013567ffffffffffffffff8111156152b657600080fd5b6152c28a828b01614efa565b93505060a088013567ffffffffffffffff8111156152df57600080fd5b6152eb8a828b01614efa565b92505060c088013567ffffffffffffffff81111561530857600080fd5b6153148a828b01614efa565b91505092959891949750929550565b60006020828403121561533557600080fd5b81516111c881614e53565b60208082526010908201526f151bdad95b881a5cc8189b1bd8dad95960821b604082015260600190565b602080825260159082015274496e76616c696420746f6b656e206164647265737360581b604082015260600190565b60208082526019908201527f496e76616c6964207368617265732070657263656e7461676500000000000000604082015260600190565b9384526001600160a01b0392909216602084015260408301521515606082015260800190565b60208082526013908201527214185a5c88191bd95cc81b9bdd08195e1a5cdd606a1b604082015260600190565b80516001600160701b0381168114614db957600080fd5b60008060006060848603121561544f57600080fd5b61545884615423565b925061546660208501615423565b9150604084015163ffffffff81168114614e9857600080fd5b60006020828403121561549157600080fd5b81516111c881614d99565b634e487b7160e01b600052601160045260246000fd5b818103818111156115e3576115e361549c565b6000602082840312156154d757600080fd5b5051919050565b634e487b7160e01b600052603260045260246000fd5b6020808252600d908201526c092dcecc2d8d2c840cae0dec6d609b1b604082015260600190565b60208082526025908201527f4f6e6c79206f72646572626f6f6b2063616e2063616c6c20746869732066756e60408201526431ba34b7b760d91b606082015260800190565b60208082526021908201527f45544820616d6f756e74206d7573742062652067726561746572207468616e206040820152600360fc1b606082015260800190565b60208082526023908201527f546f6b656e20616d6f756e74206d75737420626520677265617465722074686160408201526206e20360ec1b606082015260800190565b808201808211156115e3576115e361549c565b80820281158282048414176115e3576115e361549c565b60008261562b57634e487b7160e01b600052601260045260246000fd5b500490565b6000600182016156425761564261549c565b506001019056fea26469706673582212209b8e3957de88f8003ad730f60813225b32e3e58821ca28c71bba12b7b6b90f2764736f6c634300081a0033",
  "linkReferences": {},
  "deployedLinkReferences": {}
}