{
  "_format": "hh-sol-artifact-1",
  "contractName": "GradientRegistry",
  "sourceName": "contracts/GradientRegistry.sol",
  "abi": [
    {
      "inputs": [],
      "stateMutability": "nonpayable",
      "type": "constructor"
    },
    {
      "inputs": [
        {
          "internalType": "address",
          "name": "owner",
          "type": "address"
        }
      ],
      "name": "OwnableInvalidOwner",
      "type": "error"
    },
    {
      "inputs": [
        {
          "internalType": "address",
          "name": "account",
          "type": "address"
        }
      ],
      "name": "OwnableUnauthorizedAccount",
      "type": "error"
    },
    {
      "anonymous": false,
      "inputs": [
        {
          "indexed": true,
          "internalType": "bytes32",
          "name": "key",
          "type": "bytes32"
        },
        {
          "indexed": true,
          "internalType": "address",
          "name": "contractAddress",
          "type": "address"
        }
      ],
      "name": "AdditionalContractSet",
      "type": "event"
    },
    {
      "anonymous": false,
      "inputs": [
        {
          "indexed": true,
          "internalType": "string",
          "name": "contractName",
          "type": "string"
        },
        {
          "indexed": true,
          "internalType": "address",
          "name": "oldAddress",
          "type": "address"
        },
        {
          "indexed": true,
          "internalType": "address",
          "name": "newAddress",
          "type": "address"
        }
      ],
      "name": "ContractAddressUpdated",
      "type": "event"
    },
    {
      "anonymous": false,
      "inputs": [
        {
          "indexed": true,
          "internalType": "address",
          "name": "contractAddress",
          "type": "address"
        },
        {
          "indexed": false,
          "internalType": "bool",
          "name": "authorized",
          "type": "bool"
        }
      ],
      "name": "ContractAuthorized",
      "type": "event"
    },
    {
      "anonymous": false,
      "inputs": [
        {
          "indexed": true,
          "internalType": "address",
          "name": "fulfiller",
          "type": "address"
        },
        {
          "indexed": false,
          "internalType": "bool",
          "name": "status",
          "type": "bool"
        }
      ],
      "name": "FulfillerAuthorized",
      "type": "event"
    },
    {
      "anonymous": false,
      "inputs": [
        {
          "indexed": true,
          "internalType": "address",
          "name": "previousOwner",
          "type": "address"
        },
        {
          "indexed": true,
          "internalType": "address",
          "name": "newOwner",
          "type": "address"
        }
      ],
      "name": "OwnershipTransferred",
      "type": "event"
    },
    {
      "anonymous": false,
      "inputs": [
        {
          "indexed": true,
          "internalType": "address",
          "name": "rewardDistributor",
          "type": "address"
        }
      ],
      "name": "RewardDistributorSet",
      "type": "event"
    },
    {
      "inputs": [
        {
          "internalType": "bytes32",
          "name": "",
          "type": "bytes32"
        }
      ],
      "name": "additionalContracts",
      "outputs": [
        {
          "internalType": "address",
          "name": "",
          "type": "address"
        }
      ],
      "stateMutability": "view",
      "type": "function"
    },
    {
      "inputs": [
        {
          "internalType": "address",
          "name": "fulfiller",
          "type": "address"
        },
        {
          "internalType": "bool",
          "name": "status",
          "type": "bool"
        }
      ],
      "name": "authorizeFulfiller",
      "outputs": [],
      "stateMutability": "nonpayable",
      "type": "function"
    },
    {
      "inputs": [
        {
          "internalType": "address",
          "name": "",
          "type": "address"
        }
      ],
      "name": "authorizedContracts",
      "outputs": [
        {
          "internalType": "bool",
          "name": "",
          "type": "bool"
        }
      ],
      "stateMutability": "view",
      "type": "function"
    },
    {
      "inputs": [
        {
          "internalType": "address",
          "name": "",
          "type": "address"
        }
      ],
      "name": "authorizedFulfillers",
      "outputs": [
        {
          "internalType": "bool",
          "name": "",
          "type": "bool"
        }
      ],
      "stateMutability": "view",
      "type": "function"
    },
    {
      "inputs": [
        {
          "internalType": "address",
          "name": "",
          "type": "address"
        }
      ],
      "name": "blockedTokens",
      "outputs": [
        {
          "internalType": "bool",
          "name": "",
          "type": "bool"
        }
      ],
      "stateMutability": "view",
      "type": "function"
    },
    {
      "inputs": [],
      "name": "fallbackExecutor",
      "outputs": [
        {
          "internalType": "address",
          "name": "",
          "type": "address"
        }
      ],
      "stateMutability": "view",
      "type": "function"
    },
    {
      "inputs": [],
      "name": "feeCollector",
      "outputs": [
        {
          "internalType": "address",
          "name": "",
          "type": "address"
        }
      ],
      "stateMutability": "view",
      "type": "function"
    },
    {
      "inputs": [],
      "name": "getAllMainContracts",
      "outputs": [
        {
          "internalType": "address",
          "name": "_marketMakerPool",
          "type": "address"
        },
        {
          "internalType": "address",
          "name": "_gradientToken",
          "type": "address"
        },
        {
          "internalType": "address",
          "name": "_feeCollector",
          "type": "address"
        },
        {
          "internalType": "address",
          "name": "_orderbook",
          "type": "address"
        },
        {
          "internalType": "address",
          "name": "_fallbackExecutor",
          "type": "address"
        }
      ],
      "stateMutability": "view",
      "type": "function"
    },
    {
      "inputs": [],
      "name": "getFallbackExecutor",
      "outputs": [
        {
          "internalType": "address",
          "name": "",
          "type": "address"
        }
      ],
      "stateMutability": "view",
      "type": "function"
    },
    {
      "inputs": [],
      "name": "getOrderbook",
      "outputs": [
        {
          "internalType": "address",
          "name": "",
          "type": "address"
        }
      ],
      "stateMutability": "view",
      "type": "function"
    },
    {
      "inputs": [],
      "name": "gradientToken",
      "outputs": [
        {
          "internalType": "address",
          "name": "",
          "type": "address"
        }
      ],
      "stateMutability": "view",
      "type": "function"
    },
    {
      "inputs": [
        {
          "internalType": "address",
          "name": "fulfiller",
          "type": "address"
        }
      ],
      "name": "isAuthorizedFulfiller",
      "outputs": [
        {
          "internalType": "bool",
          "name": "",
          "type": "bool"
        }
      ],
      "stateMutability": "view",
      "type": "function"
    },
    {
      "inputs": [
        {
          "internalType": "address",
          "name": "contractAddress",
          "type": "address"
        }
      ],
      "name": "isContractAuthorized",
      "outputs": [
        {
          "internalType": "bool",
          "name": "",
          "type": "bool"
        }
      ],
      "stateMutability": "view",
      "type": "function"
    },
    {
      "inputs": [
        {
          "internalType": "address",
          "name": "",
          "type": "address"
        }
      ],
      "name": "isRewardDistributor",
      "outputs": [
        {
          "internalType": "bool",
          "name": "",
          "type": "bool"
        }
      ],
      "stateMutability": "view",
      "type": "function"
    },
    {
      "inputs": [],
      "name": "marketMakerPool",
      "outputs": [
        {
          "internalType": "address",
          "name": "",
          "type": "address"
        }
      ],
      "stateMutability": "view",
      "type": "function"
    },
    {
      "inputs": [],
      "name": "orderbook",
      "outputs": [
        {
          "internalType": "address",
          "name": "",
          "type": "address"
        }
      ],
      "stateMutability": "view",
      "type": "function"
    },
    {
      "inputs": [],
      "name": "owner",
      "outputs": [
        {
          "internalType": "address",
          "name": "",
          "type": "address"
        }
      ],
      "stateMutability": "view",
      "type": "function"
    },
    {
      "inputs": [],
      "name": "renounceOwnership",
      "outputs": [],
      "stateMutability": "nonpayable",
      "type": "function"
    },
    {
      "inputs": [
        {
          "internalType": "bytes32",
          "name": "key",
          "type": "bytes32"
        },
        {
          "internalType": "address",
          "name": "contractAddress",
          "type": "address"
        }
      ],
      "name": "setAdditionalContract",
      "outputs": [],
      "stateMutability": "nonpayable",
      "type": "function"
    },
    {
      "inputs": [
        {
          "internalType": "string",
          "name": "contractName",
          "type": "string"
        },
        {
          "internalType": "address",
          "name": "newAddress",
          "type": "address"
        }
      ],
      "name": "setContractAddress",
      "outputs": [],
      "stateMutability": "nonpayable",
      "type": "function"
    },
    {
      "inputs": [
        {
          "internalType": "address",
          "name": "contractAddress",
          "type": "address"
        },
        {
          "internalType": "bool",
          "name": "authorized",
          "type": "bool"
        }
      ],
      "name": "setContractAuthorization",
      "outputs": [],
      "stateMutability": "nonpayable",
      "type": "function"
    },
    {
      "inputs": [
        {
          "internalType": "address",
          "name": "_marketMakerPool",
          "type": "address"
        },
        {
          "internalType": "address",
          "name": "_gradientToken",
          "type": "address"
        },
        {
          "internalType": "address",
          "name": "_feeCollector",
          "type": "address"
        },
        {
          "internalType": "address",
          "name": "_orderbook",
          "type": "address"
        },
        {
          "internalType": "address",
          "name": "_fallbackExecutor",
          "type": "address"
        }
      ],
      "name": "setMainContracts",
      "outputs": [],
      "stateMutability": "nonpayable",
      "type": "function"
    },
    {
      "inputs": [
        {
          "internalType": "address",
          "name": "rewardDistributor",
          "type": "address"
        }
      ],
      "name": "setRewardDistributor",
      "outputs": [],
      "stateMutability": "nonpayable",
      "type": "function"
    },
    {
      "inputs": [
        {
          "internalType": "address",
          "name": "token",
          "type": "address"
        },
        {
          "internalType": "bool",
          "name": "blocked",
          "type": "bool"
        }
      ],
      "name": "setTokenBlockStatus",
      "outputs": [],
      "stateMutability": "nonpayable",
      "type": "function"
    },
    {
      "inputs": [
        {
          "internalType": "address",
          "name": "newOwner",
          "type": "address"
        }
      ],
      "name": "transferOwnership",
      "outputs": [],
      "stateMutability": "nonpayable",
      "type": "function"
    }
  ],
  "bytecode": "0x6080604052348015600f57600080fd5b503380603557604051631e4fbdf760e01b81526000600482015260240160405180910390fd5b603c816041565b506091565b600080546001600160a01b038381166001600160a01b0319831681178455604051919092169283917f8be0079c531659141344cd1fd0a4f28419497f9722a3daafe3b4186f6b6457e09190a35050565b610ef7806100a06000396000f3fe608060405234801561001057600080fd5b50600436106101735760003560e01c8063745e9e9f116100de578063a62986a811610097578063c415b95c11610071578063c415b95c146103d4578063d5b9221b146103e7578063f2fde38b1461040a578063f60ccc861461041d57600080fd5b8063a62986a814610384578063ab63c607146103b0578063c18b1d5e146103c157600080fd5b8063745e9e9f146103005780638880ef91146103135780638c25c139146103265780638d786521146103375780638da5cb5b14610360578063a1809b951461037157600080fd5b806339b599581161013057806339b59958146102425780634513443a14610265578063534e785c1461027857806365145f7f1461028b57806367a0b7bb146102d5578063715018a6146102f857600080fd5b8063103aeda71461017857806316ed8525146101b95780631f3108b4146101dc5780632a27abf6146101f1578063366a6d1714610204578063387c8aeb14610217575b600080fd5b6101a4610186366004610cdd565b6001600160a01b031660009081526009602052604090205460ff1690565b60405190151581526020015b60405180910390f35b6101a46101c7366004610cdd565b60076020526000908152604090205460ff1681565b6101ef6101ea366004610cff565b610430565b005b6101ef6101ff366004610d3b565b6104f3565b6101ef610212366004610d67565b6105b5565b60025461022a906001600160a01b031681565b6040516001600160a01b0390911681526020016101b0565b6101a4610250366004610cdd565b60066020526000908152604090205460ff1681565b60015461022a906001600160a01b031681565b6101ef610286366004610dcc565b610784565b600154600254600354600454600554604080516001600160a01b0396871681529486166020860152928516928401929092528316606083015291909116608082015260a0016101b0565b6101a46102e3366004610cdd565b600a6020526000908152604090205460ff1681565b6101ef610a8f565b60055461022a906001600160a01b031681565b6101ef610321366004610cff565b610aa3565b6005546001600160a01b031661022a565b61022a610345366004610e4f565b6008602052600090815260409020546001600160a01b031681565b6000546001600160a01b031661022a565b6101ef61037f366004610cdd565b610ad6565b6101a4610392366004610cdd565b6001600160a01b03166000908152600a602052604090205460ff1690565b6004546001600160a01b031661022a565b60045461022a906001600160a01b031681565b60035461022a906001600160a01b031681565b6101a46103f5366004610cdd565b60096020526000908152604090205460ff1681565b6101ef610418366004610cdd565b610b80565b6101ef61042b366004610cff565b610bbe565b610438610c44565b6001600160a01b0382166104935760405162461bcd60e51b815260206004820152601960248201527f496e76616c69642066756c66696c6c657220616464726573730000000000000060448201526064015b60405180910390fd5b6001600160a01b0382166000818152600a6020908152604091829020805460ff191685151590811790915591519182527f8cbb29e662f65817b32eeda8de904cb0f83559e6bc14d8a5a80e6c78c0bb7df891015b60405180910390a25050565b6104fb610c44565b6001600160a01b0381166105215760405162461bcd60e51b815260040161048a90610e68565b8161055c5760405162461bcd60e51b815260206004820152600b60248201526a496e76616c6964206b657960a81b604482015260640161048a565b60008281526008602052604080822080546001600160a01b0319166001600160a01b0385169081179091559051909184917ff0510d333f2983865c4bde98c7407f89765d1fb0b08f08eb8de3c62af4479b109190a35050565b6105bd610c44565b6001546040516e13585c9ad95d13585ad95c941bdbdb608a1b81526001600160a01b03878116921690600f0160405190819003812090600080516020610ea283398151915290600090a46002546040516c23b930b234b2b73a2a37b5b2b760991b81526001600160a01b03868116921690600d0160405190819003812090600080516020610ea283398151915290600090a46003546040516b2332b2a1b7b63632b1ba37b960a11b81526001600160a01b03858116921690600c0160405190819003812090600080516020610ea283398151915290600090a4600454604051684f72646572626f6f6b60b81b81526001600160a01b0384811692169060090160405190819003812090600080516020610ea283398151915290600090a46005546040516f2330b6363130b1b5a2bc32b1baba37b960811b81526001600160a01b0383811692169060100160405190819003812090600080516020610ea283398151915290600090a4600180546001600160a01b03199081166001600160a01b03978816179091556002805482169587169590951790945560038054851693861693909317909255600480548416918516919091179055600580549092169216919091179055565b61078c610c44565b6001600160a01b0381166107b25760405162461bcd60e51b815260040161048a90610e68565b600083836040516107c4929190610e91565b60408051918290038220828201909152600f82526e13585c9ad95d13585ad95c941bdbdb608a1b602090920191909152905060007f5718351ee587a0afb959821a09ec82f3b6c9f9380db9f35dd993888f1776effe82016108445750600180546001600160a01b038481166001600160a01b031983161790925516610a46565b60408051808201909152600d81526c23b930b234b2b73a2a37b5b2b760991b6020909101527f54e3a05f34e90baf519af85968cf9cc129d111387d3d32365198b2589f45fd1282016108b55750600280546001600160a01b038481166001600160a01b031983161790925516610a46565b60408051808201909152600c81526b2332b2a1b7b63632b1ba37b960a11b6020909101527f2a61281f3088848f400bc4c94a186bd5ac24a323e12c153fa7b001976744b83382016109255750600380546001600160a01b038481166001600160a01b031983161790925516610a46565b6040805180820190915260098152684f72646572626f6f6b60b81b6020909101527f88183fb9287568c59859b76b448f3503c4694b223403814ad47f73822cf48b8682016109925750600480546001600160a01b038481166001600160a01b031983161790925516610a46565b60408051808201909152601081526f2330b6363130b1b5a2bc32b1baba37b960811b6020909101527f6092fd3727db459d2a5913fbcf4972989120ddb175ccf394f9f9ea095d2742f98201610a065750600580546001600160a01b038481166001600160a01b031983161790925516610a46565b60405162461bcd60e51b8152602060048201526015602482015274496e76616c696420636f6e7472616374206e616d6560581b604482015260640161048a565b826001600160a01b0316816001600160a01b03168686604051610a6a929190610e91565b60405190819003812090600080516020610ea283398151915290600090a45050505050565b610a97610c44565b610aa16000610c71565b565b610aab610c44565b6001600160a01b03919091166000908152600660205260409020805460ff1916911515919091179055565b610ade610c44565b6001600160a01b038116610b345760405162461bcd60e51b815260206004820152601b60248201527f496e76616c6964206469737472696275746f7220616464726573730000000000604482015260640161048a565b6001600160a01b038116600081815260076020526040808220805460ff19166001179055517f075c02c513a415bd4ff5976f8aa6fc5767d2183daca9ec00ab71ce78e8bf81589190a250565b610b88610c44565b6001600160a01b038116610bb257604051631e4fbdf760e01b81526000600482015260240161048a565b610bbb81610c71565b50565b610bc6610c44565b6001600160a01b038216610bec5760405162461bcd60e51b815260040161048a90610e68565b6001600160a01b038216600081815260096020908152604091829020805460ff191685151590811790915591519182527f3213ab8ec2ed122402f038736b41878b69ae9f61f49a7edd0666bce891d29fc991016104e7565b6000546001600160a01b03163314610aa15760405163118cdaa760e01b815233600482015260240161048a565b600080546001600160a01b038381166001600160a01b0319831681178455604051919092169283917f8be0079c531659141344cd1fd0a4f28419497f9722a3daafe3b4186f6b6457e09190a35050565b80356001600160a01b0381168114610cd857600080fd5b919050565b600060208284031215610cef57600080fd5b610cf882610cc1565b9392505050565b60008060408385031215610d1257600080fd5b610d1b83610cc1565b915060208301358015158114610d3057600080fd5b809150509250929050565b60008060408385031215610d4e57600080fd5b82359150610d5e60208401610cc1565b90509250929050565b600080600080600060a08688031215610d7f57600080fd5b610d8886610cc1565b9450610d9660208701610cc1565b9350610da460408701610cc1565b9250610db260608701610cc1565b9150610dc060808701610cc1565b90509295509295909350565b600080600060408486031215610de157600080fd5b833567ffffffffffffffff811115610df857600080fd5b8401601f81018613610e0957600080fd5b803567ffffffffffffffff811115610e2057600080fd5b866020828401011115610e3257600080fd5b602091820194509250610e46908501610cc1565b90509250925092565b600060208284031215610e6157600080fd5b5035919050565b6020808252600f908201526e496e76616c6964206164647265737360881b604082015260600190565b818382376000910190815291905056fea90fb318cef160851f542872dfce25dadafdfde152ba8cc05e3f0b882842e53ca2646970667358221220c517cc8c9a99c47ab52a61d9f97ca49321dcfadb879088333d997064c9946bd264736f6c634300081a0033",
  "linkReferences": {},
  "deployedLinkReferences": {}
}