{
  "_format": "hh-sol-artifact-1",
  "contractName": "GradientMarketMakerPool",
  "sourceName": "contracts/GradientMarketMakerPool.sol",
  "abi": [
    {
      "inputs": [
        {
          "internalType": "contract IGradientRegistry",
          "name": "_gradientRegistry",
          "type": "address"
        }
      ],
      "stateMutability": "nonpayable",
      "type": "constructor"
    },
    {
      "inputs": [
        {
          "internalType": "address",
          "name": "owner",
          "type": "address"
        }
      ],
      "name": "OwnableInvalidOwner",
      "type": "error"
    },
    {
      "inputs": [
        {
          "internalType": "address",
          "name": "account",
          "type": "address"
        }
      ],
      "name": "OwnableUnauthorizedAccount",
      "type": "error"
    },
    {
      "inputs": [],
      "name": "ReentrancyGuardReentrantCall",
      "type": "error"
    },
    {
      "inputs": [
        {
          "internalType": "address",
          "name": "token",
          "type": "address"
        }
      ],
      "name": "SafeERC20FailedOperation",
      "type": "error"
    },
    {
      "anonymous": false,
      "inputs": [
        {
          "indexed": true,
          "internalType": "address",
          "name": "orderbook",
          "type": "address"
        },
        {
          "indexed": false,
          "internalType": "uint256",
          "name": "amount",
          "type": "uint256"
        },
        {
          "indexed": true,
          "internalType": "address",
          "name": "token",
          "type": "address"
        }
      ],
      "name": "ETHReceivedFromOrderbook",
      "type": "event"
    },
    {
      "anonymous": false,
      "inputs": [
        {
          "indexed": true,
          "internalType": "address",
          "name": "orderbook",
          "type": "address"
        },
        {
          "indexed": false,
          "internalType": "uint256",
          "name": "amount",
          "type": "uint256"
        },
        {
          "indexed": true,
          "internalType": "address",
          "name": "token",
          "type": "address"
        }
      ],
      "name": "ETHTransferredToOrderbook",
      "type": "event"
    },
    {
      "anonymous": false,
      "inputs": [
        {
          "indexed": true,
          "internalType": "address",
          "name": "user",
          "type": "address"
        },
        {
          "indexed": false,
          "internalType": "address",
          "name": "token",
          "type": "address"
        },
        {
          "indexed": false,
          "internalType": "uint256",
          "name": "ethAmount",
          "type": "uint256"
        },
        {
          "indexed": false,
          "internalType": "uint256",
          "name": "tokenAmount",
          "type": "uint256"
        },
        {
          "indexed": false,
          "internalType": "uint256",
          "name": "lpSharesMinted",
          "type": "uint256"
        }
      ],
      "name": "LiquidityDeposited",
      "type": "event"
    },
    {
      "anonymous": false,
      "inputs": [
        {
          "indexed": true,
          "internalType": "address",
          "name": "user",
          "type": "address"
        },
        {
          "indexed": false,
          "internalType": "uint256",
          "name": "tokenAmount",
          "type": "uint256"
        },
        {
          "indexed": false,
          "internalType": "uint256",
          "name": "ethAmount",
          "type": "uint256"
        },
        {
          "indexed": false,
          "internalType": "uint256",
          "name": "lpSharesBurned",
          "type": "uint256"
        }
      ],
      "name": "LiquidityWithdrawn",
      "type": "event"
    },
    {
      "anonymous": false,
      "inputs": [
        {
          "indexed": true,
          "internalType": "address",
          "name": "previousOwner",
          "type": "address"
        },
        {
          "indexed": true,
          "internalType": "address",
          "name": "newOwner",
          "type": "address"
        }
      ],
      "name": "OwnershipTransferred",
      "type": "event"
    },
    {
      "anonymous": false,
      "inputs": [
        {
          "indexed": true,
          "internalType": "address",
          "name": "token",
          "type": "address"
        },
        {
          "indexed": false,
          "internalType": "uint256",
          "name": "newTotalEth",
          "type": "uint256"
        },
        {
          "indexed": false,
          "internalType": "uint256",
          "name": "newTotalToken",
          "type": "uint256"
        },
        {
          "indexed": false,
          "internalType": "uint256",
          "name": "newTotalLiquidity",
          "type": "uint256"
        },
        {
          "indexed": false,
          "internalType": "uint256",
          "name": "newTotalLPShares",
          "type": "uint256"
        }
      ],
      "name": "PoolBalanceUpdated",
      "type": "event"
    },
    {
      "anonymous": false,
      "inputs": [
        {
          "indexed": true,
          "internalType": "address",
          "name": "user",
          "type": "address"
        },
        {
          "indexed": false,
          "internalType": "uint256",
          "name": "amount",
          "type": "uint256"
        }
      ],
      "name": "RewardClaimed",
      "type": "event"
    },
    {
      "anonymous": false,
      "inputs": [
        {
          "indexed": true,
          "internalType": "address",
          "name": "from",
          "type": "address"
        },
        {
          "indexed": false,
          "internalType": "uint256",
          "name": "amount",
          "type": "uint256"
        }
      ],
      "name": "RewardDeposited",
      "type": "event"
    },
    {
      "anonymous": false,
      "inputs": [
        {
          "indexed": true,
          "internalType": "address",
          "name": "orderbook",
          "type": "address"
        },
        {
          "indexed": true,
          "internalType": "address",
          "name": "token",
          "type": "address"
        },
        {
          "indexed": false,
          "internalType": "uint256",
          "name": "amount",
          "type": "uint256"
        }
      ],
      "name": "TokenReceivedFromOrderbook",
      "type": "event"
    },
    {
      "anonymous": false,
      "inputs": [
        {
          "indexed": true,
          "internalType": "address",
          "name": "orderbook",
          "type": "address"
        },
        {
          "indexed": true,
          "internalType": "address",
          "name": "token",
          "type": "address"
        },
        {
          "indexed": false,
          "internalType": "uint256",
          "name": "amount",
          "type": "uint256"
        }
      ],
      "name": "TokenTransferredToOrderbook",
      "type": "event"
    },
    {
      "inputs": [],
      "name": "SCALE",
      "outputs": [
        {
          "internalType": "uint256",
          "name": "",
          "type": "uint256"
        }
      ],
      "stateMutability": "view",
      "type": "function"
    },
    {
      "inputs": [
        {
          "internalType": "address",
          "name": "token",
          "type": "address"
        }
      ],
      "name": "claimReward",
      "outputs": [],
      "stateMutability": "nonpayable",
      "type": "function"
    },
    {
      "inputs": [],
      "name": "emergencyWithdraw",
      "outputs": [],
      "stateMutability": "nonpayable",
      "type": "function"
    },
    {
      "inputs": [
        {
          "internalType": "address",
          "name": "token",
          "type": "address"
        }
      ],
      "name": "getPoolInfo",
      "outputs": [
        {
          "components": [
            {
              "internalType": "uint256",
              "name": "totalEth",
              "type": "uint256"
            },
            {
              "internalType": "uint256",
              "name": "totalToken",
              "type": "uint256"
            },
            {
              "internalType": "uint256",
              "name": "totalLiquidity",
              "type": "uint256"
            },
            {
              "internalType": "uint256",
              "name": "totalLPShares",
              "type": "uint256"
            },
            {
              "internalType": "uint256",
              "name": "accRewardPerShare",
              "type": "uint256"
            },
            {
              "internalType": "uint256",
              "name": "rewardBalance",
              "type": "uint256"
            },
            {
              "internalType": "address",
              "name": "uniswapPair",
              "type": "address"
            },
            {
              "internalType": "bool",
              "name": "exists",
              "type": "bool"
            }
          ],
          "internalType": "struct IGradientMarketMakerPool.PoolInfo",
          "name": "",
          "type": "tuple"
        }
      ],
      "stateMutability": "view",
      "type": "function"
    },
    {
      "inputs": [
        {
          "internalType": "address",
          "name": "token",
          "type": "address"
        },
        {
          "internalType": "address",
          "name": "user",
          "type": "address"
        }
      ],
      "name": "getUserLPShares",
      "outputs": [
        {
          "internalType": "uint256",
          "name": "lpShares",
          "type": "uint256"
        }
      ],
      "stateMutability": "view",
      "type": "function"
    },
    {
      "inputs": [
        {
          "internalType": "address",
          "name": "token",
          "type": "address"
        },
        {
          "internalType": "address",
          "name": "user",
          "type": "address"
        }
      ],
      "name": "getUserSharePercentage",
      "outputs": [
        {
          "internalType": "uint256",
          "name": "sharePercentage",
          "type": "uint256"
        }
      ],
      "stateMutability": "view",
      "type": "function"
    },
    {
      "inputs": [],
      "name": "gradientRegistry",
      "outputs": [
        {
          "internalType": "contract IGradientRegistry",
          "name": "",
          "type": "address"
        }
      ],
      "stateMutability": "view",
      "type": "function"
    },
    {
      "inputs": [
        {
          "internalType": "address",
          "name": "",
          "type": "address"
        },
        {
          "internalType": "address",
          "name": "",
          "type": "address"
        }
      ],
      "name": "marketMakers",
      "outputs": [
        {
          "internalType": "uint256",
          "name": "tokenAmount",
          "type": "uint256"
        },
        {
          "internalType": "uint256",
          "name": "ethAmount",
          "type": "uint256"
        },
        {
          "internalType": "uint256",
          "name": "lpShares",
          "type": "uint256"
        },
        {
          "internalType": "uint256",
          "name": "rewardDebt",
          "type": "uint256"
        },
        {
          "internalType": "uint256",
          "name": "pendingReward",
          "type": "uint256"
        }
      ],
      "stateMutability": "view",
      "type": "function"
    },
    {
      "inputs": [],
      "name": "owner",
      "outputs": [
        {
          "internalType": "address",
          "name": "",
          "type": "address"
        }
      ],
      "stateMutability": "view",
      "type": "function"
    },
    {
      "inputs": [
        {
          "internalType": "address",
          "name": "",
          "type": "address"
        }
      ],
      "name": "pools",
      "outputs": [
        {
          "internalType": "uint256",
          "name": "totalEth",
          "type": "uint256"
        },
        {
          "internalType": "uint256",
          "name": "totalToken",
          "type": "uint256"
        },
        {
          "internalType": "uint256",
          "name": "totalLiquidity",
          "type": "uint256"
        },
        {
          "internalType": "uint256",
          "name": "totalLPShares",
          "type": "uint256"
        },
        {
          "internalType": "uint256",
          "name": "accRewardPerShare",
          "type": "uint256"
        },
        {
          "internalType": "uint256",
          "name": "rewardBalance",
          "type": "uint256"
        },
        {
          "internalType": "address",
          "name": "uniswapPair",
          "type": "address"
        },
        {
          "internalType": "bool",
          "name": "exists",
          "type": "bool"
        }
      ],
      "stateMutability": "view",
      "type": "function"
    },
    {
      "inputs": [
        {
          "internalType": "address",
          "name": "token",
          "type": "address"
        },
        {
          "internalType": "uint256",
          "name": "tokenAmount",
          "type": "uint256"
        }
      ],
      "name": "provideLiquidity",
      "outputs": [],
      "stateMutability": "payable",
      "type": "function"
    },
    {
      "inputs": [
        {
          "internalType": "address",
          "name": "token",
          "type": "address"
        },
        {
          "internalType": "uint256",
          "name": "amount",
          "type": "uint256"
        }
      ],
      "name": "receiveETHFromOrderbook",
      "outputs": [],
      "stateMutability": "payable",
      "type": "function"
    },
    {
      "inputs": [
        {
          "internalType": "address",
          "name": "token",
          "type": "address"
        }
      ],
      "name": "receiveFeeDistribution",
      "outputs": [],
      "stateMutability": "payable",
      "type": "function"
    },
    {
      "inputs": [
        {
          "internalType": "address",
          "name": "token",
          "type": "address"
        },
        {
          "internalType": "uint256",
          "name": "amount",
          "type": "uint256"
        }
      ],
      "name": "receiveTokenFromOrderbook",
      "outputs": [],
      "stateMutability": "nonpayable",
      "type": "function"
    },
    {
      "inputs": [],
      "name": "renounceOwnership",
      "outputs": [],
      "stateMutability": "nonpayable",
      "type": "function"
    },
    {
      "inputs": [
        {
          "internalType": "contract IGradientRegistry",
          "name": "_gradientRegistry",
          "type": "address"
        }
      ],
      "name": "setRegistry",
      "outputs": [],
      "stateMutability": "nonpayable",
      "type": "function"
    },
    {
      "inputs": [
        {
          "internalType": "address",
          "name": "token",
          "type": "address"
        },
        {
          "internalType": "uint256",
          "name": "amount",
          "type": "uint256"
        }
      ],
      "name": "transferETHToOrderbook",
      "outputs": [],
      "stateMutability": "nonpayable",
      "type": "function"
    },
    {
      "inputs": [
        {
          "internalType": "address",
          "name": "newOwner",
          "type": "address"
        }
      ],
      "name": "transferOwnership",
      "outputs": [],
      "stateMutability": "nonpayable",
      "type": "function"
    },
    {
      "inputs": [
        {
          "internalType": "address",
          "name": "token",
          "type": "address"
        },
        {
          "internalType": "uint256",
          "name": "amount",
          "type": "uint256"
        }
      ],
      "name": "transferTokenToOrderbook",
      "outputs": [],
      "stateMutability": "nonpayable",
      "type": "function"
    },
    {
      "inputs": [
        {
          "internalType": "address",
          "name": "token",
          "type": "address"
        },
        {
          "internalType": "uint256",
          "name": "shares",
          "type": "uint256"
        }
      ],
      "name": "withdrawLiquidity",
      "outputs": [],
      "stateMutability": "nonpayable",
      "type": "function"
    },
    {
      "stateMutability": "payable",
      "type": "receive"
    }
  ],
  "bytecode": "0x608060405234801561001057600080fd5b5060405161269a38038061269a83398101604081905261002f916100d8565b338061005557604051631e4fbdf760e01b81526000600482015260240160405180910390fd5b61005e81610088565b5060018055600280546001600160a01b0319166001600160a01b0392909216919091179055610108565b600080546001600160a01b038381166001600160a01b0319831681178455604051919092169283917f8be0079c531659141344cd1fd0a4f28419497f9722a3daafe3b4186f6b6457e09190a35050565b6000602082840312156100ea57600080fd5b81516001600160a01b038116811461010157600080fd5b9392505050565b612583806101176000396000f3fe6080604052600436106101235760003560e01c80638da5cb5b116100a0578063d279c19111610064578063d279c19114610462578063db2e21bc14610482578063e706fad814610497578063eced5526146104b7578063f2fde38b146104d357600080fd5b80638da5cb5b14610330578063a4063dbc1461034e578063a91ee0dc14610402578063adabfa0514610422578063ae8b804d1461044257600080fd5b8063715018a6116100e7578063715018a6146102825780637e49b933146102975780637e7c7a95146102c5578063830562bc146102e55780638a57fddd1461031d57600080fd5b806306bfa9381461012f57806306d47de9146101bf57806340a16e26146101e1578063576f44721461025c5780635fea61201461026f57600080fd5b3661012a57005b600080fd5b34801561013b57600080fd5b5061014f61014a3660046122ab565b6104f3565b6040516101b69190815181526020808301519082015260408083015190820152606080830151908201526080808301519082015260a0808301519082015260c0808301516001600160a01b03169082015260e0918201511515918101919091526101000190565b60405180910390f35b3480156101cb57600080fd5b506101df6101da3660046122cf565b6105c9565b005b3480156101ed57600080fd5b506102346101fc3660046122fb565b600460208181526000938452604080852090915291835291208054600182015460028301546003840154939094015491939092909185565b604080519586526020860194909452928401919091526060830152608082015260a0016101b6565b6101df61026a3660046122ab565b610a43565b6101df61027d3660046122cf565b610c17565b34801561028e57600080fd5b506101df611036565b3480156102a357600080fd5b506102b76102b23660046122fb565b61104a565b6040519081526020016101b6565b3480156102d157600080fd5b506101df6102e03660046122cf565b61107a565b3480156102f157600080fd5b50600254610305906001600160a01b031681565b6040516001600160a01b0390911681526020016101b6565b6101df61032b3660046122cf565b6113c6565b34801561033c57600080fd5b506000546001600160a01b0316610305565b34801561035a57600080fd5b506103bc6103693660046122ab565b60036020819052600091825260409091208054600182015460028301549383015460048401546005850154600690950154939592949293919290916001600160a01b03811690600160a01b900460ff1688565b604080519889526020890197909752958701949094526060860192909252608085015260a08401526001600160a01b031660c0830152151560e0820152610100016101b6565b34801561040e57600080fd5b506101df61041d3660046122ab565b6116b0565b34801561042e57600080fd5b506101df61043d3660046122cf565b61179d565b34801561044e57600080fd5b506102b761045d3660046122fb565b611a38565b34801561046e57600080fd5b506101df61047d3660046122ab565b611aa7565b34801561048e57600080fd5b506101df611c67565b3480156104a357600080fd5b506101df6104b23660046122cf565b611d0d565b3480156104c357600080fd5b506102b7670de0b6b3a764000081565b3480156104df57600080fd5b506101df6104ee3660046122ab565b61201d565b61054660405180610100016040528060008152602001600081526020016000815260200160008152602001600081526020016000815260200160006001600160a01b031681526020016000151581525090565b506001600160a01b039081166000908152600360208181526040928390208351610100810185528154815260018201549281019290925260028101549382019390935290820154606082015260048201546080820152600582015460a082015260069091015491821660c0820152600160a01b90910460ff16151560e082015290565b6105d1612058565b6001600160a01b038216600090815260036020908152604080832060048352818420338552909252909120821580159061060d57506127108311155b61065e5760405162461bcd60e51b815260206004820152601960248201527f496e76616c6964207368617265732070657263656e746167650000000000000060448201526064015b60405180910390fd5b60008260020154116106a95760405162461bcd60e51b8152602060048201526014602482015273139bc81b1a5c5d5a591a5d1e481a5b881c1bdbdb60621b6044820152606401610655565b600181015481546000916106bc9161234a565b90506000811161070e5760405162461bcd60e51b815260206004820152601860248201527f4e6f206c697175696469747920746f20776974686472617700000000000000006044820152606401610655565b60008260030154670de0b6b3a764000085600401548461072e919061235d565b6107389190612374565b6107429190612396565b905080836004016000828254610758919061234a565b925050819055506000612710868560020154610774919061235d565b61077e9190612374565b9050600081116107c45760405162461bcd60e51b815260206004820152601160248201527027379039b430b932b9903a3790313ab93760791b6044820152606401610655565b600085600301548287600101546107db919061235d565b6107e59190612374565b9050600086600301548388600001546107fe919061235d565b6108089190612374565b9050600061271089886000015461081f919061235d565b6108299190612374565b905060006127108a8960010154610840919061235d565b61084a9190612374565b9050818860000160008282546108609190612396565b925050819055508088600101600082825461087b9190612396565b92505081905550848860020160008282546108969190612396565b909155506108a69050838561234a565b8960020160008282546108b99190612396565b92505081905550838960010160008282546108d49190612396565b9091555050885483908a906000906108ed908490612396565b92505081905550848960030160008282546109089190612396565b9091555050600489015460018901548954670de0b6b3a7640000929161092d9161234a565b610937919061235d565b6109419190612374565b600389015561095a6001600160a01b038c163386612082565b604051600090339085908381818185875af1925050503d806000811461099c576040519150601f19603f3d011682016040523d82523d6000602084013e6109a1565b606091505b50509050806109e85760405162461bcd60e51b8152602060048201526013602482015272115512081d1c985b9cd9995c8819985a5b1959606a1b6044820152606401610655565b604080518681526020810186905290810187905233907f9746cd459b192e14d25047ee6f0c763709fc38435eb4883830cf715de0a40ac0906060015b60405180910390a250505050505050505050610a3f60018055565b5050565b6001600160a01b03808216600090815260036020526040902060060154829116610a7f5760405162461bcd60e51b8152600401610655906123a9565b6002546040516316ed852560e01b81523360048201526001600160a01b03909116906316ed852590602401602060405180830381865afa158015610ac7573d6000803e3d6000fd5b505050506040513d601f19601f82011682018060405250810190610aeb91906123d6565b610b4e5760405162461bcd60e51b815260206004820152602e60248201527f4f6e6c7920726577617264206469737472696275746f722063616e2063616c6c60448201526d103a3434b990333ab731ba34b7b760911b6064820152608401610655565b6001600160a01b03821660009081526003602052604090206002810154610b875760405162461bcd60e51b8152600401610655906123f8565b60003411610bc55760405162461bcd60e51b815260206004820152600b60248201526a139bc8115512081cd95b9d60aa1b6044820152606401610655565b610bcf83346120e6565b826001600160a01b03167f7dbc080e4530c8bcf265eb5c9a35ae096ca1eb607b7e802b96581ef4c5e1a70334604051610c0a91815260200190565b60405180910390a2505050565b610c1f612058565b6001600160a01b0380831660009081526003602052604080822060068101548251630240bc6b60e21b8152925191948493911691630902f1ac916004808201926060929091908290030181865afa158015610c7e573d6000803e3d6000fd5b505050506040513d601f19601f82011682018060405250810190610ca2919061243a565b509150915060008360060160009054906101000a90046001600160a01b03166001600160a01b0316630dfe16816040518163ffffffff1660e01b8152600401602060405180830381865afa158015610cfe573d6000803e3d6000fd5b505050506040513d601f19601f82011682018060405250810190610d22919061248a565b9050600080876001600160a01b0316836001600160a01b031614610d47578484610d4a565b83855b6001600160701b039182169350169050600082610d67833461235d565b610d719190612374565b90506064610d8082606361235d565b610d8a9190612374565b8810158015610daf57506064610da182606561235d565b610dab9190612374565b8811155b610dfb5760405162461bcd60e51b815260206004820152601760248201527f496e76616c6964206c697175696469747920726174696f0000000000000000006044820152606401610655565b610e106001600160a01b038a1633308b612169565b6001600160a01b0389166000908152600460209081526040808320338452909152812060018101548154919291610e47919061234a565b90508015610ea05760008260030154670de0b6b3a76400008b6004015484610e6f919061235d565b610e799190612374565b610e839190612396565b905080836004016000828254610e99919061234a565b9091555050505b60008960030154600003610ebf57610eb8348c61234a565b9050610ef0565b6000610ecb348d61234a565b90508a600201548b6003015482610ee2919061235d565b610eec9190612374565b9150505b34836001016000828254610f04919061234a565b909155505082548b908490600090610f1d90849061234a565b9250508190555080836002016000828254610f38919061234a565b909155505060048a015460018401548454670de0b6b3a76400009291610f5d9161234a565b610f67919061235d565b610f719190612374565b6003840155610f80348c61234a565b8a6002016000828254610f93919061234a565b9091555050895434908b90600090610fac90849061234a565b925050819055508a8a6001016000828254610fc7919061234a565b92505081905550808a6003016000828254610fe2919061234a565b9091555050604080516001600160a01b038e1681523460208201529081018c90526060810182905233907f76eb95a037bfb0d0de0d9534dc6b6c0be4c3c7b9f6e31fd4d34d2339de6dbcd890608001610a24565b61103e6121a8565b61104860006121d5565b565b6001600160a01b038083166000908152600460209081526040808320938516835292905220600201545b92915050565b600254604051630736b32b60e31b81526001600160a01b038085166004830152849216906339b5995890602401602060405180830381865afa1580156110c4573d6000803e3d6000fd5b505050506040513d601f19601f820116820180604052508101906110e891906123d6565b156111055760405162461bcd60e51b8152600401610655906124a7565b6001600160a01b038084166000908152600360205260409020600601548491166111415760405162461bcd60e51b8152600401610655906123a9565b600260009054906101000a90046001600160a01b03166001600160a01b031663c18b1d5e6040518163ffffffff1660e01b8152600401602060405180830381865afa158015611194573d6000803e3d6000fd5b505050506040513d601f19601f820116820180604052508101906111b8919061248a565b6001600160a01b0316336001600160a01b0316146111e85760405162461bcd60e51b8152600401610655906124d1565b600083116112085760405162461bcd60e51b815260040161065590612516565b478311156112585760405162461bcd60e51b815260206004820152601860248201527f496e73756666696369656e74204554482062616c616e636500000000000000006044820152606401610655565b6001600160a01b038416600090815260036020526040902060028101546112915760405162461bcd60e51b8152600401610655906123f8565b838160000160008282546112a59190612396565b92505081905550838160020160008282546112c09190612396565b9091555050604051600090339086908381818185875af1925050503d8060008114611307576040519150601f19603f3d011682016040523d82523d6000602084013e61130c565b606091505b505090508061135d5760405162461bcd60e51b815260206004820181905260248201527f455448207472616e7366657220746f206f72646572626f6f6b206661696c65646044820152606401610655565b81546001830154600284015460038501546040805194855260208501939093529183015260608201526001600160a01b038716907fe7a1849d3d3b81e99267b68a3889d2f466ac59697fa69ed9f94d306737f6ecd89060800160405180910390a2505050505050565b600254604051630736b32b60e31b81526001600160a01b038085166004830152849216906339b5995890602401602060405180830381865afa158015611410573d6000803e3d6000fd5b505050506040513d601f19601f8201168201806040525081019061143491906123d6565b156114515760405162461bcd60e51b8152600401610655906124a7565b6001600160a01b0380841660009081526003602052604090206006015484911661148d5760405162461bcd60e51b8152600401610655906123a9565b600260009054906101000a90046001600160a01b03166001600160a01b031663c18b1d5e6040518163ffffffff1660e01b8152600401602060405180830381865afa1580156114e0573d6000803e3d6000fd5b505050506040513d601f19601f82011682018060405250810190611504919061248a565b6001600160a01b0316336001600160a01b0316146115345760405162461bcd60e51b8152600401610655906124d1565b600083116115545760405162461bcd60e51b815260040161065590612516565b8234146115995760405162461bcd60e51b815260206004820152601360248201527208aa89040c2dadeeadce840dad2e6dac2e8c6d606b1b6044820152606401610655565b6001600160a01b038416600090815260036020526040902060028101546115d25760405162461bcd60e51b8152600401610655906123f8565b838160000160008282546115e6919061234a565b9250508190555083816002016000828254611601919061234a565b90915550506040518481526001600160a01b0386169033907fa83dbe67a8301965c2dd933c3feb89cae1783e4a8825466fd979d121f3f7ef69906020015b60405180910390a380546001820154600283015460038401546040805194855260208501939093529183015260608201526001600160a01b038616907fe7a1849d3d3b81e99267b68a3889d2f466ac59697fa69ed9f94d306737f6ecd8906080015b60405180910390a25050505050565b6116b86121a8565b60006001600160a01b0316816001600160a01b0316634513443a6040518163ffffffff1660e01b8152600401602060405180830381865afa158015611701573d6000803e3d6000fd5b505050506040513d601f19601f82011682018060405250810190611725919061248a565b6001600160a01b03160361177b5760405162461bcd60e51b815260206004820152601960248201527f496e76616c6964206772616469656e74207265676973747279000000000000006044820152606401610655565b600280546001600160a01b0319166001600160a01b0392909216919091179055565b600254604051630736b32b60e31b81526001600160a01b038085166004830152849216906339b5995890602401602060405180830381865afa1580156117e7573d6000803e3d6000fd5b505050506040513d601f19601f8201168201806040525081019061180b91906123d6565b156118285760405162461bcd60e51b8152600401610655906124a7565b6001600160a01b038084166000908152600360205260409020600601548491166118645760405162461bcd60e51b8152600401610655906123a9565b600260009054906101000a90046001600160a01b03166001600160a01b031663c18b1d5e6040518163ffffffff1660e01b8152600401602060405180830381865afa1580156118b7573d6000803e3d6000fd5b505050506040513d601f19601f820116820180604052508101906118db919061248a565b6001600160a01b0316336001600160a01b03161461190b5760405162461bcd60e51b8152600401610655906124d1565b6000831161192b5760405162461bcd60e51b815260040161065590612516565b6001600160a01b0384166119795760405162461bcd60e51b8152602060048201526015602482015274496e76616c696420746f6b656e206164647265737360581b6044820152606401610655565b6001600160a01b038416600090815260036020526040902060028101546119b25760405162461bcd60e51b8152600401610655906123f8565b6119c76001600160a01b038616333087612169565b838160010160008282546119db919061234a565b92505081905550838160020160008282546119f6919061234a565b90915550506040518481526001600160a01b0386169033907fb61579a10a10e72eda8e63b6e1224e007f5c4108c1378c9a831a11363a74b75a9060200161163f565b6001600160a01b038083166000908152600360208181526040808420600483528185209587168552949091528220908301549192918303611a7e57600092505050611074565b60038201546002820154611a949061271061235d565b611a9e9190612374565b95945050505050565b611aaf612058565b6001600160a01b0381166000908152600360209081526040808320600483528184203385529092529091206002810154611afb5760405162461bcd60e51b8152600401610655906123f8565b6000670de0b6b3a764000083600401548360020154611b1a919061235d565b611b249190612374565b905060008260040154836003015483611b3d9190612396565b611b47919061234a565b905060008111611b865760405162461bcd60e51b815260206004820152600a6024820152694e6f207265776172647360b01b6044820152606401610655565b60038301829055600060048401819055604051339083908381818185875af1925050503d8060008114611bd5576040519150601f19603f3d011682016040523d82523d6000602084013e611bda565b606091505b5050905080611c215760405162461bcd60e51b8152602060048201526013602482015272115512081d1c985b9cd9995c8819985a5b1959606a1b6044820152606401610655565b60405182815233907f106f923f993c2149d49b4255ff723acafa1f2d94393f561d3eda32ae348f72419060200160405180910390a25050505050611c6460018055565b50565b611c6f6121a8565b478015611c6457600080546040516001600160a01b039091169083908381818185875af1925050503d8060008114611cc3576040519150601f19603f3d011682016040523d82523d6000602084013e611cc8565b606091505b5050905080610a3f5760405162461bcd60e51b815260206004820152601160248201527015da5d1a191c985dd85b0819985a5b1959607a1b6044820152606401610655565b600254604051630736b32b60e31b81526001600160a01b038085166004830152849216906339b5995890602401602060405180830381865afa158015611d57573d6000803e3d6000fd5b505050506040513d601f19601f82011682018060405250810190611d7b91906123d6565b15611d985760405162461bcd60e51b8152600401610655906124a7565b6001600160a01b03808416600090815260036020526040902060060154849116611dd45760405162461bcd60e51b8152600401610655906123a9565b600260009054906101000a90046001600160a01b03166001600160a01b031663c18b1d5e6040518163ffffffff1660e01b8152600401602060405180830381865afa158015611e27573d6000803e3d6000fd5b505050506040513d601f19601f82011682018060405250810190611e4b919061248a565b6001600160a01b0316336001600160a01b031614611e7b5760405162461bcd60e51b8152600401610655906124d1565b60008311611e9b5760405162461bcd60e51b815260040161065590612516565b6001600160a01b038416611ee95760405162461bcd60e51b8152602060048201526015602482015274496e76616c696420746f6b656e206164647265737360581b6044820152606401610655565b6001600160a01b03841660009081526003602052604090206002810154611f225760405162461bcd60e51b8152600401610655906123f8565b8381600101541015611f765760405162461bcd60e51b815260206004820152601f60248201527f496e73756666696369656e7420706f6f6c20746f6b656e2062616c616e6365006044820152606401610655565b83816001016000828254611f8a9190612396565b9250508190555083816002016000828254611fa59190612396565b90915550611fbf90506001600160a01b0386163386612082565b80546001820154600283015460038401546040805194855260208501939093529183015260608201526001600160a01b038616907fe7a1849d3d3b81e99267b68a3889d2f466ac59697fa69ed9f94d306737f6ecd8906080016116a1565b6120256121a8565b6001600160a01b03811661204f57604051631e4fbdf760e01b815260006004820152602401610655565b611c64816121d5565b60026001540361207b57604051633ee5aeb560e01b815260040160405180910390fd5b6002600155565b6040516001600160a01b038381166024830152604482018390526120e191859182169063a9059cbb906064015b604051602081830303815290604052915060e01b6020820180516001600160e01b038381831617835250505050612225565b505050565b6001600160a01b038216600090815260036020819052604082209081015490910361211057505050565b6003810154612127670de0b6b3a76400008461235d565b6121319190612374565b816004016000828254612144919061234a565b925050819055508181600501600082825461215f919061234a565b9091555050505050565b6040516001600160a01b0384811660248301528381166044830152606482018390526121a29186918216906323b872dd906084016120af565b50505050565b6000546001600160a01b031633146110485760405163118cdaa760e01b8152336004820152602401610655565b600080546001600160a01b038381166001600160a01b0319831681178455604051919092169283917f8be0079c531659141344cd1fd0a4f28419497f9722a3daafe3b4186f6b6457e09190a35050565b600080602060008451602086016000885af180612248576040513d6000823e3d81fd5b50506000513d9150811561226057806001141561226d565b6001600160a01b0384163b155b156121a257604051635274afe760e01b81526001600160a01b0385166004820152602401610655565b6001600160a01b0381168114611c6457600080fd5b6000602082840312156122bd57600080fd5b81356122c881612296565b9392505050565b600080604083850312156122e257600080fd5b82356122ed81612296565b946020939093013593505050565b6000806040838503121561230e57600080fd5b823561231981612296565b9150602083013561232981612296565b809150509250929050565b634e487b7160e01b600052601160045260246000fd5b8082018082111561107457611074612334565b808202811582820484141761107457611074612334565b60008261239157634e487b7160e01b600052601260045260246000fd5b500490565b8181038181111561107457611074612334565b602080825260139082015272141bdbdb08191bd95cc81b9bdd08195e1a5cdd606a1b604082015260600190565b6000602082840312156123e857600080fd5b815180151581146122c857600080fd5b6020808252600c908201526b4e6f206c697175696469747960a01b604082015260600190565b80516001600160701b038116811461243557600080fd5b919050565b60008060006060848603121561244f57600080fd5b6124588461241e565b92506124666020850161241e565b9150604084015163ffffffff8116811461247f57600080fd5b809150509250925092565b60006020828403121561249c57600080fd5b81516122c881612296565b60208082526010908201526f151bdad95b881a5cc8189b1bd8dad95960821b604082015260600190565b60208082526025908201527f4f6e6c79206f72646572626f6f6b2063616e2063616c6c20746869732066756e60408201526431ba34b7b760d91b606082015260800190565b6020808252601d908201527f416d6f756e74206d7573742062652067726561746572207468616e203000000060408201526060019056fea2646970667358221220ac5f97a56e0ba742b698f2113eca7e383011d0c683fe825d185fe755df8c5b3364736f6c634300081a0033",
  "linkReferences": {},
  "deployedLinkReferences": {}
}