{
  "_format": "hh-sol-artifact-1",
  "contractName": "GradientOrderbook",
  "sourceName": "contracts/GradientOrderbook.sol",
  "abi": [
    {
      "inputs": [
        {
          "internalType": "contract IGradientRegistry",
          "name": "_gradientRegistry",
          "type": "address"
        }
      ],
      "stateMutability": "nonpayable",
      "type": "constructor"
    },
    {
      "inputs": [
        {
          "internalType": "address",
          "name": "owner",
          "type": "address"
        }
      ],
      "name": "OwnableInvalidOwner",
      "type": "error"
    },
    {
      "inputs": [
        {
          "internalType": "address",
          "name": "account",
          "type": "address"
        }
      ],
      "name": "OwnableUnauthorizedAccount",
      "type": "error"
    },
    {
      "inputs": [],
      "name": "ReentrancyGuardReentrantCall",
      "type": "error"
    },
    {
      "inputs": [
        {
          "internalType": "address",
          "name": "token",
          "type": "address"
        }
      ],
      "name": "SafeERC20FailedOperation",
      "type": "error"
    },
    {
      "anonymous": false,
      "inputs": [
        {
          "indexed": true,
          "internalType": "address",
          "name": "marketMakerPool",
          "type": "address"
        },
        {
          "indexed": true,
          "internalType": "address",
          "name": "token",
          "type": "address"
        },
        {
          "indexed": false,
          "internalType": "uint256",
          "name": "amount",
          "type": "uint256"
        },
        {
          "indexed": false,
          "internalType": "uint256",
          "name": "totalFee",
          "type": "uint256"
        }
      ],
      "name": "FeeDistributedToPool",
      "type": "event"
    },
    {
      "anonymous": false,
      "inputs": [
        {
          "indexed": false,
          "internalType": "uint256",
          "name": "oldFeePercentage",
          "type": "uint256"
        },
        {
          "indexed": false,
          "internalType": "uint256",
          "name": "newFeePercentage",
          "type": "uint256"
        }
      ],
      "name": "FeePercentageUpdated",
      "type": "event"
    },
    {
      "anonymous": false,
      "inputs": [
        {
          "indexed": true,
          "internalType": "address",
          "name": "recipient",
          "type": "address"
        },
        {
          "indexed": false,
          "internalType": "uint256",
          "name": "amount",
          "type": "uint256"
        }
      ],
      "name": "FeesWithdrawn",
      "type": "event"
    },
    {
      "anonymous": false,
      "inputs": [
        {
          "indexed": false,
          "internalType": "uint256",
          "name": "oldPercentage",
          "type": "uint256"
        },
        {
          "indexed": false,
          "internalType": "uint256",
          "name": "newPercentage",
          "type": "uint256"
        }
      ],
      "name": "MMFeeDistributionPercentageUpdated",
      "type": "event"
    },
    {
      "anonymous": false,
      "inputs": [
        {
          "indexed": false,
          "internalType": "uint256",
          "name": "newMaxTTL",
          "type": "uint256"
        }
      ],
      "name": "MaxTTLUpdated",
      "type": "event"
    },
    {
      "anonymous": false,
      "inputs": [
        {
          "indexed": true,
          "internalType": "uint256",
          "name": "orderId",
          "type": "uint256"
        }
      ],
      "name": "OrderCancelled",
      "type": "event"
    },
    {
      "anonymous": false,
      "inputs": [
        {
          "indexed": true,
          "internalType": "uint256",
          "name": "orderId",
          "type": "uint256"
        },
        {
          "indexed": true,
          "internalType": "address",
          "name": "owner",
          "type": "address"
        },
        {
          "indexed": false,
          "internalType": "enum GradientOrderbook.OrderType",
          "name": "orderType",
          "type": "uint8"
        },
        {
          "indexed": false,
          "internalType": "enum GradientOrderbook.OrderExecutionType",
          "name": "executionType",
          "type": "uint8"
        },
        {
          "indexed": false,
          "internalType": "address",
          "name": "token",
          "type": "address"
        },
        {
          "indexed": false,
          "internalType": "uint256",
          "name": "amount",
          "type": "uint256"
        },
        {
          "indexed": false,
          "internalType": "uint256",
          "name": "price",
          "type": "uint256"
        },
        {
          "indexed": false,
          "internalType": "uint256",
          "name": "expirationTime",
          "type": "uint256"
        },
        {
          "indexed": false,
          "internalType": "uint256",
          "name": "totalCost",
          "type": "uint256"
        }
      ],
      "name": "OrderCreated",
      "type": "event"
    },
    {
      "anonymous": false,
      "inputs": [
        {
          "indexed": true,
          "internalType": "uint256",
          "name": "orderId",
          "type": "uint256"
        }
      ],
      "name": "OrderExpired",
      "type": "event"
    },
    {
      "anonymous": false,
      "inputs": [
        {
          "indexed": true,
          "internalType": "uint256",
          "name": "orderId",
          "type": "uint256"
        },
        {
          "indexed": false,
          "internalType": "uint256",
          "name": "amount",
          "type": "uint256"
        }
      ],
      "name": "OrderFulfilled",
      "type": "event"
    },
    {
      "anonymous": false,
      "inputs": [
        {
          "indexed": true,
          "internalType": "uint256",
          "name": "orderId",
          "type": "uint256"
        },
        {
          "indexed": true,
          "internalType": "address",
          "name": "marketMakerPool",
          "type": "address"
        },
        {
          "indexed": false,
          "internalType": "uint256",
          "name": "amount",
          "type": "uint256"
        },
        {
          "indexed": false,
          "internalType": "uint256",
          "name": "price",
          "type": "uint256"
        }
      ],
      "name": "OrderFulfilledByMarketMaker",
      "type": "event"
    },
    {
      "anonymous": false,
      "inputs": [
        {
          "indexed": true,
          "internalType": "uint256",
          "name": "orderId",
          "type": "uint256"
        },
        {
          "indexed": true,
          "internalType": "uint256",
          "name": "matchedOrderId",
          "type": "uint256"
        },
        {
          "indexed": false,
          "internalType": "uint256",
          "name": "amount",
          "type": "uint256"
        },
        {
          "indexed": false,
          "internalType": "uint256",
          "name": "price",
          "type": "uint256"
        }
      ],
      "name": "OrderFulfilledByMatching",
      "type": "event"
    },
    {
      "anonymous": false,
      "inputs": [
        {
          "indexed": true,
          "internalType": "uint256",
          "name": "orderId",
          "type": "uint256"
        },
        {
          "indexed": false,
          "internalType": "uint256",
          "name": "amount",
          "type": "uint256"
        },
        {
          "indexed": false,
          "internalType": "uint256",
          "name": "remaining",
          "type": "uint256"
        }
      ],
      "name": "OrderPartiallyFulfilled",
      "type": "event"
    },
    {
      "anonymous": false,
      "inputs": [
        {
          "indexed": false,
          "internalType": "uint256",
          "name": "minSize",
          "type": "uint256"
        },
        {
          "indexed": false,
          "internalType": "uint256",
          "name": "maxSize",
          "type": "uint256"
        }
      ],
      "name": "OrderSizeLimitsUpdated",
      "type": "event"
    },
    {
      "anonymous": false,
      "inputs": [
        {
          "indexed": true,
          "internalType": "address",
          "name": "previousOwner",
          "type": "address"
        },
        {
          "indexed": true,
          "internalType": "address",
          "name": "newOwner",
          "type": "address"
        }
      ],
      "name": "OwnershipTransferred",
      "type": "event"
    },
    {
      "anonymous": false,
      "inputs": [
        {
          "indexed": false,
          "internalType": "uint256",
          "name": "newInterval",
          "type": "uint256"
        }
      ],
      "name": "RateLimitUpdated",
      "type": "event"
    },
    {
      "stateMutability": "payable",
      "type": "fallback"
    },
    {
      "inputs": [],
      "name": "DIVISOR",
      "outputs": [
        {
          "internalType": "uint256",
          "name": "",
          "type": "uint256"
        }
      ],
      "stateMutability": "view",
      "type": "function"
    },
    {
      "inputs": [],
      "name": "MAX_FEE_PERCENTAGE",
      "outputs": [
        {
          "internalType": "uint256",
          "name": "",
          "type": "uint256"
        }
      ],
      "stateMutability": "view",
      "type": "function"
    },
    {
      "inputs": [
        {
          "internalType": "uint256",
          "name": "orderId",
          "type": "uint256"
        }
      ],
      "name": "cancelOrder",
      "outputs": [],
      "stateMutability": "nonpayable",
      "type": "function"
    },
    {
      "inputs": [
        {
          "internalType": "uint256",
          "name": "orderId",
          "type": "uint256"
        }
      ],
      "name": "cleanupExpiredOrder",
      "outputs": [],
      "stateMutability": "nonpayable",
      "type": "function"
    },
    {
      "inputs": [
        {
          "internalType": "enum GradientOrderbook.OrderType",
          "name": "orderType",
          "type": "uint8"
        },
        {
          "internalType": "enum GradientOrderbook.OrderExecutionType",
          "name": "executionType",
          "type": "uint8"
        },
        {
          "internalType": "address",
          "name": "token",
          "type": "address"
        },
        {
          "internalType": "uint256",
          "name": "amount",
          "type": "uint256"
        },
        {
          "internalType": "uint256",
          "name": "price",
          "type": "uint256"
        },
        {
          "internalType": "uint256",
          "name": "ttl",
          "type": "uint256"
        }
      ],
      "name": "createOrder",
      "outputs": [
        {
          "internalType": "uint256",
          "name": "",
          "type": "uint256"
        }
      ],
      "stateMutability": "payable",
      "type": "function"
    },
    {
      "inputs": [
        {
          "internalType": "address",
          "name": "token",
          "type": "address"
        },
        {
          "internalType": "address",
          "name": "to",
          "type": "address"
        },
        {
          "internalType": "uint256",
          "name": "amount",
          "type": "uint256"
        }
      ],
      "name": "emergencyWithdraw",
      "outputs": [],
      "stateMutability": "nonpayable",
      "type": "function"
    },
    {
      "inputs": [],
      "name": "feePercentage",
      "outputs": [
        {
          "internalType": "uint256",
          "name": "",
          "type": "uint256"
        }
      ],
      "stateMutability": "view",
      "type": "function"
    },
    {
      "inputs": [
        {
          "components": [
            {
              "internalType": "uint256",
              "name": "buyOrderId",
              "type": "uint256"
            },
            {
              "internalType": "uint256",
              "name": "sellOrderId",
              "type": "uint256"
            },
            {
              "internalType": "uint256",
              "name": "fillAmount",
              "type": "uint256"
            }
          ],
          "internalType": "struct GradientOrderbook.OrderMatch[]",
          "name": "matches",
          "type": "tuple[]"
        }
      ],
      "name": "fulfillLimitOrders",
      "outputs": [],
      "stateMutability": "nonpayable",
      "type": "function"
    },
    {
      "inputs": [
        {
          "components": [
            {
              "internalType": "uint256",
              "name": "buyOrderId",
              "type": "uint256"
            },
            {
              "internalType": "uint256",
              "name": "sellOrderId",
              "type": "uint256"
            },
            {
              "internalType": "uint256",
              "name": "fillAmount",
              "type": "uint256"
            }
          ],
          "internalType": "struct GradientOrderbook.OrderMatch[]",
          "name": "matches",
          "type": "tuple[]"
        },
        {
          "internalType": "uint256[]",
          "name": "executionPrices",
          "type": "uint256[]"
        }
      ],
      "name": "fulfillMarketOrders",
      "outputs": [],
      "stateMutability": "nonpayable",
      "type": "function"
    },
    {
      "inputs": [
        {
          "internalType": "uint256[]",
          "name": "orderIds",
          "type": "uint256[]"
        },
        {
          "internalType": "uint256[]",
          "name": "fillAmounts",
          "type": "uint256[]"
        }
      ],
      "name": "fulfillOrdersWithMarketMaker",
      "outputs": [],
      "stateMutability": "nonpayable",
      "type": "function"
    },
    {
      "inputs": [
        {
          "internalType": "uint256",
          "name": "orderId",
          "type": "uint256"
        },
        {
          "internalType": "uint256",
          "name": "fillAmount",
          "type": "uint256"
        },
        {
          "internalType": "uint256",
          "name": "amountOutMin",
          "type": "uint256"
        },
        {
          "internalType": "address",
          "name": "dexRouter",
          "type": "address"
        }
      ],
      "name": "fulfillOwnOrderWithAMM",
      "outputs": [],
      "stateMutability": "nonpayable",
      "type": "function"
    },
    {
      "inputs": [
        {
          "internalType": "address",
          "name": "token",
          "type": "address"
        },
        {
          "internalType": "enum GradientOrderbook.OrderType",
          "name": "orderType",
          "type": "uint8"
        },
        {
          "internalType": "enum GradientOrderbook.OrderExecutionType",
          "name": "executionType",
          "type": "uint8"
        }
      ],
      "name": "getActiveOrders",
      "outputs": [
        {
          "internalType": "uint256[]",
          "name": "",
          "type": "uint256[]"
        }
      ],
      "stateMutability": "view",
      "type": "function"
    },
    {
      "inputs": [
        {
          "internalType": "bytes32",
          "name": "queueKey",
          "type": "bytes32"
        }
      ],
      "name": "getActiveOrdersCount",
      "outputs": [
        {
          "internalType": "uint256",
          "name": "",
          "type": "uint256"
        }
      ],
      "stateMutability": "view",
      "type": "function"
    },
    {
      "inputs": [
        {
          "internalType": "address",
          "name": "token",
          "type": "address"
        },
        {
          "internalType": "enum GradientOrderbook.OrderType",
          "name": "orderType",
          "type": "uint8"
        },
        {
          "internalType": "enum GradientOrderbook.OrderExecutionType",
          "name": "executionType",
          "type": "uint8"
        },
        {
          "internalType": "uint256",
          "name": "startIndex",
          "type": "uint256"
        },
        {
          "internalType": "uint256",
          "name": "count",
          "type": "uint256"
        }
      ],
      "name": "getActiveOrdersPaged",
      "outputs": [
        {
          "internalType": "uint256[]",
          "name": "",
          "type": "uint256[]"
        }
      ],
      "stateMutability": "view",
      "type": "function"
    },
    {
      "inputs": [
        {
          "internalType": "uint256",
          "name": "orderId",
          "type": "uint256"
        }
      ],
      "name": "getOrder",
      "outputs": [
        {
          "components": [
            {
              "internalType": "uint256",
              "name": "orderId",
              "type": "uint256"
            },
            {
              "internalType": "address",
              "name": "owner",
              "type": "address"
            },
            {
              "internalType": "enum GradientOrderbook.OrderType",
              "name": "orderType",
              "type": "uint8"
            },
            {
              "internalType": "enum GradientOrderbook.OrderExecutionType",
              "name": "executionType",
              "type": "uint8"
            },
            {
              "internalType": "address",
              "name": "token",
              "type": "address"
            },
            {
              "internalType": "uint256",
              "name": "amount",
              "type": "uint256"
            },
            {
              "internalType": "uint256",
              "name": "price",
              "type": "uint256"
            },
            {
              "internalType": "uint256",
              "name": "filledAmount",
              "type": "uint256"
            },
            {
              "internalType": "uint256",
              "name": "expirationTime",
              "type": "uint256"
            },
            {
              "internalType": "enum GradientOrderbook.OrderStatus",
              "name": "status",
              "type": "uint8"
            }
          ],
          "internalType": "struct GradientOrderbook.Order",
          "name": "",
          "type": "tuple"
        }
      ],
      "stateMutability": "view",
      "type": "function"
    },
    {
      "inputs": [
        {
          "internalType": "uint256",
          "name": "orderId",
          "type": "uint256"
        }
      ],
      "name": "getRemainingAmount",
      "outputs": [
        {
          "internalType": "uint256",
          "name": "",
          "type": "uint256"
        }
      ],
      "stateMutability": "view",
      "type": "function"
    },
    {
      "inputs": [],
      "name": "gradientRegistry",
      "outputs": [
        {
          "internalType": "contract IGradientRegistry",
          "name": "",
          "type": "address"
        }
      ],
      "stateMutability": "view",
      "type": "function"
    },
    {
      "inputs": [
        {
          "internalType": "uint256",
          "name": "orderId",
          "type": "uint256"
        }
      ],
      "name": "isOrderExpired",
      "outputs": [
        {
          "internalType": "bool",
          "name": "",
          "type": "bool"
        }
      ],
      "stateMutability": "view",
      "type": "function"
    },
    {
      "inputs": [],
      "name": "maxOrderSize",
      "outputs": [
        {
          "internalType": "uint256",
          "name": "",
          "type": "uint256"
        }
      ],
      "stateMutability": "view",
      "type": "function"
    },
    {
      "inputs": [],
      "name": "maxOrderTtl",
      "outputs": [
        {
          "internalType": "uint256",
          "name": "",
          "type": "uint256"
        }
      ],
      "stateMutability": "view",
      "type": "function"
    },
    {
      "inputs": [],
      "name": "minOrderSize",
      "outputs": [
        {
          "internalType": "uint256",
          "name": "",
          "type": "uint256"
        }
      ],
      "stateMutability": "view",
      "type": "function"
    },
    {
      "inputs": [],
      "name": "mmFeeDistributionPercentage",
      "outputs": [
        {
          "internalType": "uint256",
          "name": "",
          "type": "uint256"
        }
      ],
      "stateMutability": "view",
      "type": "function"
    },
    {
      "inputs": [
        {
          "internalType": "uint256",
          "name": "",
          "type": "uint256"
        }
      ],
      "name": "orders",
      "outputs": [
        {
          "internalType": "uint256",
          "name": "orderId",
          "type": "uint256"
        },
        {
          "internalType": "address",
          "name": "owner",
          "type": "address"
        },
        {
          "internalType": "enum GradientOrderbook.OrderType",
          "name": "orderType",
          "type": "uint8"
        },
        {
          "internalType": "enum GradientOrderbook.OrderExecutionType",
          "name": "executionType",
          "type": "uint8"
        },
        {
          "internalType": "address",
          "name": "token",
          "type": "address"
        },
        {
          "internalType": "uint256",
          "name": "amount",
          "type": "uint256"
        },
        {
          "internalType": "uint256",
          "name": "price",
          "type": "uint256"
        },
        {
          "internalType": "uint256",
          "name": "filledAmount",
          "type": "uint256"
        },
        {
          "internalType": "uint256",
          "name": "expirationTime",
          "type": "uint256"
        },
        {
          "internalType": "enum GradientOrderbook.OrderStatus",
          "name": "status",
          "type": "uint8"
        }
      ],
      "stateMutability": "view",
      "type": "function"
    },
    {
      "inputs": [],
      "name": "owner",
      "outputs": [
        {
          "internalType": "address",
          "name": "",
          "type": "address"
        }
      ],
      "stateMutability": "view",
      "type": "function"
    },
    {
      "inputs": [],
      "name": "renounceOwnership",
      "outputs": [],
      "stateMutability": "nonpayable",
      "type": "function"
    },
    {
      "inputs": [
        {
          "internalType": "uint256",
          "name": "newFeePercentage",
          "type": "uint256"
        }
      ],
      "name": "setFeePercentage",
      "outputs": [],
      "stateMutability": "nonpayable",
      "type": "function"
    },
    {
      "inputs": [
        {
          "internalType": "uint256",
          "name": "_maxOrderTtl",
          "type": "uint256"
        }
      ],
      "name": "setMaxOrderTtl",
      "outputs": [],
      "stateMutability": "nonpayable",
      "type": "function"
    },
    {
      "inputs": [
        {
          "internalType": "uint256",
          "name": "_minOrderSize",
          "type": "uint256"
        },
        {
          "internalType": "uint256",
          "name": "_maxOrderSize",
          "type": "uint256"
        }
      ],
      "name": "setOrderSizeLimits",
      "outputs": [],
      "stateMutability": "nonpayable",
      "type": "function"
    },
    {
      "inputs": [],
      "name": "totalFeesCollected",
      "outputs": [
        {
          "internalType": "uint256",
          "name": "",
          "type": "uint256"
        }
      ],
      "stateMutability": "view",
      "type": "function"
    },
    {
      "inputs": [
        {
          "internalType": "bytes32",
          "name": "",
          "type": "bytes32"
        }
      ],
      "name": "totalOrderCount",
      "outputs": [
        {
          "internalType": "uint256",
          "name": "",
          "type": "uint256"
        }
      ],
      "stateMutability": "view",
      "type": "function"
    },
    {
      "inputs": [
        {
          "internalType": "address",
          "name": "newOwner",
          "type": "address"
        }
      ],
      "name": "transferOwnership",
      "outputs": [],
      "stateMutability": "nonpayable",
      "type": "function"
    },
    {
      "inputs": [
        {
          "internalType": "uint256",
          "name": "newPercentage",
          "type": "uint256"
        }
      ],
      "name": "updateMMFeeDistributionPercentage",
      "outputs": [],
      "stateMutability": "nonpayable",
      "type": "function"
    },
    {
      "inputs": [
        {
          "internalType": "address payable",
          "name": "recipient",
          "type": "address"
        }
      ],
      "name": "withdrawFees",
      "outputs": [],
      "stateMutability": "nonpayable",
      "type": "function"
    },
    {
      "stateMutability": "payable",
      "type": "receive"
    }
  ],
  "bytecode": "0x60a0604052611b58600c5534801561001657600080fd5b50604051614a71380380614a71833981016040819052610035916100ea565b338061005b57604051631e4fbdf760e01b81526000600482015260240160405180910390fd5b6100648161009a565b50600180556001600160a01b03166080526032600355620f4240600955683635c9adc5dea00000600a5562278d00600b5561011a565b600080546001600160a01b038381166001600160a01b0319831681178455604051919092169283917f8be0079c531659141344cd1fd0a4f28419497f9722a3daafe3b4186f6b6457e09190a35050565b6000602082840312156100fc57600080fd5b81516001600160a01b038116811461011357600080fd5b9392505050565b608051614920610151600039600081816104280152818161106a0152818161123901528181611ae90152612ab801526149206000f3fe6080604052600436106101da5760003560e01c8063715018a611610101578063a85c38ef1161009a578063d09ef2411161006c578063d09ef241146105e6578063e63ea40814610613578063f1a82c7e14610633578063f2fde38b14610649578063f6252ff21461066957005b8063a85c38ef146104ec578063ae06c1b714610586578063bfde1d7c146105a6578063c480823f146105c657005b80638f9057df116100d35780638f9057df14610480578063983d1a14146104a0578063a001ecdd146104c0578063a674537f146104d657005b8063715018a6146103e1578063727d2114146103f6578063830562bc146104165780638da5cb5b1461046257005b80633410fe6e11610173578063568c820611610145578063568c82061461036557806359c693131461038557806360c6d8ae146103b557806366961d44146103cb57005b80633410fe6e146102f9578063457a89241461030f578063514fcac71461032f578063558e44d31461034f57005b8063164e68de116101ac578063164e68de146102765780631f32eb771461029657806321b30746146102c35780632f1131fb146102e357005b80630d34219c146101e357806310e1c1661461022357806311e807a41461024357806313b64e241461025657005b366101e157005b005b3480156101ef57600080fd5b506102106101fe366004613f40565b60066020526000908152604090205481565b6040519081526020015b60405180910390f35b34801561022f57600080fd5b5061021061023e366004613f40565b610689565b610210610251366004613f7b565b61071b565b34801561026257600080fd5b506101e1610271366004613fe0565b610d52565b34801561028257600080fd5b506101e1610291366004614002565b610da2565b3480156102a257600080fd5b506102b66102b1366004614026565b610f1f565b60405161021a9190614071565b3480156102cf57600080fd5b506101e16102de366004614100565b61104d565b3480156102ef57600080fd5b50610210600c5481565b34801561030557600080fd5b5061021061271081565b34801561031b57600080fd5b506101e161032a3660046141b6565b61121c565b34801561033b57600080fd5b506101e161034a366004613f40565b6113bb565b34801561035b57600080fd5b506102106101f481565b34801561037157600080fd5b506101e1610380366004613f40565b6116ff565b34801561039157600080fd5b506103a56103a0366004613f40565b611a23565b604051901515815260200161021a565b3480156103c157600080fd5b5061021060045481565b3480156103d757600080fd5b50610210600b5481565b3480156103ed57600080fd5b506101e1611a75565b34801561040257600080fd5b506101e1610411366004613f40565b611a89565b34801561042257600080fd5b5061044a7f000000000000000000000000000000000000000000000000000000000000000081565b6040516001600160a01b03909116815260200161021a565b34801561046e57600080fd5b506000546001600160a01b031661044a565b34801561048c57600080fd5b506101e161049b3660046141ef565b611acc565b3480156104ac57600080fd5b506101e16104bb366004613f40565b611c16565b3480156104cc57600080fd5b5061021060035481565b3480156104e257600080fd5b5061021060095481565b3480156104f857600080fd5b50610570610507366004613f40565b60056020819052600091825260409091208054600182015460028301546003840154600485015495850154600686015460079096015494966001600160a01b038086169760ff600160a01b8804811698600160a81b90980481169796909216959293929091168a565b60405161021a9a99989796959493929190614274565b34801561059257600080fd5b506101e16105a1366004613f40565b611ca4565b3480156105b257600080fd5b506102b66105c13660046142ed565b611d3c565b3480156105d257600080fd5b506101e16105e1366004614348565b611ef2565b3480156105f257600080fd5b50610606610601366004613f40565b61258f565b60405161021a9190614389565b34801561061f57600080fd5b506101e161062e36600461442d565b6126e9565b34801561063f57600080fd5b50610210600a5481565b34801561065557600080fd5b506101e1610664366004614002565b61284b565b34801561067557600080fd5b50610210610684366004613f40565b612886565b600080805b6000848152600660205260409020548110156107145760008481526007602090815260408083208484529091528120549060008281526005602052604090206007015460ff1660038111156106e5576106e5614231565b1480156106f857506106f681611a23565b155b1561070b578261070781614484565b9350505b5060010161068e565b5092915050565b6000846001600160a01b0381166107695760405162461bcd60e51b815260206004820152600d60248201526c24b73b30b634b2103a37b5b2b760991b60448201526064015b60405180910390fd5b6000816001600160a01b03163b116107b45760405162461bcd60e51b815260206004820152600e60248201526d139bdd08184818dbdb9d1c9858dd60921b6044820152606401610760565b6107bc6128eb565b6000851161080c5760405162461bcd60e51b815260206004820152601d60248201527f416d6f756e74206d7573742062652067726561746572207468616e20300000006044820152606401610760565b600084116108525760405162461bcd60e51b8152602060048201526013602482015272496e76616c69642070726963652072616e676560681b6044820152606401610760565b600083116108a25760405162461bcd60e51b815260206004820152601a60248201527f54544c206d7573742062652067726561746572207468616e20300000000000006044820152606401610760565b600b548311156108e35760405162461bcd60e51b815260206004820152600c60248201526b54544c20746f6f206c6f6e6760a01b6044820152606401610760565b6000670de0b6b3a76400006108f8868861449d565b61090291906144ba565b9050600061271060035483610917919061449d565b61092191906144ba565b90506009548210156109675760405162461bcd60e51b815260206004820152600f60248201526e13dc99195c881d1bdbc81cdb585b1b608a1b6044820152606401610760565b600a548211156109ab5760405162461bcd60e51b815260206004820152600f60248201526e4f7264657220746f6f206c6172676560881b6044820152606401610760565b60008a60018111156109bf576109bf614231565b03610a32576109ce81836144dc565b341015610a155760405162461bcd60e51b8152602060048201526015602482015274125b9cdd59999a58da595b9d08115512081cd95b9d605a1b6044820152606401610760565b8060046000828254610a2791906144dc565b90915550610a479050565b610a476001600160a01b03891633308a612915565b600280549081906000610a5983614484565b9091555050604080516101408101825282815233602082015260009181018d6001811115610a8957610a89614231565b81526020018c6001811115610aa057610aa0614231565b81526020018b6001600160a01b031681526020018a8152602001898152602001600081526020018842610ad391906144dc565b8152602001600090526000838152600560209081526040918290208351815590830151600180830180546001600160a01b039093166001600160a01b0319841681178255948601519596508695939490926001600160a81b0319161790600160a01b908490811115610b4757610b47614231565b021790555060608201518160010160156101000a81548160ff02191690836001811115610b7657610b76614231565b021790555060808201518160020160006101000a8154816001600160a01b0302191690836001600160a01b0316021790555060a0820151816003015560c0820151816004015560e0820151816005015561010082015181600601556101208201518160070160006101000a81548160ff02191690836003811115610bfc57610bfc614231565b0217905550905050610c10828b8e8e61297c565b336001600160a01b0316827fa2fb0dce7ae79c4288991eaef209e312e4008fdf46d4842d51f55426ccc903938e8e8e8e8e8861010001518c604051610c5b97969594939291906144ef565b60405180910390a360008c6001811115610c7757610c77614231565b148015610c8c5750610c8983856144dc565b34115b15610d39576000610c9d84866144dc565b610ca79034614541565b604051909150600090339083908381818185875af1925050503d8060008114610cec576040519150601f19603f3d011682016040523d82523d6000602084013e610cf1565b606091505b5050905080610d365760405162461bcd60e51b8152602060048201526011602482015270115512081c995d1d5c9b8819985a5b1959607a1b6044820152606401610760565b50505b5093505050610d4760018055565b509695505050505050565b610d5a6129e6565b6009829055600a81905560408051838152602081018390527f34a3b94861a601870265c6c4d74c28d1a09f6c803ce42b95e749f46127c8f17091015b60405180910390a15050565b610daa6129e6565b6001600160a01b038116610df45760405162461bcd60e51b8152602060048201526011602482015270125b9d985b1a59081c9958da5c1a595b9d607a1b6044820152606401610760565b60045480610e3a5760405162461bcd60e51b81526020600482015260136024820152724e6f206665657320746f20776974686472617760681b6044820152606401610760565b600060048190556040516001600160a01b0384169083908381818185875af1925050503d8060008114610e89576040519150601f19603f3d011682016040523d82523d6000602084013e610e8e565b606091505b5050905080610ed75760405162461bcd60e51b8152602060048201526015602482015274119959481dda5d1a191c985dd85b0819985a5b1959605a1b6044820152606401610760565b826001600160a01b03167fc0819c13be868895eb93e40eaceb96de976442fa1d404e5c55f14bb65a8c489a83604051610f1291815260200190565b60405180910390a2505050565b60606000610f2e858585612a13565b90506000610f3b82610689565b90506000808267ffffffffffffffff811115610f5957610f59614554565b604051908082528060200260200182016040528015610f82578160200160208202803683370190505b50905060005b60008581526006602052604090205481108015610fa457508383105b156110415760008581526007602090815260408083208484529091528120549060008281526005602052604090206007015460ff166003811115610fea57610fea614231565b148015610ffd5750610ffb81611a23565b155b1561102e57808385815181106110155761101561456a565b60209081029190910101528361102a81614484565b9450505b508061103981614484565b915050610f88565b50979650505050505050565b6110556128eb565b6040516314c530d560e31b81523360048201527f00000000000000000000000000000000000000000000000000000000000000006001600160a01b03169063a62986a890602401602060405180830381865afa1580156110b9573d6000803e3d6000fd5b505050506040513d601f19601f820116820180604052508101906110dd9190614580565b6110f95760405162461bcd60e51b8152600401610760906145a2565b8261113d5760405162461bcd60e51b8152602060048201526014602482015273139bc81bdc99195c9cc81d1bc8199d5b199a5b1b60621b6044820152606401610760565b8281146111875760405162461bcd60e51b815260206004820152601860248201527709ad2e6dac2e8c6d0cac840c2e4e4c2f2e640d8cadccee8d60431b6044820152606401610760565b60005b8381101561120c5760008383838181106111a6576111a661456a565b90506020020135116111ca5760405162461bcd60e51b8152600401610760906145d9565b6112048585838181106111df576111df61456a565b905060200201358484848181106111f8576111f861456a565b90506020020135612a49565b60010161118a565b5061121660018055565b50505050565b6112246128eb565b6040516314c530d560e31b81523360048201527f00000000000000000000000000000000000000000000000000000000000000006001600160a01b03169063a62986a890602401602060405180830381865afa158015611288573d6000803e3d6000fd5b505050506040513d601f19601f820116820180604052508101906112ac9190614580565b6112c85760405162461bcd60e51b8152600401610760906145a2565b826113155760405162461bcd60e51b815260206004820152601b60248201527f4e6f206f72646572206d61746368657320746f2066756c66696c6c00000000006044820152606401610760565b82811461135f5760405162461bcd60e51b815260206004820152601860248201527709ad2e6dac2e8c6d0cac840c2e4e4c2f2e640d8cadccee8d60431b6044820152606401610760565b60005b8381101561120c576113b385858381811061137f5761137f61456a565b905060600201803603810190611395919061461b565b8484848181106113a7576113a761456a565b9050602002013561306b565b600101611362565b6113c36128eb565b60008181526005602052604090206001015481906001600160a01b03166113fc5760405162461bcd60e51b815260040161076090614687565b60008281526005602052604090206001015482906001600160a01b031633146114595760405162461bcd60e51b815260206004820152600f60248201526e2737ba1037b93232b91037bbb732b960891b6044820152606401610760565b600083815260056020526040812090600782015460ff16600381111561148157611481614231565b1461149e5760405162461bcd60e51b8152600401610760906146b5565b6114a784611a23565b156114c45760405162461bcd60e51b8152600401610760906146df565b600781018054600260ff19909116179055600180820154600091600160a01b90910460ff16908111156114f9576114f9614231565b03611684576000816005015482600301546115149190614541565b9050801561167e576000670de0b6b3a7640000836004015483611537919061449d565b61154191906144ba565b9050600061271060035483611556919061449d565b61156091906144ba565b9050600061156e82846144dc565b9050600060045483116115815782611585565b6004545b905080600460008282546115999190614541565b9091555050828110156115b3576115b081856144dc565b91505b814710156116035760405162461bcd60e51b815260206004820152601c60248201527f496e73756666696369656e742045544820696e20636f6e7472616374000000006044820152606401610760565b60018601546040516000916001600160a01b03169084908381818185875af1925050503d8060008114611652576040519150601f19603f3d011682016040523d82523d6000602084013e611657565b606091505b50509050806116785760405162461bcd60e51b815260040161076090614706565b50505050505b506116c5565b60008160050154826003015461169a9190614541565b905080156116c357600182015460028301546116c3916001600160a01b039182169116836132e2565b505b60405184907f61b9399f2f0f32ca39ce8d7be32caed5ec22fe07a6daba3a467ed479ec60658290600090a25050506116fc60018055565b50565b6117076128eb565b60008181526005602052604090206001015481906001600160a01b03166117405760405162461bcd60e51b815260040161076090614687565b600082815260056020526040812090600782015460ff16600381111561176857611768614231565b146117855760405162461bcd60e51b8152600401610760906146b5565b61178e83611a23565b6117ce5760405162461bcd60e51b815260206004820152601160248201527013dc99195c881b9bdd08195e1c1a5c9959607a1b6044820152606401610760565b60078101805460ff1916600317905560018082015460ff600160a01b90910416818111156117fe576117fe614231565b03611844576000816005015482600301546118199190614541565b905080156118425760018201546002830154611842916001600160a01b039182169116836132e2565b505b6000600182810154600160a01b900460ff169081111561186657611866614231565b036119ed576000816005015482600301546118819190614541565b905080156119eb576000670de0b6b3a76400008360040154836118a4919061449d565b6118ae91906144ba565b90506000612710600354836118c3919061449d565b6118cd91906144ba565b905060006118db82846144dc565b9050600060045483116118ee57826118f2565b6004545b905080600460008282546119069190614541565b9091555050828110156119205761191d81856144dc565b91505b814710156119705760405162461bcd60e51b815260206004820152601c60248201527f496e73756666696369656e742045544820696e20636f6e7472616374000000006044820152606401610760565b60018601546040516000916001600160a01b03169084908381818185875af1925050503d80600081146119bf576040519150601f19603f3d011682016040523d82523d6000602084013e6119c4565b606091505b50509050806119e55760405162461bcd60e51b815260040161076090614706565b50505050505b505b60405183907f1ad308dc7017610c82d08084545f7176df5e2f08f078c3c8f8926cd7e555551490600090a250506116fc60018055565b60008181526005602052604081206001015482906001600160a01b0316611a5c5760405162461bcd60e51b815260040161076090614687565b5050600090815260056020526040902060060154421190565b611a7d6129e6565b611a876000613313565b565b611a916129e6565b600b8190556040518181527f5829309fa85e85a75b744b2b1ae6b2913b3d2a9c94df75a5b61de31f962256be9060200160405180910390a150565b611ad46128eb565b6040516314c530d560e31b81523360048201527f00000000000000000000000000000000000000000000000000000000000000006001600160a01b03169063a62986a890602401602060405180830381865afa158015611b38573d6000803e3d6000fd5b505050506040513d601f19601f82011682018060405250810190611b5c9190614580565b611b785760405162461bcd60e51b8152600401610760906145a2565b80611bc55760405162461bcd60e51b815260206004820152601b60248201527f4e6f206f72646572206d61746368657320746f2066756c66696c6c00000000006044820152606401610760565b60005b81811015611c0857611c00838383818110611be557611be561456a565b905060600201803603810190611bfb919061461b565b613363565b600101611bc8565b50611c1260018055565b5050565b611c1e6129e6565b612710811115611c665760405162461bcd60e51b81526020600482015260136024820152720a0cae4c6cadce8c2ceca40e8dede40d0d2ced606b1b6044820152606401610760565b600c80549082905560408051828152602081018490527f0a4a47a3e5193a63e95c6346171009c8e7099d3795ac25df2b9b672be06cc6ca9101610d96565b611cac6129e6565b6101f4811115611cfe5760405162461bcd60e51b815260206004820152601760248201527f4665652070657263656e7461676520746f6f20686967680000000000000000006044820152606401610760565b600380549082905560408051828152602081018490527fb27c12a91635e11c22bffa7bd8e0a8735da52b94aaefd7f249776c7590ba78949101610d96565b60606000611d4b878787612a13565b6000818152600660205260408120549192508467ffffffffffffffff811115611d7657611d76614554565b604051908082528060200260200182016040528015611d9f578160200160208202803683370190505b5090506000865b8381108015611db457508682105b15611e515760008581526007602090815260408083208484529091528120549060008281526005602052604090206007015460ff166003811115611dfa57611dfa614231565b148015611e0d5750611e0b81611a23565b155b15611e3e5780848481518110611e2557611e2561456a565b602090810291909101015282611e3a81614484565b9350505b5080611e4981614484565b915050611da6565b5060008167ffffffffffffffff811115611e6d57611e6d614554565b604051908082528060200260200182016040528015611e96578160200160208202803683370190505b50905060005b82811015611ee357838181518110611eb657611eb661456a565b6020026020010151828281518110611ed057611ed061456a565b6020908102919091010152600101611e9c565b509a9950505050505050505050565b611efa6128eb565b60008481526005602052604090206001015484906001600160a01b0316611f335760405162461bcd60e51b815260040161076090614687565b60008581526005602052604090206001015485906001600160a01b03163314611f905760405162461bcd60e51b815260206004820152600f60248201526e2737ba1037b93232b91037bbb732b960891b6044820152606401610760565b60008511611fb05760405162461bcd60e51b8152600401610760906145d9565b600086815260056020526040812090600782015460ff166003811115611fd857611fd8614231565b14611ff55760405162461bcd60e51b8152600401610760906146b5565b611ffe87611a23565b1561201b5760405162461bcd60e51b8152600401610760906146df565b6000816005015482600301546120319190614541565b905060008188116120425787612044565b815b9050600081116120665760405162461bcd60e51b815260040161076090614731565b6000670de0b6b3a7640000846004015483612081919061449d565b61208b91906144ba565b905060006120988261365a565b9050828560050160008282546120ae91906144dc565b90915550506040805160028082526060820183528a9260009291906020830190803683370190505090506000600188810154600160a01b900460ff16908111156120fa576120fa614231565b036121cc57816001600160a01b031663ad5c46486040518163ffffffff1660e01b8152600401602060405180830381865afa15801561213d573d6000803e3d6000fd5b505050506040513d601f19601f82011682018060405250810190612161919061475c565b816000815181106121745761217461456a565b6001600160a01b03928316602091820292909201015260028801548251911690829060019081106121a7576121a761456a565b60200260200101906001600160a01b031690816001600160a01b0316815250506122a6565b600287015481516001600160a01b039091169082906000906121f0576121f061456a565b60200260200101906001600160a01b031690816001600160a01b031681525050816001600160a01b031663ad5c46486040518163ffffffff1660e01b8152600401602060405180830381865afa15801561224e573d6000803e3d6000fd5b505050506040513d601f19601f82011682018060405250810190612272919061475c565b816001815181106122855761228561456a565b60200260200101906001600160a01b031690816001600160a01b0316815250505b6000600188810154600160a01b900460ff16908111156122c8576122c8614231565b0361234d5760018701546001600160a01b038084169163b6f9de959187918f918691166122f74261012c6144dc565b6040518663ffffffff1660e01b815260040161231694939291906147be565b6000604051808303818588803b15801561232f57600080fd5b505af1158015612343573d6000803e3d6000fd5b50505050506124f9565b6001870154600288015461236f916001600160a01b0391821691163088612915565b600287015460405163095ea7b360e01b81526001600160a01b038c81166004830152602482018890529091169063095ea7b3906044016020604051808303816000875af11580156123c4573d6000803e3d6000fd5b505050506040513d601f19601f820116820180604052508101906123e89190614580565b50476001600160a01b03831663791ac947878e85306124094261012c6144dc565b6040518663ffffffff1660e01b81526004016124299594939291906147f3565b600060405180830381600087803b15801561244357600080fd5b505af1158015612457573d6000803e3d6000fd5b504792506000915061246b90508383614541565b905060006124798783614541565b60018c01546040519192506000916001600160a01b039091169083908381818185875af1925050503d80600081146124cd576040519150601f19603f3d011682016040523d82523d6000602084013e6124d2565b606091505b50509050806124f35760405162461bcd60e51b815260040161076090614706565b50505050505b866003015487600501540361253f5760078701805460ff191660011790556040518581528d906000805160206148ab8339815191529060200160405180910390a261257d565b8c6000805160206148cb8339815191528689600501548a600301546125649190614541565b6040805192835260208301919091520160405180910390a25b50505050505050505061121660018055565b612597613ed4565b60008281526005602052604090206001015482906001600160a01b03166125d05760405162461bcd60e51b815260040161076090614687565b600083815260056020908152604091829020825161014081018452815481526001808301546001600160a01b038116948301949094529093919291840191600160a01b900460ff169081111561262857612628614231565b600181111561263957612639614231565b81526020016001820160159054906101000a900460ff16600181111561266157612661614231565b600181111561267257612672614231565b815260028201546001600160a01b0316602082015260038083015460408301526004830154606083015260058301546080830152600683015460a0830152600783015460c09092019160ff16908111156126ce576126ce614231565b60038111156126df576126df614231565b9052509392505050565b6126f16129e6565b6001600160a01b03821661273b5760405162461bcd60e51b8152602060048201526011602482015270125b9d985b1a59081c9958da5c1a595b9d607a1b6044820152606401610760565b6001600160a01b03831661283257478111156127995760405162461bcd60e51b815260206004820152601860248201527f496e73756666696369656e74204554482062616c616e636500000000000000006044820152606401610760565b6000826001600160a01b03168260405160006040518083038185875af1925050503d80600081146127e6576040519150601f19603f3d011682016040523d82523d6000602084013e6127eb565b606091505b50509050806112165760405162461bcd60e51b8152602060048201526013602482015272115512081d1c985b9cd9995c8819985a5b1959606a1b6044820152606401610760565b6128466001600160a01b03841683836132e2565b505050565b6128536129e6565b6001600160a01b03811661287d57604051631e4fbdf760e01b815260006004820152602401610760565b6116fc81613313565b60008181526005602052604081206001015482906001600160a01b03166128bf5760405162461bcd60e51b815260040161076090614687565b60008381526005602081905260409091209081015460038201546128e39190614541565b949350505050565b60026001540361290e57604051633ee5aeb560e01b815260040160405180910390fd5b6002600155565b6040516001600160a01b0384811660248301528381166044830152606482018390526112169186918216906323b872dd906084015b604051602081830303815290604052915060e01b6020820180516001600160e01b038381831617835250505050613698565b6000612989848484612a13565b600081815260066020818152604080842080548b8652600884528286208190558686526007845282862090865283529084208a905584845291905280549293506001929091906129da9084906144dc565b90915550505050505050565b6000546001600160a01b03163314611a875760405163118cdaa760e01b8152336004820152602401610760565b6000838383604051602001612a2a9392919061482f565b6040516020818303038152906040528051906020012090509392505050565b600082815260056020526040812090600782015460ff166003811115612a7157612a71614231565b14612a8e5760405162461bcd60e51b8152600401610760906146b5565b612a9783611a23565b15612ab45760405162461bcd60e51b8152600401610760906146df565b60007f00000000000000000000000000000000000000000000000000000000000000006001600160a01b0316634513443a6040518163ffffffff1660e01b8152600401602060405180830381865afa158015612b14573d6000803e3d6000fd5b505050506040513d601f19601f82011682018060405250810190612b38919061475c565b90506001600160a01b038116612b905760405162461bcd60e51b815260206004820152601960248201527f4d61726b6574206d616b657220706f6f6c206e6f7420736574000000000000006044820152606401610760565b600082600501548360030154612ba69190614541565b90506000818511612bb75784612bb9565b815b905060008111612bdb5760405162461bcd60e51b815260040161076090614731565b6000670de0b6b3a7640000856004015483612bf6919061449d565b612c0091906144ba565b90506000612c0d8261365a565b90506000612c1b8284614541565b90506000600188810154600160a01b900460ff1690811115612c3f57612c3f614231565b03612d3c576002870154604051631ce0df5b60e31b81526001600160a01b039182166004820152602481018690529087169063e706fad890604401600060405180830381600087803b158015612c9457600080fd5b505af1158015612ca8573d6000803e3d6000fd5b50505060018801546002890154612ccd92506001600160a01b039081169116866132e2565b6002870154604051638a57fddd60e01b81526001600160a01b0391821660048201526024810183905290871690638a57fddd9083906044016000604051808303818588803b158015612d1e57600080fd5b505af1158015612d32573d6000803e3d6000fd5b5050505050612e83565b6002870154604051637e7c7a9560e01b81526001600160a01b0391821660048201526024810183905290871690637e7c7a9590604401600060405180830381600087803b158015612d8c57600080fd5b505af1158015612da0573d6000803e3d6000fd5b5050505060018701546040516000916001600160a01b03169083908381818185875af1925050503d8060008114612df3576040519150601f19603f3d011682016040523d82523d6000602084013e612df8565b606091505b5050905080612e195760405162461bcd60e51b815260040161076090614873565b600288015460405163adabfa0560e01b81526001600160a01b039182166004820152602481018790529088169063adabfa0590604401600060405180830381600087803b158015612e6957600080fd5b505af1158015612e7d573d6000803e3d6000fd5b50505050505b6000612710600c5484612e96919061449d565b612ea091906144ba565b90508060046000828254612eb49190614541565b90915550508015612f71576002880154604051632bb7a23960e11b81526001600160a01b0391821660048201529088169063576f44729083906024016000604051808303818588803b158015612f0957600080fd5b505af1158015612f1d573d6000803e3d6000fd5b50505050600289015460408051848152602081018790526001600160a01b039283169350918a16917fc982e7967fb960b701a067b4e881e50050b566f3b82a9c94e4f8a8c23174edf9910160405180910390a35b84886005016000828254612f8591906144dc565b90915550506003880154600589015403612fd05760078801805460ff191660011790556040518581528a906000805160206148ab8339815191529060200160405180910390a261300e565b896000805160206148cb833981519152868a600501548b60030154612ff59190614541565b6040805192835260208301919091520160405180910390a25b866001600160a01b03168a7fe332d84b9d7b6ed7b61613e3346be661c47cd1bcb330e8cdb0887aa2d3425e6e878b60040154604051613057929190918252602082015260400190565b60405180910390a350505050505050505050565b8151600090815260056020908152604080832091850151835282209091600783015460ff1660038111156130a1576130a1614231565b1480156130c657506000600782015460ff1660038111156130c4576130c4614231565b145b61310a5760405162461bcd60e51b81526020600482015260156024820152744f7264657273206d7573742062652061637469766560581b6044820152606401610760565b835161311590611a23565b15801561312c575061312a8460200151611a23565b155b6131695760405162461bcd60e51b815260206004820152600e60248201526d13dc99195c9cc8195e1c1a5c995960921b6044820152606401610760565b6000600183810154600160a01b900460ff169081111561318b5761318b614231565b1480156131b6575060018082810154600160a01b900460ff16908111156131b4576131b4614231565b145b6131f85760405162461bcd60e51b8152602060048201526013602482015272496e76616c6964206f7264657220747970657360681b6044820152606401610760565b600280820154908301546001600160a01b0390811691161461324d5760405162461bcd60e51b815260206004820152600e60248201526d0a8ded6cadc40dad2e6dac2e8c6d60931b6044820152606401610760565b60018083810154600160a81b900460ff169081111561326e5761326e614231565b1480613298575060018082810154600160a81b900460ff169081111561329657613296614231565b145b6132d85760405162461bcd60e51b81526020600482015260116024820152704e6f74206d61726b6574206f726465727360781b6044820152606401610760565b6112168484613709565b6040516001600160a01b0383811660248301526044820183905261284691859182169063a9059cbb9060640161294a565b600080546001600160a01b038381166001600160a01b0319831681178455604051919092169283917f8be0079c531659141344cd1fd0a4f28419497f9722a3daafe3b4186f6b6457e09190a35050565b8051600090815260056020908152604080832091840151835282209091600783015460ff16600381111561339957613399614231565b1480156133be57506000600782015460ff1660038111156133bc576133bc614231565b145b6134025760405162461bcd60e51b81526020600482015260156024820152744f7264657273206d7573742062652061637469766560581b6044820152606401610760565b825161340d90611a23565b15801561342457506134228360200151611a23565b155b6134705760405162461bcd60e51b815260206004820152601760248201527f31206f6620746865206f726465727320657870697265640000000000000000006044820152606401610760565b6000600183810154600160a01b900460ff169081111561349257613492614231565b1480156134bd575060018082810154600160a01b900460ff16908111156134bb576134bb614231565b145b6134ff5760405162461bcd60e51b8152602060048201526013602482015272496e76616c6964206f7264657220747970657360681b6044820152606401610760565b600280820154908301546001600160a01b039081169116146135545760405162461bcd60e51b815260206004820152600e60248201526d0a8ded6cadc40dad2e6dac2e8c6d60931b6044820152606401610760565b600180820154908301546001600160a01b039182169116036135c45760405162461bcd60e51b815260206004820152602360248201527f53656c6c657220616e642062757965722063616e6e6f74206265207468652073604482015262616d6560e81b6064820152608401610760565b6000600183810154600160a81b900460ff16908111156135e6576135e6614231565b14801561361257506000600182810154600160a81b900460ff169081111561361057613610614231565b145b6136515760405162461bcd60e51b815260206004820152601060248201526f4e6f74206c696d6974206f726465727360801b6044820152606401610760565b61284683613ad4565b6000806127106003548461366e919061449d565b61367891906144ba565b9050806004600082825461368c91906144dc565b90915550909392505050565b600080602060008451602086016000885af1806136bb576040513d6000823e3d81fd5b50506000513d915081156136d35780600114156136e0565b6001600160a01b0384163b155b1561121657604051635274afe760e01b81526001600160a01b0385166004820152602401610760565b8151600090815260056020908152604080832091850151835290912060018083810154600160a81b900460ff169081111561374657613746614231565b036137b15781600401548311156137b15760405162461bcd60e51b815260206004820152602960248201527f457865637574696f6e20707269636520657863656564732062757965722773206044820152686d617820707269636560b81b6064820152608401610760565b60018082810154600160a81b900460ff16908111156137d2576137d2614231565b0361383c57806004015483101561383c5760405162461bcd60e51b815260206004820152602860248201527f457865637574696f6e2070726963652062656c6f772073656c6c65722773206d604482015267696e20707269636560c01b6064820152608401610760565b6000826005015483600301546138529190614541565b905060008260050154836003015461386a9190614541565b60408701519091508281111561387d5750815b818111156138885750805b600081116138a85760405162461bcd60e51b815260040161076090614731565b806000670de0b6b3a76400006138be898461449d565b6138c891906144ba565b905060006138d58261365a565b905060006138e38284614541565b60018901546040519192506000916001600160a01b039091169083908381818185875af1925050503d8060008114613937576040519150601f19603f3d011682016040523d82523d6000602084013e61393c565b606091505b505090508061395d5760405162461bcd60e51b815260040161076090614873565b60018a015460028a015461397e916001600160a01b039182169116876132e2565b858a600501600082825461399291906144dc565b92505081905550858960050160008282546139ad91906144dc565b909155505060038a015460058b0154036139f85760078a01805460ff191660011790558b516040518781526000805160206148ab8339815191529060200160405180910390a2613a3a565b8b600001516000805160206148cb833981519152878c600501548d60030154613a219190614541565b6040805192835260208301919091520160405180910390a25b8860030154896005015403613a845760078901805460ff191660011790556020808d015160405188815290916000805160206148ab833981519152910160405180910390a2613ac6565b8b602001516000805160206148cb833981519152878b600501548c60030154613aad9190614541565b6040805192835260208301919091520160405180910390a25b505050505050505050505050565b80516000908152600560209081526040808320918401518352909120600480820154908301541015613b485760405162461bcd60e51b815260206004820152601f60248201527f5072696365206d69736d6174636820666f72206c696d6974206f7264657273006044820152606401610760565b600082600501548360030154613b5e9190614541565b9050600082600501548360030154613b769190614541565b604086015190915082811115613b895750815b81811115613b945750805b60008111613bb45760405162461bcd60e51b815260040161076090614731565b60048401548190600090670de0b6b3a764000090613bd2908461449d565b613bdc91906144ba565b90506000613be98261365a565b90506000613bf78284614541565b60018901546040519192506000916001600160a01b039091169083908381818185875af1925050503d8060008114613c4b576040519150601f19603f3d011682016040523d82523d6000602084013e613c50565b606091505b5050905080613c715760405162461bcd60e51b815260040161076090614873565b60018a015460028a0154613c92916001600160a01b039182169116876132e2565b858a6005016000828254613ca691906144dc565b9250508190555085896005016000828254613cc191906144dc565b90915550506004808a0154908b01541115613db3576000670de0b6b3a76400008a600401548c60040154613cf59190614541565b613cff908961449d565b613d0991906144ba565b60018c01546040519192506001600160a01b0316908290600081818185875af1925050503d8060008114613d59576040519150601f19603f3d011682016040523d82523d6000602084013e613d5e565b606091505b50508092505081613db15760405162461bcd60e51b815260206004820152601960248201527f45544820736176696e67732072657475726e206661696c6564000000000000006044820152606401610760565b505b89600301548a6005015403613df95760078a01805460ff191660011790558a516040518781526000805160206148ab8339815191529060200160405180910390a2613e3b565b8a600001516000805160206148cb833981519152878c600501548d60030154613e229190614541565b6040805192835260208301919091520160405180910390a25b8860030154896005015403613e855760078901805460ff191660011790556020808c015160405188815290916000805160206148ab833981519152910160405180910390a2613ec7565b8a602001516000805160206148cb833981519152878b600501548c60030154613eae9190614541565b6040805192835260208301919091520160405180910390a25b5050505050505050505050565b6040805161014081018252600080825260208201819052909182019081526020016000815260200160006001600160a01b031681526020016000815260200160008152602001600081526020016000815260200160006003811115613f3b57613f3b614231565b905290565b600060208284031215613f5257600080fd5b5035919050565b600281106116fc57600080fd5b6001600160a01b03811681146116fc57600080fd5b60008060008060008060c08789031215613f9457600080fd5b8635613f9f81613f59565b95506020870135613faf81613f59565b94506040870135613fbf81613f66565b959894975094956060810135955060808101359460a0909101359350915050565b60008060408385031215613ff357600080fd5b50508035926020909101359150565b60006020828403121561401457600080fd5b813561401f81613f66565b9392505050565b60008060006060848603121561403b57600080fd5b833561404681613f66565b9250602084013561405681613f59565b9150604084013561406681613f59565b809150509250925092565b602080825282518282018190526000918401906040840190835b818110156140a957835183526020938401939092019160010161408b565b509095945050505050565b60008083601f8401126140c657600080fd5b50813567ffffffffffffffff8111156140de57600080fd5b6020830191508360208260051b85010111156140f957600080fd5b9250929050565b6000806000806040858703121561411657600080fd5b843567ffffffffffffffff81111561412d57600080fd5b614139878288016140b4565b909550935050602085013567ffffffffffffffff81111561415957600080fd5b614165878288016140b4565b95989497509550505050565b60008083601f84011261418357600080fd5b50813567ffffffffffffffff81111561419b57600080fd5b6020830191508360206060830285010111156140f957600080fd5b600080600080604085870312156141cc57600080fd5b843567ffffffffffffffff8111156141e357600080fd5b61413987828801614171565b6000806020838503121561420257600080fd5b823567ffffffffffffffff81111561421957600080fd5b61422585828601614171565b90969095509350505050565b634e487b7160e01b600052602160045260246000fd5b600281106116fc576116fc614231565b61426081614247565b9052565b6004811061426057614260614231565b8a81526001600160a01b038a16602082015261014081016142948a614247565b8960408301526142a389614247565b88606083015260018060a01b03881660808301528660a08301528560c08301528460e0830152836101008301526142de610120830184614264565b9b9a5050505050505050505050565b600080600080600060a0868803121561430557600080fd5b853561431081613f66565b9450602086013561432081613f59565b9350604086013561433081613f59565b94979396509394606081013594506080013592915050565b6000806000806080858703121561435e57600080fd5b843593506020850135925060408501359150606085013561437e81613f66565b939692955090935050565b815181526020808301516101408301916143ad908401826001600160a01b03169052565b5060408301516143c06040840182614257565b5060608301516143d36060840182614257565b5060808301516143ee60808401826001600160a01b03169052565b5060a083015160a083015260c083015160c083015260e083015160e0830152610100830151610100830152610120830151610714610120840182614264565b60008060006060848603121561444257600080fd5b833561444d81613f66565b9250602084013561445d81613f66565b929592945050506040919091013590565b634e487b7160e01b600052601160045260246000fd5b6000600182016144965761449661446e565b5060010190565b80820281158282048414176144b4576144b461446e565b92915050565b6000826144d757634e487b7160e01b600052601260045260246000fd5b500490565b808201808211156144b4576144b461446e565b60e081016144fc89614247565b88825261450888614247565b60208201979097526001600160a01b039590951660408601526060850193909352608084019190915260a083015260c090910152919050565b818103818111156144b4576144b461446e565b634e487b7160e01b600052604160045260246000fd5b634e487b7160e01b600052603260045260246000fd5b60006020828403121561459257600080fd5b8151801515811461401f57600080fd5b60208082526018908201527f43616c6c6572206973206e6f7420617574686f72697a65640000000000000000604082015260600190565b60208082526022908201527f46696c6c20616d6f756e74206d7573742062652067726561746572207468616e604082015261020360f41b606082015260800190565b6000606082840312801561462e57600080fd5b600090506040516060810181811067ffffffffffffffff8211171561466157634e487b7160e01b83526041600452602483fd5b604090815284358252602080860135908301529384013593810193909352509092915050565b60208082526014908201527313dc99195c88191bd95cc81b9bdd08195e1a5cdd60621b604082015260600190565b60208082526010908201526f4f72646572206e6f742061637469766560801b604082015260600190565b6020808252600d908201526c13dc99195c88195e1c1a5c9959609a1b604082015260600190565b602080825260119082015270115512081c99599d5b990819985a5b1959607a1b604082015260600190565b602080825260119082015270139bc8185b5bdd5b9d081d1bc8199a5b1b607a1b604082015260600190565b60006020828403121561476e57600080fd5b815161401f81613f66565b600081518084526020840193506020830160005b828110156147b45781516001600160a01b031686526020958601959091019060010161478d565b5093949350505050565b8481526080602082015260006147d76080830186614779565b6001600160a01b03949094166040830152506060015292915050565b85815284602082015260a06040820152600061481260a0830186614779565b6001600160a01b0394909416606083015250608001529392505050565b6bffffffffffffffffffffffff198460601b16815261484d83614247565b8260f81b601482015261485f82614247565b60f89190911b601582015260160192915050565b6020808252601d908201527f455448207472616e7366657220746f2073656c6c6572206661696c656400000060408201526060019056feeb3b41be12efa25c0c65725eeff2e2ad0250e2e5de2aa939e18f36aa656e98808f9f7f58643161141dd2b5b862b54ab647f74549d3b06fd4430272bcc411678ca26469706673582212209769167d2316e927c986dfed4f76cd25f7d75cc7801cc9c52596b5ea7e94579c64736f6c634300081a0033",
  "linkReferences": {},
  "deployedLinkReferences": {}
}