{
  "_format": "hh-sol-artifact-1",
  "contractName": "GradientOrderbook",
  "sourceName": "contracts/GradientOrderbook.sol",
  "abi": [
    {
      "inputs": [
        {
          "internalType": "contract IGradientRegistry",
          "name": "_gradientRegistry",
          "type": "address"
        }
      ],
      "stateMutability": "nonpayable",
      "type": "constructor"
    },
    {
      "inputs": [
        {
          "internalType": "address",
          "name": "owner",
          "type": "address"
        }
      ],
      "name": "OwnableInvalidOwner",
      "type": "error"
    },
    {
      "inputs": [
        {
          "internalType": "address",
          "name": "account",
          "type": "address"
        }
      ],
      "name": "OwnableUnauthorizedAccount",
      "type": "error"
    },
    {
      "inputs": [],
      "name": "ReentrancyGuardReentrantCall",
      "type": "error"
    },
    {
      "inputs": [
        {
          "internalType": "address",
          "name": "token",
          "type": "address"
        }
      ],
      "name": "SafeERC20FailedOperation",
      "type": "error"
    },
    {
      "anonymous": false,
      "inputs": [
        {
          "indexed": true,
          "internalType": "address",
          "name": "marketMakerPool",
          "type": "address"
        },
        {
          "indexed": true,
          "internalType": "address",
          "name": "token",
          "type": "address"
        },
        {
          "indexed": false,
          "internalType": "uint256",
          "name": "amount",
          "type": "uint256"
        },
        {
          "indexed": false,
          "internalType": "uint256",
          "name": "totalFee",
          "type": "uint256"
        }
      ],
      "name": "FeeDistributedToPool",
      "type": "event"
    },
    {
      "anonymous": false,
      "inputs": [
        {
          "indexed": false,
          "internalType": "uint256",
          "name": "oldFeePercentage",
          "type": "uint256"
        },
        {
          "indexed": false,
          "internalType": "uint256",
          "name": "newFeePercentage",
          "type": "uint256"
        }
      ],
      "name": "FeePercentageUpdated",
      "type": "event"
    },
    {
      "anonymous": false,
      "inputs": [
        {
          "indexed": true,
          "internalType": "address",
          "name": "recipient",
          "type": "address"
        },
        {
          "indexed": false,
          "internalType": "uint256",
          "name": "amount",
          "type": "uint256"
        }
      ],
      "name": "FeesWithdrawn",
      "type": "event"
    },
    {
      "anonymous": false,
      "inputs": [
        {
          "indexed": false,
          "internalType": "uint256",
          "name": "oldPercentage",
          "type": "uint256"
        },
        {
          "indexed": false,
          "internalType": "uint256",
          "name": "newPercentage",
          "type": "uint256"
        }
      ],
      "name": "MMFeeDistributionPercentageUpdated",
      "type": "event"
    },
    {
      "anonymous": false,
      "inputs": [
        {
          "indexed": false,
          "internalType": "uint256",
          "name": "newMaxTTL",
          "type": "uint256"
        }
      ],
      "name": "MaxTTLUpdated",
      "type": "event"
    },
    {
      "anonymous": false,
      "inputs": [
        {
          "indexed": true,
          "internalType": "uint256",
          "name": "orderId",
          "type": "uint256"
        }
      ],
      "name": "OrderCancelled",
      "type": "event"
    },
    {
      "anonymous": false,
      "inputs": [
        {
          "indexed": true,
          "internalType": "uint256",
          "name": "orderId",
          "type": "uint256"
        },
        {
          "indexed": true,
          "internalType": "address",
          "name": "owner",
          "type": "address"
        },
        {
          "indexed": false,
          "internalType": "enum GradientOrderbook.OrderType",
          "name": "orderType",
          "type": "uint8"
        },
        {
          "indexed": false,
          "internalType": "enum GradientOrderbook.OrderExecutionType",
          "name": "executionType",
          "type": "uint8"
        },
        {
          "indexed": false,
          "internalType": "address",
          "name": "token",
          "type": "address"
        },
        {
          "indexed": false,
          "internalType": "uint256",
          "name": "amount",
          "type": "uint256"
        },
        {
          "indexed": false,
          "internalType": "uint256",
          "name": "price",
          "type": "uint256"
        },
        {
          "indexed": false,
          "internalType": "uint256",
          "name": "expirationTime",
          "type": "uint256"
        },
        {
          "indexed": false,
          "internalType": "uint256",
          "name": "totalCost",
          "type": "uint256"
        }
      ],
      "name": "OrderCreated",
      "type": "event"
    },
    {
      "anonymous": false,
      "inputs": [
        {
          "indexed": true,
          "internalType": "uint256",
          "name": "orderId",
          "type": "uint256"
        }
      ],
      "name": "OrderExpired",
      "type": "event"
    },
    {
      "anonymous": false,
      "inputs": [
        {
          "indexed": true,
          "internalType": "uint256",
          "name": "orderId",
          "type": "uint256"
        },
        {
          "indexed": false,
          "internalType": "uint256",
          "name": "amount",
          "type": "uint256"
        }
      ],
      "name": "OrderFulfilled",
      "type": "event"
    },
    {
      "anonymous": false,
      "inputs": [
        {
          "indexed": true,
          "internalType": "uint256",
          "name": "orderId",
          "type": "uint256"
        },
        {
          "indexed": true,
          "internalType": "address",
          "name": "marketMakerPool",
          "type": "address"
        },
        {
          "indexed": false,
          "internalType": "uint256",
          "name": "amount",
          "type": "uint256"
        },
        {
          "indexed": false,
          "internalType": "uint256",
          "name": "price",
          "type": "uint256"
        }
      ],
      "name": "OrderFulfilledByMarketMaker",
      "type": "event"
    },
    {
      "anonymous": false,
      "inputs": [
        {
          "indexed": true,
          "internalType": "uint256",
          "name": "orderId",
          "type": "uint256"
        },
        {
          "indexed": true,
          "internalType": "uint256",
          "name": "matchedOrderId",
          "type": "uint256"
        },
        {
          "indexed": false,
          "internalType": "uint256",
          "name": "amount",
          "type": "uint256"
        },
        {
          "indexed": false,
          "internalType": "uint256",
          "name": "price",
          "type": "uint256"
        }
      ],
      "name": "OrderFulfilledByMatching",
      "type": "event"
    },
    {
      "anonymous": false,
      "inputs": [
        {
          "indexed": true,
          "internalType": "uint256",
          "name": "orderId",
          "type": "uint256"
        },
        {
          "indexed": false,
          "internalType": "uint256",
          "name": "amount",
          "type": "uint256"
        },
        {
          "indexed": false,
          "internalType": "uint256",
          "name": "remaining",
          "type": "uint256"
        }
      ],
      "name": "OrderPartiallyFulfilled",
      "type": "event"
    },
    {
      "anonymous": false,
      "inputs": [
        {
          "indexed": false,
          "internalType": "uint256",
          "name": "minSize",
          "type": "uint256"
        },
        {
          "indexed": false,
          "internalType": "uint256",
          "name": "maxSize",
          "type": "uint256"
        }
      ],
      "name": "OrderSizeLimitsUpdated",
      "type": "event"
    },
    {
      "anonymous": false,
      "inputs": [
        {
          "indexed": true,
          "internalType": "address",
          "name": "previousOwner",
          "type": "address"
        },
        {
          "indexed": true,
          "internalType": "address",
          "name": "newOwner",
          "type": "address"
        }
      ],
      "name": "OwnershipTransferred",
      "type": "event"
    },
    {
      "anonymous": false,
      "inputs": [
        {
          "indexed": false,
          "internalType": "uint256",
          "name": "newInterval",
          "type": "uint256"
        }
      ],
      "name": "RateLimitUpdated",
      "type": "event"
    },
    {
      "stateMutability": "payable",
      "type": "fallback"
    },
    {
      "inputs": [],
      "name": "DIVISOR",
      "outputs": [
        {
          "internalType": "uint256",
          "name": "",
          "type": "uint256"
        }
      ],
      "stateMutability": "view",
      "type": "function"
    },
    {
      "inputs": [],
      "name": "MAX_FEE_PERCENTAGE",
      "outputs": [
        {
          "internalType": "uint256",
          "name": "",
          "type": "uint256"
        }
      ],
      "stateMutability": "view",
      "type": "function"
    },
    {
      "inputs": [
        {
          "internalType": "uint256",
          "name": "orderId",
          "type": "uint256"
        }
      ],
      "name": "cancelOrder",
      "outputs": [],
      "stateMutability": "nonpayable",
      "type": "function"
    },
    {
      "inputs": [
        {
          "internalType": "uint256",
          "name": "orderId",
          "type": "uint256"
        }
      ],
      "name": "cleanupExpiredOrder",
      "outputs": [],
      "stateMutability": "nonpayable",
      "type": "function"
    },
    {
      "inputs": [
        {
          "internalType": "enum GradientOrderbook.OrderType",
          "name": "orderType",
          "type": "uint8"
        },
        {
          "internalType": "enum GradientOrderbook.OrderExecutionType",
          "name": "executionType",
          "type": "uint8"
        },
        {
          "internalType": "address",
          "name": "token",
          "type": "address"
        },
        {
          "internalType": "uint256",
          "name": "amount",
          "type": "uint256"
        },
        {
          "internalType": "uint256",
          "name": "price",
          "type": "uint256"
        },
        {
          "internalType": "uint256",
          "name": "ttl",
          "type": "uint256"
        }
      ],
      "name": "createOrder",
      "outputs": [
        {
          "internalType": "uint256",
          "name": "",
          "type": "uint256"
        }
      ],
      "stateMutability": "payable",
      "type": "function"
    },
    {
      "inputs": [],
      "name": "feePercentage",
      "outputs": [
        {
          "internalType": "uint256",
          "name": "",
          "type": "uint256"
        }
      ],
      "stateMutability": "view",
      "type": "function"
    },
    {
      "inputs": [
        {
          "components": [
            {
              "internalType": "uint256",
              "name": "buyOrderId",
              "type": "uint256"
            },
            {
              "internalType": "uint256",
              "name": "sellOrderId",
              "type": "uint256"
            },
            {
              "internalType": "uint256",
              "name": "fillAmount",
              "type": "uint256"
            }
          ],
          "internalType": "struct GradientOrderbook.OrderMatch[]",
          "name": "matches",
          "type": "tuple[]"
        }
      ],
      "name": "fulfillLimitOrders",
      "outputs": [],
      "stateMutability": "nonpayable",
      "type": "function"
    },
    {
      "inputs": [
        {
          "components": [
            {
              "internalType": "uint256",
              "name": "buyOrderId",
              "type": "uint256"
            },
            {
              "internalType": "uint256",
              "name": "sellOrderId",
              "type": "uint256"
            },
            {
              "internalType": "uint256",
              "name": "fillAmount",
              "type": "uint256"
            }
          ],
          "internalType": "struct GradientOrderbook.OrderMatch[]",
          "name": "matches",
          "type": "tuple[]"
        },
        {
          "internalType": "uint256[]",
          "name": "executionPrices",
          "type": "uint256[]"
        }
      ],
      "name": "fulfillMarketOrders",
      "outputs": [],
      "stateMutability": "nonpayable",
      "type": "function"
    },
    {
      "inputs": [
        {
          "internalType": "uint256[]",
          "name": "orderIds",
          "type": "uint256[]"
        },
        {
          "internalType": "uint256[]",
          "name": "fillAmounts",
          "type": "uint256[]"
        }
      ],
      "name": "fulfillOrdersWithMarketMaker",
      "outputs": [],
      "stateMutability": "nonpayable",
      "type": "function"
    },
    {
      "inputs": [
        {
          "internalType": "uint256",
          "name": "orderId",
          "type": "uint256"
        },
        {
          "internalType": "uint256",
          "name": "fillAmount",
          "type": "uint256"
        },
        {
          "internalType": "uint256",
          "name": "minAmountOut",
          "type": "uint256"
        }
      ],
      "name": "fulfillOwnOrderWithAMM",
      "outputs": [],
      "stateMutability": "nonpayable",
      "type": "function"
    },
    {
      "inputs": [
        {
          "internalType": "address",
          "name": "token",
          "type": "address"
        },
        {
          "internalType": "enum GradientOrderbook.OrderType",
          "name": "orderType",
          "type": "uint8"
        },
        {
          "internalType": "enum GradientOrderbook.OrderExecutionType",
          "name": "executionType",
          "type": "uint8"
        }
      ],
      "name": "getActiveOrders",
      "outputs": [
        {
          "internalType": "uint256[]",
          "name": "",
          "type": "uint256[]"
        }
      ],
      "stateMutability": "view",
      "type": "function"
    },
    {
      "inputs": [
        {
          "internalType": "bytes32",
          "name": "queueKey",
          "type": "bytes32"
        }
      ],
      "name": "getActiveOrdersCount",
      "outputs": [
        {
          "internalType": "uint256",
          "name": "",
          "type": "uint256"
        }
      ],
      "stateMutability": "view",
      "type": "function"
    },
    {
      "inputs": [
        {
          "internalType": "address",
          "name": "token",
          "type": "address"
        },
        {
          "internalType": "enum GradientOrderbook.OrderType",
          "name": "orderType",
          "type": "uint8"
        },
        {
          "internalType": "enum GradientOrderbook.OrderExecutionType",
          "name": "executionType",
          "type": "uint8"
        },
        {
          "internalType": "uint256",
          "name": "startIndex",
          "type": "uint256"
        },
        {
          "internalType": "uint256",
          "name": "count",
          "type": "uint256"
        }
      ],
      "name": "getActiveOrdersPaged",
      "outputs": [
        {
          "internalType": "uint256[]",
          "name": "",
          "type": "uint256[]"
        }
      ],
      "stateMutability": "view",
      "type": "function"
    },
    {
      "inputs": [
        {
          "internalType": "uint256",
          "name": "orderId",
          "type": "uint256"
        }
      ],
      "name": "getOrder",
      "outputs": [
        {
          "components": [
            {
              "internalType": "uint256",
              "name": "orderId",
              "type": "uint256"
            },
            {
              "internalType": "address",
              "name": "owner",
              "type": "address"
            },
            {
              "internalType": "enum GradientOrderbook.OrderType",
              "name": "orderType",
              "type": "uint8"
            },
            {
              "internalType": "enum GradientOrderbook.OrderExecutionType",
              "name": "executionType",
              "type": "uint8"
            },
            {
              "internalType": "address",
              "name": "token",
              "type": "address"
            },
            {
              "internalType": "uint256",
              "name": "amount",
              "type": "uint256"
            },
            {
              "internalType": "uint256",
              "name": "price",
              "type": "uint256"
            },
            {
              "internalType": "uint256",
              "name": "filledAmount",
              "type": "uint256"
            },
            {
              "internalType": "uint256",
              "name": "expirationTime",
              "type": "uint256"
            },
            {
              "internalType": "enum GradientOrderbook.OrderStatus",
              "name": "status",
              "type": "uint8"
            }
          ],
          "internalType": "struct GradientOrderbook.Order",
          "name": "",
          "type": "tuple"
        }
      ],
      "stateMutability": "view",
      "type": "function"
    },
    {
      "inputs": [
        {
          "internalType": "uint256",
          "name": "orderId",
          "type": "uint256"
        }
      ],
      "name": "getRemainingAmount",
      "outputs": [
        {
          "internalType": "uint256",
          "name": "",
          "type": "uint256"
        }
      ],
      "stateMutability": "view",
      "type": "function"
    },
    {
      "inputs": [],
      "name": "gradientRegistry",
      "outputs": [
        {
          "internalType": "contract IGradientRegistry",
          "name": "",
          "type": "address"
        }
      ],
      "stateMutability": "view",
      "type": "function"
    },
    {
      "inputs": [
        {
          "internalType": "uint256",
          "name": "orderId",
          "type": "uint256"
        }
      ],
      "name": "isOrderExpired",
      "outputs": [
        {
          "internalType": "bool",
          "name": "",
          "type": "bool"
        }
      ],
      "stateMutability": "view",
      "type": "function"
    },
    {
      "inputs": [],
      "name": "maxOrderSize",
      "outputs": [
        {
          "internalType": "uint256",
          "name": "",
          "type": "uint256"
        }
      ],
      "stateMutability": "view",
      "type": "function"
    },
    {
      "inputs": [],
      "name": "maxOrderTtl",
      "outputs": [
        {
          "internalType": "uint256",
          "name": "",
          "type": "uint256"
        }
      ],
      "stateMutability": "view",
      "type": "function"
    },
    {
      "inputs": [],
      "name": "minOrderSize",
      "outputs": [
        {
          "internalType": "uint256",
          "name": "",
          "type": "uint256"
        }
      ],
      "stateMutability": "view",
      "type": "function"
    },
    {
      "inputs": [],
      "name": "mmFeeDistributionPercentage",
      "outputs": [
        {
          "internalType": "uint256",
          "name": "",
          "type": "uint256"
        }
      ],
      "stateMutability": "view",
      "type": "function"
    },
    {
      "inputs": [
        {
          "internalType": "uint256",
          "name": "",
          "type": "uint256"
        }
      ],
      "name": "orders",
      "outputs": [
        {
          "internalType": "uint256",
          "name": "orderId",
          "type": "uint256"
        },
        {
          "internalType": "address",
          "name": "owner",
          "type": "address"
        },
        {
          "internalType": "enum GradientOrderbook.OrderType",
          "name": "orderType",
          "type": "uint8"
        },
        {
          "internalType": "enum GradientOrderbook.OrderExecutionType",
          "name": "executionType",
          "type": "uint8"
        },
        {
          "internalType": "address",
          "name": "token",
          "type": "address"
        },
        {
          "internalType": "uint256",
          "name": "amount",
          "type": "uint256"
        },
        {
          "internalType": "uint256",
          "name": "price",
          "type": "uint256"
        },
        {
          "internalType": "uint256",
          "name": "filledAmount",
          "type": "uint256"
        },
        {
          "internalType": "uint256",
          "name": "expirationTime",
          "type": "uint256"
        },
        {
          "internalType": "enum GradientOrderbook.OrderStatus",
          "name": "status",
          "type": "uint8"
        }
      ],
      "stateMutability": "view",
      "type": "function"
    },
    {
      "inputs": [],
      "name": "owner",
      "outputs": [
        {
          "internalType": "address",
          "name": "",
          "type": "address"
        }
      ],
      "stateMutability": "view",
      "type": "function"
    },
    {
      "inputs": [],
      "name": "renounceOwnership",
      "outputs": [],
      "stateMutability": "nonpayable",
      "type": "function"
    },
    {
      "inputs": [
        {
          "internalType": "uint256",
          "name": "newFeePercentage",
          "type": "uint256"
        }
      ],
      "name": "setFeePercentage",
      "outputs": [],
      "stateMutability": "nonpayable",
      "type": "function"
    },
    {
      "inputs": [
        {
          "internalType": "contract IGradientRegistry",
          "name": "_gradientRegistry",
          "type": "address"
        }
      ],
      "name": "setGradientRegistry",
      "outputs": [],
      "stateMutability": "nonpayable",
      "type": "function"
    },
    {
      "inputs": [
        {
          "internalType": "uint256",
          "name": "_maxOrderTtl",
          "type": "uint256"
        }
      ],
      "name": "setMaxOrderTtl",
      "outputs": [],
      "stateMutability": "nonpayable",
      "type": "function"
    },
    {
      "inputs": [
        {
          "internalType": "uint256",
          "name": "_minOrderSize",
          "type": "uint256"
        },
        {
          "internalType": "uint256",
          "name": "_maxOrderSize",
          "type": "uint256"
        }
      ],
      "name": "setOrderSizeLimits",
      "outputs": [],
      "stateMutability": "nonpayable",
      "type": "function"
    },
    {
      "inputs": [],
      "name": "totalFeesCollected",
      "outputs": [
        {
          "internalType": "uint256",
          "name": "",
          "type": "uint256"
        }
      ],
      "stateMutability": "view",
      "type": "function"
    },
    {
      "inputs": [
        {
          "internalType": "bytes32",
          "name": "",
          "type": "bytes32"
        }
      ],
      "name": "totalOrderCount",
      "outputs": [
        {
          "internalType": "uint256",
          "name": "",
          "type": "uint256"
        }
      ],
      "stateMutability": "view",
      "type": "function"
    },
    {
      "inputs": [
        {
          "internalType": "address",
          "name": "newOwner",
          "type": "address"
        }
      ],
      "name": "transferOwnership",
      "outputs": [],
      "stateMutability": "nonpayable",
      "type": "function"
    },
    {
      "inputs": [
        {
          "internalType": "uint256",
          "name": "newPercentage",
          "type": "uint256"
        }
      ],
      "name": "updateMMFeeDistributionPercentage",
      "outputs": [],
      "stateMutability": "nonpayable",
      "type": "function"
    },
    {
      "inputs": [
        {
          "internalType": "address payable",
          "name": "recipient",
          "type": "address"
        }
      ],
      "name": "withdrawFees",
      "outputs": [],
      "stateMutability": "nonpayable",
      "type": "function"
    },
    {
      "stateMutability": "payable",
      "type": "receive"
    }
  ],
  "bytecode": "0x6080604052611b58600d5534801561001657600080fd5b50604051614893380380614893833981016040819052610035916100fe565b338061005b57604051631e4fbdf760e01b81526000600482015260240160405180910390fd5b610064816100ae565b5060018055600280546001600160a01b0319166001600160a01b03929092169190911790556032600455620f4240600a55683635c9adc5dea00000600b5562278d00600c5561012e565b600080546001600160a01b038381166001600160a01b0319831681178455604051919092169283917f8be0079c531659141344cd1fd0a4f28419497f9722a3daafe3b4186f6b6457e09190a35050565b60006020828403121561011057600080fd5b81516001600160a01b038116811461012757600080fd5b9392505050565b6147568061013d6000396000f3fe6080604052600436106101da5760003560e01c806366961d4411610101578063a001ecdd1161009a578063bfde1d7c1161006c578063bfde1d7c146105cf578063d09ef241146105ef578063f1a82c7e1461061c578063f2fde38b14610632578063f6252ff21461065257005b8063a001ecdd146104ec578063a674537f14610502578063a85c38ef14610518578063ae06c1b7146105af57005b80638da5cb5b116100d35780638da5cb5b1461046e5780638f9057df1461048c578063983d1a14146104ac5780639c302fdb146104cc57005b806366961d44146103eb578063715018a614610401578063727d211414610416578063830562bc1461043657005b80633410fe6e11610173578063568c820611610145578063568c82061461036557806359c693131461038557806360c6d8ae146103b5578063634eef47146103cb57005b80633410fe6e146102f9578063457a89241461030f578063514fcac71461032f578063558e44d31461034f57005b8063164e68de116101ac578063164e68de146102765780631f32eb771461029657806321b30746146102c35780632f1131fb146102e357005b80630d34219c146101e357806310e1c1661461022357806311e807a41461024357806313b64e241461025657005b366101e157005b005b3480156101ef57600080fd5b506102106101fe366004613ebb565b60076020526000908152604090205481565b6040519081526020015b60405180910390f35b34801561022f57600080fd5b5061021061023e366004613ebb565b610672565b610210610251366004613ef6565b610704565b34801561026257600080fd5b506101e1610271366004613f5b565b610de9565b34801561028257600080fd5b506101e1610291366004613f7d565b610e39565b3480156102a257600080fd5b506102b66102b1366004613fa1565b610fb6565b60405161021a9190613fec565b3480156102cf57600080fd5b506101e16102de36600461407b565b6110e4565b3480156102ef57600080fd5b50610210600d5481565b34801561030557600080fd5b5061021061271081565b34801561031b57600080fd5b506101e161032a366004614131565b611297565b34801561033b57600080fd5b506101e161034a366004613ebb565b61141a565b34801561035b57600080fd5b506102106101f481565b34801561037157600080fd5b506101e1610380366004613ebb565b6117a2565b34801561039157600080fd5b506103a56103a0366004613ebb565b611aea565b604051901515815260200161021a565b3480156103c157600080fd5b5061021060055481565b3480156103d757600080fd5b506101e16103e6366004613f7d565b611b3d565b3480156103f757600080fd5b50610210600c5481565b34801561040d57600080fd5b506101e1611bbd565b34801561042257600080fd5b506101e1610431366004613ebb565b611bd1565b34801561044257600080fd5b50600254610456906001600160a01b031681565b6040516001600160a01b03909116815260200161021a565b34801561047a57600080fd5b506000546001600160a01b0316610456565b34801561049857600080fd5b506101e16104a736600461416a565b611c14565b3480156104b857600080fd5b506101e16104c7366004613ebb565b611d42565b3480156104d857600080fd5b506101e16104e73660046141ac565b611dd0565b3480156104f857600080fd5b5061021060045481565b34801561050e57600080fd5b50610210600a5481565b34801561052457600080fd5b50610599610533366004613ebb565b60066020819052600091825260409091208054600182015460028301546003840154600485015460058601549686015460079096015494966001600160a01b038086169760ff600160a01b8804811698600160a81b90980481169796909216959091168a565b60405161021a9a9998979695949392919061421b565b3480156105bb57600080fd5b506101e16105ca366004613ebb565b612341565b3480156105db57600080fd5b506102b66105ea366004614294565b6123d9565b3480156105fb57600080fd5b5061060f61060a366004613ebb565b61258f565b60405161021a91906142ef565b34801561062857600080fd5b50610210600b5481565b34801561063e57600080fd5b506101e161064d366004613f7d565b6126e9565b34801561065e57600080fd5b5061021061066d366004613ebb565b612724565b600080805b6000848152600760205260409020548110156106fd5760008481526008602090815260408083208484529091528120549060008281526006602052604090206007015460ff1660038111156106ce576106ce6141d8565b1480156106e157506106df81611aea565b155b156106f457826106f0816143a9565b9350505b50600101610677565b5092915050565b6000846001600160a01b0381166107525760405162461bcd60e51b815260206004820152600d60248201526c24b73b30b634b2103a37b5b2b760991b60448201526064015b60405180910390fd5b6000816001600160a01b03163b1161079d5760405162461bcd60e51b815260206004820152600e60248201526d139bdd08184818dbdb9d1c9858dd60921b6044820152606401610749565b600254604051630736b32b60e31b81526001600160a01b038381166004830152909116906339b5995890602401602060405180830381865afa1580156107e7573d6000803e3d6000fd5b505050506040513d601f19601f8201168201806040525081019061080b91906143c2565b1561084b5760405162461bcd60e51b815260206004820152601060248201526f151bdad95b881a5cc8189b1bd8dad95960821b6044820152606401610749565b610853612787565b600085116108a35760405162461bcd60e51b815260206004820152601d60248201527f416d6f756e74206d7573742062652067726561746572207468616e20300000006044820152606401610749565b600084116108e95760405162461bcd60e51b8152602060048201526013602482015272496e76616c69642070726963652072616e676560681b6044820152606401610749565b600083116109395760405162461bcd60e51b815260206004820152601a60248201527f54544c206d7573742062652067726561746572207468616e20300000000000006044820152606401610749565b600c5483111561097a5760405162461bcd60e51b815260206004820152600c60248201526b54544c20746f6f206c6f6e6760a01b6044820152606401610749565b6000670de0b6b3a764000061098f86886143e4565b6109999190614401565b90506000612710600454836109ae91906143e4565b6109b89190614401565b9050600a548210156109fe5760405162461bcd60e51b815260206004820152600f60248201526e13dc99195c881d1bdbc81cdb585b1b608a1b6044820152606401610749565b600b54821115610a425760405162461bcd60e51b815260206004820152600f60248201526e4f7264657220746f6f206c6172676560881b6044820152606401610749565b60008a6001811115610a5657610a566141d8565b03610ac957610a658183614423565b341015610aac5760405162461bcd60e51b8152602060048201526015602482015274125b9cdd59999a58da595b9d08115512081cd95b9d605a1b6044820152606401610749565b8060056000828254610abe9190614423565b90915550610ade9050565b610ade6001600160a01b03891633308a6127b1565b600380549081906000610af0836143a9565b9091555050604080516101408101825282815233602082015260009181018d6001811115610b2057610b206141d8565b81526020018c6001811115610b3757610b376141d8565b81526020018b6001600160a01b031681526020018a8152602001898152602001600081526020018842610b6a9190614423565b8152602001600090526000838152600660209081526040918290208351815590830151600180830180546001600160a01b039093166001600160a01b0319841681178255948601519596508695939490926001600160a81b0319161790600160a01b908490811115610bde57610bde6141d8565b021790555060608201518160010160156101000a81548160ff02191690836001811115610c0d57610c0d6141d8565b021790555060808201518160020160006101000a8154816001600160a01b0302191690836001600160a01b0316021790555060a0820151816003015560c0820151816004015560e0820151816005015561010082015181600601556101208201518160070160006101000a81548160ff02191690836003811115610c9357610c936141d8565b0217905550905050610ca7828b8e8e612818565b336001600160a01b0316827fa2fb0dce7ae79c4288991eaef209e312e4008fdf46d4842d51f55426ccc903938e8e8e8e8e8861010001518c604051610cf29796959493929190614436565b60405180910390a360008c6001811115610d0e57610d0e6141d8565b148015610d235750610d208385614423565b34115b15610dd0576000610d348486614423565b610d3e9034614488565b604051909150600090339083908381818185875af1925050503d8060008114610d83576040519150601f19603f3d011682016040523d82523d6000602084013e610d88565b606091505b5050905080610dcd5760405162461bcd60e51b8152602060048201526011602482015270115512081c995d1d5c9b8819985a5b1959607a1b6044820152606401610749565b50505b5093505050610dde60018055565b509695505050505050565b610df1612882565b600a829055600b81905560408051838152602081018390527f34a3b94861a601870265c6c4d74c28d1a09f6c803ce42b95e749f46127c8f17091015b60405180910390a15050565b610e41612882565b6001600160a01b038116610e8b5760405162461bcd60e51b8152602060048201526011602482015270125b9d985b1a59081c9958da5c1a595b9d607a1b6044820152606401610749565b60055480610ed15760405162461bcd60e51b81526020600482015260136024820152724e6f206665657320746f20776974686472617760681b6044820152606401610749565b600060058190556040516001600160a01b0384169083908381818185875af1925050503d8060008114610f20576040519150601f19603f3d011682016040523d82523d6000602084013e610f25565b606091505b5050905080610f6e5760405162461bcd60e51b8152602060048201526015602482015274119959481dda5d1a191c985dd85b0819985a5b1959605a1b6044820152606401610749565b826001600160a01b03167fc0819c13be868895eb93e40eaceb96de976442fa1d404e5c55f14bb65a8c489a83604051610fa991815260200190565b60405180910390a2505050565b60606000610fc58585856128af565b90506000610fd282610672565b90506000808267ffffffffffffffff811115610ff057610ff061449b565b604051908082528060200260200182016040528015611019578160200160208202803683370190505b50905060005b6000858152600760205260409020548110801561103b57508383105b156110d85760008581526008602090815260408083208484529091528120549060008281526006602052604090206007015460ff166003811115611081576110816141d8565b148015611094575061109281611aea565b155b156110c557808385815181106110ac576110ac6144b1565b6020908102919091010152836110c1816143a9565b9450505b50806110d0816143a9565b91505061101f565b50979650505050505050565b6110ec612787565b6002546040516314c530d560e31b81523360048201526001600160a01b039091169063a62986a890602401602060405180830381865afa158015611134573d6000803e3d6000fd5b505050506040513d601f19601f8201168201806040525081019061115891906143c2565b6111745760405162461bcd60e51b8152600401610749906144c7565b826111b85760405162461bcd60e51b8152602060048201526014602482015273139bc81bdc99195c9cc81d1bc8199d5b199a5b1b60621b6044820152606401610749565b8281146112025760405162461bcd60e51b815260206004820152601860248201527709ad2e6dac2e8c6d0cac840c2e4e4c2f2e640d8cadccee8d60431b6044820152606401610749565b60005b83811015611287576000838383818110611221576112216144b1565b90506020020135116112455760405162461bcd60e51b8152600401610749906144fe565b61127f85858381811061125a5761125a6144b1565b90506020020135848484818110611273576112736144b1565b905060200201356128e5565b600101611205565b5061129160018055565b50505050565b61129f612787565b6002546040516314c530d560e31b81523360048201526001600160a01b039091169063a62986a890602401602060405180830381865afa1580156112e7573d6000803e3d6000fd5b505050506040513d601f19601f8201168201806040525081019061130b91906143c2565b6113275760405162461bcd60e51b8152600401610749906144c7565b826113745760405162461bcd60e51b815260206004820152601b60248201527f4e6f206f72646572206d61746368657320746f2066756c66696c6c00000000006044820152606401610749565b8281146113be5760405162461bcd60e51b815260206004820152601860248201527709ad2e6dac2e8c6d0cac840c2e4e4c2f2e640d8cadccee8d60431b6044820152606401610749565b60005b83811015611287576114128585838181106113de576113de6144b1565b9050606002018036038101906113f49190614540565b848484818110611406576114066144b1565b90506020020135612fe6565b6001016113c1565b611422612787565b60008181526006602052604090206001015481906001600160a01b031661145b5760405162461bcd60e51b8152600401610749906145ac565b60008281526006602052604090206001015482906001600160a01b031633146114b85760405162461bcd60e51b815260206004820152600f60248201526e2737ba1037b93232b91037bbb732b960891b6044820152606401610749565b600083815260066020526040812090600782015460ff1660038111156114e0576114e06141d8565b146114fd5760405162461bcd60e51b8152600401610749906145da565b61150684611aea565b156115435760405162461bcd60e51b815260206004820152600d60248201526c13dc99195c88195e1c1a5c9959609a1b6044820152606401610749565b600781018054600260ff19909116179055600180820154600091600160a01b90910460ff1690811115611578576115786141d8565b03611727576000816005015482600301546115939190614488565b90508015611721576000670de0b6b3a76400008360040154836115b691906143e4565b6115c09190614401565b90506000612710600454836115d591906143e4565b6115df9190614401565b905060006115ed8284614423565b9050600060055483116116005782611604565b6005545b905080600560008282546116189190614488565b9091555050828110156116325761162f8185614423565b91505b814710156116825760405162461bcd60e51b815260206004820152601c60248201527f496e73756666696369656e742045544820696e20636f6e7472616374000000006044820152606401610749565b60018601546040516000916001600160a01b03169084908381818185875af1925050503d80600081146116d1576040519150601f19603f3d011682016040523d82523d6000602084013e6116d6565b606091505b505090508061171b5760405162461bcd60e51b8152602060048201526011602482015270115512081c99599d5b990819985a5b1959607a1b6044820152606401610749565b50505050505b50611768565b60008160050154826003015461173d9190614488565b905080156117665760018201546002830154611766916001600160a01b0391821691168361325d565b505b60405184907f61b9399f2f0f32ca39ce8d7be32caed5ec22fe07a6daba3a467ed479ec60658290600090a250505061179f60018055565b50565b6117aa612787565b60008181526006602052604090206001015481906001600160a01b03166117e35760405162461bcd60e51b8152600401610749906145ac565b600082815260066020526040812090600782015460ff16600381111561180b5761180b6141d8565b146118285760405162461bcd60e51b8152600401610749906145da565b61183183611aea565b6118715760405162461bcd60e51b815260206004820152601160248201527013dc99195c881b9bdd08195e1c1a5c9959607a1b6044820152606401610749565b60078101805460ff1916600317905560018082015460ff600160a01b90910416818111156118a1576118a16141d8565b036118e7576000816005015482600301546118bc9190614488565b905080156118e557600182015460028301546118e5916001600160a01b0391821691168361325d565b505b6000600182810154600160a01b900460ff1690811115611909576119096141d8565b03611ab4576000816005015482600301546119249190614488565b90508015611ab2576000670de0b6b3a764000083600401548361194791906143e4565b6119519190614401565b905060006127106004548361196691906143e4565b6119709190614401565b9050600061197e8284614423565b9050600060055483116119915782611995565b6005545b905080600560008282546119a99190614488565b9091555050828110156119c3576119c08185614423565b91505b81471015611a135760405162461bcd60e51b815260206004820152601c60248201527f496e73756666696369656e742045544820696e20636f6e7472616374000000006044820152606401610749565b60018601546040516000916001600160a01b03169084908381818185875af1925050503d8060008114611a62576040519150601f19603f3d011682016040523d82523d6000602084013e611a67565b606091505b5050905080611aac5760405162461bcd60e51b8152602060048201526011602482015270115512081c99599d5b990819985a5b1959607a1b6044820152606401610749565b50505050505b505b60405183907f1ad308dc7017610c82d08084545f7176df5e2f08f078c3c8f8926cd7e555551490600090a2505061179f60018055565b60008181526006602052604081206001015482906001600160a01b0316611b235760405162461bcd60e51b8152600401610749906145ac565b505060009081526006602081905260409091200154421190565b611b45612882565b6001600160a01b038116611b9b5760405162461bcd60e51b815260206004820152601960248201527f496e76616c6964206772616469656e74207265676973747279000000000000006044820152606401610749565b600280546001600160a01b0319166001600160a01b0392909216919091179055565b611bc5612882565b611bcf600061328e565b565b611bd9612882565b600c8190556040518181527f5829309fa85e85a75b744b2b1ae6b2913b3d2a9c94df75a5b61de31f962256be9060200160405180910390a150565b611c1c612787565b6002546040516314c530d560e31b81523360048201526001600160a01b039091169063a62986a890602401602060405180830381865afa158015611c64573d6000803e3d6000fd5b505050506040513d601f19601f82011682018060405250810190611c8891906143c2565b611ca45760405162461bcd60e51b8152600401610749906144c7565b80611cf15760405162461bcd60e51b815260206004820152601b60248201527f4e6f206f72646572206d61746368657320746f2066756c66696c6c00000000006044820152606401610749565b60005b81811015611d3457611d2c838383818110611d1157611d116144b1565b905060600201803603810190611d279190614540565b6132de565b600101611cf4565b50611d3e60018055565b5050565b611d4a612882565b612710811115611d925760405162461bcd60e51b81526020600482015260136024820152720a0cae4c6cadce8c2ceca40e8dede40d0d2ced606b1b6044820152606401610749565b600d80549082905560408051828152602081018490527f0a4a47a3e5193a63e95c6346171009c8e7099d3795ac25df2b9b672be06cc6ca9101610e2d565b611dd8612787565b60008381526006602052604090206001015483906001600160a01b0316611e115760405162461bcd60e51b8152600401610749906145ac565b60008481526006602052604090206001015484906001600160a01b03163314611e6e5760405162461bcd60e51b815260206004820152600f60248201526e2737ba1037b93232b91037bbb732b960891b6044820152606401610749565b60008411611e8e5760405162461bcd60e51b8152600401610749906144fe565b600085815260066020526040812090600782015460ff166003811115611eb657611eb66141d8565b14611ed35760405162461bcd60e51b8152600401610749906145da565b600081600501548260030154611ee99190614488565b90506000818711611efa5786611efc565b815b905060008111611f1e5760405162461bcd60e51b815260040161074990614604565b6000670de0b6b3a7640000846004015483611f3991906143e4565b611f439190614401565b90506000600260009054906101000a90046001600160a01b03166001600160a01b031663745e9e9f6040518163ffffffff1660e01b8152600401602060405180830381865afa158015611f9a573d6000803e3d6000fd5b505050506040513d601f19601f82011682018060405250810190611fbe919061462f565b90506001600160a01b0381166120165760405162461bcd60e51b815260206004820152601860248201527f46616c6c6261636b4578656375746f72206e6f742073657400000000000000006044820152606401610749565b6000600186810154600160a01b900460ff1690811115612038576120386141d8565b036120f257600285015460405163815a1a0d60e01b81526001600160a01b03918216600482015260248101849052604481018a90526001606482015260009183169063815a1a0d90859060840160206040518083038185885af11580156120a3573d6000803e3d6000fd5b50505050506040513d601f19601f820116820180604052508101906120c8919061464c565b600187015460028801549192506120ec916001600160a01b0390811691168361325d565b5061228f565b600285015460405163095ea7b360e01b81526001600160a01b038381166004830152602482018690529091169063095ea7b3906044016020604051808303816000875af1158015612147573d6000803e3d6000fd5b505050506040513d601f19601f8201168201806040525081019061216b91906143c2565b50600285015460405163815a1a0d60e01b81526001600160a01b03918216600482015260248101859052604481018a90526000606482018190529183169063815a1a0d906084016020604051808303816000875af11580156121d1573d6000803e3d6000fd5b505050506040513d601f19601f820116820180604052508101906121f5919061464c565b90506000612202826135d5565b905060006122108284614488565b60018901546040519192506000916001600160a01b039091169083908381818185875af1925050503d8060008114612264576040519150601f19603f3d011682016040523d82523d6000602084013e612269565b606091505b505090508061228a5760405162461bcd60e51b815260040161074990614665565b505050505b828560050160008282546122a39190614423565b909155505060038501546005860154036122ee5760078501805460ff191660011790556040518381528a906000805160206146e18339815191529060200160405180910390a261232c565b8960008051602061470183398151915284876005015488600301546123139190614488565b6040805192835260208301919091520160405180910390a25b5050505050505061233c60018055565b505050565b612349612882565b6101f481111561239b5760405162461bcd60e51b815260206004820152601760248201527f4665652070657263656e7461676520746f6f20686967680000000000000000006044820152606401610749565b600480549082905560408051828152602081018490527fb27c12a91635e11c22bffa7bd8e0a8735da52b94aaefd7f249776c7590ba78949101610e2d565b606060006123e88787876128af565b6000818152600760205260408120549192508467ffffffffffffffff8111156124135761241361449b565b60405190808252806020026020018201604052801561243c578160200160208202803683370190505b5090506000865b838110801561245157508682105b156124ee5760008581526008602090815260408083208484529091528120549060008281526006602052604090206007015460ff166003811115612497576124976141d8565b1480156124aa57506124a881611aea565b155b156124db57808484815181106124c2576124c26144b1565b6020908102919091010152826124d7816143a9565b9350505b50806124e6816143a9565b915050612443565b5060008167ffffffffffffffff81111561250a5761250a61449b565b604051908082528060200260200182016040528015612533578160200160208202803683370190505b50905060005b8281101561258057838181518110612553576125536144b1565b602002602001015182828151811061256d5761256d6144b1565b6020908102919091010152600101612539565b509a9950505050505050505050565b612597613e4f565b60008281526006602052604090206001015482906001600160a01b03166125d05760405162461bcd60e51b8152600401610749906145ac565b600083815260066020908152604091829020825161014081018452815481526001808301546001600160a01b038116948301949094529093919291840191600160a01b900460ff1690811115612628576126286141d8565b6001811115612639576126396141d8565b81526020016001820160159054906101000a900460ff166001811115612661576126616141d8565b6001811115612672576126726141d8565b815260028201546001600160a01b0316602082015260038083015460408301526004830154606083015260058301546080830152600683015460a0830152600783015460c09092019160ff16908111156126ce576126ce6141d8565b60038111156126df576126df6141d8565b9052509392505050565b6126f1612882565b6001600160a01b03811661271b57604051631e4fbdf760e01b815260006004820152602401610749565b61179f8161328e565b60008181526006602052604081206001015482906001600160a01b031661275d5760405162461bcd60e51b8152600401610749906145ac565b60008381526006602052604090206005810154600382015461277f9190614488565b949350505050565b6002600154036127aa57604051633ee5aeb560e01b815260040160405180910390fd5b6002600155565b6040516001600160a01b0384811660248301528381166044830152606482018390526112919186918216906323b872dd906084015b604051602081830303815290604052915060e01b6020820180516001600160e01b038381831617835250505050613613565b60006128258484846128af565b600081815260076020818152604080842080548b8652600984528286208190558686526008845282862090865283529084208a90558484529190528054929350600192909190612876908490614423565b90915550505050505050565b6000546001600160a01b03163314611bcf5760405163118cdaa760e01b8152336004820152602401610749565b60008383836040516020016128c69392919061469c565b6040516020818303038152906040528051906020012090509392505050565b600082815260066020526040812090600782015460ff16600381111561290d5761290d6141d8565b1461292a5760405162461bcd60e51b8152600401610749906145da565b61293383611aea565b156129705760405162461bcd60e51b815260206004820152600d60248201526c13dc99195c88195e1c1a5c9959609a1b6044820152606401610749565b60025460408051632289a21d60e11b815290516000926001600160a01b031691634513443a9160048083019260209291908290030181865afa1580156129ba573d6000803e3d6000fd5b505050506040513d601f19601f820116820180604052508101906129de919061462f565b90506001600160a01b038116612a365760405162461bcd60e51b815260206004820152601960248201527f4d61726b6574206d616b657220706f6f6c206e6f7420736574000000000000006044820152606401610749565b600082600501548360030154612a4c9190614488565b90506000818511612a5d5784612a5f565b815b905060008111612a815760405162461bcd60e51b815260040161074990614604565b6000670de0b6b3a7640000856004015483612a9c91906143e4565b612aa69190614401565b90506000600186810154600160a01b900460ff1690811115612aca57612aca6141d8565b03612c7c576002850154604051633b00fcff60e11b81526001600160a01b039182166004820152602481018390526044810184905290851690637601f9fe9083906064016000604051808303818588803b158015612b2757600080fd5b505af1158015612b3b573d6000803e3d6000fd5b5050505050600061271060045483612b5391906143e4565b612b5d9190614401565b90506000612710600d5483612b7291906143e4565b612b7c9190614401565b90508060056000828254612b909190614488565b90915550508015612c54576002870154604051633352071360e11b81526001600160a01b03918216600482015260006024820152908716906366a40e269083906044016000604051808303818588803b158015612bec57600080fd5b505af1158015612c00573d6000803e3d6000fd5b50505050600288015460408051848152602081018690526001600160a01b039283169350918916917fc982e7967fb960b701a067b4e881e50050b566f3b82a9c94e4f8a8c23174edf9910160405180910390a35b60018701546002880154612c75916001600160a01b0391821691168661325d565b5050612eef565b600285015460405163095ea7b360e01b81526001600160a01b038681166004830152602482018590529091169063095ea7b3906044016020604051808303816000875af1158015612cd1573d6000803e3d6000fd5b505050506040513d601f19601f82011682018060405250810190612cf591906143c2565b506002850154604051635fbc13ef60e01b81526001600160a01b039182166004820152602481018390526044810184905290851690635fbc13ef90606401600060405180830381600087803b158015612d4d57600080fd5b505af1158015612d61573d6000803e3d6000fd5b505050506000612d70826135d5565b90506000612d7e8284614488565b90506000612710600d5484612d9391906143e4565b612d9d9190614401565b90508060056000828254612db19190614488565b90915550508015612e75576002880154604051633352071360e11b81526001600160a01b03918216600482015260016024820152908816906366a40e269083906044016000604051808303818588803b158015612e0d57600080fd5b505af1158015612e21573d6000803e3d6000fd5b50505050600289015460408051848152602081018790526001600160a01b039283169350918a16917fc982e7967fb960b701a067b4e881e50050b566f3b82a9c94e4f8a8c23174edf9910160405180910390a35b60018801546040516000916001600160a01b03169084908381818185875af1925050503d8060008114612ec4576040519150601f19603f3d011682016040523d82523d6000602084013e612ec9565b606091505b5050905080612eea5760405162461bcd60e51b815260040161074990614665565b505050505b81856005016000828254612f039190614423565b90915550506003850154600586015403612f4e5760078501805460ff1916600117905560405182815287906000805160206146e18339815191529060200160405180910390a2612f8c565b866000805160206147018339815191528387600501548860030154612f739190614488565b6040805192835260208301919091520160405180910390a25b836001600160a01b0316877fe332d84b9d7b6ed7b61613e3346be661c47cd1bcb330e8cdb0887aa2d3425e6e848860040154604051612fd5929190918252602082015260400190565b60405180910390a350505050505050565b8151600090815260066020908152604080832091850151835282209091600783015460ff16600381111561301c5761301c6141d8565b14801561304157506000600782015460ff16600381111561303f5761303f6141d8565b145b6130855760405162461bcd60e51b81526020600482015260156024820152744f7264657273206d7573742062652061637469766560581b6044820152606401610749565b835161309090611aea565b1580156130a757506130a58460200151611aea565b155b6130e45760405162461bcd60e51b815260206004820152600e60248201526d13dc99195c9cc8195e1c1a5c995960921b6044820152606401610749565b6000600183810154600160a01b900460ff1690811115613106576131066141d8565b148015613131575060018082810154600160a01b900460ff169081111561312f5761312f6141d8565b145b6131735760405162461bcd60e51b8152602060048201526013602482015272496e76616c6964206f7264657220747970657360681b6044820152606401610749565b600280820154908301546001600160a01b039081169116146131c85760405162461bcd60e51b815260206004820152600e60248201526d0a8ded6cadc40dad2e6dac2e8c6d60931b6044820152606401610749565b60018083810154600160a81b900460ff16908111156131e9576131e96141d8565b1480613213575060018082810154600160a81b900460ff1690811115613211576132116141d8565b145b6132535760405162461bcd60e51b81526020600482015260116024820152704e6f74206d61726b6574206f726465727360781b6044820152606401610749565b6112918484613684565b6040516001600160a01b0383811660248301526044820183905261233c91859182169063a9059cbb906064016127e6565b600080546001600160a01b038381166001600160a01b0319831681178455604051919092169283917f8be0079c531659141344cd1fd0a4f28419497f9722a3daafe3b4186f6b6457e09190a35050565b8051600090815260066020908152604080832091840151835282209091600783015460ff166003811115613314576133146141d8565b14801561333957506000600782015460ff166003811115613337576133376141d8565b145b61337d5760405162461bcd60e51b81526020600482015260156024820152744f7264657273206d7573742062652061637469766560581b6044820152606401610749565b825161338890611aea565b15801561339f575061339d8360200151611aea565b155b6133eb5760405162461bcd60e51b815260206004820152601760248201527f31206f6620746865206f726465727320657870697265640000000000000000006044820152606401610749565b6000600183810154600160a01b900460ff169081111561340d5761340d6141d8565b148015613438575060018082810154600160a01b900460ff1690811115613436576134366141d8565b145b61347a5760405162461bcd60e51b8152602060048201526013602482015272496e76616c6964206f7264657220747970657360681b6044820152606401610749565b600280820154908301546001600160a01b039081169116146134cf5760405162461bcd60e51b815260206004820152600e60248201526d0a8ded6cadc40dad2e6dac2e8c6d60931b6044820152606401610749565b600180820154908301546001600160a01b0391821691160361353f5760405162461bcd60e51b815260206004820152602360248201527f53656c6c657220616e642062757965722063616e6e6f74206265207468652073604482015262616d6560e81b6064820152608401610749565b6000600183810154600160a81b900460ff1690811115613561576135616141d8565b14801561358d57506000600182810154600160a81b900460ff169081111561358b5761358b6141d8565b145b6135cc5760405162461bcd60e51b815260206004820152601060248201526f4e6f74206c696d6974206f726465727360801b6044820152606401610749565b61233c83613a4f565b600080612710600454846135e991906143e4565b6135f39190614401565b905080600560008282546136079190614423565b90915550909392505050565b600080602060008451602086016000885af180613636576040513d6000823e3d81fd5b50506000513d9150811561364e57806001141561365b565b6001600160a01b0384163b155b1561129157604051635274afe760e01b81526001600160a01b0385166004820152602401610749565b8151600090815260066020908152604080832091850151835290912060018083810154600160a81b900460ff16908111156136c1576136c16141d8565b0361372c57816004015483111561372c5760405162461bcd60e51b815260206004820152602960248201527f457865637574696f6e20707269636520657863656564732062757965722773206044820152686d617820707269636560b81b6064820152608401610749565b60018082810154600160a81b900460ff169081111561374d5761374d6141d8565b036137b75780600401548310156137b75760405162461bcd60e51b815260206004820152602860248201527f457865637574696f6e2070726963652062656c6f772073656c6c65722773206d604482015267696e20707269636560c01b6064820152608401610749565b6000826005015483600301546137cd9190614488565b90506000826005015483600301546137e59190614488565b6040870151909150828111156137f85750815b818111156138035750805b600081116138235760405162461bcd60e51b815260040161074990614604565b806000670de0b6b3a764000061383989846143e4565b6138439190614401565b90506000613850826135d5565b9050600061385e8284614488565b60018901546040519192506000916001600160a01b039091169083908381818185875af1925050503d80600081146138b2576040519150601f19603f3d011682016040523d82523d6000602084013e6138b7565b606091505b50509050806138d85760405162461bcd60e51b815260040161074990614665565b60018a015460028a01546138f9916001600160a01b0391821691168761325d565b858a600501600082825461390d9190614423565b92505081905550858960050160008282546139289190614423565b909155505060038a015460058b0154036139735760078a01805460ff191660011790558b516040518781526000805160206146e18339815191529060200160405180910390a26139b5565b8b60000151600080516020614701833981519152878c600501548d6003015461399c9190614488565b6040805192835260208301919091520160405180910390a25b88600301548960050154036139ff5760078901805460ff191660011790556020808d015160405188815290916000805160206146e1833981519152910160405180910390a2613a41565b8b60200151600080516020614701833981519152878b600501548c60030154613a289190614488565b6040805192835260208301919091520160405180910390a25b505050505050505050505050565b80516000908152600660209081526040808320918401518352909120600480820154908301541015613ac35760405162461bcd60e51b815260206004820152601f60248201527f5072696365206d69736d6174636820666f72206c696d6974206f7264657273006044820152606401610749565b600082600501548360030154613ad99190614488565b9050600082600501548360030154613af19190614488565b604086015190915082811115613b045750815b81811115613b0f5750805b60008111613b2f5760405162461bcd60e51b815260040161074990614604565b60048401548190600090670de0b6b3a764000090613b4d90846143e4565b613b579190614401565b90506000613b64826135d5565b90506000613b728284614488565b60018901546040519192506000916001600160a01b039091169083908381818185875af1925050503d8060008114613bc6576040519150601f19603f3d011682016040523d82523d6000602084013e613bcb565b606091505b5050905080613bec5760405162461bcd60e51b815260040161074990614665565b60018a015460028a0154613c0d916001600160a01b0391821691168761325d565b858a6005016000828254613c219190614423565b9250508190555085896005016000828254613c3c9190614423565b90915550506004808a0154908b01541115613d2e576000670de0b6b3a76400008a600401548c60040154613c709190614488565b613c7a90896143e4565b613c849190614401565b60018c01546040519192506001600160a01b0316908290600081818185875af1925050503d8060008114613cd4576040519150601f19603f3d011682016040523d82523d6000602084013e613cd9565b606091505b50508092505081613d2c5760405162461bcd60e51b815260206004820152601960248201527f45544820736176696e67732072657475726e206661696c6564000000000000006044820152606401610749565b505b89600301548a6005015403613d745760078a01805460ff191660011790558a516040518781526000805160206146e18339815191529060200160405180910390a2613db6565b8a60000151600080516020614701833981519152878c600501548d60030154613d9d9190614488565b6040805192835260208301919091520160405180910390a25b8860030154896005015403613e005760078901805460ff191660011790556020808c015160405188815290916000805160206146e1833981519152910160405180910390a2613e42565b8a60200151600080516020614701833981519152878b600501548c60030154613e299190614488565b6040805192835260208301919091520160405180910390a25b5050505050505050505050565b6040805161014081018252600080825260208201819052909182019081526020016000815260200160006001600160a01b031681526020016000815260200160008152602001600081526020016000815260200160006003811115613eb657613eb66141d8565b905290565b600060208284031215613ecd57600080fd5b5035919050565b6002811061179f57600080fd5b6001600160a01b038116811461179f57600080fd5b60008060008060008060c08789031215613f0f57600080fd5b8635613f1a81613ed4565b95506020870135613f2a81613ed4565b94506040870135613f3a81613ee1565b959894975094956060810135955060808101359460a0909101359350915050565b60008060408385031215613f6e57600080fd5b50508035926020909101359150565b600060208284031215613f8f57600080fd5b8135613f9a81613ee1565b9392505050565b600080600060608486031215613fb657600080fd5b8335613fc181613ee1565b92506020840135613fd181613ed4565b91506040840135613fe181613ed4565b809150509250925092565b602080825282518282018190526000918401906040840190835b81811015614024578351835260209384019390920191600101614006565b509095945050505050565b60008083601f84011261404157600080fd5b50813567ffffffffffffffff81111561405957600080fd5b6020830191508360208260051b850101111561407457600080fd5b9250929050565b6000806000806040858703121561409157600080fd5b843567ffffffffffffffff8111156140a857600080fd5b6140b48782880161402f565b909550935050602085013567ffffffffffffffff8111156140d457600080fd5b6140e08782880161402f565b95989497509550505050565b60008083601f8401126140fe57600080fd5b50813567ffffffffffffffff81111561411657600080fd5b60208301915083602060608302850101111561407457600080fd5b6000806000806040858703121561414757600080fd5b843567ffffffffffffffff81111561415e57600080fd5b6140b4878288016140ec565b6000806020838503121561417d57600080fd5b823567ffffffffffffffff81111561419457600080fd5b6141a0858286016140ec565b90969095509350505050565b6000806000606084860312156141c157600080fd5b505081359360208301359350604090920135919050565b634e487b7160e01b600052602160045260246000fd5b6002811061179f5761179f6141d8565b614207816141ee565b9052565b60048110614207576142076141d8565b8a81526001600160a01b038a166020820152610140810161423b8a6141ee565b89604083015261424a896141ee565b88606083015260018060a01b03881660808301528660a08301528560c08301528460e08301528361010083015261428561012083018461420b565b9b9a5050505050505050505050565b600080600080600060a086880312156142ac57600080fd5b85356142b781613ee1565b945060208601356142c781613ed4565b935060408601356142d781613ed4565b94979396509394606081013594506080013592915050565b81518152602080830151610140830191614313908401826001600160a01b03169052565b50604083015161432660408401826141fe565b50606083015161433960608401826141fe565b50608083015161435460808401826001600160a01b03169052565b5060a083015160a083015260c083015160c083015260e083015160e08301526101008301516101008301526101208301516106fd61012084018261420b565b634e487b7160e01b600052601160045260246000fd5b6000600182016143bb576143bb614393565b5060010190565b6000602082840312156143d457600080fd5b81518015158114613f9a57600080fd5b80820281158282048414176143fb576143fb614393565b92915050565b60008261441e57634e487b7160e01b600052601260045260246000fd5b500490565b808201808211156143fb576143fb614393565b60e08101614443896141ee565b88825261444f886141ee565b60208201979097526001600160a01b039590951660408601526060850193909352608084019190915260a083015260c090910152919050565b818103818111156143fb576143fb614393565b634e487b7160e01b600052604160045260246000fd5b634e487b7160e01b600052603260045260246000fd5b60208082526018908201527f43616c6c6572206973206e6f7420617574686f72697a65640000000000000000604082015260600190565b60208082526022908201527f46696c6c20616d6f756e74206d7573742062652067726561746572207468616e604082015261020360f41b606082015260800190565b6000606082840312801561455357600080fd5b600090506040516060810181811067ffffffffffffffff8211171561458657634e487b7160e01b83526041600452602483fd5b604090815284358252602080860135908301529384013593810193909352509092915050565b60208082526014908201527313dc99195c88191bd95cc81b9bdd08195e1a5cdd60621b604082015260600190565b60208082526010908201526f4f72646572206e6f742061637469766560801b604082015260600190565b602080825260119082015270139bc8185b5bdd5b9d081d1bc8199a5b1b607a1b604082015260600190565b60006020828403121561464157600080fd5b8151613f9a81613ee1565b60006020828403121561465e57600080fd5b5051919050565b6020808252601d908201527f455448207472616e7366657220746f2073656c6c6572206661696c6564000000604082015260600190565b6bffffffffffffffffffffffff198460601b1681526146ba836141ee565b8260f81b60148201526146cc826141ee565b60f89190911b60158201526016019291505056feeb3b41be12efa25c0c65725eeff2e2ad0250e2e5de2aa939e18f36aa656e98808f9f7f58643161141dd2b5b862b54ab647f74549d3b06fd4430272bcc411678ca264697066735822122080af33232ee3376ac9e182520eb7756e7bfbc907825092b501591fec79c240c564736f6c634300081a0033",
  "linkReferences": {},
  "deployedLinkReferences": {}
}