{
  "_format": "hh-sol-artifact-1",
  "contractName": "FallbackExecutor",
  "sourceName": "contracts/FallbackExecutor.sol",
  "abi": [
    {
      "inputs": [
        {
          "internalType": "contract IGradientRegistry",
          "name": "_gradientRegistry",
          "type": "address"
        }
      ],
      "stateMutability": "nonpayable",
      "type": "constructor"
    },
    {
      "inputs": [
        {
          "internalType": "address",
          "name": "owner",
          "type": "address"
        }
      ],
      "name": "OwnableInvalidOwner",
      "type": "error"
    },
    {
      "inputs": [
        {
          "internalType": "address",
          "name": "account",
          "type": "address"
        }
      ],
      "name": "OwnableUnauthorizedAccount",
      "type": "error"
    },
    {
      "inputs": [],
      "name": "ReentrancyGuardReentrantCall",
      "type": "error"
    },
    {
      "inputs": [
        {
          "internalType": "address",
          "name": "token",
          "type": "address"
        }
      ],
      "name": "SafeERC20FailedOperation",
      "type": "error"
    },
    {
      "anonymous": false,
      "inputs": [
        {
          "indexed": true,
          "internalType": "address",
          "name": "dex",
          "type": "address"
        },
        {
          "indexed": false,
          "internalType": "address",
          "name": "router",
          "type": "address"
        },
        {
          "indexed": false,
          "internalType": "address",
          "name": "factory",
          "type": "address"
        }
      ],
      "name": "DEXAdded",
      "type": "event"
    },
    {
      "anonymous": false,
      "inputs": [
        {
          "indexed": true,
          "internalType": "address",
          "name": "dex",
          "type": "address"
        }
      ],
      "name": "DEXRemoved",
      "type": "event"
    },
    {
      "anonymous": false,
      "inputs": [
        {
          "indexed": true,
          "internalType": "address",
          "name": "previousOwner",
          "type": "address"
        },
        {
          "indexed": true,
          "internalType": "address",
          "name": "newOwner",
          "type": "address"
        }
      ],
      "name": "OwnershipTransferred",
      "type": "event"
    },
    {
      "anonymous": false,
      "inputs": [
        {
          "indexed": false,
          "internalType": "uint256",
          "name": "newSlippage",
          "type": "uint256"
        }
      ],
      "name": "SlippageUpdated",
      "type": "event"
    },
    {
      "anonymous": false,
      "inputs": [
        {
          "indexed": true,
          "internalType": "address",
          "name": "token",
          "type": "address"
        },
        {
          "indexed": true,
          "internalType": "address",
          "name": "dex",
          "type": "address"
        },
        {
          "indexed": false,
          "internalType": "uint256",
          "name": "amountIn",
          "type": "uint256"
        },
        {
          "indexed": false,
          "internalType": "uint256",
          "name": "amountOut",
          "type": "uint256"
        },
        {
          "indexed": false,
          "internalType": "bool",
          "name": "isBuy",
          "type": "bool"
        }
      ],
      "name": "TradeExecuted",
      "type": "event"
    },
    {
      "inputs": [],
      "name": "BASIS_POINTS",
      "outputs": [
        {
          "internalType": "uint256",
          "name": "",
          "type": "uint256"
        }
      ],
      "stateMutability": "view",
      "type": "function"
    },
    {
      "inputs": [],
      "name": "MAX_SLIPPAGE",
      "outputs": [
        {
          "internalType": "uint256",
          "name": "",
          "type": "uint256"
        }
      ],
      "stateMutability": "view",
      "type": "function"
    },
    {
      "inputs": [
        {
          "internalType": "uint256",
          "name": "",
          "type": "uint256"
        }
      ],
      "name": "activeDEXes",
      "outputs": [
        {
          "internalType": "address",
          "name": "",
          "type": "address"
        }
      ],
      "stateMutability": "view",
      "type": "function"
    },
    {
      "inputs": [
        {
          "internalType": "address",
          "name": "dex",
          "type": "address"
        },
        {
          "internalType": "address",
          "name": "router",
          "type": "address"
        },
        {
          "internalType": "address",
          "name": "factory",
          "type": "address"
        },
        {
          "internalType": "uint256",
          "name": "priority",
          "type": "uint256"
        }
      ],
      "name": "addDEX",
      "outputs": [],
      "stateMutability": "nonpayable",
      "type": "function"
    },
    {
      "inputs": [
        {
          "internalType": "address",
          "name": "",
          "type": "address"
        }
      ],
      "name": "dexes",
      "outputs": [
        {
          "internalType": "address",
          "name": "router",
          "type": "address"
        },
        {
          "internalType": "address",
          "name": "factory",
          "type": "address"
        },
        {
          "internalType": "bool",
          "name": "isActive",
          "type": "bool"
        },
        {
          "internalType": "uint256",
          "name": "priority",
          "type": "uint256"
        }
      ],
      "stateMutability": "view",
      "type": "function"
    },
    {
      "inputs": [
        {
          "internalType": "address",
          "name": "token",
          "type": "address"
        },
        {
          "internalType": "uint256",
          "name": "amount",
          "type": "uint256"
        },
        {
          "internalType": "uint256",
          "name": "minAmountOut",
          "type": "uint256"
        },
        {
          "internalType": "bool",
          "name": "isBuy",
          "type": "bool"
        }
      ],
      "name": "executeTrade",
      "outputs": [
        {
          "internalType": "uint256",
          "name": "amountOut",
          "type": "uint256"
        }
      ],
      "stateMutability": "payable",
      "type": "function"
    },
    {
      "inputs": [],
      "name": "gradientRegistry",
      "outputs": [
        {
          "internalType": "contract IGradientRegistry",
          "name": "",
          "type": "address"
        }
      ],
      "stateMutability": "view",
      "type": "function"
    },
    {
      "inputs": [],
      "name": "owner",
      "outputs": [
        {
          "internalType": "address",
          "name": "",
          "type": "address"
        }
      ],
      "stateMutability": "view",
      "type": "function"
    },
    {
      "inputs": [
        {
          "internalType": "address",
          "name": "dex",
          "type": "address"
        }
      ],
      "name": "removeDEX",
      "outputs": [],
      "stateMutability": "nonpayable",
      "type": "function"
    },
    {
      "inputs": [],
      "name": "renounceOwnership",
      "outputs": [],
      "stateMutability": "nonpayable",
      "type": "function"
    },
    {
      "inputs": [
        {
          "internalType": "address",
          "name": "newOwner",
          "type": "address"
        }
      ],
      "name": "transferOwnership",
      "outputs": [],
      "stateMutability": "nonpayable",
      "type": "function"
    },
    {
      "stateMutability": "payable",
      "type": "receive"
    }
  ],
  "bytecode": "0x60a060405234801561001057600080fd5b506040516118a63803806118a683398101604081905261002f916100c7565b6001600055338061005a57604051631e4fbdf760e01b81526000600482015260240160405180910390fd5b61006381610075565b506001600160a01b03166080526100f7565b600180546001600160a01b038381166001600160a01b0319831681179093556040519116919082907f8be0079c531659141344cd1fd0a4f28419497f9722a3daafe3b4186f6b6457e090600090a35050565b6000602082840312156100d957600080fd5b81516001600160a01b03811681146100f057600080fd5b9392505050565b60805161178d610119600039600081816101330152610387015261178d6000f3fe6080604052600436106100a05760003560e01c80638da5cb5b116100645780638da5cb5b14610175578063a7ca71ca14610193578063e1f1c4a714610219578063e704d6c41461022f578063f2fde38b1461024f578063f97595181461026f57600080fd5b80634fc65751146100ac578063715018a6146100e9578063815a1a0d14610100578063830562bc146101215780638c8f3f821461015557600080fd5b366100a757005b600080fd5b3480156100b857600080fd5b506100cc6100c7366004611480565b610285565b6040516001600160a01b0390911681526020015b60405180910390f35b3480156100f557600080fd5b506100fe6102af565b005b61011361010e3660046114bc565b6102c3565b6040519081526020016100e0565b34801561012d57600080fd5b506100cc7f000000000000000000000000000000000000000000000000000000000000000081565b34801561016157600080fd5b506100fe610170366004611506565b610a4c565b34801561018157600080fd5b506001546001600160a01b03166100cc565b34801561019f57600080fd5b506101e86101ae366004611506565b60026020819052600091825260409091208054600182015491909201546001600160a01b0392831692821691600160a01b900460ff169084565b604080516001600160a01b0395861681529490931660208501529015159183019190915260608201526080016100e0565b34801561022557600080fd5b5061011361271081565b34801561023b57600080fd5b506100fe61024a366004611523565b610c10565b34801561025b57600080fd5b506100fe61026a366004611506565b610e6b565b34801561027b57600080fd5b506101136103e881565b6003818154811061029557600080fd5b6000918252602090912001546001600160a01b0316905081565b6102b7610ea9565b6102c16000610ed6565b565b60006102cd610f28565b6001600160a01b0385166103185760405162461bcd60e51b815260206004820152600d60248201526c24b73b30b634b2103a37b5b2b760991b60448201526064015b60405180910390fd5b600084116103685760405162461bcd60e51b815260206004820152601d60248201527f416d6f756e74206d7573742062652067726561746572207468616e2030000000604482015260640161030f565b604051630736b32b60e31b81526001600160a01b0386811660048301527f000000000000000000000000000000000000000000000000000000000000000016906339b5995890602401602060405180830381865afa1580156103ce573d6000803e3d6000fd5b505050506040513d601f19601f820116820180604052508101906103f29190611574565b156104325760405162461bcd60e51b815260206004820152601060248201526f151bdad95b881a5cc8189b1bd8dad95960821b604482015260640161030f565b811561049457833410156104945760405162461bcd60e51b815260206004820152602360248201527f496e73756666696369656e74204554482073656e7420666f7220627579206f726044820152623232b960e91b606482015260840161030f565b60006104a1868685610f52565b90506001600160a01b0381166104f15760405162461bcd60e51b8152602060048201526015602482015274139bc81cdd5a5d18589b194811115608199bdd5b99605a1b604482015260640161030f565b6001600160a01b03818116600090815260026020819052604080832080548251848152606081019093529094169291816020016020820280368337019050509050851561060657816001600160a01b031663ad5c46486040518163ffffffff1660e01b8152600401602060405180830381865afa158015610576573d6000803e3d6000fd5b505050506040513d601f19601f8201168201806040525081019061059a9190611591565b816000815181106105ad576105ad6115ae565b60200260200101906001600160a01b031690816001600160a01b03168152505088816001815181106105e1576105e16115ae565b60200260200101906001600160a01b031690816001600160a01b0316815250506106d0565b888160008151811061061a5761061a6115ae565b60200260200101906001600160a01b031690816001600160a01b031681525050816001600160a01b031663ad5c46486040518163ffffffff1660e01b8152600401602060405180830381865afa158015610678573d6000803e3d6000fd5b505050506040513d601f19601f8201168201806040525081019061069c9190611591565b816001815181106106af576106af6115ae565b60200260200101906001600160a01b031690816001600160a01b0316815250505b8515610833576040516370a0823160e01b81523360048201526000906001600160a01b038b16906370a0823190602401602060405180830381865afa15801561071d573d6000803e3d6000fd5b505050506040513d601f19601f8201168201806040525081019061074191906115c4565b90506001600160a01b03831663b6f9de958a8a85336107624261012c6115f3565b6040518663ffffffff1660e01b81526004016107819493929190611651565b6000604051808303818588803b15801561079a57600080fd5b505af11580156107ae573d6000803e3d6000fd5b50506040516370a0823160e01b8152336004820152600093506001600160a01b038e1692506370a082319150602401602060405180830381865afa1580156107fa573d6000803e3d6000fd5b505050506040513d601f19601f8201168201806040525081019061081e91906115c4565b905061082a8282611686565b965050506109d4565b476108496001600160a01b038b1633308c610fbc565b835460405163095ea7b360e01b81526001600160a01b039182166004820152602481018b9052908b169063095ea7b3906044016020604051808303816000875af115801561089b573d6000803e3d6000fd5b505050506040513d601f19601f820116820180604052508101906108bf9190611574565b506001600160a01b03831663791ac9478a8a85306108df4261012c6115f3565b6040518663ffffffff1660e01b81526004016108ff959493929190611699565b600060405180830381600087803b15801561091957600080fd5b505af115801561092d573d6000803e3d6000fd5b5047925061093f915083905082611686565b604051909750600090339089908381818185875af1925050503d8060008114610984576040519150601f19603f3d011682016040523d82523d6000602084013e610989565b606091505b50509050806109d05760405162461bcd60e51b8152602060048201526013602482015272115512081d1c985b9cd9995c8819985a5b1959606a1b604482015260640161030f565b5050505b836001600160a01b0316896001600160a01b03167fa5f8a4ef50801e7d44113fd9c467aec2fa7583dc5344619557ae4fcd77bd043f8a888a604051610a2e9392919092835260208301919091521515604082015260600190565b60405180910390a350505050610a446001600055565b949350505050565b610a54610ea9565b6001600160a01b038116600090815260026020526040902060010154600160a01b900460ff16610ab65760405162461bcd60e51b815260206004820152600d60248201526c111156081b9bdd08199bdd5b99609a1b604482015260640161030f565b6001600160a01b0381166000908152600260205260408120600101805460ff60a01b191690555b600354811015610bd857816001600160a01b031660038281548110610b0457610b046115ae565b6000918252602090912001546001600160a01b031603610bd05760038054610b2e90600190611686565b81548110610b3e57610b3e6115ae565b600091825260209091200154600380546001600160a01b039092169183908110610b6a57610b6a6115ae565b9060005260206000200160006101000a8154816001600160a01b0302191690836001600160a01b031602179055506003805480610ba957610ba96116d5565b600082815260209020810160001990810180546001600160a01b0319169055019055610bd8565b600101610add565b506040516001600160a01b038216907f1921ba6698157d491d41801286e9e17aee1c25965119e55403ba396b104b95db90600090a250565b610c18610ea9565b6001600160a01b038416610c5c5760405162461bcd60e51b815260206004820152600b60248201526a092dcecc2d8d2c840888ab60ab1b604482015260640161030f565b6001600160a01b038316610ca35760405162461bcd60e51b815260206004820152600e60248201526d24b73b30b634b2103937baba32b960911b604482015260640161030f565b6001600160a01b038216610ceb5760405162461bcd60e51b815260206004820152600f60248201526e496e76616c696420666163746f727960881b604482015260640161030f565b6001600160a01b038416600090815260026020526040902060010154600160a01b900460ff1615610d535760405162461bcd60e51b815260206004820152601260248201527144455820616c72656164792065786973747360701b604482015260640161030f565b604080516080810182526001600160a01b03808616825284811660208084019182526001848601818152606086018881528b86166000818152600295869052988920975188549088166001600160a01b03199182161789559551888501805494511515600160a01b026001600160a81b0319909516919098161792909217909555935194909101939093556003805493840181559093527fc2575a0e9e593c00f959f8c92f12db2869c3395a3b0502d05e2516446f71f85b9091018054909216179055610e1e61101c565b604080516001600160a01b03858116825284811660208301528616917f2161d26dd2e031506bee289a523abc3337bfa101a08626541f6978f76048eac7910160405180910390a250505050565b610e73610ea9565b6001600160a01b038116610e9d57604051631e4fbdf760e01b81526000600482015260240161030f565b610ea681610ed6565b50565b6001546001600160a01b031633146102c15760405163118cdaa760e01b815233600482015260240161030f565b600180546001600160a01b038381166001600160a01b0319831681179093556040519116919082907f8be0079c531659141344cd1fd0a4f28419497f9722a3daafe3b4186f6b6457e090600090a35050565b600260005403610f4b57604051633ee5aeb560e01b815260040160405180910390fd5b6002600055565b6000805b600354811015610faf57600060038281548110610f7557610f756115ae565b6000918252602090912001546001600160a01b03169050610f98818787876111db565b15610fa6579150610fb59050565b50600101610f56565b50600090505b9392505050565b604080516001600160a01b0385811660248301528416604482015260648082018490528251808303909101815260849091019091526020810180516001600160e01b03166323b872dd60e01b17905261101690859061140f565b50505050565b60005b600354811015610ea65760005b60035460019061103d908490611686565b6110479190611686565b8110156111d25760026000600361105f8460016115f3565b8154811061106f5761106f6115ae565b60009182526020808320909101546001600160a01b03168352820192909252604001812060029081015460038054919391859081106110b0576110b06115ae565b60009182526020808320909101546001600160a01b0316835282019290925260400190206002015411156111ca576000600382815481106110f3576110f36115ae565b6000918252602090912001546001600160a01b0316905060036111178360016115f3565b81548110611127576111276115ae565b600091825260209091200154600380546001600160a01b039092169184908110611153576111536115ae565b600091825260209091200180546001600160a01b0319166001600160a01b039290921691909117905580600361118a8460016115f3565b8154811061119a5761119a6115ae565b9060005260206000200160006101000a8154816001600160a01b0302191690836001600160a01b03160217905550505b60010161102c565b5060010161101f565b6001600160a01b03841660009081526002602052604081206001810154600160a01b900460ff16611210576000915050610a44565b8054604080516315ab88c960e31b815290516001600160a01b0390921691600091839163ad5c4648916004808201926020929091908290030181865afa15801561125e573d6000803e3d6000fd5b505050506040513d601f19601f820116820180604052508101906112829190611591565b600184015460405163e6a4390560e01b81526001600160a01b038a8116600483015280841660248301529293506000929091169063e6a4390590604401602060405180830381865afa1580156112dc573d6000803e3d6000fd5b505050506040513d601f19601f820116820180604052508101906113009190611591565b90506001600160a01b03811661131d576000945050505050610a44565b600080826001600160a01b0316630902f1ac6040518163ffffffff1660e01b8152600401606060405180830381865afa15801561135e573d6000803e3d6000fd5b505050506040513d601f19601f820116820180604052508101906113829190611707565b50915091506000846001600160a01b03168b6001600160a01b0316106113a857816113aa565b825b6001600160701b031690506000856001600160a01b03168c6001600160a01b0316106113d657836113d8565b825b6001600160701b0316905089156113fc578a81101598505050505050505050610a44565b8a82101598505050505050505050610a44565b600080602060008451602086016000885af180611432576040513d6000823e3d81fd5b50506000513d9150811561144a578060011415611457565b6001600160a01b0384163b155b1561101657604051635274afe760e01b81526001600160a01b038516600482015260240161030f565b60006020828403121561149257600080fd5b5035919050565b6001600160a01b0381168114610ea657600080fd5b8015158114610ea657600080fd5b600080600080608085870312156114d257600080fd5b84356114dd81611499565b9350602085013592506040850135915060608501356114fb816114ae565b939692955090935050565b60006020828403121561151857600080fd5b8135610fb581611499565b6000806000806080858703121561153957600080fd5b843561154481611499565b9350602085013561155481611499565b9250604085013561156481611499565b9396929550929360600135925050565b60006020828403121561158657600080fd5b8151610fb5816114ae565b6000602082840312156115a357600080fd5b8151610fb581611499565b634e487b7160e01b600052603260045260246000fd5b6000602082840312156115d657600080fd5b5051919050565b634e487b7160e01b600052601160045260246000fd5b80820180821115611606576116066115dd565b92915050565b600081518084526020840193506020830160005b828110156116475781516001600160a01b0316865260209586019590910190600101611620565b5093949350505050565b84815260806020820152600061166a608083018661160c565b6001600160a01b03949094166040830152506060015292915050565b81810381811115611606576116066115dd565b85815284602082015260a0604082015260006116b860a083018661160c565b6001600160a01b0394909416606083015250608001529392505050565b634e487b7160e01b600052603160045260246000fd5b80516001600160701b038116811461170257600080fd5b919050565b60008060006060848603121561171c57600080fd5b611725846116eb565b9250611733602085016116eb565b9150604084015163ffffffff8116811461174c57600080fd5b80915050925092509256fea26469706673582212206efa89543bedbf9d516f363bc1e9303a19192869ffe4de6fae69ec3a459ac24a64736f6c634300081a0033",
  "linkReferences": {},
  "deployedLinkReferences": {}
}