{
  "_format": "hh-sol-artifact-1",
  "contractName": "GradientMarketMakerPool",
  "sourceName": "contracts/GradientMarketMakerPool.sol",
  "abi": [
    {
      "inputs": [
        {
          "internalType": "contract IGradientRegistry",
          "name": "_gradientRegistry",
          "type": "address"
        }
      ],
      "stateMutability": "nonpayable",
      "type": "constructor"
    },
    {
      "inputs": [
        {
          "internalType": "address",
          "name": "owner",
          "type": "address"
        }
      ],
      "name": "OwnableInvalidOwner",
      "type": "error"
    },
    {
      "inputs": [
        {
          "internalType": "address",
          "name": "account",
          "type": "address"
        }
      ],
      "name": "OwnableUnauthorizedAccount",
      "type": "error"
    },
    {
      "inputs": [],
      "name": "ReentrancyGuardReentrantCall",
      "type": "error"
    },
    {
      "inputs": [
        {
          "internalType": "address",
          "name": "token",
          "type": "address"
        }
      ],
      "name": "SafeERC20FailedOperation",
      "type": "error"
    },
    {
      "anonymous": false,
      "inputs": [
        {
          "indexed": true,
          "internalType": "address",
          "name": "buyer",
          "type": "address"
        },
        {
          "indexed": false,
          "internalType": "address",
          "name": "token",
          "type": "address"
        },
        {
          "indexed": false,
          "internalType": "uint256",
          "name": "ethAmount",
          "type": "uint256"
        },
        {
          "indexed": false,
          "internalType": "uint256",
          "name": "tokenAmount",
          "type": "uint256"
        }
      ],
      "name": "BuyOrderFulfilled",
      "type": "event"
    },
    {
      "anonymous": false,
      "inputs": [
        {
          "indexed": true,
          "internalType": "address",
          "name": "user",
          "type": "address"
        },
        {
          "indexed": false,
          "internalType": "address",
          "name": "token",
          "type": "address"
        },
        {
          "indexed": false,
          "internalType": "uint256",
          "name": "ethAmount",
          "type": "uint256"
        },
        {
          "indexed": false,
          "internalType": "uint256",
          "name": "lpSharesMinted",
          "type": "uint256"
        }
      ],
      "name": "ETHLiquidityDeposited",
      "type": "event"
    },
    {
      "anonymous": false,
      "inputs": [
        {
          "indexed": true,
          "internalType": "address",
          "name": "user",
          "type": "address"
        },
        {
          "indexed": false,
          "internalType": "address",
          "name": "token",
          "type": "address"
        },
        {
          "indexed": false,
          "internalType": "uint256",
          "name": "ethAmount",
          "type": "uint256"
        },
        {
          "indexed": false,
          "internalType": "uint256",
          "name": "lpSharesBurned",
          "type": "uint256"
        }
      ],
      "name": "ETHLiquidityWithdrawn",
      "type": "event"
    },
    {
      "anonymous": false,
      "inputs": [
        {
          "indexed": true,
          "internalType": "address",
          "name": "orderbook",
          "type": "address"
        },
        {
          "indexed": false,
          "internalType": "uint256",
          "name": "amount",
          "type": "uint256"
        },
        {
          "indexed": true,
          "internalType": "address",
          "name": "token",
          "type": "address"
        }
      ],
      "name": "ETHReceivedFromOrderbook",
      "type": "event"
    },
    {
      "anonymous": false,
      "inputs": [
        {
          "indexed": true,
          "internalType": "address",
          "name": "orderbook",
          "type": "address"
        },
        {
          "indexed": false,
          "internalType": "uint256",
          "name": "amount",
          "type": "uint256"
        },
        {
          "indexed": true,
          "internalType": "address",
          "name": "token",
          "type": "address"
        }
      ],
      "name": "ETHTransferredToOrderbook",
      "type": "event"
    },
    {
      "anonymous": false,
      "inputs": [
        {
          "indexed": true,
          "internalType": "address",
          "name": "previousOwner",
          "type": "address"
        },
        {
          "indexed": true,
          "internalType": "address",
          "name": "newOwner",
          "type": "address"
        }
      ],
      "name": "OwnershipTransferred",
      "type": "event"
    },
    {
      "anonymous": false,
      "inputs": [
        {
          "indexed": true,
          "internalType": "address",
          "name": "token",
          "type": "address"
        },
        {
          "indexed": false,
          "internalType": "uint256",
          "name": "newTotalEth",
          "type": "uint256"
        },
        {
          "indexed": false,
          "internalType": "uint256",
          "name": "newTotalTokens",
          "type": "uint256"
        },
        {
          "indexed": false,
          "internalType": "uint256",
          "name": "newTotalETHLPShares",
          "type": "uint256"
        },
        {
          "indexed": false,
          "internalType": "uint256",
          "name": "newTotalTokenLPShares",
          "type": "uint256"
        }
      ],
      "name": "PoolBalanceUpdated",
      "type": "event"
    },
    {
      "anonymous": false,
      "inputs": [
        {
          "indexed": true,
          "internalType": "address",
          "name": "user",
          "type": "address"
        },
        {
          "indexed": false,
          "internalType": "uint256",
          "name": "amount",
          "type": "uint256"
        }
      ],
      "name": "RewardClaimed",
      "type": "event"
    },
    {
      "anonymous": false,
      "inputs": [
        {
          "indexed": true,
          "internalType": "address",
          "name": "from",
          "type": "address"
        },
        {
          "indexed": false,
          "internalType": "uint256",
          "name": "amount",
          "type": "uint256"
        }
      ],
      "name": "RewardDeposited",
      "type": "event"
    },
    {
      "anonymous": false,
      "inputs": [
        {
          "indexed": true,
          "internalType": "address",
          "name": "seller",
          "type": "address"
        },
        {
          "indexed": false,
          "internalType": "address",
          "name": "token",
          "type": "address"
        },
        {
          "indexed": false,
          "internalType": "uint256",
          "name": "tokenAmount",
          "type": "uint256"
        },
        {
          "indexed": false,
          "internalType": "uint256",
          "name": "ethAmount",
          "type": "uint256"
        }
      ],
      "name": "SellOrderFulfilled",
      "type": "event"
    },
    {
      "anonymous": false,
      "inputs": [
        {
          "indexed": true,
          "internalType": "address",
          "name": "user",
          "type": "address"
        },
        {
          "indexed": false,
          "internalType": "address",
          "name": "token",
          "type": "address"
        },
        {
          "indexed": false,
          "internalType": "uint256",
          "name": "tokenAmount",
          "type": "uint256"
        },
        {
          "indexed": false,
          "internalType": "uint256",
          "name": "lpSharesMinted",
          "type": "uint256"
        }
      ],
      "name": "TokenLiquidityDeposited",
      "type": "event"
    },
    {
      "anonymous": false,
      "inputs": [
        {
          "indexed": true,
          "internalType": "address",
          "name": "user",
          "type": "address"
        },
        {
          "indexed": false,
          "internalType": "address",
          "name": "token",
          "type": "address"
        },
        {
          "indexed": false,
          "internalType": "uint256",
          "name": "tokenAmount",
          "type": "uint256"
        },
        {
          "indexed": false,
          "internalType": "uint256",
          "name": "lpSharesBurned",
          "type": "uint256"
        }
      ],
      "name": "TokenLiquidityWithdrawn",
      "type": "event"
    },
    {
      "anonymous": false,
      "inputs": [
        {
          "indexed": true,
          "internalType": "address",
          "name": "orderbook",
          "type": "address"
        },
        {
          "indexed": true,
          "internalType": "address",
          "name": "token",
          "type": "address"
        },
        {
          "indexed": false,
          "internalType": "uint256",
          "name": "amount",
          "type": "uint256"
        }
      ],
      "name": "TokenReceivedFromOrderbook",
      "type": "event"
    },
    {
      "anonymous": false,
      "inputs": [
        {
          "indexed": true,
          "internalType": "address",
          "name": "orderbook",
          "type": "address"
        },
        {
          "indexed": true,
          "internalType": "address",
          "name": "token",
          "type": "address"
        },
        {
          "indexed": false,
          "internalType": "uint256",
          "name": "amount",
          "type": "uint256"
        }
      ],
      "name": "TokenTransferredToOrderbook",
      "type": "event"
    },
    {
      "inputs": [],
      "name": "SCALE",
      "outputs": [
        {
          "internalType": "uint256",
          "name": "",
          "type": "uint256"
        }
      ],
      "stateMutability": "view",
      "type": "function"
    },
    {
      "inputs": [
        {
          "internalType": "address",
          "name": "token",
          "type": "address"
        }
      ],
      "name": "addETHLiquidity",
      "outputs": [],
      "stateMutability": "payable",
      "type": "function"
    },
    {
      "inputs": [
        {
          "internalType": "address",
          "name": "token",
          "type": "address"
        },
        {
          "internalType": "uint256",
          "name": "tokenAmount",
          "type": "uint256"
        }
      ],
      "name": "addTokenLiquidity",
      "outputs": [],
      "stateMutability": "nonpayable",
      "type": "function"
    },
    {
      "inputs": [
        {
          "internalType": "address",
          "name": "token",
          "type": "address"
        }
      ],
      "name": "claimETHRewards",
      "outputs": [],
      "stateMutability": "nonpayable",
      "type": "function"
    },
    {
      "inputs": [
        {
          "internalType": "address",
          "name": "token",
          "type": "address"
        }
      ],
      "name": "claimETHTokenRewards",
      "outputs": [],
      "stateMutability": "nonpayable",
      "type": "function"
    },
    {
      "inputs": [
        {
          "internalType": "address",
          "name": "token",
          "type": "address"
        }
      ],
      "name": "claimTokenETHRewards",
      "outputs": [],
      "stateMutability": "nonpayable",
      "type": "function"
    },
    {
      "inputs": [
        {
          "internalType": "address",
          "name": "token",
          "type": "address"
        }
      ],
      "name": "claimTokenRewards",
      "outputs": [],
      "stateMutability": "nonpayable",
      "type": "function"
    },
    {
      "inputs": [
        {
          "internalType": "address[]",
          "name": "tokens",
          "type": "address[]"
        }
      ],
      "name": "emergencyWithdraw",
      "outputs": [],
      "stateMutability": "nonpayable",
      "type": "function"
    },
    {
      "inputs": [],
      "name": "emergencyWithdrawETH",
      "outputs": [],
      "stateMutability": "nonpayable",
      "type": "function"
    },
    {
      "inputs": [
        {
          "internalType": "address",
          "name": "",
          "type": "address"
        }
      ],
      "name": "ethPools",
      "outputs": [
        {
          "internalType": "uint256",
          "name": "totalETH",
          "type": "uint256"
        },
        {
          "internalType": "uint256",
          "name": "totalLPShares",
          "type": "uint256"
        },
        {
          "internalType": "uint256",
          "name": "accRewardPerShare",
          "type": "uint256"
        },
        {
          "internalType": "uint256",
          "name": "rewardBalance",
          "type": "uint256"
        },
        {
          "internalType": "uint256",
          "name": "accTokenRewardPerShare",
          "type": "uint256"
        },
        {
          "internalType": "uint256",
          "name": "tokenRewardBalance",
          "type": "uint256"
        },
        {
          "internalType": "address",
          "name": "uniswapPair",
          "type": "address"
        }
      ],
      "stateMutability": "view",
      "type": "function"
    },
    {
      "inputs": [
        {
          "internalType": "address",
          "name": "",
          "type": "address"
        },
        {
          "internalType": "address",
          "name": "",
          "type": "address"
        }
      ],
      "name": "ethProviders",
      "outputs": [
        {
          "internalType": "uint256",
          "name": "ethAmount",
          "type": "uint256"
        },
        {
          "internalType": "uint256",
          "name": "lpShares",
          "type": "uint256"
        },
        {
          "internalType": "uint256",
          "name": "rewardDebt",
          "type": "uint256"
        },
        {
          "internalType": "uint256",
          "name": "pendingReward",
          "type": "uint256"
        },
        {
          "internalType": "uint256",
          "name": "tokenRewardDebt",
          "type": "uint256"
        },
        {
          "internalType": "uint256",
          "name": "pendingTokenReward",
          "type": "uint256"
        }
      ],
      "stateMutability": "view",
      "type": "function"
    },
    {
      "inputs": [
        {
          "internalType": "address",
          "name": "token",
          "type": "address"
        },
        {
          "internalType": "uint256",
          "name": "ethAmount",
          "type": "uint256"
        },
        {
          "internalType": "uint256",
          "name": "tokenAmount",
          "type": "uint256"
        }
      ],
      "name": "executeBuyOrder",
      "outputs": [],
      "stateMutability": "payable",
      "type": "function"
    },
    {
      "inputs": [
        {
          "internalType": "address",
          "name": "token",
          "type": "address"
        },
        {
          "internalType": "uint256",
          "name": "ethAmount",
          "type": "uint256"
        },
        {
          "internalType": "uint256",
          "name": "tokenAmount",
          "type": "uint256"
        }
      ],
      "name": "executeSellOrder",
      "outputs": [],
      "stateMutability": "nonpayable",
      "type": "function"
    },
    {
      "inputs": [
        {
          "internalType": "address",
          "name": "token",
          "type": "address"
        }
      ],
      "name": "getETHPoolInfo",
      "outputs": [
        {
          "components": [
            {
              "internalType": "uint256",
              "name": "totalETH",
              "type": "uint256"
            },
            {
              "internalType": "uint256",
              "name": "totalLPShares",
              "type": "uint256"
            },
            {
              "internalType": "uint256",
              "name": "accRewardPerShare",
              "type": "uint256"
            },
            {
              "internalType": "uint256",
              "name": "rewardBalance",
              "type": "uint256"
            },
            {
              "internalType": "uint256",
              "name": "accTokenRewardPerShare",
              "type": "uint256"
            },
            {
              "internalType": "uint256",
              "name": "tokenRewardBalance",
              "type": "uint256"
            },
            {
              "internalType": "address",
              "name": "uniswapPair",
              "type": "address"
            }
          ],
          "internalType": "struct IGradientMarketMakerPool.ETHPoolInfo",
          "name": "",
          "type": "tuple"
        }
      ],
      "stateMutability": "view",
      "type": "function"
    },
    {
      "inputs": [
        {
          "internalType": "address",
          "name": "token",
          "type": "address"
        },
        {
          "internalType": "address",
          "name": "user",
          "type": "address"
        }
      ],
      "name": "getETHProviderLPShares",
      "outputs": [
        {
          "internalType": "uint256",
          "name": "lpShares",
          "type": "uint256"
        }
      ],
      "stateMutability": "view",
      "type": "function"
    },
    {
      "inputs": [
        {
          "internalType": "address",
          "name": "token",
          "type": "address"
        }
      ],
      "name": "getPairAddress",
      "outputs": [
        {
          "internalType": "address",
          "name": "pairAddress",
          "type": "address"
        }
      ],
      "stateMutability": "view",
      "type": "function"
    },
    {
      "inputs": [
        {
          "internalType": "address",
          "name": "token",
          "type": "address"
        }
      ],
      "name": "getPoolInfo",
      "outputs": [
        {
          "components": [
            {
              "internalType": "uint256",
              "name": "totalEth",
              "type": "uint256"
            },
            {
              "internalType": "uint256",
              "name": "totalToken",
              "type": "uint256"
            },
            {
              "internalType": "uint256",
              "name": "totalLiquidity",
              "type": "uint256"
            },
            {
              "internalType": "uint256",
              "name": "totalLPShares",
              "type": "uint256"
            },
            {
              "internalType": "uint256",
              "name": "accountedEth",
              "type": "uint256"
            },
            {
              "internalType": "uint256",
              "name": "accountedToken",
              "type": "uint256"
            },
            {
              "internalType": "uint256",
              "name": "accRewardPerShare",
              "type": "uint256"
            },
            {
              "internalType": "uint256",
              "name": "rewardBalance",
              "type": "uint256"
            },
            {
              "internalType": "address",
              "name": "uniswapPair",
              "type": "address"
            }
          ],
          "internalType": "struct IGradientMarketMakerPool.PoolInfo",
          "name": "",
          "type": "tuple"
        }
      ],
      "stateMutability": "view",
      "type": "function"
    },
    {
      "inputs": [
        {
          "internalType": "address",
          "name": "token",
          "type": "address"
        }
      ],
      "name": "getReserves",
      "outputs": [
        {
          "internalType": "uint256",
          "name": "reserveETH",
          "type": "uint256"
        },
        {
          "internalType": "uint256",
          "name": "reserveToken",
          "type": "uint256"
        }
      ],
      "stateMutability": "view",
      "type": "function"
    },
    {
      "inputs": [
        {
          "internalType": "address",
          "name": "token",
          "type": "address"
        }
      ],
      "name": "getTokenPoolInfo",
      "outputs": [
        {
          "components": [
            {
              "internalType": "uint256",
              "name": "totalTokens",
              "type": "uint256"
            },
            {
              "internalType": "uint256",
              "name": "totalLPShares",
              "type": "uint256"
            },
            {
              "internalType": "uint256",
              "name": "accRewardPerShare",
              "type": "uint256"
            },
            {
              "internalType": "uint256",
              "name": "rewardBalance",
              "type": "uint256"
            },
            {
              "internalType": "uint256",
              "name": "accETHRewardPerShare",
              "type": "uint256"
            },
            {
              "internalType": "uint256",
              "name": "ethRewardBalance",
              "type": "uint256"
            },
            {
              "internalType": "address",
              "name": "uniswapPair",
              "type": "address"
            }
          ],
          "internalType": "struct IGradientMarketMakerPool.TokenPoolInfo",
          "name": "",
          "type": "tuple"
        }
      ],
      "stateMutability": "view",
      "type": "function"
    },
    {
      "inputs": [
        {
          "internalType": "address",
          "name": "token",
          "type": "address"
        },
        {
          "internalType": "address",
          "name": "user",
          "type": "address"
        }
      ],
      "name": "getTokenProviderLPShares",
      "outputs": [
        {
          "internalType": "uint256",
          "name": "lpShares",
          "type": "uint256"
        }
      ],
      "stateMutability": "view",
      "type": "function"
    },
    {
      "inputs": [
        {
          "internalType": "address",
          "name": "token",
          "type": "address"
        },
        {
          "internalType": "address",
          "name": "user",
          "type": "address"
        }
      ],
      "name": "getUserLPShares",
      "outputs": [
        {
          "internalType": "uint256",
          "name": "lpShares",
          "type": "uint256"
        }
      ],
      "stateMutability": "view",
      "type": "function"
    },
    {
      "inputs": [
        {
          "internalType": "address",
          "name": "token",
          "type": "address"
        },
        {
          "internalType": "address",
          "name": "user",
          "type": "address"
        }
      ],
      "name": "getUserSharePercentage",
      "outputs": [
        {
          "internalType": "uint256",
          "name": "sharePercentage",
          "type": "uint256"
        }
      ],
      "stateMutability": "view",
      "type": "function"
    },
    {
      "inputs": [],
      "name": "gradientRegistry",
      "outputs": [
        {
          "internalType": "contract IGradientRegistry",
          "name": "",
          "type": "address"
        }
      ],
      "stateMutability": "view",
      "type": "function"
    },
    {
      "inputs": [],
      "name": "owner",
      "outputs": [
        {
          "internalType": "address",
          "name": "",
          "type": "address"
        }
      ],
      "stateMutability": "view",
      "type": "function"
    },
    {
      "inputs": [
        {
          "internalType": "address",
          "name": "token",
          "type": "address"
        },
        {
          "internalType": "uint256",
          "name": "amount",
          "type": "uint256"
        }
      ],
      "name": "receiveETHFromOrderbook",
      "outputs": [],
      "stateMutability": "payable",
      "type": "function"
    },
    {
      "inputs": [
        {
          "internalType": "address",
          "name": "token",
          "type": "address"
        },
        {
          "internalType": "bool",
          "name": "isETHPool",
          "type": "bool"
        }
      ],
      "name": "receiveFeeDistribution",
      "outputs": [],
      "stateMutability": "payable",
      "type": "function"
    },
    {
      "inputs": [
        {
          "internalType": "address",
          "name": "token",
          "type": "address"
        },
        {
          "internalType": "uint256",
          "name": "amount",
          "type": "uint256"
        }
      ],
      "name": "receiveTokenFromOrderbook",
      "outputs": [],
      "stateMutability": "nonpayable",
      "type": "function"
    },
    {
      "inputs": [
        {
          "internalType": "address",
          "name": "token",
          "type": "address"
        },
        {
          "internalType": "uint256",
          "name": "shares",
          "type": "uint256"
        }
      ],
      "name": "removeETHLiquidity",
      "outputs": [],
      "stateMutability": "nonpayable",
      "type": "function"
    },
    {
      "inputs": [
        {
          "internalType": "address",
          "name": "token",
          "type": "address"
        },
        {
          "internalType": "uint256",
          "name": "shares",
          "type": "uint256"
        }
      ],
      "name": "removeTokenLiquidity",
      "outputs": [],
      "stateMutability": "nonpayable",
      "type": "function"
    },
    {
      "inputs": [],
      "name": "renounceOwnership",
      "outputs": [],
      "stateMutability": "nonpayable",
      "type": "function"
    },
    {
      "inputs": [
        {
          "internalType": "contract IGradientRegistry",
          "name": "_gradientRegistry",
          "type": "address"
        }
      ],
      "name": "setRegistry",
      "outputs": [],
      "stateMutability": "nonpayable",
      "type": "function"
    },
    {
      "inputs": [
        {
          "internalType": "address",
          "name": "",
          "type": "address"
        }
      ],
      "name": "tokenPools",
      "outputs": [
        {
          "internalType": "uint256",
          "name": "totalTokens",
          "type": "uint256"
        },
        {
          "internalType": "uint256",
          "name": "totalLPShares",
          "type": "uint256"
        },
        {
          "internalType": "uint256",
          "name": "accRewardPerShare",
          "type": "uint256"
        },
        {
          "internalType": "uint256",
          "name": "rewardBalance",
          "type": "uint256"
        },
        {
          "internalType": "uint256",
          "name": "accETHRewardPerShare",
          "type": "uint256"
        },
        {
          "internalType": "uint256",
          "name": "ethRewardBalance",
          "type": "uint256"
        },
        {
          "internalType": "address",
          "name": "uniswapPair",
          "type": "address"
        }
      ],
      "stateMutability": "view",
      "type": "function"
    },
    {
      "inputs": [
        {
          "internalType": "address",
          "name": "",
          "type": "address"
        },
        {
          "internalType": "address",
          "name": "",
          "type": "address"
        }
      ],
      "name": "tokenProviders",
      "outputs": [
        {
          "internalType": "uint256",
          "name": "tokenAmount",
          "type": "uint256"
        },
        {
          "internalType": "uint256",
          "name": "lpShares",
          "type": "uint256"
        },
        {
          "internalType": "uint256",
          "name": "rewardDebt",
          "type": "uint256"
        },
        {
          "internalType": "uint256",
          "name": "pendingReward",
          "type": "uint256"
        },
        {
          "internalType": "uint256",
          "name": "ethRewardDebt",
          "type": "uint256"
        },
        {
          "internalType": "uint256",
          "name": "pendingETHReward",
          "type": "uint256"
        }
      ],
      "stateMutability": "view",
      "type": "function"
    },
    {
      "inputs": [
        {
          "internalType": "address",
          "name": "token",
          "type": "address"
        },
        {
          "internalType": "uint256",
          "name": "amount",
          "type": "uint256"
        }
      ],
      "name": "transferETHToOrderbook",
      "outputs": [],
      "stateMutability": "nonpayable",
      "type": "function"
    },
    {
      "inputs": [
        {
          "internalType": "address",
          "name": "newOwner",
          "type": "address"
        }
      ],
      "name": "transferOwnership",
      "outputs": [],
      "stateMutability": "nonpayable",
      "type": "function"
    },
    {
      "inputs": [
        {
          "internalType": "address",
          "name": "token",
          "type": "address"
        },
        {
          "internalType": "uint256",
          "name": "amount",
          "type": "uint256"
        }
      ],
      "name": "transferTokenToOrderbook",
      "outputs": [],
      "stateMutability": "nonpayable",
      "type": "function"
    },
    {
      "stateMutability": "payable",
      "type": "receive"
    }
  ],
  "bytecode": "0x608060405234801561001057600080fd5b5060405161468d38038061468d83398101604081905261002f916100d8565b338061005557604051631e4fbdf760e01b81526000600482015260240160405180910390fd5b61005e81610088565b5060018055600280546001600160a01b0319166001600160a01b0392909216919091179055610108565b600080546001600160a01b038381166001600160a01b0319831681178455604051919092169283917f8be0079c531659141344cd1fd0a4f28419497f9722a3daafe3b4186f6b6457e09190a35050565b6000602082840312156100ea57600080fd5b81516001600160a01b038116811461010157600080fd5b9392505050565b614576806101176000396000f3fe6080604052600436106102135760003560e01c8063830562bc11610118578063ae8b804d116100a0578063dbf8a3ed1161006f578063dbf8a3ed146107ca578063e706fad814610825578063e92c0aee14610845578063eced552614610865578063f2fde38b1461088157600080fd5b8063ae8b804d146106fc578063bcc9eea71461071c578063c3d2c3c114610749578063ca497a3f146107aa57600080fd5b80638a57fddd116100e75780638a57fddd146106425780638da5cb5b146106555780639c2520ff14610673578063a91ee0dc146106bc578063adabfa05146106dc57600080fd5b8063830562bc146105b557806384536017146105ed57806384d936121461060257806385e694b61461062257600080fd5b80635c6d01cd1161019b57806370c6ee331161016a57806370c6ee331461053a578063715018a61461054d5780637601f9fe146105625780637e49b933146105755780637e7c7a951461059557600080fd5b80635c6d01cd146104b95780635fbc13ef146104cc5780636e13d676146104ec57806370aa0f391461050c57600080fd5b806314fe72aa116101e257806314fe72aa1461031f5780631695ca4e1461033f5780633e99c1e4146103df5780634301d7351461041457806344a8a6ca1461049957600080fd5b806301c1dfba1461021f578063038d84281461024157806306aa52f91461026157806306bfa9381461028157600080fd5b3661021a57005b600080fd5b34801561022b57600080fd5b5061023f61023a36600461405e565b6108a1565b005b34801561024d57600080fd5b5061023f61025c3660046140ea565b610a41565b34801561026d57600080fd5b5061023f61027c3660046140ea565b610c4c565b34801561028d57600080fd5b506102a161029c3660046140ea565b610dca565b6040516103169190600061012082019050825182526020830151602083015260408301516040830152606083015160608301526080830151608083015260a083015160a083015260c083015160c083015260e083015160e083015260018060a01b036101008401511661010083015292915050565b60405180910390f35b34801561032b57600080fd5b5061023f61033a366004614107565b610eda565b34801561034b57600080fd5b506103a161035a3660046140ea565b60036020819052600091825260409091208054600182015460028301549383015460048401546005850154600690950154939592949293919290916001600160a01b031687565b604080519788526020880196909652948601939093526060850191909152608084015260a08301526001600160a01b031660c082015260e001610316565b3480156103eb57600080fd5b506103ff6103fa3660046140ea565b611289565b60408051928352602083019190915201610316565b34801561042057600080fd5b5061046c61042f366004614133565b6005602081815260009384526040808520909152918352912080546001820154600283015460038401546004850154949095015492949193909286565b604080519687526020870195909552938501929092526060840152608083015260a082015260c001610316565b3480156104a557600080fd5b5061023f6104b43660046140ea565b6113cb565b61023f6104c736600461417a565b611513565b3480156104d857600080fd5b5061023f6104e73660046141a8565b611743565b3480156104f857600080fd5b5061023f6105073660046140ea565b611a4e565b34801561051857600080fd5b5061052c610527366004614133565b611b84565b604051908152602001610316565b61023f6105483660046140ea565b611bb4565b34801561055957600080fd5b5061023f611f42565b61023f6105703660046141a8565b611f56565b34801561058157600080fd5b5061052c610590366004614133565b61220d565b3480156105a157600080fd5b5061023f6105b0366004614107565b612263565b3480156105c157600080fd5b506002546105d5906001600160a01b031681565b6040516001600160a01b039091168152602001610316565b3480156105f957600080fd5b5061023f61254c565b34801561060e57600080fd5b5061023f61061d366004614107565b6125f6565b34801561062e57600080fd5b506105d561063d3660046140ea565b612a2a565b61023f610650366004614107565b612c3e565b34801561066157600080fd5b506000546001600160a01b03166105d5565b34801561067f57600080fd5b5061052c61068e366004614133565b6001600160a01b03918216600090815260066020908152604080832093909416825291909152206001015490565b3480156106c857600080fd5b5061023f6106d73660046140ea565b612ea7565b3480156106e857600080fd5b5061023f6106f7366004614107565b612f94565b34801561070857600080fd5b5061052c610717366004614133565b6131de565b34801561072857600080fd5b5061073c6107373660046140ea565b613213565b60405161031691906141dd565b34801561075557600080fd5b506103a16107643660046140ea565b600460208190526000918252604090912080546001820154600283015460038401549484015460058501546006909501549395929491939091906001600160a01b031687565b3480156107b657600080fd5b5061073c6107c53660046140ea565b6132cc565b3480156107d657600080fd5b5061046c6107e5366004614133565b6006602090815260009283526040808420909152908252902080546001820154600283015460038401546004850154600590950154939492939192909186565b34801561083157600080fd5b5061023f610840366004614107565b613385565b34801561085157600080fd5b5061023f610860366004614107565b6135e8565b34801561087157600080fd5b5061052c670de0b6b3a764000081565b34801561088d57600080fd5b5061023f61089c3660046140ea565b613a11565b6108a9613a4c565b47801561095257600080546040516001600160a01b039091169083908381818185875af1925050503d80600081146108fd576040519150601f19603f3d011682016040523d82523d6000602084013e610902565b606091505b50509050806109505760405162461bcd60e51b8152602060048201526015602482015274115512081dda5d1a191c985dd85b0819985a5b1959605a1b60448201526064015b60405180910390fd5b505b60005b82811015610a3b5760008484838181106109715761097161422f565b905060200201602081019061098691906140ea565b90506001600160a01b03811615610a32576040516370a0823160e01b81523060048201526000906001600160a01b038316906370a0823190602401602060405180830381865afa1580156109de573d6000803e3d6000fd5b505050506040513d601f19601f82011682018060405250810190610a029190614245565b90508015610a3057610a30610a1f6000546001600160a01b031690565b6001600160a01b0384169083613a79565b505b50600101610955565b50505050565b610a49613ad8565b6001600160a01b0381166000908152600460209081526040808320600683528184203385529092529091206001810154151580610a8a575060008160050154115b610ad65760405162461bcd60e51b815260206004820152601b60248201527f4e6f206c6971756964697479206f7220455448207265776172647300000000006044820152606401610947565b6000670de0b6b3a764000083600401548360010154610af59190614274565b610aff919061428b565b905060008260050154836004015483610b1891906142ad565b610b2291906142c0565b905060008111610b655760405162461bcd60e51b815260206004820152600e60248201526d4e6f20455448207265776172647360901b6044820152606401610947565b60048301829055600060058401819055604051339083905b60006040518083038185875af1925050503d8060008114610bba576040519150601f19603f3d011682016040523d82523d6000602084013e610bbf565b606091505b5050905080610c065760405162461bcd60e51b8152602060048201526013602482015272115512081d1c985b9cd9995c8819985a5b1959606a1b6044820152606401610947565b60405182815233907f106f923f993c2149d49b4255ff723acafa1f2d94393f561d3eda32ae348f72419060200160405180910390a25050505050610c4960018055565b50565b610c54613ad8565b6001600160a01b0381166000908152600460209081526040808320600683528184203385529092529091206001810154151580610c95575060008160030154115b610cdb5760405162461bcd60e51b81526020600482015260176024820152764e6f206c6971756964697479206f72207265776172647360481b6044820152606401610947565b6000670de0b6b3a764000083600201548360010154610cfa9190614274565b610d04919061428b565b905060008260030154836002015483610d1d91906142ad565b610d2791906142c0565b905060008111610d665760405162461bcd60e51b815260206004820152600a6024820152694e6f207265776172647360b01b6044820152606401610947565b6002830182905560006003840155610d886001600160a01b0386163383613a79565b60405181815233907f106f923f993c2149d49b4255ff723acafa1f2d94393f561d3eda32ae348f72419060200160405180910390a250505050610c4960018055565b610e22604051806101200160405280600081526020016000815260200160008152602001600081526020016000815260200160008152602001600081526020016000815260200160006001600160a01b031681525090565b6001600160a01b038216600090815260036020908152604080832060048352928190208151610120810183528454808252825494820185905291939092830191610e6c91906142c0565b815260200182600101548460010154610e8591906142c0565b815260200183600001548152602001826000015481526020016000815260200182600301548460030154610eb991906142c0565b81526006909301546001600160a01b03166020909301929092525092915050565b600254604051630736b32b60e31b81526001600160a01b038085166004830152849216906339b5995890602401602060405180830381865afa158015610f24573d6000803e3d6000fd5b505050506040513d601f19601f82011682018060405250810190610f4891906142d3565b15610f655760405162461bcd60e51b8152600401610947906142f0565b610f6d613ad8565b60008211610fb35760405162461bcd60e51b81526020600482015260136024820152724d7573742070726f7669646520746f6b656e7360681b6044820152606401610947565b6001600160a01b038316610fd95760405162461bcd60e51b81526004016109479061431a565b6001600160a01b038084166000908152600460205260409020600681015490911661102a5761100784612a2a565b6006820180546001600160a01b0319166001600160a01b03929092169190911790555b60068101546001600160a01b03166110545760405162461bcd60e51b815260040161094790614349565b6001600160a01b0384166000908152600660209081526040808320338452909152902060018101541561112c5760008160020154670de0b6b3a7640000846002015484600101546110a59190614274565b6110af919061428b565b6110b991906142ad565b9050808260030160008282546110cf91906142c0565b9250508190555060008260040154670de0b6b3a7640000856004015485600101546110fa9190614274565b611104919061428b565b61110e91906142ad565b90508083600501600082825461112491906142c0565b909155505050505b6000826001015460000361114157508361115f565b825460018401546111529087614274565b61115c919061428b565b90505b8082600101600082825461117391906142c0565b909155505081548590839060009061118c9084906142c0565b909155505060028301546001830154670de0b6b3a7640000916111ae91614274565b6111b8919061428b565b600283015560048301546001830154670de0b6b3a7640000916111da91614274565b6111e4919061428b565b60048301558254859084906000906111fd9084906142c0565b925050819055508083600101600082825461121891906142c0565b9091555061123390506001600160a01b038716333088613b02565b336001600160a01b03167f4e454f01a53c7bed07081706a3ead05bd1bfa0c411a0ee8db5304398f87a97be87878460405161127093929190614376565b60405180910390a250505061128460018055565b505050565b600080600061129784612a2a565b90506001600160a01b0381166112bf5760405162461bcd60e51b815260040161094790614349565b600080826001600160a01b0316630902f1ac6040518163ffffffff1660e01b8152600401606060405180830381865afa158015611300573d6000803e3d6000fd5b505050506040513d601f19601f8201168201806040525081019061132491906143b3565b50915091506000836001600160a01b0316630dfe16816040518163ffffffff1660e01b8152600401602060405180830381865afa158015611369573d6000803e3d6000fd5b505050506040513d601f19601f8201168201806040525081019061138d9190614403565b9050866001600160a01b0316816001600160a01b0316146113af5782826113b2565b81835b6001600160701b03918216999116975095505050505050565b6113d3613ad8565b6001600160a01b0381166000908152600360209081526040808320600583528184203385529092529091206001810154151580611414575060008160050154115b6114605760405162461bcd60e51b815260206004820152601d60248201527f4e6f206c6971756964697479206f7220746f6b656e20726577617264730000006044820152606401610947565b6000670de0b6b3a76400008360040154836001015461147f9190614274565b611489919061428b565b9050600082600501548360040154836114a291906142ad565b6114ac91906142c0565b9050600081116114f15760405162461bcd60e51b815260206004820152601060248201526f4e6f20746f6b656e207265776172647360801b6044820152606401610947565b6004830182905560006005840155610d886001600160a01b0386163383613a79565b6002546040516316ed852560e01b81523360048201526001600160a01b03909116906316ed852590602401602060405180830381865afa15801561155b573d6000803e3d6000fd5b505050506040513d601f19601f8201168201806040525081019061157f91906142d3565b6115e25760405162461bcd60e51b815260206004820152602e60248201527f4f6e6c7920726577617264206469737472696275746f722063616e2063616c6c60448201526d103a3434b990333ab731ba34b7b760911b6064820152608401610947565b600034116116205760405162461bcd60e51b815260206004820152600b60248201526a139bc8115512081cd95b9d60aa1b6044820152606401610947565b8015611692576001600160a01b038216600090815260036020526040902060018101546116825760405162461bcd60e51b815260206004820152601060248201526f4e6f20455448206c697175696469747960801b6044820152606401610947565b61168c8334613b3b565b506116fc565b6001600160a01b038216600090815260046020526040902060018101546116f05760405162461bcd60e51b81526020600482015260126024820152714e6f20746f6b656e206c697175696469747960701b6044820152606401610947565b6116fa8334613c5b565b505b816001600160a01b03167f7dbc080e4530c8bcf265eb5c9a35ae096ca1eb607b7e802b96581ef4c5e1a7033460405161173791815260200190565b60405180910390a25050565b600254604051630736b32b60e31b81526001600160a01b038086166004830152859216906339b5995890602401602060405180830381865afa15801561178d573d6000803e3d6000fd5b505050506040513d601f19601f820116820180604052508101906117b191906142d3565b156117ce5760405162461bcd60e51b8152600401610947906142f0565b600260009054906101000a90046001600160a01b03166001600160a01b031663c18b1d5e6040518163ffffffff1660e01b8152600401602060405180830381865afa158015611821573d6000803e3d6000fd5b505050506040513d601f19601f820116820180604052508101906118459190614403565b6001600160a01b0316336001600160a01b0316146118755760405162461bcd60e51b815260040161094790614420565b600083116118955760405162461bcd60e51b815260040161094790614465565b600082116118b55760405162461bcd60e51b8152600401610947906144a6565b6001600160a01b0384166000908152600360205260409020805484111561191e5760405162461bcd60e51b815260206004820152601a60248201527f496e73756666696369656e7420455448206c69717569646974790000000000006044820152606401610947565b6119336001600160a01b038616333086613b02565b8381600001600082825461194791906142ad565b9091555061195790508584613cca565b604051600090339086908381818185875af1925050503d8060008114611999576040519150601f19603f3d011682016040523d82523d6000602084013e61199e565b606091505b50509050806119ef5760405162461bcd60e51b815260206004820181905260248201527f455448207472616e7366657220746f206f72646572626f6f6b206661696c65646044820152606401610947565b81546001600160a01b0387166000818152600460209081526040918290208054600180890154920154845196875292860152848301526060840152519091600080516020614521833981519152919081900360800190a2505050505050565b611a56613ad8565b6001600160a01b0381166000908152600360209081526040808320600583528184203385529092529091206001810154151580611a97575060008160030154115b611add5760405162461bcd60e51b81526020600482015260176024820152764e6f206c6971756964697479206f72207265776172647360481b6044820152606401610947565b6000670de0b6b3a764000083600201548360010154611afc9190614274565b611b06919061428b565b905060008260030154836002015483611b1f91906142ad565b611b2991906142c0565b905060008111611b685760405162461bcd60e51b815260206004820152600a6024820152694e6f207265776172647360b01b6044820152606401610947565b6002830182905560006003840181905560405133908390610b7d565b6001600160a01b038083166000908152600560209081526040808320938516835292905220600101545b92915050565b600254604051630736b32b60e31b81526001600160a01b038084166004830152839216906339b5995890602401602060405180830381865afa158015611bfe573d6000803e3d6000fd5b505050506040513d601f19601f82011682018060405250810190611c2291906142d3565b15611c3f5760405162461bcd60e51b8152600401610947906142f0565b611c47613ad8565b60003411611c8a5760405162461bcd60e51b815260206004820152601060248201526f09aeae6e840e0e4deecd2c8ca408aa8960831b6044820152606401610947565b6001600160a01b038216611cb05760405162461bcd60e51b81526004016109479061431a565b6001600160a01b0380831660009081526003602052604090206006810154909116611d0157611cde83612a2a565b6006820180546001600160a01b0319166001600160a01b03929092169190911790555b60068101546001600160a01b0316611d2b5760405162461bcd60e51b815260040161094790614349565b6001600160a01b03831660009081526005602090815260408083203384529091529020600181015415611e035760008160020154670de0b6b3a764000084600201548460010154611d7c9190614274565b611d86919061428b565b611d9091906142ad565b905080826003016000828254611da691906142c0565b9250508190555060008260040154670de0b6b3a764000085600401548560010154611dd19190614274565b611ddb919061428b565b611de591906142ad565b905080836005016000828254611dfb91906142c0565b909155505050505b60008260010154600003611e18575034611e36565b82546001840154611e299034614274565b611e33919061428b565b90505b80826001016000828254611e4a91906142c0565b9091555050815434908390600090611e639084906142c0565b909155505060028301546001830154670de0b6b3a764000091611e8591614274565b611e8f919061428b565b600283015560048301546001830154670de0b6b3a764000091611eb191614274565b611ebb919061428b565b6004830155825434908490600090611ed49084906142c0565b9250508190555080836001016000828254611eef91906142c0565b909155505060405133907fc1405abcead391364eb128c74abfd38ebed1c7984fc9f8a96764b0dd35076d6090611f2a90889034908690614376565b60405180910390a2505050611f3e60018055565b5050565b611f4a613a4c565b611f546000613deb565b565b600254604051630736b32b60e31b81526001600160a01b038086166004830152859216906339b5995890602401602060405180830381865afa158015611fa0573d6000803e3d6000fd5b505050506040513d601f19601f82011682018060405250810190611fc491906142d3565b15611fe15760405162461bcd60e51b8152600401610947906142f0565b600260009054906101000a90046001600160a01b03166001600160a01b031663c18b1d5e6040518163ffffffff1660e01b8152600401602060405180830381865afa158015612034573d6000803e3d6000fd5b505050506040513d601f19601f820116820180604052508101906120589190614403565b6001600160a01b0316336001600160a01b0316146120885760405162461bcd60e51b815260040161094790614420565b600083116120a85760405162461bcd60e51b815260040161094790614465565b600082116120c85760405162461bcd60e51b8152600401610947906144a6565b82341461210d5760405162461bcd60e51b815260206004820152601360248201527208aa89040c2dadeeadce840dad2e6dac2e8c6d606b1b6044820152606401610947565b6001600160a01b038416600090815260046020526040902080548311156121765760405162461bcd60e51b815260206004820152601c60248201527f496e73756666696369656e7420746f6b656e206c6971756964697479000000006044820152606401610947565b8281600001600082825461218a91906142ad565b9091555061219a90508585613e3b565b6121ae6001600160a01b0386163385613a79565b6001600160a01b0385166000818152600360209081526040918290208054855460019283015492870154855192835293820152928301526060820152600080516020614521833981519152906080015b60405180910390a25050505050565b6001600160a01b038083166000818152600660209081526040808320948616808452948252808320600190810154948452600583528184209584529490915281209092015461225c91906142c0565b9392505050565b600254604051630736b32b60e31b81526001600160a01b038085166004830152849216906339b5995890602401602060405180830381865afa1580156122ad573d6000803e3d6000fd5b505050506040513d601f19601f820116820180604052508101906122d191906142d3565b156122ee5760405162461bcd60e51b8152600401610947906142f0565b600260009054906101000a90046001600160a01b03166001600160a01b031663c18b1d5e6040518163ffffffff1660e01b8152600401602060405180830381865afa158015612341573d6000803e3d6000fd5b505050506040513d601f19601f820116820180604052508101906123659190614403565b6001600160a01b0316336001600160a01b0316146123955760405162461bcd60e51b815260040161094790614420565b600082116123b55760405162461bcd60e51b8152600401610947906144e9565b6001600160a01b0383166123db5760405162461bcd60e51b81526004016109479061431a565b6001600160a01b038316600090815260036020526040902080548311156124445760405162461bcd60e51b815260206004820152601a60248201527f496e73756666696369656e7420455448206c69717569646974790000000000006044820152606401610947565b8281600001600082825461245891906142ad565b9091555050604051600090339085908381818185875af1925050503d806000811461249f576040519150601f19603f3d011682016040523d82523d6000602084013e6124a4565b606091505b50509050806124f55760405162461bcd60e51b815260206004820181905260248201527f455448207472616e7366657220746f206f72646572626f6f6b206661696c65646044820152606401610947565b81546001600160a01b038616600081815260046020908152604091829020805460018089015492015484519687529286015291840191909152606083015290600080516020614521833981519152906080016121fe565b612554613a4c565b478015610c4957600080546040516001600160a01b039091169083908381818185875af1925050503d80600081146125a8576040519150601f19603f3d011682016040523d82523d6000602084013e6125ad565b606091505b5050905080611f3e5760405162461bcd60e51b8152602060048201526015602482015274115512081dda5d1a191c985dd85b0819985a5b1959605a1b6044820152606401610947565b6125fe613ad8565b60008111801561261057506127108111155b6126585760405162461bcd60e51b8152602060048201526019602482015278496e76616c6964207368617265732070657263656e7461676560381b6044820152606401610947565b6001600160a01b03821660009081526004602090815260408083206006835281842033855290925290912081546126d15760405162461bcd60e51b815260206004820152601a60248201527f4e6f20746f6b656e206c697175696469747920696e20706f6f6c0000000000006044820152606401610947565b805461271f5760405162461bcd60e51b815260206004820152601e60248201527f4e6f20746f6b656e206c697175696469747920746f20776974686472617700006044820152606401610947565b60008160020154670de0b6b3a7640000846002015484600101546127439190614274565b61274d919061428b565b61275791906142ad565b90508082600301600082825461276d91906142c0565b9250508190555060008260040154670de0b6b3a7640000856004015485600101546127989190614274565b6127a2919061428b565b6127ac91906142ad565b9050808360050160008282546127c291906142c0565b9250508190555060006127108685600101546127de9190614274565b6127e8919061428b565b90506000811161282e5760405162461bcd60e51b815260206004820152601160248201527027379039b430b932b9903a3790313ab93760791b6044820152606401610947565b600085600101548287600001546128459190614274565b61284f919061428b565b90508085600001600082825461286591906142ad565b925050819055508185600101600082825461288091906142ad565b90915550508554819087906000906128999084906142ad565b92505081905550818660010160008282546128b491906142ad565b909155505060028601546001860154670de0b6b3a7640000916128d691614274565b6128e0919061428b565b600286015560048601546001860154670de0b6b3a76400009161290291614274565b61290c919061428b565b60048601556129256001600160a01b0389163383613a79565b6005850154156129d657600585018054600091829055604051909190339083908381818185875af1925050503d806000811461297d576040519150601f19603f3d011682016040523d82523d6000602084013e612982565b606091505b50509050806129d35760405162461bcd60e51b815260206004820152601a60248201527f45544820726577617264207472616e73666572206661696c65640000000000006044820152606401610947565b50505b336001600160a01b03167fd962f00b708afdbb0a7b6ed85558339dcca1fbec2ec46f06f9817453a2289955898385604051612a1393929190614376565b60405180910390a2505050505050611f3e60018055565b600080600260009054906101000a90046001600160a01b03166001600160a01b031663f887ea406040518163ffffffff1660e01b8152600401602060405180830381865afa158015612a80573d6000803e3d6000fd5b505050506040513d601f19601f82011682018060405250810190612aa49190614403565b90506001600160a01b038116612aed5760405162461bcd60e51b815260206004820152600e60248201526d149bdd5d195c881b9bdd081cd95d60921b6044820152606401610947565b60008190506000816001600160a01b031663c45a01556040518163ffffffff1660e01b8152600401602060405180830381865afa158015612b32573d6000803e3d6000fd5b505050506040513d601f19601f82011682018060405250810190612b569190614403565b90506000826001600160a01b031663ad5c46486040518163ffffffff1660e01b8152600401602060405180830381865afa158015612b98573d6000803e3d6000fd5b505050506040513d601f19601f82011682018060405250810190612bbc9190614403565b60405163e6a4390560e01b81526001600160a01b0388811660048301528083166024830152919250839182169063e6a4390590604401602060405180830381865afa158015612c0f573d6000803e3d6000fd5b505050506040513d601f19601f82011682018060405250810190612c339190614403565b979650505050505050565b600254604051630736b32b60e31b81526001600160a01b038085166004830152849216906339b5995890602401602060405180830381865afa158015612c88573d6000803e3d6000fd5b505050506040513d601f19601f82011682018060405250810190612cac91906142d3565b15612cc95760405162461bcd60e51b8152600401610947906142f0565b600260009054906101000a90046001600160a01b03166001600160a01b031663c18b1d5e6040518163ffffffff1660e01b8152600401602060405180830381865afa158015612d1c573d6000803e3d6000fd5b505050506040513d601f19601f82011682018060405250810190612d409190614403565b6001600160a01b0316336001600160a01b031614612d705760405162461bcd60e51b815260040161094790614420565b60008211612d905760405162461bcd60e51b8152600401610947906144e9565b813414612dd55760405162461bcd60e51b815260206004820152601360248201527208aa89040c2dadeeadce840dad2e6dac2e8c6d606b1b6044820152606401610947565b6001600160a01b0383166000908152600360205260408120805490918491839190612e019084906142c0565b90915550506040518381526001600160a01b0385169033907fa83dbe67a8301965c2dd933c3feb89cae1783e4a8825466fd979d121f3f7ef699060200160405180910390a380546001600160a01b038516600081815260046020908152604091829020805460018088015492015484519687529286015291840191909152606083015290600080516020614521833981519152906080015b60405180910390a250505050565b612eaf613a4c565b60006001600160a01b0316816001600160a01b0316634513443a6040518163ffffffff1660e01b8152600401602060405180830381865afa158015612ef8573d6000803e3d6000fd5b505050506040513d601f19601f82011682018060405250810190612f1c9190614403565b6001600160a01b031603612f725760405162461bcd60e51b815260206004820152601960248201527f496e76616c6964206772616469656e74207265676973747279000000000000006044820152606401610947565b600280546001600160a01b0319166001600160a01b0392909216919091179055565b600254604051630736b32b60e31b81526001600160a01b038085166004830152849216906339b5995890602401602060405180830381865afa158015612fde573d6000803e3d6000fd5b505050506040513d601f19601f8201168201806040525081019061300291906142d3565b1561301f5760405162461bcd60e51b8152600401610947906142f0565b600260009054906101000a90046001600160a01b03166001600160a01b031663c18b1d5e6040518163ffffffff1660e01b8152600401602060405180830381865afa158015613072573d6000803e3d6000fd5b505050506040513d601f19601f820116820180604052508101906130969190614403565b6001600160a01b0316336001600160a01b0316146130c65760405162461bcd60e51b815260040161094790614420565b600082116130e65760405162461bcd60e51b8152600401610947906144e9565b6001600160a01b03831661310c5760405162461bcd60e51b81526004016109479061431a565b6001600160a01b03831660008181526004602052604090209061313190333086613b02565b8281600001600082825461314591906142c0565b90915550506040518381526001600160a01b0385169033907fb61579a10a10e72eda8e63b6e1224e007f5c4108c1378c9a831a11363a74b75a9060200160405180910390a36001600160a01b038416600081815260036020908152604091829020805485546001928301549287015485519283529382015292830152606082015260008051602061452183398151915290608001612e99565b6000806131eb8484613f3e565b905060006131f98585613fa6565b9050808211613208578061320a565b815b95945050505050565b61325c6040518060e0016040528060008152602001600081526020016000815260200160008152602001600081526020016000815260200160006001600160a01b031681525090565b506001600160a01b03908116600090815260046020818152604092839020835160e0810185528154815260018201549281019290925260028101549382019390935260038301546060820152908201546080820152600582015460a082015260069091015490911660c082015290565b6133156040518060e0016040528060008152602001600081526020016000815260200160008152602001600081526020016000815260200160006001600160a01b031681525090565b506001600160a01b03908116600090815260036020818152604092839020835160e0810185528154815260018201549281019290925260028101549382019390935290820154606082015260048201546080820152600582015460a082015260069091015490911660c082015290565b600254604051630736b32b60e31b81526001600160a01b038085166004830152849216906339b5995890602401602060405180830381865afa1580156133cf573d6000803e3d6000fd5b505050506040513d601f19601f820116820180604052508101906133f391906142d3565b156134105760405162461bcd60e51b8152600401610947906142f0565b600260009054906101000a90046001600160a01b03166001600160a01b031663c18b1d5e6040518163ffffffff1660e01b8152600401602060405180830381865afa158015613463573d6000803e3d6000fd5b505050506040513d601f19601f820116820180604052508101906134879190614403565b6001600160a01b0316336001600160a01b0316146134b75760405162461bcd60e51b815260040161094790614420565b600082116134d75760405162461bcd60e51b8152600401610947906144e9565b6001600160a01b0383166134fd5760405162461bcd60e51b81526004016109479061431a565b6001600160a01b038316600090815260046020526040902080548311156135665760405162461bcd60e51b815260206004820152601c60248201527f496e73756666696369656e7420746f6b656e206c6971756964697479000000006044820152606401610947565b8281600001600082825461357a91906142ad565b9091555061359490506001600160a01b0385163385613a79565b6001600160a01b038416600081815260036020908152604091829020805485546001928301549287015485519283529382015292830152606082015260008051602061452183398151915290608001612e99565b6135f0613ad8565b60008111801561360257506127108111155b61364a5760405162461bcd60e51b8152602060048201526019602482015278496e76616c6964207368617265732070657263656e7461676560381b6044820152606401610947565b6001600160a01b03821660009081526003602090815260408083206005835281842033855290925290912081546136c35760405162461bcd60e51b815260206004820152601860248201527f4e6f20455448206c697175696469747920696e20706f6f6c00000000000000006044820152606401610947565b80546137115760405162461bcd60e51b815260206004820152601c60248201527f4e6f20455448206c697175696469747920746f207769746864726177000000006044820152606401610947565b60008160020154670de0b6b3a7640000846002015484600101546137359190614274565b61373f919061428b565b61374991906142ad565b90508082600301600082825461375f91906142c0565b9250508190555060008260040154670de0b6b3a76400008560040154856001015461378a9190614274565b613794919061428b565b61379e91906142ad565b9050808360050160008282546137b491906142c0565b9250508190555060006127108685600101546137d09190614274565b6137da919061428b565b9050600081116138205760405162461bcd60e51b815260206004820152601160248201527027379039b430b932b9903a3790313ab93760791b6044820152606401610947565b600085600101548287600001546138379190614274565b613841919061428b565b90508085600001600082825461385791906142ad565b925050819055508185600101600082825461387291906142ad565b909155505085548190879060009061388b9084906142ad565b92505081905550818660010160008282546138a691906142ad565b909155505060028601546001860154670de0b6b3a7640000916138c891614274565b6138d2919061428b565b600286015560048601546001860154670de0b6b3a7640000916138f491614274565b6138fe919061428b565b6004860155604051600090339083908381818185875af1925050503d8060008114613945576040519150601f19603f3d011682016040523d82523d6000602084013e61394a565b606091505b50509050806139915760405162461bcd60e51b8152602060048201526013602482015272115512081d1c985b9cd9995c8819985a5b1959606a1b6044820152606401610947565b6005860154156139bc5760058601805460009091556139ba6001600160a01b038b163383613a79565b505b336001600160a01b03167f54ac85787a4de040de34c9da167aa6f74aaf2c8e7fd1cecc11ca8920e64509418a84866040516139f993929190614376565b60405180910390a250505050505050611f3e60018055565b613a19613a4c565b6001600160a01b038116613a4357604051631e4fbdf760e01b815260006004820152602401610947565b610c4981613deb565b6000546001600160a01b03163314611f545760405163118cdaa760e01b8152336004820152602401610947565b6040516001600160a01b0383811660248301526044820183905261128491859182169063a9059cbb906064015b604051602081830303815290604052915060e01b6020820180516001600160e01b038381831617835250505050613fed565b600260015403613afb57604051633ee5aeb560e01b815260040160405180910390fd5b6002600155565b6040516001600160a01b038481166024830152838116604483015260648201839052610a3b9186918216906323b872dd90608401613aa6565b60008111613b5b5760405162461bcd60e51b815260040161094790614465565b6001600160a01b038216613b815760405162461bcd60e51b81526004016109479061431a565b6001600160a01b03821660009081526003602052604081206001810154909103613baa57505050565b6001810154600090613bc4670de0b6b3a764000085614274565b613bce919061428b565b8260020154613bdd91906142c0565b90508160020154811015613c335760405162461bcd60e51b815260206004820152601e60248201527f4f766572666c6f7720696e207265776172642063616c63756c6174696f6e00006044820152606401610947565b80826002018190555082826003016000828254613c5091906142c0565b909155505050505050565b60008111613c7b5760405162461bcd60e51b815260040161094790614465565b6001600160a01b038216613ca15760405162461bcd60e51b81526004016109479061431a565b6001600160a01b03821660009081526004602052604081206001810154909103613baa57505050565b60008111613cea5760405162461bcd60e51b8152600401610947906144a6565b6001600160a01b038216613d105760405162461bcd60e51b81526004016109479061431a565b6001600160a01b03821660009081526003602052604081206001810154909103613d3957505050565b6001810154600090613d53670de0b6b3a764000085614274565b613d5d919061428b565b8260040154613d6c91906142c0565b90508160040154811015613dce5760405162461bcd60e51b8152602060048201526024808201527f4f766572666c6f7720696e20746f6b656e207265776172642063616c63756c616044820152633a34b7b760e11b6064820152608401610947565b80826004018190555082826005016000828254613c5091906142c0565b600080546001600160a01b038381166001600160a01b0319831681178455604051919092169283917f8be0079c531659141344cd1fd0a4f28419497f9722a3daafe3b4186f6b6457e09190a35050565b60008111613e5b5760405162461bcd60e51b815260040161094790614465565b6001600160a01b038216613e815760405162461bcd60e51b81526004016109479061431a565b6001600160a01b03821660009081526004602052604081206001810154909103613eaa57505050565b6001810154600090613ec4670de0b6b3a764000085614274565b613ece919061428b565b8260040154613edd91906142c0565b90508160040154811015613dce5760405162461bcd60e51b815260206004820152602260248201527f4f766572666c6f7720696e20455448207265776172642063616c63756c61746960448201526137b760f11b6064820152608401610947565b6001600160a01b03808316600090815260036020908152604080832060058352818420948616845293909152812060018301549192918303613f8557600092505050611bae565b81600101548160010154612710613f9c9190614274565b61320a919061428b565b6001600160a01b03808316600090815260046020908152604080832060068352818420948616845293909152812060018301549192918303613f8557600092505050611bae565b600080602060008451602086016000885af180614010576040513d6000823e3d81fd5b50506000513d91508115614028578060011415614035565b6001600160a01b0384163b155b15610a3b57604051635274afe760e01b81526001600160a01b0385166004820152602401610947565b6000806020838503121561407157600080fd5b823567ffffffffffffffff81111561408857600080fd5b8301601f8101851361409957600080fd5b803567ffffffffffffffff8111156140b057600080fd5b8560208260051b84010111156140c557600080fd5b6020919091019590945092505050565b6001600160a01b0381168114610c4957600080fd5b6000602082840312156140fc57600080fd5b813561225c816140d5565b6000806040838503121561411a57600080fd5b8235614125816140d5565b946020939093013593505050565b6000806040838503121561414657600080fd5b8235614151816140d5565b91506020830135614161816140d5565b809150509250929050565b8015158114610c4957600080fd5b6000806040838503121561418d57600080fd5b8235614198816140d5565b915060208301356141618161416c565b6000806000606084860312156141bd57600080fd5b83356141c8816140d5565b95602085013595506040909401359392505050565b815181526020808301519082015260408083015190820152606080830151908201526080808301519082015260a0808301519082015260c0808301516001600160a01b03169082015260e08101611bae565b634e487b7160e01b600052603260045260246000fd5b60006020828403121561425757600080fd5b5051919050565b634e487b7160e01b600052601160045260246000fd5b8082028115828204841417611bae57611bae61425e565b6000826142a857634e487b7160e01b600052601260045260246000fd5b500490565b81810381811115611bae57611bae61425e565b80820180821115611bae57611bae61425e565b6000602082840312156142e557600080fd5b815161225c8161416c565b60208082526010908201526f151bdad95b881a5cc8189b1bd8dad95960821b604082015260600190565b602080825260159082015274496e76616c696420746f6b656e206164647265737360581b604082015260600190565b60208082526013908201527214185a5c88191bd95cc81b9bdd08195e1a5cdd606a1b604082015260600190565b6001600160a01b039390931683526020830191909152604082015260600190565b80516001600160701b03811681146143ae57600080fd5b919050565b6000806000606084860312156143c857600080fd5b6143d184614397565b92506143df60208501614397565b9150604084015163ffffffff811681146143f857600080fd5b809150509250925092565b60006020828403121561441557600080fd5b815161225c816140d5565b60208082526025908201527f4f6e6c79206f72646572626f6f6b2063616e2063616c6c20746869732066756e60408201526431ba34b7b760d91b606082015260800190565b60208082526021908201527f45544820616d6f756e74206d7573742062652067726561746572207468616e206040820152600360fc1b606082015260800190565b60208082526023908201527f546f6b656e20616d6f756e74206d75737420626520677265617465722074686160408201526206e20360ec1b606082015260800190565b6020808252601d908201527f416d6f756e74206d7573742062652067726561746572207468616e203000000060408201526060019056fee7a1849d3d3b81e99267b68a3889d2f466ac59697fa69ed9f94d306737f6ecd8a264697066735822122069a3d472533846ea78a219aadc967d5abbfe6e7e0a4faa8a48da30e072238e3464736f6c634300081a0033",
  "linkReferences": {},
  "deployedLinkReferences": {}
}