{
  "_format": "hh-sol-artifact-1",
  "contractName": "GradientOrderbook",
  "sourceName": "contracts/GradientOrderbook.sol",
  "abi": [
    {
      "inputs": [
        {
          "internalType": "contract IGradientRegistry",
          "name": "_gradientRegistry",
          "type": "address"
        }
      ],
      "stateMutability": "nonpayable",
      "type": "constructor"
    },
    {
      "inputs": [
        {
          "internalType": "address",
          "name": "owner",
          "type": "address"
        }
      ],
      "name": "OwnableInvalidOwner",
      "type": "error"
    },
    {
      "inputs": [
        {
          "internalType": "address",
          "name": "account",
          "type": "address"
        }
      ],
      "name": "OwnableUnauthorizedAccount",
      "type": "error"
    },
    {
      "inputs": [],
      "name": "ReentrancyGuardReentrantCall",
      "type": "error"
    },
    {
      "inputs": [
        {
          "internalType": "address",
          "name": "token",
          "type": "address"
        }
      ],
      "name": "SafeERC20FailedOperation",
      "type": "error"
    },
    {
      "anonymous": false,
      "inputs": [
        {
          "indexed": true,
          "internalType": "address",
          "name": "marketMakerPool",
          "type": "address"
        },
        {
          "indexed": true,
          "internalType": "address",
          "name": "token",
          "type": "address"
        },
        {
          "indexed": false,
          "internalType": "uint256",
          "name": "amount",
          "type": "uint256"
        },
        {
          "indexed": false,
          "internalType": "uint256",
          "name": "totalFee",
          "type": "uint256"
        }
      ],
      "name": "FeeDistributedToPool",
      "type": "event"
    },
    {
      "anonymous": false,
      "inputs": [
        {
          "indexed": false,
          "internalType": "uint256",
          "name": "oldFeePercentage",
          "type": "uint256"
        },
        {
          "indexed": false,
          "internalType": "uint256",
          "name": "newFeePercentage",
          "type": "uint256"
        }
      ],
      "name": "FeePercentageUpdated",
      "type": "event"
    },
    {
      "anonymous": false,
      "inputs": [
        {
          "indexed": true,
          "internalType": "address",
          "name": "recipient",
          "type": "address"
        },
        {
          "indexed": false,
          "internalType": "uint256",
          "name": "amount",
          "type": "uint256"
        }
      ],
      "name": "FeesWithdrawn",
      "type": "event"
    },
    {
      "anonymous": false,
      "inputs": [
        {
          "indexed": false,
          "internalType": "uint256",
          "name": "oldPercentage",
          "type": "uint256"
        },
        {
          "indexed": false,
          "internalType": "uint256",
          "name": "newPercentage",
          "type": "uint256"
        }
      ],
      "name": "MMFeeDistributionPercentageUpdated",
      "type": "event"
    },
    {
      "anonymous": false,
      "inputs": [
        {
          "indexed": false,
          "internalType": "uint256",
          "name": "newMaxTTL",
          "type": "uint256"
        }
      ],
      "name": "MaxTTLUpdated",
      "type": "event"
    },
    {
      "anonymous": false,
      "inputs": [
        {
          "indexed": true,
          "internalType": "uint256",
          "name": "orderId",
          "type": "uint256"
        }
      ],
      "name": "OrderCancelled",
      "type": "event"
    },
    {
      "anonymous": false,
      "inputs": [
        {
          "indexed": true,
          "internalType": "uint256",
          "name": "orderId",
          "type": "uint256"
        },
        {
          "indexed": true,
          "internalType": "address",
          "name": "owner",
          "type": "address"
        },
        {
          "indexed": false,
          "internalType": "enum GradientOrderbook.OrderType",
          "name": "orderType",
          "type": "uint8"
        },
        {
          "indexed": false,
          "internalType": "enum GradientOrderbook.OrderExecutionType",
          "name": "executionType",
          "type": "uint8"
        },
        {
          "indexed": false,
          "internalType": "address",
          "name": "token",
          "type": "address"
        },
        {
          "indexed": false,
          "internalType": "uint256",
          "name": "amount",
          "type": "uint256"
        },
        {
          "indexed": false,
          "internalType": "uint256",
          "name": "price",
          "type": "uint256"
        },
        {
          "indexed": false,
          "internalType": "uint256",
          "name": "expirationTime",
          "type": "uint256"
        },
        {
          "indexed": false,
          "internalType": "uint256",
          "name": "totalCost",
          "type": "uint256"
        }
      ],
      "name": "OrderCreated",
      "type": "event"
    },
    {
      "anonymous": false,
      "inputs": [
        {
          "indexed": true,
          "internalType": "uint256",
          "name": "orderId",
          "type": "uint256"
        }
      ],
      "name": "OrderExpired",
      "type": "event"
    },
    {
      "anonymous": false,
      "inputs": [
        {
          "indexed": true,
          "internalType": "uint256",
          "name": "orderId",
          "type": "uint256"
        },
        {
          "indexed": false,
          "internalType": "uint256",
          "name": "amount",
          "type": "uint256"
        }
      ],
      "name": "OrderFulfilled",
      "type": "event"
    },
    {
      "anonymous": false,
      "inputs": [
        {
          "indexed": true,
          "internalType": "uint256",
          "name": "orderId",
          "type": "uint256"
        },
        {
          "indexed": true,
          "internalType": "address",
          "name": "marketMakerPool",
          "type": "address"
        },
        {
          "indexed": false,
          "internalType": "uint256",
          "name": "amount",
          "type": "uint256"
        },
        {
          "indexed": false,
          "internalType": "uint256",
          "name": "price",
          "type": "uint256"
        }
      ],
      "name": "OrderFulfilledByMarketMaker",
      "type": "event"
    },
    {
      "anonymous": false,
      "inputs": [
        {
          "indexed": true,
          "internalType": "uint256",
          "name": "orderId",
          "type": "uint256"
        },
        {
          "indexed": true,
          "internalType": "uint256",
          "name": "matchedOrderId",
          "type": "uint256"
        },
        {
          "indexed": false,
          "internalType": "uint256",
          "name": "amount",
          "type": "uint256"
        },
        {
          "indexed": false,
          "internalType": "uint256",
          "name": "price",
          "type": "uint256"
        }
      ],
      "name": "OrderFulfilledByMatching",
      "type": "event"
    },
    {
      "anonymous": false,
      "inputs": [
        {
          "indexed": true,
          "internalType": "uint256",
          "name": "orderId",
          "type": "uint256"
        },
        {
          "indexed": false,
          "internalType": "uint256",
          "name": "amount",
          "type": "uint256"
        },
        {
          "indexed": false,
          "internalType": "uint256",
          "name": "remaining",
          "type": "uint256"
        }
      ],
      "name": "OrderPartiallyFulfilled",
      "type": "event"
    },
    {
      "anonymous": false,
      "inputs": [
        {
          "indexed": false,
          "internalType": "uint256",
          "name": "minSize",
          "type": "uint256"
        },
        {
          "indexed": false,
          "internalType": "uint256",
          "name": "maxSize",
          "type": "uint256"
        }
      ],
      "name": "OrderSizeLimitsUpdated",
      "type": "event"
    },
    {
      "anonymous": false,
      "inputs": [
        {
          "indexed": true,
          "internalType": "address",
          "name": "previousOwner",
          "type": "address"
        },
        {
          "indexed": true,
          "internalType": "address",
          "name": "newOwner",
          "type": "address"
        }
      ],
      "name": "OwnershipTransferred",
      "type": "event"
    },
    {
      "anonymous": false,
      "inputs": [
        {
          "indexed": false,
          "internalType": "uint256",
          "name": "newInterval",
          "type": "uint256"
        }
      ],
      "name": "RateLimitUpdated",
      "type": "event"
    },
    {
      "stateMutability": "payable",
      "type": "fallback"
    },
    {
      "inputs": [],
      "name": "DIVISOR",
      "outputs": [
        {
          "internalType": "uint256",
          "name": "",
          "type": "uint256"
        }
      ],
      "stateMutability": "view",
      "type": "function"
    },
    {
      "inputs": [],
      "name": "MAX_FEE_PERCENTAGE",
      "outputs": [
        {
          "internalType": "uint256",
          "name": "",
          "type": "uint256"
        }
      ],
      "stateMutability": "view",
      "type": "function"
    },
    {
      "inputs": [
        {
          "internalType": "uint256",
          "name": "orderId",
          "type": "uint256"
        }
      ],
      "name": "cancelOrder",
      "outputs": [],
      "stateMutability": "nonpayable",
      "type": "function"
    },
    {
      "inputs": [
        {
          "internalType": "uint256",
          "name": "orderId",
          "type": "uint256"
        }
      ],
      "name": "cleanupExpiredOrder",
      "outputs": [],
      "stateMutability": "nonpayable",
      "type": "function"
    },
    {
      "inputs": [
        {
          "internalType": "enum GradientOrderbook.OrderType",
          "name": "orderType",
          "type": "uint8"
        },
        {
          "internalType": "enum GradientOrderbook.OrderExecutionType",
          "name": "executionType",
          "type": "uint8"
        },
        {
          "internalType": "address",
          "name": "token",
          "type": "address"
        },
        {
          "internalType": "uint256",
          "name": "amount",
          "type": "uint256"
        },
        {
          "internalType": "uint256",
          "name": "price",
          "type": "uint256"
        },
        {
          "internalType": "uint256",
          "name": "ttl",
          "type": "uint256"
        }
      ],
      "name": "createOrder",
      "outputs": [
        {
          "internalType": "uint256",
          "name": "",
          "type": "uint256"
        }
      ],
      "stateMutability": "payable",
      "type": "function"
    },
    {
      "inputs": [
        {
          "internalType": "address",
          "name": "token",
          "type": "address"
        },
        {
          "internalType": "address",
          "name": "to",
          "type": "address"
        },
        {
          "internalType": "uint256",
          "name": "amount",
          "type": "uint256"
        }
      ],
      "name": "emergencyWithdraw",
      "outputs": [],
      "stateMutability": "nonpayable",
      "type": "function"
    },
    {
      "inputs": [],
      "name": "feePercentage",
      "outputs": [
        {
          "internalType": "uint256",
          "name": "",
          "type": "uint256"
        }
      ],
      "stateMutability": "view",
      "type": "function"
    },
    {
      "inputs": [
        {
          "components": [
            {
              "internalType": "uint256",
              "name": "buyOrderId",
              "type": "uint256"
            },
            {
              "internalType": "uint256",
              "name": "sellOrderId",
              "type": "uint256"
            },
            {
              "internalType": "uint256",
              "name": "fillAmount",
              "type": "uint256"
            }
          ],
          "internalType": "struct GradientOrderbook.OrderMatch[]",
          "name": "matches",
          "type": "tuple[]"
        }
      ],
      "name": "fulfillLimitOrders",
      "outputs": [],
      "stateMutability": "nonpayable",
      "type": "function"
    },
    {
      "inputs": [
        {
          "components": [
            {
              "internalType": "uint256",
              "name": "buyOrderId",
              "type": "uint256"
            },
            {
              "internalType": "uint256",
              "name": "sellOrderId",
              "type": "uint256"
            },
            {
              "internalType": "uint256",
              "name": "fillAmount",
              "type": "uint256"
            }
          ],
          "internalType": "struct GradientOrderbook.OrderMatch[]",
          "name": "matches",
          "type": "tuple[]"
        },
        {
          "internalType": "uint256[]",
          "name": "executionPrices",
          "type": "uint256[]"
        }
      ],
      "name": "fulfillMarketOrders",
      "outputs": [],
      "stateMutability": "nonpayable",
      "type": "function"
    },
    {
      "inputs": [
        {
          "internalType": "uint256[]",
          "name": "orderIds",
          "type": "uint256[]"
        },
        {
          "internalType": "uint256[]",
          "name": "fillAmounts",
          "type": "uint256[]"
        }
      ],
      "name": "fulfillOrdersWithMarketMaker",
      "outputs": [],
      "stateMutability": "nonpayable",
      "type": "function"
    },
    {
      "inputs": [
        {
          "internalType": "uint256",
          "name": "orderId",
          "type": "uint256"
        },
        {
          "internalType": "uint256",
          "name": "fillAmount",
          "type": "uint256"
        },
        {
          "internalType": "uint256",
          "name": "minAmountOut",
          "type": "uint256"
        }
      ],
      "name": "fulfillOwnOrderWithAMM",
      "outputs": [],
      "stateMutability": "nonpayable",
      "type": "function"
    },
    {
      "inputs": [
        {
          "internalType": "address",
          "name": "token",
          "type": "address"
        },
        {
          "internalType": "enum GradientOrderbook.OrderType",
          "name": "orderType",
          "type": "uint8"
        },
        {
          "internalType": "enum GradientOrderbook.OrderExecutionType",
          "name": "executionType",
          "type": "uint8"
        }
      ],
      "name": "getActiveOrders",
      "outputs": [
        {
          "internalType": "uint256[]",
          "name": "",
          "type": "uint256[]"
        }
      ],
      "stateMutability": "view",
      "type": "function"
    },
    {
      "inputs": [
        {
          "internalType": "bytes32",
          "name": "queueKey",
          "type": "bytes32"
        }
      ],
      "name": "getActiveOrdersCount",
      "outputs": [
        {
          "internalType": "uint256",
          "name": "",
          "type": "uint256"
        }
      ],
      "stateMutability": "view",
      "type": "function"
    },
    {
      "inputs": [
        {
          "internalType": "address",
          "name": "token",
          "type": "address"
        },
        {
          "internalType": "enum GradientOrderbook.OrderType",
          "name": "orderType",
          "type": "uint8"
        },
        {
          "internalType": "enum GradientOrderbook.OrderExecutionType",
          "name": "executionType",
          "type": "uint8"
        },
        {
          "internalType": "uint256",
          "name": "startIndex",
          "type": "uint256"
        },
        {
          "internalType": "uint256",
          "name": "count",
          "type": "uint256"
        }
      ],
      "name": "getActiveOrdersPaged",
      "outputs": [
        {
          "internalType": "uint256[]",
          "name": "",
          "type": "uint256[]"
        }
      ],
      "stateMutability": "view",
      "type": "function"
    },
    {
      "inputs": [
        {
          "internalType": "uint256",
          "name": "orderId",
          "type": "uint256"
        }
      ],
      "name": "getOrder",
      "outputs": [
        {
          "components": [
            {
              "internalType": "uint256",
              "name": "orderId",
              "type": "uint256"
            },
            {
              "internalType": "address",
              "name": "owner",
              "type": "address"
            },
            {
              "internalType": "enum GradientOrderbook.OrderType",
              "name": "orderType",
              "type": "uint8"
            },
            {
              "internalType": "enum GradientOrderbook.OrderExecutionType",
              "name": "executionType",
              "type": "uint8"
            },
            {
              "internalType": "address",
              "name": "token",
              "type": "address"
            },
            {
              "internalType": "uint256",
              "name": "amount",
              "type": "uint256"
            },
            {
              "internalType": "uint256",
              "name": "price",
              "type": "uint256"
            },
            {
              "internalType": "uint256",
              "name": "filledAmount",
              "type": "uint256"
            },
            {
              "internalType": "uint256",
              "name": "expirationTime",
              "type": "uint256"
            },
            {
              "internalType": "enum GradientOrderbook.OrderStatus",
              "name": "status",
              "type": "uint8"
            }
          ],
          "internalType": "struct GradientOrderbook.Order",
          "name": "",
          "type": "tuple"
        }
      ],
      "stateMutability": "view",
      "type": "function"
    },
    {
      "inputs": [
        {
          "internalType": "uint256",
          "name": "orderId",
          "type": "uint256"
        }
      ],
      "name": "getRemainingAmount",
      "outputs": [
        {
          "internalType": "uint256",
          "name": "",
          "type": "uint256"
        }
      ],
      "stateMutability": "view",
      "type": "function"
    },
    {
      "inputs": [],
      "name": "gradientRegistry",
      "outputs": [
        {
          "internalType": "contract IGradientRegistry",
          "name": "",
          "type": "address"
        }
      ],
      "stateMutability": "view",
      "type": "function"
    },
    {
      "inputs": [
        {
          "internalType": "uint256",
          "name": "orderId",
          "type": "uint256"
        }
      ],
      "name": "isOrderExpired",
      "outputs": [
        {
          "internalType": "bool",
          "name": "",
          "type": "bool"
        }
      ],
      "stateMutability": "view",
      "type": "function"
    },
    {
      "inputs": [],
      "name": "maxOrderSize",
      "outputs": [
        {
          "internalType": "uint256",
          "name": "",
          "type": "uint256"
        }
      ],
      "stateMutability": "view",
      "type": "function"
    },
    {
      "inputs": [],
      "name": "maxOrderTtl",
      "outputs": [
        {
          "internalType": "uint256",
          "name": "",
          "type": "uint256"
        }
      ],
      "stateMutability": "view",
      "type": "function"
    },
    {
      "inputs": [],
      "name": "minOrderSize",
      "outputs": [
        {
          "internalType": "uint256",
          "name": "",
          "type": "uint256"
        }
      ],
      "stateMutability": "view",
      "type": "function"
    },
    {
      "inputs": [],
      "name": "mmFeeDistributionPercentage",
      "outputs": [
        {
          "internalType": "uint256",
          "name": "",
          "type": "uint256"
        }
      ],
      "stateMutability": "view",
      "type": "function"
    },
    {
      "inputs": [
        {
          "internalType": "uint256",
          "name": "",
          "type": "uint256"
        }
      ],
      "name": "orders",
      "outputs": [
        {
          "internalType": "uint256",
          "name": "orderId",
          "type": "uint256"
        },
        {
          "internalType": "address",
          "name": "owner",
          "type": "address"
        },
        {
          "internalType": "enum GradientOrderbook.OrderType",
          "name": "orderType",
          "type": "uint8"
        },
        {
          "internalType": "enum GradientOrderbook.OrderExecutionType",
          "name": "executionType",
          "type": "uint8"
        },
        {
          "internalType": "address",
          "name": "token",
          "type": "address"
        },
        {
          "internalType": "uint256",
          "name": "amount",
          "type": "uint256"
        },
        {
          "internalType": "uint256",
          "name": "price",
          "type": "uint256"
        },
        {
          "internalType": "uint256",
          "name": "filledAmount",
          "type": "uint256"
        },
        {
          "internalType": "uint256",
          "name": "expirationTime",
          "type": "uint256"
        },
        {
          "internalType": "enum GradientOrderbook.OrderStatus",
          "name": "status",
          "type": "uint8"
        }
      ],
      "stateMutability": "view",
      "type": "function"
    },
    {
      "inputs": [],
      "name": "owner",
      "outputs": [
        {
          "internalType": "address",
          "name": "",
          "type": "address"
        }
      ],
      "stateMutability": "view",
      "type": "function"
    },
    {
      "inputs": [],
      "name": "renounceOwnership",
      "outputs": [],
      "stateMutability": "nonpayable",
      "type": "function"
    },
    {
      "inputs": [
        {
          "internalType": "uint256",
          "name": "newFeePercentage",
          "type": "uint256"
        }
      ],
      "name": "setFeePercentage",
      "outputs": [],
      "stateMutability": "nonpayable",
      "type": "function"
    },
    {
      "inputs": [
        {
          "internalType": "uint256",
          "name": "_maxOrderTtl",
          "type": "uint256"
        }
      ],
      "name": "setMaxOrderTtl",
      "outputs": [],
      "stateMutability": "nonpayable",
      "type": "function"
    },
    {
      "inputs": [
        {
          "internalType": "uint256",
          "name": "_minOrderSize",
          "type": "uint256"
        },
        {
          "internalType": "uint256",
          "name": "_maxOrderSize",
          "type": "uint256"
        }
      ],
      "name": "setOrderSizeLimits",
      "outputs": [],
      "stateMutability": "nonpayable",
      "type": "function"
    },
    {
      "inputs": [],
      "name": "totalFeesCollected",
      "outputs": [
        {
          "internalType": "uint256",
          "name": "",
          "type": "uint256"
        }
      ],
      "stateMutability": "view",
      "type": "function"
    },
    {
      "inputs": [
        {
          "internalType": "bytes32",
          "name": "",
          "type": "bytes32"
        }
      ],
      "name": "totalOrderCount",
      "outputs": [
        {
          "internalType": "uint256",
          "name": "",
          "type": "uint256"
        }
      ],
      "stateMutability": "view",
      "type": "function"
    },
    {
      "inputs": [
        {
          "internalType": "address",
          "name": "newOwner",
          "type": "address"
        }
      ],
      "name": "transferOwnership",
      "outputs": [],
      "stateMutability": "nonpayable",
      "type": "function"
    },
    {
      "inputs": [
        {
          "internalType": "uint256",
          "name": "newPercentage",
          "type": "uint256"
        }
      ],
      "name": "updateMMFeeDistributionPercentage",
      "outputs": [],
      "stateMutability": "nonpayable",
      "type": "function"
    },
    {
      "inputs": [
        {
          "internalType": "address payable",
          "name": "recipient",
          "type": "address"
        }
      ],
      "name": "withdrawFees",
      "outputs": [],
      "stateMutability": "nonpayable",
      "type": "function"
    },
    {
      "stateMutability": "payable",
      "type": "receive"
    }
  ],
  "bytecode": "0x60a0604052611b58600c5534801561001657600080fd5b50604051614ac3380380614ac3833981016040819052610035916100ea565b338061005b57604051631e4fbdf760e01b81526000600482015260240160405180910390fd5b6100648161009a565b50600180556001600160a01b03166080526032600355620f4240600955683635c9adc5dea00000600a5562278d00600b5561011a565b600080546001600160a01b038381166001600160a01b0319831681178455604051919092169283917f8be0079c531659141344cd1fd0a4f28419497f9722a3daafe3b4186f6b6457e09190a35050565b6000602082840312156100fc57600080fd5b81516001600160a01b038116811461011357600080fd5b9392505050565b60805161496461015f60003960008181610428015281816107d3015281816111340152818161130301528181611bfb01528181611f550152612aca01526149646000f3fe6080604052600436106101da5760003560e01c8063715018a611610101578063a674537f1161009a578063d09ef2411161006c578063d09ef241146105e6578063e63ea40814610613578063f1a82c7e14610633578063f2fde38b14610649578063f6252ff21461066957005b8063a674537f146104f6578063a85c38ef1461050c578063ae06c1b7146105a6578063bfde1d7c146105c657005b80638f9057df116100d35780638f9057df14610480578063983d1a14146104a05780639c302fdb146104c0578063a001ecdd146104e057005b8063715018a6146103e1578063727d2114146103f6578063830562bc146104165780638da5cb5b1461046257005b80633410fe6e11610173578063568c820611610145578063568c82061461036557806359c693131461038557806360c6d8ae146103b557806366961d44146103cb57005b80633410fe6e146102f9578063457a89241461030f578063514fcac71461032f578063558e44d31461034f57005b8063164e68de116101ac578063164e68de146102765780631f32eb771461029657806321b30746146102c35780632f1131fb146102e357005b80630d34219c146101e357806310e1c1661461022357806311e807a41461024357806313b64e241461025657005b366101e157005b005b3480156101ef57600080fd5b506102106101fe366004614061565b60066020526000908152604090205481565b6040519081526020015b60405180910390f35b34801561022f57600080fd5b5061021061023e366004614061565b610689565b61021061025136600461409c565b61071b565b34801561026257600080fd5b506101e1610271366004614101565b610e1c565b34801561028257600080fd5b506101e1610291366004614123565b610e6c565b3480156102a257600080fd5b506102b66102b1366004614147565b610fe9565b60405161021a9190614192565b3480156102cf57600080fd5b506101e16102de366004614221565b611117565b3480156102ef57600080fd5b50610210600c5481565b34801561030557600080fd5b5061021061271081565b34801561031b57600080fd5b506101e161032a3660046142d7565b6112e6565b34801561033b57600080fd5b506101e161034a366004614061565b611485565b34801561035b57600080fd5b506102106101f481565b34801561037157600080fd5b506101e1610380366004614061565b6117ed565b34801561039157600080fd5b506103a56103a0366004614061565b611b35565b604051901515815260200161021a565b3480156103c157600080fd5b5061021060045481565b3480156103d757600080fd5b50610210600b5481565b3480156103ed57600080fd5b506101e1611b87565b34801561040257600080fd5b506101e1610411366004614061565b611b9b565b34801561042257600080fd5b5061044a7f000000000000000000000000000000000000000000000000000000000000000081565b6040516001600160a01b03909116815260200161021a565b34801561046e57600080fd5b506000546001600160a01b031661044a565b34801561048c57600080fd5b506101e161049b366004614310565b611bde565b3480156104ac57600080fd5b506101e16104bb366004614061565b611d28565b3480156104cc57600080fd5b506101e16104db366004614352565b611db6565b3480156104ec57600080fd5b5061021060035481565b34801561050257600080fd5b5061021060095481565b34801561051857600080fd5b50610590610527366004614061565b60056020819052600091825260409091208054600182015460028301546003840154600485015495850154600686015460079096015494966001600160a01b038086169760ff600160a01b8804811698600160a81b90980481169796909216959293929091168a565b60405161021a9a999897969594939291906143c1565b3480156105b257600080fd5b506101e16105c1366004614061565b612358565b3480156105d257600080fd5b506102b66105e136600461443a565b6123f0565b3480156105f257600080fd5b50610606610601366004614061565b6125a6565b60405161021a9190614495565b34801561061f57600080fd5b506101e161062e366004614539565b612700565b34801561063f57600080fd5b50610210600a5481565b34801561065557600080fd5b506101e1610664366004614123565b61285d565b34801561067557600080fd5b50610210610684366004614061565b612898565b600080805b6000848152600660205260409020548110156107145760008481526007602090815260408083208484529091528120549060008281526005602052604090206007015460ff1660038111156106e5576106e561437e565b1480156106f857506106f681611b35565b155b1561070b578261070781614590565b9350505b5060010161068e565b5092915050565b6000846001600160a01b0381166107695760405162461bcd60e51b815260206004820152600d60248201526c24b73b30b634b2103a37b5b2b760991b60448201526064015b60405180910390fd5b6000816001600160a01b03163b116107b45760405162461bcd60e51b815260206004820152600e60248201526d139bdd08184818dbdb9d1c9858dd60921b6044820152606401610760565b604051630736b32b60e31b81526001600160a01b0382811660048301527f000000000000000000000000000000000000000000000000000000000000000016906339b5995890602401602060405180830381865afa15801561081a573d6000803e3d6000fd5b505050506040513d601f19601f8201168201806040525081019061083e91906145a9565b1561087e5760405162461bcd60e51b815260206004820152601060248201526f151bdad95b881a5cc8189b1bd8dad95960821b6044820152606401610760565b6108866128fd565b600085116108d65760405162461bcd60e51b815260206004820152601d60248201527f416d6f756e74206d7573742062652067726561746572207468616e20300000006044820152606401610760565b6000841161091c5760405162461bcd60e51b8152602060048201526013602482015272496e76616c69642070726963652072616e676560681b6044820152606401610760565b6000831161096c5760405162461bcd60e51b815260206004820152601a60248201527f54544c206d7573742062652067726561746572207468616e20300000000000006044820152606401610760565b600b548311156109ad5760405162461bcd60e51b815260206004820152600c60248201526b54544c20746f6f206c6f6e6760a01b6044820152606401610760565b6000670de0b6b3a76400006109c286886145cb565b6109cc91906145e8565b90506000612710600354836109e191906145cb565b6109eb91906145e8565b9050600954821015610a315760405162461bcd60e51b815260206004820152600f60248201526e13dc99195c881d1bdbc81cdb585b1b608a1b6044820152606401610760565b600a54821115610a755760405162461bcd60e51b815260206004820152600f60248201526e4f7264657220746f6f206c6172676560881b6044820152606401610760565b60008a6001811115610a8957610a8961437e565b03610afc57610a98818361460a565b341015610adf5760405162461bcd60e51b8152602060048201526015602482015274125b9cdd59999a58da595b9d08115512081cd95b9d605a1b6044820152606401610760565b8060046000828254610af1919061460a565b90915550610b119050565b610b116001600160a01b03891633308a612927565b600280549081906000610b2383614590565b9091555050604080516101408101825282815233602082015260009181018d6001811115610b5357610b5361437e565b81526020018c6001811115610b6a57610b6a61437e565b81526020018b6001600160a01b031681526020018a8152602001898152602001600081526020018842610b9d919061460a565b8152602001600090526000838152600560209081526040918290208351815590830151600180830180546001600160a01b039093166001600160a01b0319841681178255948601519596508695939490926001600160a81b0319161790600160a01b908490811115610c1157610c1161437e565b021790555060608201518160010160156101000a81548160ff02191690836001811115610c4057610c4061437e565b021790555060808201518160020160006101000a8154816001600160a01b0302191690836001600160a01b0316021790555060a0820151816003015560c0820151816004015560e0820151816005015561010082015181600601556101208201518160070160006101000a81548160ff02191690836003811115610cc657610cc661437e565b0217905550905050610cda828b8e8e61298e565b336001600160a01b0316827fa2fb0dce7ae79c4288991eaef209e312e4008fdf46d4842d51f55426ccc903938e8e8e8e8e8861010001518c604051610d25979695949392919061461d565b60405180910390a360008c6001811115610d4157610d4161437e565b148015610d565750610d53838561460a565b34115b15610e03576000610d67848661460a565b610d71903461466f565b604051909150600090339083908381818185875af1925050503d8060008114610db6576040519150601f19603f3d011682016040523d82523d6000602084013e610dbb565b606091505b5050905080610e005760405162461bcd60e51b8152602060048201526011602482015270115512081c995d1d5c9b8819985a5b1959607a1b6044820152606401610760565b50505b5093505050610e1160018055565b509695505050505050565b610e246129f8565b6009829055600a81905560408051838152602081018390527f34a3b94861a601870265c6c4d74c28d1a09f6c803ce42b95e749f46127c8f17091015b60405180910390a15050565b610e746129f8565b6001600160a01b038116610ebe5760405162461bcd60e51b8152602060048201526011602482015270125b9d985b1a59081c9958da5c1a595b9d607a1b6044820152606401610760565b60045480610f045760405162461bcd60e51b81526020600482015260136024820152724e6f206665657320746f20776974686472617760681b6044820152606401610760565b600060048190556040516001600160a01b0384169083908381818185875af1925050503d8060008114610f53576040519150601f19603f3d011682016040523d82523d6000602084013e610f58565b606091505b5050905080610fa15760405162461bcd60e51b8152602060048201526015602482015274119959481dda5d1a191c985dd85b0819985a5b1959605a1b6044820152606401610760565b826001600160a01b03167fc0819c13be868895eb93e40eaceb96de976442fa1d404e5c55f14bb65a8c489a83604051610fdc91815260200190565b60405180910390a2505050565b60606000610ff8858585612a25565b9050600061100582610689565b90506000808267ffffffffffffffff81111561102357611023614682565b60405190808252806020026020018201604052801561104c578160200160208202803683370190505b50905060005b6000858152600660205260409020548110801561106e57508383105b1561110b5760008581526007602090815260408083208484529091528120549060008281526005602052604090206007015460ff1660038111156110b4576110b461437e565b1480156110c757506110c581611b35565b155b156110f857808385815181106110df576110df614698565b6020908102919091010152836110f481614590565b9450505b508061110381614590565b915050611052565b50979650505050505050565b61111f6128fd565b6040516314c530d560e31b81523360048201527f00000000000000000000000000000000000000000000000000000000000000006001600160a01b03169063a62986a890602401602060405180830381865afa158015611183573d6000803e3d6000fd5b505050506040513d601f19601f820116820180604052508101906111a791906145a9565b6111c35760405162461bcd60e51b8152600401610760906146ae565b826112075760405162461bcd60e51b8152602060048201526014602482015273139bc81bdc99195c9cc81d1bc8199d5b199a5b1b60621b6044820152606401610760565b8281146112515760405162461bcd60e51b815260206004820152601860248201527709ad2e6dac2e8c6d0cac840c2e4e4c2f2e640d8cadccee8d60431b6044820152606401610760565b60005b838110156112d657600083838381811061127057611270614698565b90506020020135116112945760405162461bcd60e51b8152600401610760906146e5565b6112ce8585838181106112a9576112a9614698565b905060200201358484848181106112c2576112c2614698565b90506020020135612a5b565b600101611254565b506112e060018055565b50505050565b6112ee6128fd565b6040516314c530d560e31b81523360048201527f00000000000000000000000000000000000000000000000000000000000000006001600160a01b03169063a62986a890602401602060405180830381865afa158015611352573d6000803e3d6000fd5b505050506040513d601f19601f8201168201806040525081019061137691906145a9565b6113925760405162461bcd60e51b8152600401610760906146ae565b826113df5760405162461bcd60e51b815260206004820152601b60248201527f4e6f206f72646572206d61746368657320746f2066756c66696c6c00000000006044820152606401610760565b8281146114295760405162461bcd60e51b815260206004820152601860248201527709ad2e6dac2e8c6d0cac840c2e4e4c2f2e640d8cadccee8d60431b6044820152606401610760565b60005b838110156112d65761147d85858381811061144957611449614698565b90506060020180360381019061145f9190614727565b84848481811061147157611471614698565b9050602002013561318c565b60010161142c565b61148d6128fd565b60008181526005602052604090206001015481906001600160a01b03166114c65760405162461bcd60e51b815260040161076090614793565b60008281526005602052604090206001015482906001600160a01b031633146115235760405162461bcd60e51b815260206004820152600f60248201526e2737ba1037b93232b91037bbb732b960891b6044820152606401610760565b600083815260056020526040812090600782015460ff16600381111561154b5761154b61437e565b146115685760405162461bcd60e51b8152600401610760906147c1565b61157184611b35565b1561158e5760405162461bcd60e51b8152600401610760906147eb565b600781018054600260ff19909116179055600180820154600091600160a01b90910460ff16908111156115c3576115c361437e565b03611772576000816005015482600301546115de919061466f565b9050801561176c576000670de0b6b3a764000083600401548361160191906145cb565b61160b91906145e8565b905060006127106003548361162091906145cb565b61162a91906145e8565b90506000611638828461460a565b90506000600454831161164b578261164f565b6004545b90508060046000828254611663919061466f565b90915550508281101561167d5761167a818561460a565b91505b814710156116cd5760405162461bcd60e51b815260206004820152601c60248201527f496e73756666696369656e742045544820696e20636f6e7472616374000000006044820152606401610760565b60018601546040516000916001600160a01b03169084908381818185875af1925050503d806000811461171c576040519150601f19603f3d011682016040523d82523d6000602084013e611721565b606091505b50509050806117665760405162461bcd60e51b8152602060048201526011602482015270115512081c99599d5b990819985a5b1959607a1b6044820152606401610760565b50505050505b506117b3565b600081600501548260030154611788919061466f565b905080156117b157600182015460028301546117b1916001600160a01b03918216911683613403565b505b60405184907f61b9399f2f0f32ca39ce8d7be32caed5ec22fe07a6daba3a467ed479ec60658290600090a25050506117ea60018055565b50565b6117f56128fd565b60008181526005602052604090206001015481906001600160a01b031661182e5760405162461bcd60e51b815260040161076090614793565b600082815260056020526040812090600782015460ff1660038111156118565761185661437e565b146118735760405162461bcd60e51b8152600401610760906147c1565b61187c83611b35565b6118bc5760405162461bcd60e51b815260206004820152601160248201527013dc99195c881b9bdd08195e1c1a5c9959607a1b6044820152606401610760565b60078101805460ff1916600317905560018082015460ff600160a01b90910416818111156118ec576118ec61437e565b0361193257600081600501548260030154611907919061466f565b905080156119305760018201546002830154611930916001600160a01b03918216911683613403565b505b6000600182810154600160a01b900460ff16908111156119545761195461437e565b03611aff5760008160050154826003015461196f919061466f565b90508015611afd576000670de0b6b3a764000083600401548361199291906145cb565b61199c91906145e8565b90506000612710600354836119b191906145cb565b6119bb91906145e8565b905060006119c9828461460a565b9050600060045483116119dc57826119e0565b6004545b905080600460008282546119f4919061466f565b909155505082811015611a0e57611a0b818561460a565b91505b81471015611a5e5760405162461bcd60e51b815260206004820152601c60248201527f496e73756666696369656e742045544820696e20636f6e7472616374000000006044820152606401610760565b60018601546040516000916001600160a01b03169084908381818185875af1925050503d8060008114611aad576040519150601f19603f3d011682016040523d82523d6000602084013e611ab2565b606091505b5050905080611af75760405162461bcd60e51b8152602060048201526011602482015270115512081c99599d5b990819985a5b1959607a1b6044820152606401610760565b50505050505b505b60405183907f1ad308dc7017610c82d08084545f7176df5e2f08f078c3c8f8926cd7e555551490600090a250506117ea60018055565b60008181526005602052604081206001015482906001600160a01b0316611b6e5760405162461bcd60e51b815260040161076090614793565b5050600090815260056020526040902060060154421190565b611b8f6129f8565b611b996000613434565b565b611ba36129f8565b600b8190556040518181527f5829309fa85e85a75b744b2b1ae6b2913b3d2a9c94df75a5b61de31f962256be9060200160405180910390a150565b611be66128fd565b6040516314c530d560e31b81523360048201527f00000000000000000000000000000000000000000000000000000000000000006001600160a01b03169063a62986a890602401602060405180830381865afa158015611c4a573d6000803e3d6000fd5b505050506040513d601f19601f82011682018060405250810190611c6e91906145a9565b611c8a5760405162461bcd60e51b8152600401610760906146ae565b80611cd75760405162461bcd60e51b815260206004820152601b60248201527f4e6f206f72646572206d61746368657320746f2066756c66696c6c00000000006044820152606401610760565b60005b81811015611d1a57611d12838383818110611cf757611cf7614698565b905060600201803603810190611d0d9190614727565b613484565b600101611cda565b50611d2460018055565b5050565b611d306129f8565b612710811115611d785760405162461bcd60e51b81526020600482015260136024820152720a0cae4c6cadce8c2ceca40e8dede40d0d2ced606b1b6044820152606401610760565b600c80549082905560408051828152602081018490527f0a4a47a3e5193a63e95c6346171009c8e7099d3795ac25df2b9b672be06cc6ca9101610e60565b611dbe6128fd565b60008381526005602052604090206001015483906001600160a01b0316611df75760405162461bcd60e51b815260040161076090614793565b60008481526005602052604090206001015484906001600160a01b03163314611e545760405162461bcd60e51b815260206004820152600f60248201526e2737ba1037b93232b91037bbb732b960891b6044820152606401610760565b60008411611e745760405162461bcd60e51b8152600401610760906146e5565b600085815260056020526040812090600782015460ff166003811115611e9c57611e9c61437e565b14611eb95760405162461bcd60e51b8152600401610760906147c1565b611ec286611b35565b15611edf5760405162461bcd60e51b8152600401610760906147eb565b600081600501548260030154611ef5919061466f565b90506000818711611f065786611f08565b815b905060008111611f2a5760405162461bcd60e51b815260040161076090614812565b6000670de0b6b3a7640000846004015483611f4591906145cb565b611f4f91906145e8565b905060007f00000000000000000000000000000000000000000000000000000000000000006001600160a01b031663745e9e9f6040518163ffffffff1660e01b8152600401602060405180830381865afa158015611fb1573d6000803e3d6000fd5b505050506040513d601f19601f82011682018060405250810190611fd5919061483d565b90506001600160a01b03811661202d5760405162461bcd60e51b815260206004820152601860248201527f46616c6c6261636b4578656375746f72206e6f742073657400000000000000006044820152606401610760565b6000600186810154600160a01b900460ff169081111561204f5761204f61437e565b0361210957600285015460405163815a1a0d60e01b81526001600160a01b03918216600482015260248101849052604481018a90526001606482015260009183169063815a1a0d90859060840160206040518083038185885af11580156120ba573d6000803e3d6000fd5b50505050506040513d601f19601f820116820180604052508101906120df919061485a565b60018701546002880154919250612103916001600160a01b03908116911683613403565b506122a6565b600285015460405163095ea7b360e01b81526001600160a01b038381166004830152602482018690529091169063095ea7b3906044016020604051808303816000875af115801561215e573d6000803e3d6000fd5b505050506040513d601f19601f8201168201806040525081019061218291906145a9565b50600285015460405163815a1a0d60e01b81526001600160a01b03918216600482015260248101859052604481018a90526000606482018190529183169063815a1a0d906084016020604051808303816000875af11580156121e8573d6000803e3d6000fd5b505050506040513d601f19601f8201168201806040525081019061220c919061485a565b905060006122198261377b565b90506000612227828461466f565b60018901546040519192506000916001600160a01b039091169083908381818185875af1925050503d806000811461227b576040519150601f19603f3d011682016040523d82523d6000602084013e612280565b606091505b50509050806122a15760405162461bcd60e51b815260040161076090614873565b505050505b828560050160008282546122ba919061460a565b909155505060038501546005860154036123055760078501805460ff191660011790556040518381528a906000805160206148ef8339815191529060200160405180910390a2612343565b8960008051602061490f833981519152848760050154886003015461232a919061466f565b6040805192835260208301919091520160405180910390a25b5050505050505061235360018055565b505050565b6123606129f8565b6101f48111156123b25760405162461bcd60e51b815260206004820152601760248201527f4665652070657263656e7461676520746f6f20686967680000000000000000006044820152606401610760565b600380549082905560408051828152602081018490527fb27c12a91635e11c22bffa7bd8e0a8735da52b94aaefd7f249776c7590ba78949101610e60565b606060006123ff878787612a25565b6000818152600660205260408120549192508467ffffffffffffffff81111561242a5761242a614682565b604051908082528060200260200182016040528015612453578160200160208202803683370190505b5090506000865b838110801561246857508682105b156125055760008581526007602090815260408083208484529091528120549060008281526005602052604090206007015460ff1660038111156124ae576124ae61437e565b1480156124c157506124bf81611b35565b155b156124f257808484815181106124d9576124d9614698565b6020908102919091010152826124ee81614590565b9350505b50806124fd81614590565b91505061245a565b5060008167ffffffffffffffff81111561252157612521614682565b60405190808252806020026020018201604052801561254a578160200160208202803683370190505b50905060005b828110156125975783818151811061256a5761256a614698565b602002602001015182828151811061258457612584614698565b6020908102919091010152600101612550565b509a9950505050505050505050565b6125ae613ff5565b60008281526005602052604090206001015482906001600160a01b03166125e75760405162461bcd60e51b815260040161076090614793565b600083815260056020908152604091829020825161014081018452815481526001808301546001600160a01b038116948301949094529093919291840191600160a01b900460ff169081111561263f5761263f61437e565b60018111156126505761265061437e565b81526020016001820160159054906101000a900460ff1660018111156126785761267861437e565b60018111156126895761268961437e565b815260028201546001600160a01b0316602082015260038083015460408301526004830154606083015260058301546080830152600683015460a0830152600783015460c09092019160ff16908111156126e5576126e561437e565b60038111156126f6576126f661437e565b9052509392505050565b6127086129f8565b6001600160a01b0382166127525760405162461bcd60e51b8152602060048201526011602482015270125b9d985b1a59081c9958da5c1a595b9d607a1b6044820152606401610760565b6001600160a01b03831661284957478111156127b05760405162461bcd60e51b815260206004820152601860248201527f496e73756666696369656e74204554482062616c616e636500000000000000006044820152606401610760565b6000826001600160a01b03168260405160006040518083038185875af1925050503d80600081146127fd576040519150601f19603f3d011682016040523d82523d6000602084013e612802565b606091505b50509050806112e05760405162461bcd60e51b8152602060048201526013602482015272115512081d1c985b9cd9995c8819985a5b1959606a1b6044820152606401610760565b6123536001600160a01b0384168383613403565b6128656129f8565b6001600160a01b03811661288f57604051631e4fbdf760e01b815260006004820152602401610760565b6117ea81613434565b60008181526005602052604081206001015482906001600160a01b03166128d15760405162461bcd60e51b815260040161076090614793565b60008381526005602081905260409091209081015460038201546128f5919061466f565b949350505050565b60026001540361292057604051633ee5aeb560e01b815260040160405180910390fd5b6002600155565b6040516001600160a01b0384811660248301528381166044830152606482018390526112e09186918216906323b872dd906084015b604051602081830303815290604052915060e01b6020820180516001600160e01b0383818316178352505050506137b9565b600061299b848484612a25565b600081815260066020818152604080842080548b8652600884528286208190558686526007845282862090865283529084208a905584845291905280549293506001929091906129ec90849061460a565b90915550505050505050565b6000546001600160a01b03163314611b995760405163118cdaa760e01b8152336004820152602401610760565b6000838383604051602001612a3c939291906148aa565b6040516020818303038152906040528051906020012090509392505050565b600082815260056020526040812090600782015460ff166003811115612a8357612a8361437e565b14612aa05760405162461bcd60e51b8152600401610760906147c1565b612aa983611b35565b15612ac65760405162461bcd60e51b8152600401610760906147eb565b60007f00000000000000000000000000000000000000000000000000000000000000006001600160a01b0316634513443a6040518163ffffffff1660e01b8152600401602060405180830381865afa158015612b26573d6000803e3d6000fd5b505050506040513d601f19601f82011682018060405250810190612b4a919061483d565b90506001600160a01b038116612ba25760405162461bcd60e51b815260206004820152601960248201527f4d61726b6574206d616b657220706f6f6c206e6f7420736574000000000000006044820152606401610760565b600082600501548360030154612bb8919061466f565b90506000818511612bc95784612bcb565b815b905060008111612bed5760405162461bcd60e51b815260040161076090614812565b6000670de0b6b3a7640000856004015483612c0891906145cb565b612c1291906145e8565b90506000600186810154600160a01b900460ff1690811115612c3657612c3661437e565b03612e42576002850154604051631ce0df5b60e31b81526001600160a01b039182166004820152602481018490529085169063e706fad890604401600060405180830381600087803b158015612c8b57600080fd5b505af1158015612c9f573d6000803e3d6000fd5b505050506002850154604051638a57fddd60e01b81526001600160a01b0391821660048201526024810183905290851690638a57fddd9083906044016000604051808303818588803b158015612cf457600080fd5b505af1158015612d08573d6000803e3d6000fd5b5050505050600061271060035483612d2091906145cb565b612d2a91906145e8565b90506000612710600c5483612d3f91906145cb565b612d4991906145e8565b90508060046000828254612d5d919061466f565b90915550508015612e1a576002870154604051632bb7a23960e11b81526001600160a01b0391821660048201529087169063576f44729083906024016000604051808303818588803b158015612db257600080fd5b505af1158015612dc6573d6000803e3d6000fd5b50505050600288015460408051848152602081018690526001600160a01b039283169350918916917fc982e7967fb960b701a067b4e881e50050b566f3b82a9c94e4f8a8c23174edf9910160405180910390a35b60018701546002880154612e3b916001600160a01b03918216911686613403565b5050613095565b6002850154604051637e7c7a9560e01b81526001600160a01b0391821660048201526024810183905290851690637e7c7a9590604401600060405180830381600087803b158015612e9257600080fd5b505af1158015612ea6573d6000803e3d6000fd5b505050506000612eb58261377b565b90506000612ec3828461466f565b600288015460405163adabfa0560e01b81526001600160a01b0391821660048201526024810187905291925087169063adabfa0590604401600060405180830381600087803b158015612f1557600080fd5b505af1158015612f29573d6000803e3d6000fd5b505050506000612710600c5484612f4091906145cb565b612f4a91906145e8565b90508060046000828254612f5e919061466f565b9091555050801561301b576002880154604051632bb7a23960e11b81526001600160a01b0391821660048201529088169063576f44729083906024016000604051808303818588803b158015612fb357600080fd5b505af1158015612fc7573d6000803e3d6000fd5b50505050600289015460408051848152602081018790526001600160a01b039283169350918a16917fc982e7967fb960b701a067b4e881e50050b566f3b82a9c94e4f8a8c23174edf9910160405180910390a35b60018801546040516000916001600160a01b03169084908381818185875af1925050503d806000811461306a576040519150601f19603f3d011682016040523d82523d6000602084013e61306f565b606091505b50509050806130905760405162461bcd60e51b815260040161076090614873565b505050505b818560050160008282546130a9919061460a565b909155505060038501546005860154036130f45760078501805460ff1916600117905560405182815287906000805160206148ef8339815191529060200160405180910390a2613132565b8660008051602061490f8339815191528387600501548860030154613119919061466f565b6040805192835260208301919091520160405180910390a25b836001600160a01b0316877fe332d84b9d7b6ed7b61613e3346be661c47cd1bcb330e8cdb0887aa2d3425e6e84886004015460405161317b929190918252602082015260400190565b60405180910390a350505050505050565b8151600090815260056020908152604080832091850151835282209091600783015460ff1660038111156131c2576131c261437e565b1480156131e757506000600782015460ff1660038111156131e5576131e561437e565b145b61322b5760405162461bcd60e51b81526020600482015260156024820152744f7264657273206d7573742062652061637469766560581b6044820152606401610760565b835161323690611b35565b15801561324d575061324b8460200151611b35565b155b61328a5760405162461bcd60e51b815260206004820152600e60248201526d13dc99195c9cc8195e1c1a5c995960921b6044820152606401610760565b6000600183810154600160a01b900460ff16908111156132ac576132ac61437e565b1480156132d7575060018082810154600160a01b900460ff16908111156132d5576132d561437e565b145b6133195760405162461bcd60e51b8152602060048201526013602482015272496e76616c6964206f7264657220747970657360681b6044820152606401610760565b600280820154908301546001600160a01b0390811691161461336e5760405162461bcd60e51b815260206004820152600e60248201526d0a8ded6cadc40dad2e6dac2e8c6d60931b6044820152606401610760565b60018083810154600160a81b900460ff169081111561338f5761338f61437e565b14806133b9575060018082810154600160a81b900460ff16908111156133b7576133b761437e565b145b6133f95760405162461bcd60e51b81526020600482015260116024820152704e6f74206d61726b6574206f726465727360781b6044820152606401610760565b6112e0848461382a565b6040516001600160a01b0383811660248301526044820183905261235391859182169063a9059cbb9060640161295c565b600080546001600160a01b038381166001600160a01b0319831681178455604051919092169283917f8be0079c531659141344cd1fd0a4f28419497f9722a3daafe3b4186f6b6457e09190a35050565b8051600090815260056020908152604080832091840151835282209091600783015460ff1660038111156134ba576134ba61437e565b1480156134df57506000600782015460ff1660038111156134dd576134dd61437e565b145b6135235760405162461bcd60e51b81526020600482015260156024820152744f7264657273206d7573742062652061637469766560581b6044820152606401610760565b825161352e90611b35565b15801561354557506135438360200151611b35565b155b6135915760405162461bcd60e51b815260206004820152601760248201527f31206f6620746865206f726465727320657870697265640000000000000000006044820152606401610760565b6000600183810154600160a01b900460ff16908111156135b3576135b361437e565b1480156135de575060018082810154600160a01b900460ff16908111156135dc576135dc61437e565b145b6136205760405162461bcd60e51b8152602060048201526013602482015272496e76616c6964206f7264657220747970657360681b6044820152606401610760565b600280820154908301546001600160a01b039081169116146136755760405162461bcd60e51b815260206004820152600e60248201526d0a8ded6cadc40dad2e6dac2e8c6d60931b6044820152606401610760565b600180820154908301546001600160a01b039182169116036136e55760405162461bcd60e51b815260206004820152602360248201527f53656c6c657220616e642062757965722063616e6e6f74206265207468652073604482015262616d6560e81b6064820152608401610760565b6000600183810154600160a81b900460ff16908111156137075761370761437e565b14801561373357506000600182810154600160a81b900460ff16908111156137315761373161437e565b145b6137725760405162461bcd60e51b815260206004820152601060248201526f4e6f74206c696d6974206f726465727360801b6044820152606401610760565b61235383613bf5565b6000806127106003548461378f91906145cb565b61379991906145e8565b905080600460008282546137ad919061460a565b90915550909392505050565b600080602060008451602086016000885af1806137dc576040513d6000823e3d81fd5b50506000513d915081156137f4578060011415613801565b6001600160a01b0384163b155b156112e057604051635274afe760e01b81526001600160a01b0385166004820152602401610760565b8151600090815260056020908152604080832091850151835290912060018083810154600160a81b900460ff16908111156138675761386761437e565b036138d25781600401548311156138d25760405162461bcd60e51b815260206004820152602960248201527f457865637574696f6e20707269636520657863656564732062757965722773206044820152686d617820707269636560b81b6064820152608401610760565b60018082810154600160a81b900460ff16908111156138f3576138f361437e565b0361395d57806004015483101561395d5760405162461bcd60e51b815260206004820152602860248201527f457865637574696f6e2070726963652062656c6f772073656c6c65722773206d604482015267696e20707269636560c01b6064820152608401610760565b600082600501548360030154613973919061466f565b905060008260050154836003015461398b919061466f565b60408701519091508281111561399e5750815b818111156139a95750805b600081116139c95760405162461bcd60e51b815260040161076090614812565b806000670de0b6b3a76400006139df89846145cb565b6139e991906145e8565b905060006139f68261377b565b90506000613a04828461466f565b60018901546040519192506000916001600160a01b039091169083908381818185875af1925050503d8060008114613a58576040519150601f19603f3d011682016040523d82523d6000602084013e613a5d565b606091505b5050905080613a7e5760405162461bcd60e51b815260040161076090614873565b60018a015460028a0154613a9f916001600160a01b03918216911687613403565b858a6005016000828254613ab3919061460a565b9250508190555085896005016000828254613ace919061460a565b909155505060038a015460058b015403613b195760078a01805460ff191660011790558b516040518781526000805160206148ef8339815191529060200160405180910390a2613b5b565b8b6000015160008051602061490f833981519152878c600501548d60030154613b42919061466f565b6040805192835260208301919091520160405180910390a25b8860030154896005015403613ba55760078901805460ff191660011790556020808d015160405188815290916000805160206148ef833981519152910160405180910390a2613be7565b8b6020015160008051602061490f833981519152878b600501548c60030154613bce919061466f565b6040805192835260208301919091520160405180910390a25b505050505050505050505050565b80516000908152600560209081526040808320918401518352909120600480820154908301541015613c695760405162461bcd60e51b815260206004820152601f60248201527f5072696365206d69736d6174636820666f72206c696d6974206f7264657273006044820152606401610760565b600082600501548360030154613c7f919061466f565b9050600082600501548360030154613c97919061466f565b604086015190915082811115613caa5750815b81811115613cb55750805b60008111613cd55760405162461bcd60e51b815260040161076090614812565b60048401548190600090670de0b6b3a764000090613cf390846145cb565b613cfd91906145e8565b90506000613d0a8261377b565b90506000613d18828461466f565b60018901546040519192506000916001600160a01b039091169083908381818185875af1925050503d8060008114613d6c576040519150601f19603f3d011682016040523d82523d6000602084013e613d71565b606091505b5050905080613d925760405162461bcd60e51b815260040161076090614873565b60018a015460028a0154613db3916001600160a01b03918216911687613403565b858a6005016000828254613dc7919061460a565b9250508190555085896005016000828254613de2919061460a565b90915550506004808a0154908b01541115613ed4576000670de0b6b3a76400008a600401548c60040154613e16919061466f565b613e2090896145cb565b613e2a91906145e8565b60018c01546040519192506001600160a01b0316908290600081818185875af1925050503d8060008114613e7a576040519150601f19603f3d011682016040523d82523d6000602084013e613e7f565b606091505b50508092505081613ed25760405162461bcd60e51b815260206004820152601960248201527f45544820736176696e67732072657475726e206661696c6564000000000000006044820152606401610760565b505b89600301548a6005015403613f1a5760078a01805460ff191660011790558a516040518781526000805160206148ef8339815191529060200160405180910390a2613f5c565b8a6000015160008051602061490f833981519152878c600501548d60030154613f43919061466f565b6040805192835260208301919091520160405180910390a25b8860030154896005015403613fa65760078901805460ff191660011790556020808c015160405188815290916000805160206148ef833981519152910160405180910390a2613fe8565b8a6020015160008051602061490f833981519152878b600501548c60030154613fcf919061466f565b6040805192835260208301919091520160405180910390a25b5050505050505050505050565b6040805161014081018252600080825260208201819052909182019081526020016000815260200160006001600160a01b03168152602001600081526020016000815260200160008152602001600081526020016000600381111561405c5761405c61437e565b905290565b60006020828403121561407357600080fd5b5035919050565b600281106117ea57600080fd5b6001600160a01b03811681146117ea57600080fd5b60008060008060008060c087890312156140b557600080fd5b86356140c08161407a565b955060208701356140d08161407a565b945060408701356140e081614087565b959894975094956060810135955060808101359460a0909101359350915050565b6000806040838503121561411457600080fd5b50508035926020909101359150565b60006020828403121561413557600080fd5b813561414081614087565b9392505050565b60008060006060848603121561415c57600080fd5b833561416781614087565b925060208401356141778161407a565b915060408401356141878161407a565b809150509250925092565b602080825282518282018190526000918401906040840190835b818110156141ca5783518352602093840193909201916001016141ac565b509095945050505050565b60008083601f8401126141e757600080fd5b50813567ffffffffffffffff8111156141ff57600080fd5b6020830191508360208260051b850101111561421a57600080fd5b9250929050565b6000806000806040858703121561423757600080fd5b843567ffffffffffffffff81111561424e57600080fd5b61425a878288016141d5565b909550935050602085013567ffffffffffffffff81111561427a57600080fd5b614286878288016141d5565b95989497509550505050565b60008083601f8401126142a457600080fd5b50813567ffffffffffffffff8111156142bc57600080fd5b60208301915083602060608302850101111561421a57600080fd5b600080600080604085870312156142ed57600080fd5b843567ffffffffffffffff81111561430457600080fd5b61425a87828801614292565b6000806020838503121561432357600080fd5b823567ffffffffffffffff81111561433a57600080fd5b61434685828601614292565b90969095509350505050565b60008060006060848603121561436757600080fd5b505081359360208301359350604090920135919050565b634e487b7160e01b600052602160045260246000fd5b600281106117ea576117ea61437e565b6143ad81614394565b9052565b600481106143ad576143ad61437e565b8a81526001600160a01b038a16602082015261014081016143e18a614394565b8960408301526143f089614394565b88606083015260018060a01b03881660808301528660a08301528560c08301528460e08301528361010083015261442b6101208301846143b1565b9b9a5050505050505050505050565b600080600080600060a0868803121561445257600080fd5b853561445d81614087565b9450602086013561446d8161407a565b9350604086013561447d8161407a565b94979396509394606081013594506080013592915050565b815181526020808301516101408301916144b9908401826001600160a01b03169052565b5060408301516144cc60408401826143a4565b5060608301516144df60608401826143a4565b5060808301516144fa60808401826001600160a01b03169052565b5060a083015160a083015260c083015160c083015260e083015160e08301526101008301516101008301526101208301516107146101208401826143b1565b60008060006060848603121561454e57600080fd5b833561455981614087565b9250602084013561456981614087565b929592945050506040919091013590565b634e487b7160e01b600052601160045260246000fd5b6000600182016145a2576145a261457a565b5060010190565b6000602082840312156145bb57600080fd5b8151801515811461414057600080fd5b80820281158282048414176145e2576145e261457a565b92915050565b60008261460557634e487b7160e01b600052601260045260246000fd5b500490565b808201808211156145e2576145e261457a565b60e0810161462a89614394565b88825261463688614394565b60208201979097526001600160a01b039590951660408601526060850193909352608084019190915260a083015260c090910152919050565b818103818111156145e2576145e261457a565b634e487b7160e01b600052604160045260246000fd5b634e487b7160e01b600052603260045260246000fd5b60208082526018908201527f43616c6c6572206973206e6f7420617574686f72697a65640000000000000000604082015260600190565b60208082526022908201527f46696c6c20616d6f756e74206d7573742062652067726561746572207468616e604082015261020360f41b606082015260800190565b6000606082840312801561473a57600080fd5b600090506040516060810181811067ffffffffffffffff8211171561476d57634e487b7160e01b83526041600452602483fd5b604090815284358252602080860135908301529384013593810193909352509092915050565b60208082526014908201527313dc99195c88191bd95cc81b9bdd08195e1a5cdd60621b604082015260600190565b60208082526010908201526f4f72646572206e6f742061637469766560801b604082015260600190565b6020808252600d908201526c13dc99195c88195e1c1a5c9959609a1b604082015260600190565b602080825260119082015270139bc8185b5bdd5b9d081d1bc8199a5b1b607a1b604082015260600190565b60006020828403121561484f57600080fd5b815161414081614087565b60006020828403121561486c57600080fd5b5051919050565b6020808252601d908201527f455448207472616e7366657220746f2073656c6c6572206661696c6564000000604082015260600190565b6bffffffffffffffffffffffff198460601b1681526148c883614394565b8260f81b60148201526148da82614394565b60f89190911b60158201526016019291505056feeb3b41be12efa25c0c65725eeff2e2ad0250e2e5de2aa939e18f36aa656e98808f9f7f58643161141dd2b5b862b54ab647f74549d3b06fd4430272bcc411678ca26469706673582212202178a95060b3ea744ab9eff387ec5774c7e0fe14091dbcc335e10f1af9bbb1e464736f6c634300081a0033",
  "linkReferences": {},
  "deployedLinkReferences": {}
}