{
  "_format": "hh-sol-artifact-1",
  "contractName": "GradientOrderbook",
  "sourceName": "contracts/GradientOrderbook.sol",
  "abi": [
    {
      "inputs": [
        {
          "internalType": "contract IGradientRegistry",
          "name": "_gradientRegistry",
          "type": "address"
        }
      ],
      "stateMutability": "nonpayable",
      "type": "constructor"
    },
    {
      "inputs": [
        {
          "internalType": "address",
          "name": "owner",
          "type": "address"
        }
      ],
      "name": "OwnableInvalidOwner",
      "type": "error"
    },
    {
      "inputs": [
        {
          "internalType": "address",
          "name": "account",
          "type": "address"
        }
      ],
      "name": "OwnableUnauthorizedAccount",
      "type": "error"
    },
    {
      "inputs": [],
      "name": "ReentrancyGuardReentrantCall",
      "type": "error"
    },
    {
      "inputs": [
        {
          "internalType": "address",
          "name": "token",
          "type": "address"
        }
      ],
      "name": "SafeERC20FailedOperation",
      "type": "error"
    },
    {
      "anonymous": false,
      "inputs": [
        {
          "indexed": true,
          "internalType": "address",
          "name": "marketMakerPool",
          "type": "address"
        },
        {
          "indexed": true,
          "internalType": "address",
          "name": "token",
          "type": "address"
        },
        {
          "indexed": false,
          "internalType": "uint256",
          "name": "epoch",
          "type": "uint256"
        },
        {
          "indexed": false,
          "internalType": "uint256",
          "name": "amount",
          "type": "uint256"
        },
        {
          "indexed": false,
          "internalType": "uint256",
          "name": "totalFee",
          "type": "uint256"
        }
      ],
      "name": "FeeDistributedToPool",
      "type": "event"
    },
    {
      "anonymous": false,
      "inputs": [
        {
          "indexed": false,
          "internalType": "uint256",
          "name": "oldFeePercentage",
          "type": "uint256"
        },
        {
          "indexed": false,
          "internalType": "uint256",
          "name": "newFeePercentage",
          "type": "uint256"
        }
      ],
      "name": "FeePercentageUpdated",
      "type": "event"
    },
    {
      "anonymous": false,
      "inputs": [
        {
          "indexed": true,
          "internalType": "address",
          "name": "recipient",
          "type": "address"
        },
        {
          "indexed": false,
          "internalType": "uint256",
          "name": "amount",
          "type": "uint256"
        }
      ],
      "name": "FeesWithdrawn",
      "type": "event"
    },
    {
      "anonymous": false,
      "inputs": [
        {
          "indexed": false,
          "internalType": "uint256",
          "name": "oldPercentage",
          "type": "uint256"
        },
        {
          "indexed": false,
          "internalType": "uint256",
          "name": "newPercentage",
          "type": "uint256"
        }
      ],
      "name": "MMFeeDistributionPercentageUpdated",
      "type": "event"
    },
    {
      "anonymous": false,
      "inputs": [
        {
          "indexed": false,
          "internalType": "uint256",
          "name": "newMaxTTL",
          "type": "uint256"
        }
      ],
      "name": "MaxTTLUpdated",
      "type": "event"
    },
    {
      "anonymous": false,
      "inputs": [
        {
          "indexed": true,
          "internalType": "uint256",
          "name": "orderId",
          "type": "uint256"
        }
      ],
      "name": "OrderCancelled",
      "type": "event"
    },
    {
      "anonymous": false,
      "inputs": [
        {
          "indexed": true,
          "internalType": "uint256",
          "name": "orderId",
          "type": "uint256"
        },
        {
          "indexed": true,
          "internalType": "address",
          "name": "owner",
          "type": "address"
        },
        {
          "indexed": false,
          "internalType": "enum GradientOrderbook.OrderType",
          "name": "orderType",
          "type": "uint8"
        },
        {
          "indexed": false,
          "internalType": "enum GradientOrderbook.OrderExecutionType",
          "name": "executionType",
          "type": "uint8"
        },
        {
          "indexed": false,
          "internalType": "address",
          "name": "token",
          "type": "address"
        },
        {
          "indexed": false,
          "internalType": "uint256",
          "name": "amount",
          "type": "uint256"
        },
        {
          "indexed": false,
          "internalType": "uint256",
          "name": "price",
          "type": "uint256"
        },
        {
          "indexed": false,
          "internalType": "uint256",
          "name": "expirationTime",
          "type": "uint256"
        },
        {
          "indexed": false,
          "internalType": "uint256",
          "name": "totalCost",
          "type": "uint256"
        }
      ],
      "name": "OrderCreated",
      "type": "event"
    },
    {
      "anonymous": false,
      "inputs": [
        {
          "indexed": true,
          "internalType": "uint256",
          "name": "orderId",
          "type": "uint256"
        }
      ],
      "name": "OrderExpired",
      "type": "event"
    },
    {
      "anonymous": false,
      "inputs": [
        {
          "indexed": true,
          "internalType": "uint256",
          "name": "orderId",
          "type": "uint256"
        },
        {
          "indexed": false,
          "internalType": "uint256",
          "name": "amount",
          "type": "uint256"
        }
      ],
      "name": "OrderFulfilled",
      "type": "event"
    },
    {
      "anonymous": false,
      "inputs": [
        {
          "indexed": true,
          "internalType": "uint256",
          "name": "orderId",
          "type": "uint256"
        },
        {
          "indexed": true,
          "internalType": "address",
          "name": "marketMakerPool",
          "type": "address"
        },
        {
          "indexed": false,
          "internalType": "uint256",
          "name": "amount",
          "type": "uint256"
        },
        {
          "indexed": false,
          "internalType": "uint256",
          "name": "price",
          "type": "uint256"
        }
      ],
      "name": "OrderFulfilledByMarketMaker",
      "type": "event"
    },
    {
      "anonymous": false,
      "inputs": [
        {
          "indexed": true,
          "internalType": "uint256",
          "name": "orderId",
          "type": "uint256"
        },
        {
          "indexed": true,
          "internalType": "uint256",
          "name": "matchedOrderId",
          "type": "uint256"
        },
        {
          "indexed": false,
          "internalType": "uint256",
          "name": "amount",
          "type": "uint256"
        },
        {
          "indexed": false,
          "internalType": "uint256",
          "name": "price",
          "type": "uint256"
        }
      ],
      "name": "OrderFulfilledByMatching",
      "type": "event"
    },
    {
      "anonymous": false,
      "inputs": [
        {
          "indexed": true,
          "internalType": "uint256",
          "name": "orderId",
          "type": "uint256"
        },
        {
          "indexed": false,
          "internalType": "uint256",
          "name": "amount",
          "type": "uint256"
        },
        {
          "indexed": false,
          "internalType": "uint256",
          "name": "remaining",
          "type": "uint256"
        }
      ],
      "name": "OrderPartiallyFulfilled",
      "type": "event"
    },
    {
      "anonymous": false,
      "inputs": [
        {
          "indexed": false,
          "internalType": "uint256",
          "name": "minSize",
          "type": "uint256"
        },
        {
          "indexed": false,
          "internalType": "uint256",
          "name": "maxSize",
          "type": "uint256"
        }
      ],
      "name": "OrderSizeLimitsUpdated",
      "type": "event"
    },
    {
      "anonymous": false,
      "inputs": [
        {
          "indexed": true,
          "internalType": "address",
          "name": "previousOwner",
          "type": "address"
        },
        {
          "indexed": true,
          "internalType": "address",
          "name": "newOwner",
          "type": "address"
        }
      ],
      "name": "OwnershipTransferred",
      "type": "event"
    },
    {
      "anonymous": false,
      "inputs": [
        {
          "indexed": false,
          "internalType": "uint256",
          "name": "newInterval",
          "type": "uint256"
        }
      ],
      "name": "RateLimitUpdated",
      "type": "event"
    },
    {
      "stateMutability": "payable",
      "type": "fallback"
    },
    {
      "inputs": [],
      "name": "DIVISOR",
      "outputs": [
        {
          "internalType": "uint256",
          "name": "",
          "type": "uint256"
        }
      ],
      "stateMutability": "view",
      "type": "function"
    },
    {
      "inputs": [],
      "name": "MAX_FEE_PERCENTAGE",
      "outputs": [
        {
          "internalType": "uint256",
          "name": "",
          "type": "uint256"
        }
      ],
      "stateMutability": "view",
      "type": "function"
    },
    {
      "inputs": [
        {
          "internalType": "uint256",
          "name": "orderId",
          "type": "uint256"
        }
      ],
      "name": "cancelOrder",
      "outputs": [],
      "stateMutability": "nonpayable",
      "type": "function"
    },
    {
      "inputs": [
        {
          "internalType": "uint256",
          "name": "orderId",
          "type": "uint256"
        }
      ],
      "name": "cleanupExpiredOrder",
      "outputs": [],
      "stateMutability": "nonpayable",
      "type": "function"
    },
    {
      "inputs": [
        {
          "internalType": "enum GradientOrderbook.OrderType",
          "name": "orderType",
          "type": "uint8"
        },
        {
          "internalType": "enum GradientOrderbook.OrderExecutionType",
          "name": "executionType",
          "type": "uint8"
        },
        {
          "internalType": "address",
          "name": "token",
          "type": "address"
        },
        {
          "internalType": "uint256",
          "name": "amount",
          "type": "uint256"
        },
        {
          "internalType": "uint256",
          "name": "price",
          "type": "uint256"
        },
        {
          "internalType": "uint256",
          "name": "ttl",
          "type": "uint256"
        }
      ],
      "name": "createOrder",
      "outputs": [
        {
          "internalType": "uint256",
          "name": "",
          "type": "uint256"
        }
      ],
      "stateMutability": "payable",
      "type": "function"
    },
    {
      "inputs": [],
      "name": "feePercentage",
      "outputs": [
        {
          "internalType": "uint256",
          "name": "",
          "type": "uint256"
        }
      ],
      "stateMutability": "view",
      "type": "function"
    },
    {
      "inputs": [
        {
          "components": [
            {
              "internalType": "uint256",
              "name": "buyOrderId",
              "type": "uint256"
            },
            {
              "internalType": "uint256",
              "name": "sellOrderId",
              "type": "uint256"
            },
            {
              "internalType": "uint256",
              "name": "fillAmount",
              "type": "uint256"
            }
          ],
          "internalType": "struct GradientOrderbook.OrderMatch[]",
          "name": "matches",
          "type": "tuple[]"
        }
      ],
      "name": "fulfillLimitOrders",
      "outputs": [],
      "stateMutability": "nonpayable",
      "type": "function"
    },
    {
      "inputs": [
        {
          "components": [
            {
              "internalType": "uint256",
              "name": "buyOrderId",
              "type": "uint256"
            },
            {
              "internalType": "uint256",
              "name": "sellOrderId",
              "type": "uint256"
            },
            {
              "internalType": "uint256",
              "name": "fillAmount",
              "type": "uint256"
            }
          ],
          "internalType": "struct GradientOrderbook.OrderMatch[]",
          "name": "matches",
          "type": "tuple[]"
        },
        {
          "internalType": "uint256[]",
          "name": "executionPrices",
          "type": "uint256[]"
        }
      ],
      "name": "fulfillMarketOrders",
      "outputs": [],
      "stateMutability": "nonpayable",
      "type": "function"
    },
    {
      "inputs": [
        {
          "internalType": "uint256[]",
          "name": "orderIds",
          "type": "uint256[]"
        },
        {
          "internalType": "uint256[]",
          "name": "fillAmounts",
          "type": "uint256[]"
        }
      ],
      "name": "fulfillOrdersWithMarketMaker",
      "outputs": [],
      "stateMutability": "nonpayable",
      "type": "function"
    },
    {
      "inputs": [
        {
          "internalType": "uint256",
          "name": "orderId",
          "type": "uint256"
        },
        {
          "internalType": "uint256",
          "name": "fillAmount",
          "type": "uint256"
        },
        {
          "internalType": "uint256",
          "name": "minAmountOut",
          "type": "uint256"
        }
      ],
      "name": "fulfillOwnOrderWithAMM",
      "outputs": [],
      "stateMutability": "nonpayable",
      "type": "function"
    },
    {
      "inputs": [
        {
          "internalType": "address",
          "name": "token",
          "type": "address"
        },
        {
          "internalType": "enum GradientOrderbook.OrderType",
          "name": "orderType",
          "type": "uint8"
        },
        {
          "internalType": "enum GradientOrderbook.OrderExecutionType",
          "name": "executionType",
          "type": "uint8"
        }
      ],
      "name": "getActiveOrders",
      "outputs": [
        {
          "internalType": "uint256[]",
          "name": "",
          "type": "uint256[]"
        }
      ],
      "stateMutability": "view",
      "type": "function"
    },
    {
      "inputs": [
        {
          "internalType": "bytes32",
          "name": "queueKey",
          "type": "bytes32"
        }
      ],
      "name": "getActiveOrdersCount",
      "outputs": [
        {
          "internalType": "uint256",
          "name": "",
          "type": "uint256"
        }
      ],
      "stateMutability": "view",
      "type": "function"
    },
    {
      "inputs": [
        {
          "internalType": "address",
          "name": "token",
          "type": "address"
        },
        {
          "internalType": "enum GradientOrderbook.OrderType",
          "name": "orderType",
          "type": "uint8"
        },
        {
          "internalType": "enum GradientOrderbook.OrderExecutionType",
          "name": "executionType",
          "type": "uint8"
        },
        {
          "internalType": "uint256",
          "name": "startIndex",
          "type": "uint256"
        },
        {
          "internalType": "uint256",
          "name": "count",
          "type": "uint256"
        }
      ],
      "name": "getActiveOrdersPaged",
      "outputs": [
        {
          "internalType": "uint256[]",
          "name": "",
          "type": "uint256[]"
        }
      ],
      "stateMutability": "view",
      "type": "function"
    },
    {
      "inputs": [
        {
          "internalType": "uint256",
          "name": "orderId",
          "type": "uint256"
        }
      ],
      "name": "getOrder",
      "outputs": [
        {
          "components": [
            {
              "internalType": "uint256",
              "name": "orderId",
              "type": "uint256"
            },
            {
              "internalType": "address",
              "name": "owner",
              "type": "address"
            },
            {
              "internalType": "enum GradientOrderbook.OrderType",
              "name": "orderType",
              "type": "uint8"
            },
            {
              "internalType": "enum GradientOrderbook.OrderExecutionType",
              "name": "executionType",
              "type": "uint8"
            },
            {
              "internalType": "address",
              "name": "token",
              "type": "address"
            },
            {
              "internalType": "uint256",
              "name": "amount",
              "type": "uint256"
            },
            {
              "internalType": "uint256",
              "name": "price",
              "type": "uint256"
            },
            {
              "internalType": "uint256",
              "name": "filledAmount",
              "type": "uint256"
            },
            {
              "internalType": "uint256",
              "name": "expirationTime",
              "type": "uint256"
            },
            {
              "internalType": "enum GradientOrderbook.OrderStatus",
              "name": "status",
              "type": "uint8"
            }
          ],
          "internalType": "struct GradientOrderbook.Order",
          "name": "",
          "type": "tuple"
        }
      ],
      "stateMutability": "view",
      "type": "function"
    },
    {
      "inputs": [
        {
          "internalType": "uint256",
          "name": "orderId",
          "type": "uint256"
        }
      ],
      "name": "getRemainingAmount",
      "outputs": [
        {
          "internalType": "uint256",
          "name": "",
          "type": "uint256"
        }
      ],
      "stateMutability": "view",
      "type": "function"
    },
    {
      "inputs": [],
      "name": "gradientRegistry",
      "outputs": [
        {
          "internalType": "contract IGradientRegistry",
          "name": "",
          "type": "address"
        }
      ],
      "stateMutability": "view",
      "type": "function"
    },
    {
      "inputs": [
        {
          "internalType": "uint256",
          "name": "orderId",
          "type": "uint256"
        }
      ],
      "name": "isOrderExpired",
      "outputs": [
        {
          "internalType": "bool",
          "name": "",
          "type": "bool"
        }
      ],
      "stateMutability": "view",
      "type": "function"
    },
    {
      "inputs": [],
      "name": "maxOrderSize",
      "outputs": [
        {
          "internalType": "uint256",
          "name": "",
          "type": "uint256"
        }
      ],
      "stateMutability": "view",
      "type": "function"
    },
    {
      "inputs": [],
      "name": "maxOrderTtl",
      "outputs": [
        {
          "internalType": "uint256",
          "name": "",
          "type": "uint256"
        }
      ],
      "stateMutability": "view",
      "type": "function"
    },
    {
      "inputs": [],
      "name": "minOrderSize",
      "outputs": [
        {
          "internalType": "uint256",
          "name": "",
          "type": "uint256"
        }
      ],
      "stateMutability": "view",
      "type": "function"
    },
    {
      "inputs": [],
      "name": "mmFeeDistributionPercentage",
      "outputs": [
        {
          "internalType": "uint256",
          "name": "",
          "type": "uint256"
        }
      ],
      "stateMutability": "view",
      "type": "function"
    },
    {
      "inputs": [
        {
          "internalType": "uint256",
          "name": "",
          "type": "uint256"
        }
      ],
      "name": "orders",
      "outputs": [
        {
          "internalType": "uint256",
          "name": "orderId",
          "type": "uint256"
        },
        {
          "internalType": "address",
          "name": "owner",
          "type": "address"
        },
        {
          "internalType": "enum GradientOrderbook.OrderType",
          "name": "orderType",
          "type": "uint8"
        },
        {
          "internalType": "enum GradientOrderbook.OrderExecutionType",
          "name": "executionType",
          "type": "uint8"
        },
        {
          "internalType": "address",
          "name": "token",
          "type": "address"
        },
        {
          "internalType": "uint256",
          "name": "amount",
          "type": "uint256"
        },
        {
          "internalType": "uint256",
          "name": "price",
          "type": "uint256"
        },
        {
          "internalType": "uint256",
          "name": "filledAmount",
          "type": "uint256"
        },
        {
          "internalType": "uint256",
          "name": "expirationTime",
          "type": "uint256"
        },
        {
          "internalType": "enum GradientOrderbook.OrderStatus",
          "name": "status",
          "type": "uint8"
        }
      ],
      "stateMutability": "view",
      "type": "function"
    },
    {
      "inputs": [],
      "name": "owner",
      "outputs": [
        {
          "internalType": "address",
          "name": "",
          "type": "address"
        }
      ],
      "stateMutability": "view",
      "type": "function"
    },
    {
      "inputs": [],
      "name": "renounceOwnership",
      "outputs": [],
      "stateMutability": "nonpayable",
      "type": "function"
    },
    {
      "inputs": [
        {
          "internalType": "uint256",
          "name": "newFeePercentage",
          "type": "uint256"
        }
      ],
      "name": "setFeePercentage",
      "outputs": [],
      "stateMutability": "nonpayable",
      "type": "function"
    },
    {
      "inputs": [
        {
          "internalType": "contract IGradientRegistry",
          "name": "_gradientRegistry",
          "type": "address"
        }
      ],
      "name": "setGradientRegistry",
      "outputs": [],
      "stateMutability": "nonpayable",
      "type": "function"
    },
    {
      "inputs": [
        {
          "internalType": "uint256",
          "name": "_maxOrderTtl",
          "type": "uint256"
        }
      ],
      "name": "setMaxOrderTtl",
      "outputs": [],
      "stateMutability": "nonpayable",
      "type": "function"
    },
    {
      "inputs": [
        {
          "internalType": "uint256",
          "name": "_minOrderSize",
          "type": "uint256"
        },
        {
          "internalType": "uint256",
          "name": "_maxOrderSize",
          "type": "uint256"
        }
      ],
      "name": "setOrderSizeLimits",
      "outputs": [],
      "stateMutability": "nonpayable",
      "type": "function"
    },
    {
      "inputs": [],
      "name": "totalFeesCollected",
      "outputs": [
        {
          "internalType": "uint256",
          "name": "",
          "type": "uint256"
        }
      ],
      "stateMutability": "view",
      "type": "function"
    },
    {
      "inputs": [
        {
          "internalType": "bytes32",
          "name": "",
          "type": "bytes32"
        }
      ],
      "name": "totalOrderCount",
      "outputs": [
        {
          "internalType": "uint256",
          "name": "",
          "type": "uint256"
        }
      ],
      "stateMutability": "view",
      "type": "function"
    },
    {
      "inputs": [
        {
          "internalType": "address",
          "name": "newOwner",
          "type": "address"
        }
      ],
      "name": "transferOwnership",
      "outputs": [],
      "stateMutability": "nonpayable",
      "type": "function"
    },
    {
      "inputs": [
        {
          "internalType": "uint256",
          "name": "newPercentage",
          "type": "uint256"
        }
      ],
      "name": "updateMMFeeDistributionPercentage",
      "outputs": [],
      "stateMutability": "nonpayable",
      "type": "function"
    },
    {
      "inputs": [
        {
          "internalType": "address payable",
          "name": "recipient",
          "type": "address"
        }
      ],
      "name": "withdrawFees",
      "outputs": [],
      "stateMutability": "nonpayable",
      "type": "function"
    },
    {
      "stateMutability": "payable",
      "type": "receive"
    }
  ],
  "bytecode": "0x6080604052611b58600d5534801561001657600080fd5b5060405161499b38038061499b833981016040819052610035916100fe565b338061005b57604051631e4fbdf760e01b81526000600482015260240160405180910390fd5b610064816100ae565b5060018055600280546001600160a01b0319166001600160a01b03929092169190911790556032600455620f4240600a55683635c9adc5dea00000600b5562278d00600c5561012e565b600080546001600160a01b038381166001600160a01b0319831681178455604051919092169283917f8be0079c531659141344cd1fd0a4f28419497f9722a3daafe3b4186f6b6457e09190a35050565b60006020828403121561011057600080fd5b81516001600160a01b038116811461012757600080fd5b9392505050565b61485e8061013d6000396000f3fe6080604052600436106101da5760003560e01c806366961d4411610101578063a001ecdd1161009a578063bfde1d7c1161006c578063bfde1d7c146105cf578063d09ef241146105ef578063f1a82c7e1461061c578063f2fde38b14610632578063f6252ff21461065257005b8063a001ecdd146104ec578063a674537f14610502578063a85c38ef14610518578063ae06c1b7146105af57005b80638da5cb5b116100d35780638da5cb5b1461046e5780638f9057df1461048c578063983d1a14146104ac5780639c302fdb146104cc57005b806366961d44146103eb578063715018a614610401578063727d211414610416578063830562bc1461043657005b80633410fe6e11610173578063568c820611610145578063568c82061461036557806359c693131461038557806360c6d8ae146103b5578063634eef47146103cb57005b80633410fe6e146102f9578063457a89241461030f578063514fcac71461032f578063558e44d31461034f57005b8063164e68de116101ac578063164e68de146102765780631f32eb771461029657806321b30746146102c35780632f1131fb146102e357005b80630d34219c146101e357806310e1c1661461022357806311e807a41461024357806313b64e241461025657005b366101e157005b005b3480156101ef57600080fd5b506102106101fe366004613fc3565b60076020526000908152604090205481565b6040519081526020015b60405180910390f35b34801561022f57600080fd5b5061021061023e366004613fc3565b610672565b610210610251366004613ffe565b610704565b34801561026257600080fd5b506101e1610271366004614063565b610de9565b34801561028257600080fd5b506101e1610291366004614085565b610e39565b3480156102a257600080fd5b506102b66102b13660046140a9565b610fb6565b60405161021a91906140f4565b3480156102cf57600080fd5b506101e16102de366004614183565b6110e4565b3480156102ef57600080fd5b50610210600d5481565b34801561030557600080fd5b5061021061271081565b34801561031b57600080fd5b506101e161032a366004614239565b611297565b34801561033b57600080fd5b506101e161034a366004613fc3565b61141a565b34801561035b57600080fd5b506102106101f481565b34801561037157600080fd5b506101e1610380366004613fc3565b6117a2565b34801561039157600080fd5b506103a56103a0366004613fc3565b611aea565b604051901515815260200161021a565b3480156103c157600080fd5b5061021060055481565b3480156103d757600080fd5b506101e16103e6366004614085565b611b3d565b3480156103f757600080fd5b50610210600c5481565b34801561040d57600080fd5b506101e1611bbd565b34801561042257600080fd5b506101e1610431366004613fc3565b611bd1565b34801561044257600080fd5b50600254610456906001600160a01b031681565b6040516001600160a01b03909116815260200161021a565b34801561047a57600080fd5b506000546001600160a01b0316610456565b34801561049857600080fd5b506101e16104a7366004614272565b611c14565b3480156104b857600080fd5b506101e16104c7366004613fc3565b611d42565b3480156104d857600080fd5b506101e16104e73660046142b4565b611dd0565b3480156104f857600080fd5b5061021060045481565b34801561050e57600080fd5b50610210600a5481565b34801561052457600080fd5b50610599610533366004613fc3565b60066020819052600091825260409091208054600182015460028301546003840154600485015460058601549686015460079096015494966001600160a01b038086169760ff600160a01b8804811698600160a81b90980481169796909216959091168a565b60405161021a9a99989796959493929190614323565b3480156105bb57600080fd5b506101e16105ca366004613fc3565b612341565b3480156105db57600080fd5b506102b66105ea36600461439c565b6123d9565b3480156105fb57600080fd5b5061060f61060a366004613fc3565b61258f565b60405161021a91906143f7565b34801561062857600080fd5b50610210600b5481565b34801561063e57600080fd5b506101e161064d366004614085565b6126e9565b34801561065e57600080fd5b5061021061066d366004613fc3565b612724565b600080805b6000848152600760205260409020548110156106fd5760008481526008602090815260408083208484529091528120549060008281526006602052604090206007015460ff1660038111156106ce576106ce6142e0565b1480156106e157506106df81611aea565b155b156106f457826106f0816144b1565b9350505b50600101610677565b5092915050565b6000846001600160a01b0381166107525760405162461bcd60e51b815260206004820152600d60248201526c24b73b30b634b2103a37b5b2b760991b60448201526064015b60405180910390fd5b6000816001600160a01b03163b1161079d5760405162461bcd60e51b815260206004820152600e60248201526d139bdd08184818dbdb9d1c9858dd60921b6044820152606401610749565b600254604051630736b32b60e31b81526001600160a01b038381166004830152909116906339b5995890602401602060405180830381865afa1580156107e7573d6000803e3d6000fd5b505050506040513d601f19601f8201168201806040525081019061080b91906144ca565b1561084b5760405162461bcd60e51b815260206004820152601060248201526f151bdad95b881a5cc8189b1bd8dad95960821b6044820152606401610749565b610853612787565b600085116108a35760405162461bcd60e51b815260206004820152601d60248201527f416d6f756e74206d7573742062652067726561746572207468616e20300000006044820152606401610749565b600084116108e95760405162461bcd60e51b8152602060048201526013602482015272496e76616c69642070726963652072616e676560681b6044820152606401610749565b600083116109395760405162461bcd60e51b815260206004820152601a60248201527f54544c206d7573742062652067726561746572207468616e20300000000000006044820152606401610749565b600c5483111561097a5760405162461bcd60e51b815260206004820152600c60248201526b54544c20746f6f206c6f6e6760a01b6044820152606401610749565b6000670de0b6b3a764000061098f86886144ec565b6109999190614509565b90506000612710600454836109ae91906144ec565b6109b89190614509565b9050600a548210156109fe5760405162461bcd60e51b815260206004820152600f60248201526e13dc99195c881d1bdbc81cdb585b1b608a1b6044820152606401610749565b600b54821115610a425760405162461bcd60e51b815260206004820152600f60248201526e4f7264657220746f6f206c6172676560881b6044820152606401610749565b60008a6001811115610a5657610a566142e0565b03610ac957610a65818361452b565b341015610aac5760405162461bcd60e51b8152602060048201526015602482015274125b9cdd59999a58da595b9d08115512081cd95b9d605a1b6044820152606401610749565b8060056000828254610abe919061452b565b90915550610ade9050565b610ade6001600160a01b03891633308a6127b1565b600380549081906000610af0836144b1565b9091555050604080516101408101825282815233602082015260009181018d6001811115610b2057610b206142e0565b81526020018c6001811115610b3757610b376142e0565b81526020018b6001600160a01b031681526020018a8152602001898152602001600081526020018842610b6a919061452b565b8152602001600090526000838152600660209081526040918290208351815590830151600180830180546001600160a01b039093166001600160a01b0319841681178255948601519596508695939490926001600160a81b0319161790600160a01b908490811115610bde57610bde6142e0565b021790555060608201518160010160156101000a81548160ff02191690836001811115610c0d57610c0d6142e0565b021790555060808201518160020160006101000a8154816001600160a01b0302191690836001600160a01b0316021790555060a0820151816003015560c0820151816004015560e0820151816005015561010082015181600601556101208201518160070160006101000a81548160ff02191690836003811115610c9357610c936142e0565b0217905550905050610ca7828b8e8e612818565b336001600160a01b0316827fa2fb0dce7ae79c4288991eaef209e312e4008fdf46d4842d51f55426ccc903938e8e8e8e8e8861010001518c604051610cf2979695949392919061453e565b60405180910390a360008c6001811115610d0e57610d0e6142e0565b148015610d235750610d20838561452b565b34115b15610dd0576000610d34848661452b565b610d3e9034614590565b604051909150600090339083908381818185875af1925050503d8060008114610d83576040519150601f19603f3d011682016040523d82523d6000602084013e610d88565b606091505b5050905080610dcd5760405162461bcd60e51b8152602060048201526011602482015270115512081c995d1d5c9b8819985a5b1959607a1b6044820152606401610749565b50505b5093505050610dde60018055565b509695505050505050565b610df1612882565b600a829055600b81905560408051838152602081018390527f34a3b94861a601870265c6c4d74c28d1a09f6c803ce42b95e749f46127c8f17091015b60405180910390a15050565b610e41612882565b6001600160a01b038116610e8b5760405162461bcd60e51b8152602060048201526011602482015270125b9d985b1a59081c9958da5c1a595b9d607a1b6044820152606401610749565b60055480610ed15760405162461bcd60e51b81526020600482015260136024820152724e6f206665657320746f20776974686472617760681b6044820152606401610749565b600060058190556040516001600160a01b0384169083908381818185875af1925050503d8060008114610f20576040519150601f19603f3d011682016040523d82523d6000602084013e610f25565b606091505b5050905080610f6e5760405162461bcd60e51b8152602060048201526015602482015274119959481dda5d1a191c985dd85b0819985a5b1959605a1b6044820152606401610749565b826001600160a01b03167fc0819c13be868895eb93e40eaceb96de976442fa1d404e5c55f14bb65a8c489a83604051610fa991815260200190565b60405180910390a2505050565b60606000610fc58585856128af565b90506000610fd282610672565b90506000808267ffffffffffffffff811115610ff057610ff06145a3565b604051908082528060200260200182016040528015611019578160200160208202803683370190505b50905060005b6000858152600760205260409020548110801561103b57508383105b156110d85760008581526008602090815260408083208484529091528120549060008281526006602052604090206007015460ff166003811115611081576110816142e0565b148015611094575061109281611aea565b155b156110c557808385815181106110ac576110ac6145b9565b6020908102919091010152836110c1816144b1565b9450505b50806110d0816144b1565b91505061101f565b50979650505050505050565b6110ec612787565b6002546040516314c530d560e31b81523360048201526001600160a01b039091169063a62986a890602401602060405180830381865afa158015611134573d6000803e3d6000fd5b505050506040513d601f19601f8201168201806040525081019061115891906144ca565b6111745760405162461bcd60e51b8152600401610749906145cf565b826111b85760405162461bcd60e51b8152602060048201526014602482015273139bc81bdc99195c9cc81d1bc8199d5b199a5b1b60621b6044820152606401610749565b8281146112025760405162461bcd60e51b815260206004820152601860248201527709ad2e6dac2e8c6d0cac840c2e4e4c2f2e640d8cadccee8d60431b6044820152606401610749565b60005b83811015611287576000838383818110611221576112216145b9565b90506020020135116112455760405162461bcd60e51b815260040161074990614606565b61127f85858381811061125a5761125a6145b9565b90506020020135848484818110611273576112736145b9565b905060200201356128e5565b600101611205565b5061129160018055565b50505050565b61129f612787565b6002546040516314c530d560e31b81523360048201526001600160a01b039091169063a62986a890602401602060405180830381865afa1580156112e7573d6000803e3d6000fd5b505050506040513d601f19601f8201168201806040525081019061130b91906144ca565b6113275760405162461bcd60e51b8152600401610749906145cf565b826113745760405162461bcd60e51b815260206004820152601b60248201527f4e6f206f72646572206d61746368657320746f2066756c66696c6c00000000006044820152606401610749565b8281146113be5760405162461bcd60e51b815260206004820152601860248201527709ad2e6dac2e8c6d0cac840c2e4e4c2f2e640d8cadccee8d60431b6044820152606401610749565b60005b83811015611287576114128585838181106113de576113de6145b9565b9050606002018036038101906113f49190614648565b848484818110611406576114066145b9565b905060200201356130ee565b6001016113c1565b611422612787565b60008181526006602052604090206001015481906001600160a01b031661145b5760405162461bcd60e51b8152600401610749906146b4565b60008281526006602052604090206001015482906001600160a01b031633146114b85760405162461bcd60e51b815260206004820152600f60248201526e2737ba1037b93232b91037bbb732b960891b6044820152606401610749565b600083815260066020526040812090600782015460ff1660038111156114e0576114e06142e0565b146114fd5760405162461bcd60e51b8152600401610749906146e2565b61150684611aea565b156115435760405162461bcd60e51b815260206004820152600d60248201526c13dc99195c88195e1c1a5c9959609a1b6044820152606401610749565b600781018054600260ff19909116179055600180820154600091600160a01b90910460ff1690811115611578576115786142e0565b03611727576000816005015482600301546115939190614590565b90508015611721576000670de0b6b3a76400008360040154836115b691906144ec565b6115c09190614509565b90506000612710600454836115d591906144ec565b6115df9190614509565b905060006115ed828461452b565b9050600060055483116116005782611604565b6005545b905080600560008282546116189190614590565b9091555050828110156116325761162f818561452b565b91505b814710156116825760405162461bcd60e51b815260206004820152601c60248201527f496e73756666696369656e742045544820696e20636f6e7472616374000000006044820152606401610749565b60018601546040516000916001600160a01b03169084908381818185875af1925050503d80600081146116d1576040519150601f19603f3d011682016040523d82523d6000602084013e6116d6565b606091505b505090508061171b5760405162461bcd60e51b8152602060048201526011602482015270115512081c99599d5b990819985a5b1959607a1b6044820152606401610749565b50505050505b50611768565b60008160050154826003015461173d9190614590565b905080156117665760018201546002830154611766916001600160a01b03918216911683613365565b505b60405184907f61b9399f2f0f32ca39ce8d7be32caed5ec22fe07a6daba3a467ed479ec60658290600090a250505061179f60018055565b50565b6117aa612787565b60008181526006602052604090206001015481906001600160a01b03166117e35760405162461bcd60e51b8152600401610749906146b4565b600082815260066020526040812090600782015460ff16600381111561180b5761180b6142e0565b146118285760405162461bcd60e51b8152600401610749906146e2565b61183183611aea565b6118715760405162461bcd60e51b815260206004820152601160248201527013dc99195c881b9bdd08195e1c1a5c9959607a1b6044820152606401610749565b60078101805460ff1916600317905560018082015460ff600160a01b90910416818111156118a1576118a16142e0565b036118e7576000816005015482600301546118bc9190614590565b905080156118e557600182015460028301546118e5916001600160a01b03918216911683613365565b505b6000600182810154600160a01b900460ff1690811115611909576119096142e0565b03611ab4576000816005015482600301546119249190614590565b90508015611ab2576000670de0b6b3a764000083600401548361194791906144ec565b6119519190614509565b905060006127106004548361196691906144ec565b6119709190614509565b9050600061197e828461452b565b9050600060055483116119915782611995565b6005545b905080600560008282546119a99190614590565b9091555050828110156119c3576119c0818561452b565b91505b81471015611a135760405162461bcd60e51b815260206004820152601c60248201527f496e73756666696369656e742045544820696e20636f6e7472616374000000006044820152606401610749565b60018601546040516000916001600160a01b03169084908381818185875af1925050503d8060008114611a62576040519150601f19603f3d011682016040523d82523d6000602084013e611a67565b606091505b5050905080611aac5760405162461bcd60e51b8152602060048201526011602482015270115512081c99599d5b990819985a5b1959607a1b6044820152606401610749565b50505050505b505b60405183907f1ad308dc7017610c82d08084545f7176df5e2f08f078c3c8f8926cd7e555551490600090a2505061179f60018055565b60008181526006602052604081206001015482906001600160a01b0316611b235760405162461bcd60e51b8152600401610749906146b4565b505060009081526006602081905260409091200154421190565b611b45612882565b6001600160a01b038116611b9b5760405162461bcd60e51b815260206004820152601960248201527f496e76616c6964206772616469656e74207265676973747279000000000000006044820152606401610749565b600280546001600160a01b0319166001600160a01b0392909216919091179055565b611bc5612882565b611bcf6000613396565b565b611bd9612882565b600c8190556040518181527f5829309fa85e85a75b744b2b1ae6b2913b3d2a9c94df75a5b61de31f962256be9060200160405180910390a150565b611c1c612787565b6002546040516314c530d560e31b81523360048201526001600160a01b039091169063a62986a890602401602060405180830381865afa158015611c64573d6000803e3d6000fd5b505050506040513d601f19601f82011682018060405250810190611c8891906144ca565b611ca45760405162461bcd60e51b8152600401610749906145cf565b80611cf15760405162461bcd60e51b815260206004820152601b60248201527f4e6f206f72646572206d61746368657320746f2066756c66696c6c00000000006044820152606401610749565b60005b81811015611d3457611d2c838383818110611d1157611d116145b9565b905060600201803603810190611d279190614648565b6133e6565b600101611cf4565b50611d3e60018055565b5050565b611d4a612882565b612710811115611d925760405162461bcd60e51b81526020600482015260136024820152720a0cae4c6cadce8c2ceca40e8dede40d0d2ced606b1b6044820152606401610749565b600d80549082905560408051828152602081018490527f0a4a47a3e5193a63e95c6346171009c8e7099d3795ac25df2b9b672be06cc6ca9101610e2d565b611dd8612787565b60008381526006602052604090206001015483906001600160a01b0316611e115760405162461bcd60e51b8152600401610749906146b4565b60008481526006602052604090206001015484906001600160a01b03163314611e6e5760405162461bcd60e51b815260206004820152600f60248201526e2737ba1037b93232b91037bbb732b960891b6044820152606401610749565b60008411611e8e5760405162461bcd60e51b815260040161074990614606565b600085815260066020526040812090600782015460ff166003811115611eb657611eb66142e0565b14611ed35760405162461bcd60e51b8152600401610749906146e2565b600081600501548260030154611ee99190614590565b90506000818711611efa5786611efc565b815b905060008111611f1e5760405162461bcd60e51b81526004016107499061470c565b6000670de0b6b3a7640000846004015483611f3991906144ec565b611f439190614509565b90506000600260009054906101000a90046001600160a01b03166001600160a01b031663745e9e9f6040518163ffffffff1660e01b8152600401602060405180830381865afa158015611f9a573d6000803e3d6000fd5b505050506040513d601f19601f82011682018060405250810190611fbe9190614737565b90506001600160a01b0381166120165760405162461bcd60e51b815260206004820152601860248201527f46616c6c6261636b4578656375746f72206e6f742073657400000000000000006044820152606401610749565b6000600186810154600160a01b900460ff1690811115612038576120386142e0565b036120f257600285015460405163815a1a0d60e01b81526001600160a01b03918216600482015260248101849052604481018a90526001606482015260009183169063815a1a0d90859060840160206040518083038185885af11580156120a3573d6000803e3d6000fd5b50505050506040513d601f19601f820116820180604052508101906120c89190614754565b600187015460028801549192506120ec916001600160a01b03908116911683613365565b5061228f565b600285015460405163095ea7b360e01b81526001600160a01b038381166004830152602482018690529091169063095ea7b3906044016020604051808303816000875af1158015612147573d6000803e3d6000fd5b505050506040513d601f19601f8201168201806040525081019061216b91906144ca565b50600285015460405163815a1a0d60e01b81526001600160a01b03918216600482015260248101859052604481018a90526000606482018190529183169063815a1a0d906084016020604051808303816000875af11580156121d1573d6000803e3d6000fd5b505050506040513d601f19601f820116820180604052508101906121f59190614754565b90506000612202826136dd565b905060006122108284614590565b60018901546040519192506000916001600160a01b039091169083908381818185875af1925050503d8060008114612264576040519150601f19603f3d011682016040523d82523d6000602084013e612269565b606091505b505090508061228a5760405162461bcd60e51b81526004016107499061476d565b505050505b828560050160008282546122a3919061452b565b909155505060038501546005860154036122ee5760078501805460ff191660011790556040518381528a906000805160206147e98339815191529060200160405180910390a261232c565b8960008051602061480983398151915284876005015488600301546123139190614590565b6040805192835260208301919091520160405180910390a25b5050505050505061233c60018055565b505050565b612349612882565b6101f481111561239b5760405162461bcd60e51b815260206004820152601760248201527f4665652070657263656e7461676520746f6f20686967680000000000000000006044820152606401610749565b600480549082905560408051828152602081018490527fb27c12a91635e11c22bffa7bd8e0a8735da52b94aaefd7f249776c7590ba78949101610e2d565b606060006123e88787876128af565b6000818152600760205260408120549192508467ffffffffffffffff811115612413576124136145a3565b60405190808252806020026020018201604052801561243c578160200160208202803683370190505b5090506000865b838110801561245157508682105b156124ee5760008581526008602090815260408083208484529091528120549060008281526006602052604090206007015460ff166003811115612497576124976142e0565b1480156124aa57506124a881611aea565b155b156124db57808484815181106124c2576124c26145b9565b6020908102919091010152826124d7816144b1565b9350505b50806124e6816144b1565b915050612443565b5060008167ffffffffffffffff81111561250a5761250a6145a3565b604051908082528060200260200182016040528015612533578160200160208202803683370190505b50905060005b8281101561258057838181518110612553576125536145b9565b602002602001015182828151811061256d5761256d6145b9565b6020908102919091010152600101612539565b509a9950505050505050505050565b612597613f57565b60008281526006602052604090206001015482906001600160a01b03166125d05760405162461bcd60e51b8152600401610749906146b4565b600083815260066020908152604091829020825161014081018452815481526001808301546001600160a01b038116948301949094529093919291840191600160a01b900460ff1690811115612628576126286142e0565b6001811115612639576126396142e0565b81526020016001820160159054906101000a900460ff166001811115612661576126616142e0565b6001811115612672576126726142e0565b815260028201546001600160a01b0316602082015260038083015460408301526004830154606083015260058301546080830152600683015460a0830152600783015460c09092019160ff16908111156126ce576126ce6142e0565b60038111156126df576126df6142e0565b9052509392505050565b6126f1612882565b6001600160a01b03811661271b57604051631e4fbdf760e01b815260006004820152602401610749565b61179f81613396565b60008181526006602052604081206001015482906001600160a01b031661275d5760405162461bcd60e51b8152600401610749906146b4565b60008381526006602052604090206005810154600382015461277f9190614590565b949350505050565b6002600154036127aa57604051633ee5aeb560e01b815260040160405180910390fd5b6002600155565b6040516001600160a01b0384811660248301528381166044830152606482018390526112919186918216906323b872dd906084015b604051602081830303815290604052915060e01b6020820180516001600160e01b03838183161783525050505061371b565b60006128258484846128af565b600081815260076020818152604080842080548b8652600984528286208190558686526008845282862090865283529084208a9055848452919052805492935060019290919061287690849061452b565b90915550505050505050565b6000546001600160a01b03163314611bcf5760405163118cdaa760e01b8152336004820152602401610749565b60008383836040516020016128c6939291906147a4565b6040516020818303038152906040528051906020012090509392505050565b600082815260066020526040812090600782015460ff16600381111561290d5761290d6142e0565b1461292a5760405162461bcd60e51b8152600401610749906146e2565b61293383611aea565b156129705760405162461bcd60e51b815260206004820152600d60248201526c13dc99195c88195e1c1a5c9959609a1b6044820152606401610749565b60025460408051632289a21d60e11b815290516000926001600160a01b031691634513443a9160048083019260209291908290030181865afa1580156129ba573d6000803e3d6000fd5b505050506040513d601f19601f820116820180604052508101906129de9190614737565b90506001600160a01b038116612a365760405162461bcd60e51b815260206004820152601960248201527f4d61726b6574206d616b657220706f6f6c206e6f7420736574000000000000006044820152606401610749565b600082600501548360030154612a4c9190614590565b90506000818511612a5d5784612a5f565b815b905060008111612a815760405162461bcd60e51b81526004016107499061470c565b6000670de0b6b3a7640000856004015483612a9c91906144ec565b612aa69190614509565b90506000600186810154600160a01b900460ff1690811115612aca57612aca6142e0565b03612d0057600285015460405163ce73580b60e01b81526001600160a01b03918216600482015260009186169063ce73580b90602401602060405180830381865afa158015612b1d573d6000803e3d6000fd5b505050506040513d601f19601f82011682018060405250810190612b419190614754565b6002870154604051633b00fcff60e11b81526001600160a01b0391821660048201526024810185905260448101869052919250861690637601f9fe9084906064016000604051808303818588803b158015612b9b57600080fd5b505af1158015612baf573d6000803e3d6000fd5b5050505050600061271060045484612bc791906144ec565b612bd19190614509565b90506000612710600d5483612be691906144ec565b612bf09190614509565b90508060056000828254612c049190614590565b90915550508015612cd7576002880154604051631f40046760e01b81526001600160a01b039182166004820152602481018590526000604482015290881690631f4004679083906064016000604051808303818588803b158015612c6757600080fd5b505af1158015612c7b573d6000803e3d6000fd5b50505050600289015460408051868152602081018590529081018590526001600160a01b039182169250908916907f9759c7a0428463cbb2e99cc12d98e245a832db87e0af1dd55cb71957139f076a9060600160405180910390a35b60018801546002890154612cf8916001600160a01b03918216911687613365565b505050612ff7565b600285015460405163030fbf0f60e31b81526001600160a01b03918216600482015260009186169063187df87890602401602060405180830381865afa158015612d4e573d6000803e3d6000fd5b505050506040513d601f19601f82011682018060405250810190612d729190614754565b600287015460405163095ea7b360e01b81526001600160a01b0388811660048301526024820187905292935091169063095ea7b3906044016020604051808303816000875af1158015612dc9573d6000803e3d6000fd5b505050506040513d601f19601f82011682018060405250810190612ded91906144ca565b506002860154604051635fbc13ef60e01b81526001600160a01b039182166004820152602481018490526044810185905290861690635fbc13ef90606401600060405180830381600087803b158015612e4557600080fd5b505af1158015612e59573d6000803e3d6000fd5b505050506000612e68836136dd565b90506000612e768285614590565b90506000612710600d5484612e8b91906144ec565b612e959190614509565b90508060056000828254612ea99190614590565b90915550508015612f7c576002890154604051631f40046760e01b81526001600160a01b039182166004820152602481018690526001604482015290891690631f4004679083906064016000604051808303818588803b158015612f0c57600080fd5b505af1158015612f20573d6000803e3d6000fd5b5050505060028a015460408051878152602081018590529081018690526001600160a01b039182169250908a16907f9759c7a0428463cbb2e99cc12d98e245a832db87e0af1dd55cb71957139f076a9060600160405180910390a35b60018901546040516000916001600160a01b03169084908381818185875af1925050503d8060008114612fcb576040519150601f19603f3d011682016040523d82523d6000602084013e612fd0565b606091505b5050905080612ff15760405162461bcd60e51b81526004016107499061476d565b50505050505b8185600501600082825461300b919061452b565b909155505060038501546005860154036130565760078501805460ff1916600117905560405182815287906000805160206147e98339815191529060200160405180910390a2613094565b86600080516020614809833981519152838760050154886003015461307b9190614590565b6040805192835260208301919091520160405180910390a25b836001600160a01b0316877fe332d84b9d7b6ed7b61613e3346be661c47cd1bcb330e8cdb0887aa2d3425e6e8488600401546040516130dd929190918252602082015260400190565b60405180910390a350505050505050565b8151600090815260066020908152604080832091850151835282209091600783015460ff166003811115613124576131246142e0565b14801561314957506000600782015460ff166003811115613147576131476142e0565b145b61318d5760405162461bcd60e51b81526020600482015260156024820152744f7264657273206d7573742062652061637469766560581b6044820152606401610749565b835161319890611aea565b1580156131af57506131ad8460200151611aea565b155b6131ec5760405162461bcd60e51b815260206004820152600e60248201526d13dc99195c9cc8195e1c1a5c995960921b6044820152606401610749565b6000600183810154600160a01b900460ff169081111561320e5761320e6142e0565b148015613239575060018082810154600160a01b900460ff1690811115613237576132376142e0565b145b61327b5760405162461bcd60e51b8152602060048201526013602482015272496e76616c6964206f7264657220747970657360681b6044820152606401610749565b600280820154908301546001600160a01b039081169116146132d05760405162461bcd60e51b815260206004820152600e60248201526d0a8ded6cadc40dad2e6dac2e8c6d60931b6044820152606401610749565b60018083810154600160a81b900460ff16908111156132f1576132f16142e0565b148061331b575060018082810154600160a81b900460ff1690811115613319576133196142e0565b145b61335b5760405162461bcd60e51b81526020600482015260116024820152704e6f74206d61726b6574206f726465727360781b6044820152606401610749565b611291848461378c565b6040516001600160a01b0383811660248301526044820183905261233c91859182169063a9059cbb906064016127e6565b600080546001600160a01b038381166001600160a01b0319831681178455604051919092169283917f8be0079c531659141344cd1fd0a4f28419497f9722a3daafe3b4186f6b6457e09190a35050565b8051600090815260066020908152604080832091840151835282209091600783015460ff16600381111561341c5761341c6142e0565b14801561344157506000600782015460ff16600381111561343f5761343f6142e0565b145b6134855760405162461bcd60e51b81526020600482015260156024820152744f7264657273206d7573742062652061637469766560581b6044820152606401610749565b825161349090611aea565b1580156134a757506134a58360200151611aea565b155b6134f35760405162461bcd60e51b815260206004820152601760248201527f31206f6620746865206f726465727320657870697265640000000000000000006044820152606401610749565b6000600183810154600160a01b900460ff1690811115613515576135156142e0565b148015613540575060018082810154600160a01b900460ff169081111561353e5761353e6142e0565b145b6135825760405162461bcd60e51b8152602060048201526013602482015272496e76616c6964206f7264657220747970657360681b6044820152606401610749565b600280820154908301546001600160a01b039081169116146135d75760405162461bcd60e51b815260206004820152600e60248201526d0a8ded6cadc40dad2e6dac2e8c6d60931b6044820152606401610749565b600180820154908301546001600160a01b039182169116036136475760405162461bcd60e51b815260206004820152602360248201527f53656c6c657220616e642062757965722063616e6e6f74206265207468652073604482015262616d6560e81b6064820152608401610749565b6000600183810154600160a81b900460ff1690811115613669576136696142e0565b14801561369557506000600182810154600160a81b900460ff1690811115613693576136936142e0565b145b6136d45760405162461bcd60e51b815260206004820152601060248201526f4e6f74206c696d6974206f726465727360801b6044820152606401610749565b61233c83613b57565b600080612710600454846136f191906144ec565b6136fb9190614509565b9050806005600082825461370f919061452b565b90915550909392505050565b600080602060008451602086016000885af18061373e576040513d6000823e3d81fd5b50506000513d91508115613756578060011415613763565b6001600160a01b0384163b155b1561129157604051635274afe760e01b81526001600160a01b0385166004820152602401610749565b8151600090815260066020908152604080832091850151835290912060018083810154600160a81b900460ff16908111156137c9576137c96142e0565b036138345781600401548311156138345760405162461bcd60e51b815260206004820152602960248201527f457865637574696f6e20707269636520657863656564732062757965722773206044820152686d617820707269636560b81b6064820152608401610749565b60018082810154600160a81b900460ff1690811115613855576138556142e0565b036138bf5780600401548310156138bf5760405162461bcd60e51b815260206004820152602860248201527f457865637574696f6e2070726963652062656c6f772073656c6c65722773206d604482015267696e20707269636560c01b6064820152608401610749565b6000826005015483600301546138d59190614590565b90506000826005015483600301546138ed9190614590565b6040870151909150828111156139005750815b8181111561390b5750805b6000811161392b5760405162461bcd60e51b81526004016107499061470c565b806000670de0b6b3a764000061394189846144ec565b61394b9190614509565b90506000613958826136dd565b905060006139668284614590565b60018901546040519192506000916001600160a01b039091169083908381818185875af1925050503d80600081146139ba576040519150601f19603f3d011682016040523d82523d6000602084013e6139bf565b606091505b50509050806139e05760405162461bcd60e51b81526004016107499061476d565b60018a015460028a0154613a01916001600160a01b03918216911687613365565b858a6005016000828254613a15919061452b565b9250508190555085896005016000828254613a30919061452b565b909155505060038a015460058b015403613a7b5760078a01805460ff191660011790558b516040518781526000805160206147e98339815191529060200160405180910390a2613abd565b8b60000151600080516020614809833981519152878c600501548d60030154613aa49190614590565b6040805192835260208301919091520160405180910390a25b8860030154896005015403613b075760078901805460ff191660011790556020808d015160405188815290916000805160206147e9833981519152910160405180910390a2613b49565b8b60200151600080516020614809833981519152878b600501548c60030154613b309190614590565b6040805192835260208301919091520160405180910390a25b505050505050505050505050565b80516000908152600660209081526040808320918401518352909120600480820154908301541015613bcb5760405162461bcd60e51b815260206004820152601f60248201527f5072696365206d69736d6174636820666f72206c696d6974206f7264657273006044820152606401610749565b600082600501548360030154613be19190614590565b9050600082600501548360030154613bf99190614590565b604086015190915082811115613c0c5750815b81811115613c175750805b60008111613c375760405162461bcd60e51b81526004016107499061470c565b60048401548190600090670de0b6b3a764000090613c5590846144ec565b613c5f9190614509565b90506000613c6c826136dd565b90506000613c7a8284614590565b60018901546040519192506000916001600160a01b039091169083908381818185875af1925050503d8060008114613cce576040519150601f19603f3d011682016040523d82523d6000602084013e613cd3565b606091505b5050905080613cf45760405162461bcd60e51b81526004016107499061476d565b60018a015460028a0154613d15916001600160a01b03918216911687613365565b858a6005016000828254613d29919061452b565b9250508190555085896005016000828254613d44919061452b565b90915550506004808a0154908b01541115613e36576000670de0b6b3a76400008a600401548c60040154613d789190614590565b613d8290896144ec565b613d8c9190614509565b60018c01546040519192506001600160a01b0316908290600081818185875af1925050503d8060008114613ddc576040519150601f19603f3d011682016040523d82523d6000602084013e613de1565b606091505b50508092505081613e345760405162461bcd60e51b815260206004820152601960248201527f45544820736176696e67732072657475726e206661696c6564000000000000006044820152606401610749565b505b89600301548a6005015403613e7c5760078a01805460ff191660011790558a516040518781526000805160206147e98339815191529060200160405180910390a2613ebe565b8a60000151600080516020614809833981519152878c600501548d60030154613ea59190614590565b6040805192835260208301919091520160405180910390a25b8860030154896005015403613f085760078901805460ff191660011790556020808c015160405188815290916000805160206147e9833981519152910160405180910390a2613f4a565b8a60200151600080516020614809833981519152878b600501548c60030154613f319190614590565b6040805192835260208301919091520160405180910390a25b5050505050505050505050565b6040805161014081018252600080825260208201819052909182019081526020016000815260200160006001600160a01b031681526020016000815260200160008152602001600081526020016000815260200160006003811115613fbe57613fbe6142e0565b905290565b600060208284031215613fd557600080fd5b5035919050565b6002811061179f57600080fd5b6001600160a01b038116811461179f57600080fd5b60008060008060008060c0878903121561401757600080fd5b863561402281613fdc565b9550602087013561403281613fdc565b9450604087013561404281613fe9565b959894975094956060810135955060808101359460a0909101359350915050565b6000806040838503121561407657600080fd5b50508035926020909101359150565b60006020828403121561409757600080fd5b81356140a281613fe9565b9392505050565b6000806000606084860312156140be57600080fd5b83356140c981613fe9565b925060208401356140d981613fdc565b915060408401356140e981613fdc565b809150509250925092565b602080825282518282018190526000918401906040840190835b8181101561412c57835183526020938401939092019160010161410e565b509095945050505050565b60008083601f84011261414957600080fd5b50813567ffffffffffffffff81111561416157600080fd5b6020830191508360208260051b850101111561417c57600080fd5b9250929050565b6000806000806040858703121561419957600080fd5b843567ffffffffffffffff8111156141b057600080fd5b6141bc87828801614137565b909550935050602085013567ffffffffffffffff8111156141dc57600080fd5b6141e887828801614137565b95989497509550505050565b60008083601f84011261420657600080fd5b50813567ffffffffffffffff81111561421e57600080fd5b60208301915083602060608302850101111561417c57600080fd5b6000806000806040858703121561424f57600080fd5b843567ffffffffffffffff81111561426657600080fd5b6141bc878288016141f4565b6000806020838503121561428557600080fd5b823567ffffffffffffffff81111561429c57600080fd5b6142a8858286016141f4565b90969095509350505050565b6000806000606084860312156142c957600080fd5b505081359360208301359350604090920135919050565b634e487b7160e01b600052602160045260246000fd5b6002811061179f5761179f6142e0565b61430f816142f6565b9052565b6004811061430f5761430f6142e0565b8a81526001600160a01b038a16602082015261014081016143438a6142f6565b896040830152614352896142f6565b88606083015260018060a01b03881660808301528660a08301528560c08301528460e08301528361010083015261438d610120830184614313565b9b9a5050505050505050505050565b600080600080600060a086880312156143b457600080fd5b85356143bf81613fe9565b945060208601356143cf81613fdc565b935060408601356143df81613fdc565b94979396509394606081013594506080013592915050565b8151815260208083015161014083019161441b908401826001600160a01b03169052565b50604083015161442e6040840182614306565b5060608301516144416060840182614306565b50608083015161445c60808401826001600160a01b03169052565b5060a083015160a083015260c083015160c083015260e083015160e08301526101008301516101008301526101208301516106fd610120840182614313565b634e487b7160e01b600052601160045260246000fd5b6000600182016144c3576144c361449b565b5060010190565b6000602082840312156144dc57600080fd5b815180151581146140a257600080fd5b80820281158282048414176145035761450361449b565b92915050565b60008261452657634e487b7160e01b600052601260045260246000fd5b500490565b808201808211156145035761450361449b565b60e0810161454b896142f6565b888252614557886142f6565b60208201979097526001600160a01b039590951660408601526060850193909352608084019190915260a083015260c090910152919050565b818103818111156145035761450361449b565b634e487b7160e01b600052604160045260246000fd5b634e487b7160e01b600052603260045260246000fd5b60208082526018908201527f43616c6c6572206973206e6f7420617574686f72697a65640000000000000000604082015260600190565b60208082526022908201527f46696c6c20616d6f756e74206d7573742062652067726561746572207468616e604082015261020360f41b606082015260800190565b6000606082840312801561465b57600080fd5b600090506040516060810181811067ffffffffffffffff8211171561468e57634e487b7160e01b83526041600452602483fd5b604090815284358252602080860135908301529384013593810193909352509092915050565b60208082526014908201527313dc99195c88191bd95cc81b9bdd08195e1a5cdd60621b604082015260600190565b60208082526010908201526f4f72646572206e6f742061637469766560801b604082015260600190565b602080825260119082015270139bc8185b5bdd5b9d081d1bc8199a5b1b607a1b604082015260600190565b60006020828403121561474957600080fd5b81516140a281613fe9565b60006020828403121561476657600080fd5b5051919050565b6020808252601d908201527f455448207472616e7366657220746f2073656c6c6572206661696c6564000000604082015260600190565b6bffffffffffffffffffffffff198460601b1681526147c2836142f6565b8260f81b60148201526147d4826142f6565b60f89190911b60158201526016019291505056feeb3b41be12efa25c0c65725eeff2e2ad0250e2e5de2aa939e18f36aa656e98808f9f7f58643161141dd2b5b862b54ab647f74549d3b06fd4430272bcc411678ca2646970667358221220b3605725a9d9f043431359f06a46951dd3c24115450c7cd15dd3da52560d948264736f6c634300081a0033",
  "linkReferences": {},
  "deployedLinkReferences": {}
}