{
  "_format": "hh-sol-artifact-1",
  "contractName": "GradientMarketMakerPool",
  "sourceName": "contracts/GradientMarketMakerPool.sol",
  "abi": [
    {
      "inputs": [
        {
          "internalType": "contract IGradientRegistry",
          "name": "_gradientRegistry",
          "type": "address"
        }
      ],
      "stateMutability": "nonpayable",
      "type": "constructor"
    },
    {
      "inputs": [
        {
          "internalType": "address",
          "name": "owner",
          "type": "address"
        }
      ],
      "name": "OwnableInvalidOwner",
      "type": "error"
    },
    {
      "inputs": [
        {
          "internalType": "address",
          "name": "account",
          "type": "address"
        }
      ],
      "name": "OwnableUnauthorizedAccount",
      "type": "error"
    },
    {
      "inputs": [],
      "name": "ReentrancyGuardReentrantCall",
      "type": "error"
    },
    {
      "inputs": [
        {
          "internalType": "address",
          "name": "token",
          "type": "address"
        }
      ],
      "name": "SafeERC20FailedOperation",
      "type": "error"
    },
    {
      "anonymous": false,
      "inputs": [
        {
          "indexed": true,
          "internalType": "address",
          "name": "orderbook",
          "type": "address"
        },
        {
          "indexed": false,
          "internalType": "uint256",
          "name": "amount",
          "type": "uint256"
        },
        {
          "indexed": true,
          "internalType": "address",
          "name": "token",
          "type": "address"
        }
      ],
      "name": "ETHReceivedFromOrderbook",
      "type": "event"
    },
    {
      "anonymous": false,
      "inputs": [
        {
          "indexed": true,
          "internalType": "address",
          "name": "orderbook",
          "type": "address"
        },
        {
          "indexed": false,
          "internalType": "uint256",
          "name": "amount",
          "type": "uint256"
        },
        {
          "indexed": true,
          "internalType": "address",
          "name": "token",
          "type": "address"
        }
      ],
      "name": "ETHTransferredToOrderbook",
      "type": "event"
    },
    {
      "anonymous": false,
      "inputs": [
        {
          "indexed": true,
          "internalType": "address",
          "name": "user",
          "type": "address"
        },
        {
          "indexed": false,
          "internalType": "address",
          "name": "token",
          "type": "address"
        },
        {
          "indexed": false,
          "internalType": "uint256",
          "name": "ethAmount",
          "type": "uint256"
        },
        {
          "indexed": false,
          "internalType": "uint256",
          "name": "tokenAmount",
          "type": "uint256"
        },
        {
          "indexed": false,
          "internalType": "uint256",
          "name": "lpSharesMinted",
          "type": "uint256"
        }
      ],
      "name": "LiquidityDeposited",
      "type": "event"
    },
    {
      "anonymous": false,
      "inputs": [
        {
          "indexed": true,
          "internalType": "address",
          "name": "user",
          "type": "address"
        },
        {
          "indexed": false,
          "internalType": "uint256",
          "name": "tokenAmount",
          "type": "uint256"
        },
        {
          "indexed": false,
          "internalType": "uint256",
          "name": "ethAmount",
          "type": "uint256"
        },
        {
          "indexed": false,
          "internalType": "uint256",
          "name": "lpSharesBurned",
          "type": "uint256"
        }
      ],
      "name": "LiquidityWithdrawn",
      "type": "event"
    },
    {
      "anonymous": false,
      "inputs": [
        {
          "indexed": true,
          "internalType": "address",
          "name": "previousOwner",
          "type": "address"
        },
        {
          "indexed": true,
          "internalType": "address",
          "name": "newOwner",
          "type": "address"
        }
      ],
      "name": "OwnershipTransferred",
      "type": "event"
    },
    {
      "anonymous": false,
      "inputs": [
        {
          "indexed": true,
          "internalType": "address",
          "name": "token",
          "type": "address"
        },
        {
          "indexed": false,
          "internalType": "uint256",
          "name": "newTotalEth",
          "type": "uint256"
        },
        {
          "indexed": false,
          "internalType": "uint256",
          "name": "newTotalToken",
          "type": "uint256"
        },
        {
          "indexed": false,
          "internalType": "uint256",
          "name": "newTotalLiquidity",
          "type": "uint256"
        },
        {
          "indexed": false,
          "internalType": "uint256",
          "name": "newTotalLPShares",
          "type": "uint256"
        }
      ],
      "name": "PoolBalanceUpdated",
      "type": "event"
    },
    {
      "anonymous": false,
      "inputs": [
        {
          "indexed": true,
          "internalType": "address",
          "name": "user",
          "type": "address"
        },
        {
          "indexed": false,
          "internalType": "uint256",
          "name": "amount",
          "type": "uint256"
        }
      ],
      "name": "RewardClaimed",
      "type": "event"
    },
    {
      "anonymous": false,
      "inputs": [
        {
          "indexed": true,
          "internalType": "address",
          "name": "from",
          "type": "address"
        },
        {
          "indexed": false,
          "internalType": "uint256",
          "name": "amount",
          "type": "uint256"
        }
      ],
      "name": "RewardDeposited",
      "type": "event"
    },
    {
      "anonymous": false,
      "inputs": [
        {
          "indexed": true,
          "internalType": "address",
          "name": "orderbook",
          "type": "address"
        },
        {
          "indexed": true,
          "internalType": "address",
          "name": "token",
          "type": "address"
        },
        {
          "indexed": false,
          "internalType": "uint256",
          "name": "amount",
          "type": "uint256"
        }
      ],
      "name": "TokenReceivedFromOrderbook",
      "type": "event"
    },
    {
      "anonymous": false,
      "inputs": [
        {
          "indexed": true,
          "internalType": "address",
          "name": "orderbook",
          "type": "address"
        },
        {
          "indexed": true,
          "internalType": "address",
          "name": "token",
          "type": "address"
        },
        {
          "indexed": false,
          "internalType": "uint256",
          "name": "amount",
          "type": "uint256"
        }
      ],
      "name": "TokenTransferredToOrderbook",
      "type": "event"
    },
    {
      "inputs": [],
      "name": "SCALE",
      "outputs": [
        {
          "internalType": "uint256",
          "name": "",
          "type": "uint256"
        }
      ],
      "stateMutability": "view",
      "type": "function"
    },
    {
      "inputs": [
        {
          "internalType": "address",
          "name": "token",
          "type": "address"
        }
      ],
      "name": "claimReward",
      "outputs": [],
      "stateMutability": "nonpayable",
      "type": "function"
    },
    {
      "inputs": [],
      "name": "emergencyWithdraw",
      "outputs": [],
      "stateMutability": "nonpayable",
      "type": "function"
    },
    {
      "inputs": [
        {
          "internalType": "address",
          "name": "token",
          "type": "address"
        }
      ],
      "name": "getPairAddress",
      "outputs": [
        {
          "internalType": "address",
          "name": "pairAddress",
          "type": "address"
        }
      ],
      "stateMutability": "view",
      "type": "function"
    },
    {
      "inputs": [
        {
          "internalType": "address",
          "name": "token",
          "type": "address"
        }
      ],
      "name": "getPoolInfo",
      "outputs": [
        {
          "components": [
            {
              "internalType": "uint256",
              "name": "totalEth",
              "type": "uint256"
            },
            {
              "internalType": "uint256",
              "name": "totalToken",
              "type": "uint256"
            },
            {
              "internalType": "uint256",
              "name": "totalLiquidity",
              "type": "uint256"
            },
            {
              "internalType": "uint256",
              "name": "totalLPShares",
              "type": "uint256"
            },
            {
              "internalType": "uint256",
              "name": "accRewardPerShare",
              "type": "uint256"
            },
            {
              "internalType": "uint256",
              "name": "rewardBalance",
              "type": "uint256"
            },
            {
              "internalType": "address",
              "name": "uniswapPair",
              "type": "address"
            }
          ],
          "internalType": "struct IGradientMarketMakerPool.PoolInfo",
          "name": "",
          "type": "tuple"
        }
      ],
      "stateMutability": "view",
      "type": "function"
    },
    {
      "inputs": [
        {
          "internalType": "address",
          "name": "token",
          "type": "address"
        }
      ],
      "name": "getReserves",
      "outputs": [
        {
          "internalType": "uint256",
          "name": "reserveETH",
          "type": "uint256"
        },
        {
          "internalType": "uint256",
          "name": "reserveToken",
          "type": "uint256"
        }
      ],
      "stateMutability": "view",
      "type": "function"
    },
    {
      "inputs": [
        {
          "internalType": "address",
          "name": "token",
          "type": "address"
        },
        {
          "internalType": "address",
          "name": "user",
          "type": "address"
        }
      ],
      "name": "getUserLPShares",
      "outputs": [
        {
          "internalType": "uint256",
          "name": "lpShares",
          "type": "uint256"
        }
      ],
      "stateMutability": "view",
      "type": "function"
    },
    {
      "inputs": [
        {
          "internalType": "address",
          "name": "token",
          "type": "address"
        },
        {
          "internalType": "address",
          "name": "user",
          "type": "address"
        }
      ],
      "name": "getUserSharePercentage",
      "outputs": [
        {
          "internalType": "uint256",
          "name": "sharePercentage",
          "type": "uint256"
        }
      ],
      "stateMutability": "view",
      "type": "function"
    },
    {
      "inputs": [],
      "name": "gradientRegistry",
      "outputs": [
        {
          "internalType": "contract IGradientRegistry",
          "name": "",
          "type": "address"
        }
      ],
      "stateMutability": "view",
      "type": "function"
    },
    {
      "inputs": [
        {
          "internalType": "address",
          "name": "",
          "type": "address"
        },
        {
          "internalType": "address",
          "name": "",
          "type": "address"
        }
      ],
      "name": "marketMakers",
      "outputs": [
        {
          "internalType": "uint256",
          "name": "tokenAmount",
          "type": "uint256"
        },
        {
          "internalType": "uint256",
          "name": "ethAmount",
          "type": "uint256"
        },
        {
          "internalType": "uint256",
          "name": "lpShares",
          "type": "uint256"
        },
        {
          "internalType": "uint256",
          "name": "rewardDebt",
          "type": "uint256"
        },
        {
          "internalType": "uint256",
          "name": "pendingReward",
          "type": "uint256"
        }
      ],
      "stateMutability": "view",
      "type": "function"
    },
    {
      "inputs": [],
      "name": "owner",
      "outputs": [
        {
          "internalType": "address",
          "name": "",
          "type": "address"
        }
      ],
      "stateMutability": "view",
      "type": "function"
    },
    {
      "inputs": [
        {
          "internalType": "address",
          "name": "",
          "type": "address"
        }
      ],
      "name": "pools",
      "outputs": [
        {
          "internalType": "uint256",
          "name": "totalEth",
          "type": "uint256"
        },
        {
          "internalType": "uint256",
          "name": "totalToken",
          "type": "uint256"
        },
        {
          "internalType": "uint256",
          "name": "totalLiquidity",
          "type": "uint256"
        },
        {
          "internalType": "uint256",
          "name": "totalLPShares",
          "type": "uint256"
        },
        {
          "internalType": "uint256",
          "name": "accRewardPerShare",
          "type": "uint256"
        },
        {
          "internalType": "uint256",
          "name": "rewardBalance",
          "type": "uint256"
        },
        {
          "internalType": "address",
          "name": "uniswapPair",
          "type": "address"
        }
      ],
      "stateMutability": "view",
      "type": "function"
    },
    {
      "inputs": [
        {
          "internalType": "address",
          "name": "token",
          "type": "address"
        },
        {
          "internalType": "uint256",
          "name": "tokenAmount",
          "type": "uint256"
        }
      ],
      "name": "provideLiquidity",
      "outputs": [],
      "stateMutability": "payable",
      "type": "function"
    },
    {
      "inputs": [
        {
          "internalType": "address",
          "name": "token",
          "type": "address"
        },
        {
          "internalType": "uint256",
          "name": "amount",
          "type": "uint256"
        }
      ],
      "name": "receiveETHFromOrderbook",
      "outputs": [],
      "stateMutability": "payable",
      "type": "function"
    },
    {
      "inputs": [
        {
          "internalType": "address",
          "name": "token",
          "type": "address"
        }
      ],
      "name": "receiveFeeDistribution",
      "outputs": [],
      "stateMutability": "payable",
      "type": "function"
    },
    {
      "inputs": [
        {
          "internalType": "address",
          "name": "token",
          "type": "address"
        },
        {
          "internalType": "uint256",
          "name": "amount",
          "type": "uint256"
        }
      ],
      "name": "receiveTokenFromOrderbook",
      "outputs": [],
      "stateMutability": "nonpayable",
      "type": "function"
    },
    {
      "inputs": [],
      "name": "renounceOwnership",
      "outputs": [],
      "stateMutability": "nonpayable",
      "type": "function"
    },
    {
      "inputs": [
        {
          "internalType": "contract IGradientRegistry",
          "name": "_gradientRegistry",
          "type": "address"
        }
      ],
      "name": "setRegistry",
      "outputs": [],
      "stateMutability": "nonpayable",
      "type": "function"
    },
    {
      "inputs": [
        {
          "internalType": "address",
          "name": "token",
          "type": "address"
        },
        {
          "internalType": "uint256",
          "name": "amount",
          "type": "uint256"
        }
      ],
      "name": "transferETHToOrderbook",
      "outputs": [],
      "stateMutability": "nonpayable",
      "type": "function"
    },
    {
      "inputs": [
        {
          "internalType": "address",
          "name": "newOwner",
          "type": "address"
        }
      ],
      "name": "transferOwnership",
      "outputs": [],
      "stateMutability": "nonpayable",
      "type": "function"
    },
    {
      "inputs": [
        {
          "internalType": "address",
          "name": "token",
          "type": "address"
        },
        {
          "internalType": "uint256",
          "name": "amount",
          "type": "uint256"
        }
      ],
      "name": "transferTokenToOrderbook",
      "outputs": [],
      "stateMutability": "nonpayable",
      "type": "function"
    },
    {
      "inputs": [
        {
          "internalType": "address",
          "name": "token",
          "type": "address"
        },
        {
          "internalType": "uint256",
          "name": "shares",
          "type": "uint256"
        }
      ],
      "name": "withdrawLiquidity",
      "outputs": [],
      "stateMutability": "nonpayable",
      "type": "function"
    },
    {
      "stateMutability": "payable",
      "type": "receive"
    }
  ],
  "bytecode": "0x608060405234801561001057600080fd5b50604051612a47380380612a4783398101604081905261002f916100d8565b338061005557604051631e4fbdf760e01b81526000600482015260240160405180910390fd5b61005e81610088565b5060018055600280546001600160a01b0319166001600160a01b0392909216919091179055610108565b600080546001600160a01b038381166001600160a01b0319831681178455604051919092169283917f8be0079c531659141344cd1fd0a4f28419497f9722a3daafe3b4186f6b6457e09190a35050565b6000602082840312156100ea57600080fd5b81516001600160a01b038116811461010157600080fd5b9392505050565b612930806101176000396000f3fe6080604052600436106101395760003560e01c80638a57fddd116100ab578063ae8b804d1161006f578063ae8b804d1461048c578063d279c191146104ac578063db2e21bc146104cc578063e706fad8146104e1578063eced552614610501578063f2fde38b1461051d57600080fd5b80638a57fddd1461037b5780638da5cb5b1461038e578063a4063dbc146103ac578063a91ee0dc1461044c578063adabfa051461046c57600080fd5b80635fea6120116100fd5780635fea6120146102ad578063715018a6146102c05780637e49b933146102d55780637e7c7a9514610303578063830562bc1461032357806385e694b61461035b57600080fd5b806306bfa9381461014557806306d47de9146101c85780633e99c1e4146101ea57806340a16e261461021f578063576f44721461029a57600080fd5b3661014057005b600080fd5b34801561015157600080fd5b5061016561016036600461262a565b61053d565b6040516101bf9190815181526020808301519082015260408083015190820152606080830151908201526080808301519082015260a0808301519082015260c0918201516001600160a01b03169181019190915260e00190565b60405180910390f35b3480156101d457600080fd5b506101e86101e336600461264e565b6105f6565b005b3480156101f657600080fd5b5061020a61020536600461262a565b610a6f565b604080519283526020830191909152016101bf565b34801561022b57600080fd5b5061027261023a36600461267a565b600460208181526000938452604080852090915291835291208054600182015460028301546003840154939094015491939092909185565b604080519586526020860194909452928401919091526060830152608082015260a0016101bf565b6101e86102a836600461262a565b610bb1565b6101e86102bb36600461264e565b610db8565b3480156102cc57600080fd5b506101e86110d7565b3480156102e157600080fd5b506102f56102f036600461267a565b6110eb565b6040519081526020016101bf565b34801561030f57600080fd5b506101e861031e36600461264e565b61111b565b34801561032f57600080fd5b50600254610343906001600160a01b031681565b6040516001600160a01b0390911681526020016101bf565b34801561036757600080fd5b5061034361037636600461262a565b61149a565b6101e861038936600461264e565b6116ae565b34801561039a57600080fd5b506000546001600160a01b0316610343565b3480156103b857600080fd5b5061040e6103c736600461262a565b60036020819052600091825260409091208054600182015460028301549383015460048401546005850154600690950154939592949293919290916001600160a01b031687565b604080519788526020880196909652948601939093526060850191909152608084015260a08301526001600160a01b031660c082015260e0016101bf565b34801561045857600080fd5b506101e861046736600461262a565b6119cb565b34801561047857600080fd5b506101e861048736600461264e565b611ab8565b34801561049857600080fd5b506102f56104a736600461267a565b611d85565b3480156104b857600080fd5b506101e86104c736600461262a565b611df4565b3480156104d857600080fd5b506101e8611fb4565b3480156104ed57600080fd5b506101e86104fc36600461264e565b61205a565b34801561050d57600080fd5b506102f5670de0b6b3a764000081565b34801561052957600080fd5b506101e861053836600461262a565b61239c565b6105866040518060e0016040528060008152602001600081526020016000815260200160008152602001600081526020016000815260200160006001600160a01b031681525090565b506001600160a01b03908116600090815260036020818152604092839020835160e0810185528154815260018201549281019290925260028101549382019390935290820154606082015260048201546080820152600582015460a082015260069091015490911660c082015290565b6105fe6123d7565b6001600160a01b038216600090815260036020908152604080832060048352818420338552909252909120821580159061063a57506127108311155b61068b5760405162461bcd60e51b815260206004820152601960248201527f496e76616c6964207368617265732070657263656e746167650000000000000060448201526064015b60405180910390fd5b60008260020154116106d65760405162461bcd60e51b8152602060048201526014602482015273139bc81b1a5c5d5a591a5d1e481a5b881c1bdbdb60621b6044820152606401610682565b600181015481546000916106e9916126c9565b90506000811161073b5760405162461bcd60e51b815260206004820152601860248201527f4e6f206c697175696469747920746f20776974686472617700000000000000006044820152606401610682565b60008260030154670de0b6b3a764000085600401548461075b91906126dc565b61076591906126f3565b61076f9190612715565b90508083600401600082825461078591906126c9565b9250508190555060006127108685600201546107a191906126dc565b6107ab91906126f3565b9050600081116107f15760405162461bcd60e51b815260206004820152601160248201527027379039b430b932b9903a3790313ab93760791b6044820152606401610682565b6000856003015482876001015461080891906126dc565b61081291906126f3565b90506000866003015483886000015461082b91906126dc565b61083591906126f3565b9050600061271089886000015461084c91906126dc565b61085691906126f3565b905060006127108a896001015461086d91906126dc565b61087791906126f3565b90508188600001600082825461088d9190612715565b92505081905550808860010160008282546108a89190612715565b92505081905550848860020160008282546108c39190612715565b909155506108d3905083856126c9565b8960020160008282546108e69190612715565b92505081905550838960010160008282546109019190612715565b9091555050885483908a9060009061091a908490612715565b92505081905550848960030160008282546109359190612715565b9091555050600489015460018901548954670de0b6b3a7640000929161095a916126c9565b61096491906126dc565b61096e91906126f3565b60038901556109876001600160a01b038c163386612401565b604051600090339085908381818185875af1925050503d80600081146109c9576040519150601f19603f3d011682016040523d82523d6000602084013e6109ce565b606091505b5050905080610a155760405162461bcd60e51b8152602060048201526013602482015272115512081d1c985b9cd9995c8819985a5b1959606a1b6044820152606401610682565b604080518681526020810186905290810187905233907f9746cd459b192e14d25047ee6f0c763709fc38435eb4883830cf715de0a40ac09060600160405180910390a250505050505050505050610a6b60018055565b5050565b6000806000610a7d8461149a565b90506001600160a01b038116610aa55760405162461bcd60e51b815260040161068290612728565b600080826001600160a01b0316630902f1ac6040518163ffffffff1660e01b8152600401606060405180830381865afa158015610ae6573d6000803e3d6000fd5b505050506040513d601f19601f82011682018060405250810190610b0a9190612771565b50915091506000836001600160a01b0316630dfe16816040518163ffffffff1660e01b8152600401602060405180830381865afa158015610b4f573d6000803e3d6000fd5b505050506040513d601f19601f82011682018060405250810190610b7391906127c1565b9050866001600160a01b0316816001600160a01b031614610b95578282610b98565b81835b6001600160701b03918216999116975095505050505050565b806000610bbd8261149a565b90506001600160a01b038116610be55760405162461bcd60e51b815260040161068290612728565b6001600160a01b0382811660009081526003602052604090206006015416610c1f5760405162461bcd60e51b8152600401610682906127de565b6002546040516316ed852560e01b81523360048201526001600160a01b03909116906316ed852590602401602060405180830381865afa158015610c67573d6000803e3d6000fd5b505050506040513d601f19601f82011682018060405250810190610c8b919061280c565b610cee5760405162461bcd60e51b815260206004820152602e60248201527f4f6e6c7920726577617264206469737472696275746f722063616e2063616c6c60448201526d103a3434b990333ab731ba34b7b760911b6064820152608401610682565b6001600160a01b03831660009081526003602052604090206002810154610d275760405162461bcd60e51b81526004016106829061282e565b60003411610d655760405162461bcd60e51b815260206004820152600b60248201526a139bc8115512081cd95b9d60aa1b6044820152606401610682565b610d6f8434612465565b836001600160a01b03167f7dbc080e4530c8bcf265eb5c9a35ae096ca1eb607b7e802b96581ef4c5e1a70334604051610daa91815260200190565b60405180910390a250505050565b610dc06123d7565b6001600160a01b03821660009081526003602052604081209080610de385610a6f565b9092509050600082610df583346126dc565b610dff91906126f3565b90506064610e0e8260636126dc565b610e1891906126f3565b8510158015610e3d57506064610e2f8260656126dc565b610e3991906126f3565b8511155b610e895760405162461bcd60e51b815260206004820152601760248201527f496e76616c6964206c697175696469747920726174696f0000000000000000006044820152606401610682565b610e9e6001600160a01b0387163330886124e8565b6001600160a01b0386166000908152600460209081526040808320338452909152812060018101548154919291610ed591906126c9565b90508015610f2e5760008260030154670de0b6b3a7640000886004015484610efd91906126dc565b610f0791906126f3565b610f119190612715565b905080836004016000828254610f2791906126c9565b9091555050505b60008660030154600003610f4d57610f4634896126c9565b9050610f7e565b6000610f59348a6126c9565b90508760020154886003015482610f7091906126dc565b610f7a91906126f3565b9150505b34836001016000828254610f9291906126c9565b9091555050825488908490600090610fab9084906126c9565b9250508190555080836002016000828254610fc691906126c9565b9091555050600487015460018401548454670de0b6b3a76400009291610feb916126c9565b610ff591906126dc565b610fff91906126f3565b600384015561100e34896126c9565b87600201600082825461102191906126c9565b909155505086543490889060009061103a9084906126c9565b925050819055508787600101600082825461105591906126c9565b925050819055508087600301600082825461107091906126c9565b9091555050604080516001600160a01b038b1681523460208201529081018990526060810182905233907f76eb95a037bfb0d0de0d9534dc6b6c0be4c3c7b9f6e31fd4d34d2339de6dbcd89060800160405180910390a250505050505050610a6b60018055565b6110df612527565b6110e96000612554565b565b6001600160a01b038083166000908152600460209081526040808320938516835292905220600201545b92915050565b600254604051630736b32b60e31b81526001600160a01b038085166004830152849216906339b5995890602401602060405180830381865afa158015611165573d6000803e3d6000fd5b505050506040513d601f19601f82011682018060405250810190611189919061280c565b156111a65760405162461bcd60e51b815260040161068290612854565b8260006111b28261149a565b90506001600160a01b0381166111da5760405162461bcd60e51b815260040161068290612728565b6001600160a01b03828116600090815260036020526040902060060154166112145760405162461bcd60e51b8152600401610682906127de565b600260009054906101000a90046001600160a01b03166001600160a01b031663c18b1d5e6040518163ffffffff1660e01b8152600401602060405180830381865afa158015611267573d6000803e3d6000fd5b505050506040513d601f19601f8201168201806040525081019061128b91906127c1565b6001600160a01b0316336001600160a01b0316146112bb5760405162461bcd60e51b81526004016106829061287e565b600084116112db5760405162461bcd60e51b8152600401610682906128c3565b4784111561132b5760405162461bcd60e51b815260206004820152601860248201527f496e73756666696369656e74204554482062616c616e636500000000000000006044820152606401610682565b6001600160a01b038516600090815260036020526040902060028101546113645760405162461bcd60e51b81526004016106829061282e565b848160000160008282546113789190612715565b92505081905550848160020160008282546113939190612715565b9091555050604051600090339087908381818185875af1925050503d80600081146113da576040519150601f19603f3d011682016040523d82523d6000602084013e6113df565b606091505b50509050806114305760405162461bcd60e51b815260206004820181905260248201527f455448207472616e7366657220746f206f72646572626f6f6b206661696c65646044820152606401610682565b81546001830154600284015460038501546040805194855260208501939093529183015260608201526001600160a01b038816907fe7a1849d3d3b81e99267b68a3889d2f466ac59697fa69ed9f94d306737f6ecd89060800160405180910390a250505050505050565b600080600260009054906101000a90046001600160a01b03166001600160a01b031663f887ea406040518163ffffffff1660e01b8152600401602060405180830381865afa1580156114f0573d6000803e3d6000fd5b505050506040513d601f19601f8201168201806040525081019061151491906127c1565b90506001600160a01b03811661155d5760405162461bcd60e51b815260206004820152600e60248201526d149bdd5d195c881b9bdd081cd95d60921b6044820152606401610682565b60008190506000816001600160a01b031663c45a01556040518163ffffffff1660e01b8152600401602060405180830381865afa1580156115a2573d6000803e3d6000fd5b505050506040513d601f19601f820116820180604052508101906115c691906127c1565b90506000826001600160a01b031663ad5c46486040518163ffffffff1660e01b8152600401602060405180830381865afa158015611608573d6000803e3d6000fd5b505050506040513d601f19601f8201168201806040525081019061162c91906127c1565b60405163e6a4390560e01b81526001600160a01b0388811660048301528083166024830152919250839182169063e6a4390590604401602060405180830381865afa15801561167f573d6000803e3d6000fd5b505050506040513d601f19601f820116820180604052508101906116a391906127c1565b979650505050505050565b600254604051630736b32b60e31b81526001600160a01b038085166004830152849216906339b5995890602401602060405180830381865afa1580156116f8573d6000803e3d6000fd5b505050506040513d601f19601f8201168201806040525081019061171c919061280c565b156117395760405162461bcd60e51b815260040161068290612854565b8260006117458261149a565b90506001600160a01b03811661176d5760405162461bcd60e51b815260040161068290612728565b6001600160a01b03828116600090815260036020526040902060060154166117a75760405162461bcd60e51b8152600401610682906127de565b600260009054906101000a90046001600160a01b03166001600160a01b031663c18b1d5e6040518163ffffffff1660e01b8152600401602060405180830381865afa1580156117fa573d6000803e3d6000fd5b505050506040513d601f19601f8201168201806040525081019061181e91906127c1565b6001600160a01b0316336001600160a01b03161461184e5760405162461bcd60e51b81526004016106829061287e565b6000841161186e5760405162461bcd60e51b8152600401610682906128c3565b8334146118b35760405162461bcd60e51b815260206004820152601360248201527208aa89040c2dadeeadce840dad2e6dac2e8c6d606b1b6044820152606401610682565b6001600160a01b038516600090815260036020526040902060028101546118ec5760405162461bcd60e51b81526004016106829061282e565b8481600001600082825461190091906126c9565b925050819055508481600201600082825461191b91906126c9565b90915550506040518581526001600160a01b0387169033907fa83dbe67a8301965c2dd933c3feb89cae1783e4a8825466fd979d121f3f7ef69906020015b60405180910390a380546001820154600283015460038401546040805194855260208501939093529183015260608201526001600160a01b038716907fe7a1849d3d3b81e99267b68a3889d2f466ac59697fa69ed9f94d306737f6ecd8906080015b60405180910390a2505050505050565b6119d3612527565b60006001600160a01b0316816001600160a01b0316634513443a6040518163ffffffff1660e01b8152600401602060405180830381865afa158015611a1c573d6000803e3d6000fd5b505050506040513d601f19601f82011682018060405250810190611a4091906127c1565b6001600160a01b031603611a965760405162461bcd60e51b815260206004820152601960248201527f496e76616c6964206772616469656e74207265676973747279000000000000006044820152606401610682565b600280546001600160a01b0319166001600160a01b0392909216919091179055565b600254604051630736b32b60e31b81526001600160a01b038085166004830152849216906339b5995890602401602060405180830381865afa158015611b02573d6000803e3d6000fd5b505050506040513d601f19601f82011682018060405250810190611b26919061280c565b15611b435760405162461bcd60e51b815260040161068290612854565b826000611b4f8261149a565b90506001600160a01b038116611b775760405162461bcd60e51b815260040161068290612728565b6001600160a01b0382811660009081526003602052604090206006015416611bb15760405162461bcd60e51b8152600401610682906127de565b600260009054906101000a90046001600160a01b03166001600160a01b031663c18b1d5e6040518163ffffffff1660e01b8152600401602060405180830381865afa158015611c04573d6000803e3d6000fd5b505050506040513d601f19601f82011682018060405250810190611c2891906127c1565b6001600160a01b0316336001600160a01b031614611c585760405162461bcd60e51b81526004016106829061287e565b60008411611c785760405162461bcd60e51b8152600401610682906128c3565b6001600160a01b038516611cc65760405162461bcd60e51b8152602060048201526015602482015274496e76616c696420746f6b656e206164647265737360581b6044820152606401610682565b6001600160a01b03851660009081526003602052604090206002810154611cff5760405162461bcd60e51b81526004016106829061282e565b611d146001600160a01b0387163330886124e8565b84816001016000828254611d2891906126c9565b9250508190555084816002016000828254611d4391906126c9565b90915550506040518581526001600160a01b0387169033907fb61579a10a10e72eda8e63b6e1224e007f5c4108c1378c9a831a11363a74b75a90602001611959565b6001600160a01b038083166000908152600360208181526040808420600483528185209587168552949091528220908301549192918303611dcb57600092505050611115565b60038201546002820154611de1906127106126dc565b611deb91906126f3565b95945050505050565b611dfc6123d7565b6001600160a01b0381166000908152600360209081526040808320600483528184203385529092529091206002810154611e485760405162461bcd60e51b81526004016106829061282e565b6000670de0b6b3a764000083600401548360020154611e6791906126dc565b611e7191906126f3565b905060008260040154836003015483611e8a9190612715565b611e9491906126c9565b905060008111611ed35760405162461bcd60e51b815260206004820152600a6024820152694e6f207265776172647360b01b6044820152606401610682565b60038301829055600060048401819055604051339083908381818185875af1925050503d8060008114611f22576040519150601f19603f3d011682016040523d82523d6000602084013e611f27565b606091505b5050905080611f6e5760405162461bcd60e51b8152602060048201526013602482015272115512081d1c985b9cd9995c8819985a5b1959606a1b6044820152606401610682565b60405182815233907f106f923f993c2149d49b4255ff723acafa1f2d94393f561d3eda32ae348f72419060200160405180910390a25050505050611fb160018055565b50565b611fbc612527565b478015611fb157600080546040516001600160a01b039091169083908381818185875af1925050503d8060008114612010576040519150601f19603f3d011682016040523d82523d6000602084013e612015565b606091505b5050905080610a6b5760405162461bcd60e51b815260206004820152601160248201527015da5d1a191c985dd85b0819985a5b1959607a1b6044820152606401610682565b600254604051630736b32b60e31b81526001600160a01b038085166004830152849216906339b5995890602401602060405180830381865afa1580156120a4573d6000803e3d6000fd5b505050506040513d601f19601f820116820180604052508101906120c8919061280c565b156120e55760405162461bcd60e51b815260040161068290612854565b8260006120f18261149a565b90506001600160a01b0381166121195760405162461bcd60e51b815260040161068290612728565b6001600160a01b03828116600090815260036020526040902060060154166121535760405162461bcd60e51b8152600401610682906127de565b600260009054906101000a90046001600160a01b03166001600160a01b031663c18b1d5e6040518163ffffffff1660e01b8152600401602060405180830381865afa1580156121a6573d6000803e3d6000fd5b505050506040513d601f19601f820116820180604052508101906121ca91906127c1565b6001600160a01b0316336001600160a01b0316146121fa5760405162461bcd60e51b81526004016106829061287e565b6000841161221a5760405162461bcd60e51b8152600401610682906128c3565b6001600160a01b0385166122685760405162461bcd60e51b8152602060048201526015602482015274496e76616c696420746f6b656e206164647265737360581b6044820152606401610682565b6001600160a01b038516600090815260036020526040902060028101546122a15760405162461bcd60e51b81526004016106829061282e565b84816001015410156122f55760405162461bcd60e51b815260206004820152601f60248201527f496e73756666696369656e7420706f6f6c20746f6b656e2062616c616e6365006044820152606401610682565b848160010160008282546123099190612715565b92505081905550848160020160008282546123249190612715565b9091555061233e90506001600160a01b0387163387612401565b80546001820154600283015460038401546040805194855260208501939093529183015260608201526001600160a01b038716907fe7a1849d3d3b81e99267b68a3889d2f466ac59697fa69ed9f94d306737f6ecd8906080016119bb565b6123a4612527565b6001600160a01b0381166123ce57604051631e4fbdf760e01b815260006004820152602401610682565b611fb181612554565b6002600154036123fa57604051633ee5aeb560e01b815260040160405180910390fd5b6002600155565b6040516001600160a01b0383811660248301526044820183905261246091859182169063a9059cbb906064015b604051602081830303815290604052915060e01b6020820180516001600160e01b0383818316178352505050506125a4565b505050565b6001600160a01b038216600090815260036020819052604082209081015490910361248f57505050565b60038101546124a6670de0b6b3a7640000846126dc565b6124b091906126f3565b8160040160008282546124c391906126c9565b92505081905550818160050160008282546124de91906126c9565b9091555050505050565b6040516001600160a01b0384811660248301528381166044830152606482018390526125219186918216906323b872dd9060840161242e565b50505050565b6000546001600160a01b031633146110e95760405163118cdaa760e01b8152336004820152602401610682565b600080546001600160a01b038381166001600160a01b0319831681178455604051919092169283917f8be0079c531659141344cd1fd0a4f28419497f9722a3daafe3b4186f6b6457e09190a35050565b600080602060008451602086016000885af1806125c7576040513d6000823e3d81fd5b50506000513d915081156125df5780600114156125ec565b6001600160a01b0384163b155b1561252157604051635274afe760e01b81526001600160a01b0385166004820152602401610682565b6001600160a01b0381168114611fb157600080fd5b60006020828403121561263c57600080fd5b813561264781612615565b9392505050565b6000806040838503121561266157600080fd5b823561266c81612615565b946020939093013593505050565b6000806040838503121561268d57600080fd5b823561269881612615565b915060208301356126a881612615565b809150509250929050565b634e487b7160e01b600052601160045260246000fd5b80820180821115611115576111156126b3565b8082028115828204841417611115576111156126b3565b60008261271057634e487b7160e01b600052601260045260246000fd5b500490565b81810381811115611115576111156126b3565b60208082526013908201527214185a5c88191bd95cc81b9bdd08195e1a5cdd606a1b604082015260600190565b80516001600160701b038116811461276c57600080fd5b919050565b60008060006060848603121561278657600080fd5b61278f84612755565b925061279d60208501612755565b9150604084015163ffffffff811681146127b657600080fd5b809150509250925092565b6000602082840312156127d357600080fd5b815161264781612615565b602080825260149082015273141bdbdb081b9bdd081a5b9a5d1a585b1a5e995960621b604082015260600190565b60006020828403121561281e57600080fd5b8151801515811461264757600080fd5b6020808252600c908201526b4e6f206c697175696469747960a01b604082015260600190565b60208082526010908201526f151bdad95b881a5cc8189b1bd8dad95960821b604082015260600190565b60208082526025908201527f4f6e6c79206f72646572626f6f6b2063616e2063616c6c20746869732066756e60408201526431ba34b7b760d91b606082015260800190565b6020808252601d908201527f416d6f756e74206d7573742062652067726561746572207468616e203000000060408201526060019056fea26469706673582212204eb89d8de286e0f375211faa8658685cae3945098123ccb624a7f43718db0e5864736f6c634300081a0033",
  "linkReferences": {},
  "deployedLinkReferences": {}
}