{
  "_format": "hh-sol-artifact-1",
  "contractName": "GradientMarketMakerPool",
  "sourceName": "contracts/GradientMarketMakerPool.sol",
  "abi": [
    {
      "inputs": [
        {
          "internalType": "contract IGradientRegistry",
          "name": "_gradientRegistry",
          "type": "address"
        }
      ],
      "stateMutability": "nonpayable",
      "type": "constructor"
    },
    {
      "inputs": [
        {
          "internalType": "address",
          "name": "owner",
          "type": "address"
        }
      ],
      "name": "OwnableInvalidOwner",
      "type": "error"
    },
    {
      "inputs": [
        {
          "internalType": "address",
          "name": "account",
          "type": "address"
        }
      ],
      "name": "OwnableUnauthorizedAccount",
      "type": "error"
    },
    {
      "inputs": [],
      "name": "ReentrancyGuardReentrantCall",
      "type": "error"
    },
    {
      "inputs": [
        {
          "internalType": "address",
          "name": "token",
          "type": "address"
        }
      ],
      "name": "SafeERC20FailedOperation",
      "type": "error"
    },
    {
      "anonymous": false,
      "inputs": [
        {
          "indexed": true,
          "internalType": "address",
          "name": "orderbook",
          "type": "address"
        },
        {
          "indexed": false,
          "internalType": "uint256",
          "name": "amount",
          "type": "uint256"
        },
        {
          "indexed": true,
          "internalType": "address",
          "name": "token",
          "type": "address"
        }
      ],
      "name": "ETHReceivedFromOrderbook",
      "type": "event"
    },
    {
      "anonymous": false,
      "inputs": [
        {
          "indexed": true,
          "internalType": "address",
          "name": "orderbook",
          "type": "address"
        },
        {
          "indexed": false,
          "internalType": "uint256",
          "name": "amount",
          "type": "uint256"
        },
        {
          "indexed": true,
          "internalType": "address",
          "name": "token",
          "type": "address"
        }
      ],
      "name": "ETHTransferredToOrderbook",
      "type": "event"
    },
    {
      "anonymous": false,
      "inputs": [
        {
          "indexed": true,
          "internalType": "address",
          "name": "user",
          "type": "address"
        },
        {
          "indexed": false,
          "internalType": "address",
          "name": "token",
          "type": "address"
        },
        {
          "indexed": false,
          "internalType": "uint256",
          "name": "ethAmount",
          "type": "uint256"
        },
        {
          "indexed": false,
          "internalType": "uint256",
          "name": "tokenAmount",
          "type": "uint256"
        },
        {
          "indexed": false,
          "internalType": "uint256",
          "name": "lpSharesMinted",
          "type": "uint256"
        }
      ],
      "name": "LiquidityDeposited",
      "type": "event"
    },
    {
      "anonymous": false,
      "inputs": [
        {
          "indexed": true,
          "internalType": "address",
          "name": "user",
          "type": "address"
        },
        {
          "indexed": false,
          "internalType": "uint256",
          "name": "tokenAmount",
          "type": "uint256"
        },
        {
          "indexed": false,
          "internalType": "uint256",
          "name": "ethAmount",
          "type": "uint256"
        },
        {
          "indexed": false,
          "internalType": "uint256",
          "name": "lpSharesBurned",
          "type": "uint256"
        }
      ],
      "name": "LiquidityWithdrawn",
      "type": "event"
    },
    {
      "anonymous": false,
      "inputs": [
        {
          "indexed": true,
          "internalType": "address",
          "name": "previousOwner",
          "type": "address"
        },
        {
          "indexed": true,
          "internalType": "address",
          "name": "newOwner",
          "type": "address"
        }
      ],
      "name": "OwnershipTransferred",
      "type": "event"
    },
    {
      "anonymous": false,
      "inputs": [
        {
          "indexed": true,
          "internalType": "address",
          "name": "token",
          "type": "address"
        },
        {
          "indexed": false,
          "internalType": "uint256",
          "name": "newTotalEth",
          "type": "uint256"
        },
        {
          "indexed": false,
          "internalType": "uint256",
          "name": "newTotalToken",
          "type": "uint256"
        },
        {
          "indexed": false,
          "internalType": "uint256",
          "name": "newTotalLiquidity",
          "type": "uint256"
        },
        {
          "indexed": false,
          "internalType": "uint256",
          "name": "newTotalLPShares",
          "type": "uint256"
        }
      ],
      "name": "PoolBalanceUpdated",
      "type": "event"
    },
    {
      "anonymous": false,
      "inputs": [
        {
          "indexed": true,
          "internalType": "address",
          "name": "user",
          "type": "address"
        },
        {
          "indexed": false,
          "internalType": "uint256",
          "name": "amount",
          "type": "uint256"
        }
      ],
      "name": "RewardClaimed",
      "type": "event"
    },
    {
      "anonymous": false,
      "inputs": [
        {
          "indexed": true,
          "internalType": "address",
          "name": "from",
          "type": "address"
        },
        {
          "indexed": false,
          "internalType": "uint256",
          "name": "amount",
          "type": "uint256"
        }
      ],
      "name": "RewardDeposited",
      "type": "event"
    },
    {
      "anonymous": false,
      "inputs": [
        {
          "indexed": true,
          "internalType": "address",
          "name": "orderbook",
          "type": "address"
        },
        {
          "indexed": true,
          "internalType": "address",
          "name": "token",
          "type": "address"
        },
        {
          "indexed": false,
          "internalType": "uint256",
          "name": "amount",
          "type": "uint256"
        }
      ],
      "name": "TokenReceivedFromOrderbook",
      "type": "event"
    },
    {
      "anonymous": false,
      "inputs": [
        {
          "indexed": true,
          "internalType": "address",
          "name": "orderbook",
          "type": "address"
        },
        {
          "indexed": true,
          "internalType": "address",
          "name": "token",
          "type": "address"
        },
        {
          "indexed": false,
          "internalType": "uint256",
          "name": "amount",
          "type": "uint256"
        }
      ],
      "name": "TokenTransferredToOrderbook",
      "type": "event"
    },
    {
      "inputs": [],
      "name": "SCALE",
      "outputs": [
        {
          "internalType": "uint256",
          "name": "",
          "type": "uint256"
        }
      ],
      "stateMutability": "view",
      "type": "function"
    },
    {
      "inputs": [
        {
          "internalType": "address",
          "name": "token",
          "type": "address"
        }
      ],
      "name": "claimReward",
      "outputs": [],
      "stateMutability": "nonpayable",
      "type": "function"
    },
    {
      "inputs": [
        {
          "internalType": "address[]",
          "name": "tokens",
          "type": "address[]"
        }
      ],
      "name": "emergencyWithdraw",
      "outputs": [],
      "stateMutability": "nonpayable",
      "type": "function"
    },
    {
      "inputs": [],
      "name": "emergencyWithdrawETH",
      "outputs": [],
      "stateMutability": "nonpayable",
      "type": "function"
    },
    {
      "inputs": [
        {
          "internalType": "address",
          "name": "token",
          "type": "address"
        }
      ],
      "name": "getPairAddress",
      "outputs": [
        {
          "internalType": "address",
          "name": "pairAddress",
          "type": "address"
        }
      ],
      "stateMutability": "view",
      "type": "function"
    },
    {
      "inputs": [
        {
          "internalType": "address",
          "name": "token",
          "type": "address"
        }
      ],
      "name": "getPoolInfo",
      "outputs": [
        {
          "components": [
            {
              "internalType": "uint256",
              "name": "totalEth",
              "type": "uint256"
            },
            {
              "internalType": "uint256",
              "name": "totalToken",
              "type": "uint256"
            },
            {
              "internalType": "uint256",
              "name": "totalLiquidity",
              "type": "uint256"
            },
            {
              "internalType": "uint256",
              "name": "totalLPShares",
              "type": "uint256"
            },
            {
              "internalType": "uint256",
              "name": "accountedEth",
              "type": "uint256"
            },
            {
              "internalType": "uint256",
              "name": "accountedToken",
              "type": "uint256"
            },
            {
              "internalType": "uint256",
              "name": "accRewardPerShare",
              "type": "uint256"
            },
            {
              "internalType": "uint256",
              "name": "rewardBalance",
              "type": "uint256"
            },
            {
              "internalType": "address",
              "name": "uniswapPair",
              "type": "address"
            }
          ],
          "internalType": "struct IGradientMarketMakerPool.PoolInfo",
          "name": "",
          "type": "tuple"
        }
      ],
      "stateMutability": "view",
      "type": "function"
    },
    {
      "inputs": [
        {
          "internalType": "address",
          "name": "token",
          "type": "address"
        }
      ],
      "name": "getReserves",
      "outputs": [
        {
          "internalType": "uint256",
          "name": "reserveETH",
          "type": "uint256"
        },
        {
          "internalType": "uint256",
          "name": "reserveToken",
          "type": "uint256"
        }
      ],
      "stateMutability": "view",
      "type": "function"
    },
    {
      "inputs": [
        {
          "internalType": "address",
          "name": "token",
          "type": "address"
        },
        {
          "internalType": "address",
          "name": "user",
          "type": "address"
        }
      ],
      "name": "getUserLPShares",
      "outputs": [
        {
          "internalType": "uint256",
          "name": "lpShares",
          "type": "uint256"
        }
      ],
      "stateMutability": "view",
      "type": "function"
    },
    {
      "inputs": [
        {
          "internalType": "address",
          "name": "token",
          "type": "address"
        },
        {
          "internalType": "address",
          "name": "user",
          "type": "address"
        }
      ],
      "name": "getUserSharePercentage",
      "outputs": [
        {
          "internalType": "uint256",
          "name": "sharePercentage",
          "type": "uint256"
        }
      ],
      "stateMutability": "view",
      "type": "function"
    },
    {
      "inputs": [],
      "name": "gradientRegistry",
      "outputs": [
        {
          "internalType": "contract IGradientRegistry",
          "name": "",
          "type": "address"
        }
      ],
      "stateMutability": "view",
      "type": "function"
    },
    {
      "inputs": [
        {
          "internalType": "address",
          "name": "",
          "type": "address"
        },
        {
          "internalType": "address",
          "name": "",
          "type": "address"
        }
      ],
      "name": "marketMakers",
      "outputs": [
        {
          "internalType": "uint256",
          "name": "tokenAmount",
          "type": "uint256"
        },
        {
          "internalType": "uint256",
          "name": "ethAmount",
          "type": "uint256"
        },
        {
          "internalType": "uint256",
          "name": "lpShares",
          "type": "uint256"
        },
        {
          "internalType": "uint256",
          "name": "rewardDebt",
          "type": "uint256"
        },
        {
          "internalType": "uint256",
          "name": "pendingReward",
          "type": "uint256"
        },
        {
          "internalType": "uint256",
          "name": "withdrawnEth",
          "type": "uint256"
        },
        {
          "internalType": "uint256",
          "name": "withdrawnTokens",
          "type": "uint256"
        }
      ],
      "stateMutability": "view",
      "type": "function"
    },
    {
      "inputs": [],
      "name": "owner",
      "outputs": [
        {
          "internalType": "address",
          "name": "",
          "type": "address"
        }
      ],
      "stateMutability": "view",
      "type": "function"
    },
    {
      "inputs": [
        {
          "internalType": "address",
          "name": "",
          "type": "address"
        }
      ],
      "name": "pools",
      "outputs": [
        {
          "internalType": "uint256",
          "name": "totalEth",
          "type": "uint256"
        },
        {
          "internalType": "uint256",
          "name": "totalToken",
          "type": "uint256"
        },
        {
          "internalType": "uint256",
          "name": "totalLiquidity",
          "type": "uint256"
        },
        {
          "internalType": "uint256",
          "name": "totalLPShares",
          "type": "uint256"
        },
        {
          "internalType": "uint256",
          "name": "accountedEth",
          "type": "uint256"
        },
        {
          "internalType": "uint256",
          "name": "accountedToken",
          "type": "uint256"
        },
        {
          "internalType": "uint256",
          "name": "accRewardPerShare",
          "type": "uint256"
        },
        {
          "internalType": "uint256",
          "name": "rewardBalance",
          "type": "uint256"
        },
        {
          "internalType": "address",
          "name": "uniswapPair",
          "type": "address"
        }
      ],
      "stateMutability": "view",
      "type": "function"
    },
    {
      "inputs": [
        {
          "internalType": "address",
          "name": "token",
          "type": "address"
        },
        {
          "internalType": "uint256",
          "name": "tokenAmount",
          "type": "uint256"
        },
        {
          "internalType": "uint256",
          "name": "minTokenAmount",
          "type": "uint256"
        }
      ],
      "name": "provideLiquidity",
      "outputs": [],
      "stateMutability": "payable",
      "type": "function"
    },
    {
      "inputs": [
        {
          "internalType": "address",
          "name": "token",
          "type": "address"
        },
        {
          "internalType": "uint256",
          "name": "amount",
          "type": "uint256"
        }
      ],
      "name": "receiveETHFromOrderbook",
      "outputs": [],
      "stateMutability": "payable",
      "type": "function"
    },
    {
      "inputs": [
        {
          "internalType": "address",
          "name": "token",
          "type": "address"
        }
      ],
      "name": "receiveFeeDistribution",
      "outputs": [],
      "stateMutability": "payable",
      "type": "function"
    },
    {
      "inputs": [
        {
          "internalType": "address",
          "name": "token",
          "type": "address"
        },
        {
          "internalType": "uint256",
          "name": "amount",
          "type": "uint256"
        }
      ],
      "name": "receiveTokenFromOrderbook",
      "outputs": [],
      "stateMutability": "nonpayable",
      "type": "function"
    },
    {
      "inputs": [],
      "name": "renounceOwnership",
      "outputs": [],
      "stateMutability": "nonpayable",
      "type": "function"
    },
    {
      "inputs": [
        {
          "internalType": "contract IGradientRegistry",
          "name": "_gradientRegistry",
          "type": "address"
        }
      ],
      "name": "setRegistry",
      "outputs": [],
      "stateMutability": "nonpayable",
      "type": "function"
    },
    {
      "inputs": [
        {
          "internalType": "address",
          "name": "token",
          "type": "address"
        },
        {
          "internalType": "uint256",
          "name": "amount",
          "type": "uint256"
        }
      ],
      "name": "transferETHToOrderbook",
      "outputs": [],
      "stateMutability": "nonpayable",
      "type": "function"
    },
    {
      "inputs": [
        {
          "internalType": "address",
          "name": "newOwner",
          "type": "address"
        }
      ],
      "name": "transferOwnership",
      "outputs": [],
      "stateMutability": "nonpayable",
      "type": "function"
    },
    {
      "inputs": [
        {
          "internalType": "address",
          "name": "token",
          "type": "address"
        },
        {
          "internalType": "uint256",
          "name": "amount",
          "type": "uint256"
        }
      ],
      "name": "transferTokenToOrderbook",
      "outputs": [],
      "stateMutability": "nonpayable",
      "type": "function"
    },
    {
      "inputs": [
        {
          "internalType": "address",
          "name": "token",
          "type": "address"
        },
        {
          "internalType": "uint256",
          "name": "shares",
          "type": "uint256"
        }
      ],
      "name": "withdrawLiquidity",
      "outputs": [],
      "stateMutability": "nonpayable",
      "type": "function"
    },
    {
      "stateMutability": "payable",
      "type": "receive"
    }
  ],
  "bytecode": "0x608060405234801561001057600080fd5b50604051612faf380380612faf83398101604081905261002f916100d8565b338061005557604051631e4fbdf760e01b81526000600482015260240160405180910390fd5b61005e81610088565b5060018055600280546001600160a01b0319166001600160a01b0392909216919091179055610108565b600080546001600160a01b038381166001600160a01b0319831681178455604051919092169283917f8be0079c531659141344cd1fd0a4f28419497f9722a3daafe3b4186f6b6457e09190a35050565b6000602082840312156100ea57600080fd5b81516001600160a01b038116811461010157600080fd5b9392505050565b612e98806101176000396000f3fe6080604052600436106101445760003560e01c806384536017116100b6578063adabfa051161006f578063adabfa05146104fe578063ae8b804d1461051e578063d279c1911461053e578063e706fad81461055e578063eced55261461057e578063f2fde38b1461059a57600080fd5b806384536017146103bb57806385e694b6146103d05780638a57fddd146103f05780638da5cb5b14610403578063a4063dbc14610421578063a91ee0dc146104de57600080fd5b806340a16e261161010857806340a16e2614610278578063576f44721461030d578063715018a6146103205780637e49b933146103355780637e7c7a9514610363578063830562bc1461038357600080fd5b806301c1dfba1461015057806306bfa9381461017257806306d47de9146102105780632bb9c958146102305780633e99c1e41461024357600080fd5b3661014b57005b600080fd5b34801561015c57600080fd5b5061017061016b366004612a73565b6105ba565b005b34801561017e57600080fd5b5061019261018d366004612aff565b61075a565b6040516102079190600061012082019050825182526020830151602083015260408301516040830152606083015160608301526080830151608083015260a083015160a083015260c083015160c083015260e083015160e083015260018060a01b036101008401511661010083015292915050565b60405180910390f35b34801561021c57600080fd5b5061017061022b366004612b23565b610838565b61017061023e366004612b4f565b610c95565b34801561024f57600080fd5b5061026361025e366004612aff565b611103565b60408051928352602083019190915201610207565b34801561028457600080fd5b506102d8610293366004612b84565b60046020818152600093845260408085209091529183529120805460018201546002830154600384015494840154600585015460069095015493959294919390919087565b604080519788526020880196909652948601939093526060850191909152608084015260a083015260c082015260e001610207565b61017061031b366004612aff565b611245565b34801561032c57600080fd5b5061017061144c565b34801561034157600080fd5b50610355610350366004612b84565b611460565b604051908152602001610207565b34801561036f57600080fd5b5061017061037e366004612b23565b611490565b34801561038f57600080fd5b506002546103a3906001600160a01b031681565b6040516001600160a01b039091168152602001610207565b3480156103c757600080fd5b50610170611836565b3480156103dc57600080fd5b506103a36103eb366004612aff565b6118e3565b6101706103fe366004612b23565b611af7565b34801561040f57600080fd5b506000546001600160a01b03166103a3565b34801561042d57600080fd5b5061049161043c366004612aff565b600360208190526000918252604090912080546001820154600283015493830154600484015460058501546006860154600787015460089097015495979496949593949293919290916001600160a01b031689565b60408051998a5260208a0198909852968801959095526060870193909352608086019190915260a085015260c084015260e08301526001600160a01b031661010082015261012001610207565b3480156104ea57600080fd5b506101706104f9366004612aff565b611e14565b34801561050a57600080fd5b50610170610519366004612b23565b611f01565b34801561052a57600080fd5b50610355610539366004612b84565b6121a6565b34801561054a57600080fd5b50610170610559366004612aff565b612215565b34801561056a57600080fd5b50610170610579366004612b23565b612413565b34801561058a57600080fd5b50610355670de0b6b3a764000081565b3480156105a657600080fd5b506101706105b5366004612aff565b61272d565b6105c2612768565b47801561066b57600080546040516001600160a01b039091169083908381818185875af1925050503d8060008114610616576040519150601f19603f3d011682016040523d82523d6000602084013e61061b565b606091505b50509050806106695760405162461bcd60e51b8152602060048201526015602482015274115512081dda5d1a191c985dd85b0819985a5b1959605a1b60448201526064015b60405180910390fd5b505b60005b8281101561075457600084848381811061068a5761068a612bbd565b905060200201602081019061069f9190612aff565b90506001600160a01b0381161561074b576040516370a0823160e01b81523060048201526000906001600160a01b038316906370a0823190602401602060405180830381865afa1580156106f7573d6000803e3d6000fd5b505050506040513d601f19601f8201168201806040525081019061071b9190612bd3565b90508015610749576107496107386000546001600160a01b031690565b6001600160a01b0384169083612795565b505b5060010161066e565b50505050565b6107b2604051806101200160405280600081526020016000815260200160008152602001600081526020016000815260200160008152602001600081526020016000815260200160006001600160a01b031681525090565b506001600160a01b039081166000908152600360208181526040928390208351610120810185528154815260018201549281019290925260028101549382019390935290820154606082015260048201546080820152600582015460a0820152600682015460c0820152600782015460e082015260089091015490911661010082015290565b6108406127f4565b6001600160a01b038216600090815260036020908152604080832060048352818420338552909252909120821580159061087c57506127108311155b6108c85760405162461bcd60e51b815260206004820152601960248201527f496e76616c6964207368617265732070657263656e74616765000000000000006044820152606401610660565b60008260020154116109135760405162461bcd60e51b8152602060048201526014602482015273139bc81b1a5c5d5a591a5d1e481a5b881c1bdbdb60621b6044820152606401610660565b6001810154815460009161092691612c02565b9050600081116109785760405162461bcd60e51b815260206004820152601860248201527f4e6f206c697175696469747920746f20776974686472617700000000000000006044820152606401610660565b60008260030154670de0b6b3a76400008560060154856002015461099c9190612c15565b6109a69190612c2c565b6109b09190612c4e565b9050808360040160008282546109c69190612c02565b9250508190555060006127108685600201546109e29190612c15565b6109ec9190612c2c565b905060008111610a325760405162461bcd60e51b815260206004820152601160248201527027379039b430b932b9903a3790313ab93760791b6044820152606401610660565b60008560030154828760010154610a499190612c15565b610a539190612c2c565b905060008660030154838860000154610a6c9190612c15565b610a769190612c2c565b905081866006016000828254610a8c9190612c02565b9250508190555080866005016000828254610aa79190612c02565b9250508190555082866002016000828254610ac29190612c4e565b90915550610ad290508183612c02565b876002016000828254610ae59190612c4e565b9250508190555081876001016000828254610b009190612c4e565b9091555050865481908890600090610b19908490612c4e565b9250508190555082876003016000828254610b349190612c4e565b9250508190555080876004016000828254610b4f9190612c4e565b9250508190555081876005016000828254610b6a9190612c4e565b909155505060068701546002870154670de0b6b3a764000091610b8c91612c15565b610b969190612c2c565b6003870155610baf6001600160a01b038a163384612795565b604051600090339083908381818185875af1925050503d8060008114610bf1576040519150601f19603f3d011682016040523d82523d6000602084013e610bf6565b606091505b5050905080610c3d5760405162461bcd60e51b8152602060048201526013602482015272115512081d1c985b9cd9995c8819985a5b1959606a1b6044820152606401610660565b604080518481526020810184905290810185905233907f9746cd459b192e14d25047ee6f0c763709fc38435eb4883830cf715de0a40ac09060600160405180910390a25050505050505050610c9160018055565b5050565b610c9d6127f4565b6001600160a01b0380841660009081526003602052604090206008810154909116610cee57610ccb846118e3565b6008820180546001600160a01b0319166001600160a01b03929092169190911790555b60088101546001600160a01b0316610d185760405162461bcd60e51b815260040161066090612c61565b600080610d2486611103565b91509150600082118015610d385750600081115b610d935760405162461bcd60e51b815260206004820152602660248201527f496e73756666696369656e74206c697175696469747920696e20556e6973776160448201526538103830b4b960d11b6064820152608401610660565b600082610da08334612c15565b610daa9190612c2c565b905084861015610df05760405162461bcd60e51b81526020600482015260116024820152700a6d8d2e0e0c2ceca40e8dede40d0d2ced607b1b6044820152606401610660565b6064610dfd826063612c15565b610e079190612c2c565b8610158015610e2c57506064610e1e826065612c15565b610e289190612c2c565b8611155b610e785760405162461bcd60e51b815260206004820152601760248201527f496e76616c6964206c697175696469747920726174696f0000000000000000006044820152606401610660565b610e8d6001600160a01b03881633308961281e565b6001600160a01b0387166000908152600460209081526040808320338452909152812060018101548154919291610ec49190612c02565b90508015610f215760008260030154670de0b6b3a764000088600601548560020154610ef09190612c15565b610efa9190612c2c565b610f049190612c4e565b905080836004016000828254610f1a9190612c02565b9091555050505b600080610f2e348b612c02565b9050600088600501548960040154610f469190612c02565b90508860030154600003610f5c57819250610f7a565b80896003015483610f6d9190612c15565b610f779190612c2c565b92505b82856002016000828254610f8e9190612c02565b9250508190555034856001016000828254610fa99190612c02565b909155505084548b908690600090610fc2908490612c02565b909155505060068901546002860154670de0b6b3a764000091610fe491612c15565b610fee9190612c2c565b6003860155610ffd348c612c02565b8960020160008282546110109190612c02565b9091555050885434908a90600090611029908490612c02565b925050819055508a8960010160008282546110449190612c02565b925050819055503489600401600082825461105f9190612c02565b925050819055508a89600501600082825461107a9190612c02565b92505081905550828960030160008282546110959190612c02565b9091555050604080516001600160a01b038e1681523460208201529081018c90526060810184905233907f76eb95a037bfb0d0de0d9534dc6b6c0be4c3c7b9f6e31fd4d34d2339de6dbcd89060800160405180910390a25050505050505050506110fe60018055565b505050565b6000806000611111846118e3565b90506001600160a01b0381166111395760405162461bcd60e51b815260040161066090612c61565b600080826001600160a01b0316630902f1ac6040518163ffffffff1660e01b8152600401606060405180830381865afa15801561117a573d6000803e3d6000fd5b505050506040513d601f19601f8201168201806040525081019061119e9190612caa565b50915091506000836001600160a01b0316630dfe16816040518163ffffffff1660e01b8152600401602060405180830381865afa1580156111e3573d6000803e3d6000fd5b505050506040513d601f19601f820116820180604052508101906112079190612cfa565b9050866001600160a01b0316816001600160a01b03161461122957828261122c565b81835b6001600160701b03918216999116975095505050505050565b806000611251826118e3565b90506001600160a01b0381166112795760405162461bcd60e51b815260040161066090612c61565b6001600160a01b03828116600090815260036020526040902060080154166112b35760405162461bcd60e51b815260040161066090612d17565b6002546040516316ed852560e01b81523360048201526001600160a01b03909116906316ed852590602401602060405180830381865afa1580156112fb573d6000803e3d6000fd5b505050506040513d601f19601f8201168201806040525081019061131f9190612d45565b6113825760405162461bcd60e51b815260206004820152602e60248201527f4f6e6c7920726577617264206469737472696275746f722063616e2063616c6c60448201526d103a3434b990333ab731ba34b7b760911b6064820152608401610660565b6001600160a01b038316600090815260036020526040902060028101546113bb5760405162461bcd60e51b815260040161066090612d67565b600034116113f95760405162461bcd60e51b815260206004820152600b60248201526a139bc8115512081cd95b9d60aa1b6044820152606401610660565b6114038434612857565b836001600160a01b03167f7dbc080e4530c8bcf265eb5c9a35ae096ca1eb607b7e802b96581ef4c5e1a7033460405161143e91815260200190565b60405180910390a250505050565b611454612768565b61145e60006129b2565b565b6001600160a01b038083166000908152600460209081526040808320938516835292905220600201545b92915050565b600254604051630736b32b60e31b81526001600160a01b038085166004830152849216906339b5995890602401602060405180830381865afa1580156114da573d6000803e3d6000fd5b505050506040513d601f19601f820116820180604052508101906114fe9190612d45565b1561151b5760405162461bcd60e51b815260040161066090612d8d565b826000611527826118e3565b90506001600160a01b03811661154f5760405162461bcd60e51b815260040161066090612c61565b6001600160a01b03828116600090815260036020526040902060080154166115895760405162461bcd60e51b815260040161066090612d17565b600260009054906101000a90046001600160a01b03166001600160a01b031663c18b1d5e6040518163ffffffff1660e01b8152600401602060405180830381865afa1580156115dc573d6000803e3d6000fd5b505050506040513d601f19601f820116820180604052508101906116009190612cfa565b6001600160a01b0316336001600160a01b0316146116305760405162461bcd60e51b815260040161066090612db7565b600084116116505760405162461bcd60e51b815260040161066090612dfc565b6001600160a01b0385166116765760405162461bcd60e51b815260040161066090612e33565b6001600160a01b038516600090815260036020526040902060028101546116af5760405162461bcd60e51b815260040161066090612d67565b80548511156117005760405162461bcd60e51b815260206004820152601d60248201527f496e73756666696369656e7420706f6f6c204554482062616c616e63650000006044820152606401610660565b848160000160008282546117149190612c4e565b925050819055508481600201600082825461172f9190612c4e565b9091555050604051600090339087908381818185875af1925050503d8060008114611776576040519150601f19603f3d011682016040523d82523d6000602084013e61177b565b606091505b50509050806117cc5760405162461bcd60e51b815260206004820181905260248201527f455448207472616e7366657220746f206f72646572626f6f6b206661696c65646044820152606401610660565b81546001830154600284015460038501546040805194855260208501939093529183015260608201526001600160a01b038816907fe7a1849d3d3b81e99267b68a3889d2f466ac59697fa69ed9f94d306737f6ecd89060800160405180910390a250505050505050565b61183e612768565b4780156118e057600080546040516001600160a01b039091169083908381818185875af1925050503d8060008114611892576040519150601f19603f3d011682016040523d82523d6000602084013e611897565b606091505b5050905080610c915760405162461bcd60e51b8152602060048201526015602482015274115512081dda5d1a191c985dd85b0819985a5b1959605a1b6044820152606401610660565b50565b600080600260009054906101000a90046001600160a01b03166001600160a01b031663f887ea406040518163ffffffff1660e01b8152600401602060405180830381865afa158015611939573d6000803e3d6000fd5b505050506040513d601f19601f8201168201806040525081019061195d9190612cfa565b90506001600160a01b0381166119a65760405162461bcd60e51b815260206004820152600e60248201526d149bdd5d195c881b9bdd081cd95d60921b6044820152606401610660565b60008190506000816001600160a01b031663c45a01556040518163ffffffff1660e01b8152600401602060405180830381865afa1580156119eb573d6000803e3d6000fd5b505050506040513d601f19601f82011682018060405250810190611a0f9190612cfa565b90506000826001600160a01b031663ad5c46486040518163ffffffff1660e01b8152600401602060405180830381865afa158015611a51573d6000803e3d6000fd5b505050506040513d601f19601f82011682018060405250810190611a759190612cfa565b60405163e6a4390560e01b81526001600160a01b0388811660048301528083166024830152919250839182169063e6a4390590604401602060405180830381865afa158015611ac8573d6000803e3d6000fd5b505050506040513d601f19601f82011682018060405250810190611aec9190612cfa565b979650505050505050565b600254604051630736b32b60e31b81526001600160a01b038085166004830152849216906339b5995890602401602060405180830381865afa158015611b41573d6000803e3d6000fd5b505050506040513d601f19601f82011682018060405250810190611b659190612d45565b15611b825760405162461bcd60e51b815260040161066090612d8d565b826000611b8e826118e3565b90506001600160a01b038116611bb65760405162461bcd60e51b815260040161066090612c61565b6001600160a01b0382811660009081526003602052604090206008015416611bf05760405162461bcd60e51b815260040161066090612d17565b600260009054906101000a90046001600160a01b03166001600160a01b031663c18b1d5e6040518163ffffffff1660e01b8152600401602060405180830381865afa158015611c43573d6000803e3d6000fd5b505050506040513d601f19601f82011682018060405250810190611c679190612cfa565b6001600160a01b0316336001600160a01b031614611c975760405162461bcd60e51b815260040161066090612db7565b60008411611cb75760405162461bcd60e51b815260040161066090612dfc565b833414611cfc5760405162461bcd60e51b815260206004820152601360248201527208aa89040c2dadeeadce840dad2e6dac2e8c6d606b1b6044820152606401610660565b6001600160a01b03851660009081526003602052604090206002810154611d355760405162461bcd60e51b815260040161066090612d67565b84816000016000828254611d499190612c02565b9250508190555084816002016000828254611d649190612c02565b90915550506040518581526001600160a01b0387169033907fa83dbe67a8301965c2dd933c3feb89cae1783e4a8825466fd979d121f3f7ef69906020015b60405180910390a380546001820154600283015460038401546040805194855260208501939093529183015260608201526001600160a01b038716907fe7a1849d3d3b81e99267b68a3889d2f466ac59697fa69ed9f94d306737f6ecd8906080015b60405180910390a2505050505050565b611e1c612768565b60006001600160a01b0316816001600160a01b0316634513443a6040518163ffffffff1660e01b8152600401602060405180830381865afa158015611e65573d6000803e3d6000fd5b505050506040513d601f19601f82011682018060405250810190611e899190612cfa565b6001600160a01b031603611edf5760405162461bcd60e51b815260206004820152601960248201527f496e76616c6964206772616469656e74207265676973747279000000000000006044820152606401610660565b600280546001600160a01b0319166001600160a01b0392909216919091179055565b600254604051630736b32b60e31b81526001600160a01b038085166004830152849216906339b5995890602401602060405180830381865afa158015611f4b573d6000803e3d6000fd5b505050506040513d601f19601f82011682018060405250810190611f6f9190612d45565b15611f8c5760405162461bcd60e51b815260040161066090612d8d565b826000611f98826118e3565b90506001600160a01b038116611fc05760405162461bcd60e51b815260040161066090612c61565b6001600160a01b0382811660009081526003602052604090206008015416611ffa5760405162461bcd60e51b815260040161066090612d17565b600260009054906101000a90046001600160a01b03166001600160a01b031663c18b1d5e6040518163ffffffff1660e01b8152600401602060405180830381865afa15801561204d573d6000803e3d6000fd5b505050506040513d601f19601f820116820180604052508101906120719190612cfa565b6001600160a01b0316336001600160a01b0316146120a15760405162461bcd60e51b815260040161066090612db7565b600084116120c15760405162461bcd60e51b815260040161066090612dfc565b6001600160a01b0385166120e75760405162461bcd60e51b815260040161066090612e33565b6001600160a01b038516600090815260036020526040902060028101546121205760405162461bcd60e51b815260040161066090612d67565b6121356001600160a01b03871633308861281e565b848160010160008282546121499190612c02565b92505081905550848160020160008282546121649190612c02565b90915550506040518581526001600160a01b0387169033907fb61579a10a10e72eda8e63b6e1224e007f5c4108c1378c9a831a11363a74b75a90602001611da2565b6001600160a01b0380831660009081526003602081815260408084206004835281852095871685529490915282209083015491929183036121ec5760009250505061148a565b6003820154600282015461220290612710612c15565b61220c9190612c2c565b95945050505050565b61221d6127f4565b6001600160a01b038116600090815260036020908152604080832060048352818420338552909252909120600281015415158061225e575060008160040154115b6122aa5760405162461bcd60e51b815260206004820152601760248201527f4e6f206c6971756964697479206f7220726577617264730000000000000000006044820152606401610660565b6000670de0b6b3a7640000836006015483600201546122c99190612c15565b6122d39190612c2c565b9050600082600401548360030154836122ec9190612c4e565b6122f69190612c02565b9050600081116123355760405162461bcd60e51b815260206004820152600a6024820152694e6f207265776172647360b01b6044820152606401610660565b60038301829055600060048401819055604051339083908381818185875af1925050503d8060008114612384576040519150601f19603f3d011682016040523d82523d6000602084013e612389565b606091505b50509050806123d05760405162461bcd60e51b8152602060048201526013602482015272115512081d1c985b9cd9995c8819985a5b1959606a1b6044820152606401610660565b60405182815233907f106f923f993c2149d49b4255ff723acafa1f2d94393f561d3eda32ae348f72419060200160405180910390a250505050506118e060018055565b600254604051630736b32b60e31b81526001600160a01b038085166004830152849216906339b5995890602401602060405180830381865afa15801561245d573d6000803e3d6000fd5b505050506040513d601f19601f820116820180604052508101906124819190612d45565b1561249e5760405162461bcd60e51b815260040161066090612d8d565b8260006124aa826118e3565b90506001600160a01b0381166124d25760405162461bcd60e51b815260040161066090612c61565b6001600160a01b038281166000908152600360205260409020600801541661250c5760405162461bcd60e51b815260040161066090612d17565b600260009054906101000a90046001600160a01b03166001600160a01b031663c18b1d5e6040518163ffffffff1660e01b8152600401602060405180830381865afa15801561255f573d6000803e3d6000fd5b505050506040513d601f19601f820116820180604052508101906125839190612cfa565b6001600160a01b0316336001600160a01b0316146125b35760405162461bcd60e51b815260040161066090612db7565b600084116125d35760405162461bcd60e51b815260040161066090612dfc565b6001600160a01b0385166125f95760405162461bcd60e51b815260040161066090612e33565b6001600160a01b038516600090815260036020526040902060028101546126325760405162461bcd60e51b815260040161066090612d67565b84816001015410156126865760405162461bcd60e51b815260206004820152601f60248201527f496e73756666696369656e7420706f6f6c20746f6b656e2062616c616e6365006044820152606401610660565b8481600101600082825461269a9190612c4e565b92505081905550848160020160008282546126b59190612c4e565b909155506126cf90506001600160a01b0387163387612795565b80546001820154600283015460038401546040805194855260208501939093529183015260608201526001600160a01b038716907fe7a1849d3d3b81e99267b68a3889d2f466ac59697fa69ed9f94d306737f6ecd890608001611e04565b612735612768565b6001600160a01b03811661275f57604051631e4fbdf760e01b815260006004820152602401610660565b6118e0816129b2565b6000546001600160a01b0316331461145e5760405163118cdaa760e01b8152336004820152602401610660565b6040516001600160a01b038381166024830152604482018390526110fe91859182169063a9059cbb906064015b604051602081830303815290604052915060e01b6020820180516001600160e01b038381831617835250505050612a02565b60026001540361281757604051633ee5aeb560e01b815260040160405180910390fd5b6002600155565b6040516001600160a01b0384811660248301528381166044830152606482018390526107549186918216906323b872dd906084016127c2565b600081116128b15760405162461bcd60e51b815260206004820152602160248201527f45544820616d6f756e74206d7573742062652067726561746572207468616e206044820152600360fc1b6064820152608401610660565b6001600160a01b0382166128d75760405162461bcd60e51b815260040161066090612e33565b6001600160a01b038216600090815260036020819052604082209081015490910361290157505050565b600381015460009061291b670de0b6b3a764000085612c15565b6129259190612c2c565b82600601546129349190612c02565b9050816006015481101561298a5760405162461bcd60e51b815260206004820152601e60248201527f4f766572666c6f7720696e207265776172642063616c63756c6174696f6e00006044820152606401610660565b808260060181905550828260070160008282546129a79190612c02565b909155505050505050565b600080546001600160a01b038381166001600160a01b0319831681178455604051919092169283917f8be0079c531659141344cd1fd0a4f28419497f9722a3daafe3b4186f6b6457e09190a35050565b600080602060008451602086016000885af180612a25576040513d6000823e3d81fd5b50506000513d91508115612a3d578060011415612a4a565b6001600160a01b0384163b155b1561075457604051635274afe760e01b81526001600160a01b0385166004820152602401610660565b60008060208385031215612a8657600080fd5b823567ffffffffffffffff811115612a9d57600080fd5b8301601f81018513612aae57600080fd5b803567ffffffffffffffff811115612ac557600080fd5b8560208260051b8401011115612ada57600080fd5b6020919091019590945092505050565b6001600160a01b03811681146118e057600080fd5b600060208284031215612b1157600080fd5b8135612b1c81612aea565b9392505050565b60008060408385031215612b3657600080fd5b8235612b4181612aea565b946020939093013593505050565b600080600060608486031215612b6457600080fd5b8335612b6f81612aea565b95602085013595506040909401359392505050565b60008060408385031215612b9757600080fd5b8235612ba281612aea565b91506020830135612bb281612aea565b809150509250929050565b634e487b7160e01b600052603260045260246000fd5b600060208284031215612be557600080fd5b5051919050565b634e487b7160e01b600052601160045260246000fd5b8082018082111561148a5761148a612bec565b808202811582820484141761148a5761148a612bec565b600082612c4957634e487b7160e01b600052601260045260246000fd5b500490565b8181038181111561148a5761148a612bec565b60208082526013908201527214185a5c88191bd95cc81b9bdd08195e1a5cdd606a1b604082015260600190565b80516001600160701b0381168114612ca557600080fd5b919050565b600080600060608486031215612cbf57600080fd5b612cc884612c8e565b9250612cd660208501612c8e565b9150604084015163ffffffff81168114612cef57600080fd5b809150509250925092565b600060208284031215612d0c57600080fd5b8151612b1c81612aea565b602080825260149082015273141bdbdb081b9bdd081a5b9a5d1a585b1a5e995960621b604082015260600190565b600060208284031215612d5757600080fd5b81518015158114612b1c57600080fd5b6020808252600c908201526b4e6f206c697175696469747960a01b604082015260600190565b60208082526010908201526f151bdad95b881a5cc8189b1bd8dad95960821b604082015260600190565b60208082526025908201527f4f6e6c79206f72646572626f6f6b2063616e2063616c6c20746869732066756e60408201526431ba34b7b760d91b606082015260800190565b6020808252601d908201527f416d6f756e74206d7573742062652067726561746572207468616e2030000000604082015260600190565b602080825260159082015274496e76616c696420746f6b656e206164647265737360581b60408201526060019056fea2646970667358221220a70798a312e1564e43796d760df6630b0547ced2ebf207c7995d1d95262487e264736f6c634300081a0033",
  "linkReferences": {},
  "deployedLinkReferences": {}
}