{
  "_format": "hh-sol-artifact-1",
  "contractName": "FallbackExecutor",
  "sourceName": "contracts/FallbackExecutor.sol",
  "abi": [
    {
      "inputs": [],
      "stateMutability": "nonpayable",
      "type": "constructor"
    },
    {
      "inputs": [
        {
          "internalType": "address",
          "name": "owner",
          "type": "address"
        }
      ],
      "name": "OwnableInvalidOwner",
      "type": "error"
    },
    {
      "inputs": [
        {
          "internalType": "address",
          "name": "account",
          "type": "address"
        }
      ],
      "name": "OwnableUnauthorizedAccount",
      "type": "error"
    },
    {
      "inputs": [],
      "name": "ReentrancyGuardReentrantCall",
      "type": "error"
    },
    {
      "inputs": [
        {
          "internalType": "address",
          "name": "token",
          "type": "address"
        }
      ],
      "name": "SafeERC20FailedOperation",
      "type": "error"
    },
    {
      "anonymous": false,
      "inputs": [
        {
          "indexed": true,
          "internalType": "address",
          "name": "dex",
          "type": "address"
        },
        {
          "indexed": false,
          "internalType": "address",
          "name": "router",
          "type": "address"
        },
        {
          "indexed": false,
          "internalType": "address",
          "name": "factory",
          "type": "address"
        }
      ],
      "name": "DEXAdded",
      "type": "event"
    },
    {
      "anonymous": false,
      "inputs": [
        {
          "indexed": true,
          "internalType": "address",
          "name": "dex",
          "type": "address"
        }
      ],
      "name": "DEXRemoved",
      "type": "event"
    },
    {
      "anonymous": false,
      "inputs": [
        {
          "indexed": true,
          "internalType": "address",
          "name": "previousOwner",
          "type": "address"
        },
        {
          "indexed": true,
          "internalType": "address",
          "name": "newOwner",
          "type": "address"
        }
      ],
      "name": "OwnershipTransferred",
      "type": "event"
    },
    {
      "anonymous": false,
      "inputs": [
        {
          "indexed": false,
          "internalType": "uint256",
          "name": "newSlippage",
          "type": "uint256"
        }
      ],
      "name": "SlippageUpdated",
      "type": "event"
    },
    {
      "anonymous": false,
      "inputs": [
        {
          "indexed": true,
          "internalType": "address",
          "name": "token",
          "type": "address"
        },
        {
          "indexed": false,
          "internalType": "uint256",
          "name": "minAmount",
          "type": "uint256"
        },
        {
          "indexed": false,
          "internalType": "uint256",
          "name": "maxAmount",
          "type": "uint256"
        }
      ],
      "name": "TokenAdded",
      "type": "event"
    },
    {
      "anonymous": false,
      "inputs": [
        {
          "indexed": true,
          "internalType": "address",
          "name": "token",
          "type": "address"
        }
      ],
      "name": "TokenRemoved",
      "type": "event"
    },
    {
      "anonymous": false,
      "inputs": [
        {
          "indexed": true,
          "internalType": "address",
          "name": "token",
          "type": "address"
        },
        {
          "indexed": true,
          "internalType": "address",
          "name": "dex",
          "type": "address"
        },
        {
          "indexed": false,
          "internalType": "uint256",
          "name": "amountIn",
          "type": "uint256"
        },
        {
          "indexed": false,
          "internalType": "bool",
          "name": "isBuy",
          "type": "bool"
        }
      ],
      "name": "TradeExecuted",
      "type": "event"
    },
    {
      "inputs": [],
      "name": "BASIS_POINTS",
      "outputs": [
        {
          "internalType": "uint256",
          "name": "",
          "type": "uint256"
        }
      ],
      "stateMutability": "view",
      "type": "function"
    },
    {
      "inputs": [],
      "name": "MAX_SLIPPAGE",
      "outputs": [
        {
          "internalType": "uint256",
          "name": "",
          "type": "uint256"
        }
      ],
      "stateMutability": "view",
      "type": "function"
    },
    {
      "inputs": [
        {
          "internalType": "uint256",
          "name": "",
          "type": "uint256"
        }
      ],
      "name": "activeDEXes",
      "outputs": [
        {
          "internalType": "address",
          "name": "",
          "type": "address"
        }
      ],
      "stateMutability": "view",
      "type": "function"
    },
    {
      "inputs": [
        {
          "internalType": "address",
          "name": "dex",
          "type": "address"
        },
        {
          "internalType": "address",
          "name": "router",
          "type": "address"
        },
        {
          "internalType": "address",
          "name": "factory",
          "type": "address"
        },
        {
          "internalType": "uint256",
          "name": "priority",
          "type": "uint256"
        }
      ],
      "name": "addDEX",
      "outputs": [],
      "stateMutability": "nonpayable",
      "type": "function"
    },
    {
      "inputs": [
        {
          "internalType": "address",
          "name": "token",
          "type": "address"
        },
        {
          "internalType": "uint256",
          "name": "minAmount",
          "type": "uint256"
        },
        {
          "internalType": "uint256",
          "name": "maxAmount",
          "type": "uint256"
        },
        {
          "internalType": "address[]",
          "name": "preferredDEXes",
          "type": "address[]"
        }
      ],
      "name": "addToken",
      "outputs": [],
      "stateMutability": "nonpayable",
      "type": "function"
    },
    {
      "inputs": [
        {
          "internalType": "address",
          "name": "",
          "type": "address"
        }
      ],
      "name": "dexes",
      "outputs": [
        {
          "internalType": "address",
          "name": "router",
          "type": "address"
        },
        {
          "internalType": "address",
          "name": "factory",
          "type": "address"
        },
        {
          "internalType": "bool",
          "name": "isActive",
          "type": "bool"
        },
        {
          "internalType": "uint256",
          "name": "priority",
          "type": "uint256"
        }
      ],
      "stateMutability": "view",
      "type": "function"
    },
    {
      "inputs": [
        {
          "internalType": "address",
          "name": "token",
          "type": "address"
        },
        {
          "internalType": "uint256",
          "name": "amount",
          "type": "uint256"
        },
        {
          "internalType": "uint256",
          "name": "minAmountOut",
          "type": "uint256"
        },
        {
          "internalType": "bool",
          "name": "isBuy",
          "type": "bool"
        }
      ],
      "name": "executeTrade",
      "outputs": [],
      "stateMutability": "nonpayable",
      "type": "function"
    },
    {
      "inputs": [],
      "name": "owner",
      "outputs": [
        {
          "internalType": "address",
          "name": "",
          "type": "address"
        }
      ],
      "stateMutability": "view",
      "type": "function"
    },
    {
      "inputs": [
        {
          "internalType": "address",
          "name": "dex",
          "type": "address"
        }
      ],
      "name": "removeDEX",
      "outputs": [],
      "stateMutability": "nonpayable",
      "type": "function"
    },
    {
      "inputs": [
        {
          "internalType": "address",
          "name": "token",
          "type": "address"
        }
      ],
      "name": "removeToken",
      "outputs": [],
      "stateMutability": "nonpayable",
      "type": "function"
    },
    {
      "inputs": [],
      "name": "renounceOwnership",
      "outputs": [],
      "stateMutability": "nonpayable",
      "type": "function"
    },
    {
      "inputs": [
        {
          "internalType": "address",
          "name": "",
          "type": "address"
        }
      ],
      "name": "supportedTokens",
      "outputs": [
        {
          "internalType": "bool",
          "name": "isSupported",
          "type": "bool"
        },
        {
          "internalType": "uint256",
          "name": "minAmount",
          "type": "uint256"
        },
        {
          "internalType": "uint256",
          "name": "maxAmount",
          "type": "uint256"
        }
      ],
      "stateMutability": "view",
      "type": "function"
    },
    {
      "inputs": [
        {
          "internalType": "address",
          "name": "newOwner",
          "type": "address"
        }
      ],
      "name": "transferOwnership",
      "outputs": [],
      "stateMutability": "nonpayable",
      "type": "function"
    },
    {
      "stateMutability": "payable",
      "type": "receive"
    }
  ],
  "bytecode": "0x6080604052348015600f57600080fd5b5060016000553380603a57604051631e4fbdf760e01b81526000600482015260240160405180910390fd5b6041816046565b506098565b600180546001600160a01b038381166001600160a01b0319831681179093556040519116919082907f8be0079c531659141344cd1fd0a4f28419497f9722a3daafe3b4186f6b6457e090600090a35050565b611928806100a76000396000f3fe6080604052600436106100c65760003560e01c80638da5cb5b1161007f578063e704d6c411610059578063e704d6c4146102ab578063f2fde38b146102cb578063f34d3716146102eb578063f97595181461030b57600080fd5b80638da5cb5b146101e3578063a7ca71ca14610201578063e1f1c4a71461028757600080fd5b80634fc65751146100d25780635fa7b5841461010f57806368c4ac2614610131578063715018a61461018e578063815a1a0d146101a35780638c8f3f82146101c357600080fd5b366100cd57005b600080fd5b3480156100de57600080fd5b506100f26100ed366004611599565b610321565b6040516001600160a01b0390911681526020015b60405180910390f35b34801561011b57600080fd5b5061012f61012a3660046115c7565b61034b565b005b34801561013d57600080fd5b5061017161014c3660046115c7565b60036020526000908152604090208054600182015460029092015460ff909116919083565b604080519315158452602084019290925290820152606001610106565b34801561019a57600080fd5b5061012f610417565b3480156101af57600080fd5b5061012f6101be3660046115f2565b61042b565b3480156101cf57600080fd5b5061012f6101de3660046115c7565b6108a0565b3480156101ef57600080fd5b506001546001600160a01b03166100f2565b34801561020d57600080fd5b5061025661021c3660046115c7565b60026020819052600091825260409091208054600182015491909201546001600160a01b0392831692821691600160a01b900460ff169084565b604080516001600160a01b039586168152949093166020850152901515918301919091526060820152608001610106565b34801561029357600080fd5b5061029d61271081565b604051908152602001610106565b3480156102b757600080fd5b5061012f6102c636600461163c565b610a64565b3480156102d757600080fd5b5061012f6102e63660046115c7565b610cbf565b3480156102f757600080fd5b5061012f61030636600461168d565b610cfd565b34801561031757600080fd5b5061029d6103e881565b6004818154811061033157600080fd5b6000918252602090912001546001600160a01b0316905081565b610353610f82565b6001600160a01b03811660009081526003602052604090205460ff166103b25760405162461bcd60e51b815260206004820152600f60248201526e151bdad95b881b9bdd08199bdd5b99608a1b60448201526064015b60405180910390fd5b6001600160a01b03811660009081526003602081905260408220805460ff191681556103e092910190611501565b6040516001600160a01b038216907f4c910b69fe65a61f7531b9c5042b2329ca7179c77290aa7e2eb3afa3c8511fd390600090a250565b61041f610f82565b6104296000610faf565b565b610433611001565b6001600160a01b03841660009081526003602052604090205460ff166104915760405162461bcd60e51b8152602060048201526013602482015272151bdad95b881b9bdd081cdd5c1c1bdc9d1959606a1b60448201526064016103a9565b6001600160a01b0384166000908152600360205260409020600101548310156104ef5760405162461bcd60e51b815260206004820152601060248201526f10995b1bddc81b5a5b88185b5bdd5b9d60821b60448201526064016103a9565b6001600160a01b03841660009081526003602052604090206002015483111561054d5760405162461bcd60e51b815260206004820152601060248201526f10589bdd99481b585e08185b5bdd5b9d60821b60448201526064016103a9565b600061055a85858461102b565b90506001600160a01b0381166105aa5760405162461bcd60e51b8152602060048201526015602482015274139bc81cdd5a5d18589b194811115608199bdd5b99605a1b60448201526064016103a9565b6001600160a01b03818116600090815260026020819052604080832080548251848152606081019093529094169291816020016020820280368337019050509050841561065f5760008160008151811061060657610606611728565b60200260200101906001600160a01b031690816001600160a01b031681525050878160018151811061063a5761063a611728565b60200260200101906001600160a01b031690816001600160a01b0316815250506106c9565b878160008151811061067357610673611728565b60200260200101906001600160a01b031690816001600160a01b0316815250506000816001815181106106a8576106a8611728565b60200260200101906001600160a01b031690816001600160a01b0316815250505b8415610744576001600160a01b03821663b6f9de95888884336106ee4261012c611754565b6040518663ffffffff1660e01b815260040161070d94939291906117b2565b6000604051808303818588803b15801561072657600080fd5b505af115801561073a573d6000803e3d6000fd5b5050505050610842565b6107596001600160a01b03891633308a61110c565b825460405163095ea7b360e01b81526001600160a01b039182166004820152602481018990529089169063095ea7b3906044016020604051808303816000875af11580156107ab573d6000803e3d6000fd5b505050506040513d601f19601f820116820180604052508101906107cf91906117e7565b506001600160a01b03821663791ac947888884336107ef4261012c611754565b6040518663ffffffff1660e01b815260040161080f959493929190611804565b600060405180830381600087803b15801561082957600080fd5b505af115801561083d573d6000803e3d6000fd5b505050505b6040805188815286151560208201526001600160a01b0380871692908b16917f3101aef604709d9b06e42694fc02dd695b02d7bfc346635dc3126b22c90e9d27910160405180910390a35050505061089a6001600055565b50505050565b6108a8610f82565b6001600160a01b038116600090815260026020526040902060010154600160a01b900460ff1661090a5760405162461bcd60e51b815260206004820152600d60248201526c111156081b9bdd08199bdd5b99609a1b60448201526064016103a9565b6001600160a01b0381166000908152600260205260408120600101805460ff60a01b191690555b600454811015610a2c57816001600160a01b03166004828154811061095857610958611728565b6000918252602090912001546001600160a01b031603610a24576004805461098290600190611840565b8154811061099257610992611728565b600091825260209091200154600480546001600160a01b0390921691839081106109be576109be611728565b9060005260206000200160006101000a8154816001600160a01b0302191690836001600160a01b0316021790555060048054806109fd576109fd611853565b600082815260209020810160001990810180546001600160a01b0319169055019055610a2c565b600101610931565b506040516001600160a01b038216907f1921ba6698157d491d41801286e9e17aee1c25965119e55403ba396b104b95db90600090a250565b610a6c610f82565b6001600160a01b038416610ab05760405162461bcd60e51b815260206004820152600b60248201526a092dcecc2d8d2c840888ab60ab1b60448201526064016103a9565b6001600160a01b038316610af75760405162461bcd60e51b815260206004820152600e60248201526d24b73b30b634b2103937baba32b960911b60448201526064016103a9565b6001600160a01b038216610b3f5760405162461bcd60e51b815260206004820152600f60248201526e496e76616c696420666163746f727960881b60448201526064016103a9565b6001600160a01b038416600090815260026020526040902060010154600160a01b900460ff1615610ba75760405162461bcd60e51b815260206004820152601260248201527144455820616c72656164792065786973747360701b60448201526064016103a9565b604080516080810182526001600160a01b03808616825284811660208084019182526001848601818152606086018881528b86166000818152600295869052988920975188549088166001600160a01b03199182161789559551888501805494511515600160a01b026001600160a81b0319909516919098161792909217909555935194909101939093556004805493840181559093527f8a35acfbc15ff81a39ae7d344fd709f28e8600b4aa8c65c6b64bfe7fe36bd19b9091018054909216179055610c72611166565b604080516001600160a01b03858116825284811660208301528616917f2161d26dd2e031506bee289a523abc3337bfa101a08626541f6978f76048eac7910160405180910390a250505050565b610cc7610f82565b6001600160a01b038116610cf157604051631e4fbdf760e01b8152600060048201526024016103a9565b610cfa81610faf565b50565b610d05610f82565b6001600160a01b038516610d4b5760405162461bcd60e51b815260206004820152600d60248201526c24b73b30b634b2103a37b5b2b760991b60448201526064016103a9565b828410610d8c5760405162461bcd60e51b815260206004820152600f60248201526e496e76616c696420616d6f756e747360881b60448201526064016103a9565b6001600160a01b03851660009081526003602052604090205460ff1615610dec5760405162461bcd60e51b8152602060048201526014602482015273546f6b656e20616c72656164792065786973747360601b60448201526064016103a9565b60005b81811015610e8b5760026000848484818110610e0d57610e0d611728565b9050602002016020810190610e2291906115c7565b6001600160a01b03168152602081019190915260400160002060010154600160a01b900460ff16610e835760405162461bcd60e51b815260206004820152600b60248201526a092dcecc2d8d2c840888ab60ab1b60448201526064016103a9565b600101610def565b50604051806080016040528060011515815260200185815260200184815260200183838080602002602001604051908101604052809392919081815260200183836020028082843760009201829052509390945250506001600160a01b0388168152600360208181526040928390208551815460ff191690151517815585820151600182015592850151600284015560608501518051939450610f34939285019291019061151f565b505060408051868152602081018690526001600160a01b03881692507fa818a22273fc309f0a3682b642c74c5b5c25c0615ff378d07767cd231e19fffc910160405180910390a25050505050565b6001546001600160a01b031633146104295760405163118cdaa760e01b81523360048201526024016103a9565b600180546001600160a01b038381166001600160a01b0319831681179093556040519116919082907f8be0079c531659141344cd1fd0a4f28419497f9722a3daafe3b4186f6b6457e090600090a35050565b60026000540361102457604051633ee5aeb560e01b815260040160405180910390fd5b6002600055565b6001600160a01b0383166000908152600360208190526040822001815b81548110156110a057600082828154811061106557611065611728565b6000918252602090912001546001600160a01b0316905061108881888888611325565b15611097579250611105915050565b50600101611048565b5060005b6004548110156110fe576000600482815481106110c3576110c3611728565b6000918252602090912001546001600160a01b031690506110e681888888611325565b156110f5579250611105915050565b506001016110a4565b5060009150505b9392505050565b604080516001600160a01b0385811660248301528416604482015260648082018490528251808303909101815260849091019091526020810180516001600160e01b03166323b872dd60e01b17905261089a908590611490565b60005b600454811015610cfa5760005b600454600190611187908490611840565b6111919190611840565b81101561131c576002600060046111a9846001611754565b815481106111b9576111b9611728565b60009182526020808320909101546001600160a01b03168352820192909252604001812060029081015460048054919391859081106111fa576111fa611728565b60009182526020808320909101546001600160a01b0316835282019290925260400190206002015411156113145760006004828154811061123d5761123d611728565b6000918252602090912001546001600160a01b031690506004611261836001611754565b8154811061127157611271611728565b600091825260209091200154600480546001600160a01b03909216918490811061129d5761129d611728565b600091825260209091200180546001600160a01b0319166001600160a01b03929092169190911790558060046112d4846001611754565b815481106112e4576112e4611728565b9060005260206000200160006101000a8154816001600160a01b0302191690836001600160a01b03160217905550505b600101611176565b50600101611169565b6001600160a01b03841660009081526002602052604081206001810154600160a01b900460ff1661135a576000915050611488565b600181015460405163e6a4390560e01b81526001600160a01b03878116600483015260006024830181905292169063e6a4390590604401602060405180830381865afa1580156113ae573d6000803e3d6000fd5b505050506040513d601f19601f820116820180604052508101906113d29190611869565b90506001600160a01b0381166113ed57600092505050611488565b600080826001600160a01b0316630902f1ac6040518163ffffffff1660e01b8152600401606060405180830381865afa15801561142e573d6000803e3d6000fd5b505050506040513d601f19601f8201168201806040525081019061145291906118a2565b5090925090506001600160701b03808216908316871561147d57888110159650505050505050611488565b508711159450505050505b949350505050565b600080602060008451602086016000885af1806114b3576040513d6000823e3d81fd5b50506000513d915081156114cb5780600114156114d8565b6001600160a01b0384163b155b1561089a57604051635274afe760e01b81526001600160a01b03851660048201526024016103a9565b5080546000825590600052602060002090810190610cfa9190611584565b828054828255906000526020600020908101928215611574579160200282015b8281111561157457825182546001600160a01b0319166001600160a01b0390911617825560209092019160019091019061153f565b50611580929150611584565b5090565b5b808211156115805760008155600101611585565b6000602082840312156115ab57600080fd5b5035919050565b6001600160a01b0381168114610cfa57600080fd5b6000602082840312156115d957600080fd5b8135611105816115b2565b8015158114610cfa57600080fd5b6000806000806080858703121561160857600080fd5b8435611613816115b2565b935060208501359250604085013591506060850135611631816115e4565b939692955090935050565b6000806000806080858703121561165257600080fd5b843561165d816115b2565b9350602085013561166d816115b2565b9250604085013561167d816115b2565b9396929550929360600135925050565b6000806000806000608086880312156116a557600080fd5b85356116b0816115b2565b94506020860135935060408601359250606086013567ffffffffffffffff8111156116da57600080fd5b8601601f810188136116eb57600080fd5b803567ffffffffffffffff81111561170257600080fd5b8860208260051b840101111561171757600080fd5b959894975092955050506020019190565b634e487b7160e01b600052603260045260246000fd5b634e487b7160e01b600052601160045260246000fd5b808201808211156117675761176761173e565b92915050565b600081518084526020840193506020830160005b828110156117a85781516001600160a01b0316865260209586019590910190600101611781565b5093949350505050565b8481526080602082015260006117cb608083018661176d565b6001600160a01b03949094166040830152506060015292915050565b6000602082840312156117f957600080fd5b8151611105816115e4565b85815284602082015260a06040820152600061182360a083018661176d565b6001600160a01b0394909416606083015250608001529392505050565b818103818111156117675761176761173e565b634e487b7160e01b600052603160045260246000fd5b60006020828403121561187b57600080fd5b8151611105816115b2565b80516001600160701b038116811461189d57600080fd5b919050565b6000806000606084860312156118b757600080fd5b6118c084611886565b92506118ce60208501611886565b9150604084015163ffffffff811681146118e757600080fd5b80915050925092509256fea2646970667358221220ac4102e1e6bc93d94a1866a3b0ad20af55cb79a8bc3b416a6babe077c73e668864736f6c634300081a0033",
  "linkReferences": {},
  "deployedLinkReferences": {}
}