{
  "_format": "hh-sol-artifact-1",
  "contractName": "GradientMarketMakerPool",
  "sourceName": "contracts/GradientMarketMakerPool.sol",
  "abi": [
    {
      "inputs": [
        {
          "internalType": "contract IGradientRegistry",
          "name": "_gradientRegistry",
          "type": "address"
        }
      ],
      "stateMutability": "nonpayable",
      "type": "constructor"
    },
    {
      "inputs": [
        {
          "internalType": "address",
          "name": "owner",
          "type": "address"
        }
      ],
      "name": "OwnableInvalidOwner",
      "type": "error"
    },
    {
      "inputs": [
        {
          "internalType": "address",
          "name": "account",
          "type": "address"
        }
      ],
      "name": "OwnableUnauthorizedAccount",
      "type": "error"
    },
    {
      "inputs": [],
      "name": "ReentrancyGuardReentrantCall",
      "type": "error"
    },
    {
      "inputs": [
        {
          "internalType": "address",
          "name": "token",
          "type": "address"
        }
      ],
      "name": "SafeERC20FailedOperation",
      "type": "error"
    },
    {
      "anonymous": false,
      "inputs": [
        {
          "indexed": true,
          "internalType": "address",
          "name": "buyer",
          "type": "address"
        },
        {
          "indexed": false,
          "internalType": "address",
          "name": "token",
          "type": "address"
        },
        {
          "indexed": false,
          "internalType": "uint256",
          "name": "ethAmount",
          "type": "uint256"
        },
        {
          "indexed": false,
          "internalType": "uint256",
          "name": "tokenAmount",
          "type": "uint256"
        }
      ],
      "name": "BuyOrderFulfilled",
      "type": "event"
    },
    {
      "anonymous": false,
      "inputs": [
        {
          "indexed": true,
          "internalType": "address",
          "name": "user",
          "type": "address"
        },
        {
          "indexed": false,
          "internalType": "address",
          "name": "token",
          "type": "address"
        },
        {
          "indexed": false,
          "internalType": "uint256",
          "name": "ethAmount",
          "type": "uint256"
        },
        {
          "indexed": false,
          "internalType": "uint256",
          "name": "lpSharesMinted",
          "type": "uint256"
        }
      ],
      "name": "ETHLiquidityDeposited",
      "type": "event"
    },
    {
      "anonymous": false,
      "inputs": [
        {
          "indexed": true,
          "internalType": "address",
          "name": "user",
          "type": "address"
        },
        {
          "indexed": false,
          "internalType": "address",
          "name": "token",
          "type": "address"
        },
        {
          "indexed": false,
          "internalType": "uint256",
          "name": "ethAmount",
          "type": "uint256"
        },
        {
          "indexed": false,
          "internalType": "uint256",
          "name": "lpSharesBurned",
          "type": "uint256"
        }
      ],
      "name": "ETHLiquidityWithdrawn",
      "type": "event"
    },
    {
      "anonymous": false,
      "inputs": [
        {
          "indexed": true,
          "internalType": "address",
          "name": "orderbook",
          "type": "address"
        },
        {
          "indexed": false,
          "internalType": "uint256",
          "name": "amount",
          "type": "uint256"
        },
        {
          "indexed": true,
          "internalType": "address",
          "name": "token",
          "type": "address"
        }
      ],
      "name": "ETHReceivedFromOrderbook",
      "type": "event"
    },
    {
      "anonymous": false,
      "inputs": [
        {
          "indexed": true,
          "internalType": "address",
          "name": "orderbook",
          "type": "address"
        },
        {
          "indexed": false,
          "internalType": "uint256",
          "name": "amount",
          "type": "uint256"
        },
        {
          "indexed": true,
          "internalType": "address",
          "name": "token",
          "type": "address"
        }
      ],
      "name": "ETHTransferredToOrderbook",
      "type": "event"
    },
    {
      "anonymous": false,
      "inputs": [
        {
          "indexed": true,
          "internalType": "address",
          "name": "owner",
          "type": "address"
        },
        {
          "indexed": true,
          "internalType": "address",
          "name": "token",
          "type": "address"
        },
        {
          "indexed": false,
          "internalType": "uint256",
          "name": "amount",
          "type": "uint256"
        },
        {
          "indexed": false,
          "internalType": "string",
          "name": "reason",
          "type": "string"
        }
      ],
      "name": "ExcessiveFundsWithdrawn",
      "type": "event"
    },
    {
      "anonymous": false,
      "inputs": [
        {
          "indexed": false,
          "internalType": "uint256",
          "name": "newMinLiquidity",
          "type": "uint256"
        }
      ],
      "name": "MinLiquidityUpdated",
      "type": "event"
    },
    {
      "anonymous": false,
      "inputs": [
        {
          "indexed": false,
          "internalType": "uint256",
          "name": "newMinTokenLiquidity",
          "type": "uint256"
        }
      ],
      "name": "MinTokenLiquidityUpdated",
      "type": "event"
    },
    {
      "anonymous": false,
      "inputs": [
        {
          "indexed": true,
          "internalType": "address",
          "name": "previousOwner",
          "type": "address"
        },
        {
          "indexed": true,
          "internalType": "address",
          "name": "newOwner",
          "type": "address"
        }
      ],
      "name": "OwnershipTransferred",
      "type": "event"
    },
    {
      "anonymous": false,
      "inputs": [
        {
          "indexed": true,
          "internalType": "address",
          "name": "token",
          "type": "address"
        },
        {
          "indexed": false,
          "internalType": "uint256",
          "name": "newTotalEth",
          "type": "uint256"
        },
        {
          "indexed": false,
          "internalType": "uint256",
          "name": "newTotalTokens",
          "type": "uint256"
        },
        {
          "indexed": false,
          "internalType": "uint256",
          "name": "newTotalETHLPShares",
          "type": "uint256"
        },
        {
          "indexed": false,
          "internalType": "uint256",
          "name": "newTotalTokenLPShares",
          "type": "uint256"
        }
      ],
      "name": "PoolBalanceUpdated",
      "type": "event"
    },
    {
      "anonymous": false,
      "inputs": [
        {
          "indexed": true,
          "internalType": "address",
          "name": "user",
          "type": "address"
        },
        {
          "indexed": false,
          "internalType": "uint256",
          "name": "amount",
          "type": "uint256"
        },
        {
          "indexed": false,
          "internalType": "address",
          "name": "token",
          "type": "address"
        },
        {
          "indexed": false,
          "internalType": "bool",
          "name": "isETH",
          "type": "bool"
        }
      ],
      "name": "PoolFeeClaimed",
      "type": "event"
    },
    {
      "anonymous": false,
      "inputs": [
        {
          "indexed": true,
          "internalType": "address",
          "name": "from",
          "type": "address"
        },
        {
          "indexed": false,
          "internalType": "uint256",
          "name": "amount",
          "type": "uint256"
        },
        {
          "indexed": false,
          "internalType": "address",
          "name": "token",
          "type": "address"
        },
        {
          "indexed": false,
          "internalType": "bool",
          "name": "isETH",
          "type": "bool"
        }
      ],
      "name": "PoolFeeDistributed",
      "type": "event"
    },
    {
      "anonymous": false,
      "inputs": [
        {
          "indexed": true,
          "internalType": "address",
          "name": "user",
          "type": "address"
        },
        {
          "indexed": false,
          "internalType": "uint256",
          "name": "amount",
          "type": "uint256"
        },
        {
          "indexed": false,
          "internalType": "address",
          "name": "token",
          "type": "address"
        },
        {
          "indexed": false,
          "internalType": "bool",
          "name": "isETH",
          "type": "bool"
        }
      ],
      "name": "PoolSharesClaimed",
      "type": "event"
    },
    {
      "anonymous": false,
      "inputs": [
        {
          "indexed": true,
          "internalType": "address",
          "name": "seller",
          "type": "address"
        },
        {
          "indexed": false,
          "internalType": "address",
          "name": "token",
          "type": "address"
        },
        {
          "indexed": false,
          "internalType": "uint256",
          "name": "tokenAmount",
          "type": "uint256"
        },
        {
          "indexed": false,
          "internalType": "uint256",
          "name": "ethAmount",
          "type": "uint256"
        }
      ],
      "name": "SellOrderFulfilled",
      "type": "event"
    },
    {
      "anonymous": false,
      "inputs": [
        {
          "indexed": true,
          "internalType": "address",
          "name": "user",
          "type": "address"
        },
        {
          "indexed": false,
          "internalType": "address",
          "name": "token",
          "type": "address"
        },
        {
          "indexed": false,
          "internalType": "uint256",
          "name": "tokenAmount",
          "type": "uint256"
        },
        {
          "indexed": false,
          "internalType": "uint256",
          "name": "lpSharesMinted",
          "type": "uint256"
        }
      ],
      "name": "TokenLiquidityDeposited",
      "type": "event"
    },
    {
      "anonymous": false,
      "inputs": [
        {
          "indexed": true,
          "internalType": "address",
          "name": "user",
          "type": "address"
        },
        {
          "indexed": false,
          "internalType": "address",
          "name": "token",
          "type": "address"
        },
        {
          "indexed": false,
          "internalType": "uint256",
          "name": "tokenAmount",
          "type": "uint256"
        },
        {
          "indexed": false,
          "internalType": "uint256",
          "name": "lpSharesBurned",
          "type": "uint256"
        }
      ],
      "name": "TokenLiquidityWithdrawn",
      "type": "event"
    },
    {
      "anonymous": false,
      "inputs": [
        {
          "indexed": true,
          "internalType": "address",
          "name": "orderbook",
          "type": "address"
        },
        {
          "indexed": true,
          "internalType": "address",
          "name": "token",
          "type": "address"
        },
        {
          "indexed": false,
          "internalType": "uint256",
          "name": "amount",
          "type": "uint256"
        }
      ],
      "name": "TokenReceivedFromOrderbook",
      "type": "event"
    },
    {
      "anonymous": false,
      "inputs": [
        {
          "indexed": true,
          "internalType": "address",
          "name": "orderbook",
          "type": "address"
        },
        {
          "indexed": true,
          "internalType": "address",
          "name": "token",
          "type": "address"
        },
        {
          "indexed": false,
          "internalType": "uint256",
          "name": "amount",
          "type": "uint256"
        }
      ],
      "name": "TokenTransferredToOrderbook",
      "type": "event"
    },
    {
      "inputs": [],
      "name": "SCALE",
      "outputs": [
        {
          "internalType": "uint256",
          "name": "",
          "type": "uint256"
        }
      ],
      "stateMutability": "view",
      "type": "function"
    },
    {
      "inputs": [
        {
          "internalType": "address",
          "name": "token",
          "type": "address"
        }
      ],
      "name": "addETHLiquidity",
      "outputs": [],
      "stateMutability": "payable",
      "type": "function"
    },
    {
      "inputs": [
        {
          "internalType": "address",
          "name": "token",
          "type": "address"
        },
        {
          "internalType": "uint256",
          "name": "tokenAmount",
          "type": "uint256"
        }
      ],
      "name": "addLiquidity",
      "outputs": [],
      "stateMutability": "payable",
      "type": "function"
    },
    {
      "inputs": [
        {
          "internalType": "address",
          "name": "token",
          "type": "address"
        },
        {
          "internalType": "uint256",
          "name": "tokenAmount",
          "type": "uint256"
        }
      ],
      "name": "addTokenLiquidity",
      "outputs": [],
      "stateMutability": "nonpayable",
      "type": "function"
    },
    {
      "inputs": [
        {
          "internalType": "address",
          "name": "token",
          "type": "address"
        }
      ],
      "name": "claimEthPoolFee",
      "outputs": [],
      "stateMutability": "nonpayable",
      "type": "function"
    },
    {
      "inputs": [
        {
          "internalType": "address",
          "name": "token",
          "type": "address"
        }
      ],
      "name": "claimTokenPoolFee",
      "outputs": [],
      "stateMutability": "nonpayable",
      "type": "function"
    },
    {
      "inputs": [
        {
          "internalType": "address",
          "name": "token",
          "type": "address"
        },
        {
          "internalType": "bool",
          "name": "isETHPool",
          "type": "bool"
        }
      ],
      "name": "distributePoolFee",
      "outputs": [],
      "stateMutability": "payable",
      "type": "function"
    },
    {
      "inputs": [
        {
          "internalType": "address",
          "name": "",
          "type": "address"
        }
      ],
      "name": "ethPools",
      "outputs": [
        {
          "internalType": "uint256",
          "name": "accountedEth",
          "type": "uint256"
        },
        {
          "internalType": "uint256",
          "name": "totalETH",
          "type": "uint256"
        },
        {
          "internalType": "uint256",
          "name": "totalLPShares",
          "type": "uint256"
        },
        {
          "internalType": "uint256",
          "name": "accRewardPerShare",
          "type": "uint256"
        },
        {
          "internalType": "uint256",
          "name": "rewardBalance",
          "type": "uint256"
        },
        {
          "internalType": "uint256",
          "name": "accTokenRewardPerShare",
          "type": "uint256"
        },
        {
          "internalType": "uint256",
          "name": "tokenRewardBalance",
          "type": "uint256"
        },
        {
          "internalType": "address",
          "name": "uniswapPair",
          "type": "address"
        }
      ],
      "stateMutability": "view",
      "type": "function"
    },
    {
      "inputs": [
        {
          "internalType": "address",
          "name": "",
          "type": "address"
        },
        {
          "internalType": "address",
          "name": "",
          "type": "address"
        }
      ],
      "name": "ethProviders",
      "outputs": [
        {
          "internalType": "uint256",
          "name": "ethAmount",
          "type": "uint256"
        },
        {
          "internalType": "uint256",
          "name": "lpShares",
          "type": "uint256"
        },
        {
          "internalType": "uint256",
          "name": "rewardDebt",
          "type": "uint256"
        },
        {
          "internalType": "uint256",
          "name": "pendingReward",
          "type": "uint256"
        },
        {
          "internalType": "uint256",
          "name": "tokenRewardDebt",
          "type": "uint256"
        },
        {
          "internalType": "uint256",
          "name": "pendingTokenReward",
          "type": "uint256"
        }
      ],
      "stateMutability": "view",
      "type": "function"
    },
    {
      "inputs": [
        {
          "internalType": "address",
          "name": "token",
          "type": "address"
        },
        {
          "internalType": "uint256",
          "name": "ethAmount",
          "type": "uint256"
        },
        {
          "internalType": "uint256",
          "name": "tokenAmount",
          "type": "uint256"
        }
      ],
      "name": "executeBuyOrder",
      "outputs": [],
      "stateMutability": "payable",
      "type": "function"
    },
    {
      "inputs": [
        {
          "internalType": "address",
          "name": "token",
          "type": "address"
        },
        {
          "internalType": "uint256",
          "name": "ethAmount",
          "type": "uint256"
        },
        {
          "internalType": "uint256",
          "name": "tokenAmount",
          "type": "uint256"
        }
      ],
      "name": "executeSellOrder",
      "outputs": [],
      "stateMutability": "nonpayable",
      "type": "function"
    },
    {
      "inputs": [
        {
          "internalType": "address",
          "name": "token",
          "type": "address"
        }
      ],
      "name": "getETHPoolInfo",
      "outputs": [
        {
          "components": [
            {
              "internalType": "uint256",
              "name": "accountedEth",
              "type": "uint256"
            },
            {
              "internalType": "uint256",
              "name": "totalETH",
              "type": "uint256"
            },
            {
              "internalType": "uint256",
              "name": "totalLPShares",
              "type": "uint256"
            },
            {
              "internalType": "uint256",
              "name": "accRewardPerShare",
              "type": "uint256"
            },
            {
              "internalType": "uint256",
              "name": "rewardBalance",
              "type": "uint256"
            },
            {
              "internalType": "uint256",
              "name": "accTokenRewardPerShare",
              "type": "uint256"
            },
            {
              "internalType": "uint256",
              "name": "tokenRewardBalance",
              "type": "uint256"
            },
            {
              "internalType": "address",
              "name": "uniswapPair",
              "type": "address"
            }
          ],
          "internalType": "struct IGradientMarketMakerPool.ETHPoolInfo",
          "name": "",
          "type": "tuple"
        }
      ],
      "stateMutability": "view",
      "type": "function"
    },
    {
      "inputs": [
        {
          "internalType": "address",
          "name": "token",
          "type": "address"
        },
        {
          "internalType": "address",
          "name": "user",
          "type": "address"
        }
      ],
      "name": "getETHProviderLPShares",
      "outputs": [
        {
          "internalType": "uint256",
          "name": "lpShares",
          "type": "uint256"
        }
      ],
      "stateMutability": "view",
      "type": "function"
    },
    {
      "inputs": [
        {
          "internalType": "address",
          "name": "token",
          "type": "address"
        }
      ],
      "name": "getExcessiveFunds",
      "outputs": [
        {
          "internalType": "uint256",
          "name": "excessiveEth",
          "type": "uint256"
        },
        {
          "internalType": "uint256",
          "name": "excessiveTokens",
          "type": "uint256"
        }
      ],
      "stateMutability": "view",
      "type": "function"
    },
    {
      "inputs": [
        {
          "internalType": "address",
          "name": "token",
          "type": "address"
        }
      ],
      "name": "getPairAddress",
      "outputs": [
        {
          "internalType": "address",
          "name": "pairAddress",
          "type": "address"
        }
      ],
      "stateMutability": "view",
      "type": "function"
    },
    {
      "inputs": [
        {
          "internalType": "address",
          "name": "token",
          "type": "address"
        }
      ],
      "name": "getPoolInfo",
      "outputs": [
        {
          "components": [
            {
              "internalType": "uint256",
              "name": "totalEth",
              "type": "uint256"
            },
            {
              "internalType": "uint256",
              "name": "totalToken",
              "type": "uint256"
            },
            {
              "internalType": "uint256",
              "name": "totalLiquidity",
              "type": "uint256"
            },
            {
              "internalType": "uint256",
              "name": "totalLPShares",
              "type": "uint256"
            },
            {
              "internalType": "uint256",
              "name": "accountedEth",
              "type": "uint256"
            },
            {
              "internalType": "uint256",
              "name": "accountedToken",
              "type": "uint256"
            },
            {
              "internalType": "uint256",
              "name": "accRewardPerShare",
              "type": "uint256"
            },
            {
              "internalType": "uint256",
              "name": "rewardBalance",
              "type": "uint256"
            },
            {
              "internalType": "address",
              "name": "uniswapPair",
              "type": "address"
            }
          ],
          "internalType": "struct IGradientMarketMakerPool.PoolInfo",
          "name": "",
          "type": "tuple"
        }
      ],
      "stateMutability": "view",
      "type": "function"
    },
    {
      "inputs": [
        {
          "internalType": "address",
          "name": "token",
          "type": "address"
        }
      ],
      "name": "getReserves",
      "outputs": [
        {
          "internalType": "uint256",
          "name": "reserveETH",
          "type": "uint256"
        },
        {
          "internalType": "uint256",
          "name": "reserveToken",
          "type": "uint256"
        }
      ],
      "stateMutability": "view",
      "type": "function"
    },
    {
      "inputs": [
        {
          "internalType": "address",
          "name": "token",
          "type": "address"
        }
      ],
      "name": "getTokenPoolInfo",
      "outputs": [
        {
          "components": [
            {
              "internalType": "uint256",
              "name": "accountedToken",
              "type": "uint256"
            },
            {
              "internalType": "uint256",
              "name": "totalTokens",
              "type": "uint256"
            },
            {
              "internalType": "uint256",
              "name": "totalLPShares",
              "type": "uint256"
            },
            {
              "internalType": "uint256",
              "name": "accRewardPerShare",
              "type": "uint256"
            },
            {
              "internalType": "uint256",
              "name": "rewardBalance",
              "type": "uint256"
            },
            {
              "internalType": "uint256",
              "name": "accETHRewardPerShare",
              "type": "uint256"
            },
            {
              "internalType": "uint256",
              "name": "ethRewardBalance",
              "type": "uint256"
            },
            {
              "internalType": "address",
              "name": "uniswapPair",
              "type": "address"
            }
          ],
          "internalType": "struct IGradientMarketMakerPool.TokenPoolInfo",
          "name": "",
          "type": "tuple"
        }
      ],
      "stateMutability": "view",
      "type": "function"
    },
    {
      "inputs": [
        {
          "internalType": "address",
          "name": "token",
          "type": "address"
        },
        {
          "internalType": "address",
          "name": "user",
          "type": "address"
        }
      ],
      "name": "getTokenProviderLPShares",
      "outputs": [
        {
          "internalType": "uint256",
          "name": "lpShares",
          "type": "uint256"
        }
      ],
      "stateMutability": "view",
      "type": "function"
    },
    {
      "inputs": [
        {
          "internalType": "address",
          "name": "token",
          "type": "address"
        },
        {
          "internalType": "address",
          "name": "user",
          "type": "address"
        }
      ],
      "name": "getUserLPShares",
      "outputs": [
        {
          "internalType": "uint256",
          "name": "lpShares",
          "type": "uint256"
        }
      ],
      "stateMutability": "view",
      "type": "function"
    },
    {
      "inputs": [
        {
          "internalType": "address",
          "name": "token",
          "type": "address"
        },
        {
          "internalType": "address",
          "name": "user",
          "type": "address"
        }
      ],
      "name": "getUserSharePercentage",
      "outputs": [
        {
          "internalType": "uint256",
          "name": "sharePercentage",
          "type": "uint256"
        }
      ],
      "stateMutability": "view",
      "type": "function"
    },
    {
      "inputs": [],
      "name": "gradientRegistry",
      "outputs": [
        {
          "internalType": "contract IGradientRegistry",
          "name": "",
          "type": "address"
        }
      ],
      "stateMutability": "view",
      "type": "function"
    },
    {
      "inputs": [],
      "name": "minLiquidity",
      "outputs": [
        {
          "internalType": "uint256",
          "name": "",
          "type": "uint256"
        }
      ],
      "stateMutability": "view",
      "type": "function"
    },
    {
      "inputs": [],
      "name": "minTokenLiquidity",
      "outputs": [
        {
          "internalType": "uint256",
          "name": "",
          "type": "uint256"
        }
      ],
      "stateMutability": "view",
      "type": "function"
    },
    {
      "inputs": [],
      "name": "owner",
      "outputs": [
        {
          "internalType": "address",
          "name": "",
          "type": "address"
        }
      ],
      "stateMutability": "view",
      "type": "function"
    },
    {
      "inputs": [
        {
          "internalType": "address",
          "name": "token",
          "type": "address"
        },
        {
          "internalType": "uint256",
          "name": "shares",
          "type": "uint256"
        },
        {
          "internalType": "uint256",
          "name": "minEthAmount",
          "type": "uint256"
        }
      ],
      "name": "removeETHLiquidity",
      "outputs": [],
      "stateMutability": "nonpayable",
      "type": "function"
    },
    {
      "inputs": [
        {
          "internalType": "address",
          "name": "token",
          "type": "address"
        },
        {
          "internalType": "uint256",
          "name": "shares",
          "type": "uint256"
        },
        {
          "internalType": "uint256",
          "name": "minEthAmount",
          "type": "uint256"
        },
        {
          "internalType": "uint256",
          "name": "minTokenAmount",
          "type": "uint256"
        }
      ],
      "name": "removeLiquidity",
      "outputs": [],
      "stateMutability": "nonpayable",
      "type": "function"
    },
    {
      "inputs": [
        {
          "internalType": "address",
          "name": "token",
          "type": "address"
        },
        {
          "internalType": "uint256",
          "name": "shares",
          "type": "uint256"
        },
        {
          "internalType": "uint256",
          "name": "minTokenAmount",
          "type": "uint256"
        }
      ],
      "name": "removeTokenLiquidity",
      "outputs": [],
      "stateMutability": "nonpayable",
      "type": "function"
    },
    {
      "inputs": [],
      "name": "renounceOwnership",
      "outputs": [],
      "stateMutability": "nonpayable",
      "type": "function"
    },
    {
      "inputs": [
        {
          "internalType": "uint256",
          "name": "_minLiquidity",
          "type": "uint256"
        }
      ],
      "name": "setMinLiquidity",
      "outputs": [],
      "stateMutability": "nonpayable",
      "type": "function"
    },
    {
      "inputs": [
        {
          "internalType": "uint256",
          "name": "_minTokenLiquidity",
          "type": "uint256"
        }
      ],
      "name": "setMinTokenLiquidity",
      "outputs": [],
      "stateMutability": "nonpayable",
      "type": "function"
    },
    {
      "inputs": [
        {
          "internalType": "contract IGradientRegistry",
          "name": "_gradientRegistry",
          "type": "address"
        }
      ],
      "name": "setRegistry",
      "outputs": [],
      "stateMutability": "nonpayable",
      "type": "function"
    },
    {
      "inputs": [
        {
          "internalType": "address",
          "name": "",
          "type": "address"
        }
      ],
      "name": "tokenPools",
      "outputs": [
        {
          "internalType": "uint256",
          "name": "accountedToken",
          "type": "uint256"
        },
        {
          "internalType": "uint256",
          "name": "totalTokens",
          "type": "uint256"
        },
        {
          "internalType": "uint256",
          "name": "totalLPShares",
          "type": "uint256"
        },
        {
          "internalType": "uint256",
          "name": "accRewardPerShare",
          "type": "uint256"
        },
        {
          "internalType": "uint256",
          "name": "rewardBalance",
          "type": "uint256"
        },
        {
          "internalType": "uint256",
          "name": "accETHRewardPerShare",
          "type": "uint256"
        },
        {
          "internalType": "uint256",
          "name": "ethRewardBalance",
          "type": "uint256"
        },
        {
          "internalType": "address",
          "name": "uniswapPair",
          "type": "address"
        }
      ],
      "stateMutability": "view",
      "type": "function"
    },
    {
      "inputs": [
        {
          "internalType": "address",
          "name": "",
          "type": "address"
        },
        {
          "internalType": "address",
          "name": "",
          "type": "address"
        }
      ],
      "name": "tokenProviders",
      "outputs": [
        {
          "internalType": "uint256",
          "name": "tokenAmount",
          "type": "uint256"
        },
        {
          "internalType": "uint256",
          "name": "lpShares",
          "type": "uint256"
        },
        {
          "internalType": "uint256",
          "name": "rewardDebt",
          "type": "uint256"
        },
        {
          "internalType": "uint256",
          "name": "pendingReward",
          "type": "uint256"
        },
        {
          "internalType": "uint256",
          "name": "ethRewardDebt",
          "type": "uint256"
        },
        {
          "internalType": "uint256",
          "name": "pendingETHReward",
          "type": "uint256"
        }
      ],
      "stateMutability": "view",
      "type": "function"
    },
    {
      "inputs": [],
      "name": "totalEthAdded",
      "outputs": [
        {
          "internalType": "uint256",
          "name": "",
          "type": "uint256"
        }
      ],
      "stateMutability": "view",
      "type": "function"
    },
    {
      "inputs": [],
      "name": "totalEthRemoved",
      "outputs": [
        {
          "internalType": "uint256",
          "name": "",
          "type": "uint256"
        }
      ],
      "stateMutability": "view",
      "type": "function"
    },
    {
      "inputs": [],
      "name": "totalTokensAdded",
      "outputs": [
        {
          "internalType": "uint256",
          "name": "",
          "type": "uint256"
        }
      ],
      "stateMutability": "view",
      "type": "function"
    },
    {
      "inputs": [],
      "name": "totalTokensRemoved",
      "outputs": [
        {
          "internalType": "uint256",
          "name": "",
          "type": "uint256"
        }
      ],
      "stateMutability": "view",
      "type": "function"
    },
    {
      "inputs": [
        {
          "internalType": "address",
          "name": "newOwner",
          "type": "address"
        }
      ],
      "name": "transferOwnership",
      "outputs": [],
      "stateMutability": "nonpayable",
      "type": "function"
    },
    {
      "inputs": [
        {
          "internalType": "address",
          "name": "token",
          "type": "address"
        }
      ],
      "name": "withdrawExcessiveFunds",
      "outputs": [],
      "stateMutability": "nonpayable",
      "type": "function"
    },
    {
      "stateMutability": "payable",
      "type": "receive"
    }
  ],
  "bytecode": "0x608060405266038d7ea4c6800060075566038d7ea4c6800060085534801561002657600080fd5b5060405161469a38038061469a833981016040819052610045916100ee565b338061006b57604051631e4fbdf760e01b81526000600482015260240160405180910390fd5b6100748161009e565b5060018055600280546001600160a01b0319166001600160a01b039290921691909117905561011e565b600080546001600160a01b038381166001600160a01b0319831681178455604051919092169283917f8be0079c531659141344cd1fd0a4f28419497f9722a3daafe3b4186f6b6457e09190a35050565b60006020828403121561010057600080fd5b81516001600160a01b038116811461011757600080fd5b9392505050565b61456d8061012d6000396000f3fe60806040526004361061023f5760003560e01c8063830562bc1161012e578063bcc9eea7116100ab578063dbf8a3ed1161006f578063dbf8a3ed14610863578063eced5526146108be578063f2fde38b146108da578063fa3e67d4146108fa578063fbbb3acf1461091057600080fd5b8063bcc9eea714610779578063bf0df0f9146107a6578063c3d2c3c1146107bc578063ca497a3f14610823578063d5d718401461084357600080fd5b8063a91ee0dc116100f2578063a91ee0dc146106d9578063ae8b804d146106f9578063afa3ed6e14610719578063b09273be14610739578063b93988c21461075957600080fd5b8063830562bc146105fa57806385e694b6146106325780638da5cb5b1461065257806393ca2f8a146106705780639c2520ff1461069057600080fd5b80635c4c4749116101bc57806370c6ee331161018057806370c6ee3314610589578063715018a61461059c57806374d0c73f146105b15780637601f9fe146105c75780637e49b933146105da57600080fd5b80635c4c4749146104f65780635efa0a6b146105165780635fbc13ef1461053657806366a40e261461055657806370aa0f391461056957600080fd5b80632b62a95a116102035780632b62a95a146103f35780633e99c1e4146104095780633f5662e81461043e5780634301d7351461045e57806356688700146104e357600080fd5b806306bfa9381461024b57806314fe72aa146102e95780631695ca4e1461030b5780631e489b12146103b9578063252cf2d2146103dd57600080fd5b3661024657005b600080fd5b34801561025757600080fd5b5061026b610266366004614097565b610930565b6040516102e09190600061012082019050825182526020830151602083015260408301516040830152606083015160608301526080830151608083015260a083015160a083015260c083015160c083015260e083015160e083015260018060a01b036101008401511661010083015292915050565b60405180910390f35b3480156102f557600080fd5b506103096103043660046140b4565b610a46565b005b34801561031757600080fd5b50610375610326366004614097565b600360208190526000918252604090912080546001820154600283015493830154600484015460058501546006860154600790960154949693959394929391929091906001600160a01b031688565b604080519889526020890197909752958701949094526060860192909252608085015260a084015260c08301526001600160a01b031660e0820152610100016102e0565b3480156103c557600080fd5b506103cf60095481565b6040519081526020016102e0565b3480156103e957600080fd5b506103cf60075481565b3480156103ff57600080fd5b506103cf60085481565b34801561041557600080fd5b50610429610424366004614097565b610b72565b604080519283526020830191909152016102e0565b34801561044a57600080fd5b50610429610459366004614097565b610cb4565b34801561046a57600080fd5b506104b66104793660046140e0565b6005602081815260009384526040808520909152918352912080546001820154600283015460038401546004850154949095015492949193909286565b604080519687526020870195909552938501929092526060840152608083015260a082015260c0016102e0565b6103096104f13660046140b4565b610da8565b34801561050257600080fd5b50610309610511366004614119565b610f0a565b34801561052257600080fd5b50610309610531366004614097565b610faf565b34801561054257600080fd5b50610309610551366004614132565b6111bb565b610309610564366004614175565b6114ff565b34801561057557600080fd5b506103cf6105843660046140e0565b611731565b610309610597366004614097565b611761565b3480156105a857600080fd5b5061030961187e565b3480156105bd57600080fd5b506103cf600b5481565b6103096105d5366004614132565b611892565b3480156105e657600080fd5b506103cf6105f53660046140e0565b611b7d565b34801561060657600080fd5b5060025461061a906001600160a01b031681565b6040516001600160a01b0390911681526020016102e0565b34801561063e57600080fd5b5061061a61064d366004614097565b611bd3565b34801561065e57600080fd5b506000546001600160a01b031661061a565b34801561067c57600080fd5b5061030961068b3660046141a3565b611de7565b34801561069c57600080fd5b506103cf6106ab3660046140e0565b6001600160a01b03918216600090815260066020908152604080832093909416825291909152206001015490565b3480156106e557600080fd5b506103096106f4366004614097565b611ef4565b34801561070557600080fd5b506103cf6107143660046140e0565b611f74565b34801561072557600080fd5b50610309610734366004614097565b611fa9565b34801561074557600080fd5b50610309610754366004614119565b612037565b34801561076557600080fd5b50610309610774366004614097565b6120db565b34801561078557600080fd5b50610799610794366004614097565b61240b565b6040516102e091906141de565b3480156107b257600080fd5b506103cf600a5481565b3480156107c857600080fd5b506103756107d7366004614097565b600460208190526000918252604090912080546001820154600283015460038401549484015460058501546006860154600790960154949693959294919290916001600160a01b031688565b34801561082f57600080fd5b5061079961083e366004614097565b6124d7565b34801561084f57600080fd5b5061030961085e366004614132565b6125a3565b34801561086f57600080fd5b506104b661087e3660046140e0565b6006602090815260009283526040808420909152908252902080546001820154600283015460038401546004850154600590950154939492939192909186565b3480156108ca57600080fd5b506103cf670de0b6b3a764000081565b3480156108e657600080fd5b506103096108f5366004614097565b6126a4565b34801561090657600080fd5b506103cf600c5481565b34801561091c57600080fd5b5061030961092b366004614132565b6126df565b610988604051806101200160405280600081526020016000815260200160008152602001600081526020016000815260200160008152602001600081526020016000815260200160006001600160a01b031681525090565b6001600160a01b0382166000908152600360209081526040808320600483529281902081516101208101835260018086015480835290830154948201859052919390928301916109d89190614251565b8152602001826002015484600201546109f19190614251565b815260200183600101548152602001826001015481526020016000815260200182600401548460040154610a259190614251565b81526007909301546001600160a01b03166020909301929092525092915050565b600254604051630736b32b60e31b81526001600160a01b038085166004830152849216906339b5995890602401602060405180830381865afa158015610a90573d6000803e3d6000fd5b505050506040513d601f19601f82011682018060405250810190610ab49190614264565b15610ada5760405162461bcd60e51b8152600401610ad190614281565b60405180910390fd5b610ae26127d1565b600854821015610b345760405162461bcd60e51b815260206004820152601a60248201527f546f6b656e20616d6f756e742062656c6f77206d696e696d756d0000000000006044820152606401610ad1565b6001600160a01b038316610b5a5760405162461bcd60e51b8152600401610ad1906142ab565b610b6483836127fb565b610b6d60018055565b505050565b6000806000610b8084611bd3565b90506001600160a01b038116610ba85760405162461bcd60e51b8152600401610ad1906142da565b600080826001600160a01b0316630902f1ac6040518163ffffffff1660e01b8152600401606060405180830381865afa158015610be9573d6000803e3d6000fd5b505050506040513d601f19601f82011682018060405250810190610c0d9190614323565b50915091506000836001600160a01b0316630dfe16816040518163ffffffff1660e01b8152600401602060405180830381865afa158015610c52573d6000803e3d6000fd5b505050506040513d601f19601f82011682018060405250810190610c769190614373565b9050866001600160a01b0316816001600160a01b031614610c98578282610c9b565b81835b6001600160701b03918216999116975095505050505050565b6000806001600160a01b038316610cdd5760405162461bcd60e51b8152600401610ad1906142ab565b600a546009544791600091610cf29190614390565b905080821115610d0957610d068183614390565b93505b6040516370a0823160e01b81523060048201526000906001600160a01b038716906370a0823190602401602060405180830381865afa158015610d50573d6000803e3d6000fd5b505050506040513d601f19601f82011682018060405250810190610d7491906143a3565b90506000600c54600b54610d889190614390565b905080821115610d9f57610d9c8183614390565b94505b50505050915091565b600254604051630736b32b60e31b81526001600160a01b038085166004830152849216906339b5995890602401602060405180830381865afa158015610df2573d6000803e3d6000fd5b505050506040513d601f19601f82011682018060405250810190610e169190614264565b15610e335760405162461bcd60e51b8152600401610ad190614281565b610e3b6127d1565b600754341015610e885760405162461bcd60e51b815260206004820152601860248201527745544820616d6f756e742062656c6f77206d696e696d756d60401b6044820152606401610ad1565b600854821015610eda5760405162461bcd60e51b815260206004820152601a60248201527f546f6b656e20616d6f756e742062656c6f77206d696e696d756d0000000000006044820152606401610ad1565b6001600160a01b038316610f005760405162461bcd60e51b8152600401610ad1906142ab565b610b5a8334612aab565b610f12612d3e565b60008111610f735760405162461bcd60e51b815260206004820152602860248201527f4d696e696d756d206c6971756964697479206d75737420626520677265617465604482015267072207468616e20360c41b6064820152608401610ad1565b60078190556040518181527fb2ee55c75b3383382e754fd3eff2d543c0e990be639421a4e2d8f2a42c5b8fdb906020015b60405180910390a150565b610fb76127d1565b6001600160a01b0381166000908152600360209081526040808320600583528184203385529092529091206001810154151580610ff8575060008160030154115b61103e5760405162461bcd60e51b81526020600482015260176024820152764e6f206c6971756964697479206f72207265776172647360481b6044820152606401610ad1565b6000670de0b6b3a76400008360030154836001015461105d91906143bc565b61106791906143d3565b9050600082600301548360020154836110809190614390565b61108a9190614251565b9050600081116110c95760405162461bcd60e51b815260206004820152600a6024820152694e6f207265776172647360b01b6044820152606401610ad1565b60028301829055600060038401819055604051339083908381818185875af1925050503d8060008114611118576040519150601f19603f3d011682016040523d82523d6000602084013e61111d565b606091505b50509050806111645760405162461bcd60e51b8152602060048201526013602482015272115512081d1c985b9cd9995c8819985a5b1959606a1b6044820152606401610ad1565b336001600160a01b03167fa7dc21a7f10f6182874318d626a6a53145cda9637a48b995799b12148f5b12ca838860006040516111a2939291906143f5565b60405180910390a250505050506111b860018055565b50565b600254604051630736b32b60e31b81526001600160a01b038086166004830152859216906339b5995890602401602060405180830381865afa158015611205573d6000803e3d6000fd5b505050506040513d601f19601f820116820180604052508101906112299190614264565b156112465760405162461bcd60e51b8152600401610ad190614281565b600260009054906101000a90046001600160a01b03166001600160a01b031663c18b1d5e6040518163ffffffff1660e01b8152600401602060405180830381865afa158015611299573d6000803e3d6000fd5b505050506040513d601f19601f820116820180604052508101906112bd9190614373565b6001600160a01b0316336001600160a01b0316146112ed5760405162461bcd60e51b8152600401610ad190614416565b6000831161130d5760405162461bcd60e51b8152600401610ad19061445b565b6000821161132d5760405162461bcd60e51b8152600401610ad19061449c565b6001600160a01b038416600090815260036020526040902060018101548411156113995760405162461bcd60e51b815260206004820152601a60248201527f496e73756666696369656e7420455448206c69717569646974790000000000006044820152606401610ad1565b6113ae6001600160a01b038616333086612d6b565b838160010160008282546113c29190614390565b9250508190555083600a60008282546113db9190614251565b909155506113eb90508584612dd2565b604051600090339086908381818185875af1925050503d806000811461142d576040519150601f19603f3d011682016040523d82523d6000602084013e611432565b606091505b50509050806114835760405162461bcd60e51b815260206004820181905260248201527f455448207472616e7366657220746f206f72646572626f6f6b206661696c65646044820152606401610ad1565b6001828101546001600160a01b038816600081815260046020908152604091829020948501546002808901549601548351958652918501529083019390935260608201929092527fe7a1849d3d3b81e99267b68a3889d2f466ac59697fa69ed9f94d306737f6ecd89060800160405180910390a2505050505050565b6002546040516316ed852560e01b81523360048201526001600160a01b03909116906316ed852590602401602060405180830381865afa158015611547573d6000803e3d6000fd5b505050506040513d601f19601f8201168201806040525081019061156b9190614264565b6115ce5760405162461bcd60e51b815260206004820152602e60248201527f4f6e6c7920726577617264206469737472696275746f722063616e2063616c6c60448201526d103a3434b990333ab731ba34b7b760911b6064820152608401610ad1565b6000341161160c5760405162461bcd60e51b815260206004820152600b60248201526a139bc8115512081cd95b9d60aa1b6044820152606401610ad1565b801561167e576001600160a01b0382166000908152600360205260409020600281015461166e5760405162461bcd60e51b815260206004820152601060248201526f4e6f20455448206c697175696469747960801b6044820152606401610ad1565b6116788334612efe565b506116e8565b6001600160a01b038216600090815260046020526040902060028101546116dc5760405162461bcd60e51b81526020600482015260126024820152714e6f20746f6b656e206c697175696469747960701b6044820152606401610ad1565b6116e68334613013565b505b336001600160a01b03167f2642b093d571e0a5cc51efd24d7e7137453bc48728b51644fb68f5aedb5564b3348484604051611725939291906143f5565b60405180910390a25050565b6001600160a01b038083166000908152600560209081526040808320938516835292905220600101545b92915050565b600254604051630736b32b60e31b81526001600160a01b038084166004830152839216906339b5995890602401602060405180830381865afa1580156117ab573d6000803e3d6000fd5b505050506040513d601f19601f820116820180604052508101906117cf9190614264565b156117ec5760405162461bcd60e51b8152600401610ad190614281565b6117f46127d1565b6007543410156118415760405162461bcd60e51b815260206004820152601860248201527745544820616d6f756e742062656c6f77206d696e696d756d60401b6044820152606401610ad1565b6001600160a01b0382166118675760405162461bcd60e51b8152600401610ad1906142ab565b6118718234612aab565b61187a60018055565b5050565b611886612d3e565b6118906000613082565b565b600254604051630736b32b60e31b81526001600160a01b038086166004830152859216906339b5995890602401602060405180830381865afa1580156118dc573d6000803e3d6000fd5b505050506040513d601f19601f820116820180604052508101906119009190614264565b1561191d5760405162461bcd60e51b8152600401610ad190614281565b600260009054906101000a90046001600160a01b03166001600160a01b031663c18b1d5e6040518163ffffffff1660e01b8152600401602060405180830381865afa158015611970573d6000803e3d6000fd5b505050506040513d601f19601f820116820180604052508101906119949190614373565b6001600160a01b0316336001600160a01b0316146119c45760405162461bcd60e51b8152600401610ad190614416565b600083116119e45760405162461bcd60e51b8152600401610ad19061445b565b60008211611a045760405162461bcd60e51b8152600401610ad19061449c565b823414611a495760405162461bcd60e51b815260206004820152601360248201527208aa89040c2dadeeadce840dad2e6dac2e8c6d606b1b6044820152606401610ad1565b6001600160a01b03841660009081526004602052604090206001810154831115611ab55760405162461bcd60e51b815260206004820152601c60248201527f496e73756666696369656e7420746f6b656e206c6971756964697479000000006044820152606401610ad1565b82816001016000828254611ac99190614390565b9250508190555082600c6000828254611ae29190614251565b90915550611af2905085856130d2565b611b066001600160a01b03861633856131d5565b6001600160a01b03851660008181526003602090815260409182902060018082015490860154600292830154928701548551928352938201529283015260608201527fe7a1849d3d3b81e99267b68a3889d2f466ac59697fa69ed9f94d306737f6ecd8906080015b60405180910390a25050505050565b6001600160a01b0380831660008181526006602090815260408083209486168084529482528083206001908101549484526005835281842095845294909152812090920154611bcc9190614251565b9392505050565b600080600260009054906101000a90046001600160a01b03166001600160a01b031663f887ea406040518163ffffffff1660e01b8152600401602060405180830381865afa158015611c29573d6000803e3d6000fd5b505050506040513d601f19601f82011682018060405250810190611c4d9190614373565b90506001600160a01b038116611c965760405162461bcd60e51b815260206004820152600e60248201526d149bdd5d195c881b9bdd081cd95d60921b6044820152606401610ad1565b60008190506000816001600160a01b031663c45a01556040518163ffffffff1660e01b8152600401602060405180830381865afa158015611cdb573d6000803e3d6000fd5b505050506040513d601f19601f82011682018060405250810190611cff9190614373565b90506000826001600160a01b031663ad5c46486040518163ffffffff1660e01b8152600401602060405180830381865afa158015611d41573d6000803e3d6000fd5b505050506040513d601f19601f82011682018060405250810190611d659190614373565b60405163e6a4390560e01b81526001600160a01b0388811660048301528083166024830152919250839182169063e6a4390590604401602060405180830381865afa158015611db8573d6000803e3d6000fd5b505050506040513d601f19601f82011682018060405250810190611ddc9190614373565b979650505050505050565b600254604051630736b32b60e31b81526001600160a01b038087166004830152869216906339b5995890602401602060405180830381865afa158015611e31573d6000803e3d6000fd5b505050506040513d601f19601f82011682018060405250810190611e559190614264565b15611e725760405162461bcd60e51b8152600401610ad190614281565b611e7a6127d1565b600084118015611e8c57506127108411155b611ea85760405162461bcd60e51b8152600401610ad1906144df565b6001600160a01b038516611ece5760405162461bcd60e51b8152600401610ad1906142ab565b611ed9858585613206565b611ee48585846137b5565b611eed60018055565b5050505050565b611efc612d3e565b6001600160a01b038116611f525760405162461bcd60e51b815260206004820152601960248201527f496e76616c6964206772616469656e74207265676973747279000000000000006044820152606401610ad1565b600280546001600160a01b0319166001600160a01b0392909216919091179055565b600080611f818484613d6b565b90506000611f8f8585613dd2565b9050808211611f9e5780611fa0565b815b95945050505050565b611fb16127d1565b6001600160a01b0381166000908152600460209081526040808320600683528184203385529092529091206001810154151580610ff85750600081600301541161103e5760405162461bcd60e51b81526020600482015260176024820152764e6f206c6971756964697479206f72207265776172647360481b6044820152606401610ad1565b61203f612d3e565b600081116120a65760405162461bcd60e51b815260206004820152602e60248201527f4d696e696d756d20746f6b656e206c6971756964697479206d7573742062652060448201526d067726561746572207468616e20360941b6064820152608401610ad1565b60088190556040518181527f554ff81f8d029070b26b416ba425c7e95c46f196538825a375116221b489351190602001610fa4565b6120e3612d3e565b6120eb6127d1565b6001600160a01b0381166121115760405162461bcd60e51b8152600401610ad1906142ab565b600a5460095447916000916121269190614390565b905060008183111561213f5761213c8284614390565b90505b6040516370a0823160e01b81523060048201526000906001600160a01b038616906370a0823190602401602060405180830381865afa158015612186573d6000803e3d6000fd5b505050506040513d601f19601f820116820180604052508101906121aa91906143a3565b90506000600c54600b546121be9190614390565b90506000818311156121d7576121d48284614390565b90505b60008411806121e65750600081115b6122325760405162461bcd60e51b815260206004820152601e60248201527f4e6f206578636573736976652066756e647320746f20776974686472617700006044820152606401610ad1565b831561234957600080546040516001600160a01b039091169086908381818185875af1925050503d8060008114612285576040519150601f19603f3d011682016040523d82523d6000602084013e61228a565b606091505b50509050806122d35760405162461bcd60e51b8152602060048201526015602482015274115512081dda5d1a191c985dd85b0819985a5b1959605a1b6044820152606401610ad1565b600080546001600160a01b03166001600160a01b03167fdfd9f8c3a5c5053800e06b62919c8c2d37e622f66afc4e1ebcf7306cc637a0fd8760405161233f918152604060208201819052600d908201526c08af0c6cae6e6d2ecca408aa89609b1b606082015260800190565b60405180910390a3505b80156123fc576123756123646000546001600160a01b031690565b6001600160a01b03891690836131d5565b866001600160a01b03166123916000546001600160a01b031690565b6001600160a01b03167fdfd9f8c3a5c5053800e06b62919c8c2d37e622f66afc4e1ebcf7306cc637a0fd836040516123f39181526040602082018190526010908201526f45786365737369766520746f6b656e7360801b606082015260800190565b60405180910390a35b5050505050506111b860018055565b61245c6040518061010001604052806000815260200160008152602001600081526020016000815260200160008152602001600081526020016000815260200160006001600160a01b031681525090565b506001600160a01b039081166000908152600460208181526040928390208351610100810185528154815260018201549281019290925260028101549382019390935260038301546060820152908201546080820152600582015460a0820152600682015460c082015260079091015490911660e082015290565b6125286040518061010001604052806000815260200160008152602001600081526020016000815260200160008152602001600081526020016000815260200160006001600160a01b031681525090565b506001600160a01b039081166000908152600360208181526040928390208351610100810185528154815260018201549281019290925260028101549382019390935290820154606082015260048201546080820152600582015460a0820152600682015460c082015260079091015490911660e082015290565b600254604051630736b32b60e31b81526001600160a01b038086166004830152859216906339b5995890602401602060405180830381865afa1580156125ed573d6000803e3d6000fd5b505050506040513d601f19601f820116820180604052508101906126119190614264565b1561262e5760405162461bcd60e51b8152600401610ad190614281565b6126366127d1565b60008311801561264857506127108311155b6126645760405162461bcd60e51b8152600401610ad1906144df565b6001600160a01b03841661268a5760405162461bcd60e51b8152600401610ad1906142ab565b6126958484846137b5565b61269e60018055565b50505050565b6126ac612d3e565b6001600160a01b0381166126d657604051631e4fbdf760e01b815260006004820152602401610ad1565b6111b881613082565b600254604051630736b32b60e31b81526001600160a01b038086166004830152859216906339b5995890602401602060405180830381865afa158015612729573d6000803e3d6000fd5b505050506040513d601f19601f8201168201806040525081019061274d9190614264565b1561276a5760405162461bcd60e51b8152600401610ad190614281565b6127726127d1565b60008311801561278457506127108311155b6127a05760405162461bcd60e51b8152600401610ad1906144df565b6001600160a01b0384166127c65760405162461bcd60e51b8152600401610ad1906142ab565b612695848484613206565b6002600154036127f457604051633ee5aeb560e01b815260040160405180910390fd5b6002600155565b6001600160a01b038083166000908152600460205260409020600781015490911661284c5761282983611bd3565b6007820180546001600160a01b0319166001600160a01b03929092169190911790555b60078101546001600160a01b03166128765760405162461bcd60e51b8152600401610ad1906142da565b6001600160a01b0383166000908152600660209081526040808320338452909152902060018101541561294e5760008160020154670de0b6b3a7640000846003015484600101546128c791906143bc565b6128d191906143d3565b6128db9190614390565b9050808260030160008282546128f19190614251565b9250508190555060008260040154670de0b6b3a76400008560050154856001015461291c91906143bc565b61292691906143d3565b6129309190614390565b9050808360050160008282546129469190614251565b909155505050505b60006129638484600001548560020154613e19565b9050808260010160008282546129799190614251565b9091555050815484908390600090612992908490614251565b909155505060038301546001830154670de0b6b3a7640000916129b4916143bc565b6129be91906143d3565b600283015560058301546001830154670de0b6b3a7640000916129e0916143bc565b6129ea91906143d3565b826004018190555083836001016000828254612a069190614251565b9091555050825484908490600090612a1f908490614251565b9250508190555080836002016000828254612a3a9190614251565b9250508190555083600b6000828254612a539190614251565b90915550612a6e90506001600160a01b038616333087612d6b565b336001600160a01b03167f4e454f01a53c7bed07081706a3ead05bd1bfa0c411a0ee8db5304398f87a97be868684604051611b6e93929190614516565b6001600160a01b0380831660009081526003602052604090206007810154909116612afc57612ad983611bd3565b6007820180546001600160a01b0319166001600160a01b03929092169190911790555b60078101546001600160a01b0316612b265760405162461bcd60e51b8152600401610ad1906142da565b6001600160a01b03831660009081526005602090815260408083203384529091529020600181015415612bfe5760008160020154670de0b6b3a764000084600301548460010154612b7791906143bc565b612b8191906143d3565b612b8b9190614390565b905080826003016000828254612ba19190614251565b9250508190555060008260040154670de0b6b3a764000085600501548560010154612bcc91906143bc565b612bd691906143d3565b612be09190614390565b905080836005016000828254612bf69190614251565b909155505050505b6000612c138484600001548560020154613e19565b905080826001016000828254612c299190614251565b9091555050815484908390600090612c42908490614251565b909155505060038301546001830154670de0b6b3a764000091612c64916143bc565b612c6e91906143d3565b600283015560058301546001830154670de0b6b3a764000091612c90916143bc565b612c9a91906143d3565b826004018190555083836001016000828254612cb69190614251565b9091555050825484908490600090612ccf908490614251565b9250508190555080836002016000828254612cea9190614251565b925050819055508360096000828254612d039190614251565b909155505060405133907fc1405abcead391364eb128c74abfd38ebed1c7984fc9f8a96764b0dd35076d6090611b6e90889088908690614516565b6000546001600160a01b031633146118905760405163118cdaa760e01b8152336004820152602401610ad1565b6040516001600160a01b03848116602483015283811660448301526064820183905261269e9186918216906323b872dd906084015b604051602081830303815290604052915060e01b6020820180516001600160e01b038381831617835250505050613ee0565b60008111612df25760405162461bcd60e51b8152600401610ad19061449c565b6001600160a01b038216612e185760405162461bcd60e51b8152600401610ad1906142ab565b6001600160a01b03821660009081526003602052604081206002810154909103612e4157505050565b6002810154600090612e5b670de0b6b3a7640000856143bc565b612e6591906143d3565b8260050154612e749190614251565b90508160050154811015612ed65760405162461bcd60e51b8152602060048201526024808201527f4f766572666c6f7720696e20746f6b656e207265776172642063616c63756c616044820152633a34b7b760e11b6064820152608401610ad1565b80826005018190555082826006016000828254612ef39190614251565b909155505050505050565b60008111612f1e5760405162461bcd60e51b8152600401610ad19061445b565b6001600160a01b038216612f445760405162461bcd60e51b8152600401610ad1906142ab565b6001600160a01b03821660009081526003602052604081206002810154909103612f6d57505050565b6002810154600090612f87670de0b6b3a7640000856143bc565b612f9191906143d3565b8260030154612fa09190614251565b90508160030154811015612ff65760405162461bcd60e51b815260206004820152601e60248201527f4f766572666c6f7720696e207265776172642063616c63756c6174696f6e00006044820152606401610ad1565b80826003018190555082826004016000828254612ef39190614251565b600081116130335760405162461bcd60e51b8152600401610ad19061445b565b6001600160a01b0382166130595760405162461bcd60e51b8152600401610ad1906142ab565b6001600160a01b03821660009081526004602052604081206002810154909103612f6d57505050565b600080546001600160a01b038381166001600160a01b0319831681178455604051919092169283917f8be0079c531659141344cd1fd0a4f28419497f9722a3daafe3b4186f6b6457e09190a35050565b600081116130f25760405162461bcd60e51b8152600401610ad19061445b565b6001600160a01b0382166131185760405162461bcd60e51b8152600401610ad1906142ab565b6001600160a01b0382166000908152600460205260408120600281015490910361314157505050565b600281015460009061315b670de0b6b3a7640000856143bc565b61316591906143d3565b82600501546131749190614251565b90508160050154811015612ed65760405162461bcd60e51b815260206004820152602260248201527f4f766572666c6f7720696e20455448207265776172642063616c63756c61746960448201526137b760f11b6064820152608401610ad1565b6040516001600160a01b03838116602483015260448201839052610b6d91859182169063a9059cbb90606401612da0565b6001600160a01b03831660009081526003602090815260408083206005835281842033855290925290912060028201546132825760405162461bcd60e51b815260206004820152601860248201527f4e6f20455448206c697175696469747920696e20706f6f6c00000000000000006044820152606401610ad1565b80546132d05760405162461bcd60e51b815260206004820152601c60248201527f4e6f20455448206c697175696469747920746f207769746864726177000000006044820152606401610ad1565b60008160020154670de0b6b3a7640000846003015484600101546132f491906143bc565b6132fe91906143d3565b6133089190614390565b90508082600301600082825461331e9190614251565b9250508190555060008260040154670de0b6b3a76400008560050154856001015461334991906143bc565b61335391906143d3565b61335d9190614390565b9050808360050160008282546133739190614251565b92505081905550600061271087856001015461338f91906143bc565b61339991906143d3565b9050600081116133df5760405162461bcd60e51b815260206004820152601160248201527027379039b430b932b9903a3790313ab93760791b6044820152606401610ad1565b83600101548111156134335760405162461bcd60e51b815260206004820152601b60248201527f496e73756666696369656e742073686172657320746f206275726e00000000006044820152606401610ad1565b60008460050154600014801561347257508460040154670de0b6b3a76400008760050154876001015461346691906143bc565b61347091906143d3565b145b90506000811561349e5785546127109061348d908b906143bc565b61349791906143d3565b90506134b4565b6134b18388600101548960020154613f51565b90505b86600101548111156135085760405162461bcd60e51b815260206004820152601860248201527f496e73756666696369656e742045544820696e20706f6f6c00000000000000006044820152606401610ad1565b8086600001600082825461351c9190614390565b92505081905550828660010160008282546135379190614390565b909155505060028701548754600091906135529086906143bc565b61355c91906143d3565b9050818860010160008282546135729190614390565b925050819055508388600201600082825461358d9190614390565b90915550508754819089906000906135a6908490614390565b909155505060038801546001880154670de0b6b3a7640000916135c8916143bc565b6135d291906143d3565b600288015560058801546001880154670de0b6b3a7640000916135f4916143bc565b6135fe91906143d3565b6004880155888210156136535760405162461bcd60e51b815260206004820152601a60248201527f496e73756666696369656e74204554482077697468647261776e0000000000006044820152606401610ad1565b604051600090339084908381818185875af1925050503d8060008114613695576040519150601f19603f3d011682016040523d82523d6000602084013e61369a565b606091505b50509050806136e15760405162461bcd60e51b8152602060048201526013602482015272115512081d1c985b9cd9995c8819985a5b1959606a1b6044820152606401610ad1565b60058801541561375257600588018054600090915561370a6001600160a01b038e1633836131d5565b336001600160a01b03167f48d9f9a1425f348b0f140a293bd86c9ae70a2197b8593d2dc279e24f021f7703828f6000604051613748939291906143f5565b60405180910390a2505b82600a60008282546137649190614251565b909155505060405133907f54ac85787a4de040de34c9da167aa6f74aaf2c8e7fd1cecc11ca8920e64509419061379f908f9087908a90614516565b60405180910390a2505050505050505050505050565b6001600160a01b03831660009081526004602090815260408083206006835281842033855290925290912060028201546138315760405162461bcd60e51b815260206004820152601a60248201527f4e6f20746f6b656e206c697175696469747920696e20706f6f6c0000000000006044820152606401610ad1565b805461387f5760405162461bcd60e51b815260206004820152601e60248201527f4e6f20746f6b656e206c697175696469747920746f20776974686472617700006044820152606401610ad1565b60008160020154670de0b6b3a7640000846003015484600101546138a391906143bc565b6138ad91906143d3565b6138b79190614390565b9050808260030160008282546138cd9190614251565b9250508190555060008260040154670de0b6b3a7640000856005015485600101546138f891906143bc565b61390291906143d3565b61390c9190614390565b9050808360050160008282546139229190614251565b9091555050600583015460009015801561396557508360040154670de0b6b3a76400008660050154866001015461395991906143bc565b61396391906143d3565b145b905060008061271089876001015461397d91906143bc565b61398791906143d3565b9050600081116139cd5760405162461bcd60e51b815260206004820152601160248201527027379039b430b932b9903a3790313ab93760791b6044820152606401610ad1565b8560010154811115613a215760405162461bcd60e51b815260206004820152601b60248201527f496e73756666696369656e742073686172657320746f206275726e00000000006044820152606401610ad1565b8215613a4957855461271090613a38908b906143bc565b613a4291906143d3565b9150613a5f565b613a5c8188600101548960020154613f51565b91505b8660010154821115613ab35760405162461bcd60e51b815260206004820152601b60248201527f496e73756666696369656e7420746f6b656e7320696e20706f6f6c00000000006044820152606401610ad1565b81866000016000828254613ac79190614390565b9250508190555080866001016000828254613ae29190614390565b90915550506002870154875460009190613afd9084906143bc565b613b0791906143d3565b905082886001016000828254613b1d9190614390565b9250508190555081886002016000828254613b389190614390565b9091555050875481908990600090613b51908490614390565b909155505060038801546001880154670de0b6b3a764000091613b73916143bc565b613b7d91906143d3565b600288015560058801546001880154670de0b6b3a764000091613b9f916143bc565b613ba991906143d3565b600488015588831015613bfe5760405162461bcd60e51b815260206004820152601c60248201527f496e73756666696369656e7420746f6b656e2077697468647261776e000000006044820152606401610ad1565b613c126001600160a01b038c1633856131d5565b600587015415613d0957600587018054600091829055604051909190339083908381818185875af1925050503d8060008114613c6a576040519150601f19603f3d011682016040523d82523d6000602084013e613c6f565b606091505b5050905080613cc05760405162461bcd60e51b815260206004820152601a60248201527f45544820726577617264207472616e73666572206661696c65640000000000006044820152606401610ad1565b336001600160a01b03167f48d9f9a1425f348b0f140a293bd86c9ae70a2197b8593d2dc279e24f021f7703838f6001604051613cfe939291906143f5565b60405180910390a250505b82600c6000828254613d1b9190614251565b909155505060405133907fd962f00b708afdbb0a7b6ed85558339dcca1fbec2ec46f06f9817453a228995590613d56908e9087908790614516565b60405180910390a25050505050505050505050565b6001600160a01b03808316600090815260036020908152604080832060058352818420948616845293909152812060028301549192918303613db25760009250505061175b565b60028201546001820154613dc8906127106143bc565b611fa091906143d3565b6001600160a01b03808316600090815260046020908152604080832060068352818420948616845293909152812060028301549192918303613db25760009250505061175b565b6000808411613e6a5760405162461bcd60e51b815260206004820152601d60248201527f416d6f756e74206d7573742062652067726561746572207468616e20300000006044820152606401610ad1565b81600003613e79575082611bcc565b82613e8483866143bc565b613e8e91906143d3565b905060008111611bcc5760405162461bcd60e51b815260206004820152601b60248201527f496e73756666696369656e742073686172657320746f206d696e7400000000006044820152606401610ad1565b600080602060008451602086016000885af180613f03576040513d6000823e3d81fd5b50506000513d91508115613f1b578060011415613f28565b6001600160a01b0384163b155b1561269e57604051635274afe760e01b81526001600160a01b0385166004820152602401610ad1565b6000808411613fb05760405162461bcd60e51b815260206004820152602560248201527f53686172657320746f206275726e206d75737420626520677265617465722074604482015264068616e20360dc1b6064820152608401610ad1565b6000821161400c5760405162461bcd60e51b815260206004820152602360248201527f546f74616c20736861726573206d75737420626520677265617465722074686160448201526206e20360ec1b6064820152608401610ad1565b8161401784866143bc565b61402191906143d3565b905082811115611bcc5760405162461bcd60e51b815260206004820152602660248201527f5769746864726177616c20616d6f756e74206578636565647320706f6f6c2062604482015265616c616e636560d01b6064820152608401610ad1565b6001600160a01b03811681146111b857600080fd5b6000602082840312156140a957600080fd5b8135611bcc81614082565b600080604083850312156140c757600080fd5b82356140d281614082565b946020939093013593505050565b600080604083850312156140f357600080fd5b82356140fe81614082565b9150602083013561410e81614082565b809150509250929050565b60006020828403121561412b57600080fd5b5035919050565b60008060006060848603121561414757600080fd5b833561415281614082565b95602085013595506040909401359392505050565b80151581146111b857600080fd5b6000806040838503121561418857600080fd5b823561419381614082565b9150602083013561410e81614167565b600080600080608085870312156141b957600080fd5b84356141c481614082565b966020860135965060408601359560600135945092505050565b815181526020808301519082015260408083015190820152606080830151908201526080808301519082015260a0808301519082015260c0808301519082015260e0808301516001600160a01b031690820152610100810161175b565b634e487b7160e01b600052601160045260246000fd5b8082018082111561175b5761175b61423b565b60006020828403121561427657600080fd5b8151611bcc81614167565b60208082526010908201526f151bdad95b881a5cc8189b1bd8dad95960821b604082015260600190565b602080825260159082015274496e76616c696420746f6b656e206164647265737360581b604082015260600190565b60208082526013908201527214185a5c88191bd95cc81b9bdd08195e1a5cdd606a1b604082015260600190565b80516001600160701b038116811461431e57600080fd5b919050565b60008060006060848603121561433857600080fd5b61434184614307565b925061434f60208501614307565b9150604084015163ffffffff8116811461436857600080fd5b809150509250925092565b60006020828403121561438557600080fd5b8151611bcc81614082565b8181038181111561175b5761175b61423b565b6000602082840312156143b557600080fd5b5051919050565b808202811582820484141761175b5761175b61423b565b6000826143f057634e487b7160e01b600052601260045260246000fd5b500490565b9283526001600160a01b039190911660208301521515604082015260600190565b60208082526025908201527f4f6e6c79206f72646572626f6f6b2063616e2063616c6c20746869732066756e60408201526431ba34b7b760d91b606082015260800190565b60208082526021908201527f45544820616d6f756e74206d7573742062652067726561746572207468616e206040820152600360fc1b606082015260800190565b60208082526023908201527f546f6b656e20616d6f756e74206d75737420626520677265617465722074686160408201526206e20360ec1b606082015260800190565b60208082526019908201527f496e76616c6964207368617265732070657263656e7461676500000000000000604082015260600190565b6001600160a01b03939093168352602083019190915260408201526060019056fea264697066735822122021146932a6eae37cd44e1269edc7e943fda6aaefdf80fb1b45f5619f0ee3075e64736f6c634300081a0033",
  "linkReferences": {},
  "deployedLinkReferences": {}
}