{
  "_format": "hh-sol-artifact-1",
  "contractName": "GradientMarketMakerPool",
  "sourceName": "contracts/GradientMarketMakerPool.sol",
  "abi": [
    {
      "inputs": [
        {
          "internalType": "contract IGradientRegistry",
          "name": "_gradientRegistry",
          "type": "address"
        }
      ],
      "stateMutability": "nonpayable",
      "type": "constructor"
    },
    {
      "inputs": [
        {
          "internalType": "address",
          "name": "owner",
          "type": "address"
        }
      ],
      "name": "OwnableInvalidOwner",
      "type": "error"
    },
    {
      "inputs": [
        {
          "internalType": "address",
          "name": "account",
          "type": "address"
        }
      ],
      "name": "OwnableUnauthorizedAccount",
      "type": "error"
    },
    {
      "inputs": [],
      "name": "ReentrancyGuardReentrantCall",
      "type": "error"
    },
    {
      "inputs": [
        {
          "internalType": "address",
          "name": "token",
          "type": "address"
        }
      ],
      "name": "SafeERC20FailedOperation",
      "type": "error"
    },
    {
      "anonymous": false,
      "inputs": [
        {
          "indexed": true,
          "internalType": "address",
          "name": "orderbook",
          "type": "address"
        },
        {
          "indexed": false,
          "internalType": "uint256",
          "name": "amount",
          "type": "uint256"
        },
        {
          "indexed": true,
          "internalType": "address",
          "name": "token",
          "type": "address"
        }
      ],
      "name": "ETHReceivedFromOrderbook",
      "type": "event"
    },
    {
      "anonymous": false,
      "inputs": [
        {
          "indexed": true,
          "internalType": "address",
          "name": "orderbook",
          "type": "address"
        },
        {
          "indexed": false,
          "internalType": "uint256",
          "name": "amount",
          "type": "uint256"
        },
        {
          "indexed": true,
          "internalType": "address",
          "name": "token",
          "type": "address"
        }
      ],
      "name": "ETHTransferredToOrderbook",
      "type": "event"
    },
    {
      "anonymous": false,
      "inputs": [
        {
          "indexed": true,
          "internalType": "address",
          "name": "user",
          "type": "address"
        },
        {
          "indexed": false,
          "internalType": "address",
          "name": "token",
          "type": "address"
        },
        {
          "indexed": false,
          "internalType": "uint256",
          "name": "ethAmount",
          "type": "uint256"
        },
        {
          "indexed": false,
          "internalType": "uint256",
          "name": "tokenAmount",
          "type": "uint256"
        },
        {
          "indexed": false,
          "internalType": "uint256",
          "name": "lpSharesMinted",
          "type": "uint256"
        }
      ],
      "name": "LiquidityDeposited",
      "type": "event"
    },
    {
      "anonymous": false,
      "inputs": [
        {
          "indexed": true,
          "internalType": "address",
          "name": "user",
          "type": "address"
        },
        {
          "indexed": false,
          "internalType": "uint256",
          "name": "tokenAmount",
          "type": "uint256"
        },
        {
          "indexed": false,
          "internalType": "uint256",
          "name": "ethAmount",
          "type": "uint256"
        },
        {
          "indexed": false,
          "internalType": "uint256",
          "name": "lpSharesBurned",
          "type": "uint256"
        }
      ],
      "name": "LiquidityWithdrawn",
      "type": "event"
    },
    {
      "anonymous": false,
      "inputs": [
        {
          "indexed": true,
          "internalType": "address",
          "name": "previousOwner",
          "type": "address"
        },
        {
          "indexed": true,
          "internalType": "address",
          "name": "newOwner",
          "type": "address"
        }
      ],
      "name": "OwnershipTransferred",
      "type": "event"
    },
    {
      "anonymous": false,
      "inputs": [
        {
          "indexed": true,
          "internalType": "address",
          "name": "token",
          "type": "address"
        },
        {
          "indexed": false,
          "internalType": "uint256",
          "name": "newTotalEth",
          "type": "uint256"
        },
        {
          "indexed": false,
          "internalType": "uint256",
          "name": "newTotalToken",
          "type": "uint256"
        },
        {
          "indexed": false,
          "internalType": "uint256",
          "name": "newTotalLiquidity",
          "type": "uint256"
        },
        {
          "indexed": false,
          "internalType": "uint256",
          "name": "newTotalLPShares",
          "type": "uint256"
        }
      ],
      "name": "PoolBalanceUpdated",
      "type": "event"
    },
    {
      "anonymous": false,
      "inputs": [
        {
          "indexed": true,
          "internalType": "address",
          "name": "user",
          "type": "address"
        },
        {
          "indexed": false,
          "internalType": "uint256",
          "name": "amount",
          "type": "uint256"
        }
      ],
      "name": "RewardClaimed",
      "type": "event"
    },
    {
      "anonymous": false,
      "inputs": [
        {
          "indexed": true,
          "internalType": "address",
          "name": "from",
          "type": "address"
        },
        {
          "indexed": false,
          "internalType": "uint256",
          "name": "amount",
          "type": "uint256"
        }
      ],
      "name": "RewardDeposited",
      "type": "event"
    },
    {
      "anonymous": false,
      "inputs": [
        {
          "indexed": true,
          "internalType": "address",
          "name": "orderbook",
          "type": "address"
        },
        {
          "indexed": true,
          "internalType": "address",
          "name": "token",
          "type": "address"
        },
        {
          "indexed": false,
          "internalType": "uint256",
          "name": "amount",
          "type": "uint256"
        }
      ],
      "name": "TokenReceivedFromOrderbook",
      "type": "event"
    },
    {
      "anonymous": false,
      "inputs": [
        {
          "indexed": true,
          "internalType": "address",
          "name": "orderbook",
          "type": "address"
        },
        {
          "indexed": true,
          "internalType": "address",
          "name": "token",
          "type": "address"
        },
        {
          "indexed": false,
          "internalType": "uint256",
          "name": "amount",
          "type": "uint256"
        }
      ],
      "name": "TokenTransferredToOrderbook",
      "type": "event"
    },
    {
      "inputs": [],
      "name": "SCALE",
      "outputs": [
        {
          "internalType": "uint256",
          "name": "",
          "type": "uint256"
        }
      ],
      "stateMutability": "view",
      "type": "function"
    },
    {
      "inputs": [
        {
          "internalType": "address",
          "name": "token",
          "type": "address"
        }
      ],
      "name": "claimReward",
      "outputs": [],
      "stateMutability": "nonpayable",
      "type": "function"
    },
    {
      "inputs": [],
      "name": "emergencyWithdraw",
      "outputs": [],
      "stateMutability": "nonpayable",
      "type": "function"
    },
    {
      "inputs": [
        {
          "internalType": "address",
          "name": "token",
          "type": "address"
        }
      ],
      "name": "getPairAddress",
      "outputs": [
        {
          "internalType": "address",
          "name": "pairAddress",
          "type": "address"
        }
      ],
      "stateMutability": "view",
      "type": "function"
    },
    {
      "inputs": [
        {
          "internalType": "address",
          "name": "token",
          "type": "address"
        }
      ],
      "name": "getPoolInfo",
      "outputs": [
        {
          "components": [
            {
              "internalType": "uint256",
              "name": "totalEth",
              "type": "uint256"
            },
            {
              "internalType": "uint256",
              "name": "totalToken",
              "type": "uint256"
            },
            {
              "internalType": "uint256",
              "name": "totalLiquidity",
              "type": "uint256"
            },
            {
              "internalType": "uint256",
              "name": "totalLPShares",
              "type": "uint256"
            },
            {
              "internalType": "uint256",
              "name": "accRewardPerShare",
              "type": "uint256"
            },
            {
              "internalType": "uint256",
              "name": "rewardBalance",
              "type": "uint256"
            },
            {
              "internalType": "address",
              "name": "uniswapPair",
              "type": "address"
            }
          ],
          "internalType": "struct IGradientMarketMakerPool.PoolInfo",
          "name": "",
          "type": "tuple"
        }
      ],
      "stateMutability": "view",
      "type": "function"
    },
    {
      "inputs": [
        {
          "internalType": "address",
          "name": "token",
          "type": "address"
        }
      ],
      "name": "getReserves",
      "outputs": [
        {
          "internalType": "uint256",
          "name": "reserveETH",
          "type": "uint256"
        },
        {
          "internalType": "uint256",
          "name": "reserveToken",
          "type": "uint256"
        }
      ],
      "stateMutability": "view",
      "type": "function"
    },
    {
      "inputs": [
        {
          "internalType": "address",
          "name": "token",
          "type": "address"
        },
        {
          "internalType": "address",
          "name": "user",
          "type": "address"
        }
      ],
      "name": "getUserLPShares",
      "outputs": [
        {
          "internalType": "uint256",
          "name": "lpShares",
          "type": "uint256"
        }
      ],
      "stateMutability": "view",
      "type": "function"
    },
    {
      "inputs": [
        {
          "internalType": "address",
          "name": "token",
          "type": "address"
        },
        {
          "internalType": "address",
          "name": "user",
          "type": "address"
        }
      ],
      "name": "getUserSharePercentage",
      "outputs": [
        {
          "internalType": "uint256",
          "name": "sharePercentage",
          "type": "uint256"
        }
      ],
      "stateMutability": "view",
      "type": "function"
    },
    {
      "inputs": [],
      "name": "gradientRegistry",
      "outputs": [
        {
          "internalType": "contract IGradientRegistry",
          "name": "",
          "type": "address"
        }
      ],
      "stateMutability": "view",
      "type": "function"
    },
    {
      "inputs": [
        {
          "internalType": "address",
          "name": "",
          "type": "address"
        },
        {
          "internalType": "address",
          "name": "",
          "type": "address"
        }
      ],
      "name": "marketMakers",
      "outputs": [
        {
          "internalType": "uint256",
          "name": "tokenAmount",
          "type": "uint256"
        },
        {
          "internalType": "uint256",
          "name": "ethAmount",
          "type": "uint256"
        },
        {
          "internalType": "uint256",
          "name": "lpShares",
          "type": "uint256"
        },
        {
          "internalType": "uint256",
          "name": "rewardDebt",
          "type": "uint256"
        },
        {
          "internalType": "uint256",
          "name": "pendingReward",
          "type": "uint256"
        }
      ],
      "stateMutability": "view",
      "type": "function"
    },
    {
      "inputs": [],
      "name": "owner",
      "outputs": [
        {
          "internalType": "address",
          "name": "",
          "type": "address"
        }
      ],
      "stateMutability": "view",
      "type": "function"
    },
    {
      "inputs": [
        {
          "internalType": "address",
          "name": "",
          "type": "address"
        }
      ],
      "name": "pools",
      "outputs": [
        {
          "internalType": "uint256",
          "name": "totalEth",
          "type": "uint256"
        },
        {
          "internalType": "uint256",
          "name": "totalToken",
          "type": "uint256"
        },
        {
          "internalType": "uint256",
          "name": "totalLiquidity",
          "type": "uint256"
        },
        {
          "internalType": "uint256",
          "name": "totalLPShares",
          "type": "uint256"
        },
        {
          "internalType": "uint256",
          "name": "accRewardPerShare",
          "type": "uint256"
        },
        {
          "internalType": "uint256",
          "name": "rewardBalance",
          "type": "uint256"
        },
        {
          "internalType": "address",
          "name": "uniswapPair",
          "type": "address"
        }
      ],
      "stateMutability": "view",
      "type": "function"
    },
    {
      "inputs": [
        {
          "internalType": "address",
          "name": "token",
          "type": "address"
        },
        {
          "internalType": "uint256",
          "name": "tokenAmount",
          "type": "uint256"
        }
      ],
      "name": "provideLiquidity",
      "outputs": [],
      "stateMutability": "payable",
      "type": "function"
    },
    {
      "inputs": [
        {
          "internalType": "address",
          "name": "token",
          "type": "address"
        },
        {
          "internalType": "uint256",
          "name": "amount",
          "type": "uint256"
        }
      ],
      "name": "receiveETHFromOrderbook",
      "outputs": [],
      "stateMutability": "payable",
      "type": "function"
    },
    {
      "inputs": [
        {
          "internalType": "address",
          "name": "token",
          "type": "address"
        }
      ],
      "name": "receiveFeeDistribution",
      "outputs": [],
      "stateMutability": "payable",
      "type": "function"
    },
    {
      "inputs": [
        {
          "internalType": "address",
          "name": "token",
          "type": "address"
        },
        {
          "internalType": "uint256",
          "name": "amount",
          "type": "uint256"
        }
      ],
      "name": "receiveTokenFromOrderbook",
      "outputs": [],
      "stateMutability": "nonpayable",
      "type": "function"
    },
    {
      "inputs": [],
      "name": "renounceOwnership",
      "outputs": [],
      "stateMutability": "nonpayable",
      "type": "function"
    },
    {
      "inputs": [
        {
          "internalType": "contract IGradientRegistry",
          "name": "_gradientRegistry",
          "type": "address"
        }
      ],
      "name": "setRegistry",
      "outputs": [],
      "stateMutability": "nonpayable",
      "type": "function"
    },
    {
      "inputs": [
        {
          "internalType": "address",
          "name": "token",
          "type": "address"
        },
        {
          "internalType": "uint256",
          "name": "amount",
          "type": "uint256"
        }
      ],
      "name": "transferETHToOrderbook",
      "outputs": [],
      "stateMutability": "nonpayable",
      "type": "function"
    },
    {
      "inputs": [
        {
          "internalType": "address",
          "name": "newOwner",
          "type": "address"
        }
      ],
      "name": "transferOwnership",
      "outputs": [],
      "stateMutability": "nonpayable",
      "type": "function"
    },
    {
      "inputs": [
        {
          "internalType": "address",
          "name": "token",
          "type": "address"
        },
        {
          "internalType": "uint256",
          "name": "amount",
          "type": "uint256"
        }
      ],
      "name": "transferTokenToOrderbook",
      "outputs": [],
      "stateMutability": "nonpayable",
      "type": "function"
    },
    {
      "inputs": [
        {
          "internalType": "address",
          "name": "token",
          "type": "address"
        },
        {
          "internalType": "uint256",
          "name": "shares",
          "type": "uint256"
        }
      ],
      "name": "withdrawLiquidity",
      "outputs": [],
      "stateMutability": "nonpayable",
      "type": "function"
    },
    {
      "stateMutability": "payable",
      "type": "receive"
    }
  ],
  "bytecode": "0x608060405234801561001057600080fd5b50604051612aab380380612aab83398101604081905261002f916100d8565b338061005557604051631e4fbdf760e01b81526000600482015260240160405180910390fd5b61005e81610088565b5060018055600280546001600160a01b0319166001600160a01b0392909216919091179055610108565b600080546001600160a01b038381166001600160a01b0319831681178455604051919092169283917f8be0079c531659141344cd1fd0a4f28419497f9722a3daafe3b4186f6b6457e09190a35050565b6000602082840312156100ea57600080fd5b81516001600160a01b038116811461010157600080fd5b9392505050565b612994806101176000396000f3fe6080604052600436106101395760003560e01c80638a57fddd116100ab578063ae8b804d1161006f578063ae8b804d1461048c578063d279c191146104ac578063db2e21bc146104cc578063e706fad8146104e1578063eced552614610501578063f2fde38b1461051d57600080fd5b80638a57fddd1461037b5780638da5cb5b1461038e578063a4063dbc146103ac578063a91ee0dc1461044c578063adabfa051461046c57600080fd5b80635fea6120116100fd5780635fea6120146102ad578063715018a6146102c05780637e49b933146102d55780637e7c7a9514610303578063830562bc1461032357806385e694b61461035b57600080fd5b806306bfa9381461014557806306d47de9146101c85780633e99c1e4146101ea57806340a16e261461021f578063576f44721461029a57600080fd5b3661014057005b600080fd5b34801561015157600080fd5b5061016561016036600461268e565b61053d565b6040516101bf9190815181526020808301519082015260408083015190820152606080830151908201526080808301519082015260a0808301519082015260c0918201516001600160a01b03169181019190915260e00190565b60405180910390f35b3480156101d457600080fd5b506101e86101e33660046126b2565b6105f6565b005b3480156101f657600080fd5b5061020a61020536600461268e565b610a6f565b604080519283526020830191909152016101bf565b34801561022b57600080fd5b5061027261023a3660046126de565b600460208181526000938452604080852090915291835291208054600182015460028301546003840154939094015491939092909185565b604080519586526020860194909452928401919091526060830152608082015260a0016101bf565b6101e86102a836600461268e565b610bb1565b6101e86102bb3660046126b2565b610db8565b3480156102cc57600080fd5b506101e861113b565b3480156102e157600080fd5b506102f56102f03660046126de565b61114f565b6040519081526020016101bf565b34801561030f57600080fd5b506101e861031e3660046126b2565b61117f565b34801561032f57600080fd5b50600254610343906001600160a01b031681565b6040516001600160a01b0390911681526020016101bf565b34801561036757600080fd5b5061034361037636600461268e565b6114fe565b6101e86103893660046126b2565b611712565b34801561039a57600080fd5b506000546001600160a01b0316610343565b3480156103b857600080fd5b5061040e6103c736600461268e565b60036020819052600091825260409091208054600182015460028301549383015460048401546005850154600690950154939592949293919290916001600160a01b031687565b604080519788526020880196909652948601939093526060850191909152608084015260a08301526001600160a01b031660c082015260e0016101bf565b34801561045857600080fd5b506101e861046736600461268e565b611a2f565b34801561047857600080fd5b506101e86104873660046126b2565b611b1c565b34801561049857600080fd5b506102f56104a73660046126de565b611de9565b3480156104b857600080fd5b506101e86104c736600461268e565b611e58565b3480156104d857600080fd5b506101e8612018565b3480156104ed57600080fd5b506101e86104fc3660046126b2565b6120be565b34801561050d57600080fd5b506102f5670de0b6b3a764000081565b34801561052957600080fd5b506101e861053836600461268e565b612400565b6105866040518060e0016040528060008152602001600081526020016000815260200160008152602001600081526020016000815260200160006001600160a01b031681525090565b506001600160a01b03908116600090815260036020818152604092839020835160e0810185528154815260018201549281019290925260028101549382019390935290820154606082015260048201546080820152600582015460a082015260069091015490911660c082015290565b6105fe61243b565b6001600160a01b038216600090815260036020908152604080832060048352818420338552909252909120821580159061063a57506127108311155b61068b5760405162461bcd60e51b815260206004820152601960248201527f496e76616c6964207368617265732070657263656e746167650000000000000060448201526064015b60405180910390fd5b60008260020154116106d65760405162461bcd60e51b8152602060048201526014602482015273139bc81b1a5c5d5a591a5d1e481a5b881c1bdbdb60621b6044820152606401610682565b600181015481546000916106e99161272d565b90506000811161073b5760405162461bcd60e51b815260206004820152601860248201527f4e6f206c697175696469747920746f20776974686472617700000000000000006044820152606401610682565b60008260030154670de0b6b3a764000085600401548461075b9190612740565b6107659190612757565b61076f9190612779565b905080836004016000828254610785919061272d565b9250508190555060006127108685600201546107a19190612740565b6107ab9190612757565b9050600081116107f15760405162461bcd60e51b815260206004820152601160248201527027379039b430b932b9903a3790313ab93760791b6044820152606401610682565b600085600301548287600101546108089190612740565b6108129190612757565b90506000866003015483886000015461082b9190612740565b6108359190612757565b9050600061271089886000015461084c9190612740565b6108569190612757565b905060006127108a896001015461086d9190612740565b6108779190612757565b90508188600001600082825461088d9190612779565b92505081905550808860010160008282546108a89190612779565b92505081905550848860020160008282546108c39190612779565b909155506108d39050838561272d565b8960020160008282546108e69190612779565b92505081905550838960010160008282546109019190612779565b9091555050885483908a9060009061091a908490612779565b92505081905550848960030160008282546109359190612779565b9091555050600489015460018901548954670de0b6b3a7640000929161095a9161272d565b6109649190612740565b61096e9190612757565b60038901556109876001600160a01b038c163386612465565b604051600090339085908381818185875af1925050503d80600081146109c9576040519150601f19603f3d011682016040523d82523d6000602084013e6109ce565b606091505b5050905080610a155760405162461bcd60e51b8152602060048201526013602482015272115512081d1c985b9cd9995c8819985a5b1959606a1b6044820152606401610682565b604080518681526020810186905290810187905233907f9746cd459b192e14d25047ee6f0c763709fc38435eb4883830cf715de0a40ac09060600160405180910390a250505050505050505050610a6b60018055565b5050565b6000806000610a7d846114fe565b90506001600160a01b038116610aa55760405162461bcd60e51b81526004016106829061278c565b600080826001600160a01b0316630902f1ac6040518163ffffffff1660e01b8152600401606060405180830381865afa158015610ae6573d6000803e3d6000fd5b505050506040513d601f19601f82011682018060405250810190610b0a91906127d5565b50915091506000836001600160a01b0316630dfe16816040518163ffffffff1660e01b8152600401602060405180830381865afa158015610b4f573d6000803e3d6000fd5b505050506040513d601f19601f82011682018060405250810190610b739190612825565b9050866001600160a01b0316816001600160a01b031614610b95578282610b98565b81835b6001600160701b03918216999116975095505050505050565b806000610bbd826114fe565b90506001600160a01b038116610be55760405162461bcd60e51b81526004016106829061278c565b6001600160a01b0382811660009081526003602052604090206006015416610c1f5760405162461bcd60e51b815260040161068290612842565b6002546040516316ed852560e01b81523360048201526001600160a01b03909116906316ed852590602401602060405180830381865afa158015610c67573d6000803e3d6000fd5b505050506040513d601f19601f82011682018060405250810190610c8b9190612870565b610cee5760405162461bcd60e51b815260206004820152602e60248201527f4f6e6c7920726577617264206469737472696275746f722063616e2063616c6c60448201526d103a3434b990333ab731ba34b7b760911b6064820152608401610682565b6001600160a01b03831660009081526003602052604090206002810154610d275760405162461bcd60e51b815260040161068290612892565b60003411610d655760405162461bcd60e51b815260206004820152600b60248201526a139bc8115512081cd95b9d60aa1b6044820152606401610682565b610d6f84346124c9565b836001600160a01b03167f7dbc080e4530c8bcf265eb5c9a35ae096ca1eb607b7e802b96581ef4c5e1a70334604051610daa91815260200190565b60405180910390a250505050565b610dc061243b565b6001600160a01b0380831660009081526003602052604090206006810154909116610e1157610dee836114fe565b6006820180546001600160a01b0319166001600160a01b03929092169190911790555b60068101546001600160a01b0316610e3b5760405162461bcd60e51b81526004016106829061278c565b600080610e4785610a6f565b9092509050600082610e598334612740565b610e639190612757565b90506064610e72826063612740565b610e7c9190612757565b8510158015610ea157506064610e93826065612740565b610e9d9190612757565b8511155b610eed5760405162461bcd60e51b815260206004820152601760248201527f496e76616c6964206c697175696469747920726174696f0000000000000000006044820152606401610682565b610f026001600160a01b03871633308861254c565b6001600160a01b0386166000908152600460209081526040808320338452909152812060018101548154919291610f39919061272d565b90508015610f925760008260030154670de0b6b3a7640000886004015484610f619190612740565b610f6b9190612757565b610f759190612779565b905080836004016000828254610f8b919061272d565b9091555050505b60008660030154600003610fb157610faa348961272d565b9050610fe2565b6000610fbd348a61272d565b90508760020154886003015482610fd49190612740565b610fde9190612757565b9150505b34836001016000828254610ff6919061272d565b909155505082548890849060009061100f90849061272d565b925050819055508083600201600082825461102a919061272d565b9091555050600487015460018401548454670de0b6b3a7640000929161104f9161272d565b6110599190612740565b6110639190612757565b6003840155611072348961272d565b876002016000828254611085919061272d565b909155505086543490889060009061109e90849061272d565b92505081905550878760010160008282546110b9919061272d565b92505081905550808760030160008282546110d4919061272d565b9091555050604080516001600160a01b038b1681523460208201529081018990526060810182905233907f76eb95a037bfb0d0de0d9534dc6b6c0be4c3c7b9f6e31fd4d34d2339de6dbcd89060800160405180910390a250505050505050610a6b60018055565b61114361258b565b61114d60006125b8565b565b6001600160a01b038083166000908152600460209081526040808320938516835292905220600201545b92915050565b600254604051630736b32b60e31b81526001600160a01b038085166004830152849216906339b5995890602401602060405180830381865afa1580156111c9573d6000803e3d6000fd5b505050506040513d601f19601f820116820180604052508101906111ed9190612870565b1561120a5760405162461bcd60e51b8152600401610682906128b8565b826000611216826114fe565b90506001600160a01b03811661123e5760405162461bcd60e51b81526004016106829061278c565b6001600160a01b03828116600090815260036020526040902060060154166112785760405162461bcd60e51b815260040161068290612842565b600260009054906101000a90046001600160a01b03166001600160a01b031663c18b1d5e6040518163ffffffff1660e01b8152600401602060405180830381865afa1580156112cb573d6000803e3d6000fd5b505050506040513d601f19601f820116820180604052508101906112ef9190612825565b6001600160a01b0316336001600160a01b03161461131f5760405162461bcd60e51b8152600401610682906128e2565b6000841161133f5760405162461bcd60e51b815260040161068290612927565b4784111561138f5760405162461bcd60e51b815260206004820152601860248201527f496e73756666696369656e74204554482062616c616e636500000000000000006044820152606401610682565b6001600160a01b038516600090815260036020526040902060028101546113c85760405162461bcd60e51b815260040161068290612892565b848160000160008282546113dc9190612779565b92505081905550848160020160008282546113f79190612779565b9091555050604051600090339087908381818185875af1925050503d806000811461143e576040519150601f19603f3d011682016040523d82523d6000602084013e611443565b606091505b50509050806114945760405162461bcd60e51b815260206004820181905260248201527f455448207472616e7366657220746f206f72646572626f6f6b206661696c65646044820152606401610682565b81546001830154600284015460038501546040805194855260208501939093529183015260608201526001600160a01b038816907fe7a1849d3d3b81e99267b68a3889d2f466ac59697fa69ed9f94d306737f6ecd89060800160405180910390a250505050505050565b600080600260009054906101000a90046001600160a01b03166001600160a01b031663f887ea406040518163ffffffff1660e01b8152600401602060405180830381865afa158015611554573d6000803e3d6000fd5b505050506040513d601f19601f820116820180604052508101906115789190612825565b90506001600160a01b0381166115c15760405162461bcd60e51b815260206004820152600e60248201526d149bdd5d195c881b9bdd081cd95d60921b6044820152606401610682565b60008190506000816001600160a01b031663c45a01556040518163ffffffff1660e01b8152600401602060405180830381865afa158015611606573d6000803e3d6000fd5b505050506040513d601f19601f8201168201806040525081019061162a9190612825565b90506000826001600160a01b031663ad5c46486040518163ffffffff1660e01b8152600401602060405180830381865afa15801561166c573d6000803e3d6000fd5b505050506040513d601f19601f820116820180604052508101906116909190612825565b60405163e6a4390560e01b81526001600160a01b0388811660048301528083166024830152919250839182169063e6a4390590604401602060405180830381865afa1580156116e3573d6000803e3d6000fd5b505050506040513d601f19601f820116820180604052508101906117079190612825565b979650505050505050565b600254604051630736b32b60e31b81526001600160a01b038085166004830152849216906339b5995890602401602060405180830381865afa15801561175c573d6000803e3d6000fd5b505050506040513d601f19601f820116820180604052508101906117809190612870565b1561179d5760405162461bcd60e51b8152600401610682906128b8565b8260006117a9826114fe565b90506001600160a01b0381166117d15760405162461bcd60e51b81526004016106829061278c565b6001600160a01b038281166000908152600360205260409020600601541661180b5760405162461bcd60e51b815260040161068290612842565b600260009054906101000a90046001600160a01b03166001600160a01b031663c18b1d5e6040518163ffffffff1660e01b8152600401602060405180830381865afa15801561185e573d6000803e3d6000fd5b505050506040513d601f19601f820116820180604052508101906118829190612825565b6001600160a01b0316336001600160a01b0316146118b25760405162461bcd60e51b8152600401610682906128e2565b600084116118d25760405162461bcd60e51b815260040161068290612927565b8334146119175760405162461bcd60e51b815260206004820152601360248201527208aa89040c2dadeeadce840dad2e6dac2e8c6d606b1b6044820152606401610682565b6001600160a01b038516600090815260036020526040902060028101546119505760405162461bcd60e51b815260040161068290612892565b84816000016000828254611964919061272d565b925050819055508481600201600082825461197f919061272d565b90915550506040518581526001600160a01b0387169033907fa83dbe67a8301965c2dd933c3feb89cae1783e4a8825466fd979d121f3f7ef69906020015b60405180910390a380546001820154600283015460038401546040805194855260208501939093529183015260608201526001600160a01b038716907fe7a1849d3d3b81e99267b68a3889d2f466ac59697fa69ed9f94d306737f6ecd8906080015b60405180910390a2505050505050565b611a3761258b565b60006001600160a01b0316816001600160a01b0316634513443a6040518163ffffffff1660e01b8152600401602060405180830381865afa158015611a80573d6000803e3d6000fd5b505050506040513d601f19601f82011682018060405250810190611aa49190612825565b6001600160a01b031603611afa5760405162461bcd60e51b815260206004820152601960248201527f496e76616c6964206772616469656e74207265676973747279000000000000006044820152606401610682565b600280546001600160a01b0319166001600160a01b0392909216919091179055565b600254604051630736b32b60e31b81526001600160a01b038085166004830152849216906339b5995890602401602060405180830381865afa158015611b66573d6000803e3d6000fd5b505050506040513d601f19601f82011682018060405250810190611b8a9190612870565b15611ba75760405162461bcd60e51b8152600401610682906128b8565b826000611bb3826114fe565b90506001600160a01b038116611bdb5760405162461bcd60e51b81526004016106829061278c565b6001600160a01b0382811660009081526003602052604090206006015416611c155760405162461bcd60e51b815260040161068290612842565b600260009054906101000a90046001600160a01b03166001600160a01b031663c18b1d5e6040518163ffffffff1660e01b8152600401602060405180830381865afa158015611c68573d6000803e3d6000fd5b505050506040513d601f19601f82011682018060405250810190611c8c9190612825565b6001600160a01b0316336001600160a01b031614611cbc5760405162461bcd60e51b8152600401610682906128e2565b60008411611cdc5760405162461bcd60e51b815260040161068290612927565b6001600160a01b038516611d2a5760405162461bcd60e51b8152602060048201526015602482015274496e76616c696420746f6b656e206164647265737360581b6044820152606401610682565b6001600160a01b03851660009081526003602052604090206002810154611d635760405162461bcd60e51b815260040161068290612892565b611d786001600160a01b03871633308861254c565b84816001016000828254611d8c919061272d565b9250508190555084816002016000828254611da7919061272d565b90915550506040518581526001600160a01b0387169033907fb61579a10a10e72eda8e63b6e1224e007f5c4108c1378c9a831a11363a74b75a906020016119bd565b6001600160a01b038083166000908152600360208181526040808420600483528185209587168552949091528220908301549192918303611e2f57600092505050611179565b60038201546002820154611e4590612710612740565b611e4f9190612757565b95945050505050565b611e6061243b565b6001600160a01b0381166000908152600360209081526040808320600483528184203385529092529091206002810154611eac5760405162461bcd60e51b815260040161068290612892565b6000670de0b6b3a764000083600401548360020154611ecb9190612740565b611ed59190612757565b905060008260040154836003015483611eee9190612779565b611ef8919061272d565b905060008111611f375760405162461bcd60e51b815260206004820152600a6024820152694e6f207265776172647360b01b6044820152606401610682565b60038301829055600060048401819055604051339083908381818185875af1925050503d8060008114611f86576040519150601f19603f3d011682016040523d82523d6000602084013e611f8b565b606091505b5050905080611fd25760405162461bcd60e51b8152602060048201526013602482015272115512081d1c985b9cd9995c8819985a5b1959606a1b6044820152606401610682565b60405182815233907f106f923f993c2149d49b4255ff723acafa1f2d94393f561d3eda32ae348f72419060200160405180910390a2505050505061201560018055565b50565b61202061258b565b47801561201557600080546040516001600160a01b039091169083908381818185875af1925050503d8060008114612074576040519150601f19603f3d011682016040523d82523d6000602084013e612079565b606091505b5050905080610a6b5760405162461bcd60e51b815260206004820152601160248201527015da5d1a191c985dd85b0819985a5b1959607a1b6044820152606401610682565b600254604051630736b32b60e31b81526001600160a01b038085166004830152849216906339b5995890602401602060405180830381865afa158015612108573d6000803e3d6000fd5b505050506040513d601f19601f8201168201806040525081019061212c9190612870565b156121495760405162461bcd60e51b8152600401610682906128b8565b826000612155826114fe565b90506001600160a01b03811661217d5760405162461bcd60e51b81526004016106829061278c565b6001600160a01b03828116600090815260036020526040902060060154166121b75760405162461bcd60e51b815260040161068290612842565b600260009054906101000a90046001600160a01b03166001600160a01b031663c18b1d5e6040518163ffffffff1660e01b8152600401602060405180830381865afa15801561220a573d6000803e3d6000fd5b505050506040513d601f19601f8201168201806040525081019061222e9190612825565b6001600160a01b0316336001600160a01b03161461225e5760405162461bcd60e51b8152600401610682906128e2565b6000841161227e5760405162461bcd60e51b815260040161068290612927565b6001600160a01b0385166122cc5760405162461bcd60e51b8152602060048201526015602482015274496e76616c696420746f6b656e206164647265737360581b6044820152606401610682565b6001600160a01b038516600090815260036020526040902060028101546123055760405162461bcd60e51b815260040161068290612892565b84816001015410156123595760405162461bcd60e51b815260206004820152601f60248201527f496e73756666696369656e7420706f6f6c20746f6b656e2062616c616e6365006044820152606401610682565b8481600101600082825461236d9190612779565b92505081905550848160020160008282546123889190612779565b909155506123a290506001600160a01b0387163387612465565b80546001820154600283015460038401546040805194855260208501939093529183015260608201526001600160a01b038716907fe7a1849d3d3b81e99267b68a3889d2f466ac59697fa69ed9f94d306737f6ecd890608001611a1f565b61240861258b565b6001600160a01b03811661243257604051631e4fbdf760e01b815260006004820152602401610682565b612015816125b8565b60026001540361245e57604051633ee5aeb560e01b815260040160405180910390fd5b6002600155565b6040516001600160a01b038381166024830152604482018390526124c491859182169063a9059cbb906064015b604051602081830303815290604052915060e01b6020820180516001600160e01b038381831617835250505050612608565b505050565b6001600160a01b03821660009081526003602081905260408220908101549091036124f357505050565b600381015461250a670de0b6b3a764000084612740565b6125149190612757565b816004016000828254612527919061272d565b9250508190555081816005016000828254612542919061272d565b9091555050505050565b6040516001600160a01b0384811660248301528381166044830152606482018390526125859186918216906323b872dd90608401612492565b50505050565b6000546001600160a01b0316331461114d5760405163118cdaa760e01b8152336004820152602401610682565b600080546001600160a01b038381166001600160a01b0319831681178455604051919092169283917f8be0079c531659141344cd1fd0a4f28419497f9722a3daafe3b4186f6b6457e09190a35050565b600080602060008451602086016000885af18061262b576040513d6000823e3d81fd5b50506000513d91508115612643578060011415612650565b6001600160a01b0384163b155b1561258557604051635274afe760e01b81526001600160a01b0385166004820152602401610682565b6001600160a01b038116811461201557600080fd5b6000602082840312156126a057600080fd5b81356126ab81612679565b9392505050565b600080604083850312156126c557600080fd5b82356126d081612679565b946020939093013593505050565b600080604083850312156126f157600080fd5b82356126fc81612679565b9150602083013561270c81612679565b809150509250929050565b634e487b7160e01b600052601160045260246000fd5b8082018082111561117957611179612717565b808202811582820484141761117957611179612717565b60008261277457634e487b7160e01b600052601260045260246000fd5b500490565b8181038181111561117957611179612717565b60208082526013908201527214185a5c88191bd95cc81b9bdd08195e1a5cdd606a1b604082015260600190565b80516001600160701b03811681146127d057600080fd5b919050565b6000806000606084860312156127ea57600080fd5b6127f3846127b9565b9250612801602085016127b9565b9150604084015163ffffffff8116811461281a57600080fd5b809150509250925092565b60006020828403121561283757600080fd5b81516126ab81612679565b602080825260149082015273141bdbdb081b9bdd081a5b9a5d1a585b1a5e995960621b604082015260600190565b60006020828403121561288257600080fd5b815180151581146126ab57600080fd5b6020808252600c908201526b4e6f206c697175696469747960a01b604082015260600190565b60208082526010908201526f151bdad95b881a5cc8189b1bd8dad95960821b604082015260600190565b60208082526025908201527f4f6e6c79206f72646572626f6f6b2063616e2063616c6c20746869732066756e60408201526431ba34b7b760d91b606082015260800190565b6020808252601d908201527f416d6f756e74206d7573742062652067726561746572207468616e203000000060408201526060019056fea2646970667358221220d35f0f7c440999d7d7041b1b40537a1d2ae1044a69a4f130a86927ee7f2d937464736f6c634300081a0033",
  "linkReferences": {},
  "deployedLinkReferences": {}
}