{
  "_format": "hh-sol-artifact-1",
  "contractName": "GradientMarketMakerPool",
  "sourceName": "contracts/GradientMarketMakerPool.sol",
  "abi": [
    {
      "inputs": [
        {
          "internalType": "contract IGradientRegistry",
          "name": "_gradientRegistry",
          "type": "address"
        }
      ],
      "stateMutability": "nonpayable",
      "type": "constructor"
    },
    {
      "inputs": [
        {
          "internalType": "address",
          "name": "owner",
          "type": "address"
        }
      ],
      "name": "OwnableInvalidOwner",
      "type": "error"
    },
    {
      "inputs": [
        {
          "internalType": "address",
          "name": "account",
          "type": "address"
        }
      ],
      "name": "OwnableUnauthorizedAccount",
      "type": "error"
    },
    {
      "inputs": [],
      "name": "ReentrancyGuardReentrantCall",
      "type": "error"
    },
    {
      "inputs": [
        {
          "internalType": "address",
          "name": "token",
          "type": "address"
        }
      ],
      "name": "SafeERC20FailedOperation",
      "type": "error"
    },
    {
      "anonymous": false,
      "inputs": [
        {
          "indexed": true,
          "internalType": "address",
          "name": "buyer",
          "type": "address"
        },
        {
          "indexed": false,
          "internalType": "address",
          "name": "token",
          "type": "address"
        },
        {
          "indexed": false,
          "internalType": "uint256",
          "name": "ethAmount",
          "type": "uint256"
        },
        {
          "indexed": false,
          "internalType": "uint256",
          "name": "tokenAmount",
          "type": "uint256"
        }
      ],
      "name": "BuyOrderFulfilled",
      "type": "event"
    },
    {
      "anonymous": false,
      "inputs": [
        {
          "indexed": true,
          "internalType": "address",
          "name": "user",
          "type": "address"
        },
        {
          "indexed": false,
          "internalType": "address",
          "name": "token",
          "type": "address"
        },
        {
          "indexed": false,
          "internalType": "uint256",
          "name": "ethAmount",
          "type": "uint256"
        },
        {
          "indexed": false,
          "internalType": "uint256",
          "name": "lpSharesMinted",
          "type": "uint256"
        }
      ],
      "name": "ETHLiquidityDeposited",
      "type": "event"
    },
    {
      "anonymous": false,
      "inputs": [
        {
          "indexed": true,
          "internalType": "address",
          "name": "user",
          "type": "address"
        },
        {
          "indexed": false,
          "internalType": "address",
          "name": "token",
          "type": "address"
        },
        {
          "indexed": false,
          "internalType": "uint256",
          "name": "ethAmount",
          "type": "uint256"
        },
        {
          "indexed": false,
          "internalType": "uint256",
          "name": "lpSharesBurned",
          "type": "uint256"
        }
      ],
      "name": "ETHLiquidityWithdrawn",
      "type": "event"
    },
    {
      "anonymous": false,
      "inputs": [
        {
          "indexed": true,
          "internalType": "address",
          "name": "orderbook",
          "type": "address"
        },
        {
          "indexed": false,
          "internalType": "uint256",
          "name": "amount",
          "type": "uint256"
        },
        {
          "indexed": true,
          "internalType": "address",
          "name": "token",
          "type": "address"
        }
      ],
      "name": "ETHReceivedFromOrderbook",
      "type": "event"
    },
    {
      "anonymous": false,
      "inputs": [
        {
          "indexed": true,
          "internalType": "address",
          "name": "orderbook",
          "type": "address"
        },
        {
          "indexed": false,
          "internalType": "uint256",
          "name": "amount",
          "type": "uint256"
        },
        {
          "indexed": true,
          "internalType": "address",
          "name": "token",
          "type": "address"
        }
      ],
      "name": "ETHTransferredToOrderbook",
      "type": "event"
    },
    {
      "anonymous": false,
      "inputs": [
        {
          "indexed": true,
          "internalType": "address",
          "name": "owner",
          "type": "address"
        },
        {
          "indexed": true,
          "internalType": "address",
          "name": "token",
          "type": "address"
        },
        {
          "indexed": false,
          "internalType": "uint256",
          "name": "amount",
          "type": "uint256"
        },
        {
          "indexed": false,
          "internalType": "string",
          "name": "reason",
          "type": "string"
        }
      ],
      "name": "ExcessiveFundsWithdrawn",
      "type": "event"
    },
    {
      "anonymous": false,
      "inputs": [
        {
          "indexed": false,
          "internalType": "uint256",
          "name": "newMinLiquidity",
          "type": "uint256"
        }
      ],
      "name": "MinLiquidityUpdated",
      "type": "event"
    },
    {
      "anonymous": false,
      "inputs": [
        {
          "indexed": false,
          "internalType": "uint256",
          "name": "newMinTokenLiquidity",
          "type": "uint256"
        }
      ],
      "name": "MinTokenLiquidityUpdated",
      "type": "event"
    },
    {
      "anonymous": false,
      "inputs": [
        {
          "indexed": true,
          "internalType": "address",
          "name": "previousOwner",
          "type": "address"
        },
        {
          "indexed": true,
          "internalType": "address",
          "name": "newOwner",
          "type": "address"
        }
      ],
      "name": "OwnershipTransferred",
      "type": "event"
    },
    {
      "anonymous": false,
      "inputs": [
        {
          "indexed": true,
          "internalType": "address",
          "name": "token",
          "type": "address"
        },
        {
          "indexed": false,
          "internalType": "uint256",
          "name": "newTotalEth",
          "type": "uint256"
        },
        {
          "indexed": false,
          "internalType": "uint256",
          "name": "newTotalTokens",
          "type": "uint256"
        },
        {
          "indexed": false,
          "internalType": "uint256",
          "name": "newTotalETHLPShares",
          "type": "uint256"
        },
        {
          "indexed": false,
          "internalType": "uint256",
          "name": "newTotalTokenLPShares",
          "type": "uint256"
        }
      ],
      "name": "PoolBalanceUpdated",
      "type": "event"
    },
    {
      "anonymous": false,
      "inputs": [
        {
          "indexed": true,
          "internalType": "address",
          "name": "user",
          "type": "address"
        },
        {
          "indexed": false,
          "internalType": "uint256",
          "name": "amount",
          "type": "uint256"
        },
        {
          "indexed": false,
          "internalType": "address",
          "name": "token",
          "type": "address"
        },
        {
          "indexed": false,
          "internalType": "bool",
          "name": "isETH",
          "type": "bool"
        }
      ],
      "name": "PoolFeeClaimed",
      "type": "event"
    },
    {
      "anonymous": false,
      "inputs": [
        {
          "indexed": true,
          "internalType": "address",
          "name": "from",
          "type": "address"
        },
        {
          "indexed": false,
          "internalType": "uint256",
          "name": "amount",
          "type": "uint256"
        },
        {
          "indexed": false,
          "internalType": "address",
          "name": "token",
          "type": "address"
        },
        {
          "indexed": false,
          "internalType": "bool",
          "name": "isETH",
          "type": "bool"
        }
      ],
      "name": "PoolFeeDistributed",
      "type": "event"
    },
    {
      "anonymous": false,
      "inputs": [
        {
          "indexed": true,
          "internalType": "address",
          "name": "user",
          "type": "address"
        },
        {
          "indexed": false,
          "internalType": "uint256",
          "name": "amount",
          "type": "uint256"
        },
        {
          "indexed": false,
          "internalType": "address",
          "name": "token",
          "type": "address"
        },
        {
          "indexed": false,
          "internalType": "bool",
          "name": "isETH",
          "type": "bool"
        }
      ],
      "name": "PoolSharesClaimed",
      "type": "event"
    },
    {
      "anonymous": false,
      "inputs": [
        {
          "indexed": true,
          "internalType": "address",
          "name": "seller",
          "type": "address"
        },
        {
          "indexed": false,
          "internalType": "address",
          "name": "token",
          "type": "address"
        },
        {
          "indexed": false,
          "internalType": "uint256",
          "name": "tokenAmount",
          "type": "uint256"
        },
        {
          "indexed": false,
          "internalType": "uint256",
          "name": "ethAmount",
          "type": "uint256"
        }
      ],
      "name": "SellOrderFulfilled",
      "type": "event"
    },
    {
      "anonymous": false,
      "inputs": [
        {
          "indexed": true,
          "internalType": "address",
          "name": "user",
          "type": "address"
        },
        {
          "indexed": false,
          "internalType": "address",
          "name": "token",
          "type": "address"
        },
        {
          "indexed": false,
          "internalType": "uint256",
          "name": "tokenAmount",
          "type": "uint256"
        },
        {
          "indexed": false,
          "internalType": "uint256",
          "name": "lpSharesMinted",
          "type": "uint256"
        }
      ],
      "name": "TokenLiquidityDeposited",
      "type": "event"
    },
    {
      "anonymous": false,
      "inputs": [
        {
          "indexed": true,
          "internalType": "address",
          "name": "user",
          "type": "address"
        },
        {
          "indexed": false,
          "internalType": "address",
          "name": "token",
          "type": "address"
        },
        {
          "indexed": false,
          "internalType": "uint256",
          "name": "tokenAmount",
          "type": "uint256"
        },
        {
          "indexed": false,
          "internalType": "uint256",
          "name": "lpSharesBurned",
          "type": "uint256"
        }
      ],
      "name": "TokenLiquidityWithdrawn",
      "type": "event"
    },
    {
      "anonymous": false,
      "inputs": [
        {
          "indexed": true,
          "internalType": "address",
          "name": "orderbook",
          "type": "address"
        },
        {
          "indexed": true,
          "internalType": "address",
          "name": "token",
          "type": "address"
        },
        {
          "indexed": false,
          "internalType": "uint256",
          "name": "amount",
          "type": "uint256"
        }
      ],
      "name": "TokenReceivedFromOrderbook",
      "type": "event"
    },
    {
      "anonymous": false,
      "inputs": [
        {
          "indexed": true,
          "internalType": "address",
          "name": "orderbook",
          "type": "address"
        },
        {
          "indexed": true,
          "internalType": "address",
          "name": "token",
          "type": "address"
        },
        {
          "indexed": false,
          "internalType": "uint256",
          "name": "amount",
          "type": "uint256"
        }
      ],
      "name": "TokenTransferredToOrderbook",
      "type": "event"
    },
    {
      "inputs": [],
      "name": "SCALE",
      "outputs": [
        {
          "internalType": "uint256",
          "name": "",
          "type": "uint256"
        }
      ],
      "stateMutability": "view",
      "type": "function"
    },
    {
      "inputs": [
        {
          "internalType": "address",
          "name": "token",
          "type": "address"
        }
      ],
      "name": "addETHLiquidity",
      "outputs": [],
      "stateMutability": "payable",
      "type": "function"
    },
    {
      "inputs": [
        {
          "internalType": "address",
          "name": "token",
          "type": "address"
        },
        {
          "internalType": "uint256",
          "name": "tokenAmount",
          "type": "uint256"
        }
      ],
      "name": "addLiquidity",
      "outputs": [],
      "stateMutability": "payable",
      "type": "function"
    },
    {
      "inputs": [
        {
          "internalType": "address",
          "name": "token",
          "type": "address"
        },
        {
          "internalType": "uint256",
          "name": "tokenAmount",
          "type": "uint256"
        }
      ],
      "name": "addTokenLiquidity",
      "outputs": [],
      "stateMutability": "nonpayable",
      "type": "function"
    },
    {
      "inputs": [
        {
          "internalType": "address",
          "name": "token",
          "type": "address"
        }
      ],
      "name": "claimEthPoolFee",
      "outputs": [],
      "stateMutability": "nonpayable",
      "type": "function"
    },
    {
      "inputs": [
        {
          "internalType": "address",
          "name": "token",
          "type": "address"
        }
      ],
      "name": "claimTokenPoolFee",
      "outputs": [],
      "stateMutability": "nonpayable",
      "type": "function"
    },
    {
      "inputs": [
        {
          "internalType": "address",
          "name": "token",
          "type": "address"
        },
        {
          "internalType": "bool",
          "name": "isETHPool",
          "type": "bool"
        }
      ],
      "name": "distributePoolFee",
      "outputs": [],
      "stateMutability": "payable",
      "type": "function"
    },
    {
      "inputs": [
        {
          "internalType": "address",
          "name": "",
          "type": "address"
        }
      ],
      "name": "ethPools",
      "outputs": [
        {
          "internalType": "uint256",
          "name": "accountedEth",
          "type": "uint256"
        },
        {
          "internalType": "uint256",
          "name": "totalETH",
          "type": "uint256"
        },
        {
          "internalType": "uint256",
          "name": "totalLPShares",
          "type": "uint256"
        },
        {
          "internalType": "uint256",
          "name": "accRewardPerShare",
          "type": "uint256"
        },
        {
          "internalType": "uint256",
          "name": "rewardBalance",
          "type": "uint256"
        },
        {
          "internalType": "uint256",
          "name": "accTokenRewardPerShare",
          "type": "uint256"
        },
        {
          "internalType": "uint256",
          "name": "tokenRewardBalance",
          "type": "uint256"
        },
        {
          "internalType": "address",
          "name": "uniswapPair",
          "type": "address"
        }
      ],
      "stateMutability": "view",
      "type": "function"
    },
    {
      "inputs": [
        {
          "internalType": "address",
          "name": "",
          "type": "address"
        },
        {
          "internalType": "address",
          "name": "",
          "type": "address"
        }
      ],
      "name": "ethProviders",
      "outputs": [
        {
          "internalType": "uint256",
          "name": "ethAmount",
          "type": "uint256"
        },
        {
          "internalType": "uint256",
          "name": "lpShares",
          "type": "uint256"
        },
        {
          "internalType": "uint256",
          "name": "rewardDebt",
          "type": "uint256"
        },
        {
          "internalType": "uint256",
          "name": "pendingReward",
          "type": "uint256"
        },
        {
          "internalType": "uint256",
          "name": "tokenRewardDebt",
          "type": "uint256"
        },
        {
          "internalType": "uint256",
          "name": "pendingTokenReward",
          "type": "uint256"
        }
      ],
      "stateMutability": "view",
      "type": "function"
    },
    {
      "inputs": [
        {
          "internalType": "address",
          "name": "token",
          "type": "address"
        },
        {
          "internalType": "uint256",
          "name": "ethAmount",
          "type": "uint256"
        },
        {
          "internalType": "uint256",
          "name": "tokenAmount",
          "type": "uint256"
        }
      ],
      "name": "executeBuyOrder",
      "outputs": [],
      "stateMutability": "payable",
      "type": "function"
    },
    {
      "inputs": [
        {
          "internalType": "address",
          "name": "token",
          "type": "address"
        },
        {
          "internalType": "uint256",
          "name": "ethAmount",
          "type": "uint256"
        },
        {
          "internalType": "uint256",
          "name": "tokenAmount",
          "type": "uint256"
        }
      ],
      "name": "executeSellOrder",
      "outputs": [],
      "stateMutability": "nonpayable",
      "type": "function"
    },
    {
      "inputs": [
        {
          "internalType": "address",
          "name": "token",
          "type": "address"
        }
      ],
      "name": "getETHPoolInfo",
      "outputs": [
        {
          "components": [
            {
              "internalType": "uint256",
              "name": "accountedEth",
              "type": "uint256"
            },
            {
              "internalType": "uint256",
              "name": "totalETH",
              "type": "uint256"
            },
            {
              "internalType": "uint256",
              "name": "totalLPShares",
              "type": "uint256"
            },
            {
              "internalType": "uint256",
              "name": "accRewardPerShare",
              "type": "uint256"
            },
            {
              "internalType": "uint256",
              "name": "rewardBalance",
              "type": "uint256"
            },
            {
              "internalType": "uint256",
              "name": "accTokenRewardPerShare",
              "type": "uint256"
            },
            {
              "internalType": "uint256",
              "name": "tokenRewardBalance",
              "type": "uint256"
            },
            {
              "internalType": "address",
              "name": "uniswapPair",
              "type": "address"
            }
          ],
          "internalType": "struct IGradientMarketMakerPool.ETHPoolInfo",
          "name": "",
          "type": "tuple"
        }
      ],
      "stateMutability": "view",
      "type": "function"
    },
    {
      "inputs": [
        {
          "internalType": "address",
          "name": "token",
          "type": "address"
        },
        {
          "internalType": "address",
          "name": "user",
          "type": "address"
        }
      ],
      "name": "getETHProviderLPShares",
      "outputs": [
        {
          "internalType": "uint256",
          "name": "lpShares",
          "type": "uint256"
        }
      ],
      "stateMutability": "view",
      "type": "function"
    },
    {
      "inputs": [
        {
          "internalType": "address",
          "name": "token",
          "type": "address"
        }
      ],
      "name": "getExcessiveFunds",
      "outputs": [
        {
          "internalType": "uint256",
          "name": "excessiveEth",
          "type": "uint256"
        },
        {
          "internalType": "uint256",
          "name": "excessiveTokens",
          "type": "uint256"
        }
      ],
      "stateMutability": "view",
      "type": "function"
    },
    {
      "inputs": [
        {
          "internalType": "address",
          "name": "token",
          "type": "address"
        }
      ],
      "name": "getPairAddress",
      "outputs": [
        {
          "internalType": "address",
          "name": "pairAddress",
          "type": "address"
        }
      ],
      "stateMutability": "view",
      "type": "function"
    },
    {
      "inputs": [
        {
          "internalType": "address",
          "name": "token",
          "type": "address"
        }
      ],
      "name": "getPoolInfo",
      "outputs": [
        {
          "components": [
            {
              "internalType": "uint256",
              "name": "totalEth",
              "type": "uint256"
            },
            {
              "internalType": "uint256",
              "name": "totalToken",
              "type": "uint256"
            },
            {
              "internalType": "uint256",
              "name": "totalLiquidity",
              "type": "uint256"
            },
            {
              "internalType": "uint256",
              "name": "totalLPShares",
              "type": "uint256"
            },
            {
              "internalType": "uint256",
              "name": "accountedEth",
              "type": "uint256"
            },
            {
              "internalType": "uint256",
              "name": "accountedToken",
              "type": "uint256"
            },
            {
              "internalType": "uint256",
              "name": "accRewardPerShare",
              "type": "uint256"
            },
            {
              "internalType": "uint256",
              "name": "rewardBalance",
              "type": "uint256"
            },
            {
              "internalType": "address",
              "name": "uniswapPair",
              "type": "address"
            }
          ],
          "internalType": "struct IGradientMarketMakerPool.PoolInfo",
          "name": "",
          "type": "tuple"
        }
      ],
      "stateMutability": "view",
      "type": "function"
    },
    {
      "inputs": [
        {
          "internalType": "address",
          "name": "token",
          "type": "address"
        }
      ],
      "name": "getReserves",
      "outputs": [
        {
          "internalType": "uint256",
          "name": "reserveETH",
          "type": "uint256"
        },
        {
          "internalType": "uint256",
          "name": "reserveToken",
          "type": "uint256"
        }
      ],
      "stateMutability": "view",
      "type": "function"
    },
    {
      "inputs": [
        {
          "internalType": "address",
          "name": "token",
          "type": "address"
        }
      ],
      "name": "getTokenPoolInfo",
      "outputs": [
        {
          "components": [
            {
              "internalType": "uint256",
              "name": "accountedToken",
              "type": "uint256"
            },
            {
              "internalType": "uint256",
              "name": "totalTokens",
              "type": "uint256"
            },
            {
              "internalType": "uint256",
              "name": "totalLPShares",
              "type": "uint256"
            },
            {
              "internalType": "uint256",
              "name": "virtualTokens",
              "type": "uint256"
            },
            {
              "internalType": "uint256",
              "name": "virtualLPShares",
              "type": "uint256"
            },
            {
              "internalType": "uint256",
              "name": "accRewardPerShare",
              "type": "uint256"
            },
            {
              "internalType": "uint256",
              "name": "rewardBalance",
              "type": "uint256"
            },
            {
              "internalType": "uint256",
              "name": "accETHRewardPerShare",
              "type": "uint256"
            },
            {
              "internalType": "uint256",
              "name": "ethRewardBalance",
              "type": "uint256"
            },
            {
              "internalType": "address",
              "name": "uniswapPair",
              "type": "address"
            }
          ],
          "internalType": "struct IGradientMarketMakerPool.TokenPoolInfo",
          "name": "",
          "type": "tuple"
        }
      ],
      "stateMutability": "view",
      "type": "function"
    },
    {
      "inputs": [
        {
          "internalType": "address",
          "name": "token",
          "type": "address"
        },
        {
          "internalType": "address",
          "name": "user",
          "type": "address"
        }
      ],
      "name": "getTokenProviderLPShares",
      "outputs": [
        {
          "internalType": "uint256",
          "name": "lpShares",
          "type": "uint256"
        }
      ],
      "stateMutability": "view",
      "type": "function"
    },
    {
      "inputs": [
        {
          "internalType": "address",
          "name": "token",
          "type": "address"
        },
        {
          "internalType": "address",
          "name": "user",
          "type": "address"
        }
      ],
      "name": "getTokenProviderRealLPShares",
      "outputs": [
        {
          "internalType": "uint256",
          "name": "lpShares",
          "type": "uint256"
        }
      ],
      "stateMutability": "view",
      "type": "function"
    },
    {
      "inputs": [
        {
          "internalType": "address",
          "name": "token",
          "type": "address"
        },
        {
          "internalType": "address",
          "name": "user",
          "type": "address"
        }
      ],
      "name": "getTokenProviderVirtualLPShares",
      "outputs": [
        {
          "internalType": "uint256",
          "name": "lpShares",
          "type": "uint256"
        }
      ],
      "stateMutability": "view",
      "type": "function"
    },
    {
      "inputs": [
        {
          "internalType": "address",
          "name": "token",
          "type": "address"
        },
        {
          "internalType": "address",
          "name": "user",
          "type": "address"
        }
      ],
      "name": "getUserLPShares",
      "outputs": [
        {
          "internalType": "uint256",
          "name": "lpShares",
          "type": "uint256"
        }
      ],
      "stateMutability": "view",
      "type": "function"
    },
    {
      "inputs": [
        {
          "internalType": "address",
          "name": "token",
          "type": "address"
        },
        {
          "internalType": "address",
          "name": "user",
          "type": "address"
        }
      ],
      "name": "getUserSharePercentage",
      "outputs": [
        {
          "internalType": "uint256",
          "name": "sharePercentage",
          "type": "uint256"
        }
      ],
      "stateMutability": "view",
      "type": "function"
    },
    {
      "inputs": [],
      "name": "gradientRegistry",
      "outputs": [
        {
          "internalType": "contract IGradientRegistry",
          "name": "",
          "type": "address"
        }
      ],
      "stateMutability": "view",
      "type": "function"
    },
    {
      "inputs": [],
      "name": "minLiquidity",
      "outputs": [
        {
          "internalType": "uint256",
          "name": "",
          "type": "uint256"
        }
      ],
      "stateMutability": "view",
      "type": "function"
    },
    {
      "inputs": [],
      "name": "minTokenLiquidity",
      "outputs": [
        {
          "internalType": "uint256",
          "name": "",
          "type": "uint256"
        }
      ],
      "stateMutability": "view",
      "type": "function"
    },
    {
      "inputs": [],
      "name": "owner",
      "outputs": [
        {
          "internalType": "address",
          "name": "",
          "type": "address"
        }
      ],
      "stateMutability": "view",
      "type": "function"
    },
    {
      "inputs": [
        {
          "internalType": "address",
          "name": "token",
          "type": "address"
        },
        {
          "internalType": "uint256",
          "name": "shares",
          "type": "uint256"
        },
        {
          "internalType": "uint256",
          "name": "minEthAmount",
          "type": "uint256"
        }
      ],
      "name": "removeETHLiquidity",
      "outputs": [],
      "stateMutability": "nonpayable",
      "type": "function"
    },
    {
      "inputs": [
        {
          "internalType": "address",
          "name": "token",
          "type": "address"
        },
        {
          "internalType": "uint256",
          "name": "shares",
          "type": "uint256"
        },
        {
          "internalType": "uint256",
          "name": "minEthAmount",
          "type": "uint256"
        },
        {
          "internalType": "uint256",
          "name": "minTokenAmount",
          "type": "uint256"
        }
      ],
      "name": "removeLiquidity",
      "outputs": [],
      "stateMutability": "nonpayable",
      "type": "function"
    },
    {
      "inputs": [
        {
          "internalType": "address",
          "name": "token",
          "type": "address"
        },
        {
          "internalType": "uint256",
          "name": "shares",
          "type": "uint256"
        },
        {
          "internalType": "uint256",
          "name": "minTokenAmount",
          "type": "uint256"
        }
      ],
      "name": "removeTokenLiquidity",
      "outputs": [],
      "stateMutability": "nonpayable",
      "type": "function"
    },
    {
      "inputs": [],
      "name": "renounceOwnership",
      "outputs": [],
      "stateMutability": "nonpayable",
      "type": "function"
    },
    {
      "inputs": [
        {
          "internalType": "uint256",
          "name": "_minLiquidity",
          "type": "uint256"
        }
      ],
      "name": "setMinLiquidity",
      "outputs": [],
      "stateMutability": "nonpayable",
      "type": "function"
    },
    {
      "inputs": [
        {
          "internalType": "uint256",
          "name": "_minTokenLiquidity",
          "type": "uint256"
        }
      ],
      "name": "setMinTokenLiquidity",
      "outputs": [],
      "stateMutability": "nonpayable",
      "type": "function"
    },
    {
      "inputs": [
        {
          "internalType": "contract IGradientRegistry",
          "name": "_gradientRegistry",
          "type": "address"
        }
      ],
      "name": "setRegistry",
      "outputs": [],
      "stateMutability": "nonpayable",
      "type": "function"
    },
    {
      "inputs": [
        {
          "internalType": "address",
          "name": "",
          "type": "address"
        }
      ],
      "name": "tokenPools",
      "outputs": [
        {
          "internalType": "uint256",
          "name": "accountedToken",
          "type": "uint256"
        },
        {
          "internalType": "uint256",
          "name": "totalTokens",
          "type": "uint256"
        },
        {
          "internalType": "uint256",
          "name": "totalLPShares",
          "type": "uint256"
        },
        {
          "internalType": "uint256",
          "name": "virtualTokens",
          "type": "uint256"
        },
        {
          "internalType": "uint256",
          "name": "virtualLPShares",
          "type": "uint256"
        },
        {
          "internalType": "uint256",
          "name": "accRewardPerShare",
          "type": "uint256"
        },
        {
          "internalType": "uint256",
          "name": "rewardBalance",
          "type": "uint256"
        },
        {
          "internalType": "uint256",
          "name": "accETHRewardPerShare",
          "type": "uint256"
        },
        {
          "internalType": "uint256",
          "name": "ethRewardBalance",
          "type": "uint256"
        },
        {
          "internalType": "address",
          "name": "uniswapPair",
          "type": "address"
        }
      ],
      "stateMutability": "view",
      "type": "function"
    },
    {
      "inputs": [
        {
          "internalType": "address",
          "name": "",
          "type": "address"
        },
        {
          "internalType": "address",
          "name": "",
          "type": "address"
        }
      ],
      "name": "tokenProviders",
      "outputs": [
        {
          "internalType": "uint256",
          "name": "tokenAmount",
          "type": "uint256"
        },
        {
          "internalType": "uint256",
          "name": "lpShares",
          "type": "uint256"
        },
        {
          "internalType": "uint256",
          "name": "virtualLPShares",
          "type": "uint256"
        },
        {
          "internalType": "uint256",
          "name": "virtualTokenAmount",
          "type": "uint256"
        },
        {
          "internalType": "uint256",
          "name": "rewardDebt",
          "type": "uint256"
        },
        {
          "internalType": "uint256",
          "name": "pendingReward",
          "type": "uint256"
        },
        {
          "internalType": "uint256",
          "name": "ethRewardDebt",
          "type": "uint256"
        },
        {
          "internalType": "uint256",
          "name": "pendingETHReward",
          "type": "uint256"
        }
      ],
      "stateMutability": "view",
      "type": "function"
    },
    {
      "inputs": [],
      "name": "totalEthAdded",
      "outputs": [
        {
          "internalType": "uint256",
          "name": "",
          "type": "uint256"
        }
      ],
      "stateMutability": "view",
      "type": "function"
    },
    {
      "inputs": [],
      "name": "totalEthRemoved",
      "outputs": [
        {
          "internalType": "uint256",
          "name": "",
          "type": "uint256"
        }
      ],
      "stateMutability": "view",
      "type": "function"
    },
    {
      "inputs": [
        {
          "internalType": "address",
          "name": "",
          "type": "address"
        }
      ],
      "name": "totalTokensAdded",
      "outputs": [
        {
          "internalType": "uint256",
          "name": "",
          "type": "uint256"
        }
      ],
      "stateMutability": "view",
      "type": "function"
    },
    {
      "inputs": [
        {
          "internalType": "address",
          "name": "",
          "type": "address"
        }
      ],
      "name": "totalTokensRemoved",
      "outputs": [
        {
          "internalType": "uint256",
          "name": "",
          "type": "uint256"
        }
      ],
      "stateMutability": "view",
      "type": "function"
    },
    {
      "inputs": [
        {
          "internalType": "address",
          "name": "newOwner",
          "type": "address"
        }
      ],
      "name": "transferOwnership",
      "outputs": [],
      "stateMutability": "nonpayable",
      "type": "function"
    },
    {
      "inputs": [
        {
          "internalType": "address",
          "name": "token",
          "type": "address"
        }
      ],
      "name": "withdrawExcessiveFunds",
      "outputs": [],
      "stateMutability": "nonpayable",
      "type": "function"
    },
    {
      "stateMutability": "payable",
      "type": "receive"
    }
  ],
  "bytecode": "0x608060405266038d7ea4c6800060075566038d7ea4c6800060085534801561002657600080fd5b50604051614e36380380614e36833981016040819052610045916100ee565b338061006b57604051631e4fbdf760e01b81526000600482015260240160405180910390fd5b6100748161009e565b5060018055600280546001600160a01b0319166001600160a01b039290921691909117905561011e565b600080546001600160a01b038381166001600160a01b0319831681178455604051919092169283917f8be0079c531659141344cd1fd0a4f28419497f9722a3daafe3b4186f6b6457e09190a35050565b60006020828403121561010057600080fd5b81516001600160a01b038116811461011757600080fd5b9392505050565b614d098061012d6000396000f3fe6080604052600436106102555760003560e01c806385e694b611610139578063bcc9eea7116100b6578063d5d718401161007a578063d5d7184014610983578063dbf8a3ed146109a3578063e9e4949014610a4e578063eced552614610a97578063f2fde38b14610ab3578063fbbb3acf14610ad357600080fd5b8063bcc9eea7146107c6578063bf0df0f9146107f3578063c3d2c3c114610809578063ca497a3f146108d1578063cc2549841461095657600080fd5b8063ae8b804d116100fd578063ae8b804d146106fd578063afa3ed6e1461071d578063b09273be1461073d578063b93988c21461075d578063bc3109ba1461077d57600080fd5b806385e694b61461065f5780638da5cb5b1461067f57806393ca2f8a1461069d5780639c2520ff146106bd578063a91ee0dc146106dd57600080fd5b80635c4c4749116101d257806370aa0f391161019657806370aa0f39146105ac57806370c6ee33146105cc578063715018a6146105df5780637601f9fe146105f45780637e49b93314610607578063830562bc1461062757600080fd5b80635c4c47491461050c5780635efa0a6b1461052c5780635fbc13ef1461054c57806366a40e261461056c5780636f2236fe1461057f57600080fd5b80632b62a95a116102195780632b62a95a146104095780633e99c1e41461041f5780633f5662e8146104545780634301d7351461047457806356688700146104f957600080fd5b806306bfa9381461026157806314fe72aa146102ff5780631695ca4e146103215780631e489b12146103cf578063252cf2d2146103f357600080fd5b3661025c57005b600080fd5b34801561026d57600080fd5b5061028161027c36600461480e565b610af3565b6040516102f69190600061012082019050825182526020830151602083015260408301516040830152606083015160608301526080830151608083015260a083015160a083015260c083015160c083015260e083015160e083015260018060a01b036101008401511661010083015292915050565b60405180910390f35b34801561030b57600080fd5b5061031f61031a36600461482b565b610c09565b005b34801561032d57600080fd5b5061038b61033c36600461480e565b600360208190526000918252604090912080546001820154600283015493830154600484015460058501546006860154600790960154949693959394929391929091906001600160a01b031688565b604080519889526020890197909752958701949094526060860192909252608085015260a084015260c08301526001600160a01b031660e0820152610100016102f6565b3480156103db57600080fd5b506103e560095481565b6040519081526020016102f6565b3480156103ff57600080fd5b506103e560075481565b34801561041557600080fd5b506103e560085481565b34801561042b57600080fd5b5061043f61043a36600461480e565b610d35565b604080519283526020830191909152016102f6565b34801561046057600080fd5b5061043f61046f36600461480e565b610e77565b34801561048057600080fd5b506104cc61048f366004614857565b6005602081815260009384526040808520909152918352912080546001820154600283015460038401546004850154949095015492949193909286565b604080519687526020870195909552938501929092526060840152608083015260a082015260c0016102f6565b61031f61050736600461482b565b610f8a565b34801561051857600080fd5b5061031f610527366004614890565b6110ec565b34801561053857600080fd5b5061031f61054736600461480e565b611191565b34801561055857600080fd5b5061031f6105673660046148a9565b6113a3565b61031f61057a3660046148ec565b6116e7565b34801561058b57600080fd5b506103e561059a36600461480e565b600c6020526000908152604090205481565b3480156105b857600080fd5b506103e56105c7366004614857565b611919565b61031f6105da36600461480e565b611949565b3480156105eb57600080fd5b5061031f611a66565b61031f6106023660046148a9565b611a7a565b34801561061357600080fd5b506103e5610622366004614857565b611ddc565b34801561063357600080fd5b50600254610647906001600160a01b031681565b6040516001600160a01b0390911681526020016102f6565b34801561066b57600080fd5b5061064761067a36600461480e565b611e32565b34801561068b57600080fd5b506000546001600160a01b0316610647565b3480156106a957600080fd5b5061031f6106b836600461491a565b612046565b3480156106c957600080fd5b506103e56106d8366004614857565b612153565b3480156106e957600080fd5b5061031f6106f836600461480e565b612196565b34801561070957600080fd5b506103e5610718366004614857565b612216565b34801561072957600080fd5b5061031f61073836600461480e565b61224b565b34801561074957600080fd5b5061031f610758366004614890565b612381565b34801561076957600080fd5b5061031f61077836600461480e565b612425565b34801561078957600080fd5b506103e5610798366004614857565b6001600160a01b03918216600090815260066020908152604080832093909416825291909152206001015490565b3480156107d257600080fd5b506107e66107e136600461480e565b612774565b6040516102f69190614955565b3480156107ff57600080fd5b506103e5600a5481565b34801561081557600080fd5b5061087e61082436600461480e565b6004602081905260009182526040909120805460018201546002830154600384015494840154600585015460068601546007870154600888015460099098015496989597949693949293919290916001600160a01b03168a565b604080519a8b5260208b0199909952978901969096526060880194909452608087019290925260a086015260c085015260e08401526101008301526001600160a01b0316610120820152610140016102f6565b3480156108dd57600080fd5b506108f16108ec36600461480e565b612864565b6040516102f69190815181526020808301519082015260408083015190820152606080830151908201526080808301519082015260a0808301519082015260c0808301519082015260e0918201516001600160a01b0316918101919091526101000190565b34801561096257600080fd5b506103e561097136600461480e565b600b6020526000908152604090205481565b34801561098f57600080fd5b5061031f61099e3660046148a9565b612930565b3480156109af57600080fd5b50610a136109be366004614857565b6006602052816000526040600020602052806000526040600020600091509150508060000154908060010154908060020154908060030154908060040154908060050154908060060154908060070154905088565b604080519889526020890197909752958701949094526060860192909252608085015260a084015260c083015260e0820152610100016102f6565b348015610a5a57600080fd5b506103e5610a69366004614857565b6001600160a01b03918216600090815260066020908152604080832093909416825291909152206002015490565b348015610aa357600080fd5b506103e5670de0b6b3a764000081565b348015610abf57600080fd5b5061031f610ace36600461480e565b612a31565b348015610adf57600080fd5b5061031f610aee3660046148a9565b612a6c565b610b4b604051806101200160405280600081526020016000815260200160008152602001600081526020016000815260200160008152602001600081526020016000815260200160006001600160a01b031681525090565b6001600160a01b038216600090815260036020908152604080832060048352928190208151610120810183526001808601548083529083015494820185905291939092830191610b9b91906149ed565b815260200182600201548460020154610bb491906149ed565b815260200183600101548152602001826001015481526020016000815260200182600601548460040154610be891906149ed565b81526007909301546001600160a01b03166020909301929092525092915050565b600254604051630736b32b60e31b81526001600160a01b038085166004830152849216906339b5995890602401602060405180830381865afa158015610c53573d6000803e3d6000fd5b505050506040513d601f19601f82011682018060405250810190610c779190614a00565b15610c9d5760405162461bcd60e51b8152600401610c9490614a1d565b60405180910390fd5b610ca5612b5e565b600854821015610cf75760405162461bcd60e51b815260206004820152601a60248201527f546f6b656e20616d6f756e742062656c6f77206d696e696d756d0000000000006044820152606401610c94565b6001600160a01b038316610d1d5760405162461bcd60e51b8152600401610c9490614a47565b610d278383612b88565b610d3060018055565b505050565b6000806000610d4384611e32565b90506001600160a01b038116610d6b5760405162461bcd60e51b8152600401610c9490614a76565b600080826001600160a01b0316630902f1ac6040518163ffffffff1660e01b8152600401606060405180830381865afa158015610dac573d6000803e3d6000fd5b505050506040513d601f19601f82011682018060405250810190610dd09190614abf565b50915091506000836001600160a01b0316630dfe16816040518163ffffffff1660e01b8152600401602060405180830381865afa158015610e15573d6000803e3d6000fd5b505050506040513d601f19601f82011682018060405250810190610e399190614b0f565b9050866001600160a01b0316816001600160a01b031614610e5b578282610e5e565b81835b6001600160701b03918216999116975095505050505050565b6000806001600160a01b038316610ea05760405162461bcd60e51b8152600401610c9490614a47565b600a546009544791600091610eb59190614b2c565b905080821115610ecc57610ec98183614b2c565b93505b6040516370a0823160e01b81523060048201526000906001600160a01b038716906370a0823190602401602060405180830381865afa158015610f13573d6000803e3d6000fd5b505050506040513d601f19601f82011682018060405250810190610f379190614b3f565b6001600160a01b0387166000908152600c6020908152604080832054600b9092528220549293509091610f6a9190614b2c565b905080821115610f8157610f7e8183614b2c565b94505b50505050915091565b600254604051630736b32b60e31b81526001600160a01b038085166004830152849216906339b5995890602401602060405180830381865afa158015610fd4573d6000803e3d6000fd5b505050506040513d601f19601f82011682018060405250810190610ff89190614a00565b156110155760405162461bcd60e51b8152600401610c9490614a1d565b61101d612b5e565b60075434101561106a5760405162461bcd60e51b815260206004820152601860248201527745544820616d6f756e742062656c6f77206d696e696d756d60401b6044820152606401610c94565b6008548210156110bc5760405162461bcd60e51b815260206004820152601a60248201527f546f6b656e20616d6f756e742062656c6f77206d696e696d756d0000000000006044820152606401610c94565b6001600160a01b0383166110e25760405162461bcd60e51b8152600401610c9490614a47565b610d1d8334612f5c565b6110f46131ef565b600081116111555760405162461bcd60e51b815260206004820152602860248201527f4d696e696d756d206c6971756964697479206d75737420626520677265617465604482015267072207468616e20360c41b6064820152608401610c94565b60078190556040518181527fb2ee55c75b3383382e754fd3eff2d543c0e990be639421a4e2d8f2a42c5b8fdb906020015b60405180910390a150565b611199612b5e565b6001600160a01b03811660009081526003602090815260408083206005835281842033855290925290912060018101541515806111da575060008160030154115b6112205760405162461bcd60e51b81526020600482015260176024820152764e6f206c6971756964697479206f72207265776172647360481b6044820152606401610c94565b6000670de0b6b3a76400008360030154836001015461123f9190614b58565b6112499190614b6f565b9050600082600301548360020154836112629190614b2c565b61126c91906149ed565b9050600081116112ab5760405162461bcd60e51b815260206004820152600a6024820152694e6f207265776172647360b01b6044820152606401610c94565b60028301829055600060038401819055604051339083905b60006040518083038185875af1925050503d8060008114611300576040519150601f19603f3d011682016040523d82523d6000602084013e611305565b606091505b505090508061134c5760405162461bcd60e51b8152602060048201526013602482015272115512081d1c985b9cd9995c8819985a5b1959606a1b6044820152606401610c94565b336001600160a01b03167fa7dc21a7f10f6182874318d626a6a53145cda9637a48b995799b12148f5b12ca8388600060405161138a93929190614b91565b60405180910390a250505050506113a060018055565b50565b600254604051630736b32b60e31b81526001600160a01b038086166004830152859216906339b5995890602401602060405180830381865afa1580156113ed573d6000803e3d6000fd5b505050506040513d601f19601f820116820180604052508101906114119190614a00565b1561142e5760405162461bcd60e51b8152600401610c9490614a1d565b600260009054906101000a90046001600160a01b03166001600160a01b031663c18b1d5e6040518163ffffffff1660e01b8152600401602060405180830381865afa158015611481573d6000803e3d6000fd5b505050506040513d601f19601f820116820180604052508101906114a59190614b0f565b6001600160a01b0316336001600160a01b0316146114d55760405162461bcd60e51b8152600401610c9490614bb2565b600083116114f55760405162461bcd60e51b8152600401610c9490614bf7565b600082116115155760405162461bcd60e51b8152600401610c9490614c38565b6001600160a01b038416600090815260036020526040902060018101548411156115815760405162461bcd60e51b815260206004820152601a60248201527f496e73756666696369656e7420455448206c69717569646974790000000000006044820152606401610c94565b6115966001600160a01b03861633308661321c565b838160010160008282546115aa9190614b2c565b9250508190555083600a60008282546115c391906149ed565b909155506115d390508584613283565b604051600090339086908381818185875af1925050503d8060008114611615576040519150601f19603f3d011682016040523d82523d6000602084013e61161a565b606091505b505090508061166b5760405162461bcd60e51b815260206004820181905260248201527f455448207472616e7366657220746f206f72646572626f6f6b206661696c65646044820152606401610c94565b6001828101546001600160a01b038816600081815260046020908152604091829020948501546002808901549601548351958652918501529083019390935260608201929092527fe7a1849d3d3b81e99267b68a3889d2f466ac59697fa69ed9f94d306737f6ecd89060800160405180910390a2505050505050565b6002546040516316ed852560e01b81523360048201526001600160a01b03909116906316ed852590602401602060405180830381865afa15801561172f573d6000803e3d6000fd5b505050506040513d601f19601f820116820180604052508101906117539190614a00565b6117b65760405162461bcd60e51b815260206004820152602e60248201527f4f6e6c7920726577617264206469737472696275746f722063616e2063616c6c60448201526d103a3434b990333ab731ba34b7b760911b6064820152608401610c94565b600034116117f45760405162461bcd60e51b815260206004820152600b60248201526a139bc8115512081cd95b9d60aa1b6044820152606401610c94565b8015611866576001600160a01b038216600090815260036020526040902060028101546118565760405162461bcd60e51b815260206004820152601060248201526f4e6f20455448206c697175696469747960801b6044820152606401610c94565b61186083346133af565b506118d0565b6001600160a01b038216600090815260046020526040902060028101546118c45760405162461bcd60e51b81526020600482015260126024820152714e6f20746f6b656e206c697175696469747960701b6044820152606401610c94565b6118ce83346134c4565b505b336001600160a01b03167f2642b093d571e0a5cc51efd24d7e7137453bc48728b51644fb68f5aedb5564b334848460405161190d93929190614b91565b60405180910390a25050565b6001600160a01b038083166000908152600560209081526040808320938516835292905220600101545b92915050565b600254604051630736b32b60e31b81526001600160a01b038084166004830152839216906339b5995890602401602060405180830381865afa158015611993573d6000803e3d6000fd5b505050506040513d601f19601f820116820180604052508101906119b79190614a00565b156119d45760405162461bcd60e51b8152600401610c9490614a1d565b6119dc612b5e565b600754341015611a295760405162461bcd60e51b815260206004820152601860248201527745544820616d6f756e742062656c6f77206d696e696d756d60401b6044820152606401610c94565b6001600160a01b038216611a4f5760405162461bcd60e51b8152600401610c9490614a47565b611a598234612f5c565b611a6260018055565b5050565b611a6e6131ef565b611a7860006135bc565b565b600254604051630736b32b60e31b81526001600160a01b038086166004830152859216906339b5995890602401602060405180830381865afa158015611ac4573d6000803e3d6000fd5b505050506040513d601f19601f82011682018060405250810190611ae89190614a00565b15611b055760405162461bcd60e51b8152600401610c9490614a1d565b600260009054906101000a90046001600160a01b03166001600160a01b031663c18b1d5e6040518163ffffffff1660e01b8152600401602060405180830381865afa158015611b58573d6000803e3d6000fd5b505050506040513d601f19601f82011682018060405250810190611b7c9190614b0f565b6001600160a01b0316336001600160a01b031614611bac5760405162461bcd60e51b8152600401610c9490614bb2565b60008311611bcc5760405162461bcd60e51b8152600401610c9490614bf7565b60008211611bec5760405162461bcd60e51b8152600401610c9490614c38565b823414611c315760405162461bcd60e51b815260206004820152601360248201527208aa89040c2dadeeadce840dad2e6dac2e8c6d606b1b6044820152606401610c94565b6001600160a01b0384166000908152600460205260409020600381015460018201548491611c5e916149ed565b1015611cac5760405162461bcd60e51b815260206004820152601c60248201527f496e73756666696369656e7420746f6b656e206c6971756964697479000000006044820152606401610c94565b600381015415611d00578060030154816001016000828254611cce91906149ed565b90915550506004810154600282018054600090611cec9084906149ed565b909155505060006003820181905560048201555b82816001016000828254611d149190614b2c565b90915550506001600160a01b0385166000908152600c602052604081208054859290611d419084906149ed565b90915550611d519050858561360c565b611d656001600160a01b038616338561372c565b6001600160a01b03851660008181526003602090815260409182902060018082015490860154600292830154928701548551928352938201529283015260608201527fe7a1849d3d3b81e99267b68a3889d2f466ac59697fa69ed9f94d306737f6ecd8906080015b60405180910390a25050505050565b6001600160a01b0380831660008181526006602090815260408083209486168084529482528083206001908101549484526005835281842095845294909152812090920154611e2b91906149ed565b9392505050565b600080600260009054906101000a90046001600160a01b03166001600160a01b031663f887ea406040518163ffffffff1660e01b8152600401602060405180830381865afa158015611e88573d6000803e3d6000fd5b505050506040513d601f19601f82011682018060405250810190611eac9190614b0f565b90506001600160a01b038116611ef55760405162461bcd60e51b815260206004820152600e60248201526d149bdd5d195c881b9bdd081cd95d60921b6044820152606401610c94565b60008190506000816001600160a01b031663c45a01556040518163ffffffff1660e01b8152600401602060405180830381865afa158015611f3a573d6000803e3d6000fd5b505050506040513d601f19601f82011682018060405250810190611f5e9190614b0f565b90506000826001600160a01b031663ad5c46486040518163ffffffff1660e01b8152600401602060405180830381865afa158015611fa0573d6000803e3d6000fd5b505050506040513d601f19601f82011682018060405250810190611fc49190614b0f565b60405163e6a4390560e01b81526001600160a01b0388811660048301528083166024830152919250839182169063e6a4390590604401602060405180830381865afa158015612017573d6000803e3d6000fd5b505050506040513d601f19601f8201168201806040525081019061203b9190614b0f565b979650505050505050565b600254604051630736b32b60e31b81526001600160a01b038087166004830152869216906339b5995890602401602060405180830381865afa158015612090573d6000803e3d6000fd5b505050506040513d601f19601f820116820180604052508101906120b49190614a00565b156120d15760405162461bcd60e51b8152600401610c9490614a1d565b6120d9612b5e565b6000841180156120eb57506127108411155b6121075760405162461bcd60e51b8152600401610c9490614c7b565b6001600160a01b03851661212d5760405162461bcd60e51b8152600401610c9490614a47565b61213885858561375d565b612143858584613ca1565b61214c60018055565b5050505050565b6001600160a01b03808316600090815260066020908152604080832093851683529290529081206002810154600182015461218e91906149ed565b949350505050565b61219e6131ef565b6001600160a01b0381166121f45760405162461bcd60e51b815260206004820152601960248201527f496e76616c6964206772616469656e74207265676973747279000000000000006044820152606401610c94565b600280546001600160a01b0319166001600160a01b0392909216919091179055565b60008061222384846144e2565b905060006122318585614549565b90508082116122405780612242565b815b95945050505050565b612253612b5e565b6001600160a01b0381166000908152600460209081526040808320600683528184203385529092529091206001810154151580612294575060008160050154115b6122da5760405162461bcd60e51b81526020600482015260176024820152764e6f206c6971756964697479206f72207265776172647360481b6044820152606401610c94565b6000670de0b6b3a7640000836005015483600101546122f99190614b58565b6123039190614b6f565b90506000826005015483600401548361231c9190614b2c565b61232691906149ed565b9050600081116123655760405162461bcd60e51b815260206004820152600a6024820152694e6f207265776172647360b01b6044820152606401610c94565b60048301829055600060058401819055604051339083906112c3565b6123896131ef565b600081116123f05760405162461bcd60e51b815260206004820152602e60248201527f4d696e696d756d20746f6b656e206c6971756964697479206d7573742062652060448201526d067726561746572207468616e20360941b6064820152608401610c94565b60088190556040518181527f554ff81f8d029070b26b416ba425c7e95c46f196538825a375116221b489351190602001611186565b61242d6131ef565b612435612b5e565b6001600160a01b03811661245b5760405162461bcd60e51b8152600401610c9490614a47565b600a5460095447916000916124709190614b2c565b9050600081831115612489576124868284614b2c565b90505b6040516370a0823160e01b81523060048201526000906001600160a01b038616906370a0823190602401602060405180830381865afa1580156124d0573d6000803e3d6000fd5b505050506040513d601f19601f820116820180604052508101906124f49190614b3f565b6001600160a01b0386166000908152600c6020908152604080832054600b90925282205492935090916125279190614b2c565b90506000818311156125405761253d8284614b2c565b90505b600084118061254f5750600081115b61259b5760405162461bcd60e51b815260206004820152601e60248201527f4e6f206578636573736976652066756e647320746f20776974686472617700006044820152606401610c94565b83156126b257600080546040516001600160a01b039091169086908381818185875af1925050503d80600081146125ee576040519150601f19603f3d011682016040523d82523d6000602084013e6125f3565b606091505b505090508061263c5760405162461bcd60e51b8152602060048201526015602482015274115512081dda5d1a191c985dd85b0819985a5b1959605a1b6044820152606401610c94565b600080546001600160a01b03166001600160a01b03167fdfd9f8c3a5c5053800e06b62919c8c2d37e622f66afc4e1ebcf7306cc637a0fd876040516126a8918152604060208201819052600d908201526c08af0c6cae6e6d2ecca408aa89609b1b606082015260800190565b60405180910390a3505b8015612765576126de6126cd6000546001600160a01b031690565b6001600160a01b038916908361372c565b866001600160a01b03166126fa6000546001600160a01b031690565b6001600160a01b03167fdfd9f8c3a5c5053800e06b62919c8c2d37e622f66afc4e1ebcf7306cc637a0fd8360405161275c9181526040602082018190526010908201526f45786365737369766520746f6b656e7360801b606082015260800190565b60405180910390a35b5050505050506113a060018055565b6127d360405180610140016040528060008152602001600081526020016000815260200160008152602001600081526020016000815260200160008152602001600081526020016000815260200160006001600160a01b031681525090565b506001600160a01b039081166000908152600460208181526040928390208351610140810185528154815260018201549281019290925260028101549382019390935260038301546060820152908201546080820152600582015460a0820152600682015460c0820152600782015460e0820152600882015461010082015260099091015490911661012082015290565b6128b56040518061010001604052806000815260200160008152602001600081526020016000815260200160008152602001600081526020016000815260200160006001600160a01b031681525090565b506001600160a01b039081166000908152600360208181526040928390208351610100810185528154815260018201549281019290925260028101549382019390935290820154606082015260048201546080820152600582015460a0820152600682015460c082015260079091015490911660e082015290565b600254604051630736b32b60e31b81526001600160a01b038086166004830152859216906339b5995890602401602060405180830381865afa15801561297a573d6000803e3d6000fd5b505050506040513d601f19601f8201168201806040525081019061299e9190614a00565b156129bb5760405162461bcd60e51b8152600401610c9490614a1d565b6129c3612b5e565b6000831180156129d557506127108311155b6129f15760405162461bcd60e51b8152600401610c9490614c7b565b6001600160a01b038416612a175760405162461bcd60e51b8152600401610c9490614a47565b612a22848484613ca1565b612a2b60018055565b50505050565b612a396131ef565b6001600160a01b038116612a6357604051631e4fbdf760e01b815260006004820152602401610c94565b6113a0816135bc565b600254604051630736b32b60e31b81526001600160a01b038086166004830152859216906339b5995890602401602060405180830381865afa158015612ab6573d6000803e3d6000fd5b505050506040513d601f19601f82011682018060405250810190612ada9190614a00565b15612af75760405162461bcd60e51b8152600401610c9490614a1d565b612aff612b5e565b600083118015612b1157506127108311155b612b2d5760405162461bcd60e51b8152600401610c9490614c7b565b6001600160a01b038416612b535760405162461bcd60e51b8152600401610c9490614a47565b612a2284848461375d565b600260015403612b8157604051633ee5aeb560e01b815260040160405180910390fd5b6002600155565b6001600160a01b0380831660009081526004602052604090206009810154909116612bd957612bb683611e32565b6009820180546001600160a01b0319166001600160a01b03929092169190911790555b60098101546001600160a01b0316612c035760405162461bcd60e51b8152600401610c9490614a76565b6001600160a01b03831660009081526006602090815260408083203384529091529020600181015415612cdb5760008160040154670de0b6b3a764000084600501548460010154612c549190614b58565b612c5e9190614b6f565b612c689190614b2c565b905080826005016000828254612c7e91906149ed565b9250508190555060008260060154670de0b6b3a764000085600701548560010154612ca99190614b58565b612cb39190614b6f565b612cbd9190614b2c565b905080836007016000828254612cd391906149ed565b909155505050505b600282015415612db75782826003016000828254612cf991906149ed565b9250508190555082826004016000828254612d1491906149ed565b9250508190555082816002016000828254612d2f91906149ed565b9250508190555082816003016000828254612d4a91906149ed565b9091555050600181015415612db257670de0b6b3a764000082600501548260010154612d769190614b58565b612d809190614b6f565b600482015560078201546001820154670de0b6b3a764000091612da291614b58565b612dac9190614b6f565b60068201555b612ed7565b6000612dcc8484600001548560020154614590565b905080826001016000828254612de291906149ed565b9091555050815484908390600090612dfb9084906149ed565b909155505060058301546001830154670de0b6b3a764000091612e1d91614b58565b612e279190614b6f565b600483015560078301546001830154670de0b6b3a764000091612e4991614b58565b612e539190614b6f565b826006018190555083836001016000828254612e6f91906149ed565b9091555050825484908490600090612e889084906149ed565b9250508190555080836002016000828254612ea391906149ed565b90915550506001600160a01b0385166000908152600b602052604081208054869290612ed09084906149ed565b9091555050505b612eec6001600160a01b03851633308661321c565b336001600160a01b03167f4e454f01a53c7bed07081706a3ead05bd1bfa0c411a0ee8db5304398f87a97be85856000866002015411612f3d57612f388787600001548860020154614590565b612f3f565b865b604051612f4e93929190614cb2565b60405180910390a250505050565b6001600160a01b0380831660009081526003602052604090206007810154909116612fad57612f8a83611e32565b6007820180546001600160a01b0319166001600160a01b03929092169190911790555b60078101546001600160a01b0316612fd75760405162461bcd60e51b8152600401610c9490614a76565b6001600160a01b038316600090815260056020908152604080832033845290915290206001810154156130af5760008160020154670de0b6b3a7640000846003015484600101546130289190614b58565b6130329190614b6f565b61303c9190614b2c565b90508082600301600082825461305291906149ed565b9250508190555060008260040154670de0b6b3a76400008560050154856001015461307d9190614b58565b6130879190614b6f565b6130919190614b2c565b9050808360050160008282546130a791906149ed565b909155505050505b60006130c48484600001548560020154614590565b9050808260010160008282546130da91906149ed565b90915550508154849083906000906130f39084906149ed565b909155505060038301546001830154670de0b6b3a76400009161311591614b58565b61311f9190614b6f565b600283015560058301546001830154670de0b6b3a76400009161314191614b58565b61314b9190614b6f565b82600401819055508383600101600082825461316791906149ed565b90915550508254849084906000906131809084906149ed565b925050819055508083600201600082825461319b91906149ed565b9250508190555083600960008282546131b491906149ed565b909155505060405133907fc1405abcead391364eb128c74abfd38ebed1c7984fc9f8a96764b0dd35076d6090611dcd90889088908690614cb2565b6000546001600160a01b03163314611a785760405163118cdaa760e01b8152336004820152602401610c94565b6040516001600160a01b038481166024830152838116604483015260648201839052612a2b9186918216906323b872dd906084015b604051602081830303815290604052915060e01b6020820180516001600160e01b038381831617835250505050614657565b600081116132a35760405162461bcd60e51b8152600401610c9490614c38565b6001600160a01b0382166132c95760405162461bcd60e51b8152600401610c9490614a47565b6001600160a01b038216600090815260036020526040812060028101549091036132f257505050565b600281015460009061330c670de0b6b3a764000085614b58565b6133169190614b6f565b826005015461332591906149ed565b905081600501548110156133875760405162461bcd60e51b8152602060048201526024808201527f4f766572666c6f7720696e20746f6b656e207265776172642063616c63756c616044820152633a34b7b760e11b6064820152608401610c94565b808260050181905550828260060160008282546133a491906149ed565b909155505050505050565b600081116133cf5760405162461bcd60e51b8152600401610c9490614bf7565b6001600160a01b0382166133f55760405162461bcd60e51b8152600401610c9490614a47565b6001600160a01b0382166000908152600360205260408120600281015490910361341e57505050565b6002810154600090613438670de0b6b3a764000085614b58565b6134429190614b6f565b826003015461345191906149ed565b905081600301548110156134a75760405162461bcd60e51b815260206004820152601e60248201527f4f766572666c6f7720696e207265776172642063616c63756c6174696f6e00006044820152606401610c94565b808260030181905550828260040160008282546133a491906149ed565b600081116134e45760405162461bcd60e51b8152600401610c9490614bf7565b6001600160a01b03821661350a5760405162461bcd60e51b8152600401610c9490614a47565b6001600160a01b0382166000908152600460205260408120600281015490910361353357505050565b600281015460009061354d670de0b6b3a764000085614b58565b6135579190614b6f565b826005015461356691906149ed565b905081600501548110156133875760405162461bcd60e51b815260206004820152601e60248201527f4f766572666c6f7720696e207265776172642063616c63756c6174696f6e00006044820152606401610c94565b600080546001600160a01b038381166001600160a01b0319831681178455604051919092169283917f8be0079c531659141344cd1fd0a4f28419497f9722a3daafe3b4186f6b6457e09190a35050565b6000811161362c5760405162461bcd60e51b8152600401610c9490614bf7565b6001600160a01b0382166136525760405162461bcd60e51b8152600401610c9490614a47565b6001600160a01b0382166000908152600460205260408120600281015490910361367b57505050565b6002810154600090613695670de0b6b3a764000085614b58565b61369f9190614b6f565b82600701546136ae91906149ed565b9050816007015481101561370f5760405162461bcd60e51b815260206004820152602260248201527f4f766572666c6f7720696e20455448207265776172642063616c63756c61746960448201526137b760f11b6064820152608401610c94565b808260070181905550828260080160008282546133a491906149ed565b6040516001600160a01b03838116602483015260448201839052610d3091859182169063a9059cbb90606401613251565b6001600160a01b03831660009081526003602090815260408083206005835281842033855290925290912060028201546137d95760405162461bcd60e51b815260206004820152601860248201527f4e6f20455448206c697175696469747920696e20706f6f6c00000000000000006044820152606401610c94565b80546138275760405162461bcd60e51b815260206004820152601c60248201527f4e6f20455448206c697175696469747920746f207769746864726177000000006044820152606401610c94565b60008160020154670de0b6b3a76400008460030154846001015461384b9190614b58565b6138559190614b6f565b61385f9190614b2c565b90508082600301600082825461387591906149ed565b9250508190555060008260040154670de0b6b3a7640000856005015485600101546138a09190614b58565b6138aa9190614b6f565b6138b49190614b2c565b9050808360050160008282546138ca91906149ed565b9250508190555060006127108785600101546138e69190614b58565b6138f09190614b6f565b9050600081116139365760405162461bcd60e51b815260206004820152601160248201527027379039b430b932b9903a3790313ab93760791b6044820152606401610c94565b836001015481111561398a5760405162461bcd60e51b815260206004820152601b60248201527f496e73756666696369656e742073686172657320746f206275726e00000000006044820152606401610c94565b600061399f82876001015488600201546146c8565b905085600101548111156139f55760405162461bcd60e51b815260206004820152601860248201527f496e73756666696369656e742045544820696e20706f6f6c00000000000000006044820152606401610c94565b80856000016000828254613a099190614b2c565b9250508190555081856001016000828254613a249190614b2c565b90915550506002860154865460009190613a3f908590614b58565b613a499190614b6f565b905081876001016000828254613a5f9190614b2c565b9250508190555082876002016000828254613a7a9190614b2c565b9091555050865481908890600090613a93908490614b2c565b909155505060038701546001870154670de0b6b3a764000091613ab591614b58565b613abf9190614b6f565b600287015560058701546001870154670de0b6b3a764000091613ae191614b58565b613aeb9190614b6f565b600487015587821015613b405760405162461bcd60e51b815260206004820152601a60248201527f496e73756666696369656e74204554482077697468647261776e0000000000006044820152606401610c94565b604051600090339084908381818185875af1925050503d8060008114613b82576040519150601f19603f3d011682016040523d82523d6000602084013e613b87565b606091505b5050905080613bce5760405162461bcd60e51b8152602060048201526013602482015272115512081d1c985b9cd9995c8819985a5b1959606a1b6044820152606401610c94565b600587015415613c3f576005870180546000909155613bf76001600160a01b038d16338361372c565b336001600160a01b03167f48d9f9a1425f348b0f140a293bd86c9ae70a2197b8593d2dc279e24f021f7703828e6000604051613c3593929190614b91565b60405180910390a2505b82600a6000828254613c5191906149ed565b909155505060405133907f54ac85787a4de040de34c9da167aa6f74aaf2c8e7fd1cecc11ca8920e645094190613c8c908e9087908990614cb2565b60405180910390a25050505050505050505050565b6001600160a01b0383166000908152600460209081526040808320600683528184203385529092529091206002820154151580613ce2575060008160020154115b613d2e5760405162461bcd60e51b815260206004820152601a60248201527f4e6f20746f6b656e206c697175696469747920696e20706f6f6c0000000000006044820152606401610c94565b8054151580613d41575060008160030154115b613d8d5760405162461bcd60e51b815260206004820152601e60248201527f4e6f20746f6b656e206c697175696469747920746f20776974686472617700006044820152606401610c94565b600181015415613e425760008160040154670de0b6b3a764000084600501548460010154613dbb9190614b58565b613dc59190614b6f565b613dcf9190614b2c565b905080826005016000828254613de591906149ed565b9250508190555060008260060154670de0b6b3a764000085600701548560010154613e109190614b58565b613e1a9190614b6f565b613e249190614b2c565b905080836007016000828254613e3a91906149ed565b909155505050505b6000806000836002015411156140c9576000612710878560020154613e679190614b58565b613e719190614b6f565b905060008111613ec35760405162461bcd60e51b815260206004820152601960248201527f4e6f207669727475616c2073686172657320746f206275726e000000000000006044820152606401610c94565b8360020154811115613f235760405162461bcd60e51b815260206004820152602360248201527f496e73756666696369656e74207669727475616c2073686172657320746f20626044820152623ab93760e91b6064820152608401610c94565b6000612710888660030154613f389190614b58565b613f429190614b6f565b905085600301546000148015613f5a57506004860154155b156140435781856001016000828254613f7391906149ed565b9091555050845481908690600090613f8c9084906149ed565b90915550506005860154670de0b6b3a764000090613faa9084614b58565b613fb49190614b6f565b856004016000828254613fc791906149ed565b90915550506007860154670de0b6b3a764000090613fe59084614b58565b613fef9190614b6f565b85600601600082825461400291906149ed565b925050819055508185600201600082825461401d9190614b2c565b92505081905550808560030160008282546140389190614b2c565b909155506140ae9050565b818560020160008282546140579190614b2c565b92505081905550808560030160008282546140729190614b2c565b925050819055508086600301600082825461408d9190614b2c565b92505081905550818660040160008282546140a89190614b2c565b90915550505b6140b881856149ed565b93506140c482846149ed565b925050505b6001830154156143135760006127108785600101546140e89190614b58565b6140f29190614b6f565b90506000811161413d5760405162461bcd60e51b81526020600482015260166024820152752737903932b0b61039b430b932b9903a3790313ab93760511b6044820152606401610c94565b83600101548111156141915760405162461bcd60e51b815260206004820181905260248201527f496e73756666696369656e74207265616c2073686172657320746f206275726e6044820152606401610c94565b60006141a682876001015488600201546146c8565b905085600101548111156141fc5760405162461bcd60e51b815260206004820152601b60248201527f496e73756666696369656e7420746f6b656e7320696e20706f6f6c00000000006044820152606401610c94565b808560000160008282546142109190614b2c565b925050819055508185600101600082825461422b9190614b2c565b90915550506002860154865460009190614246908590614b58565b6142509190614b6f565b9050818760010160008282546142669190614b2c565b92505081905550828760020160008282546142819190614b2c565b909155505086548190889060009061429a908490614b2c565b909155505060058701546001870154670de0b6b3a7640000916142bc91614b58565b6142c69190614b6f565b600487015560078701546001870154670de0b6b3a7640000916142e891614b58565b6142f29190614b6f565b600687015561430182866149ed565b945061430d83856149ed565b93505050505b848210156143635760405162461bcd60e51b815260206004820152601c60248201527f496e73756666696369656e7420746f6b656e2077697468647261776e000000006044820152606401610c94565b6143776001600160a01b038816338461372c565b60078301541561446e57600783018054600091829055604051909190339083908381818185875af1925050503d80600081146143cf576040519150601f19603f3d011682016040523d82523d6000602084013e6143d4565b606091505b50509050806144255760405162461bcd60e51b815260206004820152601a60248201527f45544820726577617264207472616e73666572206661696c65640000000000006044820152606401610c94565b336001600160a01b03167f48d9f9a1425f348b0f140a293bd86c9ae70a2197b8593d2dc279e24f021f7703838b600160405161446393929190614b91565b60405180910390a250505b6001600160a01b0387166000908152600c6020526040812080548492906144969084906149ed565b909155505060405133907fd962f00b708afdbb0a7b6ed85558339dcca1fbec2ec46f06f9817453a2289955906144d1908a9086908690614cb2565b60405180910390a250505050505050565b6001600160a01b0380831660009081526003602090815260408083206005835281842094861684529390915281206002830154919291830361452957600092505050611943565b6002820154600182015461453f90612710614b58565b6122429190614b6f565b6001600160a01b0380831660009081526004602090815260408083206006835281842094861684529390915281206002830154919291830361452957600092505050611943565b60008084116145e15760405162461bcd60e51b815260206004820152601d60248201527f416d6f756e74206d7573742062652067726561746572207468616e20300000006044820152606401610c94565b816000036145f0575082611e2b565b826145fb8386614b58565b6146059190614b6f565b905060008111611e2b5760405162461bcd60e51b815260206004820152601b60248201527f496e73756666696369656e742073686172657320746f206d696e7400000000006044820152606401610c94565b600080602060008451602086016000885af18061467a576040513d6000823e3d81fd5b50506000513d9150811561469257806001141561469f565b6001600160a01b0384163b155b15612a2b57604051635274afe760e01b81526001600160a01b0385166004820152602401610c94565b60008084116147275760405162461bcd60e51b815260206004820152602560248201527f53686172657320746f206275726e206d75737420626520677265617465722074604482015264068616e20360dc1b6064820152608401610c94565b600082116147835760405162461bcd60e51b815260206004820152602360248201527f546f74616c20736861726573206d75737420626520677265617465722074686160448201526206e20360ec1b6064820152608401610c94565b8161478e8486614b58565b6147989190614b6f565b905082811115611e2b5760405162461bcd60e51b815260206004820152602660248201527f5769746864726177616c20616d6f756e74206578636565647320706f6f6c2062604482015265616c616e636560d01b6064820152608401610c94565b6001600160a01b03811681146113a057600080fd5b60006020828403121561482057600080fd5b8135611e2b816147f9565b6000806040838503121561483e57600080fd5b8235614849816147f9565b946020939093013593505050565b6000806040838503121561486a57600080fd5b8235614875816147f9565b91506020830135614885816147f9565b809150509250929050565b6000602082840312156148a257600080fd5b5035919050565b6000806000606084860312156148be57600080fd5b83356148c9816147f9565b95602085013595506040909401359392505050565b80151581146113a057600080fd5b600080604083850312156148ff57600080fd5b823561490a816147f9565b91506020830135614885816148de565b6000806000806080858703121561493057600080fd5b843561493b816147f9565b966020860135965060408601359560600135945092505050565b600061014082019050825182526020830151602083015260408301516040830152606083015160608301526080830151608083015260a083015160a083015260c083015160c083015260e083015160e08301526101008301516101008301526101208301516149d06101208401826001600160a01b03169052565b5092915050565b634e487b7160e01b600052601160045260246000fd5b80820180821115611943576119436149d7565b600060208284031215614a1257600080fd5b8151611e2b816148de565b60208082526010908201526f151bdad95b881a5cc8189b1bd8dad95960821b604082015260600190565b602080825260159082015274496e76616c696420746f6b656e206164647265737360581b604082015260600190565b60208082526013908201527214185a5c88191bd95cc81b9bdd08195e1a5cdd606a1b604082015260600190565b80516001600160701b0381168114614aba57600080fd5b919050565b600080600060608486031215614ad457600080fd5b614add84614aa3565b9250614aeb60208501614aa3565b9150604084015163ffffffff81168114614b0457600080fd5b809150509250925092565b600060208284031215614b2157600080fd5b8151611e2b816147f9565b81810381811115611943576119436149d7565b600060208284031215614b5157600080fd5b5051919050565b8082028115828204841417611943576119436149d7565b600082614b8c57634e487b7160e01b600052601260045260246000fd5b500490565b9283526001600160a01b039190911660208301521515604082015260600190565b60208082526025908201527f4f6e6c79206f72646572626f6f6b2063616e2063616c6c20746869732066756e60408201526431ba34b7b760d91b606082015260800190565b60208082526021908201527f45544820616d6f756e74206d7573742062652067726561746572207468616e206040820152600360fc1b606082015260800190565b60208082526023908201527f546f6b656e20616d6f756e74206d75737420626520677265617465722074686160408201526206e20360ec1b606082015260800190565b60208082526019908201527f496e76616c6964207368617265732070657263656e7461676500000000000000604082015260600190565b6001600160a01b03939093168352602083019190915260408201526060019056fea2646970667358221220c1d07143a1765f4cca659d14392351f8160e106a8fd2324909da42c7ac98d27764736f6c634300081a0033",
  "linkReferences": {},
  "deployedLinkReferences": {}
}