{
  "_format": "hh-sol-artifact-1",
  "contractName": "GradientMarketMakerPool",
  "sourceName": "contracts/GradientMarketMakerPool.sol",
  "abi": [
    {
      "inputs": [
        {
          "internalType": "contract IGradientRegistry",
          "name": "_gradientRegistry",
          "type": "address"
        }
      ],
      "stateMutability": "nonpayable",
      "type": "constructor"
    },
    {
      "inputs": [
        {
          "internalType": "address",
          "name": "owner",
          "type": "address"
        }
      ],
      "name": "OwnableInvalidOwner",
      "type": "error"
    },
    {
      "inputs": [
        {
          "internalType": "address",
          "name": "account",
          "type": "address"
        }
      ],
      "name": "OwnableUnauthorizedAccount",
      "type": "error"
    },
    {
      "inputs": [],
      "name": "ReentrancyGuardReentrantCall",
      "type": "error"
    },
    {
      "inputs": [
        {
          "internalType": "address",
          "name": "token",
          "type": "address"
        }
      ],
      "name": "SafeERC20FailedOperation",
      "type": "error"
    },
    {
      "anonymous": false,
      "inputs": [
        {
          "indexed": true,
          "internalType": "address",
          "name": "orderbook",
          "type": "address"
        },
        {
          "indexed": false,
          "internalType": "uint256",
          "name": "amount",
          "type": "uint256"
        },
        {
          "indexed": true,
          "internalType": "address",
          "name": "token",
          "type": "address"
        }
      ],
      "name": "ETHReceivedFromOrderbook",
      "type": "event"
    },
    {
      "anonymous": false,
      "inputs": [
        {
          "indexed": true,
          "internalType": "address",
          "name": "orderbook",
          "type": "address"
        },
        {
          "indexed": false,
          "internalType": "uint256",
          "name": "amount",
          "type": "uint256"
        },
        {
          "indexed": true,
          "internalType": "address",
          "name": "token",
          "type": "address"
        }
      ],
      "name": "ETHTransferredToOrderbook",
      "type": "event"
    },
    {
      "anonymous": false,
      "inputs": [
        {
          "indexed": true,
          "internalType": "address",
          "name": "user",
          "type": "address"
        },
        {
          "indexed": false,
          "internalType": "address",
          "name": "token",
          "type": "address"
        },
        {
          "indexed": false,
          "internalType": "uint256",
          "name": "ethAmount",
          "type": "uint256"
        },
        {
          "indexed": false,
          "internalType": "uint256",
          "name": "tokenAmount",
          "type": "uint256"
        },
        {
          "indexed": false,
          "internalType": "uint256",
          "name": "lpSharesMinted",
          "type": "uint256"
        }
      ],
      "name": "LiquidityDeposited",
      "type": "event"
    },
    {
      "anonymous": false,
      "inputs": [
        {
          "indexed": true,
          "internalType": "address",
          "name": "user",
          "type": "address"
        },
        {
          "indexed": false,
          "internalType": "uint256",
          "name": "tokenAmount",
          "type": "uint256"
        },
        {
          "indexed": false,
          "internalType": "uint256",
          "name": "ethAmount",
          "type": "uint256"
        },
        {
          "indexed": false,
          "internalType": "uint256",
          "name": "lpSharesBurned",
          "type": "uint256"
        }
      ],
      "name": "LiquidityWithdrawn",
      "type": "event"
    },
    {
      "anonymous": false,
      "inputs": [
        {
          "indexed": true,
          "internalType": "address",
          "name": "previousOwner",
          "type": "address"
        },
        {
          "indexed": true,
          "internalType": "address",
          "name": "newOwner",
          "type": "address"
        }
      ],
      "name": "OwnershipTransferred",
      "type": "event"
    },
    {
      "anonymous": false,
      "inputs": [
        {
          "indexed": true,
          "internalType": "address",
          "name": "token",
          "type": "address"
        },
        {
          "indexed": false,
          "internalType": "uint256",
          "name": "newTotalEth",
          "type": "uint256"
        },
        {
          "indexed": false,
          "internalType": "uint256",
          "name": "newTotalToken",
          "type": "uint256"
        },
        {
          "indexed": false,
          "internalType": "uint256",
          "name": "newTotalLiquidity",
          "type": "uint256"
        },
        {
          "indexed": false,
          "internalType": "uint256",
          "name": "newTotalLPShares",
          "type": "uint256"
        }
      ],
      "name": "PoolBalanceUpdated",
      "type": "event"
    },
    {
      "anonymous": false,
      "inputs": [
        {
          "indexed": true,
          "internalType": "address",
          "name": "user",
          "type": "address"
        },
        {
          "indexed": false,
          "internalType": "uint256",
          "name": "amount",
          "type": "uint256"
        }
      ],
      "name": "RewardClaimed",
      "type": "event"
    },
    {
      "anonymous": false,
      "inputs": [
        {
          "indexed": true,
          "internalType": "address",
          "name": "from",
          "type": "address"
        },
        {
          "indexed": false,
          "internalType": "uint256",
          "name": "amount",
          "type": "uint256"
        }
      ],
      "name": "RewardDeposited",
      "type": "event"
    },
    {
      "anonymous": false,
      "inputs": [
        {
          "indexed": true,
          "internalType": "address",
          "name": "orderbook",
          "type": "address"
        },
        {
          "indexed": true,
          "internalType": "address",
          "name": "token",
          "type": "address"
        },
        {
          "indexed": false,
          "internalType": "uint256",
          "name": "amount",
          "type": "uint256"
        }
      ],
      "name": "TokenReceivedFromOrderbook",
      "type": "event"
    },
    {
      "anonymous": false,
      "inputs": [
        {
          "indexed": true,
          "internalType": "address",
          "name": "orderbook",
          "type": "address"
        },
        {
          "indexed": true,
          "internalType": "address",
          "name": "token",
          "type": "address"
        },
        {
          "indexed": false,
          "internalType": "uint256",
          "name": "amount",
          "type": "uint256"
        }
      ],
      "name": "TokenTransferredToOrderbook",
      "type": "event"
    },
    {
      "inputs": [],
      "name": "SCALE",
      "outputs": [
        {
          "internalType": "uint256",
          "name": "",
          "type": "uint256"
        }
      ],
      "stateMutability": "view",
      "type": "function"
    },
    {
      "inputs": [
        {
          "internalType": "address",
          "name": "token",
          "type": "address"
        }
      ],
      "name": "claimReward",
      "outputs": [],
      "stateMutability": "nonpayable",
      "type": "function"
    },
    {
      "inputs": [
        {
          "internalType": "address[]",
          "name": "tokens",
          "type": "address[]"
        }
      ],
      "name": "emergencyWithdraw",
      "outputs": [],
      "stateMutability": "nonpayable",
      "type": "function"
    },
    {
      "inputs": [],
      "name": "emergencyWithdrawETH",
      "outputs": [],
      "stateMutability": "nonpayable",
      "type": "function"
    },
    {
      "inputs": [
        {
          "internalType": "address",
          "name": "token",
          "type": "address"
        }
      ],
      "name": "getPairAddress",
      "outputs": [
        {
          "internalType": "address",
          "name": "pairAddress",
          "type": "address"
        }
      ],
      "stateMutability": "view",
      "type": "function"
    },
    {
      "inputs": [
        {
          "internalType": "address",
          "name": "token",
          "type": "address"
        }
      ],
      "name": "getPoolInfo",
      "outputs": [
        {
          "components": [
            {
              "internalType": "uint256",
              "name": "totalEth",
              "type": "uint256"
            },
            {
              "internalType": "uint256",
              "name": "totalToken",
              "type": "uint256"
            },
            {
              "internalType": "uint256",
              "name": "totalLiquidity",
              "type": "uint256"
            },
            {
              "internalType": "uint256",
              "name": "totalLPShares",
              "type": "uint256"
            },
            {
              "internalType": "uint256",
              "name": "accountedEth",
              "type": "uint256"
            },
            {
              "internalType": "uint256",
              "name": "accountedToken",
              "type": "uint256"
            },
            {
              "internalType": "uint256",
              "name": "accRewardPerShare",
              "type": "uint256"
            },
            {
              "internalType": "uint256",
              "name": "rewardBalance",
              "type": "uint256"
            },
            {
              "internalType": "address",
              "name": "uniswapPair",
              "type": "address"
            }
          ],
          "internalType": "struct IGradientMarketMakerPool.PoolInfo",
          "name": "",
          "type": "tuple"
        }
      ],
      "stateMutability": "view",
      "type": "function"
    },
    {
      "inputs": [
        {
          "internalType": "address",
          "name": "token",
          "type": "address"
        }
      ],
      "name": "getReserves",
      "outputs": [
        {
          "internalType": "uint256",
          "name": "reserveETH",
          "type": "uint256"
        },
        {
          "internalType": "uint256",
          "name": "reserveToken",
          "type": "uint256"
        }
      ],
      "stateMutability": "view",
      "type": "function"
    },
    {
      "inputs": [
        {
          "internalType": "address",
          "name": "token",
          "type": "address"
        },
        {
          "internalType": "address",
          "name": "user",
          "type": "address"
        }
      ],
      "name": "getUserLPShares",
      "outputs": [
        {
          "internalType": "uint256",
          "name": "lpShares",
          "type": "uint256"
        }
      ],
      "stateMutability": "view",
      "type": "function"
    },
    {
      "inputs": [
        {
          "internalType": "address",
          "name": "token",
          "type": "address"
        },
        {
          "internalType": "address",
          "name": "user",
          "type": "address"
        }
      ],
      "name": "getUserSharePercentage",
      "outputs": [
        {
          "internalType": "uint256",
          "name": "sharePercentage",
          "type": "uint256"
        }
      ],
      "stateMutability": "view",
      "type": "function"
    },
    {
      "inputs": [],
      "name": "gradientRegistry",
      "outputs": [
        {
          "internalType": "contract IGradientRegistry",
          "name": "",
          "type": "address"
        }
      ],
      "stateMutability": "view",
      "type": "function"
    },
    {
      "inputs": [
        {
          "internalType": "address",
          "name": "",
          "type": "address"
        },
        {
          "internalType": "address",
          "name": "",
          "type": "address"
        }
      ],
      "name": "marketMakers",
      "outputs": [
        {
          "internalType": "uint256",
          "name": "tokenAmount",
          "type": "uint256"
        },
        {
          "internalType": "uint256",
          "name": "ethAmount",
          "type": "uint256"
        },
        {
          "internalType": "uint256",
          "name": "lpShares",
          "type": "uint256"
        },
        {
          "internalType": "uint256",
          "name": "rewardDebt",
          "type": "uint256"
        },
        {
          "internalType": "uint256",
          "name": "pendingReward",
          "type": "uint256"
        },
        {
          "internalType": "uint256",
          "name": "withdrawnEth",
          "type": "uint256"
        },
        {
          "internalType": "uint256",
          "name": "withdrawnTokens",
          "type": "uint256"
        }
      ],
      "stateMutability": "view",
      "type": "function"
    },
    {
      "inputs": [],
      "name": "owner",
      "outputs": [
        {
          "internalType": "address",
          "name": "",
          "type": "address"
        }
      ],
      "stateMutability": "view",
      "type": "function"
    },
    {
      "inputs": [
        {
          "internalType": "address",
          "name": "",
          "type": "address"
        }
      ],
      "name": "pools",
      "outputs": [
        {
          "internalType": "uint256",
          "name": "totalEth",
          "type": "uint256"
        },
        {
          "internalType": "uint256",
          "name": "totalToken",
          "type": "uint256"
        },
        {
          "internalType": "uint256",
          "name": "totalLiquidity",
          "type": "uint256"
        },
        {
          "internalType": "uint256",
          "name": "totalLPShares",
          "type": "uint256"
        },
        {
          "internalType": "uint256",
          "name": "accountedEth",
          "type": "uint256"
        },
        {
          "internalType": "uint256",
          "name": "accountedToken",
          "type": "uint256"
        },
        {
          "internalType": "uint256",
          "name": "accRewardPerShare",
          "type": "uint256"
        },
        {
          "internalType": "uint256",
          "name": "rewardBalance",
          "type": "uint256"
        },
        {
          "internalType": "address",
          "name": "uniswapPair",
          "type": "address"
        }
      ],
      "stateMutability": "view",
      "type": "function"
    },
    {
      "inputs": [
        {
          "internalType": "address",
          "name": "token",
          "type": "address"
        },
        {
          "internalType": "uint256",
          "name": "tokenAmount",
          "type": "uint256"
        },
        {
          "internalType": "uint256",
          "name": "minTokenAmount",
          "type": "uint256"
        }
      ],
      "name": "provideLiquidity",
      "outputs": [],
      "stateMutability": "payable",
      "type": "function"
    },
    {
      "inputs": [
        {
          "internalType": "address",
          "name": "token",
          "type": "address"
        },
        {
          "internalType": "uint256",
          "name": "amount",
          "type": "uint256"
        }
      ],
      "name": "receiveETHFromOrderbook",
      "outputs": [],
      "stateMutability": "payable",
      "type": "function"
    },
    {
      "inputs": [
        {
          "internalType": "address",
          "name": "token",
          "type": "address"
        }
      ],
      "name": "receiveFeeDistribution",
      "outputs": [],
      "stateMutability": "payable",
      "type": "function"
    },
    {
      "inputs": [
        {
          "internalType": "address",
          "name": "token",
          "type": "address"
        },
        {
          "internalType": "uint256",
          "name": "amount",
          "type": "uint256"
        }
      ],
      "name": "receiveTokenFromOrderbook",
      "outputs": [],
      "stateMutability": "nonpayable",
      "type": "function"
    },
    {
      "inputs": [],
      "name": "renounceOwnership",
      "outputs": [],
      "stateMutability": "nonpayable",
      "type": "function"
    },
    {
      "inputs": [
        {
          "internalType": "contract IGradientRegistry",
          "name": "_gradientRegistry",
          "type": "address"
        }
      ],
      "name": "setRegistry",
      "outputs": [],
      "stateMutability": "nonpayable",
      "type": "function"
    },
    {
      "inputs": [
        {
          "internalType": "address",
          "name": "token",
          "type": "address"
        },
        {
          "internalType": "uint256",
          "name": "amount",
          "type": "uint256"
        }
      ],
      "name": "transferETHToOrderbook",
      "outputs": [],
      "stateMutability": "nonpayable",
      "type": "function"
    },
    {
      "inputs": [
        {
          "internalType": "address",
          "name": "newOwner",
          "type": "address"
        }
      ],
      "name": "transferOwnership",
      "outputs": [],
      "stateMutability": "nonpayable",
      "type": "function"
    },
    {
      "inputs": [
        {
          "internalType": "address",
          "name": "token",
          "type": "address"
        },
        {
          "internalType": "uint256",
          "name": "amount",
          "type": "uint256"
        }
      ],
      "name": "transferTokenToOrderbook",
      "outputs": [],
      "stateMutability": "nonpayable",
      "type": "function"
    },
    {
      "inputs": [
        {
          "internalType": "address",
          "name": "token",
          "type": "address"
        },
        {
          "internalType": "uint256",
          "name": "shares",
          "type": "uint256"
        }
      ],
      "name": "withdrawLiquidity",
      "outputs": [],
      "stateMutability": "nonpayable",
      "type": "function"
    },
    {
      "stateMutability": "payable",
      "type": "receive"
    }
  ],
  "bytecode": "0x608060405234801561001057600080fd5b50604051612ff7380380612ff783398101604081905261002f916100d8565b338061005557604051631e4fbdf760e01b81526000600482015260240160405180910390fd5b61005e81610088565b5060018055600280546001600160a01b0319166001600160a01b0392909216919091179055610108565b600080546001600160a01b038381166001600160a01b0319831681178455604051919092169283917f8be0079c531659141344cd1fd0a4f28419497f9722a3daafe3b4186f6b6457e09190a35050565b6000602082840312156100ea57600080fd5b81516001600160a01b038116811461010157600080fd5b9392505050565b612ee0806101176000396000f3fe6080604052600436106101445760003560e01c806384536017116100b6578063adabfa051161006f578063adabfa05146104fe578063ae8b804d1461051e578063d279c1911461053e578063e706fad81461055e578063eced55261461057e578063f2fde38b1461059a57600080fd5b806384536017146103bb57806385e694b6146103d05780638a57fddd146103f05780638da5cb5b14610403578063a4063dbc14610421578063a91ee0dc146104de57600080fd5b806340a16e261161010857806340a16e2614610278578063576f44721461030d578063715018a6146103205780637e49b933146103355780637e7c7a9514610363578063830562bc1461038357600080fd5b806301c1dfba1461015057806306bfa9381461017257806306d47de9146102105780632bb9c958146102305780633e99c1e41461024357600080fd5b3661014b57005b600080fd5b34801561015c57600080fd5b5061017061016b366004612abb565b6105ba565b005b34801561017e57600080fd5b5061019261018d366004612b47565b61075a565b6040516102079190600061012082019050825182526020830151602083015260408301516040830152606083015160608301526080830151608083015260a083015160a083015260c083015160c083015260e083015160e083015260018060a01b036101008401511661010083015292915050565b60405180910390f35b34801561021c57600080fd5b5061017061022b366004612b6b565b610838565b61017061023e366004612b97565b610cdd565b34801561024f57600080fd5b5061026361025e366004612b47565b61114b565b60408051928352602083019190915201610207565b34801561028457600080fd5b506102d8610293366004612bcc565b60046020818152600093845260408085209091529183529120805460018201546002830154600384015494840154600585015460069095015493959294919390919087565b604080519788526020880196909652948601939093526060850191909152608084015260a083015260c082015260e001610207565b61017061031b366004612b47565b61128d565b34801561032c57600080fd5b50610170611494565b34801561034157600080fd5b50610355610350366004612bcc565b6114a8565b604051908152602001610207565b34801561036f57600080fd5b5061017061037e366004612b6b565b6114d8565b34801561038f57600080fd5b506002546103a3906001600160a01b031681565b6040516001600160a01b039091168152602001610207565b3480156103c757600080fd5b5061017061187e565b3480156103dc57600080fd5b506103a36103eb366004612b47565b61192b565b6101706103fe366004612b6b565b611b3f565b34801561040f57600080fd5b506000546001600160a01b03166103a3565b34801561042d57600080fd5b5061049161043c366004612b47565b600360208190526000918252604090912080546001820154600283015493830154600484015460058501546006860154600787015460089097015495979496949593949293919290916001600160a01b031689565b60408051998a5260208a0198909852968801959095526060870193909352608086019190915260a085015260c084015260e08301526001600160a01b031661010082015261012001610207565b3480156104ea57600080fd5b506101706104f9366004612b47565b611e5c565b34801561050a57600080fd5b50610170610519366004612b6b565b611f49565b34801561052a57600080fd5b50610355610539366004612bcc565b6121ee565b34801561054a57600080fd5b50610170610559366004612b47565b61225d565b34801561056a57600080fd5b50610170610579366004612b6b565b61245b565b34801561058a57600080fd5b50610355670de0b6b3a764000081565b3480156105a657600080fd5b506101706105b5366004612b47565b612775565b6105c26127b0565b47801561066b57600080546040516001600160a01b039091169083908381818185875af1925050503d8060008114610616576040519150601f19603f3d011682016040523d82523d6000602084013e61061b565b606091505b50509050806106695760405162461bcd60e51b8152602060048201526015602482015274115512081dda5d1a191c985dd85b0819985a5b1959605a1b60448201526064015b60405180910390fd5b505b60005b8281101561075457600084848381811061068a5761068a612c05565b905060200201602081019061069f9190612b47565b90506001600160a01b0381161561074b576040516370a0823160e01b81523060048201526000906001600160a01b038316906370a0823190602401602060405180830381865afa1580156106f7573d6000803e3d6000fd5b505050506040513d601f19601f8201168201806040525081019061071b9190612c1b565b90508015610749576107496107386000546001600160a01b031690565b6001600160a01b03841690836127dd565b505b5060010161066e565b50505050565b6107b2604051806101200160405280600081526020016000815260200160008152602001600081526020016000815260200160008152602001600081526020016000815260200160006001600160a01b031681525090565b506001600160a01b039081166000908152600360208181526040928390208351610120810185528154815260018201549281019290925260028101549382019390935290820154606082015260048201546080820152600582015460a0820152600682015460c0820152600782015460e082015260089091015490911661010082015290565b61084061283c565b6001600160a01b038216600090815260036020908152604080832060048352818420338552909252909120821580159061087c57506127108311155b6108c85760405162461bcd60e51b815260206004820152601960248201527f496e76616c6964207368617265732070657263656e74616765000000000000006044820152606401610660565b60008260020154116109135760405162461bcd60e51b8152602060048201526014602482015273139bc81b1a5c5d5a591a5d1e481a5b881c1bdbdb60621b6044820152606401610660565b6001810154815460009161092691612c4a565b9050600081116109785760405162461bcd60e51b815260206004820152601860248201527f4e6f206c697175696469747920746f20776974686472617700000000000000006044820152606401610660565b60008260030154670de0b6b3a76400008560060154856002015461099c9190612c5d565b6109a69190612c74565b6109b09190612c96565b9050808360040160008282546109c69190612c4a565b9250508190555060006127108685600201546109e29190612c5d565b6109ec9190612c74565b905060008111610a325760405162461bcd60e51b815260206004820152601160248201527027379039b430b932b9903a3790313ab93760791b6044820152606401610660565b60008560030154828760010154610a499190612c5d565b610a539190612c74565b905060008660030154838860000154610a6c9190612c5d565b610a769190612c74565b905081866006016000828254610a8c9190612c4a565b9250508190555080866005016000828254610aa79190612c4a565b9250508190555082866002016000828254610ac29190612c96565b90915550610ad290508183612c4a565b876002016000828254610ae59190612c96565b9250508190555081876001016000828254610b009190612c96565b9091555050865481908890600090610b19908490612c96565b9250508190555060008760030154848960040154610b379190612c5d565b610b419190612c74565b905060008860030154858a60050154610b5a9190612c5d565b610b649190612c74565b905084896003016000828254610b7a9190612c96565b9250508190555081896004016000828254610b959190612c96565b9250508190555080896005016000828254610bb09190612c96565b909155505060068901546002890154670de0b6b3a764000091610bd291612c5d565b610bdc9190612c74565b6003890155610bf56001600160a01b038c1633866127dd565b604051600090339085908381818185875af1925050503d8060008114610c37576040519150601f19603f3d011682016040523d82523d6000602084013e610c3c565b606091505b5050905080610c835760405162461bcd60e51b8152602060048201526013602482015272115512081d1c985b9cd9995c8819985a5b1959606a1b6044820152606401610660565b604080518681526020810186905290810187905233907f9746cd459b192e14d25047ee6f0c763709fc38435eb4883830cf715de0a40ac09060600160405180910390a250505050505050505050610cd960018055565b5050565b610ce561283c565b6001600160a01b0380841660009081526003602052604090206008810154909116610d3657610d138461192b565b6008820180546001600160a01b0319166001600160a01b03929092169190911790555b60088101546001600160a01b0316610d605760405162461bcd60e51b815260040161066090612ca9565b600080610d6c8661114b565b91509150600082118015610d805750600081115b610ddb5760405162461bcd60e51b815260206004820152602660248201527f496e73756666696369656e74206c697175696469747920696e20556e6973776160448201526538103830b4b960d11b6064820152608401610660565b600082610de88334612c5d565b610df29190612c74565b905084861015610e385760405162461bcd60e51b81526020600482015260116024820152700a6d8d2e0e0c2ceca40e8dede40d0d2ced607b1b6044820152606401610660565b6064610e45826063612c5d565b610e4f9190612c74565b8610158015610e7457506064610e66826065612c5d565b610e709190612c74565b8611155b610ec05760405162461bcd60e51b815260206004820152601760248201527f496e76616c6964206c697175696469747920726174696f0000000000000000006044820152606401610660565b610ed56001600160a01b038816333089612866565b6001600160a01b0387166000908152600460209081526040808320338452909152812060018101548154919291610f0c9190612c4a565b90508015610f695760008260030154670de0b6b3a764000088600601548560020154610f389190612c5d565b610f429190612c74565b610f4c9190612c96565b905080836004016000828254610f629190612c4a565b9091555050505b600080610f76348b612c4a565b9050600088600501548960040154610f8e9190612c4a565b90508860030154600003610fa457819250610fc2565b80896003015483610fb59190612c5d565b610fbf9190612c74565b92505b82856002016000828254610fd69190612c4a565b9250508190555034856001016000828254610ff19190612c4a565b909155505084548b90869060009061100a908490612c4a565b909155505060068901546002860154670de0b6b3a76400009161102c91612c5d565b6110369190612c74565b6003860155611045348c612c4a565b8960020160008282546110589190612c4a565b9091555050885434908a90600090611071908490612c4a565b925050819055508a89600101600082825461108c9190612c4a565b92505081905550348960040160008282546110a79190612c4a565b925050819055508a8960050160008282546110c29190612c4a565b92505081905550828960030160008282546110dd9190612c4a565b9091555050604080516001600160a01b038e1681523460208201529081018c90526060810184905233907f76eb95a037bfb0d0de0d9534dc6b6c0be4c3c7b9f6e31fd4d34d2339de6dbcd89060800160405180910390a250505050505050505061114660018055565b505050565b60008060006111598461192b565b90506001600160a01b0381166111815760405162461bcd60e51b815260040161066090612ca9565b600080826001600160a01b0316630902f1ac6040518163ffffffff1660e01b8152600401606060405180830381865afa1580156111c2573d6000803e3d6000fd5b505050506040513d601f19601f820116820180604052508101906111e69190612cf2565b50915091506000836001600160a01b0316630dfe16816040518163ffffffff1660e01b8152600401602060405180830381865afa15801561122b573d6000803e3d6000fd5b505050506040513d601f19601f8201168201806040525081019061124f9190612d42565b9050866001600160a01b0316816001600160a01b031614611271578282611274565b81835b6001600160701b03918216999116975095505050505050565b8060006112998261192b565b90506001600160a01b0381166112c15760405162461bcd60e51b815260040161066090612ca9565b6001600160a01b03828116600090815260036020526040902060080154166112fb5760405162461bcd60e51b815260040161066090612d5f565b6002546040516316ed852560e01b81523360048201526001600160a01b03909116906316ed852590602401602060405180830381865afa158015611343573d6000803e3d6000fd5b505050506040513d601f19601f820116820180604052508101906113679190612d8d565b6113ca5760405162461bcd60e51b815260206004820152602e60248201527f4f6e6c7920726577617264206469737472696275746f722063616e2063616c6c60448201526d103a3434b990333ab731ba34b7b760911b6064820152608401610660565b6001600160a01b038316600090815260036020526040902060028101546114035760405162461bcd60e51b815260040161066090612daf565b600034116114415760405162461bcd60e51b815260206004820152600b60248201526a139bc8115512081cd95b9d60aa1b6044820152606401610660565b61144b843461289f565b836001600160a01b03167f7dbc080e4530c8bcf265eb5c9a35ae096ca1eb607b7e802b96581ef4c5e1a7033460405161148691815260200190565b60405180910390a250505050565b61149c6127b0565b6114a660006129fa565b565b6001600160a01b038083166000908152600460209081526040808320938516835292905220600201545b92915050565b600254604051630736b32b60e31b81526001600160a01b038085166004830152849216906339b5995890602401602060405180830381865afa158015611522573d6000803e3d6000fd5b505050506040513d601f19601f820116820180604052508101906115469190612d8d565b156115635760405162461bcd60e51b815260040161066090612dd5565b82600061156f8261192b565b90506001600160a01b0381166115975760405162461bcd60e51b815260040161066090612ca9565b6001600160a01b03828116600090815260036020526040902060080154166115d15760405162461bcd60e51b815260040161066090612d5f565b600260009054906101000a90046001600160a01b03166001600160a01b031663c18b1d5e6040518163ffffffff1660e01b8152600401602060405180830381865afa158015611624573d6000803e3d6000fd5b505050506040513d601f19601f820116820180604052508101906116489190612d42565b6001600160a01b0316336001600160a01b0316146116785760405162461bcd60e51b815260040161066090612dff565b600084116116985760405162461bcd60e51b815260040161066090612e44565b6001600160a01b0385166116be5760405162461bcd60e51b815260040161066090612e7b565b6001600160a01b038516600090815260036020526040902060028101546116f75760405162461bcd60e51b815260040161066090612daf565b80548511156117485760405162461bcd60e51b815260206004820152601d60248201527f496e73756666696369656e7420706f6f6c204554482062616c616e63650000006044820152606401610660565b8481600001600082825461175c9190612c96565b92505081905550848160020160008282546117779190612c96565b9091555050604051600090339087908381818185875af1925050503d80600081146117be576040519150601f19603f3d011682016040523d82523d6000602084013e6117c3565b606091505b50509050806118145760405162461bcd60e51b815260206004820181905260248201527f455448207472616e7366657220746f206f72646572626f6f6b206661696c65646044820152606401610660565b81546001830154600284015460038501546040805194855260208501939093529183015260608201526001600160a01b038816907fe7a1849d3d3b81e99267b68a3889d2f466ac59697fa69ed9f94d306737f6ecd89060800160405180910390a250505050505050565b6118866127b0565b47801561192857600080546040516001600160a01b039091169083908381818185875af1925050503d80600081146118da576040519150601f19603f3d011682016040523d82523d6000602084013e6118df565b606091505b5050905080610cd95760405162461bcd60e51b8152602060048201526015602482015274115512081dda5d1a191c985dd85b0819985a5b1959605a1b6044820152606401610660565b50565b600080600260009054906101000a90046001600160a01b03166001600160a01b031663f887ea406040518163ffffffff1660e01b8152600401602060405180830381865afa158015611981573d6000803e3d6000fd5b505050506040513d601f19601f820116820180604052508101906119a59190612d42565b90506001600160a01b0381166119ee5760405162461bcd60e51b815260206004820152600e60248201526d149bdd5d195c881b9bdd081cd95d60921b6044820152606401610660565b60008190506000816001600160a01b031663c45a01556040518163ffffffff1660e01b8152600401602060405180830381865afa158015611a33573d6000803e3d6000fd5b505050506040513d601f19601f82011682018060405250810190611a579190612d42565b90506000826001600160a01b031663ad5c46486040518163ffffffff1660e01b8152600401602060405180830381865afa158015611a99573d6000803e3d6000fd5b505050506040513d601f19601f82011682018060405250810190611abd9190612d42565b60405163e6a4390560e01b81526001600160a01b0388811660048301528083166024830152919250839182169063e6a4390590604401602060405180830381865afa158015611b10573d6000803e3d6000fd5b505050506040513d601f19601f82011682018060405250810190611b349190612d42565b979650505050505050565b600254604051630736b32b60e31b81526001600160a01b038085166004830152849216906339b5995890602401602060405180830381865afa158015611b89573d6000803e3d6000fd5b505050506040513d601f19601f82011682018060405250810190611bad9190612d8d565b15611bca5760405162461bcd60e51b815260040161066090612dd5565b826000611bd68261192b565b90506001600160a01b038116611bfe5760405162461bcd60e51b815260040161066090612ca9565b6001600160a01b0382811660009081526003602052604090206008015416611c385760405162461bcd60e51b815260040161066090612d5f565b600260009054906101000a90046001600160a01b03166001600160a01b031663c18b1d5e6040518163ffffffff1660e01b8152600401602060405180830381865afa158015611c8b573d6000803e3d6000fd5b505050506040513d601f19601f82011682018060405250810190611caf9190612d42565b6001600160a01b0316336001600160a01b031614611cdf5760405162461bcd60e51b815260040161066090612dff565b60008411611cff5760405162461bcd60e51b815260040161066090612e44565b833414611d445760405162461bcd60e51b815260206004820152601360248201527208aa89040c2dadeeadce840dad2e6dac2e8c6d606b1b6044820152606401610660565b6001600160a01b03851660009081526003602052604090206002810154611d7d5760405162461bcd60e51b815260040161066090612daf565b84816000016000828254611d919190612c4a565b9250508190555084816002016000828254611dac9190612c4a565b90915550506040518581526001600160a01b0387169033907fa83dbe67a8301965c2dd933c3feb89cae1783e4a8825466fd979d121f3f7ef69906020015b60405180910390a380546001820154600283015460038401546040805194855260208501939093529183015260608201526001600160a01b038716907fe7a1849d3d3b81e99267b68a3889d2f466ac59697fa69ed9f94d306737f6ecd8906080015b60405180910390a2505050505050565b611e646127b0565b60006001600160a01b0316816001600160a01b0316634513443a6040518163ffffffff1660e01b8152600401602060405180830381865afa158015611ead573d6000803e3d6000fd5b505050506040513d601f19601f82011682018060405250810190611ed19190612d42565b6001600160a01b031603611f275760405162461bcd60e51b815260206004820152601960248201527f496e76616c6964206772616469656e74207265676973747279000000000000006044820152606401610660565b600280546001600160a01b0319166001600160a01b0392909216919091179055565b600254604051630736b32b60e31b81526001600160a01b038085166004830152849216906339b5995890602401602060405180830381865afa158015611f93573d6000803e3d6000fd5b505050506040513d601f19601f82011682018060405250810190611fb79190612d8d565b15611fd45760405162461bcd60e51b815260040161066090612dd5565b826000611fe08261192b565b90506001600160a01b0381166120085760405162461bcd60e51b815260040161066090612ca9565b6001600160a01b03828116600090815260036020526040902060080154166120425760405162461bcd60e51b815260040161066090612d5f565b600260009054906101000a90046001600160a01b03166001600160a01b031663c18b1d5e6040518163ffffffff1660e01b8152600401602060405180830381865afa158015612095573d6000803e3d6000fd5b505050506040513d601f19601f820116820180604052508101906120b99190612d42565b6001600160a01b0316336001600160a01b0316146120e95760405162461bcd60e51b815260040161066090612dff565b600084116121095760405162461bcd60e51b815260040161066090612e44565b6001600160a01b03851661212f5760405162461bcd60e51b815260040161066090612e7b565b6001600160a01b038516600090815260036020526040902060028101546121685760405162461bcd60e51b815260040161066090612daf565b61217d6001600160a01b038716333088612866565b848160010160008282546121919190612c4a565b92505081905550848160020160008282546121ac9190612c4a565b90915550506040518581526001600160a01b0387169033907fb61579a10a10e72eda8e63b6e1224e007f5c4108c1378c9a831a11363a74b75a90602001611dea565b6001600160a01b038083166000908152600360208181526040808420600483528185209587168552949091528220908301549192918303612234576000925050506114d2565b6003820154600282015461224a90612710612c5d565b6122549190612c74565b95945050505050565b61226561283c565b6001600160a01b03811660009081526003602090815260408083206004835281842033855290925290912060028101541515806122a6575060008160040154115b6122f25760405162461bcd60e51b815260206004820152601760248201527f4e6f206c6971756964697479206f7220726577617264730000000000000000006044820152606401610660565b6000670de0b6b3a7640000836006015483600201546123119190612c5d565b61231b9190612c74565b9050600082600401548360030154836123349190612c96565b61233e9190612c4a565b90506000811161237d5760405162461bcd60e51b815260206004820152600a6024820152694e6f207265776172647360b01b6044820152606401610660565b60038301829055600060048401819055604051339083908381818185875af1925050503d80600081146123cc576040519150601f19603f3d011682016040523d82523d6000602084013e6123d1565b606091505b50509050806124185760405162461bcd60e51b8152602060048201526013602482015272115512081d1c985b9cd9995c8819985a5b1959606a1b6044820152606401610660565b60405182815233907f106f923f993c2149d49b4255ff723acafa1f2d94393f561d3eda32ae348f72419060200160405180910390a2505050505061192860018055565b600254604051630736b32b60e31b81526001600160a01b038085166004830152849216906339b5995890602401602060405180830381865afa1580156124a5573d6000803e3d6000fd5b505050506040513d601f19601f820116820180604052508101906124c99190612d8d565b156124e65760405162461bcd60e51b815260040161066090612dd5565b8260006124f28261192b565b90506001600160a01b03811661251a5760405162461bcd60e51b815260040161066090612ca9565b6001600160a01b03828116600090815260036020526040902060080154166125545760405162461bcd60e51b815260040161066090612d5f565b600260009054906101000a90046001600160a01b03166001600160a01b031663c18b1d5e6040518163ffffffff1660e01b8152600401602060405180830381865afa1580156125a7573d6000803e3d6000fd5b505050506040513d601f19601f820116820180604052508101906125cb9190612d42565b6001600160a01b0316336001600160a01b0316146125fb5760405162461bcd60e51b815260040161066090612dff565b6000841161261b5760405162461bcd60e51b815260040161066090612e44565b6001600160a01b0385166126415760405162461bcd60e51b815260040161066090612e7b565b6001600160a01b0385166000908152600360205260409020600281015461267a5760405162461bcd60e51b815260040161066090612daf565b84816001015410156126ce5760405162461bcd60e51b815260206004820152601f60248201527f496e73756666696369656e7420706f6f6c20746f6b656e2062616c616e6365006044820152606401610660565b848160010160008282546126e29190612c96565b92505081905550848160020160008282546126fd9190612c96565b9091555061271790506001600160a01b03871633876127dd565b80546001820154600283015460038401546040805194855260208501939093529183015260608201526001600160a01b038716907fe7a1849d3d3b81e99267b68a3889d2f466ac59697fa69ed9f94d306737f6ecd890608001611e4c565b61277d6127b0565b6001600160a01b0381166127a757604051631e4fbdf760e01b815260006004820152602401610660565b611928816129fa565b6000546001600160a01b031633146114a65760405163118cdaa760e01b8152336004820152602401610660565b6040516001600160a01b0383811660248301526044820183905261114691859182169063a9059cbb906064015b604051602081830303815290604052915060e01b6020820180516001600160e01b038381831617835250505050612a4a565b60026001540361285f57604051633ee5aeb560e01b815260040160405180910390fd5b6002600155565b6040516001600160a01b0384811660248301528381166044830152606482018390526107549186918216906323b872dd9060840161280a565b600081116128f95760405162461bcd60e51b815260206004820152602160248201527f45544820616d6f756e74206d7573742062652067726561746572207468616e206044820152600360fc1b6064820152608401610660565b6001600160a01b03821661291f5760405162461bcd60e51b815260040161066090612e7b565b6001600160a01b038216600090815260036020819052604082209081015490910361294957505050565b6003810154600090612963670de0b6b3a764000085612c5d565b61296d9190612c74565b826006015461297c9190612c4a565b905081600601548110156129d25760405162461bcd60e51b815260206004820152601e60248201527f4f766572666c6f7720696e207265776172642063616c63756c6174696f6e00006044820152606401610660565b808260060181905550828260070160008282546129ef9190612c4a565b909155505050505050565b600080546001600160a01b038381166001600160a01b0319831681178455604051919092169283917f8be0079c531659141344cd1fd0a4f28419497f9722a3daafe3b4186f6b6457e09190a35050565b600080602060008451602086016000885af180612a6d576040513d6000823e3d81fd5b50506000513d91508115612a85578060011415612a92565b6001600160a01b0384163b155b1561075457604051635274afe760e01b81526001600160a01b0385166004820152602401610660565b60008060208385031215612ace57600080fd5b823567ffffffffffffffff811115612ae557600080fd5b8301601f81018513612af657600080fd5b803567ffffffffffffffff811115612b0d57600080fd5b8560208260051b8401011115612b2257600080fd5b6020919091019590945092505050565b6001600160a01b038116811461192857600080fd5b600060208284031215612b5957600080fd5b8135612b6481612b32565b9392505050565b60008060408385031215612b7e57600080fd5b8235612b8981612b32565b946020939093013593505050565b600080600060608486031215612bac57600080fd5b8335612bb781612b32565b95602085013595506040909401359392505050565b60008060408385031215612bdf57600080fd5b8235612bea81612b32565b91506020830135612bfa81612b32565b809150509250929050565b634e487b7160e01b600052603260045260246000fd5b600060208284031215612c2d57600080fd5b5051919050565b634e487b7160e01b600052601160045260246000fd5b808201808211156114d2576114d2612c34565b80820281158282048414176114d2576114d2612c34565b600082612c9157634e487b7160e01b600052601260045260246000fd5b500490565b818103818111156114d2576114d2612c34565b60208082526013908201527214185a5c88191bd95cc81b9bdd08195e1a5cdd606a1b604082015260600190565b80516001600160701b0381168114612ced57600080fd5b919050565b600080600060608486031215612d0757600080fd5b612d1084612cd6565b9250612d1e60208501612cd6565b9150604084015163ffffffff81168114612d3757600080fd5b809150509250925092565b600060208284031215612d5457600080fd5b8151612b6481612b32565b602080825260149082015273141bdbdb081b9bdd081a5b9a5d1a585b1a5e995960621b604082015260600190565b600060208284031215612d9f57600080fd5b81518015158114612b6457600080fd5b6020808252600c908201526b4e6f206c697175696469747960a01b604082015260600190565b60208082526010908201526f151bdad95b881a5cc8189b1bd8dad95960821b604082015260600190565b60208082526025908201527f4f6e6c79206f72646572626f6f6b2063616e2063616c6c20746869732066756e60408201526431ba34b7b760d91b606082015260800190565b6020808252601d908201527f416d6f756e74206d7573742062652067726561746572207468616e2030000000604082015260600190565b602080825260159082015274496e76616c696420746f6b656e206164647265737360581b60408201526060019056fea2646970667358221220267b94af337886537f5d3215270f9c8cb64b91610ce4baf55d20728fbf41464264736f6c634300081a0033",
  "linkReferences": {},
  "deployedLinkReferences": {}
}