{
  "_format": "hh-sol-artifact-1",
  "contractName": "GradientOrderbook",
  "sourceName": "contracts/GradientOrderbook.sol",
  "abi": [
    {
      "inputs": [
        {
          "internalType": "contract IGradientRegistry",
          "name": "_gradientRegistry",
          "type": "address"
        }
      ],
      "stateMutability": "nonpayable",
      "type": "constructor"
    },
    {
      "inputs": [
        {
          "internalType": "address",
          "name": "owner",
          "type": "address"
        }
      ],
      "name": "OwnableInvalidOwner",
      "type": "error"
    },
    {
      "inputs": [
        {
          "internalType": "address",
          "name": "account",
          "type": "address"
        }
      ],
      "name": "OwnableUnauthorizedAccount",
      "type": "error"
    },
    {
      "inputs": [],
      "name": "ReentrancyGuardReentrantCall",
      "type": "error"
    },
    {
      "inputs": [
        {
          "internalType": "address",
          "name": "token",
          "type": "address"
        }
      ],
      "name": "SafeERC20FailedOperation",
      "type": "error"
    },
    {
      "anonymous": false,
      "inputs": [
        {
          "indexed": true,
          "internalType": "address",
          "name": "marketMakerPool",
          "type": "address"
        },
        {
          "indexed": true,
          "internalType": "address",
          "name": "token",
          "type": "address"
        },
        {
          "indexed": false,
          "internalType": "uint256",
          "name": "amount",
          "type": "uint256"
        },
        {
          "indexed": false,
          "internalType": "uint256",
          "name": "totalFee",
          "type": "uint256"
        }
      ],
      "name": "FeeDistributedToPool",
      "type": "event"
    },
    {
      "anonymous": false,
      "inputs": [
        {
          "indexed": false,
          "internalType": "uint256",
          "name": "oldFeePercentage",
          "type": "uint256"
        },
        {
          "indexed": false,
          "internalType": "uint256",
          "name": "newFeePercentage",
          "type": "uint256"
        }
      ],
      "name": "FeePercentageUpdated",
      "type": "event"
    },
    {
      "anonymous": false,
      "inputs": [
        {
          "indexed": true,
          "internalType": "address",
          "name": "recipient",
          "type": "address"
        },
        {
          "indexed": false,
          "internalType": "uint256",
          "name": "amount",
          "type": "uint256"
        }
      ],
      "name": "FeesWithdrawn",
      "type": "event"
    },
    {
      "anonymous": false,
      "inputs": [
        {
          "indexed": false,
          "internalType": "uint256",
          "name": "oldPercentage",
          "type": "uint256"
        },
        {
          "indexed": false,
          "internalType": "uint256",
          "name": "newPercentage",
          "type": "uint256"
        }
      ],
      "name": "MMFeeDistributionPercentageUpdated",
      "type": "event"
    },
    {
      "anonymous": false,
      "inputs": [
        {
          "indexed": false,
          "internalType": "uint256",
          "name": "newMaxTTL",
          "type": "uint256"
        }
      ],
      "name": "MaxTTLUpdated",
      "type": "event"
    },
    {
      "anonymous": false,
      "inputs": [
        {
          "indexed": true,
          "internalType": "uint256",
          "name": "orderId",
          "type": "uint256"
        }
      ],
      "name": "OrderCancelled",
      "type": "event"
    },
    {
      "anonymous": false,
      "inputs": [
        {
          "indexed": true,
          "internalType": "uint256",
          "name": "orderId",
          "type": "uint256"
        },
        {
          "indexed": true,
          "internalType": "address",
          "name": "owner",
          "type": "address"
        },
        {
          "indexed": false,
          "internalType": "enum GradientOrderbook.OrderType",
          "name": "orderType",
          "type": "uint8"
        },
        {
          "indexed": false,
          "internalType": "enum GradientOrderbook.OrderExecutionType",
          "name": "executionType",
          "type": "uint8"
        },
        {
          "indexed": false,
          "internalType": "address",
          "name": "token",
          "type": "address"
        },
        {
          "indexed": false,
          "internalType": "uint256",
          "name": "amount",
          "type": "uint256"
        },
        {
          "indexed": false,
          "internalType": "uint256",
          "name": "price",
          "type": "uint256"
        },
        {
          "indexed": false,
          "internalType": "uint256",
          "name": "expirationTime",
          "type": "uint256"
        },
        {
          "indexed": false,
          "internalType": "uint256",
          "name": "totalCost",
          "type": "uint256"
        }
      ],
      "name": "OrderCreated",
      "type": "event"
    },
    {
      "anonymous": false,
      "inputs": [
        {
          "indexed": true,
          "internalType": "uint256",
          "name": "orderId",
          "type": "uint256"
        }
      ],
      "name": "OrderExpired",
      "type": "event"
    },
    {
      "anonymous": false,
      "inputs": [
        {
          "indexed": true,
          "internalType": "uint256",
          "name": "orderId",
          "type": "uint256"
        },
        {
          "indexed": false,
          "internalType": "uint256",
          "name": "amount",
          "type": "uint256"
        }
      ],
      "name": "OrderFulfilled",
      "type": "event"
    },
    {
      "anonymous": false,
      "inputs": [
        {
          "indexed": true,
          "internalType": "uint256",
          "name": "orderId",
          "type": "uint256"
        },
        {
          "indexed": true,
          "internalType": "address",
          "name": "marketMakerPool",
          "type": "address"
        },
        {
          "indexed": false,
          "internalType": "uint256",
          "name": "amount",
          "type": "uint256"
        },
        {
          "indexed": false,
          "internalType": "uint256",
          "name": "price",
          "type": "uint256"
        }
      ],
      "name": "OrderFulfilledByMarketMaker",
      "type": "event"
    },
    {
      "anonymous": false,
      "inputs": [
        {
          "indexed": true,
          "internalType": "uint256",
          "name": "orderId",
          "type": "uint256"
        },
        {
          "indexed": true,
          "internalType": "uint256",
          "name": "matchedOrderId",
          "type": "uint256"
        },
        {
          "indexed": false,
          "internalType": "uint256",
          "name": "amount",
          "type": "uint256"
        },
        {
          "indexed": false,
          "internalType": "uint256",
          "name": "price",
          "type": "uint256"
        }
      ],
      "name": "OrderFulfilledByMatching",
      "type": "event"
    },
    {
      "anonymous": false,
      "inputs": [
        {
          "indexed": true,
          "internalType": "uint256",
          "name": "orderId",
          "type": "uint256"
        },
        {
          "indexed": false,
          "internalType": "uint256",
          "name": "amount",
          "type": "uint256"
        },
        {
          "indexed": false,
          "internalType": "uint256",
          "name": "remaining",
          "type": "uint256"
        }
      ],
      "name": "OrderPartiallyFulfilled",
      "type": "event"
    },
    {
      "anonymous": false,
      "inputs": [
        {
          "indexed": false,
          "internalType": "uint256",
          "name": "minSize",
          "type": "uint256"
        },
        {
          "indexed": false,
          "internalType": "uint256",
          "name": "maxSize",
          "type": "uint256"
        }
      ],
      "name": "OrderSizeLimitsUpdated",
      "type": "event"
    },
    {
      "anonymous": false,
      "inputs": [
        {
          "indexed": true,
          "internalType": "address",
          "name": "previousOwner",
          "type": "address"
        },
        {
          "indexed": true,
          "internalType": "address",
          "name": "newOwner",
          "type": "address"
        }
      ],
      "name": "OwnershipTransferred",
      "type": "event"
    },
    {
      "anonymous": false,
      "inputs": [
        {
          "indexed": false,
          "internalType": "uint256",
          "name": "newInterval",
          "type": "uint256"
        }
      ],
      "name": "RateLimitUpdated",
      "type": "event"
    },
    {
      "stateMutability": "payable",
      "type": "fallback"
    },
    {
      "inputs": [],
      "name": "DIVISOR",
      "outputs": [
        {
          "internalType": "uint256",
          "name": "",
          "type": "uint256"
        }
      ],
      "stateMutability": "view",
      "type": "function"
    },
    {
      "inputs": [],
      "name": "MAX_FEE_PERCENTAGE",
      "outputs": [
        {
          "internalType": "uint256",
          "name": "",
          "type": "uint256"
        }
      ],
      "stateMutability": "view",
      "type": "function"
    },
    {
      "inputs": [
        {
          "internalType": "uint256",
          "name": "orderId",
          "type": "uint256"
        }
      ],
      "name": "cancelOrder",
      "outputs": [],
      "stateMutability": "nonpayable",
      "type": "function"
    },
    {
      "inputs": [
        {
          "internalType": "uint256",
          "name": "orderId",
          "type": "uint256"
        }
      ],
      "name": "cleanupExpiredOrder",
      "outputs": [],
      "stateMutability": "nonpayable",
      "type": "function"
    },
    {
      "inputs": [
        {
          "internalType": "enum GradientOrderbook.OrderType",
          "name": "orderType",
          "type": "uint8"
        },
        {
          "internalType": "enum GradientOrderbook.OrderExecutionType",
          "name": "executionType",
          "type": "uint8"
        },
        {
          "internalType": "address",
          "name": "token",
          "type": "address"
        },
        {
          "internalType": "uint256",
          "name": "amount",
          "type": "uint256"
        },
        {
          "internalType": "uint256",
          "name": "price",
          "type": "uint256"
        },
        {
          "internalType": "uint256",
          "name": "ttl",
          "type": "uint256"
        }
      ],
      "name": "createOrder",
      "outputs": [
        {
          "internalType": "uint256",
          "name": "",
          "type": "uint256"
        }
      ],
      "stateMutability": "payable",
      "type": "function"
    },
    {
      "inputs": [
        {
          "internalType": "address[]",
          "name": "tokens",
          "type": "address[]"
        },
        {
          "internalType": "uint256[]",
          "name": "amounts",
          "type": "uint256[]"
        }
      ],
      "name": "emergencyWithdraw",
      "outputs": [],
      "stateMutability": "nonpayable",
      "type": "function"
    },
    {
      "inputs": [
        {
          "internalType": "uint256",
          "name": "amount",
          "type": "uint256"
        }
      ],
      "name": "emergencyWithdrawETH",
      "outputs": [],
      "stateMutability": "nonpayable",
      "type": "function"
    },
    {
      "inputs": [],
      "name": "feePercentage",
      "outputs": [
        {
          "internalType": "uint256",
          "name": "",
          "type": "uint256"
        }
      ],
      "stateMutability": "view",
      "type": "function"
    },
    {
      "inputs": [
        {
          "components": [
            {
              "internalType": "uint256",
              "name": "buyOrderId",
              "type": "uint256"
            },
            {
              "internalType": "uint256",
              "name": "sellOrderId",
              "type": "uint256"
            },
            {
              "internalType": "uint256",
              "name": "fillAmount",
              "type": "uint256"
            }
          ],
          "internalType": "struct GradientOrderbook.OrderMatch[]",
          "name": "matches",
          "type": "tuple[]"
        }
      ],
      "name": "fulfillLimitOrders",
      "outputs": [],
      "stateMutability": "nonpayable",
      "type": "function"
    },
    {
      "inputs": [
        {
          "components": [
            {
              "internalType": "uint256",
              "name": "buyOrderId",
              "type": "uint256"
            },
            {
              "internalType": "uint256",
              "name": "sellOrderId",
              "type": "uint256"
            },
            {
              "internalType": "uint256",
              "name": "fillAmount",
              "type": "uint256"
            }
          ],
          "internalType": "struct GradientOrderbook.OrderMatch[]",
          "name": "matches",
          "type": "tuple[]"
        },
        {
          "internalType": "uint256[]",
          "name": "executionPrices",
          "type": "uint256[]"
        }
      ],
      "name": "fulfillMarketOrders",
      "outputs": [],
      "stateMutability": "nonpayable",
      "type": "function"
    },
    {
      "inputs": [
        {
          "internalType": "uint256[]",
          "name": "orderIds",
          "type": "uint256[]"
        },
        {
          "internalType": "uint256[]",
          "name": "fillAmounts",
          "type": "uint256[]"
        }
      ],
      "name": "fulfillOrdersWithMarketMaker",
      "outputs": [],
      "stateMutability": "nonpayable",
      "type": "function"
    },
    {
      "inputs": [
        {
          "internalType": "uint256",
          "name": "orderId",
          "type": "uint256"
        },
        {
          "internalType": "uint256",
          "name": "fillAmount",
          "type": "uint256"
        },
        {
          "internalType": "uint256",
          "name": "minAmountOut",
          "type": "uint256"
        }
      ],
      "name": "fulfillOwnOrderWithAMM",
      "outputs": [],
      "stateMutability": "nonpayable",
      "type": "function"
    },
    {
      "inputs": [
        {
          "internalType": "address",
          "name": "token",
          "type": "address"
        },
        {
          "internalType": "enum GradientOrderbook.OrderType",
          "name": "orderType",
          "type": "uint8"
        },
        {
          "internalType": "enum GradientOrderbook.OrderExecutionType",
          "name": "executionType",
          "type": "uint8"
        }
      ],
      "name": "getActiveOrders",
      "outputs": [
        {
          "internalType": "uint256[]",
          "name": "",
          "type": "uint256[]"
        }
      ],
      "stateMutability": "view",
      "type": "function"
    },
    {
      "inputs": [
        {
          "internalType": "bytes32",
          "name": "queueKey",
          "type": "bytes32"
        }
      ],
      "name": "getActiveOrdersCount",
      "outputs": [
        {
          "internalType": "uint256",
          "name": "",
          "type": "uint256"
        }
      ],
      "stateMutability": "view",
      "type": "function"
    },
    {
      "inputs": [
        {
          "internalType": "address",
          "name": "token",
          "type": "address"
        },
        {
          "internalType": "enum GradientOrderbook.OrderType",
          "name": "orderType",
          "type": "uint8"
        },
        {
          "internalType": "enum GradientOrderbook.OrderExecutionType",
          "name": "executionType",
          "type": "uint8"
        },
        {
          "internalType": "uint256",
          "name": "startIndex",
          "type": "uint256"
        },
        {
          "internalType": "uint256",
          "name": "count",
          "type": "uint256"
        }
      ],
      "name": "getActiveOrdersPaged",
      "outputs": [
        {
          "internalType": "uint256[]",
          "name": "",
          "type": "uint256[]"
        }
      ],
      "stateMutability": "view",
      "type": "function"
    },
    {
      "inputs": [
        {
          "internalType": "uint256",
          "name": "orderId",
          "type": "uint256"
        }
      ],
      "name": "getOrder",
      "outputs": [
        {
          "components": [
            {
              "internalType": "uint256",
              "name": "orderId",
              "type": "uint256"
            },
            {
              "internalType": "address",
              "name": "owner",
              "type": "address"
            },
            {
              "internalType": "enum GradientOrderbook.OrderType",
              "name": "orderType",
              "type": "uint8"
            },
            {
              "internalType": "enum GradientOrderbook.OrderExecutionType",
              "name": "executionType",
              "type": "uint8"
            },
            {
              "internalType": "address",
              "name": "token",
              "type": "address"
            },
            {
              "internalType": "uint256",
              "name": "amount",
              "type": "uint256"
            },
            {
              "internalType": "uint256",
              "name": "price",
              "type": "uint256"
            },
            {
              "internalType": "uint256",
              "name": "filledAmount",
              "type": "uint256"
            },
            {
              "internalType": "uint256",
              "name": "expirationTime",
              "type": "uint256"
            },
            {
              "internalType": "enum GradientOrderbook.OrderStatus",
              "name": "status",
              "type": "uint8"
            }
          ],
          "internalType": "struct GradientOrderbook.Order",
          "name": "",
          "type": "tuple"
        }
      ],
      "stateMutability": "view",
      "type": "function"
    },
    {
      "inputs": [
        {
          "internalType": "uint256",
          "name": "orderId",
          "type": "uint256"
        }
      ],
      "name": "getRemainingAmount",
      "outputs": [
        {
          "internalType": "uint256",
          "name": "",
          "type": "uint256"
        }
      ],
      "stateMutability": "view",
      "type": "function"
    },
    {
      "inputs": [],
      "name": "gradientRegistry",
      "outputs": [
        {
          "internalType": "contract IGradientRegistry",
          "name": "",
          "type": "address"
        }
      ],
      "stateMutability": "view",
      "type": "function"
    },
    {
      "inputs": [
        {
          "internalType": "uint256",
          "name": "orderId",
          "type": "uint256"
        }
      ],
      "name": "isOrderExpired",
      "outputs": [
        {
          "internalType": "bool",
          "name": "",
          "type": "bool"
        }
      ],
      "stateMutability": "view",
      "type": "function"
    },
    {
      "inputs": [],
      "name": "maxOrderSize",
      "outputs": [
        {
          "internalType": "uint256",
          "name": "",
          "type": "uint256"
        }
      ],
      "stateMutability": "view",
      "type": "function"
    },
    {
      "inputs": [],
      "name": "maxOrderTtl",
      "outputs": [
        {
          "internalType": "uint256",
          "name": "",
          "type": "uint256"
        }
      ],
      "stateMutability": "view",
      "type": "function"
    },
    {
      "inputs": [],
      "name": "minOrderSize",
      "outputs": [
        {
          "internalType": "uint256",
          "name": "",
          "type": "uint256"
        }
      ],
      "stateMutability": "view",
      "type": "function"
    },
    {
      "inputs": [],
      "name": "mmFeeDistributionPercentage",
      "outputs": [
        {
          "internalType": "uint256",
          "name": "",
          "type": "uint256"
        }
      ],
      "stateMutability": "view",
      "type": "function"
    },
    {
      "inputs": [
        {
          "internalType": "uint256",
          "name": "",
          "type": "uint256"
        }
      ],
      "name": "orders",
      "outputs": [
        {
          "internalType": "uint256",
          "name": "orderId",
          "type": "uint256"
        },
        {
          "internalType": "address",
          "name": "owner",
          "type": "address"
        },
        {
          "internalType": "enum GradientOrderbook.OrderType",
          "name": "orderType",
          "type": "uint8"
        },
        {
          "internalType": "enum GradientOrderbook.OrderExecutionType",
          "name": "executionType",
          "type": "uint8"
        },
        {
          "internalType": "address",
          "name": "token",
          "type": "address"
        },
        {
          "internalType": "uint256",
          "name": "amount",
          "type": "uint256"
        },
        {
          "internalType": "uint256",
          "name": "price",
          "type": "uint256"
        },
        {
          "internalType": "uint256",
          "name": "filledAmount",
          "type": "uint256"
        },
        {
          "internalType": "uint256",
          "name": "expirationTime",
          "type": "uint256"
        },
        {
          "internalType": "enum GradientOrderbook.OrderStatus",
          "name": "status",
          "type": "uint8"
        }
      ],
      "stateMutability": "view",
      "type": "function"
    },
    {
      "inputs": [],
      "name": "owner",
      "outputs": [
        {
          "internalType": "address",
          "name": "",
          "type": "address"
        }
      ],
      "stateMutability": "view",
      "type": "function"
    },
    {
      "inputs": [],
      "name": "renounceOwnership",
      "outputs": [],
      "stateMutability": "nonpayable",
      "type": "function"
    },
    {
      "inputs": [
        {
          "internalType": "uint256",
          "name": "newFeePercentage",
          "type": "uint256"
        }
      ],
      "name": "setFeePercentage",
      "outputs": [],
      "stateMutability": "nonpayable",
      "type": "function"
    },
    {
      "inputs": [
        {
          "internalType": "uint256",
          "name": "_maxOrderTtl",
          "type": "uint256"
        }
      ],
      "name": "setMaxOrderTtl",
      "outputs": [],
      "stateMutability": "nonpayable",
      "type": "function"
    },
    {
      "inputs": [
        {
          "internalType": "uint256",
          "name": "_minOrderSize",
          "type": "uint256"
        },
        {
          "internalType": "uint256",
          "name": "_maxOrderSize",
          "type": "uint256"
        }
      ],
      "name": "setOrderSizeLimits",
      "outputs": [],
      "stateMutability": "nonpayable",
      "type": "function"
    },
    {
      "inputs": [],
      "name": "totalFeesCollected",
      "outputs": [
        {
          "internalType": "uint256",
          "name": "",
          "type": "uint256"
        }
      ],
      "stateMutability": "view",
      "type": "function"
    },
    {
      "inputs": [
        {
          "internalType": "bytes32",
          "name": "",
          "type": "bytes32"
        }
      ],
      "name": "totalOrderCount",
      "outputs": [
        {
          "internalType": "uint256",
          "name": "",
          "type": "uint256"
        }
      ],
      "stateMutability": "view",
      "type": "function"
    },
    {
      "inputs": [
        {
          "internalType": "address",
          "name": "newOwner",
          "type": "address"
        }
      ],
      "name": "transferOwnership",
      "outputs": [],
      "stateMutability": "nonpayable",
      "type": "function"
    },
    {
      "inputs": [
        {
          "internalType": "uint256",
          "name": "newPercentage",
          "type": "uint256"
        }
      ],
      "name": "updateMMFeeDistributionPercentage",
      "outputs": [],
      "stateMutability": "nonpayable",
      "type": "function"
    },
    {
      "inputs": [
        {
          "internalType": "address payable",
          "name": "recipient",
          "type": "address"
        }
      ],
      "name": "withdrawFees",
      "outputs": [],
      "stateMutability": "nonpayable",
      "type": "function"
    },
    {
      "stateMutability": "payable",
      "type": "receive"
    }
  ],
  "bytecode": "0x60a0604052611b58600c5534801561001657600080fd5b50604051614ba2380380614ba2833981016040819052610035916100ea565b338061005b57604051631e4fbdf760e01b81526000600482015260240160405180910390fd5b6100648161009a565b50600180556001600160a01b03166080526032600355620f4240600955683635c9adc5dea00000600a5562278d00600b5561011a565b600080546001600160a01b038381166001600160a01b0319831681178455604051919092169283917f8be0079c531659141344cd1fd0a4f28419497f9722a3daafe3b4186f6b6457e09190a35050565b6000602082840312156100fc57600080fd5b81516001600160a01b038116811461011357600080fd5b9392505050565b608051614a4361015f60003960008181610453015281816107fe0152818161115f0152818161132e01528181611cd70152818161202d0152612bea0152614a436000f3fe6080604052600436106101e55760003560e01c8063715018a611610101578063a674537f1161009a578063c1ddd99c1161006c578063c1ddd99c14610611578063d09ef24114610631578063f1a82c7e1461065e578063f2fde38b14610674578063f6252ff21461069457005b8063a674537f14610521578063a85c38ef14610537578063ae06c1b7146105d1578063bfde1d7c146105f157005b80638f9057df116100d35780638f9057df146104ab578063983d1a14146104cb5780639c302fdb146104eb578063a001ecdd1461050b57005b8063715018a61461040c578063727d211414610421578063830562bc146104415780638da5cb5b1461048d57005b80633410fe6e1161017e578063568c820611610150578063568c82061461037057806359c693131461039057806360c6d8ae146103c057806366961d44146103d65780636b792c4b146103ec57005b80633410fe6e14610304578063457a89241461031a578063514fcac71461033a578063558e44d31461035a57005b8063164e68de116101b7578063164e68de146102815780631f32eb77146102a157806321b30746146102ce5780632f1131fb146102ee57005b80630d34219c146101ee57806310e1c1661461022e57806311e807a41461024e57806313b64e241461026157005b366101ec57005b005b3480156101fa57600080fd5b5061021b610209366004614181565b60066020526000908152604090205481565b6040519081526020015b60405180910390f35b34801561023a57600080fd5b5061021b610249366004614181565b6106b4565b61021b61025c3660046141bc565b610746565b34801561026d57600080fd5b506101ec61027c366004614221565b610e47565b34801561028d57600080fd5b506101ec61029c366004614243565b610e97565b3480156102ad57600080fd5b506102c16102bc366004614267565b611014565b60405161022591906142b2565b3480156102da57600080fd5b506101ec6102e9366004614341565b611142565b3480156102fa57600080fd5b5061021b600c5481565b34801561031057600080fd5b5061021b61271081565b34801561032657600080fd5b506101ec6103353660046143f7565b611311565b34801561034657600080fd5b506101ec610355366004614181565b6114b0565b34801561036657600080fd5b5061021b6101f481565b34801561037c57600080fd5b506101ec61038b366004614181565b611818565b34801561039c57600080fd5b506103b06103ab366004614181565b611b60565b6040519015158152602001610225565b3480156103cc57600080fd5b5061021b60045481565b3480156103e257600080fd5b5061021b600b5481565b3480156103f857600080fd5b506101ec610407366004614181565b611bb2565b34801561041857600080fd5b506101ec611c63565b34801561042d57600080fd5b506101ec61043c366004614181565b611c77565b34801561044d57600080fd5b506104757f000000000000000000000000000000000000000000000000000000000000000081565b6040516001600160a01b039091168152602001610225565b34801561049957600080fd5b506000546001600160a01b0316610475565b3480156104b757600080fd5b506101ec6104c6366004614430565b611cba565b3480156104d757600080fd5b506101ec6104e6366004614181565b611e00565b3480156104f757600080fd5b506101ec610506366004614472565b611e8e565b34801561051757600080fd5b5061021b60035481565b34801561052d57600080fd5b5061021b60095481565b34801561054357600080fd5b506105bb610552366004614181565b60056020819052600091825260409091208054600182015460028301546003840154600485015495850154600686015460079096015494966001600160a01b038086169760ff600160a01b8804811698600160a81b90980481169796909216959293929091168a565b6040516102259a999897969594939291906144e1565b3480156105dd57600080fd5b506101ec6105ec366004614181565b61242b565b3480156105fd57600080fd5b506102c161060c36600461455a565b6124c3565b34801561061d57600080fd5b506101ec61062c366004614341565b612679565b34801561063d57600080fd5b5061065161064c366004614181565b612823565b60405161022591906145b5565b34801561066a57600080fd5b5061021b600a5481565b34801561068057600080fd5b506101ec61068f366004614243565b61297d565b3480156106a057600080fd5b5061021b6106af366004614181565b6129b8565b600080805b60008481526006602052604090205481101561073f5760008481526007602090815260408083208484529091528120549060008281526005602052604090206007015460ff1660038111156107105761071061449e565b148015610723575061072181611b60565b155b1561073657826107328161466f565b9350505b506001016106b9565b5092915050565b6000846001600160a01b0381166107945760405162461bcd60e51b815260206004820152600d60248201526c24b73b30b634b2103a37b5b2b760991b60448201526064015b60405180910390fd5b6000816001600160a01b03163b116107df5760405162461bcd60e51b815260206004820152600e60248201526d139bdd08184818dbdb9d1c9858dd60921b604482015260640161078b565b604051630736b32b60e31b81526001600160a01b0382811660048301527f000000000000000000000000000000000000000000000000000000000000000016906339b5995890602401602060405180830381865afa158015610845573d6000803e3d6000fd5b505050506040513d601f19601f820116820180604052508101906108699190614688565b156108a95760405162461bcd60e51b815260206004820152601060248201526f151bdad95b881a5cc8189b1bd8dad95960821b604482015260640161078b565b6108b1612a1d565b600085116109015760405162461bcd60e51b815260206004820152601d60248201527f416d6f756e74206d7573742062652067726561746572207468616e2030000000604482015260640161078b565b600084116109475760405162461bcd60e51b8152602060048201526013602482015272496e76616c69642070726963652072616e676560681b604482015260640161078b565b600083116109975760405162461bcd60e51b815260206004820152601a60248201527f54544c206d7573742062652067726561746572207468616e2030000000000000604482015260640161078b565b600b548311156109d85760405162461bcd60e51b815260206004820152600c60248201526b54544c20746f6f206c6f6e6760a01b604482015260640161078b565b6000670de0b6b3a76400006109ed86886146aa565b6109f791906146c7565b9050600061271060035483610a0c91906146aa565b610a1691906146c7565b9050600954821015610a5c5760405162461bcd60e51b815260206004820152600f60248201526e13dc99195c881d1bdbc81cdb585b1b608a1b604482015260640161078b565b600a54821115610aa05760405162461bcd60e51b815260206004820152600f60248201526e4f7264657220746f6f206c6172676560881b604482015260640161078b565b60008a6001811115610ab457610ab461449e565b03610b2757610ac381836146e9565b341015610b0a5760405162461bcd60e51b8152602060048201526015602482015274125b9cdd59999a58da595b9d08115512081cd95b9d605a1b604482015260640161078b565b8060046000828254610b1c91906146e9565b90915550610b3c9050565b610b3c6001600160a01b03891633308a612a47565b600280549081906000610b4e8361466f565b9091555050604080516101408101825282815233602082015260009181018d6001811115610b7e57610b7e61449e565b81526020018c6001811115610b9557610b9561449e565b81526020018b6001600160a01b031681526020018a8152602001898152602001600081526020018842610bc891906146e9565b8152602001600090526000838152600560209081526040918290208351815590830151600180830180546001600160a01b039093166001600160a01b0319841681178255948601519596508695939490926001600160a81b0319161790600160a01b908490811115610c3c57610c3c61449e565b021790555060608201518160010160156101000a81548160ff02191690836001811115610c6b57610c6b61449e565b021790555060808201518160020160006101000a8154816001600160a01b0302191690836001600160a01b0316021790555060a0820151816003015560c0820151816004015560e0820151816005015561010082015181600601556101208201518160070160006101000a81548160ff02191690836003811115610cf157610cf161449e565b0217905550905050610d05828b8e8e612aae565b336001600160a01b0316827fa2fb0dce7ae79c4288991eaef209e312e4008fdf46d4842d51f55426ccc903938e8e8e8e8e8861010001518c604051610d5097969594939291906146fc565b60405180910390a360008c6001811115610d6c57610d6c61449e565b148015610d815750610d7e83856146e9565b34115b15610e2e576000610d9284866146e9565b610d9c903461474e565b604051909150600090339083908381818185875af1925050503d8060008114610de1576040519150601f19603f3d011682016040523d82523d6000602084013e610de6565b606091505b5050905080610e2b5760405162461bcd60e51b8152602060048201526011602482015270115512081c995d1d5c9b8819985a5b1959607a1b604482015260640161078b565b50505b5093505050610e3c60018055565b509695505050505050565b610e4f612b18565b6009829055600a81905560408051838152602081018390527f34a3b94861a601870265c6c4d74c28d1a09f6c803ce42b95e749f46127c8f17091015b60405180910390a15050565b610e9f612b18565b6001600160a01b038116610ee95760405162461bcd60e51b8152602060048201526011602482015270125b9d985b1a59081c9958da5c1a595b9d607a1b604482015260640161078b565b60045480610f2f5760405162461bcd60e51b81526020600482015260136024820152724e6f206665657320746f20776974686472617760681b604482015260640161078b565b600060048190556040516001600160a01b0384169083908381818185875af1925050503d8060008114610f7e576040519150601f19603f3d011682016040523d82523d6000602084013e610f83565b606091505b5050905080610fcc5760405162461bcd60e51b8152602060048201526015602482015274119959481dda5d1a191c985dd85b0819985a5b1959605a1b604482015260640161078b565b826001600160a01b03167fc0819c13be868895eb93e40eaceb96de976442fa1d404e5c55f14bb65a8c489a8360405161100791815260200190565b60405180910390a2505050565b60606000611023858585612b45565b90506000611030826106b4565b90506000808267ffffffffffffffff81111561104e5761104e614761565b604051908082528060200260200182016040528015611077578160200160208202803683370190505b50905060005b6000858152600660205260409020548110801561109957508383105b156111365760008581526007602090815260408083208484529091528120549060008281526005602052604090206007015460ff1660038111156110df576110df61449e565b1480156110f257506110f081611b60565b155b15611123578083858151811061110a5761110a614777565b60209081029190910101528361111f8161466f565b9450505b508061112e8161466f565b91505061107d565b50979650505050505050565b61114a612a1d565b6040516314c530d560e31b81523360048201527f00000000000000000000000000000000000000000000000000000000000000006001600160a01b03169063a62986a890602401602060405180830381865afa1580156111ae573d6000803e3d6000fd5b505050506040513d601f19601f820116820180604052508101906111d29190614688565b6111ee5760405162461bcd60e51b815260040161078b9061478d565b826112325760405162461bcd60e51b8152602060048201526014602482015273139bc81bdc99195c9cc81d1bc8199d5b199a5b1b60621b604482015260640161078b565b82811461127c5760405162461bcd60e51b815260206004820152601860248201527709ad2e6dac2e8c6d0cac840c2e4e4c2f2e640d8cadccee8d60431b604482015260640161078b565b60005b8381101561130157600083838381811061129b5761129b614777565b90506020020135116112bf5760405162461bcd60e51b815260040161078b906147c4565b6112f98585838181106112d4576112d4614777565b905060200201358484848181106112ed576112ed614777565b90506020020135612b7b565b60010161127f565b5061130b60018055565b50505050565b611319612a1d565b6040516314c530d560e31b81523360048201527f00000000000000000000000000000000000000000000000000000000000000006001600160a01b03169063a62986a890602401602060405180830381865afa15801561137d573d6000803e3d6000fd5b505050506040513d601f19601f820116820180604052508101906113a19190614688565b6113bd5760405162461bcd60e51b815260040161078b9061478d565b8261140a5760405162461bcd60e51b815260206004820152601b60248201527f4e6f206f72646572206d61746368657320746f2066756c66696c6c0000000000604482015260640161078b565b8281146114545760405162461bcd60e51b815260206004820152601860248201527709ad2e6dac2e8c6d0cac840c2e4e4c2f2e640d8cadccee8d60431b604482015260640161078b565b60005b83811015611301576114a885858381811061147457611474614777565b90506060020180360381019061148a9190614806565b84848481811061149c5761149c614777565b905060200201356132ac565b600101611457565b6114b8612a1d565b60008181526005602052604090206001015481906001600160a01b03166114f15760405162461bcd60e51b815260040161078b90614872565b60008281526005602052604090206001015482906001600160a01b0316331461154e5760405162461bcd60e51b815260206004820152600f60248201526e2737ba1037b93232b91037bbb732b960891b604482015260640161078b565b600083815260056020526040812090600782015460ff1660038111156115765761157661449e565b146115935760405162461bcd60e51b815260040161078b906148a0565b61159c84611b60565b156115b95760405162461bcd60e51b815260040161078b906148ca565b600781018054600260ff19909116179055600180820154600091600160a01b90910460ff16908111156115ee576115ee61449e565b0361179d57600081600501548260030154611609919061474e565b90508015611797576000670de0b6b3a764000083600401548361162c91906146aa565b61163691906146c7565b905060006127106003548361164b91906146aa565b61165591906146c7565b9050600061166382846146e9565b905060006004548311611676578261167a565b6004545b9050806004600082825461168e919061474e565b9091555050828110156116a8576116a581856146e9565b91505b814710156116f85760405162461bcd60e51b815260206004820152601c60248201527f496e73756666696369656e742045544820696e20636f6e747261637400000000604482015260640161078b565b60018601546040516000916001600160a01b03169084908381818185875af1925050503d8060008114611747576040519150601f19603f3d011682016040523d82523d6000602084013e61174c565b606091505b50509050806117915760405162461bcd60e51b8152602060048201526011602482015270115512081c99599d5b990819985a5b1959607a1b604482015260640161078b565b50505050505b506117de565b6000816005015482600301546117b3919061474e565b905080156117dc57600182015460028301546117dc916001600160a01b03918216911683613523565b505b60405184907f61b9399f2f0f32ca39ce8d7be32caed5ec22fe07a6daba3a467ed479ec60658290600090a250505061181560018055565b50565b611820612a1d565b60008181526005602052604090206001015481906001600160a01b03166118595760405162461bcd60e51b815260040161078b90614872565b600082815260056020526040812090600782015460ff1660038111156118815761188161449e565b1461189e5760405162461bcd60e51b815260040161078b906148a0565b6118a783611b60565b6118e75760405162461bcd60e51b815260206004820152601160248201527013dc99195c881b9bdd08195e1c1a5c9959607a1b604482015260640161078b565b60078101805460ff1916600317905560018082015460ff600160a01b90910416818111156119175761191761449e565b0361195d57600081600501548260030154611932919061474e565b9050801561195b576001820154600283015461195b916001600160a01b03918216911683613523565b505b6000600182810154600160a01b900460ff169081111561197f5761197f61449e565b03611b2a5760008160050154826003015461199a919061474e565b90508015611b28576000670de0b6b3a76400008360040154836119bd91906146aa565b6119c791906146c7565b90506000612710600354836119dc91906146aa565b6119e691906146c7565b905060006119f482846146e9565b905060006004548311611a075782611a0b565b6004545b90508060046000828254611a1f919061474e565b909155505082811015611a3957611a3681856146e9565b91505b81471015611a895760405162461bcd60e51b815260206004820152601c60248201527f496e73756666696369656e742045544820696e20636f6e747261637400000000604482015260640161078b565b60018601546040516000916001600160a01b03169084908381818185875af1925050503d8060008114611ad8576040519150601f19603f3d011682016040523d82523d6000602084013e611add565b606091505b5050905080611b225760405162461bcd60e51b8152602060048201526011602482015270115512081c99599d5b990819985a5b1959607a1b604482015260640161078b565b50505050505b505b60405183907f1ad308dc7017610c82d08084545f7176df5e2f08f078c3c8f8926cd7e555551490600090a2505061181560018055565b60008181526005602052604081206001015482906001600160a01b0316611b995760405162461bcd60e51b815260040161078b90614872565b5050600090815260056020526040902060060154421190565b611bba612b18565b47808211611c5f57600080546040516001600160a01b039091169084908381818185875af1925050503d8060008114611c0f576040519150601f19603f3d011682016040523d82523d6000602084013e611c14565b606091505b5050905080611c5d5760405162461bcd60e51b8152602060048201526015602482015274115512081dda5d1a191c985dd85b0819985a5b1959605a1b604482015260640161078b565b505b5050565b611c6b612b18565b611c756000613554565b565b611c7f612b18565b600b8190556040518181527f5829309fa85e85a75b744b2b1ae6b2913b3d2a9c94df75a5b61de31f962256be9060200160405180910390a150565b611cc2612a1d565b6040516314c530d560e31b81523360048201527f00000000000000000000000000000000000000000000000000000000000000006001600160a01b03169063a62986a890602401602060405180830381865afa158015611d26573d6000803e3d6000fd5b505050506040513d601f19601f82011682018060405250810190611d4a9190614688565b611d665760405162461bcd60e51b815260040161078b9061478d565b80611db35760405162461bcd60e51b815260206004820152601b60248201527f4e6f206f72646572206d61746368657320746f2066756c66696c6c0000000000604482015260640161078b565b60005b81811015611df657611dee838383818110611dd357611dd3614777565b905060600201803603810190611de99190614806565b6135a4565b600101611db6565b50611c5f60018055565b611e08612b18565b612710811115611e505760405162461bcd60e51b81526020600482015260136024820152720a0cae4c6cadce8c2ceca40e8dede40d0d2ced606b1b604482015260640161078b565b600c80549082905560408051828152602081018490527f0a4a47a3e5193a63e95c6346171009c8e7099d3795ac25df2b9b672be06cc6ca9101610e8b565b611e96612a1d565b60008381526005602052604090206001015483906001600160a01b0316611ecf5760405162461bcd60e51b815260040161078b90614872565b60008481526005602052604090206001015484906001600160a01b03163314611f2c5760405162461bcd60e51b815260206004820152600f60248201526e2737ba1037b93232b91037bbb732b960891b604482015260640161078b565b60008411611f4c5760405162461bcd60e51b815260040161078b906147c4565b600085815260056020526040812090600782015460ff166003811115611f7457611f7461449e565b14611f915760405162461bcd60e51b815260040161078b906148a0565b611f9a86611b60565b15611fb75760405162461bcd60e51b815260040161078b906148ca565b600081600501548260030154611fcd919061474e565b90506000818711611fde5786611fe0565b815b9050600081116120025760405162461bcd60e51b815260040161078b906148f1565b6000670de0b6b3a764000084600401548361201d91906146aa565b61202791906146c7565b905060007f00000000000000000000000000000000000000000000000000000000000000006001600160a01b031663745e9e9f6040518163ffffffff1660e01b8152600401602060405180830381865afa158015612089573d6000803e3d6000fd5b505050506040513d601f19601f820116820180604052508101906120ad919061491c565b90506001600160a01b0381166121055760405162461bcd60e51b815260206004820152601860248201527f46616c6c6261636b4578656375746f72206e6f74207365740000000000000000604482015260640161078b565b6000600186810154600160a01b900460ff16908111156121275761212761449e565b036121e157600285015460405163815a1a0d60e01b81526001600160a01b03918216600482015260248101849052604481018a90526001606482015260009183169063815a1a0d90859060840160206040518083038185885af1158015612192573d6000803e3d6000fd5b50505050506040513d601f19601f820116820180604052508101906121b79190614939565b600187015460028801549192506121db916001600160a01b03908116911683613523565b5061237e565b600285015460405163095ea7b360e01b81526001600160a01b038381166004830152602482018690529091169063095ea7b3906044016020604051808303816000875af1158015612236573d6000803e3d6000fd5b505050506040513d601f19601f8201168201806040525081019061225a9190614688565b50600285015460405163815a1a0d60e01b81526001600160a01b03918216600482015260248101859052604481018a90526000606482018190529183169063815a1a0d906084016020604051808303816000875af11580156122c0573d6000803e3d6000fd5b505050506040513d601f19601f820116820180604052508101906122e49190614939565b905060006122f18261389b565b905060006122ff828461474e565b60018901546040519192506000916001600160a01b039091169083908381818185875af1925050503d8060008114612353576040519150601f19603f3d011682016040523d82523d6000602084013e612358565b606091505b50509050806123795760405162461bcd60e51b815260040161078b90614952565b505050505b8285600501600082825461239291906146e9565b909155505060038501546005860154036123dd5760078501805460ff191660011790556040518381528a906000805160206149ce8339815191529060200160405180910390a261241b565b896000805160206149ee8339815191528487600501548860030154612402919061474e565b6040805192835260208301919091520160405180910390a25b50505050505050611c5d60018055565b612433612b18565b6101f48111156124855760405162461bcd60e51b815260206004820152601760248201527f4665652070657263656e7461676520746f6f2068696768000000000000000000604482015260640161078b565b600380549082905560408051828152602081018490527fb27c12a91635e11c22bffa7bd8e0a8735da52b94aaefd7f249776c7590ba78949101610e8b565b606060006124d2878787612b45565b6000818152600660205260408120549192508467ffffffffffffffff8111156124fd576124fd614761565b604051908082528060200260200182016040528015612526578160200160208202803683370190505b5090506000865b838110801561253b57508682105b156125d85760008581526007602090815260408083208484529091528120549060008281526005602052604090206007015460ff1660038111156125815761258161449e565b148015612594575061259281611b60565b155b156125c557808484815181106125ac576125ac614777565b6020908102919091010152826125c18161466f565b9350505b50806125d08161466f565b91505061252d565b5060008167ffffffffffffffff8111156125f4576125f4614761565b60405190808252806020026020018201604052801561261d578160200160208202803683370190505b50905060005b8281101561266a5783818151811061263d5761263d614777565b602002602001015182828151811061265757612657614777565b6020908102919091010152600101612623565b509a9950505050505050505050565b612681612b18565b8281146126c15760405162461bcd60e51b815260206004820152600e60248201526d092dcecc2d8d2c840d8cadccee8d60931b604482015260640161078b565b47801561276557600080546040516001600160a01b039091169083908381818185875af1925050503d8060008114612715576040519150601f19603f3d011682016040523d82523d6000602084013e61271a565b606091505b50509050806127635760405162461bcd60e51b8152602060048201526015602482015274115512081dda5d1a191c985dd85b0819985a5b1959605a1b604482015260640161078b565b505b60005b8481101561281b57600086868381811061278457612784614777565b90506020020160208101906127999190614243565b90506001600160a01b038116156128125760008585848181106127be576127be614777565b905060200201351115612812576128126127e06000546001600160a01b031690565b8686858181106127f2576127f2614777565b90506020020135836001600160a01b03166135239092919063ffffffff16565b50600101612768565b505050505050565b61282b614115565b60008281526005602052604090206001015482906001600160a01b03166128645760405162461bcd60e51b815260040161078b90614872565b600083815260056020908152604091829020825161014081018452815481526001808301546001600160a01b038116948301949094529093919291840191600160a01b900460ff16908111156128bc576128bc61449e565b60018111156128cd576128cd61449e565b81526020016001820160159054906101000a900460ff1660018111156128f5576128f561449e565b60018111156129065761290661449e565b815260028201546001600160a01b0316602082015260038083015460408301526004830154606083015260058301546080830152600683015460a0830152600783015460c09092019160ff16908111156129625761296261449e565b60038111156129735761297361449e565b9052509392505050565b612985612b18565b6001600160a01b0381166129af57604051631e4fbdf760e01b81526000600482015260240161078b565b61181581613554565b60008181526005602052604081206001015482906001600160a01b03166129f15760405162461bcd60e51b815260040161078b90614872565b6000838152600560208190526040909120908101546003820154612a15919061474e565b949350505050565b600260015403612a4057604051633ee5aeb560e01b815260040160405180910390fd5b6002600155565b6040516001600160a01b03848116602483015283811660448301526064820183905261130b9186918216906323b872dd906084015b604051602081830303815290604052915060e01b6020820180516001600160e01b0383818316178352505050506138d9565b6000612abb848484612b45565b600081815260066020818152604080842080548b8652600884528286208190558686526007845282862090865283529084208a90558484529190528054929350600192909190612b0c9084906146e9565b90915550505050505050565b6000546001600160a01b03163314611c755760405163118cdaa760e01b815233600482015260240161078b565b6000838383604051602001612b5c93929190614989565b6040516020818303038152906040528051906020012090509392505050565b600082815260056020526040812090600782015460ff166003811115612ba357612ba361449e565b14612bc05760405162461bcd60e51b815260040161078b906148a0565b612bc983611b60565b15612be65760405162461bcd60e51b815260040161078b906148ca565b60007f00000000000000000000000000000000000000000000000000000000000000006001600160a01b0316634513443a6040518163ffffffff1660e01b8152600401602060405180830381865afa158015612c46573d6000803e3d6000fd5b505050506040513d601f19601f82011682018060405250810190612c6a919061491c565b90506001600160a01b038116612cc25760405162461bcd60e51b815260206004820152601960248201527f4d61726b6574206d616b657220706f6f6c206e6f742073657400000000000000604482015260640161078b565b600082600501548360030154612cd8919061474e565b90506000818511612ce95784612ceb565b815b905060008111612d0d5760405162461bcd60e51b815260040161078b906148f1565b6000670de0b6b3a7640000856004015483612d2891906146aa565b612d3291906146c7565b90506000600186810154600160a01b900460ff1690811115612d5657612d5661449e565b03612f62576002850154604051631ce0df5b60e31b81526001600160a01b039182166004820152602481018490529085169063e706fad890604401600060405180830381600087803b158015612dab57600080fd5b505af1158015612dbf573d6000803e3d6000fd5b505050506002850154604051638a57fddd60e01b81526001600160a01b0391821660048201526024810183905290851690638a57fddd9083906044016000604051808303818588803b158015612e1457600080fd5b505af1158015612e28573d6000803e3d6000fd5b5050505050600061271060035483612e4091906146aa565b612e4a91906146c7565b90506000612710600c5483612e5f91906146aa565b612e6991906146c7565b90508060046000828254612e7d919061474e565b90915550508015612f3a576002870154604051632bb7a23960e11b81526001600160a01b0391821660048201529087169063576f44729083906024016000604051808303818588803b158015612ed257600080fd5b505af1158015612ee6573d6000803e3d6000fd5b50505050600288015460408051848152602081018690526001600160a01b039283169350918916917fc982e7967fb960b701a067b4e881e50050b566f3b82a9c94e4f8a8c23174edf9910160405180910390a35b60018701546002880154612f5b916001600160a01b03918216911686613523565b50506131b5565b6002850154604051637e7c7a9560e01b81526001600160a01b0391821660048201526024810183905290851690637e7c7a9590604401600060405180830381600087803b158015612fb257600080fd5b505af1158015612fc6573d6000803e3d6000fd5b505050506000612fd58261389b565b90506000612fe3828461474e565b600288015460405163adabfa0560e01b81526001600160a01b0391821660048201526024810187905291925087169063adabfa0590604401600060405180830381600087803b15801561303557600080fd5b505af1158015613049573d6000803e3d6000fd5b505050506000612710600c548461306091906146aa565b61306a91906146c7565b9050806004600082825461307e919061474e565b9091555050801561313b576002880154604051632bb7a23960e11b81526001600160a01b0391821660048201529088169063576f44729083906024016000604051808303818588803b1580156130d357600080fd5b505af11580156130e7573d6000803e3d6000fd5b50505050600289015460408051848152602081018790526001600160a01b039283169350918a16917fc982e7967fb960b701a067b4e881e50050b566f3b82a9c94e4f8a8c23174edf9910160405180910390a35b60018801546040516000916001600160a01b03169084908381818185875af1925050503d806000811461318a576040519150601f19603f3d011682016040523d82523d6000602084013e61318f565b606091505b50509050806131b05760405162461bcd60e51b815260040161078b90614952565b505050505b818560050160008282546131c991906146e9565b909155505060038501546005860154036132145760078501805460ff1916600117905560405182815287906000805160206149ce8339815191529060200160405180910390a2613252565b866000805160206149ee8339815191528387600501548860030154613239919061474e565b6040805192835260208301919091520160405180910390a25b836001600160a01b0316877fe332d84b9d7b6ed7b61613e3346be661c47cd1bcb330e8cdb0887aa2d3425e6e84886004015460405161329b929190918252602082015260400190565b60405180910390a350505050505050565b8151600090815260056020908152604080832091850151835282209091600783015460ff1660038111156132e2576132e261449e565b14801561330757506000600782015460ff1660038111156133055761330561449e565b145b61334b5760405162461bcd60e51b81526020600482015260156024820152744f7264657273206d7573742062652061637469766560581b604482015260640161078b565b835161335690611b60565b15801561336d575061336b8460200151611b60565b155b6133aa5760405162461bcd60e51b815260206004820152600e60248201526d13dc99195c9cc8195e1c1a5c995960921b604482015260640161078b565b6000600183810154600160a01b900460ff16908111156133cc576133cc61449e565b1480156133f7575060018082810154600160a01b900460ff16908111156133f5576133f561449e565b145b6134395760405162461bcd60e51b8152602060048201526013602482015272496e76616c6964206f7264657220747970657360681b604482015260640161078b565b600280820154908301546001600160a01b0390811691161461348e5760405162461bcd60e51b815260206004820152600e60248201526d0a8ded6cadc40dad2e6dac2e8c6d60931b604482015260640161078b565b60018083810154600160a81b900460ff16908111156134af576134af61449e565b14806134d9575060018082810154600160a81b900460ff16908111156134d7576134d761449e565b145b6135195760405162461bcd60e51b81526020600482015260116024820152704e6f74206d61726b6574206f726465727360781b604482015260640161078b565b61130b848461394a565b6040516001600160a01b03838116602483015260448201839052611c5d91859182169063a9059cbb90606401612a7c565b600080546001600160a01b038381166001600160a01b0319831681178455604051919092169283917f8be0079c531659141344cd1fd0a4f28419497f9722a3daafe3b4186f6b6457e09190a35050565b8051600090815260056020908152604080832091840151835282209091600783015460ff1660038111156135da576135da61449e565b1480156135ff57506000600782015460ff1660038111156135fd576135fd61449e565b145b6136435760405162461bcd60e51b81526020600482015260156024820152744f7264657273206d7573742062652061637469766560581b604482015260640161078b565b825161364e90611b60565b15801561366557506136638360200151611b60565b155b6136b15760405162461bcd60e51b815260206004820152601760248201527f31206f6620746865206f72646572732065787069726564000000000000000000604482015260640161078b565b6000600183810154600160a01b900460ff16908111156136d3576136d361449e565b1480156136fe575060018082810154600160a01b900460ff16908111156136fc576136fc61449e565b145b6137405760405162461bcd60e51b8152602060048201526013602482015272496e76616c6964206f7264657220747970657360681b604482015260640161078b565b600280820154908301546001600160a01b039081169116146137955760405162461bcd60e51b815260206004820152600e60248201526d0a8ded6cadc40dad2e6dac2e8c6d60931b604482015260640161078b565b600180820154908301546001600160a01b039182169116036138055760405162461bcd60e51b815260206004820152602360248201527f53656c6c657220616e642062757965722063616e6e6f74206265207468652073604482015262616d6560e81b606482015260840161078b565b6000600183810154600160a81b900460ff16908111156138275761382761449e565b14801561385357506000600182810154600160a81b900460ff16908111156138515761385161449e565b145b6138925760405162461bcd60e51b815260206004820152601060248201526f4e6f74206c696d6974206f726465727360801b604482015260640161078b565b611c5d83613d15565b600080612710600354846138af91906146aa565b6138b991906146c7565b905080600460008282546138cd91906146e9565b90915550909392505050565b600080602060008451602086016000885af1806138fc576040513d6000823e3d81fd5b50506000513d91508115613914578060011415613921565b6001600160a01b0384163b155b1561130b57604051635274afe760e01b81526001600160a01b038516600482015260240161078b565b8151600090815260056020908152604080832091850151835290912060018083810154600160a81b900460ff16908111156139875761398761449e565b036139f25781600401548311156139f25760405162461bcd60e51b815260206004820152602960248201527f457865637574696f6e20707269636520657863656564732062757965722773206044820152686d617820707269636560b81b606482015260840161078b565b60018082810154600160a81b900460ff1690811115613a1357613a1361449e565b03613a7d578060040154831015613a7d5760405162461bcd60e51b815260206004820152602860248201527f457865637574696f6e2070726963652062656c6f772073656c6c65722773206d604482015267696e20707269636560c01b606482015260840161078b565b600082600501548360030154613a93919061474e565b9050600082600501548360030154613aab919061474e565b604087015190915082811115613abe5750815b81811115613ac95750805b60008111613ae95760405162461bcd60e51b815260040161078b906148f1565b806000670de0b6b3a7640000613aff89846146aa565b613b0991906146c7565b90506000613b168261389b565b90506000613b24828461474e565b60018901546040519192506000916001600160a01b039091169083908381818185875af1925050503d8060008114613b78576040519150601f19603f3d011682016040523d82523d6000602084013e613b7d565b606091505b5050905080613b9e5760405162461bcd60e51b815260040161078b90614952565b60018a015460028a0154613bbf916001600160a01b03918216911687613523565b858a6005016000828254613bd391906146e9565b9250508190555085896005016000828254613bee91906146e9565b909155505060038a015460058b015403613c395760078a01805460ff191660011790558b516040518781526000805160206149ce8339815191529060200160405180910390a2613c7b565b8b600001516000805160206149ee833981519152878c600501548d60030154613c62919061474e565b6040805192835260208301919091520160405180910390a25b8860030154896005015403613cc55760078901805460ff191660011790556020808d015160405188815290916000805160206149ce833981519152910160405180910390a2613d07565b8b602001516000805160206149ee833981519152878b600501548c60030154613cee919061474e565b6040805192835260208301919091520160405180910390a25b505050505050505050505050565b80516000908152600560209081526040808320918401518352909120600480820154908301541015613d895760405162461bcd60e51b815260206004820152601f60248201527f5072696365206d69736d6174636820666f72206c696d6974206f726465727300604482015260640161078b565b600082600501548360030154613d9f919061474e565b9050600082600501548360030154613db7919061474e565b604086015190915082811115613dca5750815b81811115613dd55750805b60008111613df55760405162461bcd60e51b815260040161078b906148f1565b60048401548190600090670de0b6b3a764000090613e1390846146aa565b613e1d91906146c7565b90506000613e2a8261389b565b90506000613e38828461474e565b60018901546040519192506000916001600160a01b039091169083908381818185875af1925050503d8060008114613e8c576040519150601f19603f3d011682016040523d82523d6000602084013e613e91565b606091505b5050905080613eb25760405162461bcd60e51b815260040161078b90614952565b60018a015460028a0154613ed3916001600160a01b03918216911687613523565b858a6005016000828254613ee791906146e9565b9250508190555085896005016000828254613f0291906146e9565b90915550506004808a0154908b01541115613ff4576000670de0b6b3a76400008a600401548c60040154613f36919061474e565b613f4090896146aa565b613f4a91906146c7565b60018c01546040519192506001600160a01b0316908290600081818185875af1925050503d8060008114613f9a576040519150601f19603f3d011682016040523d82523d6000602084013e613f9f565b606091505b50508092505081613ff25760405162461bcd60e51b815260206004820152601960248201527f45544820736176696e67732072657475726e206661696c656400000000000000604482015260640161078b565b505b89600301548a600501540361403a5760078a01805460ff191660011790558a516040518781526000805160206149ce8339815191529060200160405180910390a261407c565b8a600001516000805160206149ee833981519152878c600501548d60030154614063919061474e565b6040805192835260208301919091520160405180910390a25b88600301548960050154036140c65760078901805460ff191660011790556020808c015160405188815290916000805160206149ce833981519152910160405180910390a2614108565b8a602001516000805160206149ee833981519152878b600501548c600301546140ef919061474e565b6040805192835260208301919091520160405180910390a25b5050505050505050505050565b6040805161014081018252600080825260208201819052909182019081526020016000815260200160006001600160a01b03168152602001600081526020016000815260200160008152602001600081526020016000600381111561417c5761417c61449e565b905290565b60006020828403121561419357600080fd5b5035919050565b6002811061181557600080fd5b6001600160a01b038116811461181557600080fd5b60008060008060008060c087890312156141d557600080fd5b86356141e08161419a565b955060208701356141f08161419a565b94506040870135614200816141a7565b959894975094956060810135955060808101359460a0909101359350915050565b6000806040838503121561423457600080fd5b50508035926020909101359150565b60006020828403121561425557600080fd5b8135614260816141a7565b9392505050565b60008060006060848603121561427c57600080fd5b8335614287816141a7565b925060208401356142978161419a565b915060408401356142a78161419a565b809150509250925092565b602080825282518282018190526000918401906040840190835b818110156142ea5783518352602093840193909201916001016142cc565b509095945050505050565b60008083601f84011261430757600080fd5b50813567ffffffffffffffff81111561431f57600080fd5b6020830191508360208260051b850101111561433a57600080fd5b9250929050565b6000806000806040858703121561435757600080fd5b843567ffffffffffffffff81111561436e57600080fd5b61437a878288016142f5565b909550935050602085013567ffffffffffffffff81111561439a57600080fd5b6143a6878288016142f5565b95989497509550505050565b60008083601f8401126143c457600080fd5b50813567ffffffffffffffff8111156143dc57600080fd5b60208301915083602060608302850101111561433a57600080fd5b6000806000806040858703121561440d57600080fd5b843567ffffffffffffffff81111561442457600080fd5b61437a878288016143b2565b6000806020838503121561444357600080fd5b823567ffffffffffffffff81111561445a57600080fd5b614466858286016143b2565b90969095509350505050565b60008060006060848603121561448757600080fd5b505081359360208301359350604090920135919050565b634e487b7160e01b600052602160045260246000fd5b600281106118155761181561449e565b6144cd816144b4565b9052565b600481106144cd576144cd61449e565b8a81526001600160a01b038a16602082015261014081016145018a6144b4565b896040830152614510896144b4565b88606083015260018060a01b03881660808301528660a08301528560c08301528460e08301528361010083015261454b6101208301846144d1565b9b9a5050505050505050505050565b600080600080600060a0868803121561457257600080fd5b853561457d816141a7565b9450602086013561458d8161419a565b9350604086013561459d8161419a565b94979396509394606081013594506080013592915050565b815181526020808301516101408301916145d9908401826001600160a01b03169052565b5060408301516145ec60408401826144c4565b5060608301516145ff60608401826144c4565b50608083015161461a60808401826001600160a01b03169052565b5060a083015160a083015260c083015160c083015260e083015160e083015261010083015161010083015261012083015161073f6101208401826144d1565b634e487b7160e01b600052601160045260246000fd5b60006001820161468157614681614659565b5060010190565b60006020828403121561469a57600080fd5b8151801515811461426057600080fd5b80820281158282048414176146c1576146c1614659565b92915050565b6000826146e457634e487b7160e01b600052601260045260246000fd5b500490565b808201808211156146c1576146c1614659565b60e08101614709896144b4565b888252614715886144b4565b60208201979097526001600160a01b039590951660408601526060850193909352608084019190915260a083015260c090910152919050565b818103818111156146c1576146c1614659565b634e487b7160e01b600052604160045260246000fd5b634e487b7160e01b600052603260045260246000fd5b60208082526018908201527f43616c6c6572206973206e6f7420617574686f72697a65640000000000000000604082015260600190565b60208082526022908201527f46696c6c20616d6f756e74206d7573742062652067726561746572207468616e604082015261020360f41b606082015260800190565b6000606082840312801561481957600080fd5b600090506040516060810181811067ffffffffffffffff8211171561484c57634e487b7160e01b83526041600452602483fd5b604090815284358252602080860135908301529384013593810193909352509092915050565b60208082526014908201527313dc99195c88191bd95cc81b9bdd08195e1a5cdd60621b604082015260600190565b60208082526010908201526f4f72646572206e6f742061637469766560801b604082015260600190565b6020808252600d908201526c13dc99195c88195e1c1a5c9959609a1b604082015260600190565b602080825260119082015270139bc8185b5bdd5b9d081d1bc8199a5b1b607a1b604082015260600190565b60006020828403121561492e57600080fd5b8151614260816141a7565b60006020828403121561494b57600080fd5b5051919050565b6020808252601d908201527f455448207472616e7366657220746f2073656c6c6572206661696c6564000000604082015260600190565b6bffffffffffffffffffffffff198460601b1681526149a7836144b4565b8260f81b60148201526149b9826144b4565b60f89190911b60158201526016019291505056feeb3b41be12efa25c0c65725eeff2e2ad0250e2e5de2aa939e18f36aa656e98808f9f7f58643161141dd2b5b862b54ab647f74549d3b06fd4430272bcc411678ca26469706673582212207f593f854a7759d06d9f1c8985f8000cb316cbe3d324ba388d2c829d74325e6364736f6c634300081a0033",
  "linkReferences": {},
  "deployedLinkReferences": {}
}